{
  "_format": "hh-sol-artifact-1",
  "contractName": "AccountMinerOwnFunds",
  "sourceName": "contracts/core/AccountMinerOwnFunds.sol",
  "abi": [
    {
      "inputs": [
        {
          "internalType": "address",
          "name": "addressProvider",
          "type": "address"
        }
      ],
      "stateMutability": "nonpayable",
      "type": "constructor"
    },
    {
      "anonymous": false,
      "inputs": [
        {
          "indexed": true,
          "internalType": "address",
          "name": "sponsor",
          "type": "address"
        },
        {
          "indexed": false,
          "internalType": "uint256",
          "name": "amount",
          "type": "uint256"
        }
      ],
      "name": "BalanceAdded",
      "type": "event"
    },
    {
      "anonymous": false,
      "inputs": [
        {
          "indexed": false,
          "internalType": "address",
          "name": "account",
          "type": "address"
        }
      ],
      "name": "Paused",
      "type": "event"
    },
    {
      "anonymous": false,
      "inputs": [
        {
          "indexed": false,
          "internalType": "address",
          "name": "account",
          "type": "address"
        }
      ],
      "name": "Unpaused",
      "type": "event"
    },
    {
      "inputs": [],
      "name": "accountFactory",
      "outputs": [
        {
          "internalType": "address",
          "name": "",
          "type": "address"
        }
      ],
      "stateMutability": "view",
      "type": "function"
    },
    {
      "inputs": [],
      "name": "kind",
      "outputs": [
        {
          "internalType": "bytes32",
          "name": "",
          "type": "bytes32"
        }
      ],
      "stateMutability": "view",
      "type": "function"
    },
    {
      "inputs": [
        {
          "internalType": "address payable",
          "name": "trader",
          "type": "address"
        }
      ],
      "name": "mineAccount",
      "outputs": [],
      "stateMutability": "nonpayable",
      "type": "function"
    },
    {
      "inputs": [],
      "name": "pause",
      "outputs": [],
      "stateMutability": "nonpayable",
      "type": "function"
    },
    {
      "inputs": [],
      "name": "paused",
      "outputs": [
        {
          "internalType": "bool",
          "name": "",
          "type": "bool"
        }
      ],
      "stateMutability": "view",
      "type": "function"
    },
    {
      "inputs": [],
      "name": "unpause",
      "outputs": [],
      "stateMutability": "nonpayable",
      "type": "function"
    },
    {
      "stateMutability": "payable",
      "type": "receive"
    }
  ],
  "bytecode": "0x608060405234801561001057600080fd5b50604051610e06380380610e068339818101604052602081101561003357600080fd5b8101908080519060200190929190505050808160008190508073ffffffffffffffffffffffffffffffffffffffff16639068a8686040518163ffffffff1660e01b815260040160206040518083038186803b15801561009157600080fd5b505afa1580156100a5573d6000803e3d6000fd5b505050506040513d60208110156100bb57600080fd5b81019080805190602001909291905050506000806101000a81548173ffffffffffffffffffffffffffffffffffffffff021916908373ffffffffffffffffffffffffffffffffffffffff160217905550505060008060146101000a81548160ff0219169083151502179055508073ffffffffffffffffffffffffffffffffffffffff1663087376956040518163ffffffff1660e01b815260040160206040518083038186803b15801561016d57600080fd5b505afa158015610181573d6000803e3d6000fd5b505050506040513d602081101561019757600080fd5b8101908080519060200190929190505050600160006101000a81548173ffffffffffffffffffffffffffffffffffffffff021916908373ffffffffffffffffffffffffffffffffffffffff16021790555050600160028190555050610c05806102016000396000f3fe6080604052600436106100595760003560e01c806304baa00b146101b55780633f4ba83a146101e05780635c975abb146101f7578063687cd9c1146102245780638456cb59146102655780639849e42f1461027c576101b0565b366101b0576100666102cd565b156100d9576040517f08c379a00000000000000000000000000000000000000000000000000000000081526004018080602001828103825260108152602001807f5061757361626c653a207061757365640000000000000000000000000000000081525060200191505060405180910390fd5b600280541415610151576040517f08c379a000000000000000000000000000000000000000000000000000000000815260040180806020018281038252601f8152602001807f5265656e7472616e637947756172643a207265656e7472616e742063616c6c0081525060200191505060405180910390fd5b600280819055503373ffffffffffffffffffffffffffffffffffffffff167fe96dd7a15a3974e8e7d5eb80de2cb6fd69907a1ee089170cd976cfffaedfa8ac346040518082815260200191505060405180910390a26001600281905550005b600080fd5b3480156101c157600080fd5b506101ca6102e3565b6040518082815260200191505060405180910390f35b3480156101ec57600080fd5b506101f5610307565b005b34801561020357600080fd5b5061020c6102cd565b60405180821515815260200191505060405180910390f35b34801561023057600080fd5b506102396104b2565b604051808273ffffffffffffffffffffffffffffffffffffffff16815260200191505060405180910390f35b34801561027157600080fd5b5061027a6104d6565b005b34801561028857600080fd5b506102cb6004803603602081101561029f57600080fd5b81019080803573ffffffffffffffffffffffffffffffffffffffff169060200190929190505050610681565b005b60008060149054906101000a900460ff16905090565b7f6f776e000000000000000000000000000000000000000000000000000000000081565b600160009054906101000a900473ffffffffffffffffffffffffffffffffffffffff1673ffffffffffffffffffffffffffffffffffffffff1663d4eb5db0336040518263ffffffff1660e01b8152600401808273ffffffffffffffffffffffffffffffffffffffff16815260200191505060206040518083038186803b15801561039057600080fd5b505afa1580156103a4573d6000803e3d6000fd5b505050506040513d60208110156103ba57600080fd5b81019080805190602001909291905050506040518060400160405280600281526020017f4331000000000000000000000000000000000000000000000000000000000000815250906104a7576040517f08c379a00000000000000000000000000000000000000000000000000000000081526004018080602001828103825283818151815260200191508051906020019080838360005b8381101561046c578082015181840152602081019050610451565b50505050905090810190601f1680156104995780820380516001836020036101000a031916815260200191505b509250505060405180910390fd5b506104b0610823565b565b60008054906101000a900473ffffffffffffffffffffffffffffffffffffffff1681565b600160009054906101000a900473ffffffffffffffffffffffffffffffffffffffff1673ffffffffffffffffffffffffffffffffffffffff16633a41ec64336040518263ffffffff1660e01b8152600401808273ffffffffffffffffffffffffffffffffffffffff16815260200191505060206040518083038186803b15801561055f57600080fd5b505afa158015610573573d6000803e3d6000fd5b505050506040513d602081101561058957600080fd5b81019080805190602001909291905050506040518060400160405280600281526020017f433100000000000000000000000000000000000000000000000000000000000081525090610676576040517f08c379a00000000000000000000000000000000000000000000000000000000081526004018080602001828103825283818151815260200191508051906020019080838360005b8381101561063b578082015181840152602081019050610620565b50505050905090810190601f1680156106685780820380516001836020036101000a031916815260200191505b509250505060405180910390fd5b5061067f61090d565b565b60008054906101000a900473ffffffffffffffffffffffffffffffffffffffff1673ffffffffffffffffffffffffffffffffffffffff163373ffffffffffffffffffffffffffffffffffffffff1614604051806060016040528060268152602001610baa602691399061078f576040517f08c379a00000000000000000000000000000000000000000000000000000000081526004018080602001828103825283818151815260200191508051906020019080838360005b83811015610754578082015181840152602081019050610739565b50505050905090810190601f1680156107815780820380516001836020036101000a031916815260200191505b509250505060405180910390fd5b50600280541415610808576040517f08c379a000000000000000000000000000000000000000000000000000000000815260040180806020018281038252601f8152602001807f5265656e7472616e637947756172643a207265656e7472616e742063616c6c0081525060200191505060405180910390fd5b60028081905550610818816109f9565b600160028190555050565b61082b6102cd565b61089d576040517f08c379a00000000000000000000000000000000000000000000000000000000081526004018080602001828103825260148152602001807f5061757361626c653a206e6f742070617573656400000000000000000000000081525060200191505060405180910390fd5b60008060146101000a81548160ff0219169083151502179055507f5db9ee0a495bf2e6ff9c91a7834c1ba4fdd244a5e8aa4e537bd38aeae4b073aa6108e0610a2d565b604051808273ffffffffffffffffffffffffffffffffffffffff16815260200191505060405180910390a1565b6109156102cd565b15610988576040517f08c379a00000000000000000000000000000000000000000000000000000000081526004018080602001828103825260108152602001807f5061757361626c653a207061757365640000000000000000000000000000000081525060200191505060405180910390fd5b6001600060146101000a81548160ff0219169083151502179055507f62e78cea01bee320cd4e420270b5ea74000d11b0c9f74754ebdbfc544b05a2586109cc610a2d565b604051808273ffffffffffffffffffffffffffffffffffffffff16815260200191505060405180910390a1565b610a2a67016345785d8a00008273ffffffffffffffffffffffffffffffffffffffff16610a3590919063ffffffff16565b50565b600033905090565b80471015610aab576040517f08c379a000000000000000000000000000000000000000000000000000000000815260040180806020018281038252601d8152602001807f416464726573733a20696e73756666696369656e742062616c616e636500000081525060200191505060405180910390fd5b60008273ffffffffffffffffffffffffffffffffffffffff168260405180600001905060006040518083038185875af1925050503d8060008114610b0b576040519150601f19603f3d011682016040523d82523d6000602084013e610b10565b606091505b5050905080610b6a576040517f08c379a000000000000000000000000000000000000000000000000000000000815260040180806020018281038252603a815260200180610b70603a913960400191505060405180910390fd5b50505056fe416464726573733a20756e61626c6520746f2073656e642076616c75652c20726563697069656e74206d617920686176652072657665727465644163636f756e744d696e65723a20666f72206163636f756e7420666163746f7279206f6e6c79a2646970667358221220e10b170be949fccb055a8bf4fce435814a47e06c8ebd676a223817dc31d7e11264736f6c63430007060033",
  "linkReferences": {},
  "deployedLinkReferences": {}
}