{
  "_format": "hh-sol-artifact-1",
  "contractName": "TestPoolService",
  "sourceName": "contracts/mocks/pool/TestPoolService.sol",
  "abi": [
    {
      "inputs": [
        {
          "internalType": "address",
          "name": "addressProvider",
          "type": "address"
        },
        {
          "internalType": "address",
          "name": "_underlyingToken",
          "type": "address"
        },
        {
          "internalType": "address",
          "name": "_dieselAddress",
          "type": "address"
        },
        {
          "internalType": "address",
          "name": "interestRateModelAddress",
          "type": "address"
        }
      ],
      "stateMutability": "nonpayable",
      "type": "constructor"
    },
    {
      "anonymous": false,
      "inputs": [
        {
          "indexed": true,
          "internalType": "address",
          "name": "sender",
          "type": "address"
        },
        {
          "indexed": true,
          "internalType": "address",
          "name": "onBehalfOf",
          "type": "address"
        },
        {
          "indexed": false,
          "internalType": "uint256",
          "name": "amount",
          "type": "uint256"
        },
        {
          "indexed": false,
          "internalType": "uint256",
          "name": "referralCode",
          "type": "uint256"
        }
      ],
      "name": "AddLiquidity",
      "type": "event"
    },
    {
      "anonymous": false,
      "inputs": [
        {
          "indexed": true,
          "internalType": "address",
          "name": "creditManager",
          "type": "address"
        },
        {
          "indexed": true,
          "internalType": "address",
          "name": "creditAccount",
          "type": "address"
        },
        {
          "indexed": false,
          "internalType": "uint256",
          "name": "amount",
          "type": "uint256"
        }
      ],
      "name": "Borrow",
      "type": "event"
    },
    {
      "anonymous": false,
      "inputs": [
        {
          "indexed": true,
          "internalType": "address",
          "name": "creditManager",
          "type": "address"
        }
      ],
      "name": "BorrowForbidden",
      "type": "event"
    },
    {
      "anonymous": false,
      "inputs": [
        {
          "indexed": true,
          "internalType": "address",
          "name": "creditManager",
          "type": "address"
        }
      ],
      "name": "NewCreditManagerConnected",
      "type": "event"
    },
    {
      "anonymous": false,
      "inputs": [
        {
          "indexed": false,
          "internalType": "uint256",
          "name": "newLimit",
          "type": "uint256"
        }
      ],
      "name": "NewExpectedLiquidityLimit",
      "type": "event"
    },
    {
      "anonymous": false,
      "inputs": [
        {
          "indexed": true,
          "internalType": "address",
          "name": "newInterestRateModel",
          "type": "address"
        }
      ],
      "name": "NewInterestRateModel",
      "type": "event"
    },
    {
      "anonymous": false,
      "inputs": [
        {
          "indexed": false,
          "internalType": "address",
          "name": "account",
          "type": "address"
        }
      ],
      "name": "Paused",
      "type": "event"
    },
    {
      "anonymous": false,
      "inputs": [
        {
          "indexed": true,
          "internalType": "address",
          "name": "sender",
          "type": "address"
        },
        {
          "indexed": true,
          "internalType": "address",
          "name": "to",
          "type": "address"
        },
        {
          "indexed": false,
          "internalType": "uint256",
          "name": "amount",
          "type": "uint256"
        }
      ],
      "name": "RemoveLiquidity",
      "type": "event"
    },
    {
      "anonymous": false,
      "inputs": [
        {
          "indexed": true,
          "internalType": "address",
          "name": "creditManager",
          "type": "address"
        },
        {
          "indexed": false,
          "internalType": "uint256",
          "name": "borrowedAmount",
          "type": "uint256"
        },
        {
          "indexed": false,
          "internalType": "uint256",
          "name": "profit",
          "type": "uint256"
        },
        {
          "indexed": false,
          "internalType": "uint256",
          "name": "loss",
          "type": "uint256"
        }
      ],
      "name": "Repay",
      "type": "event"
    },
    {
      "anonymous": false,
      "inputs": [
        {
          "indexed": true,
          "internalType": "address",
          "name": "creditManager",
          "type": "address"
        },
        {
          "indexed": false,
          "internalType": "uint256",
          "name": "loss",
          "type": "uint256"
        }
      ],
      "name": "UncoveredLoss",
      "type": "event"
    },
    {
      "anonymous": false,
      "inputs": [
        {
          "indexed": false,
          "internalType": "address",
          "name": "account",
          "type": "address"
        }
      ],
      "name": "Unpaused",
      "type": "event"
    },
    {
      "inputs": [],
      "name": "_cumulativeIndex_RAY",
      "outputs": [
        {
          "internalType": "uint256",
          "name": "",
          "type": "uint256"
        }
      ],
      "stateMutability": "view",
      "type": "function"
    },
    {
      "inputs": [],
      "name": "_expectedLiquidityLU",
      "outputs": [
        {
          "internalType": "uint256",
          "name": "",
          "type": "uint256"
        }
      ],
      "stateMutability": "view",
      "type": "function"
    },
    {
      "inputs": [],
      "name": "_timestampLU",
      "outputs": [
        {
          "internalType": "uint256",
          "name": "",
          "type": "uint256"
        }
      ],
      "stateMutability": "view",
      "type": "function"
    },
    {
      "inputs": [
        {
          "internalType": "uint256",
          "name": "amount",
          "type": "uint256"
        },
        {
          "internalType": "address",
          "name": "onBehalfOf",
          "type": "address"
        },
        {
          "internalType": "uint256",
          "name": "referralCode",
          "type": "uint256"
        }
      ],
      "name": "addLiquidity",
      "outputs": [],
      "stateMutability": "nonpayable",
      "type": "function"
    },
    {
      "inputs": [],
      "name": "addressProvider",
      "outputs": [
        {
          "internalType": "contract AddressProvider",
          "name": "",
          "type": "address"
        }
      ],
      "stateMutability": "view",
      "type": "function"
    },
    {
      "inputs": [],
      "name": "availableLiquidity",
      "outputs": [
        {
          "internalType": "uint256",
          "name": "",
          "type": "uint256"
        }
      ],
      "stateMutability": "view",
      "type": "function"
    },
    {
      "inputs": [],
      "name": "borrowAPY_RAY",
      "outputs": [
        {
          "internalType": "uint256",
          "name": "",
          "type": "uint256"
        }
      ],
      "stateMutability": "view",
      "type": "function"
    },
    {
      "inputs": [],
      "name": "calcLinearCumulative_RAY",
      "outputs": [
        {
          "internalType": "uint256",
          "name": "",
          "type": "uint256"
        }
      ],
      "stateMutability": "view",
      "type": "function"
    },
    {
      "inputs": [
        {
          "internalType": "uint256",
          "name": "cumulativeIndex_RAY",
          "type": "uint256"
        },
        {
          "internalType": "uint256",
          "name": "currentBorrowRate_RAY",
          "type": "uint256"
        },
        {
          "internalType": "uint256",
          "name": "timeDifference",
          "type": "uint256"
        }
      ],
      "name": "calcLinearIndex_RAY",
      "outputs": [
        {
          "internalType": "uint256",
          "name": "",
          "type": "uint256"
        }
      ],
      "stateMutability": "pure",
      "type": "function"
    },
    {
      "inputs": [
        {
          "internalType": "address",
          "name": "_creditManager",
          "type": "address"
        }
      ],
      "name": "connectCreditManager",
      "outputs": [],
      "stateMutability": "nonpayable",
      "type": "function"
    },
    {
      "inputs": [
        {
          "internalType": "uint256",
          "name": "",
          "type": "uint256"
        }
      ],
      "name": "creditManagers",
      "outputs": [
        {
          "internalType": "address",
          "name": "",
          "type": "address"
        }
      ],
      "stateMutability": "view",
      "type": "function"
    },
    {
      "inputs": [
        {
          "internalType": "address",
          "name": "",
          "type": "address"
        }
      ],
      "name": "creditManagersCanBorrow",
      "outputs": [
        {
          "internalType": "bool",
          "name": "",
          "type": "bool"
        }
      ],
      "stateMutability": "view",
      "type": "function"
    },
    {
      "inputs": [
        {
          "internalType": "address",
          "name": "",
          "type": "address"
        }
      ],
      "name": "creditManagersCanRepay",
      "outputs": [
        {
          "internalType": "bool",
          "name": "",
          "type": "bool"
        }
      ],
      "stateMutability": "view",
      "type": "function"
    },
    {
      "inputs": [],
      "name": "creditManagersCount",
      "outputs": [
        {
          "internalType": "uint256",
          "name": "",
          "type": "uint256"
        }
      ],
      "stateMutability": "view",
      "type": "function"
    },
    {
      "inputs": [],
      "name": "dieselToken",
      "outputs": [
        {
          "internalType": "address",
          "name": "",
          "type": "address"
        }
      ],
      "stateMutability": "view",
      "type": "function"
    },
    {
      "inputs": [],
      "name": "expectedLiquidity",
      "outputs": [
        {
          "internalType": "uint256",
          "name": "",
          "type": "uint256"
        }
      ],
      "stateMutability": "view",
      "type": "function"
    },
    {
      "inputs": [],
      "name": "expectedLiquidityLimit",
      "outputs": [
        {
          "internalType": "uint256",
          "name": "",
          "type": "uint256"
        }
      ],
      "stateMutability": "view",
      "type": "function"
    },
    {
      "inputs": [
        {
          "internalType": "address",
          "name": "_creditManager",
          "type": "address"
        }
      ],
      "name": "forbidCreditManagerToBorrow",
      "outputs": [],
      "stateMutability": "nonpayable",
      "type": "function"
    },
    {
      "inputs": [
        {
          "internalType": "uint256",
          "name": "amount",
          "type": "uint256"
        }
      ],
      "name": "fromDiesel",
      "outputs": [
        {
          "internalType": "uint256",
          "name": "",
          "type": "uint256"
        }
      ],
      "stateMutability": "view",
      "type": "function"
    },
    {
      "inputs": [],
      "name": "getCumulativeIndex_RAY",
      "outputs": [
        {
          "internalType": "uint256",
          "name": "",
          "type": "uint256"
        }
      ],
      "stateMutability": "view",
      "type": "function"
    },
    {
      "inputs": [],
      "name": "getDieselRate_RAY",
      "outputs": [
        {
          "internalType": "uint256",
          "name": "",
          "type": "uint256"
        }
      ],
      "stateMutability": "view",
      "type": "function"
    },
    {
      "inputs": [],
      "name": "getExpectedLU",
      "outputs": [
        {
          "internalType": "uint256",
          "name": "",
          "type": "uint256"
        }
      ],
      "stateMutability": "view",
      "type": "function"
    },
    {
      "inputs": [],
      "name": "getTimestampLU",
      "outputs": [
        {
          "internalType": "uint256",
          "name": "",
          "type": "uint256"
        }
      ],
      "stateMutability": "view",
      "type": "function"
    },
    {
      "inputs": [],
      "name": "interestRateModel",
      "outputs": [
        {
          "internalType": "contract IInterestRateModel",
          "name": "",
          "type": "address"
        }
      ],
      "stateMutability": "view",
      "type": "function"
    },
    {
      "inputs": [
        {
          "internalType": "uint256",
          "name": "borrowedAmount",
          "type": "uint256"
        },
        {
          "internalType": "address",
          "name": "creditAccount",
          "type": "address"
        }
      ],
      "name": "lendCreditAccount",
      "outputs": [],
      "stateMutability": "nonpayable",
      "type": "function"
    },
    {
      "inputs": [
        {
          "internalType": "address",
          "name": "_interestRateModel",
          "type": "address"
        }
      ],
      "name": "newInterestRateModel",
      "outputs": [],
      "stateMutability": "nonpayable",
      "type": "function"
    },
    {
      "inputs": [],
      "name": "pause",
      "outputs": [],
      "stateMutability": "nonpayable",
      "type": "function"
    },
    {
      "inputs": [],
      "name": "paused",
      "outputs": [
        {
          "internalType": "bool",
          "name": "",
          "type": "bool"
        }
      ],
      "stateMutability": "view",
      "type": "function"
    },
    {
      "inputs": [
        {
          "internalType": "uint256",
          "name": "amount",
          "type": "uint256"
        },
        {
          "internalType": "address",
          "name": "to",
          "type": "address"
        }
      ],
      "name": "removeLiquidity",
      "outputs": [
        {
          "internalType": "uint256",
          "name": "",
          "type": "uint256"
        }
      ],
      "stateMutability": "nonpayable",
      "type": "function"
    },
    {
      "inputs": [
        {
          "internalType": "uint256",
          "name": "borrowedAmount",
          "type": "uint256"
        },
        {
          "internalType": "uint256",
          "name": "profit",
          "type": "uint256"
        },
        {
          "internalType": "uint256",
          "name": "loss",
          "type": "uint256"
        }
      ],
      "name": "repayCreditAccount",
      "outputs": [],
      "stateMutability": "nonpayable",
      "type": "function"
    },
    {
      "inputs": [
        {
          "internalType": "uint256",
          "name": "newExpectedLiquidity",
          "type": "uint256"
        }
      ],
      "name": "setExpectedLiquidity",
      "outputs": [],
      "stateMutability": "nonpayable",
      "type": "function"
    },
    {
      "inputs": [
        {
          "internalType": "uint256",
          "name": "newLimit",
          "type": "uint256"
        }
      ],
      "name": "setExpectedLiquidityLimit",
      "outputs": [],
      "stateMutability": "nonpayable",
      "type": "function"
    },
    {
      "inputs": [
        {
          "internalType": "uint256",
          "name": "fee",
          "type": "uint256"
        }
      ],
      "name": "setWithdrawFee",
      "outputs": [],
      "stateMutability": "nonpayable",
      "type": "function"
    },
    {
      "inputs": [
        {
          "internalType": "uint256",
          "name": "amount",
          "type": "uint256"
        }
      ],
      "name": "toDiesel",
      "outputs": [
        {
          "internalType": "uint256",
          "name": "",
          "type": "uint256"
        }
      ],
      "stateMutability": "view",
      "type": "function"
    },
    {
      "inputs": [],
      "name": "totalBorrowed",
      "outputs": [
        {
          "internalType": "uint256",
          "name": "",
          "type": "uint256"
        }
      ],
      "stateMutability": "view",
      "type": "function"
    },
    {
      "inputs": [],
      "name": "treasuryAddress",
      "outputs": [
        {
          "internalType": "address",
          "name": "",
          "type": "address"
        }
      ],
      "stateMutability": "view",
      "type": "function"
    },
    {
      "inputs": [],
      "name": "underlyingToken",
      "outputs": [
        {
          "internalType": "address",
          "name": "",
          "type": "address"
        }
      ],
      "stateMutability": "view",
      "type": "function"
    },
    {
      "inputs": [],
      "name": "unpause",
      "outputs": [],
      "stateMutability": "nonpayable",
      "type": "function"
    },
    {
      "inputs": [],
      "name": "updateBorrowRate",
      "outputs": [],
      "stateMutability": "nonpayable",
      "type": "function"
    },
    {
      "inputs": [],
      "name": "withdrawFee",
      "outputs": [
        {
          "internalType": "uint256",
          "name": "",
          "type": "uint256"
        }
      ],
      "stateMutability": "view",
      "type": "function"
    },
    {
      "inputs": [],
      "name": "withdrawMultiplier",
      "outputs": [
        {
          "internalType": "uint256",
          "name": "",
          "type": "uint256"
        }
      ],
      "stateMutability": "view",
      "type": "function"
    }
  ],
  "bytecode": "0x60806040523480156200001157600080fd5b5060405162004b1938038062004b19833981810160405260808110156200003757600080fd5b8101908080519060200190929190805190602001909291908051906020019092919080519060200190929190505050838383838360008060006101000a81548160ff0219169083151502179055508073ffffffffffffffffffffffffffffffffffffffff1663087376956040518163ffffffff1660e01b815260040160206040518083038186803b158015620000cc57600080fd5b505afa158015620000e1573d6000803e3d6000fd5b505050506040513d6020811015620000f857600080fd5b8101908080519060200190929190505050600060016101000a81548173ffffffffffffffffffffffffffffffffffffffff021916908373ffffffffffffffffffffffffffffffffffffffff160217905550506001808190555083600560006101000a81548173ffffffffffffffffffffffffffffffffffffffff021916908373ffffffffffffffffffffffffffffffffffffffff16021790555080600660006101000a81548173ffffffffffffffffffffffffffffffffffffffff021916908373ffffffffffffffffffffffffffffffffffffffff16021790555082600760006101000a81548173ffffffffffffffffffffffffffffffffffffffff021916908373ffffffffffffffffffffffffffffffffffffffff16021790555081600860006101000a81548173ffffffffffffffffffffffffffffffffffffffff021916908373ffffffffffffffffffffffffffffffffffffffff160217905550600560009054906101000a900473ffffffffffffffffffffffffffffffffffffffff1673ffffffffffffffffffffffffffffffffffffffff166326c74fc36040518163ffffffff1660e01b815260040160206040518083038186803b158015620002be57600080fd5b505afa158015620002d3573d6000803e3d6000fd5b505050506040513d6020811015620002ea57600080fd5b8101908080519060200190929190505050600c60006101000a81548173ffffffffffffffffffffffffffffffffffffffff021916908373ffffffffffffffffffffffffffffffffffffffff1602179055506b033b2e3c9fd0803ce8000000600d819055506200035e6200037e60201b60201c565b6200037060006200048360201b60201c565b505050505050505062000d13565b6200038e6200073f60201b60201c565b600281905550620003a4620007db60201b60201c565b600d81905550600660009054906101000a900473ffffffffffffffffffffffffffffffffffffffff1673ffffffffffffffffffffffffffffffffffffffff166342568d44600254620003fb6200081960201b60201c565b6040518363ffffffff1660e01b8152600401808381526020018281526020019250505060206040518083038186803b1580156200043757600080fd5b505afa1580156200044c573d6000803e3d6000fd5b505050506040513d60208110156200046357600080fd5b8101908080519060200190929190505050600e8190555042600f81905550565b600060019054906101000a900473ffffffffffffffffffffffffffffffffffffffff1673ffffffffffffffffffffffffffffffffffffffff16635f259aba336040518263ffffffff1660e01b8152600401808273ffffffffffffffffffffffffffffffffffffffff16815260200191505060206040518083038186803b1580156200050d57600080fd5b505afa15801562000522573d6000803e3d6000fd5b505050506040513d60208110156200053957600080fd5b81019080805190602001909291905050506040518060400160405280600281526020017f4c33000000000000000000000000000000000000000000000000000000000000815250906200062a576040517f08c379a00000000000000000000000000000000000000000000000000000000081526004018080602001828103825283818151815260200191508051906020019080838360005b83811015620005ee578082015181840152602081019050620005d1565b50505050905090810190601f1680156200061c5780820380516001836020036101000a031916815260200191505b509250505060405180910390fd5b50606460ff1681106040518060400160405280600281526020017f50330000000000000000000000000000000000000000000000000000000000008152509062000712576040517f08c379a00000000000000000000000000000000000000000000000000000000081526004018080602001828103825283818151815260200191508051906020019080838360005b83811015620006d6578082015181840152602081019050620006b9565b50505050905090810190601f168015620007045780820380516001836020036101000a031916815260200191505b509250505060405180910390fd5b50806010819055506200073681612710620008e760201b62002e5b1790919060201c565b60118190555050565b6000806200075e600f5442620008e760201b62002e5b1790919060201c565b90506000620007b66200079f6301e133806200078b85600e546200096b60201b62002ede1790919060201c565b620009f660201b62002f641790919060201c565b60045462000a8160201b62002fed1790919060201c565b9050620007d48160025462000c0560201b620031661790919060201c565b9250505090565b600080620007fa600f5442620008e760201b62002e5b1790919060201c565b905062000813600d54600e548362000c8e60201b60201c565b91505090565b6000600760009054906101000a900473ffffffffffffffffffffffffffffffffffffffff1673ffffffffffffffffffffffffffffffffffffffff166370a08231306040518263ffffffff1660e01b8152600401808273ffffffffffffffffffffffffffffffffffffffff16815260200191505060206040518083038186803b158015620008a557600080fd5b505afa158015620008ba573d6000803e3d6000fd5b505050506040513d6020811015620008d157600080fd5b8101908080519060200190929190505050905090565b60008282111562000960576040517f08c379a000000000000000000000000000000000000000000000000000000000815260040180806020018281038252601e8152602001807f536166654d6174683a207375627472616374696f6e206f766572666c6f77000081525060200191505060405180910390fd5b818303905092915050565b600080831415620009805760009050620009f0565b60008284029050828482816200099257fe5b0414620009eb576040517f08c379a000000000000000000000000000000000000000000000000000000000815260040180806020018281038252602181526020018062004af86021913960400191505060405180910390fd5b809150505b92915050565b600080821162000a6e576040517f08c379a000000000000000000000000000000000000000000000000000000000815260040180806020018281038252601a8152602001807f536166654d6174683a206469766973696f6e206279207a65726f00000000000081525060200191505060405180910390fd5b81838162000a7857fe5b04905092915050565b60008083148062000a925750600082145b1562000aa2576000905062000bff565b8160026b033b2e3c9fd0803ce80000008162000aba57fe5b047fffffffffffffffffffffffffffffffffffffffffffffffffffffffffffffffff038162000ae557fe5b048311156040518060400160405280600281526020017f4d310000000000000000000000000000000000000000000000000000000000008152509062000bc9576040517f08c379a00000000000000000000000000000000000000000000000000000000081526004018080602001828103825283818151815260200191508051906020019080838360005b8381101562000b8d57808201518184015260208101905062000b70565b50505050905090810190601f16801562000bbb5780820380516001836020036101000a031916815260200191505b509250505060405180910390fd5b506b033b2e3c9fd0803ce800000060026b033b2e3c9fd0803ce80000008162000bee57fe5b04838502018162000bfb57fe5b0490505b92915050565b60008082840190508381101562000c84576040517f08c379a000000000000000000000000000000000000000000000000000000000815260040180806020018281038252601b8152602001807f536166654d6174683a206164646974696f6e206f766572666c6f77000000000081525060200191505060405180910390fd5b8091505092915050565b60008062000ced62000ccc6301e1338062000cb886886200096b60201b62002ede1790919060201c565b620009f660201b62002f641790919060201c565b6b033b2e3c9fd0803ce800000062000c0560201b620031661790919060201c565b905062000d09818662000a8160201b62002fed1790919060201c565b9150509392505050565b613dd58062000d236000396000f3fe608060405234801561001057600080fd5b50600436106102535760003560e01c80637437535911610146578063bf28068b116100c3578063dbcb313b11610087578063dbcb313b14610910578063e941fa781461092e578063ef8d96031461094c578063f11a64871461096a578063f3fdb15a146109ae578063fe14112d146109e257610253565b8063bf28068b146107fe578063c5f956af1461084c578063ca9505e414610880578063cf33d955146108c2578063d41ee0f71461090657610253565b8063a4e8273e1161010a578063a4e8273e14610748578063a7a5eccc14610766578063b3554a0a14610784578063b6ac642a146107a2578063bb04b193146107d057610253565b8063743753591461067c578063788c6bfe1461069a5780637dfc6afe146106b85780638456cb59146106e65780639aa5d462146106f057610253565b80633e163df0116101d457806352cb995f1161019857806352cb995f146105c05780635427c938146105de5780635b29233b146106205780635c975abb1461063e578063609ae3171461065e57610253565b80633e163df0146104de5780633f4ba83a1461053857806345d31f9d146105425780634c19386c146105605780634d778ad11461057e57610253565b80632495a5991161021b5780632495a599146103925780632954018c146103c65780632e97ca21146103fa57806331d8bc271461045457806336dda7d5146104aa57610253565b8063030dbb041461025857806305fe138b14610276578063078c4781146102d85780630fce70fb1461031c5780631e16e4fc1461033a575b600080fd5b610260610a00565b6040518082815260200191505060405180910390f35b6102c26004803603604081101561028c57600080fd5b8101908080359060200190929190803573ffffffffffffffffffffffffffffffffffffffff169060200190929190505050610a06565b6040518082815260200191505060405180910390f35b61031a600480360360208110156102ee57600080fd5b81019080803573ffffffffffffffffffffffffffffffffffffffff169060200190929190505050610d3f565b005b610324610f7e565b6040518082815260200191505060405180910390f35b6103666004803603602081101561035057600080fd5b8101908080359060200190929190505050610fad565b604051808273ffffffffffffffffffffffffffffffffffffffff16815260200191505060405180910390f35b61039a610fec565b604051808273ffffffffffffffffffffffffffffffffffffffff16815260200191505060405180910390f35b6103ce611012565b604051808273ffffffffffffffffffffffffffffffffffffffff16815260200191505060405180910390f35b61043c6004803603602081101561041057600080fd5b81019080803573ffffffffffffffffffffffffffffffffffffffff169060200190929190505050611038565b60405180821515815260200191505060405180910390f35b6104946004803603606081101561046a57600080fd5b81019080803590602001909291908035906020019092919080359060200190929190505050611058565b6040518082815260200191505060405180910390f35b6104b26110c1565b604051808273ffffffffffffffffffffffffffffffffffffffff16815260200191505060405180910390f35b610520600480360360208110156104f457600080fd5b81019080803573ffffffffffffffffffffffffffffffffffffffff1690602001909291905050506110e7565b60405180821515815260200191505060405180910390f35b610540611107565b005b61054a6112b2565b6040518082815260200191505060405180910390f35b6105686112b8565b6040518082815260200191505060405180910390f35b6105aa6004803603602081101561059457600080fd5b81019080803590602001909291905050506112be565b6040518082815260200191505060405180910390f35b6105c86112e1565b6040518082815260200191505060405180910390f35b61060a600480360360208110156105f457600080fd5b81019080803590602001909291905050506112eb565b6040518082815260200191505060405180910390f35b61062861130e565b6040518082815260200191505060405180910390f35b610646611318565b60405180821515815260200191505060405180910390f35b61066661132e565b6040518082815260200191505060405180910390f35b610684611334565b6040518082815260200191505060405180910390f35b6106a26113ff565b6040518082815260200191505060405180910390f35b6106e4600480360360208110156106ce57600080fd5b81019080803590602001909291905050506114e6565b005b6106ee6114f0565b005b6107466004803603606081101561070657600080fd5b8101908080359060200190929190803573ffffffffffffffffffffffffffffffffffffffff1690602001909291908035906020019092919050505061169b565b005b610750611a1e565b6040518082815260200191505060405180910390f35b61076e611a2b565b6040518082815260200191505060405180910390f35b61078c611a35565b6040518082815260200191505060405180910390f35b6107ce600480360360208110156107b857600080fd5b8101908080359060200190929190505050611a3b565b005b6107fc600480360360208110156107e657600080fd5b8101908080359060200190929190505050611ce5565b005b61084a6004803603604081101561081457600080fd5b8101908080359060200190929190803573ffffffffffffffffffffffffffffffffffffffff169060200190929190505050611ec7565b005b610854612145565b604051808273ffffffffffffffffffffffffffffffffffffffff16815260200191505060405180910390f35b6108c06004803603606081101561089657600080fd5b8101908080359060200190929190803590602001909291908035906020019092919050505061216b565b005b610904600480360360208110156108d857600080fd5b81019080803573ffffffffffffffffffffffffffffffffffffffff1690602001909291905050506126ea565b005b61090e612b70565b005b610918612b7a565b6040518082815260200191505060405180910390f35b610936612b80565b6040518082815260200191505060405180910390f35b610954612b86565b6040518082815260200191505060405180910390f35b6109ac6004803603602081101561098057600080fd5b81019080803573ffffffffffffffffffffffffffffffffffffffff169060200190929190505050612b8c565b005b6109b6612dbc565b604051808273ffffffffffffffffffffffffffffffffffffffff16815260200191505060405180910390f35b6109ea612de2565b6040518082815260200191505060405180910390f35b60025481565b6000610a10611318565b15610a83576040517f08c379a00000000000000000000000000000000000000000000000000000000081526004018080602001828103825260108152602001807f5061757361626c653a207061757365640000000000000000000000000000000081525060200191505060405180910390fd5b60026001541415610afc576040517f08c379a000000000000000000000000000000000000000000000000000000000815260040180806020018281038252601f8152602001807f5265656e7472616e637947756172643a207265656e7472616e742063616c6c0081525060200191505060405180910390fd5b60026001819055506000610b0f846112eb565b90506000610b28601154836131ee90919063ffffffff16565b9050610b778482600760009054906101000a900473ffffffffffffffffffffffffffffffffffffffff1673ffffffffffffffffffffffffffffffffffffffff166133499092919063ffffffff16565b610bfa600c60009054906101000a900473ffffffffffffffffffffffffffffffffffffffff16610bb2601054856131ee90919063ffffffff16565b600760009054906101000a900473ffffffffffffffffffffffffffffffffffffffff1673ffffffffffffffffffffffffffffffffffffffff166133499092919063ffffffff16565b600860009054906101000a900473ffffffffffffffffffffffffffffffffffffffff1673ffffffffffffffffffffffffffffffffffffffff16639dc29fac33876040518363ffffffff1660e01b8152600401808373ffffffffffffffffffffffffffffffffffffffff16815260200182815260200192505050600060405180830381600087803b158015610c8d57600080fd5b505af1158015610ca1573d6000803e3d6000fd5b50505050610cba82600254612e5b90919063ffffffff16565b600281905550610cc86133eb565b8373ffffffffffffffffffffffffffffffffffffffff163373ffffffffffffffffffffffffffffffffffffffff167fd8ae9b9ba89e637bcb66a69ac91e8f688018e81d6f92c57e02226425c8efbdf6876040518082815260200191505060405180910390a380925050506001808190555092915050565b600060019054906101000a900473ffffffffffffffffffffffffffffffffffffffff1673ffffffffffffffffffffffffffffffffffffffff16635f259aba336040518263ffffffff1660e01b8152600401808273ffffffffffffffffffffffffffffffffffffffff16815260200191505060206040518083038186803b158015610dc857600080fd5b505afa158015610ddc573d6000803e3d6000fd5b505050506040513d6020811015610df257600080fd5b81019080805190602001909291905050506040518060400160405280600281526020017f4c3300000000000000000000000000000000000000000000000000000000000081525090610edf576040517f08c379a00000000000000000000000000000000000000000000000000000000081526004018080602001828103825283818151815260200191508051906020019080838360005b83811015610ea4578082015181840152602081019050610e89565b50505050905090810190601f168015610ed15780820380516001836020036101000a031916815260200191505b509250505060405180910390fd5b506000600960008373ffffffffffffffffffffffffffffffffffffffff1673ffffffffffffffffffffffffffffffffffffffff16815260200190815260200160002060006101000a81548160ff0219169083151502179055508073ffffffffffffffffffffffffffffffffffffffff167f9181736fce85d2d4cca2e4406f10679302ae5c387180fdb62963af3cd9a24fd660405160405180910390a250565b600080610f96600f5442612e5b90919063ffffffff16565b9050610fa7600d54600e5483611058565b91505090565b600b8181548110610fbd57600080fd5b906000526020600020016000915054906101000a900473ffffffffffffffffffffffffffffffffffffffff1681565b600760009054906101000a900473ffffffffffffffffffffffffffffffffffffffff1681565b600560009054906101000a900473ffffffffffffffffffffffffffffffffffffffff1681565b60096020528060005260406000206000915054906101000a900460ff1681565b6000806110a26110876301e133806110798688612ede90919063ffffffff16565b612f6490919063ffffffff16565b6b033b2e3c9fd0803ce800000061316690919063ffffffff16565b90506110b78186612fed90919063ffffffff16565b9150509392505050565b600860009054906101000a900473ffffffffffffffffffffffffffffffffffffffff1681565b600a6020528060005260406000206000915054906101000a900460ff1681565b600060019054906101000a900473ffffffffffffffffffffffffffffffffffffffff1673ffffffffffffffffffffffffffffffffffffffff1663d4eb5db0336040518263ffffffff1660e01b8152600401808273ffffffffffffffffffffffffffffffffffffffff16815260200191505060206040518083038186803b15801561119057600080fd5b505afa1580156111a4573d6000803e3d6000fd5b505050506040513d60208110156111ba57600080fd5b81019080805190602001909291905050506040518060400160405280600281526020017f4c31000000000000000000000000000000000000000000000000000000000000815250906112a7576040517f08c379a00000000000000000000000000000000000000000000000000000000081526004018080602001828103825283818151815260200191508051906020019080838360005b8381101561126c578082015181840152602081019050611251565b50505050905090810190601f1680156112995780820380516001836020036101000a031916815260200191505b509250505060405180910390fd5b506112b06134d5565b565b600e5481565b60045481565b60006112da6112cb6113ff565b836135bf90919063ffffffff16565b9050919050565b6000600254905090565b60006113076112f86113ff565b83612fed90919063ffffffff16565b9050919050565b6000600f54905090565b60008060009054906101000a900460ff16905090565b600f5481565b6000600760009054906101000a900473ffffffffffffffffffffffffffffffffffffffff1673ffffffffffffffffffffffffffffffffffffffff166370a08231306040518263ffffffff1660e01b8152600401808273ffffffffffffffffffffffffffffffffffffffff16815260200191505060206040518083038186803b1580156113bf57600080fd5b505afa1580156113d3573d6000803e3d6000fd5b505050506040513d60208110156113e957600080fd5b8101908080519060200190929190505050905090565b600080600860009054906101000a900473ffffffffffffffffffffffffffffffffffffffff1673ffffffffffffffffffffffffffffffffffffffff166318160ddd6040518163ffffffff1660e01b815260040160206040518083038186803b15801561146a57600080fd5b505afa15801561147e573d6000803e3d6000fd5b505050506040513d602081101561149457600080fd5b8101908080519060200190929190505050905060008114156114c5576b033b2e3c9fd0803ce80000009150506114e3565b6114df816114d1612de2565b6135bf90919063ffffffff16565b9150505b90565b8060028190555050565b600060019054906101000a900473ffffffffffffffffffffffffffffffffffffffff1673ffffffffffffffffffffffffffffffffffffffff16633a41ec64336040518263ffffffff1660e01b8152600401808273ffffffffffffffffffffffffffffffffffffffff16815260200191505060206040518083038186803b15801561157957600080fd5b505afa15801561158d573d6000803e3d6000fd5b505050506040513d60208110156115a357600080fd5b81019080805190602001909291905050506040518060400160405280600281526020017f4c3100000000000000000000000000000000000000000000000000000000000081525090611690576040517f08c379a00000000000000000000000000000000000000000000000000000000081526004018080602001828103825283818151815260200191508051906020019080838360005b8381101561165557808201518184015260208101905061163a565b50505050905090810190601f1680156116825780820380516001836020036101000a031916815260200191505b509250505060405180910390fd5b506116996137ec565b565b6116a3611318565b15611716576040517f08c379a00000000000000000000000000000000000000000000000000000000081526004018080602001828103825260108152602001807f5061757361626c653a207061757365640000000000000000000000000000000081525060200191505060405180910390fd5b6002600154141561178f576040517f08c379a000000000000000000000000000000000000000000000000000000000815260040180806020018281038252601f8152602001807f5265656e7472616e637947756172643a207265656e7472616e742063616c6c0081525060200191505060405180910390fd5b60026001819055506003546117a2612de2565b106040518060400160405280600281526020017f50320000000000000000000000000000000000000000000000000000000000008152509061187f576040517f08c379a00000000000000000000000000000000000000000000000000000000081526004018080602001828103825283818151815260200191508051906020019080838360005b83811015611844578082015181840152602081019050611829565b50505050905090810190601f1680156118715780820380516001836020036101000a031916815260200191505b509250505060405180910390fd5b506118cf333085600760009054906101000a900473ffffffffffffffffffffffffffffffffffffffff1673ffffffffffffffffffffffffffffffffffffffff166138d7909392919063ffffffff16565b600860009054906101000a900473ffffffffffffffffffffffffffffffffffffffff1673ffffffffffffffffffffffffffffffffffffffff166340c10f1983611917866112be565b6040518363ffffffff1660e01b8152600401808373ffffffffffffffffffffffffffffffffffffffff16815260200182815260200192505050600060405180830381600087803b15801561196a57600080fd5b505af115801561197e573d6000803e3d6000fd5b505050506119978360025461316690919063ffffffff16565b6002819055506119a56133eb565b8173ffffffffffffffffffffffffffffffffffffffff163373ffffffffffffffffffffffffffffffffffffffff167fd2491a9b4fe81a7cd4511e8b7b7743951b061dad5bed7da8a7795b080ee08c7e8584604051808381526020018281526020019250505060405180910390a360018081905550505050565b6000600b80549050905090565b6000600d54905090565b60115481565b600060019054906101000a900473ffffffffffffffffffffffffffffffffffffffff1673ffffffffffffffffffffffffffffffffffffffff16635f259aba336040518263ffffffff1660e01b8152600401808273ffffffffffffffffffffffffffffffffffffffff16815260200191505060206040518083038186803b158015611ac457600080fd5b505afa158015611ad8573d6000803e3d6000fd5b505050506040513d6020811015611aee57600080fd5b81019080805190602001909291905050506040518060400160405280600281526020017f4c3300000000000000000000000000000000000000000000000000000000000081525090611bdb576040517f08c379a00000000000000000000000000000000000000000000000000000000081526004018080602001828103825283818151815260200191508051906020019080838360005b83811015611ba0578082015181840152602081019050611b85565b50505050905090810190601f168015611bcd5780820380516001836020036101000a031916815260200191505b509250505060405180910390fd5b50606460ff1681106040518060400160405280600281526020017f503300000000000000000000000000000000000000000000000000000000000081525090611cbf576040517f08c379a00000000000000000000000000000000000000000000000000000000081526004018080602001828103825283818151815260200191508051906020019080838360005b83811015611c84578082015181840152602081019050611c69565b50505050905090810190601f168015611cb15780820380516001836020036101000a031916815260200191505b509250505060405180910390fd5b5080601081905550611cdc81612710612e5b90919063ffffffff16565b60118190555050565b600060019054906101000a900473ffffffffffffffffffffffffffffffffffffffff1673ffffffffffffffffffffffffffffffffffffffff16635f259aba336040518263ffffffff1660e01b8152600401808273ffffffffffffffffffffffffffffffffffffffff16815260200191505060206040518083038186803b158015611d6e57600080fd5b505afa158015611d82573d6000803e3d6000fd5b505050506040513d6020811015611d9857600080fd5b81019080805190602001909291905050506040518060400160405280600281526020017f4c3300000000000000000000000000000000000000000000000000000000000081525090611e85576040517f08c379a00000000000000000000000000000000000000000000000000000000081526004018080602001828103825283818151815260200191508051906020019080838360005b83811015611e4a578082015181840152602081019050611e2f565b50505050905090810190601f168015611e775780820380516001836020036101000a031916815260200191505b509250505060405180910390fd5b50806003819055507fd7a183c9fe85b604c25d54bd676e0866f6c13bcca9fb9b0850213de118fdc99c816040518082815260200191505060405180910390a150565b611ecf611318565b15611f42576040517f08c379a00000000000000000000000000000000000000000000000000000000081526004018080602001828103825260108152602001807f5061757361626c653a207061757365640000000000000000000000000000000081525060200191505060405180910390fd5b600960003373ffffffffffffffffffffffffffffffffffffffff1673ffffffffffffffffffffffffffffffffffffffff16815260200190815260200160002060009054906101000a900460ff166040518060400160405280600281526020017f50300000000000000000000000000000000000000000000000000000000000008152509061206b576040517f08c379a00000000000000000000000000000000000000000000000000000000081526004018080602001828103825283818151815260200191508051906020019080838360005b83811015612030578082015181840152602081019050612015565b50505050905090810190601f16801561205d5780820380516001836020036101000a031916815260200191505b509250505060405180910390fd5b506120b98183600760009054906101000a900473ffffffffffffffffffffffffffffffffffffffff1673ffffffffffffffffffffffffffffffffffffffff166133499092919063ffffffff16565b6120c16133eb565b6120d68260045461316690919063ffffffff16565b6004819055508073ffffffffffffffffffffffffffffffffffffffff163373ffffffffffffffffffffffffffffffffffffffff167f312a5e5e1079f5dda4e95dbbd0b908b291fd5b992ef22073643ab691572c5b52846040518082815260200191505060405180910390a35050565b600c60009054906101000a900473ffffffffffffffffffffffffffffffffffffffff1681565b612173611318565b156121e6576040517f08c379a00000000000000000000000000000000000000000000000000000000081526004018080602001828103825260108152602001807f5061757361626c653a207061757365640000000000000000000000000000000081525060200191505060405180910390fd5b600a60003373ffffffffffffffffffffffffffffffffffffffff1673ffffffffffffffffffffffffffffffffffffffff16815260200190815260200160002060009054906101000a900460ff166040518060400160405280600281526020017f50300000000000000000000000000000000000000000000000000000000000008152509061230f576040517f08c379a00000000000000000000000000000000000000000000000000000000081526004018080602001828103825283818151815260200191508051906020019080838360005b838110156122d45780820151818401526020810190506122b9565b50505050905090810190601f1680156123015780820380516001836020036101000a031916815260200191505b509250505060405180910390fd5b50600082111561240e57600860009054906101000a900473ffffffffffffffffffffffffffffffffffffffff1673ffffffffffffffffffffffffffffffffffffffff166340c10f19600c60009054906101000a900473ffffffffffffffffffffffffffffffffffffffff16612383856112be565b6040518363ffffffff1660e01b8152600401808373ffffffffffffffffffffffffffffffffffffffff16815260200182815260200192505050600060405180830381600087803b1580156123d657600080fd5b505af11580156123ea573d6000803e3d6000fd5b505050506124038260025461316690919063ffffffff16565b600281905550612664565b6000612419826112be565b90506000600860009054906101000a900473ffffffffffffffffffffffffffffffffffffffff1673ffffffffffffffffffffffffffffffffffffffff166370a08231600c60009054906101000a900473ffffffffffffffffffffffffffffffffffffffff166040518263ffffffff1660e01b8152600401808273ffffffffffffffffffffffffffffffffffffffff16815260200191505060206040518083038186803b1580156124c857600080fd5b505afa1580156124dc573d6000803e3d6000fd5b505050506040513d60208110156124f257600080fd5b8101908080519060200190929190505050905081811015612579578091503373ffffffffffffffffffffffffffffffffffffffff167fef3653ded679720ab04913b6f3820be7cedc8286d42ff5dd8dff17e91bd2964c612563612554846112eb565b86612e5b90919063ffffffff16565b6040518082815260200191505060405180910390a25b600860009054906101000a900473ffffffffffffffffffffffffffffffffffffffff1673ffffffffffffffffffffffffffffffffffffffff16639dc29fac600c60009054906101000a900473ffffffffffffffffffffffffffffffffffffffff16846040518363ffffffff1660e01b8152600401808373ffffffffffffffffffffffffffffffffffffffff16815260200182815260200192505050600060405180830381600087803b15801561262e57600080fd5b505af1158015612642573d6000803e3d6000fd5b5050505061265b83600254612e5b90919063ffffffff16565b60028190555050505b61266c6133eb565b61268183600454612e5b90919063ffffffff16565b6004819055503373ffffffffffffffffffffffffffffffffffffffff167f2fe77b1c99aca6b022b8efc6e3e8dd1b48b30748709339b65c50ef3263443e0984848460405180848152602001838152602001828152602001935050505060405180910390a2505050565b600060019054906101000a900473ffffffffffffffffffffffffffffffffffffffff1673ffffffffffffffffffffffffffffffffffffffff16635f259aba336040518263ffffffff1660e01b8152600401808273ffffffffffffffffffffffffffffffffffffffff16815260200191505060206040518083038186803b15801561277357600080fd5b505afa158015612787573d6000803e3d6000fd5b505050506040513d602081101561279d57600080fd5b81019080805190602001909291905050506040518060400160405280600281526020017f4c330000000000000000000000000000000000000000000000000000000000008152509061288a576040517f08c379a00000000000000000000000000000000000000000000000000000000081526004018080602001828103825283818151815260200191508051906020019080838360005b8381101561284f578082015181840152602081019050612834565b50505050905090810190601f16801561287c5780820380516001836020036101000a031916815260200191505b509250505060405180910390fd5b508073ffffffffffffffffffffffffffffffffffffffff1663570a7af26040518163ffffffff1660e01b815260040160206040518083038186803b1580156128d157600080fd5b505afa1580156128e5573d6000803e3d6000fd5b505050506040513d60208110156128fb57600080fd5b810190808051906020019092919050505073ffffffffffffffffffffffffffffffffffffffff163073ffffffffffffffffffffffffffffffffffffffff16146040518060400160405280600281526020017f503100000000000000000000000000000000000000000000000000000000000081525090612a16576040517f08c379a00000000000000000000000000000000000000000000000000000000081526004018080602001828103825283818151815260200191508051906020019080838360005b838110156129db5780820151818401526020810190506129c0565b50505050905090810190601f168015612a085780820380516001836020036101000a031916815260200191505b509250505060405180910390fd5b506001600960008373ffffffffffffffffffffffffffffffffffffffff1673ffffffffffffffffffffffffffffffffffffffff16815260200190815260200160002060006101000a81548160ff0219169083151502179055506001600a60008373ffffffffffffffffffffffffffffffffffffffff1673ffffffffffffffffffffffffffffffffffffffff16815260200190815260200160002060006101000a81548160ff021916908315150217905550600b819080600181540180825580915050600190039060005260206000200160009091909190916101000a81548173ffffffffffffffffffffffffffffffffffffffff021916908373ffffffffffffffffffffffffffffffffffffffff1602179055508073ffffffffffffffffffffffffffffffffffffffff167fe076020e7eac3915d33aec40c24f95e73eb6c9921ff89747d50aa8fd934d2c0160405160405180910390a250565b612b786133eb565b565b600d5481565b60105481565b60035481565b600060019054906101000a900473ffffffffffffffffffffffffffffffffffffffff1673ffffffffffffffffffffffffffffffffffffffff16635f259aba336040518263ffffffff1660e01b8152600401808273ffffffffffffffffffffffffffffffffffffffff16815260200191505060206040518083038186803b158015612c1557600080fd5b505afa158015612c29573d6000803e3d6000fd5b505050506040513d6020811015612c3f57600080fd5b81019080805190602001909291905050506040518060400160405280600281526020017f4c3300000000000000000000000000000000000000000000000000000000000081525090612d2c576040517f08c379a00000000000000000000000000000000000000000000000000000000081526004018080602001828103825283818151815260200191508051906020019080838360005b83811015612cf1578082015181840152602081019050612cd6565b50505050905090810190601f168015612d1e5780820380516001836020036101000a031916815260200191505b509250505060405180910390fd5b5080600660006101000a81548173ffffffffffffffffffffffffffffffffffffffff021916908373ffffffffffffffffffffffffffffffffffffffff160217905550612d766133eb565b8073ffffffffffffffffffffffffffffffffffffffff167f0ec6cb7631d36954a05ffd646135bfd9995c71e7fa36d26abb1ad9f24a040ea160405160405180910390a250565b600660009054906101000a900473ffffffffffffffffffffffffffffffffffffffff1681565b600080612dfa600f5442612e5b90919063ffffffff16565b90506000612e3d612e2c6301e13380612e1e85600e54612ede90919063ffffffff16565b612f6490919063ffffffff16565b600454612fed90919063ffffffff16565b9050612e548160025461316690919063ffffffff16565b9250505090565b600082821115612ed3576040517f08c379a000000000000000000000000000000000000000000000000000000000815260040180806020018281038252601e8152602001807f536166654d6174683a207375627472616374696f6e206f766572666c6f77000081525060200191505060405180910390fd5b818303905092915050565b600080831415612ef15760009050612f5e565b6000828402905082848281612f0257fe5b0414612f59576040517f08c379a0000000000000000000000000000000000000000000000000000000008152600401808060200182810382526021815260200180613d556021913960400191505060405180910390fd5b809150505b92915050565b6000808211612fdb576040517f08c379a000000000000000000000000000000000000000000000000000000000815260040180806020018281038252601a8152602001807f536166654d6174683a206469766973696f6e206279207a65726f00000000000081525060200191505060405180910390fd5b818381612fe457fe5b04905092915050565b600080831480612ffd5750600082145b1561300b5760009050613160565b8160026b033b2e3c9fd0803ce80000008161302257fe5b047fffffffffffffffffffffffffffffffffffffffffffffffffffffffffffffffff038161304c57fe5b048311156040518060400160405280600281526020017f4d310000000000000000000000000000000000000000000000000000000000008152509061312c576040517f08c379a00000000000000000000000000000000000000000000000000000000081526004018080602001828103825283818151815260200191508051906020019080838360005b838110156130f15780820151818401526020810190506130d6565b50505050905090810190601f16801561311e5780820380516001836020036101000a031916815260200191505b509250505060405180910390fd5b506b033b2e3c9fd0803ce800000060026b033b2e3c9fd0803ce80000008161315057fe5b04838502018161315c57fe5b0490505b92915050565b6000808284019050838110156131e4576040517f08c379a000000000000000000000000000000000000000000000000000000000815260040180806020018281038252601b8152602001807f536166654d6174683a206164646974696f6e206f766572666c6f77000000000081525060200191505060405180910390fd5b8091505092915050565b6000808314806131fe5750600082145b1561320c5760009050613343565b8160026127108161321957fe5b047fffffffffffffffffffffffffffffffffffffffffffffffffffffffffffffffff038161324357fe5b048311156040518060400160405280600281526020017f4d3100000000000000000000000000000000000000000000000000000000000081525090613323576040517f08c379a00000000000000000000000000000000000000000000000000000000081526004018080602001828103825283818151815260200191508051906020019080838360005b838110156132e85780820151818401526020810190506132cd565b50505050905090810190601f1680156133155780820380516001836020036101000a031916815260200191505b509250505060405180910390fd5b5061271060026127108161333357fe5b04838502018161333f57fe5b0490505b92915050565b6133e68363a9059cbb60e01b8484604051602401808373ffffffffffffffffffffffffffffffffffffffff16815260200182815260200192505050604051602081830303815290604052907bffffffffffffffffffffffffffffffffffffffffffffffffffffffff19166020820180517bffffffffffffffffffffffffffffffffffffffffffffffffffffffff8381831617835250505050613998565b505050565b6133f3612de2565b600281905550613401610f7e565b600d81905550600660009054906101000a900473ffffffffffffffffffffffffffffffffffffffff1673ffffffffffffffffffffffffffffffffffffffff166342568d44600254613450611334565b6040518363ffffffff1660e01b8152600401808381526020018281526020019250505060206040518083038186803b15801561348b57600080fd5b505afa15801561349f573d6000803e3d6000fd5b505050506040513d60208110156134b557600080fd5b8101908080519060200190929190505050600e8190555042600f81905550565b6134dd611318565b61354f576040517f08c379a00000000000000000000000000000000000000000000000000000000081526004018080602001828103825260148152602001807f5061757361626c653a206e6f742070617573656400000000000000000000000081525060200191505060405180910390fd5b60008060006101000a81548160ff0219169083151502179055507f5db9ee0a495bf2e6ff9c91a7834c1ba4fdd244a5e8aa4e537bd38aeae4b073aa613592613a87565b604051808273ffffffffffffffffffffffffffffffffffffffff16815260200191505060405180910390a1565b6000808214156040518060400160405280600281526020017f4d33000000000000000000000000000000000000000000000000000000000000815250906136a1576040517f08c379a00000000000000000000000000000000000000000000000000000000081526004018080602001828103825283818151815260200191508051906020019080838360005b8381101561366657808201518184015260208101905061364b565b50505050905090810190601f1680156136935780820380516001836020036101000a031916815260200191505b509250505060405180910390fd5b506000600283816136ae57fe5b0490506b033b2e3c9fd0803ce8000000817fffffffffffffffffffffffffffffffffffffffffffffffffffffffffffffffff03816136e857fe5b048411156040518060400160405280600281526020017f4d31000000000000000000000000000000000000000000000000000000000000815250906137c8576040517f08c379a00000000000000000000000000000000000000000000000000000000081526004018080602001828103825283818151815260200191508051906020019080838360005b8381101561378d578082015181840152602081019050613772565b50505050905090810190601f1680156137ba5780820380516001836020036101000a031916815260200191505b509250505060405180910390fd5b5082816b033b2e3c9fd0803ce8000000860201816137e257fe5b0491505092915050565b6137f4611318565b15613867576040517f08c379a00000000000000000000000000000000000000000000000000000000081526004018080602001828103825260108152602001807f5061757361626c653a207061757365640000000000000000000000000000000081525060200191505060405180910390fd5b60016000806101000a81548160ff0219169083151502179055507f62e78cea01bee320cd4e420270b5ea74000d11b0c9f74754ebdbfc544b05a2586138aa613a87565b604051808273ffffffffffffffffffffffffffffffffffffffff16815260200191505060405180910390a1565b613992846323b872dd60e01b858585604051602401808473ffffffffffffffffffffffffffffffffffffffff1681526020018373ffffffffffffffffffffffffffffffffffffffff1681526020018281526020019350505050604051602081830303815290604052907bffffffffffffffffffffffffffffffffffffffffffffffffffffffff19166020820180517bffffffffffffffffffffffffffffffffffffffffffffffffffffffff8381831617835250505050613998565b50505050565b60006139fa826040518060400160405280602081526020017f5361666545524332303a206c6f772d6c6576656c2063616c6c206661696c65648152508573ffffffffffffffffffffffffffffffffffffffff16613a8f9092919063ffffffff16565b9050600081511115613a8257808060200190516020811015613a1b57600080fd5b8101908080519060200190929190505050613a81576040517f08c379a000000000000000000000000000000000000000000000000000000000815260040180806020018281038252602a815260200180613d76602a913960400191505060405180910390fd5b5b505050565b600033905090565b6060613a9e8484600085613aa7565b90509392505050565b606082471015613b02576040517f08c379a0000000000000000000000000000000000000000000000000000000008152600401808060200182810382526026815260200180613d2f6026913960400191505060405180910390fd5b613b0b85613c4f565b613b7d576040517f08c379a000000000000000000000000000000000000000000000000000000000815260040180806020018281038252601d8152602001807f416464726573733a2063616c6c20746f206e6f6e2d636f6e747261637400000081525060200191505060405180910390fd5b6000808673ffffffffffffffffffffffffffffffffffffffff1685876040518082805190602001908083835b60208310613bcc5780518252602082019150602081019050602083039250613ba9565b6001836020036101000a03801982511681845116808217855250505050505090500191505060006040518083038185875af1925050503d8060008114613c2e576040519150601f19603f3d011682016040523d82523d6000602084013e613c33565b606091505b5091509150613c43828286613c62565b92505050949350505050565b600080823b905060008111915050919050565b60608315613c7257829050613d27565b600083511115613c855782518084602001fd5b816040517f08c379a00000000000000000000000000000000000000000000000000000000081526004018080602001828103825283818151815260200191508051906020019080838360005b83811015613cec578082015181840152602081019050613cd1565b50505050905090810190601f168015613d195780820380516001836020036101000a031916815260200191505b509250505060405180910390fd5b939250505056fe416464726573733a20696e73756666696369656e742062616c616e636520666f722063616c6c536166654d6174683a206d756c7469706c69636174696f6e206f766572666c6f775361666545524332303a204552433230206f7065726174696f6e20646964206e6f742073756363656564a26469706673582212203cfb2ed2b4575c4523af08798c3ac50727fbca3e7e4cebd0d07f425bb3b11f6c64736f6c63430007060033536166654d6174683a206d756c7469706c69636174696f6e206f766572666c6f77",
  "linkReferences": {},
  "deployedLinkReferences": {}
}