{
  "_format": "hh-sol-artifact-1",
  "contractName": "TestPoolService",
  "sourceName": "contracts/mocks/pool/TestPoolService.sol",
  "abi": [
    {
      "inputs": [
        {
          "internalType": "address",
          "name": "addressProvider",
          "type": "address"
        },
        {
          "internalType": "address",
          "name": "_underlyingToken",
          "type": "address"
        },
        {
          "internalType": "address",
          "name": "_dieselAddress",
          "type": "address"
        },
        {
          "internalType": "address",
          "name": "interestRateModelAddress",
          "type": "address"
        },
        {
          "internalType": "uint256",
          "name": "_expectedLiquidityLimit",
          "type": "uint256"
        }
      ],
      "stateMutability": "nonpayable",
      "type": "constructor"
    },
    {
      "anonymous": false,
      "inputs": [
        {
          "indexed": true,
          "internalType": "address",
          "name": "sender",
          "type": "address"
        },
        {
          "indexed": true,
          "internalType": "address",
          "name": "onBehalfOf",
          "type": "address"
        },
        {
          "indexed": false,
          "internalType": "uint256",
          "name": "amount",
          "type": "uint256"
        },
        {
          "indexed": false,
          "internalType": "uint256",
          "name": "referralCode",
          "type": "uint256"
        }
      ],
      "name": "AddLiquidity",
      "type": "event"
    },
    {
      "anonymous": false,
      "inputs": [
        {
          "indexed": true,
          "internalType": "address",
          "name": "creditManager",
          "type": "address"
        },
        {
          "indexed": true,
          "internalType": "address",
          "name": "creditAccount",
          "type": "address"
        },
        {
          "indexed": false,
          "internalType": "uint256",
          "name": "amount",
          "type": "uint256"
        }
      ],
      "name": "Borrow",
      "type": "event"
    },
    {
      "anonymous": false,
      "inputs": [
        {
          "indexed": true,
          "internalType": "address",
          "name": "creditManager",
          "type": "address"
        }
      ],
      "name": "BorrowForbidden",
      "type": "event"
    },
    {
      "anonymous": false,
      "inputs": [
        {
          "indexed": true,
          "internalType": "address",
          "name": "creditManager",
          "type": "address"
        }
      ],
      "name": "NewCreditManagerConnected",
      "type": "event"
    },
    {
      "anonymous": false,
      "inputs": [
        {
          "indexed": false,
          "internalType": "uint256",
          "name": "newLimit",
          "type": "uint256"
        }
      ],
      "name": "NewExpectedLiquidityLimit",
      "type": "event"
    },
    {
      "anonymous": false,
      "inputs": [
        {
          "indexed": true,
          "internalType": "address",
          "name": "newInterestRateModel",
          "type": "address"
        }
      ],
      "name": "NewInterestRateModel",
      "type": "event"
    },
    {
      "anonymous": false,
      "inputs": [
        {
          "indexed": false,
          "internalType": "uint256",
          "name": "fee",
          "type": "uint256"
        }
      ],
      "name": "NewWithdrawFee",
      "type": "event"
    },
    {
      "anonymous": false,
      "inputs": [
        {
          "indexed": false,
          "internalType": "address",
          "name": "account",
          "type": "address"
        }
      ],
      "name": "Paused",
      "type": "event"
    },
    {
      "anonymous": false,
      "inputs": [
        {
          "indexed": true,
          "internalType": "address",
          "name": "sender",
          "type": "address"
        },
        {
          "indexed": true,
          "internalType": "address",
          "name": "to",
          "type": "address"
        },
        {
          "indexed": false,
          "internalType": "uint256",
          "name": "amount",
          "type": "uint256"
        }
      ],
      "name": "RemoveLiquidity",
      "type": "event"
    },
    {
      "anonymous": false,
      "inputs": [
        {
          "indexed": true,
          "internalType": "address",
          "name": "creditManager",
          "type": "address"
        },
        {
          "indexed": false,
          "internalType": "uint256",
          "name": "borrowedAmount",
          "type": "uint256"
        },
        {
          "indexed": false,
          "internalType": "uint256",
          "name": "profit",
          "type": "uint256"
        },
        {
          "indexed": false,
          "internalType": "uint256",
          "name": "loss",
          "type": "uint256"
        }
      ],
      "name": "Repay",
      "type": "event"
    },
    {
      "anonymous": false,
      "inputs": [
        {
          "indexed": true,
          "internalType": "address",
          "name": "creditManager",
          "type": "address"
        },
        {
          "indexed": false,
          "internalType": "uint256",
          "name": "loss",
          "type": "uint256"
        }
      ],
      "name": "UncoveredLoss",
      "type": "event"
    },
    {
      "anonymous": false,
      "inputs": [
        {
          "indexed": false,
          "internalType": "address",
          "name": "account",
          "type": "address"
        }
      ],
      "name": "Unpaused",
      "type": "event"
    },
    {
      "inputs": [],
      "name": "_cumulativeIndex_RAY",
      "outputs": [
        {
          "internalType": "uint256",
          "name": "",
          "type": "uint256"
        }
      ],
      "stateMutability": "view",
      "type": "function"
    },
    {
      "inputs": [],
      "name": "_expectedLiquidityLU",
      "outputs": [
        {
          "internalType": "uint256",
          "name": "",
          "type": "uint256"
        }
      ],
      "stateMutability": "view",
      "type": "function"
    },
    {
      "inputs": [],
      "name": "_timestampLU",
      "outputs": [
        {
          "internalType": "uint256",
          "name": "",
          "type": "uint256"
        }
      ],
      "stateMutability": "view",
      "type": "function"
    },
    {
      "inputs": [
        {
          "internalType": "uint256",
          "name": "amount",
          "type": "uint256"
        },
        {
          "internalType": "address",
          "name": "onBehalfOf",
          "type": "address"
        },
        {
          "internalType": "uint256",
          "name": "referralCode",
          "type": "uint256"
        }
      ],
      "name": "addLiquidity",
      "outputs": [],
      "stateMutability": "nonpayable",
      "type": "function"
    },
    {
      "inputs": [],
      "name": "addressProvider",
      "outputs": [
        {
          "internalType": "contract AddressProvider",
          "name": "",
          "type": "address"
        }
      ],
      "stateMutability": "view",
      "type": "function"
    },
    {
      "inputs": [],
      "name": "availableLiquidity",
      "outputs": [
        {
          "internalType": "uint256",
          "name": "",
          "type": "uint256"
        }
      ],
      "stateMutability": "view",
      "type": "function"
    },
    {
      "inputs": [],
      "name": "borrowAPY_RAY",
      "outputs": [
        {
          "internalType": "uint256",
          "name": "",
          "type": "uint256"
        }
      ],
      "stateMutability": "view",
      "type": "function"
    },
    {
      "inputs": [
        {
          "internalType": "uint256",
          "name": "amount",
          "type": "uint256"
        },
        {
          "internalType": "uint256",
          "name": "dAmount",
          "type": "uint256"
        },
        {
          "internalType": "uint256",
          "name": "cumulativeIndexAtOpen",
          "type": "uint256"
        }
      ],
      "name": "calcCumulativeIndexAtBorrowMore",
      "outputs": [
        {
          "internalType": "uint256",
          "name": "",
          "type": "uint256"
        }
      ],
      "stateMutability": "view",
      "type": "function"
    },
    {
      "inputs": [],
      "name": "calcLinearCumulative_RAY",
      "outputs": [
        {
          "internalType": "uint256",
          "name": "",
          "type": "uint256"
        }
      ],
      "stateMutability": "view",
      "type": "function"
    },
    {
      "inputs": [
        {
          "internalType": "uint256",
          "name": "cumulativeIndex_RAY",
          "type": "uint256"
        },
        {
          "internalType": "uint256",
          "name": "currentBorrowRate_RAY",
          "type": "uint256"
        },
        {
          "internalType": "uint256",
          "name": "timeDifference",
          "type": "uint256"
        }
      ],
      "name": "calcLinearIndex_RAY",
      "outputs": [
        {
          "internalType": "uint256",
          "name": "",
          "type": "uint256"
        }
      ],
      "stateMutability": "pure",
      "type": "function"
    },
    {
      "inputs": [
        {
          "internalType": "address",
          "name": "_creditManager",
          "type": "address"
        }
      ],
      "name": "connectCreditManager",
      "outputs": [],
      "stateMutability": "nonpayable",
      "type": "function"
    },
    {
      "inputs": [
        {
          "internalType": "uint256",
          "name": "",
          "type": "uint256"
        }
      ],
      "name": "creditManagers",
      "outputs": [
        {
          "internalType": "address",
          "name": "",
          "type": "address"
        }
      ],
      "stateMutability": "view",
      "type": "function"
    },
    {
      "inputs": [
        {
          "internalType": "address",
          "name": "",
          "type": "address"
        }
      ],
      "name": "creditManagersCanBorrow",
      "outputs": [
        {
          "internalType": "bool",
          "name": "",
          "type": "bool"
        }
      ],
      "stateMutability": "view",
      "type": "function"
    },
    {
      "inputs": [
        {
          "internalType": "address",
          "name": "",
          "type": "address"
        }
      ],
      "name": "creditManagersCanRepay",
      "outputs": [
        {
          "internalType": "bool",
          "name": "",
          "type": "bool"
        }
      ],
      "stateMutability": "view",
      "type": "function"
    },
    {
      "inputs": [],
      "name": "creditManagersCount",
      "outputs": [
        {
          "internalType": "uint256",
          "name": "",
          "type": "uint256"
        }
      ],
      "stateMutability": "view",
      "type": "function"
    },
    {
      "inputs": [],
      "name": "dieselToken",
      "outputs": [
        {
          "internalType": "address",
          "name": "",
          "type": "address"
        }
      ],
      "stateMutability": "view",
      "type": "function"
    },
    {
      "inputs": [],
      "name": "expectedLiquidity",
      "outputs": [
        {
          "internalType": "uint256",
          "name": "",
          "type": "uint256"
        }
      ],
      "stateMutability": "view",
      "type": "function"
    },
    {
      "inputs": [],
      "name": "expectedLiquidityLimit",
      "outputs": [
        {
          "internalType": "uint256",
          "name": "",
          "type": "uint256"
        }
      ],
      "stateMutability": "view",
      "type": "function"
    },
    {
      "inputs": [
        {
          "internalType": "address",
          "name": "_creditManager",
          "type": "address"
        }
      ],
      "name": "forbidCreditManagerToBorrow",
      "outputs": [],
      "stateMutability": "nonpayable",
      "type": "function"
    },
    {
      "inputs": [
        {
          "internalType": "uint256",
          "name": "amount",
          "type": "uint256"
        }
      ],
      "name": "fromDiesel",
      "outputs": [
        {
          "internalType": "uint256",
          "name": "",
          "type": "uint256"
        }
      ],
      "stateMutability": "view",
      "type": "function"
    },
    {
      "inputs": [],
      "name": "getCumulativeIndex_RAY",
      "outputs": [
        {
          "internalType": "uint256",
          "name": "",
          "type": "uint256"
        }
      ],
      "stateMutability": "view",
      "type": "function"
    },
    {
      "inputs": [],
      "name": "getDieselRate_RAY",
      "outputs": [
        {
          "internalType": "uint256",
          "name": "",
          "type": "uint256"
        }
      ],
      "stateMutability": "view",
      "type": "function"
    },
    {
      "inputs": [],
      "name": "getExpectedLU",
      "outputs": [
        {
          "internalType": "uint256",
          "name": "",
          "type": "uint256"
        }
      ],
      "stateMutability": "view",
      "type": "function"
    },
    {
      "inputs": [],
      "name": "getTimestampLU",
      "outputs": [
        {
          "internalType": "uint256",
          "name": "",
          "type": "uint256"
        }
      ],
      "stateMutability": "view",
      "type": "function"
    },
    {
      "inputs": [],
      "name": "interestRateModel",
      "outputs": [
        {
          "internalType": "contract IInterestRateModel",
          "name": "",
          "type": "address"
        }
      ],
      "stateMutability": "view",
      "type": "function"
    },
    {
      "inputs": [
        {
          "internalType": "uint256",
          "name": "borrowedAmount",
          "type": "uint256"
        },
        {
          "internalType": "address",
          "name": "creditAccount",
          "type": "address"
        }
      ],
      "name": "lendCreditAccount",
      "outputs": [],
      "stateMutability": "nonpayable",
      "type": "function"
    },
    {
      "inputs": [],
      "name": "pause",
      "outputs": [],
      "stateMutability": "nonpayable",
      "type": "function"
    },
    {
      "inputs": [],
      "name": "paused",
      "outputs": [
        {
          "internalType": "bool",
          "name": "",
          "type": "bool"
        }
      ],
      "stateMutability": "view",
      "type": "function"
    },
    {
      "inputs": [
        {
          "internalType": "uint256",
          "name": "amount",
          "type": "uint256"
        },
        {
          "internalType": "address",
          "name": "to",
          "type": "address"
        }
      ],
      "name": "removeLiquidity",
      "outputs": [
        {
          "internalType": "uint256",
          "name": "",
          "type": "uint256"
        }
      ],
      "stateMutability": "nonpayable",
      "type": "function"
    },
    {
      "inputs": [
        {
          "internalType": "uint256",
          "name": "borrowedAmount",
          "type": "uint256"
        },
        {
          "internalType": "uint256",
          "name": "profit",
          "type": "uint256"
        },
        {
          "internalType": "uint256",
          "name": "loss",
          "type": "uint256"
        }
      ],
      "name": "repayCreditAccount",
      "outputs": [],
      "stateMutability": "nonpayable",
      "type": "function"
    },
    {
      "inputs": [
        {
          "internalType": "uint256",
          "name": "newExpectedLiquidity",
          "type": "uint256"
        }
      ],
      "name": "setExpectedLiquidity",
      "outputs": [],
      "stateMutability": "nonpayable",
      "type": "function"
    },
    {
      "inputs": [
        {
          "internalType": "uint256",
          "name": "newLimit",
          "type": "uint256"
        }
      ],
      "name": "setExpectedLiquidityLimit",
      "outputs": [],
      "stateMutability": "nonpayable",
      "type": "function"
    },
    {
      "inputs": [
        {
          "internalType": "uint256",
          "name": "fee",
          "type": "uint256"
        }
      ],
      "name": "setWithdrawFee",
      "outputs": [],
      "stateMutability": "nonpayable",
      "type": "function"
    },
    {
      "inputs": [
        {
          "internalType": "uint256",
          "name": "amount",
          "type": "uint256"
        }
      ],
      "name": "toDiesel",
      "outputs": [
        {
          "internalType": "uint256",
          "name": "",
          "type": "uint256"
        }
      ],
      "stateMutability": "view",
      "type": "function"
    },
    {
      "inputs": [],
      "name": "totalBorrowed",
      "outputs": [
        {
          "internalType": "uint256",
          "name": "",
          "type": "uint256"
        }
      ],
      "stateMutability": "view",
      "type": "function"
    },
    {
      "inputs": [],
      "name": "treasuryAddress",
      "outputs": [
        {
          "internalType": "address",
          "name": "",
          "type": "address"
        }
      ],
      "stateMutability": "view",
      "type": "function"
    },
    {
      "inputs": [],
      "name": "underlyingToken",
      "outputs": [
        {
          "internalType": "address",
          "name": "",
          "type": "address"
        }
      ],
      "stateMutability": "view",
      "type": "function"
    },
    {
      "inputs": [],
      "name": "unpause",
      "outputs": [],
      "stateMutability": "nonpayable",
      "type": "function"
    },
    {
      "inputs": [],
      "name": "updateBorrowRate",
      "outputs": [],
      "stateMutability": "nonpayable",
      "type": "function"
    },
    {
      "inputs": [
        {
          "internalType": "address",
          "name": "_interestRateModel",
          "type": "address"
        }
      ],
      "name": "updateInterestRateModel",
      "outputs": [],
      "stateMutability": "nonpayable",
      "type": "function"
    },
    {
      "inputs": [],
      "name": "withdrawFee",
      "outputs": [
        {
          "internalType": "uint256",
          "name": "",
          "type": "uint256"
        }
      ],
      "stateMutability": "view",
      "type": "function"
    }
  ],
  "bytecode": "0x60806040523480156200001157600080fd5b506040516200523238038062005232833981810160405260a08110156200003757600080fd5b81019080805190602001909291908051906020019092919080519060200190929190805190602001909291908051906020019092919050505084848484848460008060006101000a81548160ff021916908315150217905550600073ffffffffffffffffffffffffffffffffffffffff168173ffffffffffffffffffffffffffffffffffffffff1614156040518060400160405280600281526020017f5a3000000000000000000000000000000000000000000000000000000000000081525090620001a1576040517f08c379a00000000000000000000000000000000000000000000000000000000081526004018080602001828103825283818151815260200191508051906020019080838360005b838110156200016557808201518184015260208101905062000148565b50505050905090810190601f168015620001935780820380516001836020036101000a031916815260200191505b509250505060405180910390fd5b508073ffffffffffffffffffffffffffffffffffffffff1663087376956040518163ffffffff1660e01b815260040160206040518083038186803b158015620001e957600080fd5b505afa158015620001fe573d6000803e3d6000fd5b505050506040513d60208110156200021557600080fd5b8101908080519060200190929190505050600060016101000a81548173ffffffffffffffffffffffffffffffffffffffff021916908373ffffffffffffffffffffffffffffffffffffffff1602179055505060018081905550600073ffffffffffffffffffffffffffffffffffffffff168573ffffffffffffffffffffffffffffffffffffffff1614158015620002d95750600073ffffffffffffffffffffffffffffffffffffffff168473ffffffffffffffffffffffffffffffffffffffff1614155b8015620003135750600073ffffffffffffffffffffffffffffffffffffffff168373ffffffffffffffffffffffffffffffffffffffff1614155b80156200034d5750600073ffffffffffffffffffffffffffffffffffffffff168273ffffffffffffffffffffffffffffffffffffffff1614155b6040518060400160405280600281526020017f5a30000000000000000000000000000000000000000000000000000000000000815250906200042d576040517f08c379a00000000000000000000000000000000000000000000000000000000081526004018080602001828103825283818151815260200191508051906020019080838360005b83811015620003f1578082015181840152602081019050620003d4565b50505050905090810190601f1680156200041f5780820380516001836020036101000a031916815260200191505b509250505060405180910390fd5b5084600560006101000a81548173ffffffffffffffffffffffffffffffffffffffff021916908373ffffffffffffffffffffffffffffffffffffffff16021790555083600760006101000a81548173ffffffffffffffffffffffffffffffffffffffff021916908373ffffffffffffffffffffffffffffffffffffffff16021790555082600860006101000a81548173ffffffffffffffffffffffffffffffffffffffff021916908373ffffffffffffffffffffffffffffffffffffffff160217905550600560009054906101000a900473ffffffffffffffffffffffffffffffffffffffff1673ffffffffffffffffffffffffffffffffffffffff166326c74fc36040518163ffffffff1660e01b815260040160206040518083038186803b1580156200055a57600080fd5b505afa1580156200056f573d6000803e3d6000fd5b505050506040513d60208110156200058657600080fd5b8101908080519060200190929190505050600c60006101000a81548173ffffffffffffffffffffffffffffffffffffffff021916908373ffffffffffffffffffffffffffffffffffffffff1602179055506b033b2e3c9fd0803ce8000000600d81905550620005fb826200061260201b60201c565b806003819055505050505050505050505062000ed5565b600073ffffffffffffffffffffffffffffffffffffffff168173ffffffffffffffffffffffffffffffffffffffff1614156040518060400160405280600281526020017f5a300000000000000000000000000000000000000000000000000000000000008152509062000723576040517f08c379a00000000000000000000000000000000000000000000000000000000081526004018080602001828103825283818151815260200191508051906020019080838360005b83811015620006e7578082015181840152602081019050620006ca565b50505050905090810190601f168015620007155780820380516001836020036101000a031916815260200191505b509250505060405180910390fd5b5080600660006101000a81548173ffffffffffffffffffffffffffffffffffffffff021916908373ffffffffffffffffffffffffffffffffffffffff160217905550620007776000620007bd60201b60201c565b8073ffffffffffffffffffffffffffffffffffffffff167f0ec6cb7631d36954a05ffd646135bfd9995c71e7fa36d26abb1ad9f24a040ea160405160405180910390a250565b620007e681620007d2620008dc60201b60201c565b6200099d60201b6200342d1790919060201c565b600281905550620007fc62000a2160201b60201c565b600d81905550600660009054906101000a900473ffffffffffffffffffffffffffffffffffffffff1673ffffffffffffffffffffffffffffffffffffffff166342568d446002546200085362000a5f60201b60201c565b6040518363ffffffff1660e01b8152600401808381526020018281526020019250505060206040518083038186803b1580156200088f57600080fd5b505afa158015620008a4573d6000803e3d6000fd5b505050506040513d6020811015620008bb57600080fd5b8101908080519060200190929190505050600e8190555042600f8190555050565b600080620008fb600f54426200099d60201b6200342d1790919060201c565b90506000620009786301e13380620009646b033b2e3c9fd0803ce800000062000950866200093c600e5460045462000b2d60201b620034b01790919060201c565b62000b2d60201b620034b01790919060201c565b62000bb860201b620035361790919060201c565b62000bb860201b620035361790919060201c565b9050620009968160025462000c4360201b620035bf1790919060201c565b9250505090565b60008282111562000a16576040517f08c379a000000000000000000000000000000000000000000000000000000000815260040180806020018281038252601e8152602001807f536166654d6174683a207375627472616374696f6e206f766572666c6f77000081525060200191505060405180910390fd5b818303905092915050565b60008062000a40600f54426200099d60201b6200342d1790919060201c565b905062000a59600d54600e548362000ccc60201b60201c565b91505090565b6000600760009054906101000a900473ffffffffffffffffffffffffffffffffffffffff1673ffffffffffffffffffffffffffffffffffffffff166370a08231306040518263ffffffff1660e01b8152600401808273ffffffffffffffffffffffffffffffffffffffff16815260200191505060206040518083038186803b15801562000aeb57600080fd5b505afa15801562000b00573d6000803e3d6000fd5b505050506040513d602081101562000b1757600080fd5b8101908080519060200190929190505050905090565b60008083141562000b42576000905062000bb2565b600082840290508284828162000b5457fe5b041462000bad576040517f08c379a0000000000000000000000000000000000000000000000000000000008152600401808060200182810382526021815260200180620052116021913960400191505060405180910390fd5b809150505b92915050565b600080821162000c30576040517f08c379a000000000000000000000000000000000000000000000000000000000815260040180806020018281038252601a8152602001807f536166654d6174683a206469766973696f6e206279207a65726f00000000000081525060200191505060405180910390fd5b81838162000c3a57fe5b04905092915050565b60008082840190508381101562000cc2576040517f08c379a000000000000000000000000000000000000000000000000000000000815260040180806020018281038252601b8152602001807f536166654d6174683a206164646974696f6e206f766572666c6f77000000000081525060200191505060405180910390fd5b8091505092915050565b60008062000d2b62000d0a6301e1338062000cf6868862000b2d60201b620034b01790919060201c565b62000bb860201b620035361790919060201c565b6b033b2e3c9fd0803ce800000062000c4360201b620035bf1790919060201c565b905062000d47818662000d5160201b620036471790919060201c565b9150509392505050565b60008083148062000d625750600082145b1562000d72576000905062000ecf565b8160026b033b2e3c9fd0803ce80000008162000d8a57fe5b047fffffffffffffffffffffffffffffffffffffffffffffffffffffffffffffffff038162000db557fe5b048311156040518060400160405280600281526020017f4d310000000000000000000000000000000000000000000000000000000000008152509062000e99576040517f08c379a00000000000000000000000000000000000000000000000000000000081526004018080602001828103825283818151815260200191508051906020019080838360005b8381101562000e5d57808201518184015260208101905062000e40565b50505050905090810190601f16801562000e8b5780820380516001836020036101000a031916815260200191505b509250505060405180910390fd5b506b033b2e3c9fd0803ce800000060026b033b2e3c9fd0803ce80000008162000ebe57fe5b04838502018162000ecb57fe5b0490505b92915050565b61432c8062000ee56000396000f3fe608060405234801561001057600080fd5b50600436106102535760003560e01c8063609ae31711610146578063bf28068b116100c3578063d41ee0f711610087578063d41ee0f714610982578063dbcb313b1461098c578063e941fa78146109aa578063ef8d9603146109c8578063f3fdb15a146109e6578063fe14112d14610a1a57610253565b8063bf28068b14610824578063c00495a114610872578063c5f956af146108c8578063ca9505e4146108fc578063cf33d9551461093e57610253565b80639aa5d4621161010a5780639aa5d46214610734578063a4e8273e1461078c578063a7a5eccc146107aa578063b6ac642a146107c8578063bb04b193146107f657610253565b8063609ae317146106a257806374375359146106c0578063788c6bfe146106de5780637dfc6afe146106fc5780638456cb591461072a57610253565b80633e163df0116101d457806352cb995f1161019857806352cb995f146105c05780635427c938146105de5780635664cacf146106205780635b29233b146106645780635c975abb1461068257610253565b80633e163df0146104de5780633f4ba83a1461053857806345d31f9d146105425780634c19386c146105605780634d778ad11461057e57610253565b80632495a5991161021b5780632495a599146103925780632954018c146103c65780632e97ca21146103fa57806331d8bc271461045457806336dda7d5146104aa57610253565b8063030dbb041461025857806305fe138b14610276578063078c4781146102d85780630fce70fb1461031c5780631e16e4fc1461033a575b600080fd5b610260610a38565b6040518082815260200191505060405180910390f35b6102c26004803603604081101561028c57600080fd5b8101908080359060200190929190803573ffffffffffffffffffffffffffffffffffffffff169060200190929190505050610a3e565b6040518082815260200191505060405180910390f35b61031a600480360360208110156102ee57600080fd5b81019080803573ffffffffffffffffffffffffffffffffffffffff169060200190929190505050610e95565b005b6103246110d4565b6040518082815260200191505060405180910390f35b6103666004803603602081101561035057600080fd5b8101908080359060200190929190505050611103565b604051808273ffffffffffffffffffffffffffffffffffffffff16815260200191505060405180910390f35b61039a611142565b604051808273ffffffffffffffffffffffffffffffffffffffff16815260200191505060405180910390f35b6103ce611168565b604051808273ffffffffffffffffffffffffffffffffffffffff16815260200191505060405180910390f35b61043c6004803603602081101561041057600080fd5b81019080803573ffffffffffffffffffffffffffffffffffffffff16906020019092919050505061118e565b60405180821515815260200191505060405180910390f35b6104946004803603606081101561046a57600080fd5b810190808035906020019092919080359060200190929190803590602001909291905050506111ae565b6040518082815260200191505060405180910390f35b6104b2611217565b604051808273ffffffffffffffffffffffffffffffffffffffff16815260200191505060405180910390f35b610520600480360360208110156104f457600080fd5b81019080803573ffffffffffffffffffffffffffffffffffffffff16906020019092919050505061123d565b60405180821515815260200191505060405180910390f35b61054061125d565b005b61054a611408565b6040518082815260200191505060405180910390f35b61056861140e565b6040518082815260200191505060405180910390f35b6105aa6004803603602081101561059457600080fd5b8101908080359060200190929190505050611414565b6040518082815260200191505060405180910390f35b6105c8611455565b6040518082815260200191505060405180910390f35b61060a600480360360208110156105f457600080fd5b810190808035906020019092919050505061145f565b6040518082815260200191505060405180910390f35b6106626004803603602081101561063657600080fd5b81019080803573ffffffffffffffffffffffffffffffffffffffff1690602001909291905050506114a0565b005b61066c61164d565b6040518082815260200191505060405180910390f35b61068a611657565b60405180821515815260200191505060405180910390f35b6106aa61166d565b6040518082815260200191505060405180910390f35b6106c8611673565b6040518082815260200191505060405180910390f35b6106e661173e565b6040518082815260200191505060405180910390f35b6107286004803603602081101561071257600080fd5b8101908080359060200190929190505050611843565b005b61073261184d565b005b61078a6004803603606081101561074a57600080fd5b8101908080359060200190929190803573ffffffffffffffffffffffffffffffffffffffff169060200190929190803590602001909291905050506119f8565b005b61079461203f565b6040518082815260200191505060405180910390f35b6107b261204c565b6040518082815260200191505060405180910390f35b6107f4600480360360208110156107de57600080fd5b8101908080359060200190929190505050612056565b005b6108226004803603602081101561080c57600080fd5b810190808035906020019092919050505061231c565b005b6108706004803603604081101561083a57600080fd5b8101908080359060200190929190803573ffffffffffffffffffffffffffffffffffffffff1690602001909291905050506124fe565b005b6108b26004803603606081101561088857600080fd5b8101908080359060200190929190803590602001909291908035906020019092919050505061277e565b6040518082815260200191505060405180910390f35b6108d0612816565b604051808273ffffffffffffffffffffffffffffffffffffffff16815260200191505060405180910390f35b61093c6004803603606081101561091257600080fd5b8101908080359060200190929190803590602001909291908035906020019092919050505061283c565b005b6109806004803603602081101561095457600080fd5b81019080803573ffffffffffffffffffffffffffffffffffffffff169060200190929190505050612da1565b005b61098a613352565b005b61099461335e565b6040518082815260200191505060405180910390f35b6109b2613364565b6040518082815260200191505060405180910390f35b6109d061336a565b6040518082815260200191505060405180910390f35b6109ee613370565b604051808273ffffffffffffffffffffffffffffffffffffffff16815260200191505060405180910390f35b610a22613396565b6040518082815260200191505060405180910390f35b60025481565b6000610a48611657565b15610abb576040517f08c379a00000000000000000000000000000000000000000000000000000000081526004018080602001828103825260108152602001807f5061757361626c653a207061757365640000000000000000000000000000000081525060200191505060405180910390fd5b60026001541415610b34576040517f08c379a000000000000000000000000000000000000000000000000000000000815260040180806020018281038252601f8152602001807f5265656e7472616e637947756172643a207265656e7472616e742063616c6c0081525060200191505060405180910390fd5b6002600181905550600073ffffffffffffffffffffffffffffffffffffffff168273ffffffffffffffffffffffffffffffffffffffff1614156040518060400160405280600281526020017f5a3000000000000000000000000000000000000000000000000000000000000081525090610c49576040517f08c379a00000000000000000000000000000000000000000000000000000000081526004018080602001828103825283818151815260200191508051906020019080838360005b83811015610c0e578082015181840152602081019050610bf3565b50505050905090810190601f168015610c3b5780820380516001836020036101000a031916815260200191505b509250505060405180910390fd5b506000610c558461145f565b90506000610c6e601054836137c090919063ffffffff16565b90506000610c85828461342d90919063ffffffff16565b9050610cd48582600760009054906101000a900473ffffffffffffffffffffffffffffffffffffffff1673ffffffffffffffffffffffffffffffffffffffff1661391b9092919063ffffffff16565b6000821115610d4d57610d4c600c60009054906101000a900473ffffffffffffffffffffffffffffffffffffffff1683600760009054906101000a900473ffffffffffffffffffffffffffffffffffffffff1673ffffffffffffffffffffffffffffffffffffffff1661391b9092919063ffffffff16565b5b600860009054906101000a900473ffffffffffffffffffffffffffffffffffffffff1673ffffffffffffffffffffffffffffffffffffffff16639dc29fac33886040518363ffffffff1660e01b8152600401808373ffffffffffffffffffffffffffffffffffffffff16815260200182815260200192505050600060405180830381600087803b158015610de057600080fd5b505af1158015610df4573d6000803e3d6000fd5b50505050610e0d8360025461342d90919063ffffffff16565b600281905550610e1d60006139bd565b8473ffffffffffffffffffffffffffffffffffffffff163373ffffffffffffffffffffffffffffffffffffffff167fd8ae9b9ba89e637bcb66a69ac91e8f688018e81d6f92c57e02226425c8efbdf6886040518082815260200191505060405180910390a38093505050506001808190555092915050565b600060019054906101000a900473ffffffffffffffffffffffffffffffffffffffff1673ffffffffffffffffffffffffffffffffffffffff16635f259aba336040518263ffffffff1660e01b8152600401808273ffffffffffffffffffffffffffffffffffffffff16815260200191505060206040518083038186803b158015610f1e57600080fd5b505afa158015610f32573d6000803e3d6000fd5b505050506040513d6020811015610f4857600080fd5b81019080805190602001909291905050506040518060400160405280600481526020017f41434c320000000000000000000000000000000000000000000000000000000081525090611035576040517f08c379a00000000000000000000000000000000000000000000000000000000081526004018080602001828103825283818151815260200191508051906020019080838360005b83811015610ffa578082015181840152602081019050610fdf565b50505050905090810190601f1680156110275780820380516001836020036101000a031916815260200191505b509250505060405180910390fd5b506000600960008373ffffffffffffffffffffffffffffffffffffffff1673ffffffffffffffffffffffffffffffffffffffff16815260200190815260200160002060006101000a81548160ff0219169083151502179055508073ffffffffffffffffffffffffffffffffffffffff167f9181736fce85d2d4cca2e4406f10679302ae5c387180fdb62963af3cd9a24fd660405160405180910390a250565b6000806110ec600f544261342d90919063ffffffff16565b90506110fd600d54600e54836111ae565b91505090565b600b818154811061111357600080fd5b906000526020600020016000915054906101000a900473ffffffffffffffffffffffffffffffffffffffff1681565b600760009054906101000a900473ffffffffffffffffffffffffffffffffffffffff1681565b600560009054906101000a900473ffffffffffffffffffffffffffffffffffffffff1681565b60096020528060005260406000206000915054906101000a900460ff1681565b6000806111f86111dd6301e133806111cf86886134b090919063ffffffff16565b61353690919063ffffffff16565b6b033b2e3c9fd0803ce80000006135bf90919063ffffffff16565b905061120d818661364790919063ffffffff16565b9150509392505050565b600860009054906101000a900473ffffffffffffffffffffffffffffffffffffffff1681565b600a6020528060005260406000206000915054906101000a900460ff1681565b600060019054906101000a900473ffffffffffffffffffffffffffffffffffffffff1673ffffffffffffffffffffffffffffffffffffffff1663d4eb5db0336040518263ffffffff1660e01b8152600401808273ffffffffffffffffffffffffffffffffffffffff16815260200191505060206040518083038186803b1580156112e657600080fd5b505afa1580156112fa573d6000803e3d6000fd5b505050506040513d602081101561131057600080fd5b81019080805190602001909291905050506040518060400160405280600481526020017f41434c3100000000000000000000000000000000000000000000000000000000815250906113fd576040517f08c379a00000000000000000000000000000000000000000000000000000000081526004018080602001828103825283818151815260200191508051906020019080838360005b838110156113c25780820151818401526020810190506113a7565b50505050905090810190601f1680156113ef5780820380516001836020036101000a031916815260200191505b509250505060405180910390fd5b50611406613aba565b565b600e5481565b60045481565b600061144e61142161173e565b6114406b033b2e3c9fd0803ce8000000856134b090919063ffffffff16565b61353690919063ffffffff16565b9050919050565b6000600254905090565b60006114996b033b2e3c9fd0803ce800000061148b61147c61173e565b856134b090919063ffffffff16565b61353690919063ffffffff16565b9050919050565b600060019054906101000a900473ffffffffffffffffffffffffffffffffffffffff1673ffffffffffffffffffffffffffffffffffffffff16635f259aba336040518263ffffffff1660e01b8152600401808273ffffffffffffffffffffffffffffffffffffffff16815260200191505060206040518083038186803b15801561152957600080fd5b505afa15801561153d573d6000803e3d6000fd5b505050506040513d602081101561155357600080fd5b81019080805190602001909291905050506040518060400160405280600481526020017f41434c320000000000000000000000000000000000000000000000000000000081525090611640576040517f08c379a00000000000000000000000000000000000000000000000000000000081526004018080602001828103825283818151815260200191508051906020019080838360005b838110156116055780820151818401526020810190506115ea565b50505050905090810190601f1680156116325780820380516001836020036101000a031916815260200191505b509250505060405180910390fd5b5061164a81613ba4565b50565b6000600f54905090565b60008060009054906101000a900460ff16905090565b600f5481565b6000600760009054906101000a900473ffffffffffffffffffffffffffffffffffffffff1673ffffffffffffffffffffffffffffffffffffffff166370a08231306040518263ffffffff1660e01b8152600401808273ffffffffffffffffffffffffffffffffffffffff16815260200191505060206040518083038186803b1580156116fe57600080fd5b505afa158015611712573d6000803e3d6000fd5b505050506040513d602081101561172857600080fd5b8101908080519060200190929190505050905090565b600080600860009054906101000a900473ffffffffffffffffffffffffffffffffffffffff1673ffffffffffffffffffffffffffffffffffffffff166318160ddd6040518163ffffffff1660e01b815260040160206040518083038186803b1580156117a957600080fd5b505afa1580156117bd573d6000803e3d6000fd5b505050506040513d60208110156117d357600080fd5b810190808051906020019092919050505090506000811415611804576b033b2e3c9fd0803ce8000000915050611840565b61183c8161182e6b033b2e3c9fd0803ce8000000611820613396565b6134b090919063ffffffff16565b61353690919063ffffffff16565b9150505b90565b8060028190555050565b600060019054906101000a900473ffffffffffffffffffffffffffffffffffffffff1673ffffffffffffffffffffffffffffffffffffffff16633a41ec64336040518263ffffffff1660e01b8152600401808273ffffffffffffffffffffffffffffffffffffffff16815260200191505060206040518083038186803b1580156118d657600080fd5b505afa1580156118ea573d6000803e3d6000fd5b505050506040513d602081101561190057600080fd5b81019080805190602001909291905050506040518060400160405280600481526020017f41434c3100000000000000000000000000000000000000000000000000000000815250906119ed576040517f08c379a00000000000000000000000000000000000000000000000000000000081526004018080602001828103825283818151815260200191508051906020019080838360005b838110156119b2578082015181840152602081019050611997565b50505050905090810190601f1680156119df5780820380516001836020036101000a031916815260200191505b509250505060405180910390fd5b506119f6613d43565b565b611a00611657565b15611a73576040517f08c379a00000000000000000000000000000000000000000000000000000000081526004018080602001828103825260108152602001807f5061757361626c653a207061757365640000000000000000000000000000000081525060200191505060405180910390fd5b60026001541415611aec576040517f08c379a000000000000000000000000000000000000000000000000000000000815260040180806020018281038252601f8152602001807f5265656e7472616e637947756172643a207265656e7472616e742063616c6c0081525060200191505060405180910390fd5b6002600181905550600073ffffffffffffffffffffffffffffffffffffffff168273ffffffffffffffffffffffffffffffffffffffff1614156040518060400160405280600281526020017f5a3000000000000000000000000000000000000000000000000000000000000081525090611c01576040517f08c379a00000000000000000000000000000000000000000000000000000000081526004018080602001828103825283818151815260200191508051906020019080838360005b83811015611bc6578082015181840152602081019050611bab565b50505050905090810190601f168015611bf35780820380516001836020036101000a031916815260200191505b509250505060405180910390fd5b50600354611c1f84611c11613396565b6135bf90919063ffffffff16565b11156040518060400160405280600381526020017f505332000000000000000000000000000000000000000000000000000000000081525090611cfd576040517f08c379a00000000000000000000000000000000000000000000000000000000081526004018080602001828103825283818151815260200191508051906020019080838360005b83811015611cc2578082015181840152602081019050611ca7565b50505050905090810190601f168015611cef5780820380516001836020036101000a031916815260200191505b509250505060405180910390fd5b506000600760009054906101000a900473ffffffffffffffffffffffffffffffffffffffff1673ffffffffffffffffffffffffffffffffffffffff166370a08231306040518263ffffffff1660e01b8152600401808273ffffffffffffffffffffffffffffffffffffffff16815260200191505060206040518083038186803b158015611d8957600080fd5b505afa158015611d9d573d6000803e3d6000fd5b505050506040513d6020811015611db357600080fd5b81019080805190602001909291905050509050611e15333086600760009054906101000a900473ffffffffffffffffffffffffffffffffffffffff1673ffffffffffffffffffffffffffffffffffffffff16613e2e909392919063ffffffff16565b611eeb81600760009054906101000a900473ffffffffffffffffffffffffffffffffffffffff1673ffffffffffffffffffffffffffffffffffffffff166370a08231306040518263ffffffff1660e01b8152600401808273ffffffffffffffffffffffffffffffffffffffff16815260200191505060206040518083038186803b158015611ea257600080fd5b505afa158015611eb6573d6000803e3d6000fd5b505050506040513d6020811015611ecc57600080fd5b810190808051906020019092919050505061342d90919063ffffffff16565b9350600860009054906101000a900473ffffffffffffffffffffffffffffffffffffffff1673ffffffffffffffffffffffffffffffffffffffff166340c10f1984611f3587611414565b6040518363ffffffff1660e01b8152600401808373ffffffffffffffffffffffffffffffffffffffff16815260200182815260200192505050600060405180830381600087803b158015611f8857600080fd5b505af1158015611f9c573d6000803e3d6000fd5b50505050611fb5846002546135bf90919063ffffffff16565b600281905550611fc560006139bd565b8273ffffffffffffffffffffffffffffffffffffffff163373ffffffffffffffffffffffffffffffffffffffff167fd2491a9b4fe81a7cd4511e8b7b7743951b061dad5bed7da8a7795b080ee08c7e8685604051808381526020018281526020019250505060405180910390a35060018081905550505050565b6000600b80549050905090565b6000600d54905090565b600060019054906101000a900473ffffffffffffffffffffffffffffffffffffffff1673ffffffffffffffffffffffffffffffffffffffff16635f259aba336040518263ffffffff1660e01b8152600401808273ffffffffffffffffffffffffffffffffffffffff16815260200191505060206040518083038186803b1580156120df57600080fd5b505afa1580156120f3573d6000803e3d6000fd5b505050506040513d602081101561210957600080fd5b81019080805190602001909291905050506040518060400160405280600481526020017f41434c3200000000000000000000000000000000000000000000000000000000815250906121f6576040517f08c379a00000000000000000000000000000000000000000000000000000000081526004018080602001828103825283818151815260200191508051906020019080838360005b838110156121bb5780820151818401526020810190506121a0565b50505050905090810190601f1680156121e85780820380516001836020036101000a031916815260200191505b509250505060405180910390fd5b50606460ff1681106040518060400160405280600381526020017f5350330000000000000000000000000000000000000000000000000000000000815250906122da576040517f08c379a00000000000000000000000000000000000000000000000000000000081526004018080602001828103825283818151815260200191508051906020019080838360005b8381101561229f578082015181840152602081019050612284565b50505050905090810190601f1680156122cc5780820380516001836020036101000a031916815260200191505b509250505060405180910390fd5b50806010819055507fd5fe46099fa396290a7f57e36c3c3c8774e2562c18ed5d1dcc0fa75071e03f1d816040518082815260200191505060405180910390a150565b600060019054906101000a900473ffffffffffffffffffffffffffffffffffffffff1673ffffffffffffffffffffffffffffffffffffffff16635f259aba336040518263ffffffff1660e01b8152600401808273ffffffffffffffffffffffffffffffffffffffff16815260200191505060206040518083038186803b1580156123a557600080fd5b505afa1580156123b9573d6000803e3d6000fd5b505050506040513d60208110156123cf57600080fd5b81019080805190602001909291905050506040518060400160405280600481526020017f41434c3200000000000000000000000000000000000000000000000000000000815250906124bc576040517f08c379a00000000000000000000000000000000000000000000000000000000081526004018080602001828103825283818151815260200191508051906020019080838360005b83811015612481578082015181840152602081019050612466565b50505050905090810190601f1680156124ae5780820380516001836020036101000a031916815260200191505b509250505060405180910390fd5b50806003819055507fd7a183c9fe85b604c25d54bd676e0866f6c13bcca9fb9b0850213de118fdc99c816040518082815260200191505060405180910390a150565b612506611657565b15612579576040517f08c379a00000000000000000000000000000000000000000000000000000000081526004018080602001828103825260108152602001807f5061757361626c653a207061757365640000000000000000000000000000000081525060200191505060405180910390fd5b600960003373ffffffffffffffffffffffffffffffffffffffff1673ffffffffffffffffffffffffffffffffffffffff16815260200190815260200160002060009054906101000a900460ff166040518060400160405280600381526020017f5053300000000000000000000000000000000000000000000000000000000000815250906126a2576040517f08c379a00000000000000000000000000000000000000000000000000000000081526004018080602001828103825283818151815260200191508051906020019080838360005b8381101561266757808201518184015260208101905061264c565b50505050905090810190601f1680156126945780820380516001836020036101000a031916815260200191505b509250505060405180910390fd5b506126f08183600760009054906101000a900473ffffffffffffffffffffffffffffffffffffffff1673ffffffffffffffffffffffffffffffffffffffff1661391b9092919063ffffffff16565b6126fa60006139bd565b61270f826004546135bf90919063ffffffff16565b6004819055508073ffffffffffffffffffffffffffffffffffffffff163373ffffffffffffffffffffffffffffffffffffffff167f312a5e5e1079f5dda4e95dbbd0b908b291fd5b992ef22073643ab691572c5b52846040518082815260200191505060405180910390a35050565b600061280d6127c161279984866134b090919063ffffffff16565b6127b3876127a56110d4565b6134b090919063ffffffff16565b6135bf90919063ffffffff16565b6127ff6127d786886135bf90919063ffffffff16565b6127f1866127e36110d4565b6134b090919063ffffffff16565b6134b090919063ffffffff16565b61353690919063ffffffff16565b90509392505050565b600c60009054906101000a900473ffffffffffffffffffffffffffffffffffffffff1681565b612844611657565b156128b7576040517f08c379a00000000000000000000000000000000000000000000000000000000081526004018080602001828103825260108152602001807f5061757361626c653a207061757365640000000000000000000000000000000081525060200191505060405180910390fd5b600a60003373ffffffffffffffffffffffffffffffffffffffff1673ffffffffffffffffffffffffffffffffffffffff16815260200190815260200160002060009054906101000a900460ff166040518060400160405280600381526020017f5053300000000000000000000000000000000000000000000000000000000000815250906129e0576040517f08c379a00000000000000000000000000000000000000000000000000000000081526004018080602001828103825283818151815260200191508051906020019080838360005b838110156129a557808201518184015260208101905061298a565b50505050905090810190601f1680156129d25780820380516001836020036101000a031916815260200191505b509250505060405180910390fd5b506000821115612adf57600860009054906101000a900473ffffffffffffffffffffffffffffffffffffffff1673ffffffffffffffffffffffffffffffffffffffff166340c10f19600c60009054906101000a900473ffffffffffffffffffffffffffffffffffffffff16612a5485611414565b6040518363ffffffff1660e01b8152600401808373ffffffffffffffffffffffffffffffffffffffff16815260200182815260200192505050600060405180830381600087803b158015612aa757600080fd5b505af1158015612abb573d6000803e3d6000fd5b50505050612ad4826002546135bf90919063ffffffff16565b600281905550612d1a565b6000612aea82611414565b90506000600860009054906101000a900473ffffffffffffffffffffffffffffffffffffffff1673ffffffffffffffffffffffffffffffffffffffff166370a08231600c60009054906101000a900473ffffffffffffffffffffffffffffffffffffffff166040518263ffffffff1660e01b8152600401808273ffffffffffffffffffffffffffffffffffffffff16815260200191505060206040518083038186803b158015612b9957600080fd5b505afa158015612bad573d6000803e3d6000fd5b505050506040513d6020811015612bc357600080fd5b8101908080519060200190929190505050905081811015612c4a578091503373ffffffffffffffffffffffffffffffffffffffff167fef3653ded679720ab04913b6f3820be7cedc8286d42ff5dd8dff17e91bd2964c612c34612c258461145f565b8661342d90919063ffffffff16565b6040518082815260200191505060405180910390a25b600860009054906101000a900473ffffffffffffffffffffffffffffffffffffffff1673ffffffffffffffffffffffffffffffffffffffff16639dc29fac600c60009054906101000a900473ffffffffffffffffffffffffffffffffffffffff16846040518363ffffffff1660e01b8152600401808373ffffffffffffffffffffffffffffffffffffffff16815260200182815260200192505050600060405180830381600087803b158015612cff57600080fd5b505af1158015612d13573d6000803e3d6000fd5b5050505050505b612d23816139bd565b612d388360045461342d90919063ffffffff16565b6004819055503373ffffffffffffffffffffffffffffffffffffffff167f2fe77b1c99aca6b022b8efc6e3e8dd1b48b30748709339b65c50ef3263443e0984848460405180848152602001838152602001828152602001935050505060405180910390a2505050565b600060019054906101000a900473ffffffffffffffffffffffffffffffffffffffff1673ffffffffffffffffffffffffffffffffffffffff16635f259aba336040518263ffffffff1660e01b8152600401808273ffffffffffffffffffffffffffffffffffffffff16815260200191505060206040518083038186803b158015612e2a57600080fd5b505afa158015612e3e573d6000803e3d6000fd5b505050506040513d6020811015612e5457600080fd5b81019080805190602001909291905050506040518060400160405280600481526020017f41434c320000000000000000000000000000000000000000000000000000000081525090612f41576040517f08c379a00000000000000000000000000000000000000000000000000000000081526004018080602001828103825283818151815260200191508051906020019080838360005b83811015612f06578082015181840152602081019050612eeb565b50505050905090810190601f168015612f335780820380516001836020036101000a031916815260200191505b509250505060405180910390fd5b508073ffffffffffffffffffffffffffffffffffffffff1663570a7af26040518163ffffffff1660e01b815260040160206040518083038186803b158015612f8857600080fd5b505afa158015612f9c573d6000803e3d6000fd5b505050506040513d6020811015612fb257600080fd5b810190808051906020019092919050505073ffffffffffffffffffffffffffffffffffffffff163073ffffffffffffffffffffffffffffffffffffffff16146040518060400160405280600381526020017f5053310000000000000000000000000000000000000000000000000000000000815250906130cd576040517f08c379a00000000000000000000000000000000000000000000000000000000081526004018080602001828103825283818151815260200191508051906020019080838360005b83811015613092578082015181840152602081019050613077565b50505050905090810190601f1680156130bf5780820380516001836020036101000a031916815260200191505b509250505060405180910390fd5b50600a60008273ffffffffffffffffffffffffffffffffffffffff1673ffffffffffffffffffffffffffffffffffffffff16815260200190815260200160002060009054906101000a900460ff16156040518060400160405280600381526020017f5053340000000000000000000000000000000000000000000000000000000000815250906131f8576040517f08c379a00000000000000000000000000000000000000000000000000000000081526004018080602001828103825283818151815260200191508051906020019080838360005b838110156131bd5780820151818401526020810190506131a2565b50505050905090810190601f1680156131ea5780820380516001836020036101000a031916815260200191505b509250505060405180910390fd5b506001600960008373ffffffffffffffffffffffffffffffffffffffff1673ffffffffffffffffffffffffffffffffffffffff16815260200190815260200160002060006101000a81548160ff0219169083151502179055506001600a60008373ffffffffffffffffffffffffffffffffffffffff1673ffffffffffffffffffffffffffffffffffffffff16815260200190815260200160002060006101000a81548160ff021916908315150217905550600b819080600181540180825580915050600190039060005260206000200160009091909190916101000a81548173ffffffffffffffffffffffffffffffffffffffff021916908373ffffffffffffffffffffffffffffffffffffffff1602179055508073ffffffffffffffffffffffffffffffffffffffff167fe076020e7eac3915d33aec40c24f95e73eb6c9921ff89747d50aa8fd934d2c0160405160405180910390a250565b61335c60006139bd565b565b600d5481565b60105481565b60035481565b600660009054906101000a900473ffffffffffffffffffffffffffffffffffffffff1681565b6000806133ae600f544261342d90919063ffffffff16565b9050600061340f6301e133806134016b033b2e3c9fd0803ce80000006133f3866133e5600e546004546134b090919063ffffffff16565b6134b090919063ffffffff16565b61353690919063ffffffff16565b61353690919063ffffffff16565b9050613426816002546135bf90919063ffffffff16565b9250505090565b6000828211156134a5576040517f08c379a000000000000000000000000000000000000000000000000000000000815260040180806020018281038252601e8152602001807f536166654d6174683a207375627472616374696f6e206f766572666c6f77000081525060200191505060405180910390fd5b818303905092915050565b6000808314156134c35760009050613530565b60008284029050828482816134d457fe5b041461352b576040517f08c379a00000000000000000000000000000000000000000000000000000000081526004018080602001828103825260218152602001806142ac6021913960400191505060405180910390fd5b809150505b92915050565b60008082116135ad576040517f08c379a000000000000000000000000000000000000000000000000000000000815260040180806020018281038252601a8152602001807f536166654d6174683a206469766973696f6e206279207a65726f00000000000081525060200191505060405180910390fd5b8183816135b657fe5b04905092915050565b60008082840190508381101561363d576040517f08c379a000000000000000000000000000000000000000000000000000000000815260040180806020018281038252601b8152602001807f536166654d6174683a206164646974696f6e206f766572666c6f77000000000081525060200191505060405180910390fd5b8091505092915050565b6000808314806136575750600082145b1561366557600090506137ba565b8160026b033b2e3c9fd0803ce80000008161367c57fe5b047fffffffffffffffffffffffffffffffffffffffffffffffffffffffffffffffff03816136a657fe5b048311156040518060400160405280600281526020017f4d3100000000000000000000000000000000000000000000000000000000000081525090613786576040517f08c379a00000000000000000000000000000000000000000000000000000000081526004018080602001828103825283818151815260200191508051906020019080838360005b8381101561374b578082015181840152602081019050613730565b50505050905090810190601f1680156137785780820380516001836020036101000a031916815260200191505b509250505060405180910390fd5b506b033b2e3c9fd0803ce800000060026b033b2e3c9fd0803ce8000000816137aa57fe5b0483850201816137b657fe5b0490505b92915050565b6000808314806137d05750600082145b156137de5760009050613915565b816002612710816137eb57fe5b047fffffffffffffffffffffffffffffffffffffffffffffffffffffffffffffffff038161381557fe5b048311156040518060400160405280600281526020017f4d31000000000000000000000000000000000000000000000000000000000000815250906138f5576040517f08c379a00000000000000000000000000000000000000000000000000000000081526004018080602001828103825283818151815260200191508051906020019080838360005b838110156138ba57808201518184015260208101905061389f565b50505050905090810190601f1680156138e75780820380516001836020036101000a031916815260200191505b509250505060405180910390fd5b5061271060026127108161390557fe5b04838502018161391157fe5b0490505b92915050565b6139b88363a9059cbb60e01b8484604051602401808373ffffffffffffffffffffffffffffffffffffffff16815260200182815260200192505050604051602081830303815290604052907bffffffffffffffffffffffffffffffffffffffffffffffffffffffff19166020820180517bffffffffffffffffffffffffffffffffffffffffffffffffffffffff8381831617835250505050613eef565b505050565b6139d7816139c9613396565b61342d90919063ffffffff16565b6002819055506139e56110d4565b600d81905550600660009054906101000a900473ffffffffffffffffffffffffffffffffffffffff1673ffffffffffffffffffffffffffffffffffffffff166342568d44600254613a34611673565b6040518363ffffffff1660e01b8152600401808381526020018281526020019250505060206040518083038186803b158015613a6f57600080fd5b505afa158015613a83573d6000803e3d6000fd5b505050506040513d6020811015613a9957600080fd5b8101908080519060200190929190505050600e8190555042600f8190555050565b613ac2611657565b613b34576040517f08c379a00000000000000000000000000000000000000000000000000000000081526004018080602001828103825260148152602001807f5061757361626c653a206e6f742070617573656400000000000000000000000081525060200191505060405180910390fd5b60008060006101000a81548160ff0219169083151502179055507f5db9ee0a495bf2e6ff9c91a7834c1ba4fdd244a5e8aa4e537bd38aeae4b073aa613b77613fde565b604051808273ffffffffffffffffffffffffffffffffffffffff16815260200191505060405180910390a1565b600073ffffffffffffffffffffffffffffffffffffffff168173ffffffffffffffffffffffffffffffffffffffff1614156040518060400160405280600281526020017f5a3000000000000000000000000000000000000000000000000000000000000081525090613cb1576040517f08c379a00000000000000000000000000000000000000000000000000000000081526004018080602001828103825283818151815260200191508051906020019080838360005b83811015613c76578082015181840152602081019050613c5b565b50505050905090810190601f168015613ca35780820380516001836020036101000a031916815260200191505b509250505060405180910390fd5b5080600660006101000a81548173ffffffffffffffffffffffffffffffffffffffff021916908373ffffffffffffffffffffffffffffffffffffffff160217905550613cfd60006139bd565b8073ffffffffffffffffffffffffffffffffffffffff167f0ec6cb7631d36954a05ffd646135bfd9995c71e7fa36d26abb1ad9f24a040ea160405160405180910390a250565b613d4b611657565b15613dbe576040517f08c379a00000000000000000000000000000000000000000000000000000000081526004018080602001828103825260108152602001807f5061757361626c653a207061757365640000000000000000000000000000000081525060200191505060405180910390fd5b60016000806101000a81548160ff0219169083151502179055507f62e78cea01bee320cd4e420270b5ea74000d11b0c9f74754ebdbfc544b05a258613e01613fde565b604051808273ffffffffffffffffffffffffffffffffffffffff16815260200191505060405180910390a1565b613ee9846323b872dd60e01b858585604051602401808473ffffffffffffffffffffffffffffffffffffffff1681526020018373ffffffffffffffffffffffffffffffffffffffff1681526020018281526020019350505050604051602081830303815290604052907bffffffffffffffffffffffffffffffffffffffffffffffffffffffff19166020820180517bffffffffffffffffffffffffffffffffffffffffffffffffffffffff8381831617835250505050613eef565b50505050565b6000613f51826040518060400160405280602081526020017f5361666545524332303a206c6f772d6c6576656c2063616c6c206661696c65648152508573ffffffffffffffffffffffffffffffffffffffff16613fe69092919063ffffffff16565b9050600081511115613fd957808060200190516020811015613f7257600080fd5b8101908080519060200190929190505050613fd8576040517f08c379a000000000000000000000000000000000000000000000000000000000815260040180806020018281038252602a8152602001806142cd602a913960400191505060405180910390fd5b5b505050565b600033905090565b6060613ff58484600085613ffe565b90509392505050565b606082471015614059576040517f08c379a00000000000000000000000000000000000000000000000000000000081526004018080602001828103825260268152602001806142866026913960400191505060405180910390fd5b614062856141a6565b6140d4576040517f08c379a000000000000000000000000000000000000000000000000000000000815260040180806020018281038252601d8152602001807f416464726573733a2063616c6c20746f206e6f6e2d636f6e747261637400000081525060200191505060405180910390fd5b6000808673ffffffffffffffffffffffffffffffffffffffff1685876040518082805190602001908083835b602083106141235780518252602082019150602081019050602083039250614100565b6001836020036101000a03801982511681845116808217855250505050505090500191505060006040518083038185875af1925050503d8060008114614185576040519150601f19603f3d011682016040523d82523d6000602084013e61418a565b606091505b509150915061419a8282866141b9565b92505050949350505050565b600080823b905060008111915050919050565b606083156141c95782905061427e565b6000835111156141dc5782518084602001fd5b816040517f08c379a00000000000000000000000000000000000000000000000000000000081526004018080602001828103825283818151815260200191508051906020019080838360005b83811015614243578082015181840152602081019050614228565b50505050905090810190601f1680156142705780820380516001836020036101000a031916815260200191505b509250505060405180910390fd5b939250505056fe416464726573733a20696e73756666696369656e742062616c616e636520666f722063616c6c536166654d6174683a206d756c7469706c69636174696f6e206f766572666c6f775361666545524332303a204552433230206f7065726174696f6e20646964206e6f742073756363656564a264697066735822122031181a3164c8d53c56756f05eb201d961386467e6d69e5594350f3792a9ccde864736f6c63430007060033536166654d6174683a206d756c7469706c69636174696f6e206f766572666c6f77",
  "linkReferences": {},
  "deployedLinkReferences": {}
}