{
  "_format": "hh-sol-artifact-1",
  "contractName": "Errors",
  "sourceName": "contracts/libraries/helpers/Errors.sol",
  "abi": [
    {
      "inputs": [],
      "name": "ACL_ADMIN_IS_ALREADY_ADDED",
      "outputs": [
        {
          "internalType": "string",
          "name": "",
          "type": "string"
        }
      ],
      "stateMutability": "view",
      "type": "function"
    },
    {
      "inputs": [],
      "name": "ACL_CALLER_NOT_CONFIGURATOR",
      "outputs": [
        {
          "internalType": "string",
          "name": "",
          "type": "string"
        }
      ],
      "stateMutability": "view",
      "type": "function"
    },
    {
      "inputs": [],
      "name": "ACL_CALLER_NOT_PAUSABLE_ADMIN",
      "outputs": [
        {
          "internalType": "string",
          "name": "",
          "type": "string"
        }
      ],
      "stateMutability": "view",
      "type": "function"
    },
    {
      "inputs": [],
      "name": "AF_CANT_TAKE_LAST_ACCOUNT",
      "outputs": [
        {
          "internalType": "string",
          "name": "",
          "type": "string"
        }
      ],
      "stateMutability": "view",
      "type": "function"
    },
    {
      "inputs": [],
      "name": "AM_ACCOUNT_FACTORY_ALREADY_EXISTS",
      "outputs": [
        {
          "internalType": "string",
          "name": "",
          "type": "string"
        }
      ],
      "stateMutability": "view",
      "type": "function"
    },
    {
      "inputs": [],
      "name": "AM_ACCOUNT_FACTORY_ONLY",
      "outputs": [
        {
          "internalType": "string",
          "name": "",
          "type": "string"
        }
      ],
      "stateMutability": "view",
      "type": "function"
    },
    {
      "inputs": [],
      "name": "AM_BID_LOWER_THAN_MINIMAL",
      "outputs": [
        {
          "internalType": "string",
          "name": "",
          "type": "string"
        }
      ],
      "stateMutability": "view",
      "type": "function"
    },
    {
      "inputs": [],
      "name": "AM_NO_BIDS_WERE_MADE",
      "outputs": [
        {
          "internalType": "string",
          "name": "",
          "type": "string"
        }
      ],
      "stateMutability": "view",
      "type": "function"
    },
    {
      "inputs": [],
      "name": "AM_USER_ALREADY_HAS_BID",
      "outputs": [
        {
          "internalType": "string",
          "name": "",
          "type": "string"
        }
      ],
      "stateMutability": "view",
      "type": "function"
    },
    {
      "inputs": [],
      "name": "AM_USER_HAS_NO_BIDS",
      "outputs": [
        {
          "internalType": "string",
          "name": "",
          "type": "string"
        }
      ],
      "stateMutability": "view",
      "type": "function"
    },
    {
      "inputs": [],
      "name": "AS_ADDRESS_NOT_FOUND",
      "outputs": [
        {
          "internalType": "string",
          "name": "",
          "type": "string"
        }
      ],
      "stateMutability": "view",
      "type": "function"
    },
    {
      "inputs": [],
      "name": "CF_ADAPTERS_ONLY",
      "outputs": [
        {
          "internalType": "string",
          "name": "",
          "type": "string"
        }
      ],
      "stateMutability": "view",
      "type": "function"
    },
    {
      "inputs": [],
      "name": "CF_CREDIT_MANAGERS_ONLY",
      "outputs": [
        {
          "internalType": "string",
          "name": "",
          "type": "string"
        }
      ],
      "stateMutability": "view",
      "type": "function"
    },
    {
      "inputs": [],
      "name": "CREDIT_MANAGER_CANT_CLOSE_WITH_LOSS",
      "outputs": [
        {
          "internalType": "string",
          "name": "",
          "type": "string"
        }
      ],
      "stateMutability": "view",
      "type": "function"
    },
    {
      "inputs": [],
      "name": "CREDIT_MANAGER_CANT_DEPOSIT_ETH_ON_NON_ETH_POOL",
      "outputs": [
        {
          "internalType": "string",
          "name": "",
          "type": "string"
        }
      ],
      "stateMutability": "view",
      "type": "function"
    },
    {
      "inputs": [],
      "name": "CREDIT_MANAGER_CAN_LIQUIDATE_WITH_SUCH_HEALTH_FACTOR",
      "outputs": [
        {
          "internalType": "string",
          "name": "",
          "type": "string"
        }
      ],
      "stateMutability": "view",
      "type": "function"
    },
    {
      "inputs": [],
      "name": "CREDIT_MANAGER_CAN_UPDATE_WITH_SUCH_HEALTH_FACTOR",
      "outputs": [
        {
          "internalType": "string",
          "name": "",
          "type": "string"
        }
      ],
      "stateMutability": "view",
      "type": "function"
    },
    {
      "inputs": [],
      "name": "CREDIT_MANAGER_DEFAULT_SWAP_CONTRACT_ISNT_ALLOWED",
      "outputs": [
        {
          "internalType": "string",
          "name": "",
          "type": "string"
        }
      ],
      "stateMutability": "view",
      "type": "function"
    },
    {
      "inputs": [],
      "name": "CREDIT_MANAGER_INCORRECT_AMOUNT",
      "outputs": [
        {
          "internalType": "string",
          "name": "",
          "type": "string"
        }
      ],
      "stateMutability": "view",
      "type": "function"
    },
    {
      "inputs": [],
      "name": "CREDIT_MANAGER_INCORRECT_LEVERAGE_FACTOR",
      "outputs": [
        {
          "internalType": "string",
          "name": "",
          "type": "string"
        }
      ],
      "stateMutability": "view",
      "type": "function"
    },
    {
      "inputs": [],
      "name": "CREDIT_MANAGER_INCORRECT_LIMITS",
      "outputs": [
        {
          "internalType": "string",
          "name": "",
          "type": "string"
        }
      ],
      "stateMutability": "view",
      "type": "function"
    },
    {
      "inputs": [],
      "name": "CREDIT_MANAGER_MAX_LEVERAGE_IS_TOO_HIGH",
      "outputs": [
        {
          "internalType": "string",
          "name": "",
          "type": "string"
        }
      ],
      "stateMutability": "view",
      "type": "function"
    },
    {
      "inputs": [],
      "name": "CREDIT_MANAGER_NON_IMMUTABLE_CONFIG_IS_FORBIDDEN",
      "outputs": [
        {
          "internalType": "string",
          "name": "",
          "type": "string"
        }
      ],
      "stateMutability": "view",
      "type": "function"
    },
    {
      "inputs": [],
      "name": "CREDIT_MANAGER_NO_OPEN_ACCOUNT",
      "outputs": [
        {
          "internalType": "string",
          "name": "",
          "type": "string"
        }
      ],
      "stateMutability": "view",
      "type": "function"
    },
    {
      "inputs": [],
      "name": "CREDIT_MANAGER_SWAP_CONTRACT_IS_NOT_ALLOWED",
      "outputs": [
        {
          "internalType": "string",
          "name": "",
          "type": "string"
        }
      ],
      "stateMutability": "view",
      "type": "function"
    },
    {
      "inputs": [],
      "name": "CREDIT_MANAGER_UNDERLYING_IS_NOT_IN_STABLE_POOL",
      "outputs": [
        {
          "internalType": "string",
          "name": "",
          "type": "string"
        }
      ],
      "stateMutability": "view",
      "type": "function"
    },
    {
      "inputs": [],
      "name": "CREDIT_MANAGER_UNDERLYING_TOKEN_FILTER_CONFLICT",
      "outputs": [
        {
          "internalType": "string",
          "name": "",
          "type": "string"
        }
      ],
      "stateMutability": "view",
      "type": "function"
    },
    {
      "inputs": [],
      "name": "CREDIT_MANAGER_VIRTUAL_ACCOUNT_CLOSE_THE_SAME_BLOCK",
      "outputs": [
        {
          "internalType": "string",
          "name": "",
          "type": "string"
        }
      ],
      "stateMutability": "view",
      "type": "function"
    },
    {
      "inputs": [],
      "name": "CREDIT_MANAGER_WETH_GATEWAY_ONLY",
      "outputs": [
        {
          "internalType": "string",
          "name": "",
          "type": "string"
        }
      ],
      "stateMutability": "view",
      "type": "function"
    },
    {
      "inputs": [],
      "name": "CREDIT_MANAGER_YOU_HAVE_ALREADY_OPEN_VIRTUAL_ACCOUNT",
      "outputs": [
        {
          "internalType": "string",
          "name": "",
          "type": "string"
        }
      ],
      "stateMutability": "view",
      "type": "function"
    },
    {
      "inputs": [],
      "name": "CR_ALLOWED_FOR_VIRTUAL_ACCOUNT_MANAGERS_ONLY",
      "outputs": [
        {
          "internalType": "string",
          "name": "",
          "type": "string"
        }
      ],
      "stateMutability": "view",
      "type": "function"
    },
    {
      "inputs": [],
      "name": "CR_POOL_ALREADY_ADDED",
      "outputs": [
        {
          "internalType": "string",
          "name": "",
          "type": "string"
        }
      ],
      "stateMutability": "view",
      "type": "function"
    },
    {
      "inputs": [],
      "name": "CR_VA_MANAGER_ALREADY_ADDED",
      "outputs": [
        {
          "internalType": "string",
          "name": "",
          "type": "string"
        }
      ],
      "stateMutability": "view",
      "type": "function"
    },
    {
      "inputs": [],
      "name": "IMMUTABLE_CONFIG_CHANGES_FORBIDDEN",
      "outputs": [
        {
          "internalType": "string",
          "name": "",
          "type": "string"
        }
      ],
      "stateMutability": "view",
      "type": "function"
    },
    {
      "inputs": [],
      "name": "MATH_ADDITION_OVERFLOW",
      "outputs": [
        {
          "internalType": "string",
          "name": "",
          "type": "string"
        }
      ],
      "stateMutability": "view",
      "type": "function"
    },
    {
      "inputs": [],
      "name": "MATH_DIVISION_BY_ZERO",
      "outputs": [
        {
          "internalType": "string",
          "name": "",
          "type": "string"
        }
      ],
      "stateMutability": "view",
      "type": "function"
    },
    {
      "inputs": [],
      "name": "MATH_MULTIPLICATION_OVERFLOW",
      "outputs": [
        {
          "internalType": "string",
          "name": "",
          "type": "string"
        }
      ],
      "stateMutability": "view",
      "type": "function"
    },
    {
      "inputs": [],
      "name": "POOL_INCOMPATIBLE_VIRTUAL_ACCOUNT_MANAGER",
      "outputs": [
        {
          "internalType": "string",
          "name": "",
          "type": "string"
        }
      ],
      "stateMutability": "view",
      "type": "function"
    },
    {
      "inputs": [],
      "name": "POOL_INCORRECT_WITHDRAW_FEE",
      "outputs": [
        {
          "internalType": "string",
          "name": "",
          "type": "string"
        }
      ],
      "stateMutability": "view",
      "type": "function"
    },
    {
      "inputs": [],
      "name": "POOL_MORE_THAN_EXPECTED_LIQUIDITY_LIMIT",
      "outputs": [
        {
          "internalType": "string",
          "name": "",
          "type": "string"
        }
      ],
      "stateMutability": "view",
      "type": "function"
    },
    {
      "inputs": [],
      "name": "POOL_VIRTUAL_MANAGERS_ONLY",
      "outputs": [
        {
          "internalType": "string",
          "name": "",
          "type": "string"
        }
      ],
      "stateMutability": "view",
      "type": "function"
    },
    {
      "inputs": [],
      "name": "PO_PRICE_FEED_DOESNT_EXIST",
      "outputs": [
        {
          "internalType": "string",
          "name": "",
          "type": "string"
        }
      ],
      "stateMutability": "view",
      "type": "function"
    },
    {
      "inputs": [],
      "name": "PO_TOKENS_WITH_DECIMALS_MORE_18_ISNT_ALLOWED",
      "outputs": [
        {
          "internalType": "string",
          "name": "",
          "type": "string"
        }
      ],
      "stateMutability": "view",
      "type": "function"
    },
    {
      "inputs": [],
      "name": "VA_VIRUAL_ACCOUNT_MANAGERS_ONLY",
      "outputs": [
        {
          "internalType": "string",
          "name": "",
          "type": "string"
        }
      ],
      "stateMutability": "view",
      "type": "function"
    },
    {
      "inputs": [],
      "name": "VF_CONTRACT_IS_ALREADY_ALLOWED",
      "outputs": [
        {
          "internalType": "string",
          "name": "",
          "type": "string"
        }
      ],
      "stateMutability": "view",
      "type": "function"
    },
    {
      "inputs": [],
      "name": "VF_CONTRACT_IS_NOT_ALLOWED",
      "outputs": [
        {
          "internalType": "string",
          "name": "",
          "type": "string"
        }
      ],
      "stateMutability": "view",
      "type": "function"
    },
    {
      "inputs": [],
      "name": "VF_INCORRECT_LIQUIDATION_THRESHOLD",
      "outputs": [
        {
          "internalType": "string",
          "name": "",
          "type": "string"
        }
      ],
      "stateMutability": "view",
      "type": "function"
    },
    {
      "inputs": [],
      "name": "VF_TOKEN_IS_ALREADY_ALLOWED",
      "outputs": [
        {
          "internalType": "string",
          "name": "",
          "type": "string"
        }
      ],
      "stateMutability": "view",
      "type": "function"
    },
    {
      "inputs": [],
      "name": "VF_TOKEN_IS_NOT_ALLOWED",
      "outputs": [
        {
          "internalType": "string",
          "name": "",
          "type": "string"
        }
      ],
      "stateMutability": "view",
      "type": "function"
    },
    {
      "inputs": [],
      "name": "WG_DESTINATION_IS_NOT_CREDIT_MANAGER",
      "outputs": [
        {
          "internalType": "string",
          "name": "",
          "type": "string"
        }
      ],
      "stateMutability": "view",
      "type": "function"
    },
    {
      "inputs": [],
      "name": "WG_DESTINATION_IS_NOT_POOL",
      "outputs": [
        {
          "internalType": "string",
          "name": "",
          "type": "string"
        }
      ],
      "stateMutability": "view",
      "type": "function"
    },
    {
      "inputs": [],
      "name": "WG_DESTINATION_IS_NOT_WETH_COMPATIBLE",
      "outputs": [
        {
          "internalType": "string",
          "name": "",
          "type": "string"
        }
      ],
      "stateMutability": "view",
      "type": "function"
    },
    {
      "inputs": [],
      "name": "WG_FALLBACK_IS_NOT_ALLOWED",
      "outputs": [
        {
          "internalType": "string",
          "name": "",
          "type": "string"
        }
      ],
      "stateMutability": "view",
      "type": "function"
    },
    {
      "inputs": [],
      "name": "WG_RECEIVE_IS_NOT_ALLOWED",
      "outputs": [
        {
          "internalType": "string",
          "name": "",
          "type": "string"
        }
      ],
      "stateMutability": "view",
      "type": "function"
    },
    {
      "inputs": [],
      "name": "ZERO_ADDRESS_IS_NOT_ALLOWED",
      "outputs": [
        {
          "internalType": "string",
          "name": "",
          "type": "string"
        }
      ],
      "stateMutability": "view",
      "type": "function"
    }
  ],
  "bytecode": "0x612cf7610026600b82828239805160001a60731461001957fe5b30600052607381538281f3fe73000000000000000000000000000000000000000030146080604052600436106103675760003560e01c80636cb7cc1d116101dd578063c17dea001161010e578063e6736041116100ac578063ea2c3a0011610086578063ea2c3a0014611d85578063ebbd977f14611e08578063f0dc490314611e8b578063f500b25814611f0e57610367565b8063e673604114611bfc578063e762bc1c14611c7f578063e9ceb47614611d0257610367565b8063d6723a5a116100e8578063d6723a5a146119f0578063dc9f70fb14611a73578063de63cd4014611af6578063e4d013ce14611b7957610367565b8063c17dea0014611867578063c47d23a1146118ea578063c5f1cf7a1461196d57610367565b8063969146431161017b578063a988ac6011610155578063a988ac601461165b578063ac3ef7d9146116de578063ac7d317414611761578063b6eb4d05146117e457610367565b806396914643146114d25780639d12e20014611555578063a8064ea1146115d857610367565b806387416002116101b757806387416002146112c65780638cad8f5d146113495780638dcf3184146113cc578063918739351461144f57610367565b80636cb7cc1d1461113d57806377927e94146111c05780637f2483cd1461124357610367565b80632c944814116102b75780634349e3d8116102555780634b76cae61161022f5780634b76cae614610f3157806354fad8d114610fb457806356376ee9146110375780635acf89eb146110ba57610367565b80634349e3d814610da8578063447d8e4214610e2b5780634484bab214610eae57610367565b80633f3153b2116102915780633f3153b214610b9c5780633f87740214610c1f578063419c152514610ca2578063432b6eaf14610d2557610367565b80632c94481414610a1357806331b5c10e14610a965780633647c9f914610b1957610367565b80631276f8ff11610324578063202a591b116102fe578063202a591b1461080757806326d841ca1461088a57806327f6fa0e1461090d57806328432c221461099057610367565b80631276f8ff1461067e57806314cf6c3c146107015780631aa8b5ba1461078457610367565b8063029d23441461036c5780630351b3ea146103ef5780630a2b1d3a146104725780630f5ee482146104f5578063119427c5146105785780631203110d146105fb575b600080fd5b610374611f91565b6040518080602001828103825283818151815260200191508051906020019080838360005b838110156103b4578082015181840152602081019050610399565b50505050905090810190601f1680156103e15780820380516001836020036101000a031916815260200191505b509250505060405180910390f35b6103f7611fca565b6040518080602001828103825283818151815260200191508051906020019080838360005b8381101561043757808201518184015260208101905061041c565b50505050905090810190601f1680156104645780820380516001836020036101000a031916815260200191505b509250505060405180910390f35b61047a612003565b6040518080602001828103825283818151815260200191508051906020019080838360005b838110156104ba57808201518184015260208101905061049f565b50505050905090810190601f1680156104e75780820380516001836020036101000a031916815260200191505b509250505060405180910390f35b6104fd61201f565b6040518080602001828103825283818151815260200191508051906020019080838360005b8381101561053d578082015181840152602081019050610522565b50505050905090810190601f16801561056a5780820380516001836020036101000a031916815260200191505b509250505060405180910390f35b610580612058565b6040518080602001828103825283818151815260200191508051906020019080838360005b838110156105c05780820151818401526020810190506105a5565b50505050905090810190601f1680156105ed5780820380516001836020036101000a031916815260200191505b509250505060405180910390f35b610603612091565b6040518080602001828103825283818151815260200191508051906020019080838360005b83811015610643578082015181840152602081019050610628565b50505050905090810190601f1680156106705780820380516001836020036101000a031916815260200191505b509250505060405180910390f35b6106866120ca565b6040518080602001828103825283818151815260200191508051906020019080838360005b838110156106c65780820151818401526020810190506106ab565b50505050905090810190601f1680156106f35780820380516001836020036101000a031916815260200191505b509250505060405180910390f35b6107096120e6565b6040518080602001828103825283818151815260200191508051906020019080838360005b8381101561074957808201518184015260208101905061072e565b50505050905090810190601f1680156107765780820380516001836020036101000a031916815260200191505b509250505060405180910390f35b61078c61211f565b6040518080602001828103825283818151815260200191508051906020019080838360005b838110156107cc5780820151818401526020810190506107b1565b50505050905090810190601f1680156107f95780820380516001836020036101000a031916815260200191505b509250505060405180910390f35b61080f612158565b6040518080602001828103825283818151815260200191508051906020019080838360005b8381101561084f578082015181840152602081019050610834565b50505050905090810190601f16801561087c5780820380516001836020036101000a031916815260200191505b509250505060405180910390f35b610892612191565b6040518080602001828103825283818151815260200191508051906020019080838360005b838110156108d25780820151818401526020810190506108b7565b50505050905090810190601f1680156108ff5780820380516001836020036101000a031916815260200191505b509250505060405180910390f35b6109156121ad565b6040518080602001828103825283818151815260200191508051906020019080838360005b8381101561095557808201518184015260208101905061093a565b50505050905090810190601f1680156109825780820380516001836020036101000a031916815260200191505b509250505060405180910390f35b6109986121e6565b6040518080602001828103825283818151815260200191508051906020019080838360005b838110156109d85780820151818401526020810190506109bd565b50505050905090810190601f168015610a055780820380516001836020036101000a031916815260200191505b509250505060405180910390f35b610a1b61221f565b6040518080602001828103825283818151815260200191508051906020019080838360005b83811015610a5b578082015181840152602081019050610a40565b50505050905090810190601f168015610a885780820380516001836020036101000a031916815260200191505b509250505060405180910390f35b610a9e61223b565b6040518080602001828103825283818151815260200191508051906020019080838360005b83811015610ade578082015181840152602081019050610ac3565b50505050905090810190601f168015610b0b5780820380516001836020036101000a031916815260200191505b509250505060405180910390f35b610b21612257565b6040518080602001828103825283818151815260200191508051906020019080838360005b83811015610b61578082015181840152602081019050610b46565b50505050905090810190601f168015610b8e5780820380516001836020036101000a031916815260200191505b509250505060405180910390f35b610ba4612273565b6040518080602001828103825283818151815260200191508051906020019080838360005b83811015610be4578082015181840152602081019050610bc9565b50505050905090810190601f168015610c115780820380516001836020036101000a031916815260200191505b509250505060405180910390f35b610c276122ac565b6040518080602001828103825283818151815260200191508051906020019080838360005b83811015610c67578082015181840152602081019050610c4c565b50505050905090810190601f168015610c945780820380516001836020036101000a031916815260200191505b509250505060405180910390f35b610caa6122e5565b6040518080602001828103825283818151815260200191508051906020019080838360005b83811015610cea578082015181840152602081019050610ccf565b50505050905090810190601f168015610d175780820380516001836020036101000a031916815260200191505b509250505060405180910390f35b610d2d612301565b6040518080602001828103825283818151815260200191508051906020019080838360005b83811015610d6d578082015181840152602081019050610d52565b50505050905090810190601f168015610d9a5780820380516001836020036101000a031916815260200191505b509250505060405180910390f35b610db061233a565b6040518080602001828103825283818151815260200191508051906020019080838360005b83811015610df0578082015181840152602081019050610dd5565b50505050905090810190601f168015610e1d5780820380516001836020036101000a031916815260200191505b509250505060405180910390f35b610e33612373565b6040518080602001828103825283818151815260200191508051906020019080838360005b83811015610e73578082015181840152602081019050610e58565b50505050905090810190601f168015610ea05780820380516001836020036101000a031916815260200191505b509250505060405180910390f35b610eb661238f565b6040518080602001828103825283818151815260200191508051906020019080838360005b83811015610ef6578082015181840152602081019050610edb565b50505050905090810190601f168015610f235780820380516001836020036101000a031916815260200191505b509250505060405180910390f35b610f396123c8565b6040518080602001828103825283818151815260200191508051906020019080838360005b83811015610f79578082015181840152602081019050610f5e565b50505050905090810190601f168015610fa65780820380516001836020036101000a031916815260200191505b509250505060405180910390f35b610fbc612401565b6040518080602001828103825283818151815260200191508051906020019080838360005b83811015610ffc578082015181840152602081019050610fe1565b50505050905090810190601f1680156110295780820380516001836020036101000a031916815260200191505b509250505060405180910390f35b61103f61243a565b6040518080602001828103825283818151815260200191508051906020019080838360005b8381101561107f578082015181840152602081019050611064565b50505050905090810190601f1680156110ac5780820380516001836020036101000a031916815260200191505b509250505060405180910390f35b6110c2612456565b6040518080602001828103825283818151815260200191508051906020019080838360005b838110156111025780820151818401526020810190506110e7565b50505050905090810190601f16801561112f5780820380516001836020036101000a031916815260200191505b509250505060405180910390f35b61114561248f565b6040518080602001828103825283818151815260200191508051906020019080838360005b8381101561118557808201518184015260208101905061116a565b50505050905090810190601f1680156111b25780820380516001836020036101000a031916815260200191505b509250505060405180910390f35b6111c86124c8565b6040518080602001828103825283818151815260200191508051906020019080838360005b838110156112085780820151818401526020810190506111ed565b50505050905090810190601f1680156112355780820380516001836020036101000a031916815260200191505b509250505060405180910390f35b61124b6124e4565b6040518080602001828103825283818151815260200191508051906020019080838360005b8381101561128b578082015181840152602081019050611270565b50505050905090810190601f1680156112b85780820380516001836020036101000a031916815260200191505b509250505060405180910390f35b6112ce61251d565b6040518080602001828103825283818151815260200191508051906020019080838360005b8381101561130e5780820151818401526020810190506112f3565b50505050905090810190601f16801561133b5780820380516001836020036101000a031916815260200191505b509250505060405180910390f35b611351612556565b6040518080602001828103825283818151815260200191508051906020019080838360005b83811015611391578082015181840152602081019050611376565b50505050905090810190601f1680156113be5780820380516001836020036101000a031916815260200191505b509250505060405180910390f35b6113d461258f565b6040518080602001828103825283818151815260200191508051906020019080838360005b838110156114145780820151818401526020810190506113f9565b50505050905090810190601f1680156114415780820380516001836020036101000a031916815260200191505b509250505060405180910390f35b6114576125ab565b6040518080602001828103825283818151815260200191508051906020019080838360005b8381101561149757808201518184015260208101905061147c565b50505050905090810190601f1680156114c45780820380516001836020036101000a031916815260200191505b509250505060405180910390f35b6114da6125c7565b6040518080602001828103825283818151815260200191508051906020019080838360005b8381101561151a5780820151818401526020810190506114ff565b50505050905090810190601f1680156115475780820380516001836020036101000a031916815260200191505b509250505060405180910390f35b61155d6125e3565b6040518080602001828103825283818151815260200191508051906020019080838360005b8381101561159d578082015181840152602081019050611582565b50505050905090810190601f1680156115ca5780820380516001836020036101000a031916815260200191505b509250505060405180910390f35b6115e061261c565b6040518080602001828103825283818151815260200191508051906020019080838360005b83811015611620578082015181840152602081019050611605565b50505050905090810190601f16801561164d5780820380516001836020036101000a031916815260200191505b509250505060405180910390f35b611663612655565b6040518080602001828103825283818151815260200191508051906020019080838360005b838110156116a3578082015181840152602081019050611688565b50505050905090810190601f1680156116d05780820380516001836020036101000a031916815260200191505b509250505060405180910390f35b6116e661268e565b6040518080602001828103825283818151815260200191508051906020019080838360005b8381101561172657808201518184015260208101905061170b565b50505050905090810190601f1680156117535780820380516001836020036101000a031916815260200191505b509250505060405180910390f35b6117696126aa565b6040518080602001828103825283818151815260200191508051906020019080838360005b838110156117a957808201518184015260208101905061178e565b50505050905090810190601f1680156117d65780820380516001836020036101000a031916815260200191505b509250505060405180910390f35b6117ec6126e3565b6040518080602001828103825283818151815260200191508051906020019080838360005b8381101561182c578082015181840152602081019050611811565b50505050905090810190601f1680156118595780820380516001836020036101000a031916815260200191505b509250505060405180910390f35b61186f61271c565b6040518080602001828103825283818151815260200191508051906020019080838360005b838110156118af578082015181840152602081019050611894565b50505050905090810190601f1680156118dc5780820380516001836020036101000a031916815260200191505b509250505060405180910390f35b6118f2612755565b6040518080602001828103825283818151815260200191508051906020019080838360005b83811015611932578082015181840152602081019050611917565b50505050905090810190601f16801561195f5780820380516001836020036101000a031916815260200191505b509250505060405180910390f35b611975612771565b6040518080602001828103825283818151815260200191508051906020019080838360005b838110156119b557808201518184015260208101905061199a565b50505050905090810190601f1680156119e25780820380516001836020036101000a031916815260200191505b509250505060405180910390f35b6119f861278d565b6040518080602001828103825283818151815260200191508051906020019080838360005b83811015611a38578082015181840152602081019050611a1d565b50505050905090810190601f168015611a655780820380516001836020036101000a031916815260200191505b509250505060405180910390f35b611a7b6127c6565b6040518080602001828103825283818151815260200191508051906020019080838360005b83811015611abb578082015181840152602081019050611aa0565b50505050905090810190601f168015611ae85780820380516001836020036101000a031916815260200191505b509250505060405180910390f35b611afe6127ff565b6040518080602001828103825283818151815260200191508051906020019080838360005b83811015611b3e578082015181840152602081019050611b23565b50505050905090810190601f168015611b6b5780820380516001836020036101000a031916815260200191505b509250505060405180910390f35b611b8161281b565b6040518080602001828103825283818151815260200191508051906020019080838360005b83811015611bc1578082015181840152602081019050611ba6565b50505050905090810190601f168015611bee5780820380516001836020036101000a031916815260200191505b509250505060405180910390f35b611c04612854565b6040518080602001828103825283818151815260200191508051906020019080838360005b83811015611c44578082015181840152602081019050611c29565b50505050905090810190601f168015611c715780820380516001836020036101000a031916815260200191505b509250505060405180910390f35b611c8761288d565b6040518080602001828103825283818151815260200191508051906020019080838360005b83811015611cc7578082015181840152602081019050611cac565b50505050905090810190601f168015611cf45780820380516001836020036101000a031916815260200191505b509250505060405180910390f35b611d0a6128c6565b6040518080602001828103825283818151815260200191508051906020019080838360005b83811015611d4a578082015181840152602081019050611d2f565b50505050905090810190601f168015611d775780820380516001836020036101000a031916815260200191505b509250505060405180910390f35b611d8d6128ff565b6040518080602001828103825283818151815260200191508051906020019080838360005b83811015611dcd578082015181840152602081019050611db2565b50505050905090810190601f168015611dfa5780820380516001836020036101000a031916815260200191505b509250505060405180910390f35b611e10612938565b6040518080602001828103825283818151815260200191508051906020019080838360005b83811015611e50578082015181840152602081019050611e35565b50505050905090810190601f168015611e7d5780820380516001836020036101000a031916815260200191505b509250505060405180910390f35b611e93612971565b6040518080602001828103825283818151815260200191508051906020019080838360005b83811015611ed3578082015181840152602081019050611eb8565b50505050905090810190601f168015611f005780820380516001836020036101000a031916815260200191505b509250505060405180910390f35b611f166129aa565b6040518080602001828103825283818151815260200191508051906020019080838360005b83811015611f56578082015181840152602081019050611f3b565b50505050905090810190601f168015611f835780820380516001836020036101000a031916815260200191505b509250505060405180910390f35b6040518060400160405280600281526020017f4d3100000000000000000000000000000000000000000000000000000000000081525081565b6040518060400160405280600281526020017f563200000000000000000000000000000000000000000000000000000000000081525081565b604051806060016040528060258152602001612b0e6025913981565b6040518060400160405280600281526020017f4d3200000000000000000000000000000000000000000000000000000000000081525081565b6040518060400160405280600281526020017f503200000000000000000000000000000000000000000000000000000000000081525081565b6040518060400160405280600281526020017f564d00000000000000000000000000000000000000000000000000000000000081525081565b604051806060016040528060258152602001612c416025913981565b6040518060400160405280600281526020017f565400000000000000000000000000000000000000000000000000000000000081525081565b6040518060400160405280600281526020017f563500000000000000000000000000000000000000000000000000000000000081525081565b6040518060400160405280601b81526020017f43463a2063616c6c6564206279206164617074657273206f6e6c79000000000081525081565b604051806060016040528060328152602001612adc6032913981565b6040518060400160405280600281526020017f563400000000000000000000000000000000000000000000000000000000000081525081565b6040518060400160405280600281526020017f503300000000000000000000000000000000000000000000000000000000000081525081565b604051806060016040528060278152602001612a6a6027913981565b604051806060016040528060308152602001612b336030913981565b604051806060016040528060308152602001612a3a6030913981565b6040518060400160405280600281526020017f5a3000000000000000000000000000000000000000000000000000000000000081525081565b6040518060400160405280600281526020017f564c00000000000000000000000000000000000000000000000000000000000081525081565b6040518060600160405280602c8152602001612a0e602c913981565b6040518060400160405280602081526020017f56413a2063616c6c6564206279206e6f6e2d637265646974204d616e6167657281525081565b6040518060400160405280600281526020017f4d3300000000000000000000000000000000000000000000000000000000000081525081565b604051806060016040528060248152602001612b986024913981565b6040518060400160405280600281526020017f563100000000000000000000000000000000000000000000000000000000000081525081565b6040518060400160405280600281526020017f563900000000000000000000000000000000000000000000000000000000000081525081565b6040518060400160405280600281526020017f563800000000000000000000000000000000000000000000000000000000000081525081565b6040518060600160405280602f8152602001612c12602f913981565b6040518060400160405280600281526020017f503000000000000000000000000000000000000000000000000000000000000081525081565b6040518060400160405280600281526020017f563500000000000000000000000000000000000000000000000000000000000081525081565b604051806060016040528060258152602001612ab76025913981565b6040518060400160405280600281526020017f564100000000000000000000000000000000000000000000000000000000000081525081565b6040518060400160405280600281526020017f563700000000000000000000000000000000000000000000000000000000000081525081565b6040518060400160405280600281526020017f563100000000000000000000000000000000000000000000000000000000000081525081565b604051806060016040528060358152602001612bbc6035913981565b604051806060016040528060338152602001612c8f6033913981565b604051806060016040528060358152602001612b636035913981565b6040518060400160405280600281526020017f503100000000000000000000000000000000000000000000000000000000000081525081565b6040518060400160405280600281526020017f565500000000000000000000000000000000000000000000000000000000000081525081565b6040518060400160405280600281526020017f433100000000000000000000000000000000000000000000000000000000000081525081565b6040518060600160405280602a81526020016129e4602a913981565b6040518060400160405280601d81526020017f4163636f756e744d696e65723a207573657220686173206e6f2062696400000081525081565b6040518060400160405280600281526020017f493000000000000000000000000000000000000000000000000000000000000081525081565b6040518060400160405280600281526020017f564300000000000000000000000000000000000000000000000000000000000081525081565b604051806060016040528060298152602001612c666029913981565b604051806060016040528060268152602001612a916026913981565b6040518060400160405280600281526020017f563200000000000000000000000000000000000000000000000000000000000081525081565b6040518060400160405280600281526020017f564700000000000000000000000000000000000000000000000000000000000081525081565b604051806060016040528060218152602001612bf16021913981565b6040518060400160405280600281526020017f563600000000000000000000000000000000000000000000000000000000000081525081565b6040518060400160405280600281526020017f563300000000000000000000000000000000000000000000000000000000000081525081565b6040518060400160405280600281526020017f563300000000000000000000000000000000000000000000000000000000000081525081565b6040518060400160405280600281526020017f563000000000000000000000000000000000000000000000000000000000000081525081565b6040518060400160405280602081526020017f43463a2063616c6c6564206279206e6f6e2d637265646974204d616e6167657281525081565b6040518060400160405280600281526020017f433300000000000000000000000000000000000000000000000000000000000081525081565b6040518060400160405280600281526020017f563400000000000000000000000000000000000000000000000000000000000081525081565b6040518060400160405280600281526020017f43320000000000000000000000000000000000000000000000000000000000008152508156fe4163636f756e74466163746f72793a2063616e742074616b6520746865206c617374206163636f756e744163636f756e744d696e65723a206163636f756e7420666163746f727920616c7265616479206578697374735745544820476174657761793a2044657374696e6174696f6e206973206e6f74205745544820636f6d70617469626c655072696365204f7261636c653a207072696365206665656420646f65736e2774206578697374734163636f756e744d696e65723a20666f72206163636f756e7420666163746f7279206f6e6c795745544820476174657761793a2046616c6c6261636b206973206e6f7420616c6c6f7765644163636f756e744d696e65723a2063616e2774206d696e65206e65772076612c206e6f20626964732077657265206d616465436f6e74726163747352656769737465723a20706f6f6c20616c7265616479206164646564436f6e74726163747352656769737465723a20637265646974204d616e6167657220697320616c7265616479207365744163636f756e744d696e7465723a20796f757220626964206973206c6f77207468616e206d696e696d616c20617661696c61626c655745544820476174657761793a2052656365697665206973206e6f7420616c6c6f7765645072696365204f7261636c653a20746f6b656e73207769746820646563696d616c73203e3138206973206e6f7420616c6c6f7765644164647265737353746f726167653a2041646472657373206e6f7420666f756e645745544820476174657761793a2044657374696e6174696f6e206973206e6f7420637265646974204d616e616765725745544820476174657761793a2044657374696e6174696f6e206973206e6f7420706f6f6c4163636f756e744d696e7465723a20796f7527766520616c726561647920706c616365206120626964436f6e74726163747352656769737465723a20616c6c6f77656420666f7220637265646974204d616e6167657273206f6e6c79a2646970667358221220ec56525eec09af6920f7d787d86bc76200bbfe6158341c9a6a3c5ce37012c96d64736f6c63430007060033",
  "linkReferences": {},
  "deployedLinkReferences": {}
}