{
  "_format": "hh-sol-artifact-1",
  "contractName": "Errors",
  "sourceName": "contracts/libraries/helpers/Errors.sol",
  "abi": [
    {
      "inputs": [],
      "name": "ACL_CALLER_NOT_CONFIGURATOR",
      "outputs": [
        {
          "internalType": "string",
          "name": "",
          "type": "string"
        }
      ],
      "stateMutability": "view",
      "type": "function"
    },
    {
      "inputs": [],
      "name": "ACL_CALLER_NOT_PAUSABLE_ADMIN",
      "outputs": [
        {
          "internalType": "string",
          "name": "",
          "type": "string"
        }
      ],
      "stateMutability": "view",
      "type": "function"
    },
    {
      "inputs": [],
      "name": "AF_CANT_CLOSE_CREDIT_ACCOUNT_IN_THE_SAME_BLOCK",
      "outputs": [
        {
          "internalType": "string",
          "name": "",
          "type": "string"
        }
      ],
      "stateMutability": "view",
      "type": "function"
    },
    {
      "inputs": [],
      "name": "AF_CREDIT_ACCOUNT_NOT_IN_STOCK",
      "outputs": [
        {
          "internalType": "string",
          "name": "",
          "type": "string"
        }
      ],
      "stateMutability": "view",
      "type": "function"
    },
    {
      "inputs": [],
      "name": "AF_EXTERNAL_ACCOUNTS_ARE_FORBIDDEN",
      "outputs": [
        {
          "internalType": "string",
          "name": "",
          "type": "string"
        }
      ],
      "stateMutability": "view",
      "type": "function"
    },
    {
      "inputs": [],
      "name": "AF_MINING_IS_FINISHED",
      "outputs": [
        {
          "internalType": "string",
          "name": "",
          "type": "string"
        }
      ],
      "stateMutability": "view",
      "type": "function"
    },
    {
      "inputs": [],
      "name": "AS_ADDRESS_NOT_FOUND",
      "outputs": [
        {
          "internalType": "string",
          "name": "",
          "type": "string"
        }
      ],
      "stateMutability": "view",
      "type": "function"
    },
    {
      "inputs": [],
      "name": "CA_CONNECTED_CREDIT_MANAGER_ONLY",
      "outputs": [
        {
          "internalType": "string",
          "name": "",
          "type": "string"
        }
      ],
      "stateMutability": "view",
      "type": "function"
    },
    {
      "inputs": [],
      "name": "CA_FACTORY_ONLY",
      "outputs": [
        {
          "internalType": "string",
          "name": "",
          "type": "string"
        }
      ],
      "stateMutability": "view",
      "type": "function"
    },
    {
      "inputs": [],
      "name": "CF_ADAPTERS_ONLY",
      "outputs": [
        {
          "internalType": "string",
          "name": "",
          "type": "string"
        }
      ],
      "stateMutability": "view",
      "type": "function"
    },
    {
      "inputs": [],
      "name": "CF_ADAPTER_CAN_BE_USED_ONLY_ONCE",
      "outputs": [
        {
          "internalType": "string",
          "name": "",
          "type": "string"
        }
      ],
      "stateMutability": "view",
      "type": "function"
    },
    {
      "inputs": [],
      "name": "CF_CONTRACT_IS_NOT_IN_ALLOWED_LIST",
      "outputs": [
        {
          "internalType": "string",
          "name": "",
          "type": "string"
        }
      ],
      "stateMutability": "view",
      "type": "function"
    },
    {
      "inputs": [],
      "name": "CF_CREDIT_MANAGERS_ONLY",
      "outputs": [
        {
          "internalType": "string",
          "name": "",
          "type": "string"
        }
      ],
      "stateMutability": "view",
      "type": "function"
    },
    {
      "inputs": [],
      "name": "CF_CREDIT_MANAGER_IS_ALREADY_SET",
      "outputs": [
        {
          "internalType": "string",
          "name": "",
          "type": "string"
        }
      ],
      "stateMutability": "view",
      "type": "function"
    },
    {
      "inputs": [],
      "name": "CF_FAST_CHECK_NOT_COVERED_COLLATERAL_DROP",
      "outputs": [
        {
          "internalType": "string",
          "name": "",
          "type": "string"
        }
      ],
      "stateMutability": "view",
      "type": "function"
    },
    {
      "inputs": [],
      "name": "CF_INCORRECT_CHI_THRESHOLD",
      "outputs": [
        {
          "internalType": "string",
          "name": "",
          "type": "string"
        }
      ],
      "stateMutability": "view",
      "type": "function"
    },
    {
      "inputs": [],
      "name": "CF_INCORRECT_FAST_CHECK",
      "outputs": [
        {
          "internalType": "string",
          "name": "",
          "type": "string"
        }
      ],
      "stateMutability": "view",
      "type": "function"
    },
    {
      "inputs": [],
      "name": "CF_INCORRECT_LIQUIDATION_THRESHOLD",
      "outputs": [
        {
          "internalType": "string",
          "name": "",
          "type": "string"
        }
      ],
      "stateMutability": "view",
      "type": "function"
    },
    {
      "inputs": [],
      "name": "CF_INCORRECT_PRICEFEED",
      "outputs": [
        {
          "internalType": "string",
          "name": "",
          "type": "string"
        }
      ],
      "stateMutability": "view",
      "type": "function"
    },
    {
      "inputs": [],
      "name": "CF_NON_TOKEN_CONTRACT",
      "outputs": [
        {
          "internalType": "string",
          "name": "",
          "type": "string"
        }
      ],
      "stateMutability": "view",
      "type": "function"
    },
    {
      "inputs": [],
      "name": "CF_OPERATION_LOW_HEALTH_FACTOR",
      "outputs": [
        {
          "internalType": "string",
          "name": "",
          "type": "string"
        }
      ],
      "stateMutability": "view",
      "type": "function"
    },
    {
      "inputs": [],
      "name": "CF_SOME_LIQUIDATION_THRESHOLD_MORE_THAN_NEW_ONE",
      "outputs": [
        {
          "internalType": "string",
          "name": "",
          "type": "string"
        }
      ],
      "stateMutability": "view",
      "type": "function"
    },
    {
      "inputs": [],
      "name": "CF_TOKEN_IS_NOT_ALLOWED",
      "outputs": [
        {
          "internalType": "string",
          "name": "",
          "type": "string"
        }
      ],
      "stateMutability": "view",
      "type": "function"
    },
    {
      "inputs": [],
      "name": "CF_TOO_MUCH_ALLOWED_TOKENS",
      "outputs": [
        {
          "internalType": "string",
          "name": "",
          "type": "string"
        }
      ],
      "stateMutability": "view",
      "type": "function"
    },
    {
      "inputs": [],
      "name": "CF_TRANSFER_IS_NOT_ALLOWED",
      "outputs": [
        {
          "internalType": "string",
          "name": "",
          "type": "string"
        }
      ],
      "stateMutability": "view",
      "type": "function"
    },
    {
      "inputs": [],
      "name": "CF_UNDERLYING_TOKEN_FILTER_CONFLICT",
      "outputs": [
        {
          "internalType": "string",
          "name": "",
          "type": "string"
        }
      ],
      "stateMutability": "view",
      "type": "function"
    },
    {
      "inputs": [],
      "name": "CM_CANT_CLOSE_WITH_LOSS",
      "outputs": [
        {
          "internalType": "string",
          "name": "",
          "type": "string"
        }
      ],
      "stateMutability": "view",
      "type": "function"
    },
    {
      "inputs": [],
      "name": "CM_CAN_LIQUIDATE_WITH_SUCH_HEALTH_FACTOR",
      "outputs": [
        {
          "internalType": "string",
          "name": "",
          "type": "string"
        }
      ],
      "stateMutability": "view",
      "type": "function"
    },
    {
      "inputs": [],
      "name": "CM_CAN_UPDATE_WITH_SUCH_HEALTH_FACTOR",
      "outputs": [
        {
          "internalType": "string",
          "name": "",
          "type": "string"
        }
      ],
      "stateMutability": "view",
      "type": "function"
    },
    {
      "inputs": [],
      "name": "CM_INCORRECT_AMOUNT",
      "outputs": [
        {
          "internalType": "string",
          "name": "",
          "type": "string"
        }
      ],
      "stateMutability": "view",
      "type": "function"
    },
    {
      "inputs": [],
      "name": "CM_INCORRECT_FEES",
      "outputs": [
        {
          "internalType": "string",
          "name": "",
          "type": "string"
        }
      ],
      "stateMutability": "view",
      "type": "function"
    },
    {
      "inputs": [],
      "name": "CM_INCORRECT_NEW_OWNER",
      "outputs": [
        {
          "internalType": "string",
          "name": "",
          "type": "string"
        }
      ],
      "stateMutability": "view",
      "type": "function"
    },
    {
      "inputs": [],
      "name": "CM_INCORRECT_PARAMS",
      "outputs": [
        {
          "internalType": "string",
          "name": "",
          "type": "string"
        }
      ],
      "stateMutability": "view",
      "type": "function"
    },
    {
      "inputs": [],
      "name": "CM_MAX_LEVERAGE_IS_TOO_HIGH",
      "outputs": [
        {
          "internalType": "string",
          "name": "",
          "type": "string"
        }
      ],
      "stateMutability": "view",
      "type": "function"
    },
    {
      "inputs": [],
      "name": "CM_NO_OPEN_ACCOUNT",
      "outputs": [
        {
          "internalType": "string",
          "name": "",
          "type": "string"
        }
      ],
      "stateMutability": "view",
      "type": "function"
    },
    {
      "inputs": [],
      "name": "CM_TARGET_CONTRACT_iS_NOT_ALLOWED",
      "outputs": [
        {
          "internalType": "string",
          "name": "",
          "type": "string"
        }
      ],
      "stateMutability": "view",
      "type": "function"
    },
    {
      "inputs": [],
      "name": "CM_TRANSFER_FAILED",
      "outputs": [
        {
          "internalType": "string",
          "name": "",
          "type": "string"
        }
      ],
      "stateMutability": "view",
      "type": "function"
    },
    {
      "inputs": [],
      "name": "CM_WETH_GATEWAY_ONLY",
      "outputs": [
        {
          "internalType": "string",
          "name": "",
          "type": "string"
        }
      ],
      "stateMutability": "view",
      "type": "function"
    },
    {
      "inputs": [],
      "name": "CM_ZERO_ADDRESS_OR_USER_HAVE_ALREADY_OPEN_CREDIT_ACCOUNT",
      "outputs": [
        {
          "internalType": "string",
          "name": "",
          "type": "string"
        }
      ],
      "stateMutability": "view",
      "type": "function"
    },
    {
      "inputs": [],
      "name": "CR_CREDIT_MANAGER_ALREADY_ADDED",
      "outputs": [
        {
          "internalType": "string",
          "name": "",
          "type": "string"
        }
      ],
      "stateMutability": "view",
      "type": "function"
    },
    {
      "inputs": [],
      "name": "CR_POOL_ALREADY_ADDED",
      "outputs": [
        {
          "internalType": "string",
          "name": "",
          "type": "string"
        }
      ],
      "stateMutability": "view",
      "type": "function"
    },
    {
      "inputs": [],
      "name": "INCORRECT_ARRAY_LENGTH",
      "outputs": [
        {
          "internalType": "string",
          "name": "",
          "type": "string"
        }
      ],
      "stateMutability": "view",
      "type": "function"
    },
    {
      "inputs": [],
      "name": "INCORRECT_PARAMETER",
      "outputs": [
        {
          "internalType": "string",
          "name": "",
          "type": "string"
        }
      ],
      "stateMutability": "view",
      "type": "function"
    },
    {
      "inputs": [],
      "name": "INCORRECT_PATH_LENGTH",
      "outputs": [
        {
          "internalType": "string",
          "name": "",
          "type": "string"
        }
      ],
      "stateMutability": "view",
      "type": "function"
    },
    {
      "inputs": [],
      "name": "LA_HAS_VALUE_WITH_TOKEN_TRANSFER",
      "outputs": [
        {
          "internalType": "string",
          "name": "",
          "type": "string"
        }
      ],
      "stateMutability": "view",
      "type": "function"
    },
    {
      "inputs": [],
      "name": "LA_INCORRECT_VALUE",
      "outputs": [
        {
          "internalType": "string",
          "name": "",
          "type": "string"
        }
      ],
      "stateMutability": "view",
      "type": "function"
    },
    {
      "inputs": [],
      "name": "LA_LOWER_THAN_AMOUNT_MIN",
      "outputs": [
        {
          "internalType": "string",
          "name": "",
          "type": "string"
        }
      ],
      "stateMutability": "view",
      "type": "function"
    },
    {
      "inputs": [],
      "name": "LA_TOKEN_OUT_IS_NOT_COLLATERAL",
      "outputs": [
        {
          "internalType": "string",
          "name": "",
          "type": "string"
        }
      ],
      "stateMutability": "view",
      "type": "function"
    },
    {
      "inputs": [],
      "name": "LA_UNKNOWN_LP_INTERFACE",
      "outputs": [
        {
          "internalType": "string",
          "name": "",
          "type": "string"
        }
      ],
      "stateMutability": "view",
      "type": "function"
    },
    {
      "inputs": [],
      "name": "LA_UNKNOWN_SWAP_INTERFACE",
      "outputs": [
        {
          "internalType": "string",
          "name": "",
          "type": "string"
        }
      ],
      "stateMutability": "view",
      "type": "function"
    },
    {
      "inputs": [],
      "name": "MATH_ADDITION_OVERFLOW",
      "outputs": [
        {
          "internalType": "string",
          "name": "",
          "type": "string"
        }
      ],
      "stateMutability": "view",
      "type": "function"
    },
    {
      "inputs": [],
      "name": "MATH_DIVISION_BY_ZERO",
      "outputs": [
        {
          "internalType": "string",
          "name": "",
          "type": "string"
        }
      ],
      "stateMutability": "view",
      "type": "function"
    },
    {
      "inputs": [],
      "name": "MATH_MULTIPLICATION_OVERFLOW",
      "outputs": [
        {
          "internalType": "string",
          "name": "",
          "type": "string"
        }
      ],
      "stateMutability": "view",
      "type": "function"
    },
    {
      "inputs": [],
      "name": "NOT_IMPLEMENTED",
      "outputs": [
        {
          "internalType": "string",
          "name": "",
          "type": "string"
        }
      ],
      "stateMutability": "view",
      "type": "function"
    },
    {
      "inputs": [],
      "name": "POOL_CANT_ADD_CREDIT_MANAGER_TWICE",
      "outputs": [
        {
          "internalType": "string",
          "name": "",
          "type": "string"
        }
      ],
      "stateMutability": "view",
      "type": "function"
    },
    {
      "inputs": [],
      "name": "POOL_CONNECTED_CREDIT_MANAGERS_ONLY",
      "outputs": [
        {
          "internalType": "string",
          "name": "",
          "type": "string"
        }
      ],
      "stateMutability": "view",
      "type": "function"
    },
    {
      "inputs": [],
      "name": "POOL_INCOMPATIBLE_CREDIT_ACCOUNT_MANAGER",
      "outputs": [
        {
          "internalType": "string",
          "name": "",
          "type": "string"
        }
      ],
      "stateMutability": "view",
      "type": "function"
    },
    {
      "inputs": [],
      "name": "POOL_INCORRECT_WITHDRAW_FEE",
      "outputs": [
        {
          "internalType": "string",
          "name": "",
          "type": "string"
        }
      ],
      "stateMutability": "view",
      "type": "function"
    },
    {
      "inputs": [],
      "name": "POOL_MORE_THAN_EXPECTED_LIQUIDITY_LIMIT",
      "outputs": [
        {
          "internalType": "string",
          "name": "",
          "type": "string"
        }
      ],
      "stateMutability": "view",
      "type": "function"
    },
    {
      "inputs": [],
      "name": "PO_AGGREGATOR_DECIMALS_SHOULD_BE_18",
      "outputs": [
        {
          "internalType": "string",
          "name": "",
          "type": "string"
        }
      ],
      "stateMutability": "view",
      "type": "function"
    },
    {
      "inputs": [],
      "name": "PO_PRICE_FEED_DOESNT_EXIST",
      "outputs": [
        {
          "internalType": "string",
          "name": "",
          "type": "string"
        }
      ],
      "stateMutability": "view",
      "type": "function"
    },
    {
      "inputs": [],
      "name": "PO_TOKENS_WITH_DECIMALS_MORE_18_ISNT_ALLOWED",
      "outputs": [
        {
          "internalType": "string",
          "name": "",
          "type": "string"
        }
      ],
      "stateMutability": "view",
      "type": "function"
    },
    {
      "inputs": [],
      "name": "REGISTERED_CREDIT_ACCOUNT_MANAGERS_ONLY",
      "outputs": [
        {
          "internalType": "string",
          "name": "",
          "type": "string"
        }
      ],
      "stateMutability": "view",
      "type": "function"
    },
    {
      "inputs": [],
      "name": "REGISTERED_POOLS_ONLY",
      "outputs": [
        {
          "internalType": "string",
          "name": "",
          "type": "string"
        }
      ],
      "stateMutability": "view",
      "type": "function"
    },
    {
      "inputs": [],
      "name": "WG_DESTINATION_IS_NOT_WETH_COMPATIBLE",
      "outputs": [
        {
          "internalType": "string",
          "name": "",
          "type": "string"
        }
      ],
      "stateMutability": "view",
      "type": "function"
    },
    {
      "inputs": [],
      "name": "WG_NOT_ENOUGH_FUNDS",
      "outputs": [
        {
          "internalType": "string",
          "name": "",
          "type": "string"
        }
      ],
      "stateMutability": "view",
      "type": "function"
    },
    {
      "inputs": [],
      "name": "WG_RECEIVE_IS_NOT_ALLOWED",
      "outputs": [
        {
          "internalType": "string",
          "name": "",
          "type": "string"
        }
      ],
      "stateMutability": "view",
      "type": "function"
    },
    {
      "inputs": [],
      "name": "YPF_PRICE_PER_SHARE_OUT_OF_RANGE",
      "outputs": [
        {
          "internalType": "string",
          "name": "",
          "type": "string"
        }
      ],
      "stateMutability": "view",
      "type": "function"
    },
    {
      "inputs": [],
      "name": "ZERO_ADDRESS_IS_NOT_ALLOWED",
      "outputs": [
        {
          "internalType": "string",
          "name": "",
          "type": "string"
        }
      ],
      "stateMutability": "view",
      "type": "function"
    }
  ],
  "bytecode": "0x6136f8610026600b82828239805160001a60731461001957fe5b30600052607381538281f3fe73000000000000000000000000000000000000000030146080604052600436106104115760003560e01c80636f92ed921161022a578063b28bfe991161013a578063d1a65a38116100c2578063e7f3be0c11610091578063e7f3be0c146124d6578063e8b1475714612559578063ea2c3a00146125dc578063ebbd977f1461265f578063ff2a04e3146126e257610411565b8063d1a65a38146122ca578063de10ab9a1461234d578063de63cd40146123d0578063e13bde4c1461245357610411565b8063bdc36a0211610109578063bdc36a021461203b578063bdcb2576146120be578063beea5ec214612141578063c02e57ef146121c4578063ccbf92781461224757610411565b8063b28bfe9914611e2f578063b3d5b5d614611eb2578063b4fcfee314611f35578063b5cdcbac14611fb857610411565b806394391a4a116101bd578063a27c03701161018c578063a27c037014611ba0578063a424981214611c23578063a988ac6014611ca6578063ac75713914611d29578063ad37d10b14611dac57610411565b806394391a4a14611994578063944f5d2a14611a1757806399a98c9914611a9a5780639f4f3eeb14611b1d57610411565b80638aed8b2c116101f95780638aed8b2c146117885780638dcf31841461180b5780638ea76e221461188e57806393f7dc3c1461191157610411565b80636f92ed921461157c57806376d9ebb8146115ff57806383168a9b1461168257806387f88ef41461170557610411565b80632c9448141161032557806347985f2b116102b857806361b2ef2b1161028757806361b2ef2b146112ed57806361fb3dc41461137057806369c3ae16146113f35780636b3c35aa146114765780636c863867146114f957610411565b806347985f2b146110e157806352be8a64146111645780635a7afe48146111e75780635fd6824d1461126a57610411565b8063428cf705116102f4578063428cf70514610ed55780634349e3d814610f5857806343f6e4ab14610fdb578063447d8e421461105e57610411565b80632c94481414610cc95780633647c9f914610d4c5780633df46fe514610dcf5780633f3153b214610e5257610411565b80631dd371f8116103a85780632325ac93116103775780632325ac9314610a3a5780632357f36214610abd5780632438b32214610b40578063277fa84f14610bc357806328432c2214610c4657610411565b80631dd371f81461082e5780631e4dfd83146108b15780631fac3a1314610934578063202a591b146109b757610411565b80630c9409e7116103e45780630c9409e7146106225780630f5ee482146106a5578063119427c514610728578063159eee9f146107ab57610411565b8063012f822214610416578063029d2344146104995780630a2b1d3a1461051c5780630afeee971461059f575b600080fd5b61041e612765565b6040518080602001828103825283818151815260200191508051906020019080838360005b8381101561045e578082015181840152602081019050610443565b50505050905090810190601f16801561048b5780820380516001836020036101000a031916815260200191505b509250505060405180910390f35b6104a161279e565b6040518080602001828103825283818151815260200191508051906020019080838360005b838110156104e15780820151818401526020810190506104c6565b50505050905090810190601f16801561050e5780820380516001836020036101000a031916815260200191505b509250505060405180910390f35b6105246127d7565b6040518080602001828103825283818151815260200191508051906020019080838360005b83811015610564578082015181840152602081019050610549565b50505050905090810190601f1680156105915780820380516001836020036101000a031916815260200191505b509250505060405180910390f35b6105a7612810565b6040518080602001828103825283818151815260200191508051906020019080838360005b838110156105e75780820151818401526020810190506105cc565b50505050905090810190601f1680156106145780820380516001836020036101000a031916815260200191505b509250505060405180910390f35b61062a612849565b6040518080602001828103825283818151815260200191508051906020019080838360005b8381101561066a57808201518184015260208101905061064f565b50505050905090810190601f1680156106975780820380516001836020036101000a031916815260200191505b509250505060405180910390f35b6106ad612882565b6040518080602001828103825283818151815260200191508051906020019080838360005b838110156106ed5780820151818401526020810190506106d2565b50505050905090810190601f16801561071a5780820380516001836020036101000a031916815260200191505b509250505060405180910390f35b6107306128bb565b6040518080602001828103825283818151815260200191508051906020019080838360005b83811015610770578082015181840152602081019050610755565b50505050905090810190601f16801561079d5780820380516001836020036101000a031916815260200191505b509250505060405180910390f35b6107b36128f4565b6040518080602001828103825283818151815260200191508051906020019080838360005b838110156107f35780820151818401526020810190506107d8565b50505050905090810190601f1680156108205780820380516001836020036101000a031916815260200191505b509250505060405180910390f35b61083661292d565b6040518080602001828103825283818151815260200191508051906020019080838360005b8381101561087657808201518184015260208101905061085b565b50505050905090810190601f1680156108a35780820380516001836020036101000a031916815260200191505b509250505060405180910390f35b6108b9612966565b6040518080602001828103825283818151815260200191508051906020019080838360005b838110156108f95780820151818401526020810190506108de565b50505050905090810190601f1680156109265780820380516001836020036101000a031916815260200191505b509250505060405180910390f35b61093c61299f565b6040518080602001828103825283818151815260200191508051906020019080838360005b8381101561097c578082015181840152602081019050610961565b50505050905090810190601f1680156109a95780820380516001836020036101000a031916815260200191505b509250505060405180910390f35b6109bf6129d8565b6040518080602001828103825283818151815260200191508051906020019080838360005b838110156109ff5780820151818401526020810190506109e4565b50505050905090810190601f168015610a2c5780820380516001836020036101000a031916815260200191505b509250505060405180910390f35b610a42612a11565b6040518080602001828103825283818151815260200191508051906020019080838360005b83811015610a82578082015181840152602081019050610a67565b50505050905090810190601f168015610aaf5780820380516001836020036101000a031916815260200191505b509250505060405180910390f35b610ac5612a4a565b6040518080602001828103825283818151815260200191508051906020019080838360005b83811015610b05578082015181840152602081019050610aea565b50505050905090810190601f168015610b325780820380516001836020036101000a031916815260200191505b509250505060405180910390f35b610b48612a83565b6040518080602001828103825283818151815260200191508051906020019080838360005b83811015610b88578082015181840152602081019050610b6d565b50505050905090810190601f168015610bb55780820380516001836020036101000a031916815260200191505b509250505060405180910390f35b610bcb612abc565b6040518080602001828103825283818151815260200191508051906020019080838360005b83811015610c0b578082015181840152602081019050610bf0565b50505050905090810190601f168015610c385780820380516001836020036101000a031916815260200191505b509250505060405180910390f35b610c4e612af5565b6040518080602001828103825283818151815260200191508051906020019080838360005b83811015610c8e578082015181840152602081019050610c73565b50505050905090810190601f168015610cbb5780820380516001836020036101000a031916815260200191505b509250505060405180910390f35b610cd1612b2e565b6040518080602001828103825283818151815260200191508051906020019080838360005b83811015610d11578082015181840152602081019050610cf6565b50505050905090810190601f168015610d3e5780820380516001836020036101000a031916815260200191505b509250505060405180910390f35b610d54612b67565b6040518080602001828103825283818151815260200191508051906020019080838360005b83811015610d94578082015181840152602081019050610d79565b50505050905090810190601f168015610dc15780820380516001836020036101000a031916815260200191505b509250505060405180910390f35b610dd7612ba0565b6040518080602001828103825283818151815260200191508051906020019080838360005b83811015610e17578082015181840152602081019050610dfc565b50505050905090810190601f168015610e445780820380516001836020036101000a031916815260200191505b509250505060405180910390f35b610e5a612bd9565b6040518080602001828103825283818151815260200191508051906020019080838360005b83811015610e9a578082015181840152602081019050610e7f565b50505050905090810190601f168015610ec75780820380516001836020036101000a031916815260200191505b509250505060405180910390f35b610edd612c12565b6040518080602001828103825283818151815260200191508051906020019080838360005b83811015610f1d578082015181840152602081019050610f02565b50505050905090810190601f168015610f4a5780820380516001836020036101000a031916815260200191505b509250505060405180910390f35b610f60612c4b565b6040518080602001828103825283818151815260200191508051906020019080838360005b83811015610fa0578082015181840152602081019050610f85565b50505050905090810190601f168015610fcd5780820380516001836020036101000a031916815260200191505b509250505060405180910390f35b610fe3612c84565b6040518080602001828103825283818151815260200191508051906020019080838360005b83811015611023578082015181840152602081019050611008565b50505050905090810190601f1680156110505780820380516001836020036101000a031916815260200191505b509250505060405180910390f35b611066612cbd565b6040518080602001828103825283818151815260200191508051906020019080838360005b838110156110a657808201518184015260208101905061108b565b50505050905090810190601f1680156110d35780820380516001836020036101000a031916815260200191505b509250505060405180910390f35b6110e9612cf6565b6040518080602001828103825283818151815260200191508051906020019080838360005b8381101561112957808201518184015260208101905061110e565b50505050905090810190601f1680156111565780820380516001836020036101000a031916815260200191505b509250505060405180910390f35b61116c612d2f565b6040518080602001828103825283818151815260200191508051906020019080838360005b838110156111ac578082015181840152602081019050611191565b50505050905090810190601f1680156111d95780820380516001836020036101000a031916815260200191505b509250505060405180910390f35b6111ef612d68565b6040518080602001828103825283818151815260200191508051906020019080838360005b8381101561122f578082015181840152602081019050611214565b50505050905090810190601f16801561125c5780820380516001836020036101000a031916815260200191505b509250505060405180910390f35b611272612da1565b6040518080602001828103825283818151815260200191508051906020019080838360005b838110156112b2578082015181840152602081019050611297565b50505050905090810190601f1680156112df5780820380516001836020036101000a031916815260200191505b509250505060405180910390f35b6112f5612dda565b6040518080602001828103825283818151815260200191508051906020019080838360005b8381101561133557808201518184015260208101905061131a565b50505050905090810190601f1680156113625780820380516001836020036101000a031916815260200191505b509250505060405180910390f35b611378612e13565b6040518080602001828103825283818151815260200191508051906020019080838360005b838110156113b857808201518184015260208101905061139d565b50505050905090810190601f1680156113e55780820380516001836020036101000a031916815260200191505b509250505060405180910390f35b6113fb612e4c565b6040518080602001828103825283818151815260200191508051906020019080838360005b8381101561143b578082015181840152602081019050611420565b50505050905090810190601f1680156114685780820380516001836020036101000a031916815260200191505b509250505060405180910390f35b61147e612e85565b6040518080602001828103825283818151815260200191508051906020019080838360005b838110156114be5780820151818401526020810190506114a3565b50505050905090810190601f1680156114eb5780820380516001836020036101000a031916815260200191505b509250505060405180910390f35b611501612ebe565b6040518080602001828103825283818151815260200191508051906020019080838360005b83811015611541578082015181840152602081019050611526565b50505050905090810190601f16801561156e5780820380516001836020036101000a031916815260200191505b509250505060405180910390f35b611584612ef7565b6040518080602001828103825283818151815260200191508051906020019080838360005b838110156115c45780820151818401526020810190506115a9565b50505050905090810190601f1680156115f15780820380516001836020036101000a031916815260200191505b509250505060405180910390f35b611607612f30565b6040518080602001828103825283818151815260200191508051906020019080838360005b8381101561164757808201518184015260208101905061162c565b50505050905090810190601f1680156116745780820380516001836020036101000a031916815260200191505b509250505060405180910390f35b61168a612f69565b6040518080602001828103825283818151815260200191508051906020019080838360005b838110156116ca5780820151818401526020810190506116af565b50505050905090810190601f1680156116f75780820380516001836020036101000a031916815260200191505b509250505060405180910390f35b61170d612fa2565b6040518080602001828103825283818151815260200191508051906020019080838360005b8381101561174d578082015181840152602081019050611732565b50505050905090810190601f16801561177a5780820380516001836020036101000a031916815260200191505b509250505060405180910390f35b611790612fdb565b6040518080602001828103825283818151815260200191508051906020019080838360005b838110156117d05780820151818401526020810190506117b5565b50505050905090810190601f1680156117fd5780820380516001836020036101000a031916815260200191505b509250505060405180910390f35b611813613014565b6040518080602001828103825283818151815260200191508051906020019080838360005b83811015611853578082015181840152602081019050611838565b50505050905090810190601f1680156118805780820380516001836020036101000a031916815260200191505b509250505060405180910390f35b61189661304d565b6040518080602001828103825283818151815260200191508051906020019080838360005b838110156118d65780820151818401526020810190506118bb565b50505050905090810190601f1680156119035780820380516001836020036101000a031916815260200191505b509250505060405180910390f35b611919613086565b6040518080602001828103825283818151815260200191508051906020019080838360005b8381101561195957808201518184015260208101905061193e565b50505050905090810190601f1680156119865780820380516001836020036101000a031916815260200191505b509250505060405180910390f35b61199c6130bf565b6040518080602001828103825283818151815260200191508051906020019080838360005b838110156119dc5780820151818401526020810190506119c1565b50505050905090810190601f168015611a095780820380516001836020036101000a031916815260200191505b509250505060405180910390f35b611a1f6130f8565b6040518080602001828103825283818151815260200191508051906020019080838360005b83811015611a5f578082015181840152602081019050611a44565b50505050905090810190601f168015611a8c5780820380516001836020036101000a031916815260200191505b509250505060405180910390f35b611aa2613131565b6040518080602001828103825283818151815260200191508051906020019080838360005b83811015611ae2578082015181840152602081019050611ac7565b50505050905090810190601f168015611b0f5780820380516001836020036101000a031916815260200191505b509250505060405180910390f35b611b2561316a565b6040518080602001828103825283818151815260200191508051906020019080838360005b83811015611b65578082015181840152602081019050611b4a565b50505050905090810190601f168015611b925780820380516001836020036101000a031916815260200191505b509250505060405180910390f35b611ba86131a3565b6040518080602001828103825283818151815260200191508051906020019080838360005b83811015611be8578082015181840152602081019050611bcd565b50505050905090810190601f168015611c155780820380516001836020036101000a031916815260200191505b509250505060405180910390f35b611c2b6131dc565b6040518080602001828103825283818151815260200191508051906020019080838360005b83811015611c6b578082015181840152602081019050611c50565b50505050905090810190601f168015611c985780820380516001836020036101000a031916815260200191505b509250505060405180910390f35b611cae613215565b6040518080602001828103825283818151815260200191508051906020019080838360005b83811015611cee578082015181840152602081019050611cd3565b50505050905090810190601f168015611d1b5780820380516001836020036101000a031916815260200191505b509250505060405180910390f35b611d3161324e565b6040518080602001828103825283818151815260200191508051906020019080838360005b83811015611d71578082015181840152602081019050611d56565b50505050905090810190601f168015611d9e5780820380516001836020036101000a031916815260200191505b509250505060405180910390f35b611db4613287565b6040518080602001828103825283818151815260200191508051906020019080838360005b83811015611df4578082015181840152602081019050611dd9565b50505050905090810190601f168015611e215780820380516001836020036101000a031916815260200191505b509250505060405180910390f35b611e376132c0565b6040518080602001828103825283818151815260200191508051906020019080838360005b83811015611e77578082015181840152602081019050611e5c565b50505050905090810190601f168015611ea45780820380516001836020036101000a031916815260200191505b509250505060405180910390f35b611eba6132f9565b6040518080602001828103825283818151815260200191508051906020019080838360005b83811015611efa578082015181840152602081019050611edf565b50505050905090810190601f168015611f275780820380516001836020036101000a031916815260200191505b509250505060405180910390f35b611f3d613332565b6040518080602001828103825283818151815260200191508051906020019080838360005b83811015611f7d578082015181840152602081019050611f62565b50505050905090810190601f168015611faa5780820380516001836020036101000a031916815260200191505b509250505060405180910390f35b611fc061336b565b6040518080602001828103825283818151815260200191508051906020019080838360005b83811015612000578082015181840152602081019050611fe5565b50505050905090810190601f16801561202d5780820380516001836020036101000a031916815260200191505b509250505060405180910390f35b6120436133a4565b6040518080602001828103825283818151815260200191508051906020019080838360005b83811015612083578082015181840152602081019050612068565b50505050905090810190601f1680156120b05780820380516001836020036101000a031916815260200191505b509250505060405180910390f35b6120c66133dd565b6040518080602001828103825283818151815260200191508051906020019080838360005b838110156121065780820151818401526020810190506120eb565b50505050905090810190601f1680156121335780820380516001836020036101000a031916815260200191505b509250505060405180910390f35b612149613416565b6040518080602001828103825283818151815260200191508051906020019080838360005b8381101561218957808201518184015260208101905061216e565b50505050905090810190601f1680156121b65780820380516001836020036101000a031916815260200191505b509250505060405180910390f35b6121cc61344f565b6040518080602001828103825283818151815260200191508051906020019080838360005b8381101561220c5780820151818401526020810190506121f1565b50505050905090810190601f1680156122395780820380516001836020036101000a031916815260200191505b509250505060405180910390f35b61224f613488565b6040518080602001828103825283818151815260200191508051906020019080838360005b8381101561228f578082015181840152602081019050612274565b50505050905090810190601f1680156122bc5780820380516001836020036101000a031916815260200191505b509250505060405180910390f35b6122d26134c1565b6040518080602001828103825283818151815260200191508051906020019080838360005b838110156123125780820151818401526020810190506122f7565b50505050905090810190601f16801561233f5780820380516001836020036101000a031916815260200191505b509250505060405180910390f35b6123556134fa565b6040518080602001828103825283818151815260200191508051906020019080838360005b8381101561239557808201518184015260208101905061237a565b50505050905090810190601f1680156123c25780820380516001836020036101000a031916815260200191505b509250505060405180910390f35b6123d8613533565b6040518080602001828103825283818151815260200191508051906020019080838360005b838110156124185780820151818401526020810190506123fd565b50505050905090810190601f1680156124455780820380516001836020036101000a031916815260200191505b509250505060405180910390f35b61245b61356c565b6040518080602001828103825283818151815260200191508051906020019080838360005b8381101561249b578082015181840152602081019050612480565b50505050905090810190601f1680156124c85780820380516001836020036101000a031916815260200191505b509250505060405180910390f35b6124de6135a5565b6040518080602001828103825283818151815260200191508051906020019080838360005b8381101561251e578082015181840152602081019050612503565b50505050905090810190601f16801561254b5780820380516001836020036101000a031916815260200191505b509250505060405180910390f35b6125616135de565b6040518080602001828103825283818151815260200191508051906020019080838360005b838110156125a1578082015181840152602081019050612586565b50505050905090810190601f1680156125ce5780820380516001836020036101000a031916815260200191505b509250505060405180910390f35b6125e4613617565b6040518080602001828103825283818151815260200191508051906020019080838360005b83811015612624578082015181840152602081019050612609565b50505050905090810190601f1680156126515780820380516001836020036101000a031916815260200191505b509250505060405180910390f35b612667613650565b6040518080602001828103825283818151815260200191508051906020019080838360005b838110156126a757808201518184015260208101905061268c565b50505050905090810190601f1680156126d45780820380516001836020036101000a031916815260200191505b509250505060405180910390f35b6126ea613689565b6040518080602001828103825283818151815260200191508051906020019080838360005b8381101561272a57808201518184015260208101905061270f565b50505050905090810190601f1680156127575780820380516001836020036101000a031916815260200191505b509250505060405180910390f35b6040518060400160405280600381526020017f4c4133000000000000000000000000000000000000000000000000000000000081525081565b6040518060400160405280600281526020017f4d3100000000000000000000000000000000000000000000000000000000000081525081565b6040518060400160405280600381526020017f435231000000000000000000000000000000000000000000000000000000000081525081565b6040518060400160405280600281526020017f525000000000000000000000000000000000000000000000000000000000000081525081565b6040518060400160405280600381526020017f414631000000000000000000000000000000000000000000000000000000000081525081565b6040518060400160405280600281526020017f4d3200000000000000000000000000000000000000000000000000000000000081525081565b6040518060400160405280600381526020017f505332000000000000000000000000000000000000000000000000000000000081525081565b6040518060400160405280600381526020017f4c4135000000000000000000000000000000000000000000000000000000000081525081565b6040518060400160405280600381526020017f434632000000000000000000000000000000000000000000000000000000000081525081565b6040518060400160405280600381526020017f434644000000000000000000000000000000000000000000000000000000000081525081565b6040518060400160405280600381526020017f434647000000000000000000000000000000000000000000000000000000000081525081565b6040518060400160405280600381526020017f434634000000000000000000000000000000000000000000000000000000000081525081565b6040518060400160405280600381526020017f434d37000000000000000000000000000000000000000000000000000000000081525081565b6040518060400160405280600381526020017f434132000000000000000000000000000000000000000000000000000000000081525081565b6040518060400160405280600381526020017f595031000000000000000000000000000000000000000000000000000000000081525081565b6040518060400160405280600381526020017f434642000000000000000000000000000000000000000000000000000000000081525081565b6040518060400160405280600381526020017f535033000000000000000000000000000000000000000000000000000000000081525081565b6040518060400160405280600381526020017f504f30000000000000000000000000000000000000000000000000000000000081525081565b6040518060400160405280600381526020017f574731000000000000000000000000000000000000000000000000000000000081525081565b6040518060400160405280600281526020017f504c00000000000000000000000000000000000000000000000000000000000081525081565b6040518060400160405280600281526020017f5a3000000000000000000000000000000000000000000000000000000000000081525081565b6040518060400160405280600381526020017f434d31000000000000000000000000000000000000000000000000000000000081525081565b6040518060400160405280600281526020017f4d3300000000000000000000000000000000000000000000000000000000000081525081565b6040518060400160405280600281526020017f4e4900000000000000000000000000000000000000000000000000000000000081525081565b6040518060400160405280600381526020017f574732000000000000000000000000000000000000000000000000000000000081525081565b6040518060400160405280600381526020017f434d32000000000000000000000000000000000000000000000000000000000081525081565b6040518060400160405280600381526020017f4c4134000000000000000000000000000000000000000000000000000000000081525081565b6040518060400160405280600381526020017f434d41000000000000000000000000000000000000000000000000000000000081525081565b6040518060400160405280600381526020017f4c4132000000000000000000000000000000000000000000000000000000000081525081565b6040518060400160405280600381526020017f434d42000000000000000000000000000000000000000000000000000000000081525081565b6040518060400160405280600381526020017f4c4136000000000000000000000000000000000000000000000000000000000081525081565b6040518060400160405280600381526020017f434d33000000000000000000000000000000000000000000000000000000000081525081565b6040518060400160405280600381526020017f434645000000000000000000000000000000000000000000000000000000000081525081565b6040518060400160405280600381526020017f434630000000000000000000000000000000000000000000000000000000000081525081565b6040518060400160405280600381526020017f434631000000000000000000000000000000000000000000000000000000000081525081565b6040518060400160405280600381526020017f505330000000000000000000000000000000000000000000000000000000000081525081565b6040518060400160405280600381526020017f434646000000000000000000000000000000000000000000000000000000000081525081565b6040518060400160405280600381526020017f414632000000000000000000000000000000000000000000000000000000000081525081565b6040518060400160405280600381526020017f434636000000000000000000000000000000000000000000000000000000000081525081565b6040518060400160405280600381526020017f504f31000000000000000000000000000000000000000000000000000000000081525081565b6040518060400160405280600381526020017f434639000000000000000000000000000000000000000000000000000000000081525081565b6040518060400160405280600381526020017f434d35000000000000000000000000000000000000000000000000000000000081525081565b6040518060400160405280600281526020017f435000000000000000000000000000000000000000000000000000000000000081525081565b6040518060400160405280600381526020017f434d36000000000000000000000000000000000000000000000000000000000081525081565b6040518060400160405280600381526020017f435232000000000000000000000000000000000000000000000000000000000081525081565b6040518060400160405280600381526020017f4c4131000000000000000000000000000000000000000000000000000000000081525081565b6040518060400160405280600381526020017f505331000000000000000000000000000000000000000000000000000000000081525081565b6040518060400160405280600381526020017f434d34000000000000000000000000000000000000000000000000000000000081525081565b6040518060400160405280600481526020017f41434c310000000000000000000000000000000000000000000000000000000081525081565b6040518060400160405280600381526020017f414633000000000000000000000000000000000000000000000000000000000081525081565b6040518060400160405280600381526020017f434641000000000000000000000000000000000000000000000000000000000081525081565b6040518060400160405280600381526020017f434d43000000000000000000000000000000000000000000000000000000000081525081565b6040518060400160405280600381526020017f434635000000000000000000000000000000000000000000000000000000000081525081565b6040518060400160405280600381526020017f504f32000000000000000000000000000000000000000000000000000000000081525081565b6040518060400160405280600381526020017f434d39000000000000000000000000000000000000000000000000000000000081525081565b6040518060400160405280600381526020017f434637000000000000000000000000000000000000000000000000000000000081525081565b6040518060400160405280600281526020017f495000000000000000000000000000000000000000000000000000000000000081525081565b6040518060400160405280600381526020017f574733000000000000000000000000000000000000000000000000000000000081525081565b6040518060400160405280600381526020017f434638000000000000000000000000000000000000000000000000000000000081525081565b6040518060400160405280600381526020017f505334000000000000000000000000000000000000000000000000000000000081525081565b6040518060400160405280600381526020017f414634000000000000000000000000000000000000000000000000000000000081525081565b6040518060400160405280600381526020017f434d38000000000000000000000000000000000000000000000000000000000081525081565b6040518060400160405280600381526020017f415031000000000000000000000000000000000000000000000000000000000081525081565b6040518060400160405280600381526020017f434d45000000000000000000000000000000000000000000000000000000000081525081565b6040518060400160405280600281526020017f435200000000000000000000000000000000000000000000000000000000000081525081565b6040518060400160405280600381526020017f434643000000000000000000000000000000000000000000000000000000000081525081565b6040518060400160405280600381526020017f434633000000000000000000000000000000000000000000000000000000000081525081565b6040518060400160405280600481526020017f41434c320000000000000000000000000000000000000000000000000000000081525081565b6040518060400160405280600381526020017f43413100000000000000000000000000000000000000000000000000000000008152508156fea264697066735822122098738d0e49dc984a3c0b260578b78db4a394c14a43f0ed60206daa7ff911939e64736f6c63430007060033",
  "linkReferences": {},
  "deployedLinkReferences": {}
}