{
  "_format": "hh-sol-artifact-1",
  "contractName": "CreditFilterMock",
  "sourceName": "contracts/mocks/credit/CreditFilterMock.sol",
  "abi": [
    {
      "inputs": [
        {
          "internalType": "address",
          "name": "_addressProvider",
          "type": "address"
        },
        {
          "internalType": "address",
          "name": "_underlyingToken",
          "type": "address"
        }
      ],
      "stateMutability": "nonpayable",
      "type": "constructor"
    },
    {
      "anonymous": false,
      "inputs": [
        {
          "indexed": true,
          "internalType": "address",
          "name": "protocol",
          "type": "address"
        },
        {
          "indexed": true,
          "internalType": "address",
          "name": "adapter",
          "type": "address"
        }
      ],
      "name": "ContractAllowed",
      "type": "event"
    },
    {
      "anonymous": false,
      "inputs": [
        {
          "indexed": true,
          "internalType": "address",
          "name": "protocol",
          "type": "address"
        }
      ],
      "name": "ContractForbidden",
      "type": "event"
    },
    {
      "anonymous": false,
      "inputs": [
        {
          "indexed": false,
          "internalType": "uint256",
          "name": "chiThreshold",
          "type": "uint256"
        },
        {
          "indexed": false,
          "internalType": "uint256",
          "name": "fastCheckDelay",
          "type": "uint256"
        }
      ],
      "name": "NewFastCheckParameters",
      "type": "event"
    },
    {
      "anonymous": false,
      "inputs": [
        {
          "indexed": false,
          "internalType": "address",
          "name": "account",
          "type": "address"
        }
      ],
      "name": "Paused",
      "type": "event"
    },
    {
      "anonymous": false,
      "inputs": [
        {
          "indexed": true,
          "internalType": "address",
          "name": "token",
          "type": "address"
        },
        {
          "indexed": false,
          "internalType": "uint256",
          "name": "liquidityThreshold",
          "type": "uint256"
        }
      ],
      "name": "TokenAllowed",
      "type": "event"
    },
    {
      "anonymous": false,
      "inputs": [
        {
          "indexed": true,
          "internalType": "address",
          "name": "from",
          "type": "address"
        },
        {
          "indexed": true,
          "internalType": "address",
          "name": "to",
          "type": "address"
        },
        {
          "indexed": false,
          "internalType": "bool",
          "name": "state",
          "type": "bool"
        }
      ],
      "name": "TransferAccountAllowed",
      "type": "event"
    },
    {
      "anonymous": false,
      "inputs": [
        {
          "indexed": true,
          "internalType": "address",
          "name": "pugin",
          "type": "address"
        },
        {
          "indexed": false,
          "internalType": "bool",
          "name": "state",
          "type": "bool"
        }
      ],
      "name": "TransferPluginAllowed",
      "type": "event"
    },
    {
      "anonymous": false,
      "inputs": [
        {
          "indexed": false,
          "internalType": "address",
          "name": "account",
          "type": "address"
        }
      ],
      "name": "Unpaused",
      "type": "event"
    },
    {
      "inputs": [
        {
          "internalType": "address",
          "name": "",
          "type": "address"
        }
      ],
      "name": "_allowedTokensMap",
      "outputs": [
        {
          "internalType": "bool",
          "name": "",
          "type": "bool"
        }
      ],
      "stateMutability": "view",
      "type": "function"
    },
    {
      "inputs": [],
      "name": "addressProvider",
      "outputs": [
        {
          "internalType": "contract AddressProvider",
          "name": "",
          "type": "address"
        }
      ],
      "stateMutability": "view",
      "type": "function"
    },
    {
      "inputs": [
        {
          "internalType": "address",
          "name": "targetContract",
          "type": "address"
        },
        {
          "internalType": "address",
          "name": "adapter",
          "type": "address"
        }
      ],
      "name": "allowContract",
      "outputs": [],
      "stateMutability": "nonpayable",
      "type": "function"
    },
    {
      "inputs": [
        {
          "internalType": "address",
          "name": "plugin",
          "type": "address"
        },
        {
          "internalType": "bool",
          "name": "state",
          "type": "bool"
        }
      ],
      "name": "allowPlugin",
      "outputs": [],
      "stateMutability": "nonpayable",
      "type": "function"
    },
    {
      "inputs": [
        {
          "internalType": "address",
          "name": "token",
          "type": "address"
        },
        {
          "internalType": "uint256",
          "name": "liquidationThreshold",
          "type": "uint256"
        }
      ],
      "name": "allowToken",
      "outputs": [],
      "stateMutability": "nonpayable",
      "type": "function"
    },
    {
      "inputs": [
        {
          "internalType": "address",
          "name": "from",
          "type": "address"
        },
        {
          "internalType": "address",
          "name": "to",
          "type": "address"
        }
      ],
      "name": "allowanceForAccountTransfers",
      "outputs": [
        {
          "internalType": "bool",
          "name": "",
          "type": "bool"
        }
      ],
      "stateMutability": "view",
      "type": "function"
    },
    {
      "inputs": [
        {
          "internalType": "address",
          "name": "",
          "type": "address"
        }
      ],
      "name": "allowedAdapters",
      "outputs": [
        {
          "internalType": "bool",
          "name": "",
          "type": "bool"
        }
      ],
      "stateMutability": "view",
      "type": "function"
    },
    {
      "inputs": [
        {
          "internalType": "uint256",
          "name": "i",
          "type": "uint256"
        }
      ],
      "name": "allowedContracts",
      "outputs": [
        {
          "internalType": "address",
          "name": "",
          "type": "address"
        }
      ],
      "stateMutability": "view",
      "type": "function"
    },
    {
      "inputs": [],
      "name": "allowedContractsCount",
      "outputs": [
        {
          "internalType": "uint256",
          "name": "",
          "type": "uint256"
        }
      ],
      "stateMutability": "view",
      "type": "function"
    },
    {
      "inputs": [
        {
          "internalType": "address",
          "name": "",
          "type": "address"
        }
      ],
      "name": "allowedPlugins",
      "outputs": [
        {
          "internalType": "bool",
          "name": "",
          "type": "bool"
        }
      ],
      "stateMutability": "view",
      "type": "function"
    },
    {
      "inputs": [
        {
          "internalType": "uint256",
          "name": "",
          "type": "uint256"
        }
      ],
      "name": "allowedTokens",
      "outputs": [
        {
          "internalType": "address",
          "name": "",
          "type": "address"
        }
      ],
      "stateMutability": "view",
      "type": "function"
    },
    {
      "inputs": [],
      "name": "allowedTokensCount",
      "outputs": [
        {
          "internalType": "uint256",
          "name": "",
          "type": "uint256"
        }
      ],
      "stateMutability": "view",
      "type": "function"
    },
    {
      "inputs": [
        {
          "internalType": "address",
          "name": "from",
          "type": "address"
        },
        {
          "internalType": "bool",
          "name": "state",
          "type": "bool"
        }
      ],
      "name": "approveAccountTransfers",
      "outputs": [],
      "stateMutability": "nonpayable",
      "type": "function"
    },
    {
      "inputs": [
        {
          "internalType": "address",
          "name": "creditAccount",
          "type": "address"
        }
      ],
      "name": "calcCreditAccountAccruedInterest",
      "outputs": [
        {
          "internalType": "uint256",
          "name": "",
          "type": "uint256"
        }
      ],
      "stateMutability": "view",
      "type": "function"
    },
    {
      "inputs": [
        {
          "internalType": "address",
          "name": "creditAccount",
          "type": "address"
        }
      ],
      "name": "calcCreditAccountHealthFactor",
      "outputs": [
        {
          "internalType": "uint256",
          "name": "",
          "type": "uint256"
        }
      ],
      "stateMutability": "view",
      "type": "function"
    },
    {
      "inputs": [
        {
          "internalType": "uint256",
          "name": "percentage",
          "type": "uint256"
        },
        {
          "internalType": "uint256",
          "name": "times",
          "type": "uint256"
        }
      ],
      "name": "calcMaxPossibleDrop",
      "outputs": [
        {
          "internalType": "uint256",
          "name": "value",
          "type": "uint256"
        }
      ],
      "stateMutability": "pure",
      "type": "function"
    },
    {
      "inputs": [
        {
          "internalType": "address",
          "name": "creditAccount",
          "type": "address"
        }
      ],
      "name": "calcThresholdWeightedValue",
      "outputs": [
        {
          "internalType": "uint256",
          "name": "total",
          "type": "uint256"
        }
      ],
      "stateMutability": "view",
      "type": "function"
    },
    {
      "inputs": [
        {
          "internalType": "address",
          "name": "creditAccount",
          "type": "address"
        }
      ],
      "name": "calcTotalValue",
      "outputs": [
        {
          "internalType": "uint256",
          "name": "total",
          "type": "uint256"
        }
      ],
      "stateMutability": "view",
      "type": "function"
    },
    {
      "inputs": [
        {
          "internalType": "address",
          "name": "creditAccount",
          "type": "address"
        },
        {
          "internalType": "address",
          "name": "token",
          "type": "address"
        }
      ],
      "name": "checkAndEnableToken",
      "outputs": [],
      "stateMutability": "nonpayable",
      "type": "function"
    },
    {
      "inputs": [
        {
          "internalType": "address",
          "name": "creditAccount",
          "type": "address"
        },
        {
          "internalType": "address",
          "name": "tokenIn",
          "type": "address"
        },
        {
          "internalType": "address",
          "name": "tokenOut",
          "type": "address"
        },
        {
          "internalType": "uint256",
          "name": "amountIn",
          "type": "uint256"
        },
        {
          "internalType": "uint256",
          "name": "amountOut",
          "type": "uint256"
        }
      ],
      "name": "checkCollateralChange",
      "outputs": [],
      "stateMutability": "nonpayable",
      "type": "function"
    },
    {
      "inputs": [
        {
          "internalType": "address",
          "name": "creditAccount",
          "type": "address"
        },
        {
          "internalType": "uint256[]",
          "name": "amountIn",
          "type": "uint256[]"
        },
        {
          "internalType": "uint256[]",
          "name": "amountOut",
          "type": "uint256[]"
        },
        {
          "internalType": "address[]",
          "name": "tokenIn",
          "type": "address[]"
        },
        {
          "internalType": "address[]",
          "name": "tokenOut",
          "type": "address[]"
        }
      ],
      "name": "checkMultiTokenCollateral",
      "outputs": [],
      "stateMutability": "nonpayable",
      "type": "function"
    },
    {
      "inputs": [],
      "name": "chiThreshold",
      "outputs": [
        {
          "internalType": "uint256",
          "name": "",
          "type": "uint256"
        }
      ],
      "stateMutability": "view",
      "type": "function"
    },
    {
      "inputs": [
        {
          "internalType": "address",
          "name": "_creditManager",
          "type": "address"
        }
      ],
      "name": "connectCreditManager",
      "outputs": [],
      "stateMutability": "nonpayable",
      "type": "function"
    },
    {
      "inputs": [
        {
          "internalType": "address",
          "name": "",
          "type": "address"
        }
      ],
      "name": "contractToAdapter",
      "outputs": [
        {
          "internalType": "address",
          "name": "",
          "type": "address"
        }
      ],
      "stateMutability": "view",
      "type": "function"
    },
    {
      "inputs": [],
      "name": "creditManager",
      "outputs": [
        {
          "internalType": "address",
          "name": "",
          "type": "address"
        }
      ],
      "stateMutability": "view",
      "type": "function"
    },
    {
      "inputs": [
        {
          "internalType": "address",
          "name": "",
          "type": "address"
        }
      ],
      "name": "enabledTokens",
      "outputs": [
        {
          "internalType": "uint256",
          "name": "",
          "type": "uint256"
        }
      ],
      "stateMutability": "view",
      "type": "function"
    },
    {
      "inputs": [
        {
          "internalType": "address",
          "name": "",
          "type": "address"
        }
      ],
      "name": "fastCheckCounter",
      "outputs": [
        {
          "internalType": "uint256",
          "name": "",
          "type": "uint256"
        }
      ],
      "stateMutability": "view",
      "type": "function"
    },
    {
      "inputs": [
        {
          "internalType": "address",
          "name": "targetContract",
          "type": "address"
        }
      ],
      "name": "forbidContract",
      "outputs": [],
      "stateMutability": "nonpayable",
      "type": "function"
    },
    {
      "inputs": [
        {
          "internalType": "address",
          "name": "token",
          "type": "address"
        }
      ],
      "name": "forbidToken",
      "outputs": [],
      "stateMutability": "nonpayable",
      "type": "function"
    },
    {
      "inputs": [
        {
          "internalType": "address",
          "name": "creditAccount",
          "type": "address"
        },
        {
          "internalType": "uint256",
          "name": "id",
          "type": "uint256"
        }
      ],
      "name": "getCreditAccountTokenById",
      "outputs": [
        {
          "internalType": "address",
          "name": "token",
          "type": "address"
        },
        {
          "internalType": "uint256",
          "name": "balance",
          "type": "uint256"
        },
        {
          "internalType": "uint256",
          "name": "tv",
          "type": "uint256"
        },
        {
          "internalType": "uint256",
          "name": "tvw",
          "type": "uint256"
        }
      ],
      "stateMutability": "view",
      "type": "function"
    },
    {
      "inputs": [],
      "name": "hfCheckInterval",
      "outputs": [
        {
          "internalType": "uint256",
          "name": "",
          "type": "uint256"
        }
      ],
      "stateMutability": "view",
      "type": "function"
    },
    {
      "inputs": [
        {
          "internalType": "address",
          "name": "creditAccount",
          "type": "address"
        }
      ],
      "name": "initEnabledTokens",
      "outputs": [],
      "stateMutability": "nonpayable",
      "type": "function"
    },
    {
      "inputs": [
        {
          "internalType": "address",
          "name": "token",
          "type": "address"
        }
      ],
      "name": "isTokenAllowed",
      "outputs": [
        {
          "internalType": "bool",
          "name": "",
          "type": "bool"
        }
      ],
      "stateMutability": "view",
      "type": "function"
    },
    {
      "inputs": [
        {
          "internalType": "address",
          "name": "",
          "type": "address"
        }
      ],
      "name": "liquidationThresholds",
      "outputs": [
        {
          "internalType": "uint256",
          "name": "",
          "type": "uint256"
        }
      ],
      "stateMutability": "view",
      "type": "function"
    },
    {
      "inputs": [],
      "name": "pause",
      "outputs": [],
      "stateMutability": "nonpayable",
      "type": "function"
    },
    {
      "inputs": [],
      "name": "paused",
      "outputs": [
        {
          "internalType": "bool",
          "name": "",
          "type": "bool"
        }
      ],
      "stateMutability": "view",
      "type": "function"
    },
    {
      "inputs": [],
      "name": "poolService",
      "outputs": [
        {
          "internalType": "address",
          "name": "",
          "type": "address"
        }
      ],
      "stateMutability": "view",
      "type": "function"
    },
    {
      "inputs": [],
      "name": "priceOracle",
      "outputs": [
        {
          "internalType": "address",
          "name": "",
          "type": "address"
        }
      ],
      "stateMutability": "view",
      "type": "function"
    },
    {
      "inputs": [
        {
          "internalType": "address",
          "name": "owner",
          "type": "address"
        },
        {
          "internalType": "address",
          "name": "newOwner",
          "type": "address"
        }
      ],
      "name": "revertIfAccountTransferIsNotAllowed",
      "outputs": [],
      "stateMutability": "view",
      "type": "function"
    },
    {
      "inputs": [
        {
          "internalType": "address",
          "name": "creditAccount",
          "type": "address"
        },
        {
          "internalType": "uint256",
          "name": "minHealthFactor",
          "type": "uint256"
        }
      ],
      "name": "revertIfCantIncreaseBorrowing",
      "outputs": [],
      "stateMutability": "view",
      "type": "function"
    },
    {
      "inputs": [
        {
          "internalType": "address",
          "name": "token",
          "type": "address"
        }
      ],
      "name": "revertIfTokenNotAllowed",
      "outputs": [],
      "stateMutability": "view",
      "type": "function"
    },
    {
      "inputs": [
        {
          "internalType": "address",
          "name": "creditAccount",
          "type": "address"
        },
        {
          "internalType": "uint256",
          "name": "tokenMask",
          "type": "uint256"
        }
      ],
      "name": "setEnabledTokens",
      "outputs": [],
      "stateMutability": "nonpayable",
      "type": "function"
    },
    {
      "inputs": [
        {
          "internalType": "address",
          "name": "creditAccount",
          "type": "address"
        },
        {
          "internalType": "uint256",
          "name": "blockNum",
          "type": "uint256"
        }
      ],
      "name": "setFastCheckBlock",
      "outputs": [],
      "stateMutability": "nonpayable",
      "type": "function"
    },
    {
      "inputs": [
        {
          "internalType": "uint256",
          "name": "_chiThreshold",
          "type": "uint256"
        },
        {
          "internalType": "uint256",
          "name": "_hfCheckInterval",
          "type": "uint256"
        }
      ],
      "name": "setFastCheckParameters",
      "outputs": [],
      "stateMutability": "nonpayable",
      "type": "function"
    },
    {
      "inputs": [
        {
          "internalType": "address",
          "name": "",
          "type": "address"
        }
      ],
      "name": "tokenMasksMap",
      "outputs": [
        {
          "internalType": "uint256",
          "name": "",
          "type": "uint256"
        }
      ],
      "stateMutability": "view",
      "type": "function"
    },
    {
      "inputs": [],
      "name": "underlyingToken",
      "outputs": [
        {
          "internalType": "address",
          "name": "",
          "type": "address"
        }
      ],
      "stateMutability": "view",
      "type": "function"
    },
    {
      "inputs": [],
      "name": "unpause",
      "outputs": [],
      "stateMutability": "nonpayable",
      "type": "function"
    },
    {
      "inputs": [],
      "name": "updateUnderlyingTokenLiquidationThreshold",
      "outputs": [],
      "stateMutability": "nonpayable",
      "type": "function"
    },
    {
      "inputs": [],
      "name": "wethAddress",
      "outputs": [
        {
          "internalType": "address",
          "name": "",
          "type": "address"
        }
      ],
      "stateMutability": "view",
      "type": "function"
    }
  ],
  "bytecode": "0x60806040523480156200001157600080fd5b506040516200776038038062007760833981810160405260408110156200003757600080fd5b81019080805190602001909291908051906020019092919050505081818160008060006101000a81548160ff021916908315150217905550600073ffffffffffffffffffffffffffffffffffffffff168173ffffffffffffffffffffffffffffffffffffffff1614156040518060400160405280600281526020017f5a300000000000000000000000000000000000000000000000000000000000008152509062000180576040517f08c379a00000000000000000000000000000000000000000000000000000000081526004018080602001828103825283818151815260200191508051906020019080838360005b838110156200014457808201518184015260208101905062000127565b50505050905090810190601f168015620001725780820380516001836020036101000a031916815260200191505b509250505060405180910390fd5b508073ffffffffffffffffffffffffffffffffffffffff1663087376956040518163ffffffff1660e01b815260040160206040518083038186803b158015620001c857600080fd5b505afa158015620001dd573d6000803e3d6000fd5b505050506040513d6020811015620001f457600080fd5b8101908080519060200190929190505050600060016101000a81548173ffffffffffffffffffffffffffffffffffffffff021916908373ffffffffffffffffffffffffffffffffffffffff16021790555050600073ffffffffffffffffffffffffffffffffffffffff168273ffffffffffffffffffffffffffffffffffffffff1614158015620002b15750600073ffffffffffffffffffffffffffffffffffffffff168173ffffffffffffffffffffffffffffffffffffffff1614155b6040518060400160405280600281526020017f5a30000000000000000000000000000000000000000000000000000000000000815250906200032b576040517f08c379a00000000000000000000000000000000000000000000000000000000081526004016200032291906200165b565b60405180910390fd5b5081600160006101000a81548173ffffffffffffffffffffffffffffffffffffffff021916908373ffffffffffffffffffffffffffffffffffffffff160217905550600160009054906101000a900473ffffffffffffffffffffffffffffffffffffffff1673ffffffffffffffffffffffffffffffffffffffff1663fca513a86040518163ffffffff1660e01b815260040160206040518083038186803b158015620003d657600080fd5b505afa158015620003eb573d6000803e3d6000fd5b505050506040513d601f19601f8201168201806040525081019062000411919062001556565b600d60006101000a81548173ffffffffffffffffffffffffffffffffffffffff021916908373ffffffffffffffffffffffffffffffffffffffff160217905550600160009054906101000a900473ffffffffffffffffffffffffffffffffffffffff1673ffffffffffffffffffffffffffffffffffffffff16634c252f916040518163ffffffff1660e01b815260040160206040518083038186803b158015620004ba57600080fd5b505afa158015620004cf573d6000803e3d6000fd5b505050506040513d601f19601f82011682018060405250810190620004f5919062001556565b601060006101000a81548173ffffffffffffffffffffffffffffffffffffffff021916908373ffffffffffffffffffffffffffffffffffffffff16021790555080600e60006101000a81548173ffffffffffffffffffffffffffffffffffffffff021916908373ffffffffffffffffffffffffffffffffffffffff16021790555060c861251c0360056000600e60009054906101000a900473ffffffffffffffffffffffffffffffffffffffff1673ffffffffffffffffffffffffffffffffffffffff1673ffffffffffffffffffffffffffffffffffffffff168152602001908152602001600020819055506200061a600e60009054906101000a900473ffffffffffffffffffffffffffffffffffffffff1660c861251c036200073460201b60201c565b6200062f6126de600462000f2860201b60201c565b600160146000600160009054906101000a900473ffffffffffffffffffffffffffffffffffffffff1673ffffffffffffffffffffffffffffffffffffffff166377532ed96040518163ffffffff1660e01b815260040160206040518083038186803b1580156200069e57600080fd5b505afa158015620006b3573d6000803e3d6000fd5b505050506040513d601f19601f82011682018060405250810190620006d9919062001556565b73ffffffffffffffffffffffffffffffffffffffff1673ffffffffffffffffffffffffffffffffffffffff16815260200190815260200160002060006101000a81548160ff021916908315150217905550505050506200179e565b600060019054906101000a900473ffffffffffffffffffffffffffffffffffffffff1673ffffffffffffffffffffffffffffffffffffffff16635f259aba336040518263ffffffff1660e01b8152600401808273ffffffffffffffffffffffffffffffffffffffff16815260200191505060206040518083038186803b158015620007be57600080fd5b505afa158015620007d3573d6000803e3d6000fd5b505050506040513d6020811015620007ea57600080fd5b81019080805190602001909291905050506040518060400160405280600481526020017f41434c320000000000000000000000000000000000000000000000000000000081525090620008db576040517f08c379a00000000000000000000000000000000000000000000000000000000081526004018080602001828103825283818151815260200191508051906020019080838360005b838110156200089f57808201518184015260208101905062000882565b50505050905090810190601f168015620008cd5780820380516001836020036101000a031916815260200191505b509250505060405180910390fd5b50600073ffffffffffffffffffffffffffffffffffffffff168273ffffffffffffffffffffffffffffffffffffffff1614156040518060400160405280600281526020017f5a300000000000000000000000000000000000000000000000000000000000008152509062000987576040517f08c379a00000000000000000000000000000000000000000000000000000000081526004016200097e91906200165b565b60405180910390fd5b50600081118015620009fa575060056000600e60009054906101000a900473ffffffffffffffffffffffffffffffffffffffff1673ffffffffffffffffffffffffffffffffffffffff1673ffffffffffffffffffffffffffffffffffffffff168152602001908152602001600020548111155b6040518060400160405280600381526020017f43463100000000000000000000000000000000000000000000000000000000008152509062000a74576040517f08c379a000000000000000000000000000000000000000000000000000000000815260040162000a6b91906200165b565b60405180910390fd5b506000600660008473ffffffffffffffffffffffffffffffffffffffff1673ffffffffffffffffffffffffffffffffffffffff16815260200190815260200160002054118062000aca5750610100600480549050105b6040518060400160405280600381526020017f43463600000000000000000000000000000000000000000000000000000000008152509062000b44576040517f08c379a000000000000000000000000000000000000000000000000000000000815260040162000b3b91906200165b565b60405180910390fd5b5060008273ffffffffffffffffffffffffffffffffffffffff166370a08231306040518263ffffffff1660e01b815260040162000b82919062001611565b60206040518083038186803b15801562000b9b57600080fd5b505afa15801562000bb0573d6000803e3d6000fd5b505050506040513d601f19601f8201168201806040525081019062000bd6919062001582565b101562000be257600080fd5b6000600d60009054906101000a900473ffffffffffffffffffffffffffffffffffffffff1673ffffffffffffffffffffffffffffffffffffffff1663743b908684600e60009054906101000a900473ffffffffffffffffffffffffffffffffffffffff166040518363ffffffff1660e01b815260040162000c659291906200162e565b60206040518083038186803b15801562000c7e57600080fd5b505afa15801562000c93573d6000803e3d6000fd5b505050506040513d601f19601f8201168201806040525081019062000cb9919062001582565b116040518060400160405280600381526020017f43464500000000000000000000000000000000000000000000000000000000008152509062000d34576040517f08c379a000000000000000000000000000000000000000000000000000000000815260040162000d2b91906200165b565b60405180910390fd5b50600360008373ffffffffffffffffffffffffffffffffffffffff1673ffffffffffffffffffffffffffffffffffffffff16815260200190815260200160002060009054906101000a900460ff1662000e90576001600360008473ffffffffffffffffffffffffffffffffffffffff1673ffffffffffffffffffffffffffffffffffffffff16815260200190815260200160002060006101000a81548160ff0219169083151502179055506004805490506001901b600660008473ffffffffffffffffffffffffffffffffffffffff1673ffffffffffffffffffffffffffffffffffffffff168152602001908152602001600020819055506004829080600181540180825580915050600190039060005260206000200160009091909190916101000a81548173ffffffffffffffffffffffffffffffffffffffff021916908373ffffffffffffffffffffffffffffffffffffffff1602179055505b80600560008473ffffffffffffffffffffffffffffffffffffffff1673ffffffffffffffffffffffffffffffffffffffff168152602001908152602001600020819055508173ffffffffffffffffffffffffffffffffffffffff167fa52fb6bfa514a4ddcb31de40a5f6c20d767db1f921a8b7747973d93dc5da7a028260405162000f1c91906200167f565b60405180910390a25050565b600060019054906101000a900473ffffffffffffffffffffffffffffffffffffffff1673ffffffffffffffffffffffffffffffffffffffff16635f259aba336040518263ffffffff1660e01b8152600401808273ffffffffffffffffffffffffffffffffffffffff16815260200191505060206040518083038186803b15801562000fb257600080fd5b505afa15801562000fc7573d6000803e3d6000fd5b505050506040513d602081101562000fde57600080fd5b81019080805190602001909291905050506040518060400160405280600481526020017f41434c320000000000000000000000000000000000000000000000000000000081525090620010cf576040517f08c379a00000000000000000000000000000000000000000000000000000000081526004018080602001828103825283818151815260200191508051906020019080838360005b838110156200109357808201518184015260208101905062001076565b50505050905090810190601f168015620010c15780820380516001836020036101000a031916815260200191505b509250505060405180910390fd5b508160118190555080601281905550620010ee6200112d60201b60201c565b7f727652fff0946c19c233fd3eab5fc03db9e9fdd907e902d9136c2a9cac47101c8282604051620011219291906200169c565b60405180910390a15050565b600073ffffffffffffffffffffffffffffffffffffffff16600260009054906101000a900473ffffffffffffffffffffffffffffffffffffffff1673ffffffffffffffffffffffffffffffffffffffff1614620012dc576000620011b7620011a0601154601254620012de60201b60201c565b6127106200138e60201b620051381790919060201c565b9050600260009054906101000a900473ffffffffffffffffffffffffffffffffffffffff1673ffffffffffffffffffffffffffffffffffffffff16633915ffaa6040518163ffffffff1660e01b815260040160206040518083038186803b1580156200122257600080fd5b505afa15801562001237573d6000803e3d6000fd5b505050506040513d601f19601f820116820180604052508101906200125d919062001582565b81106040518060400160405280600381526020017f434642000000000000000000000000000000000000000000000000000000000081525090620012d9576040517f08c379a0000000000000000000000000000000000000000000000000000000008152600401620012d091906200165b565b60405180910390fd5b50505b565b6000620012fc836127106200141260201b620051bb1790919060201c565b905060005b6200131c6001846200138e60201b620051381790919060201c565b8110156200136957620013596127106200134586856200141260201b620051bb1790919060201c565b6200149d60201b620052411790919060201c565b9150808060010191505062001301565b5062001386612710826200149d60201b620052411790919060201c565b905092915050565b60008282111562001407576040517f08c379a000000000000000000000000000000000000000000000000000000000815260040180806020018281038252601e8152602001807f536166654d6174683a207375627472616374696f6e206f766572666c6f77000081525060200191505060405180910390fd5b818303905092915050565b60008083141562001427576000905062001497565b60008284029050828482816200143957fe5b041462001492576040517f08c379a00000000000000000000000000000000000000000000000000000000081526004018080602001828103825260218152602001806200773f6021913960400191505060405180910390fd5b809150505b92915050565b600080821162001515576040517f08c379a000000000000000000000000000000000000000000000000000000000815260040180806020018281038252601a8152602001807f536166654d6174683a206469766973696f6e206279207a65726f00000000000081525060200191505060405180910390fd5b8183816200151f57fe5b04905092915050565b60008151905062001539816200176a565b92915050565b600081519050620015508162001784565b92915050565b6000602082840312156200156957600080fd5b6000620015798482850162001528565b91505092915050565b6000602082840312156200159557600080fd5b6000620015a5848285016200153f565b91505092915050565b620015b981620016e5565b82525050565b6000620015cc82620016c9565b620015d88185620016d4565b9350620015ea81856020860162001723565b620015f58162001759565b840191505092915050565b6200160b8162001719565b82525050565b6000602082019050620016286000830184620015ae565b92915050565b6000604082019050620016456000830185620015ae565b620016546020830184620015ae565b9392505050565b60006020820190508181036000830152620016778184620015bf565b905092915050565b600060208201905062001696600083018462001600565b92915050565b6000604082019050620016b3600083018562001600565b620016c2602083018462001600565b9392505050565b600081519050919050565b600082825260208201905092915050565b6000620016f282620016f9565b9050919050565b600073ffffffffffffffffffffffffffffffffffffffff82169050919050565b6000819050919050565b60005b838110156200174357808201518184015260208101905062001726565b8381111562001753576000848401525b50505050565b6000601f19601f8301169050919050565b6200177581620016e5565b81146200178157600080fd5b50565b6200178f8162001719565b81146200179b57600080fd5b50565b615f9180620017ae6000396000f3fe608060405234801561001057600080fd5b50600436106102bb5760003560e01c80635f598edd11610182578063b2d0d86b116100e9578063dfd59465116100a2578063e6dee2cc1161007c578063e6dee2cc146111c5578063f67c5bd0146111e3578063f9eaee0d1461123b578063fdd5764514611295576102bb565b8063dfd5946514611091578063e1c8ef0d146110e9578063e54fe9c814611181576102bb565b8063b2d0d86b14610ec3578063b3c6194314610f1d578063b451cecc14610f69578063c12c21c014610fc1578063c7de38a614610ff5578063cf33d9551461104d576102bb565b80638456cb591161013b5780638456cb5914610cea57806390b1300a14610cf4578063a147c6c614610d4c578063a575751714610d9a578063a77e0ba814610de8578063af0a650214610e36576102bb565b80635f598edd146108c457806362061c6d1461091e57806378327438146109565780637bccacee146109ae5780637dd0ba8214610a125780637e4a686314610a56576102bb565b806347dedfc91161022657806352438e54116101df57806352438e541461070a578063570a7af21461074e5780635a29be45146107825780635c975abb146107fc5780635e5f2e261461081c5780635f27212a14610874576102bb565b806347dedfc9146105865780634cba294a146105a45780634f0e0ef3146105fc5780635094cb4f1461063057806350e036ff1461068857806351e3f160146106a6576102bb565b80632e2986dd116102785780632e2986dd1461040c5780633192195c1461045c5780633b00ae70146104b45780633bdfe4f5146105185780633f4ba83a14610572578063406318281461057c576102bb565b8063044078b3146102c057806320a05ff71461030e578063241477081461032c5780632495a599146103705780632630c12f146103a45780632954018c146103d8575b600080fd5b61030c600480360360408110156102d657600080fd5b81019080803573ffffffffffffffffffffffffffffffffffffffff16906020019092919080359060200190929190505050611303565b005b61031661134b565b6040518082815260200191505060405180910390f35b61036e6004803603602081101561034257600080fd5b81019080803573ffffffffffffffffffffffffffffffffffffffff169060200190929190505050611358565b005b610378611554565b604051808273ffffffffffffffffffffffffffffffffffffffff16815260200191505060405180910390f35b6103ac61157a565b604051808273ffffffffffffffffffffffffffffffffffffffff16815260200191505060405180910390f35b6103e06115a0565b604051808273ffffffffffffffffffffffffffffffffffffffff16815260200191505060405180910390f35b61045a6004803603604081101561042257600080fd5b81019080803573ffffffffffffffffffffffffffffffffffffffff1690602001909291908035151590602001909291905050506115c6565b005b61049e6004803603602081101561047257600080fd5b81019080803573ffffffffffffffffffffffffffffffffffffffff169060200190929190505050611810565b6040518082815260200191505060405180910390f35b610516600480360360408110156104ca57600080fd5b81019080803573ffffffffffffffffffffffffffffffffffffffff169060200190929190803573ffffffffffffffffffffffffffffffffffffffff1690602001909291905050506119d7565b005b61055a6004803603602081101561052e57600080fd5b81019080803573ffffffffffffffffffffffffffffffffffffffff169060200190929190505050611b85565b60405180821515815260200191505060405180910390f35b61057a611ba5565b005b610584611d50565b005b61058e6124de565b6040518082815260200191505060405180910390f35b6105e6600480360360208110156105ba57600080fd5b81019080803573ffffffffffffffffffffffffffffffffffffffff1690602001909291905050506124e4565b6040518082815260200191505060405180910390f35b6106046124fc565b604051808273ffffffffffffffffffffffffffffffffffffffff16815260200191505060405180910390f35b61065c6004803603602081101561064657600080fd5b8101908080359060200190929190505050612522565b604051808273ffffffffffffffffffffffffffffffffffffffff16815260200191505060405180910390f35b61069061253f565b6040518082815260200191505060405180910390f35b610708600480360360408110156106bc57600080fd5b81019080803573ffffffffffffffffffffffffffffffffffffffff169060200190929190803573ffffffffffffffffffffffffffffffffffffffff169060200190929190505050612550565b005b61074c6004803603602081101561072057600080fd5b81019080803573ffffffffffffffffffffffffffffffffffffffff169060200190929190505050612627565b005b610756612a79565b604051808273ffffffffffffffffffffffffffffffffffffffff16815260200191505060405180910390f35b6107e46004803603604081101561079857600080fd5b81019080803573ffffffffffffffffffffffffffffffffffffffff169060200190929190803573ffffffffffffffffffffffffffffffffffffffff169060200190929190505050612a9f565b60405180821515815260200191505060405180910390f35b610804612b33565b60405180821515815260200191505060405180910390f35b6108486004803603602081101561083257600080fd5b8101908080359060200190929190505050612b49565b604051808273ffffffffffffffffffffffffffffffffffffffff16815260200191505060405180910390f35b6108c26004803603604081101561088a57600080fd5b81019080803573ffffffffffffffffffffffffffffffffffffffff169060200190929190803515159060200190929190505050612b88565b005b610906600480360360208110156108da57600080fd5b81019080803573ffffffffffffffffffffffffffffffffffffffff169060200190929190505050612c85565b60405180821515815260200191505060405180910390f35b6109546004803603604081101561093457600080fd5b810190808035906020019092919080359060200190929190505050612ca5565b005b6109986004803603602081101561096c57600080fd5b81019080803573ffffffffffffffffffffffffffffffffffffffff169060200190929190505050612e99565b6040518082815260200191505060405180910390f35b610a10600480360360408110156109c457600080fd5b81019080803573ffffffffffffffffffffffffffffffffffffffff169060200190929190803573ffffffffffffffffffffffffffffffffffffffff169060200190929190505050612eb1565b005b610a5460048036036020811015610a2857600080fd5b81019080803573ffffffffffffffffffffffffffffffffffffffff169060200190929190505050613400565b005b610ce8600480360360a0811015610a6c57600080fd5b81019080803573ffffffffffffffffffffffffffffffffffffffff16906020019092919080359060200190640100000000811115610aa957600080fd5b820183602082011115610abb57600080fd5b80359060200191846020830284011164010000000083111715610add57600080fd5b919080806020026020016040519081016040528093929190818152602001838360200280828437600081840152601f19601f82011690508083019250505050505050919291929080359060200190640100000000811115610b3d57600080fd5b820183602082011115610b4f57600080fd5b80359060200191846020830284011164010000000083111715610b7157600080fd5b919080806020026020016040519081016040528093929190818152602001838360200280828437600081840152601f19601f82011690508083019250505050505050919291929080359060200190640100000000811115610bd157600080fd5b820183602082011115610be357600080fd5b80359060200191846020830284011164010000000083111715610c0557600080fd5b919080806020026020016040519081016040528093929190818152602001838360200280828437600081840152601f19601f82011690508083019250505050505050919291929080359060200190640100000000811115610c6557600080fd5b820183602082011115610c7757600080fd5b80359060200191846020830284011164010000000083111715610c9957600080fd5b919080806020026020016040519081016040528093929190818152602001838360200280828437600081840152601f19601f820116905080830192505050505050509192919290505050613484565b005b610cf2613851565b005b610d3660048036036020811015610d0a57600080fd5b81019080803573ffffffffffffffffffffffffffffffffffffffff1690602001909291905050506139fc565b6040518082815260200191505060405180910390f35b610d9860048036036040811015610d6257600080fd5b81019080803573ffffffffffffffffffffffffffffffffffffffff16906020019092919080359060200190929190505050613abb565b005b610de660048036036040811015610db057600080fd5b81019080803573ffffffffffffffffffffffffffffffffffffffff1690602001909291908035906020019092919050505061428a565b005b610e3460048036036040811015610dfe57600080fd5b81019080803573ffffffffffffffffffffffffffffffffffffffff16906020019092919080359060200190929190505050614312565b005b610e8260048036036040811015610e4c57600080fd5b81019080803573ffffffffffffffffffffffffffffffffffffffff1690602001909291908035906020019092919050505061435a565b604051808573ffffffffffffffffffffffffffffffffffffffff16815260200184815260200183815260200182815260200194505050505060405180910390f35b610f0560048036036020811015610ed957600080fd5b81019080803573ffffffffffffffffffffffffffffffffffffffff16906020019092919050505061455f565b60405180821515815260200191505060405180910390f35b610f5360048036036040811015610f3357600080fd5b81019080803590602001909291908035906020019092919050505061457f565b6040518082815260200191505060405180910390f35b610fab60048036036020811015610f7f57600080fd5b81019080803573ffffffffffffffffffffffffffffffffffffffff16906020019092919050505061460a565b6040518082815260200191505060405180910390f35b610fc9614622565b604051808273ffffffffffffffffffffffffffffffffffffffff16815260200191505060405180910390f35b6110376004803603602081101561100b57600080fd5b81019080803573ffffffffffffffffffffffffffffffffffffffff169060200190929190505050614648565b6040518082815260200191505060405180910390f35b61108f6004803603602081101561106357600080fd5b81019080803573ffffffffffffffffffffffffffffffffffffffff1690602001909291905050506146f0565b005b6110d3600480360360208110156110a757600080fd5b81019080803573ffffffffffffffffffffffffffffffffffffffff169060200190929190505050614c6e565b6040518082815260200191505060405180910390f35b61117f600480360360a08110156110ff57600080fd5b81019080803573ffffffffffffffffffffffffffffffffffffffff169060200190929190803573ffffffffffffffffffffffffffffffffffffffff169060200190929190803573ffffffffffffffffffffffffffffffffffffffff1690602001909291908035906020019092919080359060200190929190505050614cae565b005b6111c36004803603602081101561119757600080fd5b81019080803573ffffffffffffffffffffffffffffffffffffffff169060200190929190505050614f3b565b005b6111cd615091565b6040518082815260200191505060405180910390f35b611225600480360360208110156111f957600080fd5b81019080803573ffffffffffffffffffffffffffffffffffffffff169060200190929190505050615097565b6040518082815260200191505060405180910390f35b61127d6004803603602081101561125157600080fd5b81019080803573ffffffffffffffffffffffffffffffffffffffff1690602001909291905050506150af565b60405180821515815260200191505060405180910390f35b6112d7600480360360208110156112ab57600080fd5b81019080803573ffffffffffffffffffffffffffffffffffffffff169060200190929190505050615105565b604051808273ffffffffffffffffffffffffffffffffffffffff16815260200191505060405180910390f35b80600760008473ffffffffffffffffffffffffffffffffffffffff1673ffffffffffffffffffffffffffffffffffffffff168152602001908152602001600020819055505050565b6000600480549050905090565b600060019054906101000a900473ffffffffffffffffffffffffffffffffffffffff1673ffffffffffffffffffffffffffffffffffffffff16635f259aba336040518263ffffffff1660e01b8152600401808273ffffffffffffffffffffffffffffffffffffffff16815260200191505060206040518083038186803b1580156113e157600080fd5b505afa1580156113f5573d6000803e3d6000fd5b505050506040513d602081101561140b57600080fd5b81019080805190602001909291905050506040518060400160405280600481526020017f41434c3200000000000000000000000000000000000000000000000000000000815250906114f8576040517f08c379a00000000000000000000000000000000000000000000000000000000081526004018080602001828103825283818151815260200191508051906020019080838360005b838110156114bd5780820151818401526020810190506114a2565b50505050905090810190601f1680156114ea5780820380516001836020036101000a031916815260200191505b509250505060405180910390fd5b506000600360008373ffffffffffffffffffffffffffffffffffffffff1673ffffffffffffffffffffffffffffffffffffffff16815260200190815260200160002060006101000a81548160ff02191690831515021790555050565b600e60009054906101000a900473ffffffffffffffffffffffffffffffffffffffff1681565b600d60009054906101000a900473ffffffffffffffffffffffffffffffffffffffff1681565b600160009054906101000a900473ffffffffffffffffffffffffffffffffffffffff1681565b600060019054906101000a900473ffffffffffffffffffffffffffffffffffffffff1673ffffffffffffffffffffffffffffffffffffffff16635f259aba336040518263ffffffff1660e01b8152600401808273ffffffffffffffffffffffffffffffffffffffff16815260200191505060206040518083038186803b15801561164f57600080fd5b505afa158015611663573d6000803e3d6000fd5b505050506040513d602081101561167957600080fd5b81019080805190602001909291905050506040518060400160405280600481526020017f41434c320000000000000000000000000000000000000000000000000000000081525090611766576040517f08c379a00000000000000000000000000000000000000000000000000000000081526004018080602001828103825283818151815260200191508051906020019080838360005b8381101561172b578082015181840152602081019050611710565b50505050905090810190601f1680156117585780820380516001836020036101000a031916815260200191505b509250505060405180910390fd5b5080601460008473ffffffffffffffffffffffffffffffffffffffff1673ffffffffffffffffffffffffffffffffffffffff16815260200190815260200160002060006101000a81548160ff0219169083151502179055508173ffffffffffffffffffffffffffffffffffffffff167fc7d2592986c53f858769b011e8ce6298936f8609789988e9f5ad4f0a20798897826040516118049190615d8a565b60405180910390a25050565b60006119d08273ffffffffffffffffffffffffffffffffffffffff166317d11a156040518163ffffffff1660e01b815260040160206040518083038186803b15801561185b57600080fd5b505afa15801561186f573d6000803e3d6000fd5b505050506040513d601f19601f820116820180604052508101906118939190615cb7565b6119c2600f60009054906101000a900473ffffffffffffffffffffffffffffffffffffffff1673ffffffffffffffffffffffffffffffffffffffff16630fce70fb6040518163ffffffff1660e01b815260040160206040518083038186803b1580156118fe57600080fd5b505afa158015611912573d6000803e3d6000fd5b505050506040513d601f19601f820116820180604052508101906119369190615cb7565b8573ffffffffffffffffffffffffffffffffffffffff16631afbb7a46040518163ffffffff1660e01b815260040160206040518083038186803b15801561197c57600080fd5b505afa158015611990573d6000803e3d6000fd5b505050506040513d601f19601f820116820180604052508101906119b49190615cb7565b6151bb90919063ffffffff16565b61524190919063ffffffff16565b9050919050565b601460008373ffffffffffffffffffffffffffffffffffffffff1673ffffffffffffffffffffffffffffffffffffffff16815260200190815260200160002060009054906101000a900460ff161580611a795750601460008273ffffffffffffffffffffffffffffffffffffffff1673ffffffffffffffffffffffffffffffffffffffff16815260200190815260200160002060009054906101000a900460ff165b15611b8157601360008373ffffffffffffffffffffffffffffffffffffffff1673ffffffffffffffffffffffffffffffffffffffff16815260200190815260200160002060008273ffffffffffffffffffffffffffffffffffffffff1673ffffffffffffffffffffffffffffffffffffffff16815260200190815260200160002060009054906101000a900460ff166040518060400160405280600381526020017f434646000000000000000000000000000000000000000000000000000000000081525090611b7f576040517f08c379a0000000000000000000000000000000000000000000000000000000008152600401611b769190615da5565b60405180910390fd5b505b5050565b600b6020528060005260406000206000915054906101000a900460ff1681565b600060019054906101000a900473ffffffffffffffffffffffffffffffffffffffff1673ffffffffffffffffffffffffffffffffffffffff1663d4eb5db0336040518263ffffffff1660e01b8152600401808273ffffffffffffffffffffffffffffffffffffffff16815260200191505060206040518083038186803b158015611c2e57600080fd5b505afa158015611c42573d6000803e3d6000fd5b505050506040513d6020811015611c5857600080fd5b81019080805190602001909291905050506040518060400160405280600481526020017f41434c310000000000000000000000000000000000000000000000000000000081525090611d45576040517f08c379a00000000000000000000000000000000000000000000000000000000081526004018080602001828103825283818151815260200191508051906020019080838360005b83811015611d0a578082015181840152602081019050611cef565b50505050905090810190601f168015611d375780820380516001836020036101000a031916815260200191505b509250505060405180910390fd5b50611d4e6152ca565b565b600260009054906101000a900473ffffffffffffffffffffffffffffffffffffffff1673ffffffffffffffffffffffffffffffffffffffff163373ffffffffffffffffffffffffffffffffffffffff16146040518060400160405280600381526020017f434633000000000000000000000000000000000000000000000000000000000081525090611e18576040517f08c379a0000000000000000000000000000000000000000000000000000000008152600401611e0f9190615da5565b60405180910390fd5b50612710600260009054906101000a900473ffffffffffffffffffffffffffffffffffffffff1673ffffffffffffffffffffffffffffffffffffffff16635e0b63d36040518163ffffffff1660e01b815260040160206040518083038186803b158015611e8457600080fd5b505afa158015611e98573d6000803e3d6000fd5b505050506040513d601f19601f82011682018060405250810190611ebc9190615cb7565b108015611f695750612710600260009054906101000a900473ffffffffffffffffffffffffffffffffffffffff1673ffffffffffffffffffffffffffffffffffffffff16633915ffaa6040518163ffffffff1660e01b815260040160206040518083038186803b158015611f2f57600080fd5b505afa158015611f43573d6000803e3d6000fd5b505050506040513d601f19601f82011682018060405250810190611f679190615cb7565b105b80156120155750612710600260009054906101000a900473ffffffffffffffffffffffffffffffffffffffff1673ffffffffffffffffffffffffffffffffffffffff16638053fcbe6040518163ffffffff1660e01b815260040160206040518083038186803b158015611fdb57600080fd5b505afa158015611fef573d6000803e3d6000fd5b505050506040513d601f19601f820116820180604052508101906120139190615cb7565b105b6040518060400160405280600381526020017f434d3800000000000000000000000000000000000000000000000000000000008152509061208c576040517f08c379a00000000000000000000000000000000000000000000000000000000081526004016120839190615da5565b60405180910390fd5b50612710600260009054906101000a900473ffffffffffffffffffffffffffffffffffffffff1673ffffffffffffffffffffffffffffffffffffffff1663e1b4264c6040518163ffffffff1660e01b815260040160206040518083038186803b1580156120f857600080fd5b505afa15801561210c573d6000803e3d6000fd5b505050506040513d601f19601f820116820180604052508101906121309190615cb7565b116040518060400160405280600381526020017f434d390000000000000000000000000000000000000000000000000000000000815250906121a8576040517f08c379a000000000000000000000000000000000000000000000000000000000815260040161219f9190615da5565b60405180910390fd5b506122fa600260009054906101000a900473ffffffffffffffffffffffffffffffffffffffff1673ffffffffffffffffffffffffffffffffffffffff16633915ffaa6040518163ffffffff1660e01b815260040160206040518083038186803b15801561221457600080fd5b505afa158015612228573d6000803e3d6000fd5b505050506040513d601f19601f8201168201806040525081019061224c9190615cb7565b600260009054906101000a900473ffffffffffffffffffffffffffffffffffffffff1673ffffffffffffffffffffffffffffffffffffffff16638053fcbe6040518163ffffffff1660e01b815260040160206040518083038186803b1580156122b457600080fd5b505afa1580156122c8573d6000803e3d6000fd5b505050506040513d601f19601f820116820180604052508101906122ec9190615cb7565b61513890919063ffffffff16565b60056000600e60009054906101000a900473ffffffffffffffffffffffffffffffffffffffff1673ffffffffffffffffffffffffffffffffffffffff1673ffffffffffffffffffffffffffffffffffffffff168152602001908152602001600020819055506000600190505b6004805490508110156124d35760056000600e60009054906101000a900473ffffffffffffffffffffffffffffffffffffffff1673ffffffffffffffffffffffffffffffffffffffff1673ffffffffffffffffffffffffffffffffffffffff1681526020019081526020016000205460056000600484815481106123e657fe5b9060005260206000200160009054906101000a900473ffffffffffffffffffffffffffffffffffffffff1673ffffffffffffffffffffffffffffffffffffffff1673ffffffffffffffffffffffffffffffffffffffff1681526020019081526020016000205411156040518060400160405280600381526020017f4346430000000000000000000000000000000000000000000000000000000000815250906124c5576040517f08c379a00000000000000000000000000000000000000000000000000000000081526004016124bc9190615da5565b60405180910390fd5b508080600101915050612366565b506124dc6153b4565b565b60115481565b60086020528060005260406000206000915090505481565b601060009054906101000a900473ffffffffffffffffffffffffffffffffffffffff1681565b600061253882600961554e90919063ffffffff16565b9050919050565b600061254b6009615568565b905090565b600260009054906101000a900473ffffffffffffffffffffffffffffffffffffffff1673ffffffffffffffffffffffffffffffffffffffff163373ffffffffffffffffffffffffffffffffffffffff16146040518060400160405280600381526020017f434633000000000000000000000000000000000000000000000000000000000081525090612618576040517f08c379a000000000000000000000000000000000000000000000000000000000815260040161260f9190615da5565b60405180910390fd5b50612623828261557d565b5050565b600060019054906101000a900473ffffffffffffffffffffffffffffffffffffffff1673ffffffffffffffffffffffffffffffffffffffff16635f259aba336040518263ffffffff1660e01b8152600401808273ffffffffffffffffffffffffffffffffffffffff16815260200191505060206040518083038186803b1580156126b057600080fd5b505afa1580156126c4573d6000803e3d6000fd5b505050506040513d60208110156126da57600080fd5b81019080805190602001909291905050506040518060400160405280600481526020017f41434c3200000000000000000000000000000000000000000000000000000000815250906127c7576040517f08c379a00000000000000000000000000000000000000000000000000000000081526004018080602001828103825283818151815260200191508051906020019080838360005b8381101561278c578082015181840152602081019050612771565b50505050905090810190601f1680156127b95780820380516001836020036101000a031916815260200191505b509250505060405180910390fd5b50600073ffffffffffffffffffffffffffffffffffffffff168173ffffffffffffffffffffffffffffffffffffffff1614156040518060400160405280600281526020017f5a3000000000000000000000000000000000000000000000000000000000000081525090612870576040517f08c379a00000000000000000000000000000000000000000000000000000000081526004016128679190615da5565b60405180910390fd5b506128858160096156d890919063ffffffff16565b6040518060400160405280600381526020017f4346410000000000000000000000000000000000000000000000000000000000815250906128fc576040517f08c379a00000000000000000000000000000000000000000000000000000000081526004016128f39190615da5565b60405180910390fd5b506000600b6000600c60008573ffffffffffffffffffffffffffffffffffffffff1673ffffffffffffffffffffffffffffffffffffffff16815260200190815260200160002060009054906101000a900473ffffffffffffffffffffffffffffffffffffffff1673ffffffffffffffffffffffffffffffffffffffff1673ffffffffffffffffffffffffffffffffffffffff16815260200190815260200160002060006101000a81548160ff0219169083151502179055506000600c60008373ffffffffffffffffffffffffffffffffffffffff1673ffffffffffffffffffffffffffffffffffffffff16815260200190815260200160002060006101000a81548173ffffffffffffffffffffffffffffffffffffffff021916908373ffffffffffffffffffffffffffffffffffffffff1602179055508073ffffffffffffffffffffffffffffffffffffffff167fab9f405bf0c19b97f65a7031634db41569cd2f0e0376a610a1e977f9ab22b58f60405160405180910390a250565b600f60009054906101000a900473ffffffffffffffffffffffffffffffffffffffff1681565b6000601360008473ffffffffffffffffffffffffffffffffffffffff1673ffffffffffffffffffffffffffffffffffffffff16815260200190815260200160002060008373ffffffffffffffffffffffffffffffffffffffff1673ffffffffffffffffffffffffffffffffffffffff16815260200190815260200160002060009054906101000a900460ff16905092915050565b60008060009054906101000a900460ff16905090565b60048181548110612b5957600080fd5b906000526020600020016000915054906101000a900473ffffffffffffffffffffffffffffffffffffffff1681565b80601360008473ffffffffffffffffffffffffffffffffffffffff1673ffffffffffffffffffffffffffffffffffffffff16815260200190815260200160002060003373ffffffffffffffffffffffffffffffffffffffff1673ffffffffffffffffffffffffffffffffffffffff16815260200190815260200160002060006101000a81548160ff0219169083151502179055503373ffffffffffffffffffffffffffffffffffffffff168273ffffffffffffffffffffffffffffffffffffffff167f9b3258bc4904fd6426b99843e206c6c7cdb1fd0f040121c25b71dafbb3851ee083604051612c799190615d8a565b60405180910390a35050565b60146020528060005260406000206000915054906101000a900460ff1681565b600060019054906101000a900473ffffffffffffffffffffffffffffffffffffffff1673ffffffffffffffffffffffffffffffffffffffff16635f259aba336040518263ffffffff1660e01b8152600401808273ffffffffffffffffffffffffffffffffffffffff16815260200191505060206040518083038186803b158015612d2e57600080fd5b505afa158015612d42573d6000803e3d6000fd5b505050506040513d6020811015612d5857600080fd5b81019080805190602001909291905050506040518060400160405280600481526020017f41434c320000000000000000000000000000000000000000000000000000000081525090612e45576040517f08c379a00000000000000000000000000000000000000000000000000000000081526004018080602001828103825283818151815260200191508051906020019080838360005b83811015612e0a578082015181840152602081019050612def565b50505050905090810190601f168015612e375780820380516001836020036101000a031916815260200191505b509250505060405180910390fd5b508160118190555080601281905550612e5c6153b4565b7f727652fff0946c19c233fd3eab5fc03db9e9fdd907e902d9136c2a9cac47101c8282604051612e8d929190615e19565b60405180910390a15050565b60056020528060005260406000206000915090505481565b600060019054906101000a900473ffffffffffffffffffffffffffffffffffffffff1673ffffffffffffffffffffffffffffffffffffffff16635f259aba336040518263ffffffff1660e01b8152600401808273ffffffffffffffffffffffffffffffffffffffff16815260200191505060206040518083038186803b158015612f3a57600080fd5b505afa158015612f4e573d6000803e3d6000fd5b505050506040513d6020811015612f6457600080fd5b81019080805190602001909291905050506040518060400160405280600481526020017f41434c320000000000000000000000000000000000000000000000000000000081525090613051576040517f08c379a00000000000000000000000000000000000000000000000000000000081526004018080602001828103825283818151815260200191508051906020019080838360005b83811015613016578082015181840152602081019050612ffb565b50505050905090810190601f1680156130435780820380516001836020036101000a031916815260200191505b509250505060405180910390fd5b50600073ffffffffffffffffffffffffffffffffffffffff168273ffffffffffffffffffffffffffffffffffffffff16141580156130bc5750600073ffffffffffffffffffffffffffffffffffffffff168173ffffffffffffffffffffffffffffffffffffffff1614155b6040518060400160405280600281526020017f5a3000000000000000000000000000000000000000000000000000000000000081525090613133576040517f08c379a000000000000000000000000000000000000000000000000000000000815260040161312a9190615da5565b60405180910390fd5b5060001515600b60008373ffffffffffffffffffffffffffffffffffffffff1673ffffffffffffffffffffffffffffffffffffffff16815260200190815260200160002060009054906101000a900460ff161515146040518060400160405280600381526020017f4346440000000000000000000000000000000000000000000000000000000000815250906131ff576040517f08c379a00000000000000000000000000000000000000000000000000000000081526004016131f69190615da5565b60405180910390fd5b506000600b6000600c60008673ffffffffffffffffffffffffffffffffffffffff1673ffffffffffffffffffffffffffffffffffffffff16815260200190815260200160002060009054906101000a900473ffffffffffffffffffffffffffffffffffffffff1673ffffffffffffffffffffffffffffffffffffffff1673ffffffffffffffffffffffffffffffffffffffff16815260200190815260200160002060006101000a81548160ff0219169083151502179055506001600b60008373ffffffffffffffffffffffffffffffffffffffff1673ffffffffffffffffffffffffffffffffffffffff16815260200190815260200160002060006101000a81548160ff02191690831515021790555061332382600961570890919063ffffffff16565b5080600c60008473ffffffffffffffffffffffffffffffffffffffff1673ffffffffffffffffffffffffffffffffffffffff16815260200190815260200160002060006101000a81548173ffffffffffffffffffffffffffffffffffffffff021916908373ffffffffffffffffffffffffffffffffffffffff1602179055508073ffffffffffffffffffffffffffffffffffffffff168273ffffffffffffffffffffffffffffffffffffffff167f4bcbefaef68b99503d502f5a6abe7bca2b183ab8ac55457013c77d084ebd130560405160405180910390a35050565b613409816150af565b6040518060400160405280600381526020017f434632000000000000000000000000000000000000000000000000000000000081525090613480576040517f08c379a00000000000000000000000000000000000000000000000000000000081526004016134779190615da5565b60405180910390fd5b5050565b600b60003373ffffffffffffffffffffffffffffffffffffffff1673ffffffffffffffffffffffffffffffffffffffff16815260200190815260200160002060009054906101000a900460ff166040518060400160405280600381526020017f434634000000000000000000000000000000000000000000000000000000000081525090613548576040517f08c379a000000000000000000000000000000000000000000000000000000000815260040161353f9190615da5565b60405180910390fd5b506000808351865114801561355e575082518551145b6040518060400160405280600281526020017f4352000000000000000000000000000000000000000000000000000000000000815250906135d5576040517f08c379a00000000000000000000000000000000000000000000000000000000081526004016135cc9190615da5565b60405180910390fd5b5060005b86518110156136fa576136eb600d60009054906101000a900473ffffffffffffffffffffffffffffffffffffffff1673ffffffffffffffffffffffffffffffffffffffff1663b66102df89848151811061362f57fe5b602002602001015188858151811061364357fe5b6020026020010151601060009054906101000a900473ffffffffffffffffffffffffffffffffffffffff166040518463ffffffff1660e01b815260040161368c93929190615de2565b60206040518083038186803b1580156136a457600080fd5b505afa1580156136b8573d6000803e3d6000fd5b505050506040513d601f19601f820116820180604052508101906136dc9190615cb7565b8461573890919063ffffffff16565b925080806001019150506135d9565b5060005b855181101561383c576137248885838151811061371757fe5b602002602001015161557d565b61382d600d60009054906101000a900473ffffffffffffffffffffffffffffffffffffffff1673ffffffffffffffffffffffffffffffffffffffff1663b66102df88848151811061377157fe5b602002602001015187858151811061378557fe5b6020026020010151601060009054906101000a900473ffffffffffffffffffffffffffffffffffffffff166040518463ffffffff1660e01b81526004016137ce93929190615de2565b60206040518083038186803b1580156137e657600080fd5b505afa1580156137fa573d6000803e3d6000fd5b505050506040513d601f19601f8201168201806040525081019061381e9190615cb7565b8361573890919063ffffffff16565b915080806001019150506136fe565b506138488783836157c0565b50505050505050565b600060019054906101000a900473ffffffffffffffffffffffffffffffffffffffff1673ffffffffffffffffffffffffffffffffffffffff16633a41ec64336040518263ffffffff1660e01b8152600401808273ffffffffffffffffffffffffffffffffffffffff16815260200191505060206040518083038186803b1580156138da57600080fd5b505afa1580156138ee573d6000803e3d6000fd5b505050506040513d602081101561390457600080fd5b81019080805190602001909291905050506040518060400160405280600481526020017f41434c3100000000000000000000000000000000000000000000000000000000815250906139f1576040517f08c379a00000000000000000000000000000000000000000000000000000000081526004018080602001828103825283818151815260200191508051906020019080838360005b838110156139b657808201518184015260208101905061399b565b50505050905090810190601f1680156139e35780820380516001836020036101000a031916815260200191505b509250505060405180910390fd5b506139fa615962565b565b6000806000600760008573ffffffffffffffffffffffffffffffffffffffff1673ffffffffffffffffffffffffffffffffffffffff16815260200190815260200160002054905060005b613a4e61134b565b811015613a9c57806001901b925060008383161115613a8f576000613a73868361435a565b9350505050613a8b818661573890919063ffffffff16565b9450505b8080600101915050613a46565b50613ab26127108461524190919063ffffffff16565b92505050919050565b600060019054906101000a900473ffffffffffffffffffffffffffffffffffffffff1673ffffffffffffffffffffffffffffffffffffffff16635f259aba336040518263ffffffff1660e01b8152600401808273ffffffffffffffffffffffffffffffffffffffff16815260200191505060206040518083038186803b158015613b4457600080fd5b505afa158015613b58573d6000803e3d6000fd5b505050506040513d6020811015613b6e57600080fd5b81019080805190602001909291905050506040518060400160405280600481526020017f41434c320000000000000000000000000000000000000000000000000000000081525090613c5b576040517f08c379a00000000000000000000000000000000000000000000000000000000081526004018080602001828103825283818151815260200191508051906020019080838360005b83811015613c20578082015181840152602081019050613c05565b50505050905090810190601f168015613c4d5780820380516001836020036101000a031916815260200191505b509250505060405180910390fd5b50600073ffffffffffffffffffffffffffffffffffffffff168273ffffffffffffffffffffffffffffffffffffffff1614156040518060400160405280600281526020017f5a3000000000000000000000000000000000000000000000000000000000000081525090613d04576040517f08c379a0000000000000000000000000000000000000000000000000000000008152600401613cfb9190615da5565b60405180910390fd5b50600081118015613d76575060056000600e60009054906101000a900473ffffffffffffffffffffffffffffffffffffffff1673ffffffffffffffffffffffffffffffffffffffff1673ffffffffffffffffffffffffffffffffffffffff168152602001908152602001600020548111155b6040518060400160405280600381526020017f434631000000000000000000000000000000000000000000000000000000000081525090613ded576040517f08c379a0000000000000000000000000000000000000000000000000000000008152600401613de49190615da5565b60405180910390fd5b506000600660008473ffffffffffffffffffffffffffffffffffffffff1673ffffffffffffffffffffffffffffffffffffffff168152602001908152602001600020541180613e425750610100600480549050105b6040518060400160405280600381526020017f434636000000000000000000000000000000000000000000000000000000000081525090613eb9576040517f08c379a0000000000000000000000000000000000000000000000000000000008152600401613eb09190615da5565b60405180910390fd5b5060008273ffffffffffffffffffffffffffffffffffffffff166370a08231306040518263ffffffff1660e01b8152600401613ef59190615d46565b60206040518083038186803b158015613f0d57600080fd5b505afa158015613f21573d6000803e3d6000fd5b505050506040513d601f19601f82011682018060405250810190613f459190615cb7565b1015613f5057600080fd5b6000600d60009054906101000a900473ffffffffffffffffffffffffffffffffffffffff1673ffffffffffffffffffffffffffffffffffffffff1663743b908684600e60009054906101000a900473ffffffffffffffffffffffffffffffffffffffff166040518363ffffffff1660e01b8152600401613fd1929190615d61565b60206040518083038186803b158015613fe957600080fd5b505afa158015613ffd573d6000803e3d6000fd5b505050506040513d601f19601f820116820180604052508101906140219190615cb7565b116040518060400160405280600381526020017f434645000000000000000000000000000000000000000000000000000000000081525090614099576040517f08c379a00000000000000000000000000000000000000000000000000000000081526004016140909190615da5565b60405180910390fd5b50600360008373ffffffffffffffffffffffffffffffffffffffff1673ffffffffffffffffffffffffffffffffffffffff16815260200190815260200160002060009054906101000a900460ff166141f4576001600360008473ffffffffffffffffffffffffffffffffffffffff1673ffffffffffffffffffffffffffffffffffffffff16815260200190815260200160002060006101000a81548160ff0219169083151502179055506004805490506001901b600660008473ffffffffffffffffffffffffffffffffffffffff1673ffffffffffffffffffffffffffffffffffffffff168152602001908152602001600020819055506004829080600181540180825580915050600190039060005260206000200160009091909190916101000a81548173ffffffffffffffffffffffffffffffffffffffff021916908373ffffffffffffffffffffffffffffffffffffffff1602179055505b80600560008473ffffffffffffffffffffffffffffffffffffffff1673ffffffffffffffffffffffffffffffffffffffff168152602001908152602001600020819055508173ffffffffffffffffffffffffffffffffffffffff167fa52fb6bfa514a4ddcb31de40a5f6c20d767db1f921a8b7747973d93dc5da7a028260405161427e9190615dc7565b60405180910390a25050565b8061429483614c6e565b10156040518060400160405280600381526020017f434d3500000000000000000000000000000000000000000000000000000000008152509061430d576040517f08c379a00000000000000000000000000000000000000000000000000000000081526004016143049190615da5565b60405180910390fd5b505050565b80600860008473ffffffffffffffffffffffffffffffffffffffff1673ffffffffffffffffffffffffffffffffffffffff168152602001908152602001600020819055505050565b6000806000806004858154811061436d57fe5b9060005260206000200160009054906101000a900473ffffffffffffffffffffffffffffffffffffffff1693508373ffffffffffffffffffffffffffffffffffffffff166370a08231876040518263ffffffff1660e01b81526004016143d39190615d46565b60206040518083038186803b1580156143eb57600080fd5b505afa1580156143ff573d6000803e3d6000fd5b505050506040513d601f19601f820116820180604052508101906144239190615cb7565b9250600183111561455657600d60009054906101000a900473ffffffffffffffffffffffffffffffffffffffff1673ffffffffffffffffffffffffffffffffffffffff1663b66102df8486600e60009054906101000a900473ffffffffffffffffffffffffffffffffffffffff166040518463ffffffff1660e01b81526004016144af93929190615de2565b60206040518083038186803b1580156144c757600080fd5b505afa1580156144db573d6000803e3d6000fd5b505050506040513d601f19601f820116820180604052508101906144ff9190615cb7565b9150614553600560008673ffffffffffffffffffffffffffffffffffffffff1673ffffffffffffffffffffffffffffffffffffffff16815260200190815260200160002054836151bb90919063ffffffff16565b90505b92959194509250565b60036020528060005260406000206000915054906101000a900460ff1681565b6000614596836127106151bb90919063ffffffff16565b905060005b6145af60018461513890919063ffffffff16565b8110156145ec576145dd6127106145cf86856151bb90919063ffffffff16565b61524190919063ffffffff16565b9150808060010191505061459b565b506146026127108261524190919063ffffffff16565b905092915050565b60076020528060005260406000206000915090505481565b600260009054906101000a900473ffffffffffffffffffffffffffffffffffffffff1681565b6000806000600760008573ffffffffffffffffffffffffffffffffffffffff1673ffffffffffffffffffffffffffffffffffffffff16815260200190815260200160002054905060005b61469a61134b565b8110156146e857806001901b9250600083831611156146db5760006146bf868361435a565b50925050506146d7818661573890919063ffffffff16565b9450505b8080600101915050614692565b505050919050565b600060019054906101000a900473ffffffffffffffffffffffffffffffffffffffff1673ffffffffffffffffffffffffffffffffffffffff16635f259aba336040518263ffffffff1660e01b8152600401808273ffffffffffffffffffffffffffffffffffffffff16815260200191505060206040518083038186803b15801561477957600080fd5b505afa15801561478d573d6000803e3d6000fd5b505050506040513d60208110156147a357600080fd5b81019080805190602001909291905050506040518060400160405280600481526020017f41434c320000000000000000000000000000000000000000000000000000000081525090614890576040517f08c379a00000000000000000000000000000000000000000000000000000000081526004018080602001828103825283818151815260200191508051906020019080838360005b8381101561485557808201518184015260208101905061483a565b50505050905090810190601f1680156148825780820380516001836020036101000a031916815260200191505b509250505060405180910390fd5b50600073ffffffffffffffffffffffffffffffffffffffff168173ffffffffffffffffffffffffffffffffffffffff1614156040518060400160405280600281526020017f5a3000000000000000000000000000000000000000000000000000000000000081525090614939576040517f08c379a00000000000000000000000000000000000000000000000000000000081526004016149309190615da5565b60405180910390fd5b50600073ffffffffffffffffffffffffffffffffffffffff16600260009054906101000a900473ffffffffffffffffffffffffffffffffffffffff1673ffffffffffffffffffffffffffffffffffffffff16146040518060400160405280600381526020017f434647000000000000000000000000000000000000000000000000000000000081525090614a03576040517f08c379a00000000000000000000000000000000000000000000000000000000081526004016149fa9190615da5565b60405180910390fd5b5080600260006101000a81548173ffffffffffffffffffffffffffffffffffffffff021916908373ffffffffffffffffffffffffffffffffffffffff1602179055508073ffffffffffffffffffffffffffffffffffffffff1663570a7af26040518163ffffffff1660e01b815260040160206040518083038186803b158015614a8b57600080fd5b505afa158015614a9f573d6000803e3d6000fd5b505050506040513d601f19601f82011682018060405250810190614ac39190615c8e565b600f60006101000a81548173ffffffffffffffffffffffffffffffffffffffff021916908373ffffffffffffffffffffffffffffffffffffffff160217905550600e60009054906101000a900473ffffffffffffffffffffffffffffffffffffffff1673ffffffffffffffffffffffffffffffffffffffff16600f60009054906101000a900473ffffffffffffffffffffffffffffffffffffffff1673ffffffffffffffffffffffffffffffffffffffff16632495a5996040518163ffffffff1660e01b815260040160206040518083038186803b158015614ba457600080fd5b505afa158015614bb8573d6000803e3d6000fd5b505050506040513d601f19601f82011682018060405250810190614bdc9190615c8e565b73ffffffffffffffffffffffffffffffffffffffff16146040518060400160405280600381526020017f434630000000000000000000000000000000000000000000000000000000000081525090614c6a576040517f08c379a0000000000000000000000000000000000000000000000000000000008152600401614c619190615da5565b60405180910390fd5b5050565b6000614ca7614c7c83611810565b614c99612710614c8b866139fc565b6151bb90919063ffffffff16565b61524190919063ffffffff16565b9050919050565b600b60003373ffffffffffffffffffffffffffffffffffffffff1673ffffffffffffffffffffffffffffffffffffffff16815260200190815260200160002060009054906101000a900460ff166040518060400160405280600381526020017f434634000000000000000000000000000000000000000000000000000000000081525090614d72576040517f08c379a0000000000000000000000000000000000000000000000000000000008152600401614d699190615da5565b60405180910390fd5b50614d7d858461557d565b6000600d60009054906101000a900473ffffffffffffffffffffffffffffffffffffffff1673ffffffffffffffffffffffffffffffffffffffff1663b66102df8487601060009054906101000a900473ffffffffffffffffffffffffffffffffffffffff166040518463ffffffff1660e01b8152600401614e0093929190615de2565b60206040518083038186803b158015614e1857600080fd5b505afa158015614e2c573d6000803e3d6000fd5b505050506040513d601f19601f82011682018060405250810190614e509190615cb7565b90506000600d60009054906101000a900473ffffffffffffffffffffffffffffffffffffffff1673ffffffffffffffffffffffffffffffffffffffff1663b66102df8487601060009054906101000a900473ffffffffffffffffffffffffffffffffffffffff166040518463ffffffff1660e01b8152600401614ed593929190615de2565b60206040518083038186803b158015614eed57600080fd5b505afa158015614f01573d6000803e3d6000fd5b505050506040513d601f19601f82011682018060405250810190614f259190615cb7565b9050614f328783836157c0565b50505050505050565b600260009054906101000a900473ffffffffffffffffffffffffffffffffffffffff1673ffffffffffffffffffffffffffffffffffffffff163373ffffffffffffffffffffffffffffffffffffffff16146040518060400160405280600381526020017f434633000000000000000000000000000000000000000000000000000000000081525090615003576040517f08c379a0000000000000000000000000000000000000000000000000000000008152600401614ffa9190615da5565b60405180910390fd5b506001600760008373ffffffffffffffffffffffffffffffffffffffff1673ffffffffffffffffffffffffffffffffffffffff168152602001908152602001600020819055506001600860008373ffffffffffffffffffffffffffffffffffffffff1673ffffffffffffffffffffffffffffffffffffffff1681526020019081526020016000208190555050565b60125481565b60066020528060005260406000206000915090505481565b6000600360008373ffffffffffffffffffffffffffffffffffffffff1673ffffffffffffffffffffffffffffffffffffffff16815260200190815260200160002060009054906101000a900460ff169050919050565b600c6020528060005260406000206000915054906101000a900473ffffffffffffffffffffffffffffffffffffffff1681565b6000828211156151b0576040517f08c379a000000000000000000000000000000000000000000000000000000000815260040180806020018281038252601e8152602001807f536166654d6174683a207375627472616374696f6e206f766572666c6f77000081525060200191505060405180910390fd5b818303905092915050565b6000808314156151ce576000905061523b565b60008284029050828482816151df57fe5b0414615236576040517f08c379a0000000000000000000000000000000000000000000000000000000008152600401808060200182810382526021815260200180615f3b6021913960400191505060405180910390fd5b809150505b92915050565b60008082116152b8576040517f08c379a000000000000000000000000000000000000000000000000000000000815260040180806020018281038252601a8152602001807f536166654d6174683a206469766973696f6e206279207a65726f00000000000081525060200191505060405180910390fd5b8183816152c157fe5b04905092915050565b6152d2612b33565b615344576040517f08c379a00000000000000000000000000000000000000000000000000000000081526004018080602001828103825260148152602001807f5061757361626c653a206e6f742070617573656400000000000000000000000081525060200191505060405180910390fd5b60008060006101000a81548160ff0219169083151502179055507f5db9ee0a495bf2e6ff9c91a7834c1ba4fdd244a5e8aa4e537bd38aeae4b073aa615387615a4d565b604051808273ffffffffffffffffffffffffffffffffffffffff16815260200191505060405180910390a1565b600073ffffffffffffffffffffffffffffffffffffffff16600260009054906101000a900473ffffffffffffffffffffffffffffffffffffffff1673ffffffffffffffffffffffffffffffffffffffff161461554c57600061542e61541d60115460125461457f565b61271061513890919063ffffffff16565b9050600260009054906101000a900473ffffffffffffffffffffffffffffffffffffffff1673ffffffffffffffffffffffffffffffffffffffff16633915ffaa6040518163ffffffff1660e01b815260040160206040518083038186803b15801561549857600080fd5b505afa1580156154ac573d6000803e3d6000fd5b505050506040513d601f19601f820116820180604052508101906154d09190615cb7565b81106040518060400160405280600381526020017f434642000000000000000000000000000000000000000000000000000000000081525090615549576040517f08c379a00000000000000000000000000000000000000000000000000000000081526004016155409190615da5565b60405180910390fd5b50505b565b600061555d8360000183615a55565b60001c905092915050565b600061557682600001615ad8565b9050919050565b61558681613400565b6000600660008373ffffffffffffffffffffffffffffffffffffffff1673ffffffffffffffffffffffffffffffffffffffff16815260200190815260200160002054600760008573ffffffffffffffffffffffffffffffffffffffff1673ffffffffffffffffffffffffffffffffffffffff168152602001908152602001600020541614156156d457600660008273ffffffffffffffffffffffffffffffffffffffff1673ffffffffffffffffffffffffffffffffffffffff16815260200190815260200160002054600760008473ffffffffffffffffffffffffffffffffffffffff1673ffffffffffffffffffffffffffffffffffffffff1681526020019081526020016000205417600760008473ffffffffffffffffffffffffffffffffffffffff1673ffffffffffffffffffffffffffffffffffffffff168152602001908152602001600020819055505b5050565b6000615700836000018373ffffffffffffffffffffffffffffffffffffffff1660001b615ae9565b905092915050565b6000615730836000018373ffffffffffffffffffffffffffffffffffffffff1660001b615bd1565b905092915050565b6000808284019050838110156157b6576040517f08c379a000000000000000000000000000000000000000000000000000000000815260040180806020018281038252601b8152602001807f536166654d6174683a206164646974696f6e206f766572666c6f77000000000081525060200191505060405180910390fd5b8091505092915050565b6157d5601154836151bb90919063ffffffff16565b6157ea612710836151bb90919063ffffffff16565b1180156158385750601254600860008573ffffffffffffffffffffffffffffffffffffffff1673ffffffffffffffffffffffffffffffffffffffff1681526020019081526020016000205411155b1561589157600860008473ffffffffffffffffffffffffffffffffffffffff1673ffffffffffffffffffffffffffffffffffffffff1681526020019081526020016000206000815480929190600101919050555061595d565b61271061589d84614c6e565b10156040518060400160405280600381526020017f434635000000000000000000000000000000000000000000000000000000000081525090615916576040517f08c379a000000000000000000000000000000000000000000000000000000000815260040161590d9190615da5565b60405180910390fd5b506001600860008573ffffffffffffffffffffffffffffffffffffffff1673ffffffffffffffffffffffffffffffffffffffff168152602001908152602001600020819055505b505050565b61596a612b33565b156159dd576040517f08c379a00000000000000000000000000000000000000000000000000000000081526004018080602001828103825260108152602001807f5061757361626c653a207061757365640000000000000000000000000000000081525060200191505060405180910390fd5b60016000806101000a81548160ff0219169083151502179055507f62e78cea01bee320cd4e420270b5ea74000d11b0c9f74754ebdbfc544b05a258615a20615a4d565b604051808273ffffffffffffffffffffffffffffffffffffffff16815260200191505060405180910390a1565b600033905090565b600081836000018054905011615ab6576040517f08c379a0000000000000000000000000000000000000000000000000000000008152600401808060200182810382526022815260200180615f196022913960400191505060405180910390fd5b826000018281548110615ac557fe5b9060005260206000200154905092915050565b600081600001805490509050919050565b60008083600101600084815260200190815260200160002054905060008114615bc55760006001820390506000600186600001805490500390506000866000018281548110615b3457fe5b9060005260206000200154905080876000018481548110615b5157fe5b9060005260206000200181905550600183018760010160008381526020019081526020016000208190555086600001805480615b8957fe5b60019003818190600052602060002001600090559055866001016000878152602001908152602001600020600090556001945050505050615bcb565b60009150505b92915050565b6000615bdd8383615c41565b615c36578260000182908060018154018082558091505060019003906000526020600020016000909190919091505582600001805490508360010160008481526020019081526020016000208190555060019050615c3b565b600090505b92915050565b600080836001016000848152602001908152602001600020541415905092915050565b600081519050615c7381615eea565b92915050565b600081519050615c8881615f01565b92915050565b600060208284031215615ca057600080fd5b6000615cae84828501615c64565b91505092915050565b600060208284031215615cc957600080fd5b6000615cd784828501615c79565b91505092915050565b615ce981615e5e565b82525050565b615cf881615e70565b82525050565b6000615d0982615e42565b615d138185615e4d565b9350615d23818560208601615ea6565b615d2c81615ed9565b840191505092915050565b615d4081615e9c565b82525050565b6000602082019050615d5b6000830184615ce0565b92915050565b6000604082019050615d766000830185615ce0565b615d836020830184615ce0565b9392505050565b6000602082019050615d9f6000830184615cef565b92915050565b60006020820190508181036000830152615dbf8184615cfe565b905092915050565b6000602082019050615ddc6000830184615d37565b92915050565b6000606082019050615df76000830186615d37565b615e046020830185615ce0565b615e116040830184615ce0565b949350505050565b6000604082019050615e2e6000830185615d37565b615e3b6020830184615d37565b9392505050565b600081519050919050565b600082825260208201905092915050565b6000615e6982615e7c565b9050919050565b60008115159050919050565b600073ffffffffffffffffffffffffffffffffffffffff82169050919050565b6000819050919050565b60005b83811015615ec4578082015181840152602081019050615ea9565b83811115615ed3576000848401525b50505050565b6000601f19601f8301169050919050565b615ef381615e5e565b8114615efe57600080fd5b50565b615f0a81615e9c565b8114615f1557600080fd5b5056fe456e756d657261626c655365743a20696e646578206f7574206f6620626f756e6473536166654d6174683a206d756c7469706c69636174696f6e206f766572666c6f77a264697066735822122028de02849149658690171b9e4c9d2d050437f63feb6cb56c4623cc325292d17f64736f6c63430007060033536166654d6174683a206d756c7469706c69636174696f6e206f766572666c6f77",
  "linkReferences": {},
  "deployedLinkReferences": {}
}