{
  "_format": "hh-sol-artifact-1",
  "contractName": "CreditFilterMock",
  "sourceName": "contracts/mocks/credit/CreditFilterMock.sol",
  "abi": [
    {
      "inputs": [
        {
          "internalType": "address",
          "name": "_addressProvider",
          "type": "address"
        },
        {
          "internalType": "address",
          "name": "_underlyingToken",
          "type": "address"
        }
      ],
      "stateMutability": "nonpayable",
      "type": "constructor"
    },
    {
      "anonymous": false,
      "inputs": [
        {
          "indexed": true,
          "internalType": "address",
          "name": "protocol",
          "type": "address"
        },
        {
          "indexed": true,
          "internalType": "address",
          "name": "adapter",
          "type": "address"
        }
      ],
      "name": "ContractAllowed",
      "type": "event"
    },
    {
      "anonymous": false,
      "inputs": [
        {
          "indexed": true,
          "internalType": "address",
          "name": "protocol",
          "type": "address"
        }
      ],
      "name": "ContractForbidden",
      "type": "event"
    },
    {
      "anonymous": false,
      "inputs": [
        {
          "indexed": false,
          "internalType": "uint256",
          "name": "chiThreshold",
          "type": "uint256"
        },
        {
          "indexed": false,
          "internalType": "uint256",
          "name": "fastCheckDelay",
          "type": "uint256"
        }
      ],
      "name": "NewFastCheckParameters",
      "type": "event"
    },
    {
      "anonymous": false,
      "inputs": [
        {
          "indexed": false,
          "internalType": "address",
          "name": "account",
          "type": "address"
        }
      ],
      "name": "Paused",
      "type": "event"
    },
    {
      "anonymous": false,
      "inputs": [
        {
          "indexed": true,
          "internalType": "address",
          "name": "token",
          "type": "address"
        },
        {
          "indexed": false,
          "internalType": "uint256",
          "name": "liquidityThreshold",
          "type": "uint256"
        }
      ],
      "name": "TokenAllowed",
      "type": "event"
    },
    {
      "anonymous": false,
      "inputs": [
        {
          "indexed": true,
          "internalType": "address",
          "name": "from",
          "type": "address"
        },
        {
          "indexed": true,
          "internalType": "address",
          "name": "to",
          "type": "address"
        },
        {
          "indexed": false,
          "internalType": "bool",
          "name": "state",
          "type": "bool"
        }
      ],
      "name": "TransferAccountAllowed",
      "type": "event"
    },
    {
      "anonymous": false,
      "inputs": [
        {
          "indexed": true,
          "internalType": "address",
          "name": "pugin",
          "type": "address"
        },
        {
          "indexed": false,
          "internalType": "bool",
          "name": "state",
          "type": "bool"
        }
      ],
      "name": "TransferPluginAllowed",
      "type": "event"
    },
    {
      "anonymous": false,
      "inputs": [
        {
          "indexed": false,
          "internalType": "address",
          "name": "account",
          "type": "address"
        }
      ],
      "name": "Unpaused",
      "type": "event"
    },
    {
      "inputs": [
        {
          "internalType": "address",
          "name": "",
          "type": "address"
        }
      ],
      "name": "_allowedTokensMap",
      "outputs": [
        {
          "internalType": "bool",
          "name": "",
          "type": "bool"
        }
      ],
      "stateMutability": "view",
      "type": "function"
    },
    {
      "inputs": [],
      "name": "addressProvider",
      "outputs": [
        {
          "internalType": "contract AddressProvider",
          "name": "",
          "type": "address"
        }
      ],
      "stateMutability": "view",
      "type": "function"
    },
    {
      "inputs": [
        {
          "internalType": "address",
          "name": "targetContract",
          "type": "address"
        },
        {
          "internalType": "address",
          "name": "adapter",
          "type": "address"
        }
      ],
      "name": "allowContract",
      "outputs": [],
      "stateMutability": "nonpayable",
      "type": "function"
    },
    {
      "inputs": [
        {
          "internalType": "address",
          "name": "plugin",
          "type": "address"
        },
        {
          "internalType": "bool",
          "name": "state",
          "type": "bool"
        }
      ],
      "name": "allowPlugin",
      "outputs": [],
      "stateMutability": "nonpayable",
      "type": "function"
    },
    {
      "inputs": [
        {
          "internalType": "address",
          "name": "token",
          "type": "address"
        },
        {
          "internalType": "uint256",
          "name": "liquidationThreshold",
          "type": "uint256"
        }
      ],
      "name": "allowToken",
      "outputs": [],
      "stateMutability": "nonpayable",
      "type": "function"
    },
    {
      "inputs": [
        {
          "internalType": "address",
          "name": "from",
          "type": "address"
        },
        {
          "internalType": "address",
          "name": "to",
          "type": "address"
        }
      ],
      "name": "allowanceForAccountTransfers",
      "outputs": [
        {
          "internalType": "bool",
          "name": "",
          "type": "bool"
        }
      ],
      "stateMutability": "view",
      "type": "function"
    },
    {
      "inputs": [
        {
          "internalType": "address",
          "name": "",
          "type": "address"
        }
      ],
      "name": "allowedAdapters",
      "outputs": [
        {
          "internalType": "bool",
          "name": "",
          "type": "bool"
        }
      ],
      "stateMutability": "view",
      "type": "function"
    },
    {
      "inputs": [
        {
          "internalType": "uint256",
          "name": "i",
          "type": "uint256"
        }
      ],
      "name": "allowedContracts",
      "outputs": [
        {
          "internalType": "address",
          "name": "",
          "type": "address"
        }
      ],
      "stateMutability": "view",
      "type": "function"
    },
    {
      "inputs": [],
      "name": "allowedContractsCount",
      "outputs": [
        {
          "internalType": "uint256",
          "name": "",
          "type": "uint256"
        }
      ],
      "stateMutability": "view",
      "type": "function"
    },
    {
      "inputs": [
        {
          "internalType": "address",
          "name": "",
          "type": "address"
        }
      ],
      "name": "allowedPlugins",
      "outputs": [
        {
          "internalType": "bool",
          "name": "",
          "type": "bool"
        }
      ],
      "stateMutability": "view",
      "type": "function"
    },
    {
      "inputs": [
        {
          "internalType": "uint256",
          "name": "",
          "type": "uint256"
        }
      ],
      "name": "allowedTokens",
      "outputs": [
        {
          "internalType": "address",
          "name": "",
          "type": "address"
        }
      ],
      "stateMutability": "view",
      "type": "function"
    },
    {
      "inputs": [],
      "name": "allowedTokensCount",
      "outputs": [
        {
          "internalType": "uint256",
          "name": "",
          "type": "uint256"
        }
      ],
      "stateMutability": "view",
      "type": "function"
    },
    {
      "inputs": [
        {
          "internalType": "address",
          "name": "from",
          "type": "address"
        },
        {
          "internalType": "bool",
          "name": "state",
          "type": "bool"
        }
      ],
      "name": "approveAccountTransfers",
      "outputs": [],
      "stateMutability": "nonpayable",
      "type": "function"
    },
    {
      "inputs": [
        {
          "internalType": "address",
          "name": "creditAccount",
          "type": "address"
        }
      ],
      "name": "calcCreditAccountAccruedInterest",
      "outputs": [
        {
          "internalType": "uint256",
          "name": "",
          "type": "uint256"
        }
      ],
      "stateMutability": "view",
      "type": "function"
    },
    {
      "inputs": [
        {
          "internalType": "address",
          "name": "creditAccount",
          "type": "address"
        }
      ],
      "name": "calcCreditAccountHealthFactor",
      "outputs": [
        {
          "internalType": "uint256",
          "name": "",
          "type": "uint256"
        }
      ],
      "stateMutability": "view",
      "type": "function"
    },
    {
      "inputs": [
        {
          "internalType": "uint256",
          "name": "percentage",
          "type": "uint256"
        },
        {
          "internalType": "uint256",
          "name": "times",
          "type": "uint256"
        }
      ],
      "name": "calcMaxPossibleDrop",
      "outputs": [
        {
          "internalType": "uint256",
          "name": "value",
          "type": "uint256"
        }
      ],
      "stateMutability": "pure",
      "type": "function"
    },
    {
      "inputs": [
        {
          "internalType": "address",
          "name": "creditAccount",
          "type": "address"
        }
      ],
      "name": "calcThresholdWeightedValue",
      "outputs": [
        {
          "internalType": "uint256",
          "name": "total",
          "type": "uint256"
        }
      ],
      "stateMutability": "view",
      "type": "function"
    },
    {
      "inputs": [
        {
          "internalType": "address",
          "name": "creditAccount",
          "type": "address"
        }
      ],
      "name": "calcTotalValue",
      "outputs": [
        {
          "internalType": "uint256",
          "name": "total",
          "type": "uint256"
        }
      ],
      "stateMutability": "view",
      "type": "function"
    },
    {
      "inputs": [
        {
          "internalType": "address",
          "name": "creditAccount",
          "type": "address"
        },
        {
          "internalType": "address",
          "name": "token",
          "type": "address"
        }
      ],
      "name": "checkAndEnableToken",
      "outputs": [],
      "stateMutability": "nonpayable",
      "type": "function"
    },
    {
      "inputs": [
        {
          "internalType": "address",
          "name": "creditAccount",
          "type": "address"
        },
        {
          "internalType": "address",
          "name": "tokenIn",
          "type": "address"
        },
        {
          "internalType": "address",
          "name": "tokenOut",
          "type": "address"
        },
        {
          "internalType": "uint256",
          "name": "amountIn",
          "type": "uint256"
        },
        {
          "internalType": "uint256",
          "name": "amountOut",
          "type": "uint256"
        }
      ],
      "name": "checkCollateralChange",
      "outputs": [],
      "stateMutability": "nonpayable",
      "type": "function"
    },
    {
      "inputs": [
        {
          "internalType": "address",
          "name": "creditAccount",
          "type": "address"
        },
        {
          "internalType": "uint256[]",
          "name": "amountIn",
          "type": "uint256[]"
        },
        {
          "internalType": "uint256[]",
          "name": "amountOut",
          "type": "uint256[]"
        },
        {
          "internalType": "address[]",
          "name": "tokenIn",
          "type": "address[]"
        },
        {
          "internalType": "address[]",
          "name": "tokenOut",
          "type": "address[]"
        }
      ],
      "name": "checkMultiTokenCollateral",
      "outputs": [],
      "stateMutability": "nonpayable",
      "type": "function"
    },
    {
      "inputs": [],
      "name": "chiThreshold",
      "outputs": [
        {
          "internalType": "uint256",
          "name": "",
          "type": "uint256"
        }
      ],
      "stateMutability": "view",
      "type": "function"
    },
    {
      "inputs": [
        {
          "internalType": "address",
          "name": "_creditManager",
          "type": "address"
        }
      ],
      "name": "connectCreditManager",
      "outputs": [],
      "stateMutability": "nonpayable",
      "type": "function"
    },
    {
      "inputs": [
        {
          "internalType": "address",
          "name": "",
          "type": "address"
        }
      ],
      "name": "contractToAdapter",
      "outputs": [
        {
          "internalType": "address",
          "name": "",
          "type": "address"
        }
      ],
      "stateMutability": "view",
      "type": "function"
    },
    {
      "inputs": [],
      "name": "creditManager",
      "outputs": [
        {
          "internalType": "address",
          "name": "",
          "type": "address"
        }
      ],
      "stateMutability": "view",
      "type": "function"
    },
    {
      "inputs": [
        {
          "internalType": "address",
          "name": "",
          "type": "address"
        }
      ],
      "name": "enabledTokens",
      "outputs": [
        {
          "internalType": "uint256",
          "name": "",
          "type": "uint256"
        }
      ],
      "stateMutability": "view",
      "type": "function"
    },
    {
      "inputs": [
        {
          "internalType": "address",
          "name": "",
          "type": "address"
        }
      ],
      "name": "fastCheckCounter",
      "outputs": [
        {
          "internalType": "uint256",
          "name": "",
          "type": "uint256"
        }
      ],
      "stateMutability": "view",
      "type": "function"
    },
    {
      "inputs": [
        {
          "internalType": "address",
          "name": "targetContract",
          "type": "address"
        }
      ],
      "name": "forbidContract",
      "outputs": [],
      "stateMutability": "nonpayable",
      "type": "function"
    },
    {
      "inputs": [
        {
          "internalType": "address",
          "name": "token",
          "type": "address"
        }
      ],
      "name": "forbidToken",
      "outputs": [],
      "stateMutability": "nonpayable",
      "type": "function"
    },
    {
      "inputs": [
        {
          "internalType": "address",
          "name": "creditAccount",
          "type": "address"
        },
        {
          "internalType": "uint256",
          "name": "id",
          "type": "uint256"
        }
      ],
      "name": "getCreditAccountTokenById",
      "outputs": [
        {
          "internalType": "address",
          "name": "token",
          "type": "address"
        },
        {
          "internalType": "uint256",
          "name": "balance",
          "type": "uint256"
        },
        {
          "internalType": "uint256",
          "name": "tv",
          "type": "uint256"
        },
        {
          "internalType": "uint256",
          "name": "tvw",
          "type": "uint256"
        }
      ],
      "stateMutability": "view",
      "type": "function"
    },
    {
      "inputs": [],
      "name": "hfCheckInterval",
      "outputs": [
        {
          "internalType": "uint256",
          "name": "",
          "type": "uint256"
        }
      ],
      "stateMutability": "view",
      "type": "function"
    },
    {
      "inputs": [
        {
          "internalType": "address",
          "name": "creditAccount",
          "type": "address"
        }
      ],
      "name": "initEnabledTokens",
      "outputs": [],
      "stateMutability": "nonpayable",
      "type": "function"
    },
    {
      "inputs": [
        {
          "internalType": "address",
          "name": "token",
          "type": "address"
        }
      ],
      "name": "isTokenAllowed",
      "outputs": [
        {
          "internalType": "bool",
          "name": "",
          "type": "bool"
        }
      ],
      "stateMutability": "view",
      "type": "function"
    },
    {
      "inputs": [
        {
          "internalType": "address",
          "name": "",
          "type": "address"
        }
      ],
      "name": "liquidationThresholds",
      "outputs": [
        {
          "internalType": "uint256",
          "name": "",
          "type": "uint256"
        }
      ],
      "stateMutability": "view",
      "type": "function"
    },
    {
      "inputs": [],
      "name": "pause",
      "outputs": [],
      "stateMutability": "nonpayable",
      "type": "function"
    },
    {
      "inputs": [],
      "name": "paused",
      "outputs": [
        {
          "internalType": "bool",
          "name": "",
          "type": "bool"
        }
      ],
      "stateMutability": "view",
      "type": "function"
    },
    {
      "inputs": [],
      "name": "poolService",
      "outputs": [
        {
          "internalType": "address",
          "name": "",
          "type": "address"
        }
      ],
      "stateMutability": "view",
      "type": "function"
    },
    {
      "inputs": [],
      "name": "priceOracle",
      "outputs": [
        {
          "internalType": "address",
          "name": "",
          "type": "address"
        }
      ],
      "stateMutability": "view",
      "type": "function"
    },
    {
      "inputs": [
        {
          "internalType": "address",
          "name": "owner",
          "type": "address"
        },
        {
          "internalType": "address",
          "name": "newOwner",
          "type": "address"
        }
      ],
      "name": "revertIfAccountTransferIsNotAllowed",
      "outputs": [],
      "stateMutability": "view",
      "type": "function"
    },
    {
      "inputs": [
        {
          "internalType": "address",
          "name": "creditAccount",
          "type": "address"
        },
        {
          "internalType": "uint256",
          "name": "minHealthFactor",
          "type": "uint256"
        }
      ],
      "name": "revertIfCantIncreaseBorrowing",
      "outputs": [],
      "stateMutability": "view",
      "type": "function"
    },
    {
      "inputs": [
        {
          "internalType": "address",
          "name": "token",
          "type": "address"
        }
      ],
      "name": "revertIfTokenNotAllowed",
      "outputs": [],
      "stateMutability": "view",
      "type": "function"
    },
    {
      "inputs": [
        {
          "internalType": "address",
          "name": "creditAccount",
          "type": "address"
        },
        {
          "internalType": "uint256",
          "name": "tokenMask",
          "type": "uint256"
        }
      ],
      "name": "setEnabledTokens",
      "outputs": [],
      "stateMutability": "nonpayable",
      "type": "function"
    },
    {
      "inputs": [
        {
          "internalType": "address",
          "name": "creditAccount",
          "type": "address"
        },
        {
          "internalType": "uint256",
          "name": "blockNum",
          "type": "uint256"
        }
      ],
      "name": "setFastCheckBlock",
      "outputs": [],
      "stateMutability": "nonpayable",
      "type": "function"
    },
    {
      "inputs": [
        {
          "internalType": "uint256",
          "name": "_chiThreshold",
          "type": "uint256"
        },
        {
          "internalType": "uint256",
          "name": "_hfCheckInterval",
          "type": "uint256"
        }
      ],
      "name": "setFastCheckParameters",
      "outputs": [],
      "stateMutability": "nonpayable",
      "type": "function"
    },
    {
      "inputs": [
        {
          "internalType": "address",
          "name": "",
          "type": "address"
        }
      ],
      "name": "tokenMasksMap",
      "outputs": [
        {
          "internalType": "uint256",
          "name": "",
          "type": "uint256"
        }
      ],
      "stateMutability": "view",
      "type": "function"
    },
    {
      "inputs": [],
      "name": "underlyingToken",
      "outputs": [
        {
          "internalType": "address",
          "name": "",
          "type": "address"
        }
      ],
      "stateMutability": "view",
      "type": "function"
    },
    {
      "inputs": [],
      "name": "unpause",
      "outputs": [],
      "stateMutability": "nonpayable",
      "type": "function"
    },
    {
      "inputs": [],
      "name": "updateUnderlyingTokenLiquidationThreshold",
      "outputs": [],
      "stateMutability": "nonpayable",
      "type": "function"
    },
    {
      "inputs": [],
      "name": "wethAddress",
      "outputs": [
        {
          "internalType": "address",
          "name": "",
          "type": "address"
        }
      ],
      "stateMutability": "view",
      "type": "function"
    }
  ],
  "bytecode": "0x60806040523480156200001157600080fd5b506040516200742c3803806200742c833981810160405260408110156200003757600080fd5b81019080805190602001909291908051906020019092919050505081818160008060006101000a81548160ff021916908315150217905550600073ffffffffffffffffffffffffffffffffffffffff168173ffffffffffffffffffffffffffffffffffffffff1614156040518060400160405280600281526020017f5a300000000000000000000000000000000000000000000000000000000000008152509062000180576040517f08c379a00000000000000000000000000000000000000000000000000000000081526004018080602001828103825283818151815260200191508051906020019080838360005b838110156200014457808201518184015260208101905062000127565b50505050905090810190601f168015620001725780820380516001836020036101000a031916815260200191505b509250505060405180910390fd5b508073ffffffffffffffffffffffffffffffffffffffff1663087376956040518163ffffffff1660e01b815260040160206040518083038186803b158015620001c857600080fd5b505afa158015620001dd573d6000803e3d6000fd5b505050506040513d6020811015620001f457600080fd5b8101908080519060200190929190505050600060016101000a81548173ffffffffffffffffffffffffffffffffffffffff021916908373ffffffffffffffffffffffffffffffffffffffff16021790555050600073ffffffffffffffffffffffffffffffffffffffff168273ffffffffffffffffffffffffffffffffffffffff1614158015620002b15750600073ffffffffffffffffffffffffffffffffffffffff168173ffffffffffffffffffffffffffffffffffffffff1614155b6040518060400160405280600281526020017f5a30000000000000000000000000000000000000000000000000000000000000815250906200032b576040517f08c379a00000000000000000000000000000000000000000000000000000000081526004016200032291906200130b565b60405180910390fd5b5081600160006101000a81548173ffffffffffffffffffffffffffffffffffffffff021916908373ffffffffffffffffffffffffffffffffffffffff160217905550600160009054906101000a900473ffffffffffffffffffffffffffffffffffffffff1673ffffffffffffffffffffffffffffffffffffffff1663fca513a86040518163ffffffff1660e01b815260040160206040518083038186803b158015620003d657600080fd5b505afa158015620003eb573d6000803e3d6000fd5b505050506040513d601f19601f8201168201806040525081019062000411919062001206565b600d60006101000a81548173ffffffffffffffffffffffffffffffffffffffff021916908373ffffffffffffffffffffffffffffffffffffffff160217905550600160009054906101000a900473ffffffffffffffffffffffffffffffffffffffff1673ffffffffffffffffffffffffffffffffffffffff16634c252f916040518163ffffffff1660e01b815260040160206040518083038186803b158015620004ba57600080fd5b505afa158015620004cf573d6000803e3d6000fd5b505050506040513d601f19601f82011682018060405250810190620004f5919062001206565b601060006101000a81548173ffffffffffffffffffffffffffffffffffffffff021916908373ffffffffffffffffffffffffffffffffffffffff16021790555080600e60006101000a81548173ffffffffffffffffffffffffffffffffffffffff021916908373ffffffffffffffffffffffffffffffffffffffff16021790555060c861251c0360056000600e60009054906101000a900473ffffffffffffffffffffffffffffffffffffffff1673ffffffffffffffffffffffffffffffffffffffff1673ffffffffffffffffffffffffffffffffffffffff168152602001908152602001600020819055506200061a600e60009054906101000a900473ffffffffffffffffffffffffffffffffffffffff1660c861251c036200073460201b60201c565b6200062f6126de600462000d8060201b60201c565b600160146000600160009054906101000a900473ffffffffffffffffffffffffffffffffffffffff1673ffffffffffffffffffffffffffffffffffffffff166377532ed96040518163ffffffff1660e01b815260040160206040518083038186803b1580156200069e57600080fd5b505afa158015620006b3573d6000803e3d6000fd5b505050506040513d601f19601f82011682018060405250810190620006d9919062001206565b73ffffffffffffffffffffffffffffffffffffffff1673ffffffffffffffffffffffffffffffffffffffff16815260200190815260200160002060006101000a81548160ff021916908315150217905550505050506200144e565b600073ffffffffffffffffffffffffffffffffffffffff168273ffffffffffffffffffffffffffffffffffffffff1614156040518060400160405280600281526020017f5a3000000000000000000000000000000000000000000000000000000000000081525090620007df576040517f08c379a0000000000000000000000000000000000000000000000000000000008152600401620007d691906200130b565b60405180910390fd5b5060008111801562000852575060056000600e60009054906101000a900473ffffffffffffffffffffffffffffffffffffffff1673ffffffffffffffffffffffffffffffffffffffff1673ffffffffffffffffffffffffffffffffffffffff168152602001908152602001600020548111155b6040518060400160405280600381526020017f434631000000000000000000000000000000000000000000000000000000000081525090620008cc576040517f08c379a0000000000000000000000000000000000000000000000000000000008152600401620008c391906200130b565b60405180910390fd5b506000600660008473ffffffffffffffffffffffffffffffffffffffff1673ffffffffffffffffffffffffffffffffffffffff168152602001908152602001600020541180620009225750610100600480549050105b6040518060400160405280600381526020017f4346360000000000000000000000000000000000000000000000000000000000815250906200099c576040517f08c379a00000000000000000000000000000000000000000000000000000000081526004016200099391906200130b565b60405180910390fd5b5060008273ffffffffffffffffffffffffffffffffffffffff166370a08231306040518263ffffffff1660e01b8152600401620009da9190620012c1565b60206040518083038186803b158015620009f357600080fd5b505afa15801562000a08573d6000803e3d6000fd5b505050506040513d601f19601f8201168201806040525081019062000a2e919062001232565b101562000a3a57600080fd5b6000600d60009054906101000a900473ffffffffffffffffffffffffffffffffffffffff1673ffffffffffffffffffffffffffffffffffffffff1663743b908684600e60009054906101000a900473ffffffffffffffffffffffffffffffffffffffff166040518363ffffffff1660e01b815260040162000abd929190620012de565b60206040518083038186803b15801562000ad657600080fd5b505afa15801562000aeb573d6000803e3d6000fd5b505050506040513d601f19601f8201168201806040525081019062000b11919062001232565b116040518060400160405280600381526020017f43464500000000000000000000000000000000000000000000000000000000008152509062000b8c576040517f08c379a000000000000000000000000000000000000000000000000000000000815260040162000b8391906200130b565b60405180910390fd5b50600360008373ffffffffffffffffffffffffffffffffffffffff1673ffffffffffffffffffffffffffffffffffffffff16815260200190815260200160002060009054906101000a900460ff1662000ce8576001600360008473ffffffffffffffffffffffffffffffffffffffff1673ffffffffffffffffffffffffffffffffffffffff16815260200190815260200160002060006101000a81548160ff0219169083151502179055506004805490506001901b600660008473ffffffffffffffffffffffffffffffffffffffff1673ffffffffffffffffffffffffffffffffffffffff168152602001908152602001600020819055506004829080600181540180825580915050600190039060005260206000200160009091909190916101000a81548173ffffffffffffffffffffffffffffffffffffffff021916908373ffffffffffffffffffffffffffffffffffffffff1602179055505b80600560008473ffffffffffffffffffffffffffffffffffffffff1673ffffffffffffffffffffffffffffffffffffffff168152602001908152602001600020819055508173ffffffffffffffffffffffffffffffffffffffff167fa52fb6bfa514a4ddcb31de40a5f6c20d767db1f921a8b7747973d93dc5da7a028260405162000d7491906200132f565b60405180910390a25050565b816011819055508060128190555062000d9e62000ddd60201b60201c565b7f727652fff0946c19c233fd3eab5fc03db9e9fdd907e902d9136c2a9cac47101c828260405162000dd19291906200134c565b60405180910390a15050565b600073ffffffffffffffffffffffffffffffffffffffff16600260009054906101000a900473ffffffffffffffffffffffffffffffffffffffff1673ffffffffffffffffffffffffffffffffffffffff161462000f8c57600062000e6762000e5060115460125462000f8e60201b60201c565b6127106200103e60201b62004ad31790919060201c565b9050600260009054906101000a900473ffffffffffffffffffffffffffffffffffffffff1673ffffffffffffffffffffffffffffffffffffffff16633915ffaa6040518163ffffffff1660e01b815260040160206040518083038186803b15801562000ed257600080fd5b505afa15801562000ee7573d6000803e3d6000fd5b505050506040513d601f19601f8201168201806040525081019062000f0d919062001232565b81106040518060400160405280600381526020017f43464200000000000000000000000000000000000000000000000000000000008152509062000f89576040517f08c379a000000000000000000000000000000000000000000000000000000000815260040162000f8091906200130b565b60405180910390fd5b50505b565b600062000fac83612710620010c260201b62004b561790919060201c565b905060005b62000fcc6001846200103e60201b62004ad31790919060201c565b81101562001019576200100961271062000ff58685620010c260201b62004b561790919060201c565b6200114d60201b62004bdc1790919060201c565b9150808060010191505062000fb1565b5062001036612710826200114d60201b62004bdc1790919060201c565b905092915050565b600082821115620010b7576040517f08c379a000000000000000000000000000000000000000000000000000000000815260040180806020018281038252601e8152602001807f536166654d6174683a207375627472616374696f6e206f766572666c6f77000081525060200191505060405180910390fd5b818303905092915050565b600080831415620010d7576000905062001147565b6000828402905082848281620010e957fe5b041462001142576040517f08c379a00000000000000000000000000000000000000000000000000000000081526004018080602001828103825260218152602001806200740b6021913960400191505060405180910390fd5b809150505b92915050565b6000808211620011c5576040517f08c379a000000000000000000000000000000000000000000000000000000000815260040180806020018281038252601a8152602001807f536166654d6174683a206469766973696f6e206279207a65726f00000000000081525060200191505060405180910390fd5b818381620011cf57fe5b04905092915050565b600081519050620011e9816200141a565b92915050565b600081519050620012008162001434565b92915050565b6000602082840312156200121957600080fd5b60006200122984828501620011d8565b91505092915050565b6000602082840312156200124557600080fd5b60006200125584828501620011ef565b91505092915050565b620012698162001395565b82525050565b60006200127c8262001379565b62001288818562001384565b93506200129a818560208601620013d3565b620012a58162001409565b840191505092915050565b620012bb81620013c9565b82525050565b6000602082019050620012d860008301846200125e565b92915050565b6000604082019050620012f560008301856200125e565b6200130460208301846200125e565b9392505050565b600060208201905081810360008301526200132781846200126f565b905092915050565b6000602082019050620013466000830184620012b0565b92915050565b6000604082019050620013636000830185620012b0565b620013726020830184620012b0565b9392505050565b600081519050919050565b600082825260208201905092915050565b6000620013a282620013a9565b9050919050565b600073ffffffffffffffffffffffffffffffffffffffff82169050919050565b6000819050919050565b60005b83811015620013f3578082015181840152602081019050620013d6565b8381111562001403576000848401525b50505050565b6000601f19601f8301169050919050565b620014258162001395565b81146200143157600080fd5b50565b6200143f81620013c9565b81146200144b57600080fd5b50565b615fad806200145e6000396000f3fe608060405234801561001057600080fd5b50600436106102bb5760003560e01c80635f598edd11610182578063b2d0d86b116100e9578063dfd59465116100a2578063e6dee2cc1161007c578063e6dee2cc146111c5578063f67c5bd0146111e3578063f9eaee0d1461123b578063fdd5764514611295576102bb565b8063dfd5946514611091578063e1c8ef0d146110e9578063e54fe9c814611181576102bb565b8063b2d0d86b14610ec3578063b3c6194314610f1d578063b451cecc14610f69578063c12c21c014610fc1578063c7de38a614610ff5578063cf33d9551461104d576102bb565b80638456cb591161013b5780638456cb5914610cea57806390b1300a14610cf4578063a147c6c614610d4c578063a575751714610d9a578063a77e0ba814610de8578063af0a650214610e36576102bb565b80635f598edd146108c457806362061c6d1461091e57806378327438146109565780637bccacee146109ae5780637dd0ba8214610a125780637e4a686314610a56576102bb565b806347dedfc91161022657806352438e54116101df57806352438e541461070a578063570a7af21461074e5780635a29be45146107825780635c975abb146107fc5780635e5f2e261461081c5780635f27212a14610874576102bb565b806347dedfc9146105865780634cba294a146105a45780634f0e0ef3146105fc5780635094cb4f1461063057806350e036ff1461068857806351e3f160146106a6576102bb565b80632e2986dd116102785780632e2986dd1461040c5780633192195c1461045c5780633b00ae70146104b45780633bdfe4f5146105185780633f4ba83a14610572578063406318281461057c576102bb565b8063044078b3146102c057806320a05ff71461030e578063241477081461032c5780632495a599146103705780632630c12f146103a45780632954018c146103d8575b600080fd5b61030c600480360360408110156102d657600080fd5b81019080803573ffffffffffffffffffffffffffffffffffffffff16906020019092919080359060200190929190505050611303565b005b61031661134b565b6040518082815260200191505060405180910390f35b61036e6004803603602081101561034257600080fd5b81019080803573ffffffffffffffffffffffffffffffffffffffff169060200190929190505050611358565b005b610378611554565b604051808273ffffffffffffffffffffffffffffffffffffffff16815260200191505060405180910390f35b6103ac61157a565b604051808273ffffffffffffffffffffffffffffffffffffffff16815260200191505060405180910390f35b6103e06115a0565b604051808273ffffffffffffffffffffffffffffffffffffffff16815260200191505060405180910390f35b61045a6004803603604081101561042257600080fd5b81019080803573ffffffffffffffffffffffffffffffffffffffff1690602001909291908035151590602001909291905050506115c6565b005b61049e6004803603602081101561047257600080fd5b81019080803573ffffffffffffffffffffffffffffffffffffffff169060200190929190505050611810565b6040518082815260200191505060405180910390f35b610516600480360360408110156104ca57600080fd5b81019080803573ffffffffffffffffffffffffffffffffffffffff169060200190929190803573ffffffffffffffffffffffffffffffffffffffff1690602001909291905050506119d7565b005b61055a6004803603602081101561052e57600080fd5b81019080803573ffffffffffffffffffffffffffffffffffffffff169060200190929190505050611b85565b60405180821515815260200191505060405180910390f35b61057a611ba5565b005b610584611d50565b005b61058e6124de565b6040518082815260200191505060405180910390f35b6105e6600480360360208110156105ba57600080fd5b81019080803573ffffffffffffffffffffffffffffffffffffffff1690602001909291905050506124e4565b6040518082815260200191505060405180910390f35b6106046124fc565b604051808273ffffffffffffffffffffffffffffffffffffffff16815260200191505060405180910390f35b61065c6004803603602081101561064657600080fd5b8101908080359060200190929190505050612522565b604051808273ffffffffffffffffffffffffffffffffffffffff16815260200191505060405180910390f35b61069061253f565b6040518082815260200191505060405180910390f35b610708600480360360408110156106bc57600080fd5b81019080803573ffffffffffffffffffffffffffffffffffffffff169060200190929190803573ffffffffffffffffffffffffffffffffffffffff169060200190929190505050612550565b005b61074c6004803603602081101561072057600080fd5b81019080803573ffffffffffffffffffffffffffffffffffffffff169060200190929190505050612627565b005b610756612a79565b604051808273ffffffffffffffffffffffffffffffffffffffff16815260200191505060405180910390f35b6107e46004803603604081101561079857600080fd5b81019080803573ffffffffffffffffffffffffffffffffffffffff169060200190929190803573ffffffffffffffffffffffffffffffffffffffff169060200190929190505050612a9f565b60405180821515815260200191505060405180910390f35b610804612b33565b60405180821515815260200191505060405180910390f35b6108486004803603602081101561083257600080fd5b8101908080359060200190929190505050612b49565b604051808273ffffffffffffffffffffffffffffffffffffffff16815260200191505060405180910390f35b6108c26004803603604081101561088a57600080fd5b81019080803573ffffffffffffffffffffffffffffffffffffffff169060200190929190803515159060200190929190505050612b88565b005b610906600480360360208110156108da57600080fd5b81019080803573ffffffffffffffffffffffffffffffffffffffff169060200190929190505050612c85565b60405180821515815260200191505060405180910390f35b6109546004803603604081101561093457600080fd5b810190808035906020019092919080359060200190929190505050612ca5565b005b6109986004803603602081101561096c57600080fd5b81019080803573ffffffffffffffffffffffffffffffffffffffff169060200190929190505050612e54565b6040518082815260200191505060405180910390f35b610a10600480360360408110156109c457600080fd5b81019080803573ffffffffffffffffffffffffffffffffffffffff169060200190929190803573ffffffffffffffffffffffffffffffffffffffff169060200190929190505050612e6c565b005b610a5460048036036020811015610a2857600080fd5b81019080803573ffffffffffffffffffffffffffffffffffffffff1690602001909291905050506133bb565b005b610ce8600480360360a0811015610a6c57600080fd5b81019080803573ffffffffffffffffffffffffffffffffffffffff16906020019092919080359060200190640100000000811115610aa957600080fd5b820183602082011115610abb57600080fd5b80359060200191846020830284011164010000000083111715610add57600080fd5b919080806020026020016040519081016040528093929190818152602001838360200280828437600081840152601f19601f82011690508083019250505050505050919291929080359060200190640100000000811115610b3d57600080fd5b820183602082011115610b4f57600080fd5b80359060200191846020830284011164010000000083111715610b7157600080fd5b919080806020026020016040519081016040528093929190818152602001838360200280828437600081840152601f19601f82011690508083019250505050505050919291929080359060200190640100000000811115610bd157600080fd5b820183602082011115610be357600080fd5b80359060200191846020830284011164010000000083111715610c0557600080fd5b919080806020026020016040519081016040528093929190818152602001838360200280828437600081840152601f19601f82011690508083019250505050505050919291929080359060200190640100000000811115610c6557600080fd5b820183602082011115610c7757600080fd5b80359060200191846020830284011164010000000083111715610c9957600080fd5b919080806020026020016040519081016040528093929190818152602001838360200280828437600081840152601f19601f82011690508083019250505050505050919291929050505061343f565b005b610cf261380c565b005b610d3660048036036020811015610d0a57600080fd5b81019080803573ffffffffffffffffffffffffffffffffffffffff1690602001909291905050506139b7565b6040518082815260200191505060405180910390f35b610d9860048036036040811015610d6257600080fd5b81019080803573ffffffffffffffffffffffffffffffffffffffff16906020019092919080359060200190929190505050613a76565b005b610de660048036036040811015610db057600080fd5b81019080803573ffffffffffffffffffffffffffffffffffffffff16906020019092919080359060200190929190505050613c25565b005b610e3460048036036040811015610dfe57600080fd5b81019080803573ffffffffffffffffffffffffffffffffffffffff16906020019092919080359060200190929190505050613cad565b005b610e8260048036036040811015610e4c57600080fd5b81019080803573ffffffffffffffffffffffffffffffffffffffff16906020019092919080359060200190929190505050613cf5565b604051808573ffffffffffffffffffffffffffffffffffffffff16815260200184815260200183815260200182815260200194505050505060405180910390f35b610f0560048036036020811015610ed957600080fd5b81019080803573ffffffffffffffffffffffffffffffffffffffff169060200190929190505050613efa565b60405180821515815260200191505060405180910390f35b610f5360048036036040811015610f3357600080fd5b810190808035906020019092919080359060200190929190505050613f1a565b6040518082815260200191505060405180910390f35b610fab60048036036020811015610f7f57600080fd5b81019080803573ffffffffffffffffffffffffffffffffffffffff169060200190929190505050613fa5565b6040518082815260200191505060405180910390f35b610fc9613fbd565b604051808273ffffffffffffffffffffffffffffffffffffffff16815260200191505060405180910390f35b6110376004803603602081101561100b57600080fd5b81019080803573ffffffffffffffffffffffffffffffffffffffff169060200190929190505050613fe3565b6040518082815260200191505060405180910390f35b61108f6004803603602081101561106357600080fd5b81019080803573ffffffffffffffffffffffffffffffffffffffff16906020019092919050505061408b565b005b6110d3600480360360208110156110a757600080fd5b81019080803573ffffffffffffffffffffffffffffffffffffffff169060200190929190505050614609565b6040518082815260200191505060405180910390f35b61117f600480360360a08110156110ff57600080fd5b81019080803573ffffffffffffffffffffffffffffffffffffffff169060200190929190803573ffffffffffffffffffffffffffffffffffffffff169060200190929190803573ffffffffffffffffffffffffffffffffffffffff1690602001909291908035906020019092919080359060200190929190505050614649565b005b6111c36004803603602081101561119757600080fd5b81019080803573ffffffffffffffffffffffffffffffffffffffff1690602001909291905050506148d6565b005b6111cd614a2c565b6040518082815260200191505060405180910390f35b611225600480360360208110156111f957600080fd5b81019080803573ffffffffffffffffffffffffffffffffffffffff169060200190929190505050614a32565b6040518082815260200191505060405180910390f35b61127d6004803603602081101561125157600080fd5b81019080803573ffffffffffffffffffffffffffffffffffffffff169060200190929190505050614a4a565b60405180821515815260200191505060405180910390f35b6112d7600480360360208110156112ab57600080fd5b81019080803573ffffffffffffffffffffffffffffffffffffffff169060200190929190505050614aa0565b604051808273ffffffffffffffffffffffffffffffffffffffff16815260200191505060405180910390f35b80600760008473ffffffffffffffffffffffffffffffffffffffff1673ffffffffffffffffffffffffffffffffffffffff168152602001908152602001600020819055505050565b6000600480549050905090565b600060019054906101000a900473ffffffffffffffffffffffffffffffffffffffff1673ffffffffffffffffffffffffffffffffffffffff16635f259aba336040518263ffffffff1660e01b8152600401808273ffffffffffffffffffffffffffffffffffffffff16815260200191505060206040518083038186803b1580156113e157600080fd5b505afa1580156113f5573d6000803e3d6000fd5b505050506040513d602081101561140b57600080fd5b81019080805190602001909291905050506040518060400160405280600481526020017f41434c3200000000000000000000000000000000000000000000000000000000815250906114f8576040517f08c379a00000000000000000000000000000000000000000000000000000000081526004018080602001828103825283818151815260200191508051906020019080838360005b838110156114bd5780820151818401526020810190506114a2565b50505050905090810190601f1680156114ea5780820380516001836020036101000a031916815260200191505b509250505060405180910390fd5b506000600360008373ffffffffffffffffffffffffffffffffffffffff1673ffffffffffffffffffffffffffffffffffffffff16815260200190815260200160002060006101000a81548160ff02191690831515021790555050565b600e60009054906101000a900473ffffffffffffffffffffffffffffffffffffffff1681565b600d60009054906101000a900473ffffffffffffffffffffffffffffffffffffffff1681565b600160009054906101000a900473ffffffffffffffffffffffffffffffffffffffff1681565b600060019054906101000a900473ffffffffffffffffffffffffffffffffffffffff1673ffffffffffffffffffffffffffffffffffffffff16635f259aba336040518263ffffffff1660e01b8152600401808273ffffffffffffffffffffffffffffffffffffffff16815260200191505060206040518083038186803b15801561164f57600080fd5b505afa158015611663573d6000803e3d6000fd5b505050506040513d602081101561167957600080fd5b81019080805190602001909291905050506040518060400160405280600481526020017f41434c320000000000000000000000000000000000000000000000000000000081525090611766576040517f08c379a00000000000000000000000000000000000000000000000000000000081526004018080602001828103825283818151815260200191508051906020019080838360005b8381101561172b578082015181840152602081019050611710565b50505050905090810190601f1680156117585780820380516001836020036101000a031916815260200191505b509250505060405180910390fd5b5080601460008473ffffffffffffffffffffffffffffffffffffffff1673ffffffffffffffffffffffffffffffffffffffff16815260200190815260200160002060006101000a81548160ff0219169083151502179055508173ffffffffffffffffffffffffffffffffffffffff167fc7d2592986c53f858769b011e8ce6298936f8609789988e9f5ad4f0a20798897826040516118049190615da6565b60405180910390a25050565b60006119d08273ffffffffffffffffffffffffffffffffffffffff166317d11a156040518163ffffffff1660e01b815260040160206040518083038186803b15801561185b57600080fd5b505afa15801561186f573d6000803e3d6000fd5b505050506040513d601f19601f820116820180604052508101906118939190615cd3565b6119c2600f60009054906101000a900473ffffffffffffffffffffffffffffffffffffffff1673ffffffffffffffffffffffffffffffffffffffff16630fce70fb6040518163ffffffff1660e01b815260040160206040518083038186803b1580156118fe57600080fd5b505afa158015611912573d6000803e3d6000fd5b505050506040513d601f19601f820116820180604052508101906119369190615cd3565b8573ffffffffffffffffffffffffffffffffffffffff16631afbb7a46040518163ffffffff1660e01b815260040160206040518083038186803b15801561197c57600080fd5b505afa158015611990573d6000803e3d6000fd5b505050506040513d601f19601f820116820180604052508101906119b49190615cd3565b614b5690919063ffffffff16565b614bdc90919063ffffffff16565b9050919050565b601460008373ffffffffffffffffffffffffffffffffffffffff1673ffffffffffffffffffffffffffffffffffffffff16815260200190815260200160002060009054906101000a900460ff161580611a795750601460008273ffffffffffffffffffffffffffffffffffffffff1673ffffffffffffffffffffffffffffffffffffffff16815260200190815260200160002060009054906101000a900460ff165b15611b8157601360008373ffffffffffffffffffffffffffffffffffffffff1673ffffffffffffffffffffffffffffffffffffffff16815260200190815260200160002060008273ffffffffffffffffffffffffffffffffffffffff1673ffffffffffffffffffffffffffffffffffffffff16815260200190815260200160002060009054906101000a900460ff166040518060400160405280600381526020017f434646000000000000000000000000000000000000000000000000000000000081525090611b7f576040517f08c379a0000000000000000000000000000000000000000000000000000000008152600401611b769190615dc1565b60405180910390fd5b505b5050565b600b6020528060005260406000206000915054906101000a900460ff1681565b600060019054906101000a900473ffffffffffffffffffffffffffffffffffffffff1673ffffffffffffffffffffffffffffffffffffffff1663d4eb5db0336040518263ffffffff1660e01b8152600401808273ffffffffffffffffffffffffffffffffffffffff16815260200191505060206040518083038186803b158015611c2e57600080fd5b505afa158015611c42573d6000803e3d6000fd5b505050506040513d6020811015611c5857600080fd5b81019080805190602001909291905050506040518060400160405280600481526020017f41434c310000000000000000000000000000000000000000000000000000000081525090611d45576040517f08c379a00000000000000000000000000000000000000000000000000000000081526004018080602001828103825283818151815260200191508051906020019080838360005b83811015611d0a578082015181840152602081019050611cef565b50505050905090810190601f168015611d375780820380516001836020036101000a031916815260200191505b509250505060405180910390fd5b50611d4e614c65565b565b600260009054906101000a900473ffffffffffffffffffffffffffffffffffffffff1673ffffffffffffffffffffffffffffffffffffffff163373ffffffffffffffffffffffffffffffffffffffff16146040518060400160405280600381526020017f434633000000000000000000000000000000000000000000000000000000000081525090611e18576040517f08c379a0000000000000000000000000000000000000000000000000000000008152600401611e0f9190615dc1565b60405180910390fd5b50612710600260009054906101000a900473ffffffffffffffffffffffffffffffffffffffff1673ffffffffffffffffffffffffffffffffffffffff16635e0b63d36040518163ffffffff1660e01b815260040160206040518083038186803b158015611e8457600080fd5b505afa158015611e98573d6000803e3d6000fd5b505050506040513d601f19601f82011682018060405250810190611ebc9190615cd3565b108015611f695750612710600260009054906101000a900473ffffffffffffffffffffffffffffffffffffffff1673ffffffffffffffffffffffffffffffffffffffff16633915ffaa6040518163ffffffff1660e01b815260040160206040518083038186803b158015611f2f57600080fd5b505afa158015611f43573d6000803e3d6000fd5b505050506040513d601f19601f82011682018060405250810190611f679190615cd3565b105b80156120155750612710600260009054906101000a900473ffffffffffffffffffffffffffffffffffffffff1673ffffffffffffffffffffffffffffffffffffffff16638053fcbe6040518163ffffffff1660e01b815260040160206040518083038186803b158015611fdb57600080fd5b505afa158015611fef573d6000803e3d6000fd5b505050506040513d601f19601f820116820180604052508101906120139190615cd3565b105b6040518060400160405280600381526020017f434d3800000000000000000000000000000000000000000000000000000000008152509061208c576040517f08c379a00000000000000000000000000000000000000000000000000000000081526004016120839190615dc1565b60405180910390fd5b50612710600260009054906101000a900473ffffffffffffffffffffffffffffffffffffffff1673ffffffffffffffffffffffffffffffffffffffff1663e1b4264c6040518163ffffffff1660e01b815260040160206040518083038186803b1580156120f857600080fd5b505afa15801561210c573d6000803e3d6000fd5b505050506040513d601f19601f820116820180604052508101906121309190615cd3565b116040518060400160405280600381526020017f434d390000000000000000000000000000000000000000000000000000000000815250906121a8576040517f08c379a000000000000000000000000000000000000000000000000000000000815260040161219f9190615dc1565b60405180910390fd5b506122fa600260009054906101000a900473ffffffffffffffffffffffffffffffffffffffff1673ffffffffffffffffffffffffffffffffffffffff16633915ffaa6040518163ffffffff1660e01b815260040160206040518083038186803b15801561221457600080fd5b505afa158015612228573d6000803e3d6000fd5b505050506040513d601f19601f8201168201806040525081019061224c9190615cd3565b600260009054906101000a900473ffffffffffffffffffffffffffffffffffffffff1673ffffffffffffffffffffffffffffffffffffffff16638053fcbe6040518163ffffffff1660e01b815260040160206040518083038186803b1580156122b457600080fd5b505afa1580156122c8573d6000803e3d6000fd5b505050506040513d601f19601f820116820180604052508101906122ec9190615cd3565b614ad390919063ffffffff16565b60056000600e60009054906101000a900473ffffffffffffffffffffffffffffffffffffffff1673ffffffffffffffffffffffffffffffffffffffff1673ffffffffffffffffffffffffffffffffffffffff168152602001908152602001600020819055506000600190505b6004805490508110156124d35760056000600e60009054906101000a900473ffffffffffffffffffffffffffffffffffffffff1673ffffffffffffffffffffffffffffffffffffffff1673ffffffffffffffffffffffffffffffffffffffff1681526020019081526020016000205460056000600484815481106123e657fe5b9060005260206000200160009054906101000a900473ffffffffffffffffffffffffffffffffffffffff1673ffffffffffffffffffffffffffffffffffffffff1673ffffffffffffffffffffffffffffffffffffffff1681526020019081526020016000205411156040518060400160405280600381526020017f4346430000000000000000000000000000000000000000000000000000000000815250906124c5576040517f08c379a00000000000000000000000000000000000000000000000000000000081526004016124bc9190615dc1565b60405180910390fd5b508080600101915050612366565b506124dc614d4f565b565b60115481565b60086020528060005260406000206000915090505481565b601060009054906101000a900473ffffffffffffffffffffffffffffffffffffffff1681565b6000612538826009614ee990919063ffffffff16565b9050919050565b600061254b6009614f03565b905090565b600260009054906101000a900473ffffffffffffffffffffffffffffffffffffffff1673ffffffffffffffffffffffffffffffffffffffff163373ffffffffffffffffffffffffffffffffffffffff16146040518060400160405280600381526020017f434633000000000000000000000000000000000000000000000000000000000081525090612618576040517f08c379a000000000000000000000000000000000000000000000000000000000815260040161260f9190615dc1565b60405180910390fd5b506126238282614f18565b5050565b600060019054906101000a900473ffffffffffffffffffffffffffffffffffffffff1673ffffffffffffffffffffffffffffffffffffffff16635f259aba336040518263ffffffff1660e01b8152600401808273ffffffffffffffffffffffffffffffffffffffff16815260200191505060206040518083038186803b1580156126b057600080fd5b505afa1580156126c4573d6000803e3d6000fd5b505050506040513d60208110156126da57600080fd5b81019080805190602001909291905050506040518060400160405280600481526020017f41434c3200000000000000000000000000000000000000000000000000000000815250906127c7576040517f08c379a00000000000000000000000000000000000000000000000000000000081526004018080602001828103825283818151815260200191508051906020019080838360005b8381101561278c578082015181840152602081019050612771565b50505050905090810190601f1680156127b95780820380516001836020036101000a031916815260200191505b509250505060405180910390fd5b50600073ffffffffffffffffffffffffffffffffffffffff168173ffffffffffffffffffffffffffffffffffffffff1614156040518060400160405280600281526020017f5a3000000000000000000000000000000000000000000000000000000000000081525090612870576040517f08c379a00000000000000000000000000000000000000000000000000000000081526004016128679190615dc1565b60405180910390fd5b5061288581600961507390919063ffffffff16565b6040518060400160405280600381526020017f4346410000000000000000000000000000000000000000000000000000000000815250906128fc576040517f08c379a00000000000000000000000000000000000000000000000000000000081526004016128f39190615dc1565b60405180910390fd5b506000600b6000600c60008573ffffffffffffffffffffffffffffffffffffffff1673ffffffffffffffffffffffffffffffffffffffff16815260200190815260200160002060009054906101000a900473ffffffffffffffffffffffffffffffffffffffff1673ffffffffffffffffffffffffffffffffffffffff1673ffffffffffffffffffffffffffffffffffffffff16815260200190815260200160002060006101000a81548160ff0219169083151502179055506000600c60008373ffffffffffffffffffffffffffffffffffffffff1673ffffffffffffffffffffffffffffffffffffffff16815260200190815260200160002060006101000a81548173ffffffffffffffffffffffffffffffffffffffff021916908373ffffffffffffffffffffffffffffffffffffffff1602179055508073ffffffffffffffffffffffffffffffffffffffff167fab9f405bf0c19b97f65a7031634db41569cd2f0e0376a610a1e977f9ab22b58f60405160405180910390a250565b600f60009054906101000a900473ffffffffffffffffffffffffffffffffffffffff1681565b6000601360008473ffffffffffffffffffffffffffffffffffffffff1673ffffffffffffffffffffffffffffffffffffffff16815260200190815260200160002060008373ffffffffffffffffffffffffffffffffffffffff1673ffffffffffffffffffffffffffffffffffffffff16815260200190815260200160002060009054906101000a900460ff16905092915050565b60008060009054906101000a900460ff16905090565b60048181548110612b5957600080fd5b906000526020600020016000915054906101000a900473ffffffffffffffffffffffffffffffffffffffff1681565b80601360008473ffffffffffffffffffffffffffffffffffffffff1673ffffffffffffffffffffffffffffffffffffffff16815260200190815260200160002060003373ffffffffffffffffffffffffffffffffffffffff1673ffffffffffffffffffffffffffffffffffffffff16815260200190815260200160002060006101000a81548160ff0219169083151502179055503373ffffffffffffffffffffffffffffffffffffffff168273ffffffffffffffffffffffffffffffffffffffff167f9b3258bc4904fd6426b99843e206c6c7cdb1fd0f040121c25b71dafbb3851ee083604051612c799190615da6565b60405180910390a35050565b60146020528060005260406000206000915054906101000a900460ff1681565b600060019054906101000a900473ffffffffffffffffffffffffffffffffffffffff1673ffffffffffffffffffffffffffffffffffffffff16635f259aba336040518263ffffffff1660e01b8152600401808273ffffffffffffffffffffffffffffffffffffffff16815260200191505060206040518083038186803b158015612d2e57600080fd5b505afa158015612d42573d6000803e3d6000fd5b505050506040513d6020811015612d5857600080fd5b81019080805190602001909291905050506040518060400160405280600481526020017f41434c320000000000000000000000000000000000000000000000000000000081525090612e45576040517f08c379a00000000000000000000000000000000000000000000000000000000081526004018080602001828103825283818151815260200191508051906020019080838360005b83811015612e0a578082015181840152602081019050612def565b50505050905090810190601f168015612e375780820380516001836020036101000a031916815260200191505b509250505060405180910390fd5b50612e5082826150a3565b5050565b60056020528060005260406000206000915090505481565b600060019054906101000a900473ffffffffffffffffffffffffffffffffffffffff1673ffffffffffffffffffffffffffffffffffffffff16635f259aba336040518263ffffffff1660e01b8152600401808273ffffffffffffffffffffffffffffffffffffffff16815260200191505060206040518083038186803b158015612ef557600080fd5b505afa158015612f09573d6000803e3d6000fd5b505050506040513d6020811015612f1f57600080fd5b81019080805190602001909291905050506040518060400160405280600481526020017f41434c32000000000000000000000000000000000000000000000000000000008152509061300c576040517f08c379a00000000000000000000000000000000000000000000000000000000081526004018080602001828103825283818151815260200191508051906020019080838360005b83811015612fd1578082015181840152602081019050612fb6565b50505050905090810190601f168015612ffe5780820380516001836020036101000a031916815260200191505b509250505060405180910390fd5b50600073ffffffffffffffffffffffffffffffffffffffff168273ffffffffffffffffffffffffffffffffffffffff16141580156130775750600073ffffffffffffffffffffffffffffffffffffffff168173ffffffffffffffffffffffffffffffffffffffff1614155b6040518060400160405280600281526020017f5a30000000000000000000000000000000000000000000000000000000000000815250906130ee576040517f08c379a00000000000000000000000000000000000000000000000000000000081526004016130e59190615dc1565b60405180910390fd5b5060001515600b60008373ffffffffffffffffffffffffffffffffffffffff1673ffffffffffffffffffffffffffffffffffffffff16815260200190815260200160002060009054906101000a900460ff161515146040518060400160405280600381526020017f4346440000000000000000000000000000000000000000000000000000000000815250906131ba576040517f08c379a00000000000000000000000000000000000000000000000000000000081526004016131b19190615dc1565b60405180910390fd5b506000600b6000600c60008673ffffffffffffffffffffffffffffffffffffffff1673ffffffffffffffffffffffffffffffffffffffff16815260200190815260200160002060009054906101000a900473ffffffffffffffffffffffffffffffffffffffff1673ffffffffffffffffffffffffffffffffffffffff1673ffffffffffffffffffffffffffffffffffffffff16815260200190815260200160002060006101000a81548160ff0219169083151502179055506001600b60008373ffffffffffffffffffffffffffffffffffffffff1673ffffffffffffffffffffffffffffffffffffffff16815260200190815260200160002060006101000a81548160ff0219169083151502179055506132de8260096150f690919063ffffffff16565b5080600c60008473ffffffffffffffffffffffffffffffffffffffff1673ffffffffffffffffffffffffffffffffffffffff16815260200190815260200160002060006101000a81548173ffffffffffffffffffffffffffffffffffffffff021916908373ffffffffffffffffffffffffffffffffffffffff1602179055508073ffffffffffffffffffffffffffffffffffffffff168273ffffffffffffffffffffffffffffffffffffffff167f4bcbefaef68b99503d502f5a6abe7bca2b183ab8ac55457013c77d084ebd130560405160405180910390a35050565b6133c481614a4a565b6040518060400160405280600381526020017f43463200000000000000000000000000000000000000000000000000000000008152509061343b576040517f08c379a00000000000000000000000000000000000000000000000000000000081526004016134329190615dc1565b60405180910390fd5b5050565b600b60003373ffffffffffffffffffffffffffffffffffffffff1673ffffffffffffffffffffffffffffffffffffffff16815260200190815260200160002060009054906101000a900460ff166040518060400160405280600381526020017f434634000000000000000000000000000000000000000000000000000000000081525090613503576040517f08c379a00000000000000000000000000000000000000000000000000000000081526004016134fa9190615dc1565b60405180910390fd5b5060008083518651148015613519575082518551145b6040518060400160405280600281526020017f435200000000000000000000000000000000000000000000000000000000000081525090613590576040517f08c379a00000000000000000000000000000000000000000000000000000000081526004016135879190615dc1565b60405180910390fd5b5060005b86518110156136b5576136a6600d60009054906101000a900473ffffffffffffffffffffffffffffffffffffffff1673ffffffffffffffffffffffffffffffffffffffff1663b66102df8984815181106135ea57fe5b60200260200101518885815181106135fe57fe5b6020026020010151601060009054906101000a900473ffffffffffffffffffffffffffffffffffffffff166040518463ffffffff1660e01b815260040161364793929190615dfe565b60206040518083038186803b15801561365f57600080fd5b505afa158015613673573d6000803e3d6000fd5b505050506040513d601f19601f820116820180604052508101906136979190615cd3565b8461512690919063ffffffff16565b92508080600101915050613594565b5060005b85518110156137f7576136df888583815181106136d257fe5b6020026020010151614f18565b6137e8600d60009054906101000a900473ffffffffffffffffffffffffffffffffffffffff1673ffffffffffffffffffffffffffffffffffffffff1663b66102df88848151811061372c57fe5b602002602001015187858151811061374057fe5b6020026020010151601060009054906101000a900473ffffffffffffffffffffffffffffffffffffffff166040518463ffffffff1660e01b815260040161378993929190615dfe565b60206040518083038186803b1580156137a157600080fd5b505afa1580156137b5573d6000803e3d6000fd5b505050506040513d601f19601f820116820180604052508101906137d99190615cd3565b8361512690919063ffffffff16565b915080806001019150506136b9565b506138038783836151ae565b50505050505050565b600060019054906101000a900473ffffffffffffffffffffffffffffffffffffffff1673ffffffffffffffffffffffffffffffffffffffff16633a41ec64336040518263ffffffff1660e01b8152600401808273ffffffffffffffffffffffffffffffffffffffff16815260200191505060206040518083038186803b15801561389557600080fd5b505afa1580156138a9573d6000803e3d6000fd5b505050506040513d60208110156138bf57600080fd5b81019080805190602001909291905050506040518060400160405280600481526020017f41434c3100000000000000000000000000000000000000000000000000000000815250906139ac576040517f08c379a00000000000000000000000000000000000000000000000000000000081526004018080602001828103825283818151815260200191508051906020019080838360005b83811015613971578082015181840152602081019050613956565b50505050905090810190601f16801561399e5780820380516001836020036101000a031916815260200191505b509250505060405180910390fd5b506139b5615350565b565b6000806000600760008573ffffffffffffffffffffffffffffffffffffffff1673ffffffffffffffffffffffffffffffffffffffff16815260200190815260200160002054905060005b613a0961134b565b811015613a5757806001901b925060008383161115613a4a576000613a2e8683613cf5565b9350505050613a46818661512690919063ffffffff16565b9450505b8080600101915050613a01565b50613a6d61271084614bdc90919063ffffffff16565b92505050919050565b600060019054906101000a900473ffffffffffffffffffffffffffffffffffffffff1673ffffffffffffffffffffffffffffffffffffffff16635f259aba336040518263ffffffff1660e01b8152600401808273ffffffffffffffffffffffffffffffffffffffff16815260200191505060206040518083038186803b158015613aff57600080fd5b505afa158015613b13573d6000803e3d6000fd5b505050506040513d6020811015613b2957600080fd5b81019080805190602001909291905050506040518060400160405280600481526020017f41434c320000000000000000000000000000000000000000000000000000000081525090613c16576040517f08c379a00000000000000000000000000000000000000000000000000000000081526004018080602001828103825283818151815260200191508051906020019080838360005b83811015613bdb578082015181840152602081019050613bc0565b50505050905090810190601f168015613c085780820380516001836020036101000a031916815260200191505b509250505060405180910390fd5b50613c21828261543b565b5050565b80613c2f83614609565b10156040518060400160405280600381526020017f434d35000000000000000000000000000000000000000000000000000000000081525090613ca8576040517f08c379a0000000000000000000000000000000000000000000000000000000008152600401613c9f9190615dc1565b60405180910390fd5b505050565b80600860008473ffffffffffffffffffffffffffffffffffffffff1673ffffffffffffffffffffffffffffffffffffffff168152602001908152602001600020819055505050565b60008060008060048581548110613d0857fe5b9060005260206000200160009054906101000a900473ffffffffffffffffffffffffffffffffffffffff1693508373ffffffffffffffffffffffffffffffffffffffff166370a08231876040518263ffffffff1660e01b8152600401613d6e9190615d62565b60206040518083038186803b158015613d8657600080fd5b505afa158015613d9a573d6000803e3d6000fd5b505050506040513d601f19601f82011682018060405250810190613dbe9190615cd3565b92506001831115613ef157600d60009054906101000a900473ffffffffffffffffffffffffffffffffffffffff1673ffffffffffffffffffffffffffffffffffffffff1663b66102df8486600e60009054906101000a900473ffffffffffffffffffffffffffffffffffffffff166040518463ffffffff1660e01b8152600401613e4a93929190615dfe565b60206040518083038186803b158015613e6257600080fd5b505afa158015613e76573d6000803e3d6000fd5b505050506040513d601f19601f82011682018060405250810190613e9a9190615cd3565b9150613eee600560008673ffffffffffffffffffffffffffffffffffffffff1673ffffffffffffffffffffffffffffffffffffffff1681526020019081526020016000205483614b5690919063ffffffff16565b90505b92959194509250565b60036020528060005260406000206000915054906101000a900460ff1681565b6000613f3183612710614b5690919063ffffffff16565b905060005b613f4a600184614ad390919063ffffffff16565b811015613f8757613f78612710613f6a8685614b5690919063ffffffff16565b614bdc90919063ffffffff16565b91508080600101915050613f36565b50613f9d61271082614bdc90919063ffffffff16565b905092915050565b60076020528060005260406000206000915090505481565b600260009054906101000a900473ffffffffffffffffffffffffffffffffffffffff1681565b6000806000600760008573ffffffffffffffffffffffffffffffffffffffff1673ffffffffffffffffffffffffffffffffffffffff16815260200190815260200160002054905060005b61403561134b565b81101561408357806001901b92506000838316111561407657600061405a8683613cf5565b5092505050614072818661512690919063ffffffff16565b9450505b808060010191505061402d565b505050919050565b600060019054906101000a900473ffffffffffffffffffffffffffffffffffffffff1673ffffffffffffffffffffffffffffffffffffffff16635f259aba336040518263ffffffff1660e01b8152600401808273ffffffffffffffffffffffffffffffffffffffff16815260200191505060206040518083038186803b15801561411457600080fd5b505afa158015614128573d6000803e3d6000fd5b505050506040513d602081101561413e57600080fd5b81019080805190602001909291905050506040518060400160405280600481526020017f41434c32000000000000000000000000000000000000000000000000000000008152509061422b576040517f08c379a00000000000000000000000000000000000000000000000000000000081526004018080602001828103825283818151815260200191508051906020019080838360005b838110156141f05780820151818401526020810190506141d5565b50505050905090810190601f16801561421d5780820380516001836020036101000a031916815260200191505b509250505060405180910390fd5b50600073ffffffffffffffffffffffffffffffffffffffff168173ffffffffffffffffffffffffffffffffffffffff1614156040518060400160405280600281526020017f5a30000000000000000000000000000000000000000000000000000000000000815250906142d4576040517f08c379a00000000000000000000000000000000000000000000000000000000081526004016142cb9190615dc1565b60405180910390fd5b50600073ffffffffffffffffffffffffffffffffffffffff16600260009054906101000a900473ffffffffffffffffffffffffffffffffffffffff1673ffffffffffffffffffffffffffffffffffffffff16146040518060400160405280600381526020017f43464700000000000000000000000000000000000000000000000000000000008152509061439e576040517f08c379a00000000000000000000000000000000000000000000000000000000081526004016143959190615dc1565b60405180910390fd5b5080600260006101000a81548173ffffffffffffffffffffffffffffffffffffffff021916908373ffffffffffffffffffffffffffffffffffffffff1602179055508073ffffffffffffffffffffffffffffffffffffffff1663570a7af26040518163ffffffff1660e01b815260040160206040518083038186803b15801561442657600080fd5b505afa15801561443a573d6000803e3d6000fd5b505050506040513d601f19601f8201168201806040525081019061445e9190615caa565b600f60006101000a81548173ffffffffffffffffffffffffffffffffffffffff021916908373ffffffffffffffffffffffffffffffffffffffff160217905550600e60009054906101000a900473ffffffffffffffffffffffffffffffffffffffff1673ffffffffffffffffffffffffffffffffffffffff16600f60009054906101000a900473ffffffffffffffffffffffffffffffffffffffff1673ffffffffffffffffffffffffffffffffffffffff16632495a5996040518163ffffffff1660e01b815260040160206040518083038186803b15801561453f57600080fd5b505afa158015614553573d6000803e3d6000fd5b505050506040513d601f19601f820116820180604052508101906145779190615caa565b73ffffffffffffffffffffffffffffffffffffffff16146040518060400160405280600381526020017f434630000000000000000000000000000000000000000000000000000000000081525090614605576040517f08c379a00000000000000000000000000000000000000000000000000000000081526004016145fc9190615dc1565b60405180910390fd5b5050565b600061464261461783611810565b614634612710614626866139b7565b614b5690919063ffffffff16565b614bdc90919063ffffffff16565b9050919050565b600b60003373ffffffffffffffffffffffffffffffffffffffff1673ffffffffffffffffffffffffffffffffffffffff16815260200190815260200160002060009054906101000a900460ff166040518060400160405280600381526020017f43463400000000000000000000000000000000000000000000000000000000008152509061470d576040517f08c379a00000000000000000000000000000000000000000000000000000000081526004016147049190615dc1565b60405180910390fd5b506147188584614f18565b6000600d60009054906101000a900473ffffffffffffffffffffffffffffffffffffffff1673ffffffffffffffffffffffffffffffffffffffff1663b66102df8487601060009054906101000a900473ffffffffffffffffffffffffffffffffffffffff166040518463ffffffff1660e01b815260040161479b93929190615dfe565b60206040518083038186803b1580156147b357600080fd5b505afa1580156147c7573d6000803e3d6000fd5b505050506040513d601f19601f820116820180604052508101906147eb9190615cd3565b90506000600d60009054906101000a900473ffffffffffffffffffffffffffffffffffffffff1673ffffffffffffffffffffffffffffffffffffffff1663b66102df8487601060009054906101000a900473ffffffffffffffffffffffffffffffffffffffff166040518463ffffffff1660e01b815260040161487093929190615dfe565b60206040518083038186803b15801561488857600080fd5b505afa15801561489c573d6000803e3d6000fd5b505050506040513d601f19601f820116820180604052508101906148c09190615cd3565b90506148cd8783836151ae565b50505050505050565b600260009054906101000a900473ffffffffffffffffffffffffffffffffffffffff1673ffffffffffffffffffffffffffffffffffffffff163373ffffffffffffffffffffffffffffffffffffffff16146040518060400160405280600381526020017f43463300000000000000000000000000000000000000000000000000000000008152509061499e576040517f08c379a00000000000000000000000000000000000000000000000000000000081526004016149959190615dc1565b60405180910390fd5b506001600760008373ffffffffffffffffffffffffffffffffffffffff1673ffffffffffffffffffffffffffffffffffffffff168152602001908152602001600020819055506001600860008373ffffffffffffffffffffffffffffffffffffffff1673ffffffffffffffffffffffffffffffffffffffff1681526020019081526020016000208190555050565b60125481565b60066020528060005260406000206000915090505481565b6000600360008373ffffffffffffffffffffffffffffffffffffffff1673ffffffffffffffffffffffffffffffffffffffff16815260200190815260200160002060009054906101000a900460ff169050919050565b600c6020528060005260406000206000915054906101000a900473ffffffffffffffffffffffffffffffffffffffff1681565b600082821115614b4b576040517f08c379a000000000000000000000000000000000000000000000000000000000815260040180806020018281038252601e8152602001807f536166654d6174683a207375627472616374696f6e206f766572666c6f77000081525060200191505060405180910390fd5b818303905092915050565b600080831415614b695760009050614bd6565b6000828402905082848281614b7a57fe5b0414614bd1576040517f08c379a0000000000000000000000000000000000000000000000000000000008152600401808060200182810382526021815260200180615f576021913960400191505060405180910390fd5b809150505b92915050565b6000808211614c53576040517f08c379a000000000000000000000000000000000000000000000000000000000815260040180806020018281038252601a8152602001807f536166654d6174683a206469766973696f6e206279207a65726f00000000000081525060200191505060405180910390fd5b818381614c5c57fe5b04905092915050565b614c6d612b33565b614cdf576040517f08c379a00000000000000000000000000000000000000000000000000000000081526004018080602001828103825260148152602001807f5061757361626c653a206e6f742070617573656400000000000000000000000081525060200191505060405180910390fd5b60008060006101000a81548160ff0219169083151502179055507f5db9ee0a495bf2e6ff9c91a7834c1ba4fdd244a5e8aa4e537bd38aeae4b073aa614d22615a69565b604051808273ffffffffffffffffffffffffffffffffffffffff16815260200191505060405180910390a1565b600073ffffffffffffffffffffffffffffffffffffffff16600260009054906101000a900473ffffffffffffffffffffffffffffffffffffffff1673ffffffffffffffffffffffffffffffffffffffff1614614ee7576000614dc9614db8601154601254613f1a565b612710614ad390919063ffffffff16565b9050600260009054906101000a900473ffffffffffffffffffffffffffffffffffffffff1673ffffffffffffffffffffffffffffffffffffffff16633915ffaa6040518163ffffffff1660e01b815260040160206040518083038186803b158015614e3357600080fd5b505afa158015614e47573d6000803e3d6000fd5b505050506040513d601f19601f82011682018060405250810190614e6b9190615cd3565b81106040518060400160405280600381526020017f434642000000000000000000000000000000000000000000000000000000000081525090614ee4576040517f08c379a0000000000000000000000000000000000000000000000000000000008152600401614edb9190615dc1565b60405180910390fd5b50505b565b6000614ef88360000183615a71565b60001c905092915050565b6000614f1182600001615af4565b9050919050565b614f21816133bb565b6000600660008373ffffffffffffffffffffffffffffffffffffffff1673ffffffffffffffffffffffffffffffffffffffff16815260200190815260200160002054600760008573ffffffffffffffffffffffffffffffffffffffff1673ffffffffffffffffffffffffffffffffffffffff1681526020019081526020016000205416141561506f57600660008273ffffffffffffffffffffffffffffffffffffffff1673ffffffffffffffffffffffffffffffffffffffff16815260200190815260200160002054600760008473ffffffffffffffffffffffffffffffffffffffff1673ffffffffffffffffffffffffffffffffffffffff1681526020019081526020016000205417600760008473ffffffffffffffffffffffffffffffffffffffff1673ffffffffffffffffffffffffffffffffffffffff168152602001908152602001600020819055505b5050565b600061509b836000018373ffffffffffffffffffffffffffffffffffffffff1660001b615b05565b905092915050565b81601181905550806012819055506150b9614d4f565b7f727652fff0946c19c233fd3eab5fc03db9e9fdd907e902d9136c2a9cac47101c82826040516150ea929190615e35565b60405180910390a15050565b600061511e836000018373ffffffffffffffffffffffffffffffffffffffff1660001b615bed565b905092915050565b6000808284019050838110156151a4576040517f08c379a000000000000000000000000000000000000000000000000000000000815260040180806020018281038252601b8152602001807f536166654d6174683a206164646974696f6e206f766572666c6f77000000000081525060200191505060405180910390fd5b8091505092915050565b6151c360115483614b5690919063ffffffff16565b6151d861271083614b5690919063ffffffff16565b1180156152265750601254600860008573ffffffffffffffffffffffffffffffffffffffff1673ffffffffffffffffffffffffffffffffffffffff1681526020019081526020016000205411155b1561527f57600860008473ffffffffffffffffffffffffffffffffffffffff1673ffffffffffffffffffffffffffffffffffffffff1681526020019081526020016000206000815480929190600101919050555061534b565b61271061528b84614609565b10156040518060400160405280600381526020017f434635000000000000000000000000000000000000000000000000000000000081525090615304576040517f08c379a00000000000000000000000000000000000000000000000000000000081526004016152fb9190615dc1565b60405180910390fd5b506001600860008573ffffffffffffffffffffffffffffffffffffffff1673ffffffffffffffffffffffffffffffffffffffff168152602001908152602001600020819055505b505050565b615358612b33565b156153cb576040517f08c379a00000000000000000000000000000000000000000000000000000000081526004018080602001828103825260108152602001807f5061757361626c653a207061757365640000000000000000000000000000000081525060200191505060405180910390fd5b60016000806101000a81548160ff0219169083151502179055507f62e78cea01bee320cd4e420270b5ea74000d11b0c9f74754ebdbfc544b05a25861540e615a69565b604051808273ffffffffffffffffffffffffffffffffffffffff16815260200191505060405180910390a1565b600073ffffffffffffffffffffffffffffffffffffffff168273ffffffffffffffffffffffffffffffffffffffff1614156040518060400160405280600281526020017f5a30000000000000000000000000000000000000000000000000000000000000815250906154e3576040517f08c379a00000000000000000000000000000000000000000000000000000000081526004016154da9190615dc1565b60405180910390fd5b50600081118015615555575060056000600e60009054906101000a900473ffffffffffffffffffffffffffffffffffffffff1673ffffffffffffffffffffffffffffffffffffffff1673ffffffffffffffffffffffffffffffffffffffff168152602001908152602001600020548111155b6040518060400160405280600381526020017f4346310000000000000000000000000000000000000000000000000000000000815250906155cc576040517f08c379a00000000000000000000000000000000000000000000000000000000081526004016155c39190615dc1565b60405180910390fd5b506000600660008473ffffffffffffffffffffffffffffffffffffffff1673ffffffffffffffffffffffffffffffffffffffff1681526020019081526020016000205411806156215750610100600480549050105b6040518060400160405280600381526020017f434636000000000000000000000000000000000000000000000000000000000081525090615698576040517f08c379a000000000000000000000000000000000000000000000000000000000815260040161568f9190615dc1565b60405180910390fd5b5060008273ffffffffffffffffffffffffffffffffffffffff166370a08231306040518263ffffffff1660e01b81526004016156d49190615d62565b60206040518083038186803b1580156156ec57600080fd5b505afa158015615700573d6000803e3d6000fd5b505050506040513d601f19601f820116820180604052508101906157249190615cd3565b101561572f57600080fd5b6000600d60009054906101000a900473ffffffffffffffffffffffffffffffffffffffff1673ffffffffffffffffffffffffffffffffffffffff1663743b908684600e60009054906101000a900473ffffffffffffffffffffffffffffffffffffffff166040518363ffffffff1660e01b81526004016157b0929190615d7d565b60206040518083038186803b1580156157c857600080fd5b505afa1580156157dc573d6000803e3d6000fd5b505050506040513d601f19601f820116820180604052508101906158009190615cd3565b116040518060400160405280600381526020017f434645000000000000000000000000000000000000000000000000000000000081525090615878576040517f08c379a000000000000000000000000000000000000000000000000000000000815260040161586f9190615dc1565b60405180910390fd5b50600360008373ffffffffffffffffffffffffffffffffffffffff1673ffffffffffffffffffffffffffffffffffffffff16815260200190815260200160002060009054906101000a900460ff166159d3576001600360008473ffffffffffffffffffffffffffffffffffffffff1673ffffffffffffffffffffffffffffffffffffffff16815260200190815260200160002060006101000a81548160ff0219169083151502179055506004805490506001901b600660008473ffffffffffffffffffffffffffffffffffffffff1673ffffffffffffffffffffffffffffffffffffffff168152602001908152602001600020819055506004829080600181540180825580915050600190039060005260206000200160009091909190916101000a81548173ffffffffffffffffffffffffffffffffffffffff021916908373ffffffffffffffffffffffffffffffffffffffff1602179055505b80600560008473ffffffffffffffffffffffffffffffffffffffff1673ffffffffffffffffffffffffffffffffffffffff168152602001908152602001600020819055508173ffffffffffffffffffffffffffffffffffffffff167fa52fb6bfa514a4ddcb31de40a5f6c20d767db1f921a8b7747973d93dc5da7a0282604051615a5d9190615de3565b60405180910390a25050565b600033905090565b600081836000018054905011615ad2576040517f08c379a0000000000000000000000000000000000000000000000000000000008152600401808060200182810382526022815260200180615f356022913960400191505060405180910390fd5b826000018281548110615ae157fe5b9060005260206000200154905092915050565b600081600001805490509050919050565b60008083600101600084815260200190815260200160002054905060008114615be15760006001820390506000600186600001805490500390506000866000018281548110615b5057fe5b9060005260206000200154905080876000018481548110615b6d57fe5b9060005260206000200181905550600183018760010160008381526020019081526020016000208190555086600001805480615ba557fe5b60019003818190600052602060002001600090559055866001016000878152602001908152602001600020600090556001945050505050615be7565b60009150505b92915050565b6000615bf98383615c5d565b615c52578260000182908060018154018082558091505060019003906000526020600020016000909190919091505582600001805490508360010160008481526020019081526020016000208190555060019050615c57565b600090505b92915050565b600080836001016000848152602001908152602001600020541415905092915050565b600081519050615c8f81615f06565b92915050565b600081519050615ca481615f1d565b92915050565b600060208284031215615cbc57600080fd5b6000615cca84828501615c80565b91505092915050565b600060208284031215615ce557600080fd5b6000615cf384828501615c95565b91505092915050565b615d0581615e7a565b82525050565b615d1481615e8c565b82525050565b6000615d2582615e5e565b615d2f8185615e69565b9350615d3f818560208601615ec2565b615d4881615ef5565b840191505092915050565b615d5c81615eb8565b82525050565b6000602082019050615d776000830184615cfc565b92915050565b6000604082019050615d926000830185615cfc565b615d9f6020830184615cfc565b9392505050565b6000602082019050615dbb6000830184615d0b565b92915050565b60006020820190508181036000830152615ddb8184615d1a565b905092915050565b6000602082019050615df86000830184615d53565b92915050565b6000606082019050615e136000830186615d53565b615e206020830185615cfc565b615e2d6040830184615cfc565b949350505050565b6000604082019050615e4a6000830185615d53565b615e576020830184615d53565b9392505050565b600081519050919050565b600082825260208201905092915050565b6000615e8582615e98565b9050919050565b60008115159050919050565b600073ffffffffffffffffffffffffffffffffffffffff82169050919050565b6000819050919050565b60005b83811015615ee0578082015181840152602081019050615ec5565b83811115615eef576000848401525b50505050565b6000601f19601f8301169050919050565b615f0f81615e7a565b8114615f1a57600080fd5b50565b615f2681615eb8565b8114615f3157600080fd5b5056fe456e756d657261626c655365743a20696e646578206f7574206f6620626f756e6473536166654d6174683a206d756c7469706c69636174696f6e206f766572666c6f77a264697066735822122019e5509103a0201651da94b07b8d54866b8fc781bcd4c5a21f049edc2b720e6e64736f6c63430007060033536166654d6174683a206d756c7469706c69636174696f6e206f766572666c6f77",
  "linkReferences": {},
  "deployedLinkReferences": {}
}