{
  "_format": "hh-sol-artifact-1",
  "contractName": "CreditFilterMock",
  "sourceName": "contracts/mocks/credit/CreditFilterMock.sol",
  "abi": [
    {
      "inputs": [
        {
          "internalType": "address",
          "name": "_addressProvider",
          "type": "address"
        },
        {
          "internalType": "address",
          "name": "_underlyingToken",
          "type": "address"
        }
      ],
      "stateMutability": "nonpayable",
      "type": "constructor"
    },
    {
      "anonymous": false,
      "inputs": [
        {
          "indexed": true,
          "internalType": "address",
          "name": "protocol",
          "type": "address"
        },
        {
          "indexed": true,
          "internalType": "address",
          "name": "adapter",
          "type": "address"
        }
      ],
      "name": "ContractAllowed",
      "type": "event"
    },
    {
      "anonymous": false,
      "inputs": [
        {
          "indexed": false,
          "internalType": "uint256",
          "name": "chiThreshold",
          "type": "uint256"
        },
        {
          "indexed": false,
          "internalType": "uint256",
          "name": "fastCheckDelay",
          "type": "uint256"
        }
      ],
      "name": "NewFastCheckParameters",
      "type": "event"
    },
    {
      "anonymous": false,
      "inputs": [
        {
          "indexed": false,
          "internalType": "address",
          "name": "account",
          "type": "address"
        }
      ],
      "name": "Paused",
      "type": "event"
    },
    {
      "anonymous": false,
      "inputs": [
        {
          "indexed": true,
          "internalType": "address",
          "name": "token",
          "type": "address"
        },
        {
          "indexed": false,
          "internalType": "uint256",
          "name": "liquidityThreshold",
          "type": "uint256"
        }
      ],
      "name": "TokenAllowed",
      "type": "event"
    },
    {
      "anonymous": false,
      "inputs": [
        {
          "indexed": false,
          "internalType": "address",
          "name": "account",
          "type": "address"
        }
      ],
      "name": "Unpaused",
      "type": "event"
    },
    {
      "inputs": [
        {
          "internalType": "address",
          "name": "",
          "type": "address"
        }
      ],
      "name": "_allowedTokensMap",
      "outputs": [
        {
          "internalType": "bool",
          "name": "",
          "type": "bool"
        }
      ],
      "stateMutability": "view",
      "type": "function"
    },
    {
      "inputs": [
        {
          "internalType": "address",
          "name": "allowedContract",
          "type": "address"
        },
        {
          "internalType": "address",
          "name": "adapter",
          "type": "address"
        }
      ],
      "name": "allowContract",
      "outputs": [],
      "stateMutability": "nonpayable",
      "type": "function"
    },
    {
      "inputs": [
        {
          "internalType": "address",
          "name": "token",
          "type": "address"
        },
        {
          "internalType": "uint256",
          "name": "liquidationThreshold",
          "type": "uint256"
        }
      ],
      "name": "allowToken",
      "outputs": [],
      "stateMutability": "nonpayable",
      "type": "function"
    },
    {
      "inputs": [
        {
          "internalType": "address",
          "name": "",
          "type": "address"
        }
      ],
      "name": "allowedAdapters",
      "outputs": [
        {
          "internalType": "bool",
          "name": "",
          "type": "bool"
        }
      ],
      "stateMutability": "view",
      "type": "function"
    },
    {
      "inputs": [
        {
          "internalType": "uint256",
          "name": "",
          "type": "uint256"
        }
      ],
      "name": "allowedContracts",
      "outputs": [
        {
          "internalType": "address",
          "name": "",
          "type": "address"
        }
      ],
      "stateMutability": "view",
      "type": "function"
    },
    {
      "inputs": [],
      "name": "allowedContractsCount",
      "outputs": [
        {
          "internalType": "uint256",
          "name": "",
          "type": "uint256"
        }
      ],
      "stateMutability": "view",
      "type": "function"
    },
    {
      "inputs": [
        {
          "internalType": "uint256",
          "name": "",
          "type": "uint256"
        }
      ],
      "name": "allowedTokens",
      "outputs": [
        {
          "internalType": "address",
          "name": "",
          "type": "address"
        }
      ],
      "stateMutability": "view",
      "type": "function"
    },
    {
      "inputs": [],
      "name": "allowedTokensCount",
      "outputs": [
        {
          "internalType": "uint256",
          "name": "",
          "type": "uint256"
        }
      ],
      "stateMutability": "view",
      "type": "function"
    },
    {
      "inputs": [
        {
          "internalType": "address",
          "name": "creditAccount",
          "type": "address"
        }
      ],
      "name": "calcCreditAccountAccruedInterest",
      "outputs": [
        {
          "internalType": "uint256",
          "name": "",
          "type": "uint256"
        }
      ],
      "stateMutability": "view",
      "type": "function"
    },
    {
      "inputs": [
        {
          "internalType": "address",
          "name": "creditAccount",
          "type": "address"
        }
      ],
      "name": "calcCreditAccountHealthFactor",
      "outputs": [
        {
          "internalType": "uint256",
          "name": "",
          "type": "uint256"
        }
      ],
      "stateMutability": "view",
      "type": "function"
    },
    {
      "inputs": [
        {
          "internalType": "address",
          "name": "creditAccount",
          "type": "address"
        }
      ],
      "name": "calcThresholdWeightedValue",
      "outputs": [
        {
          "internalType": "uint256",
          "name": "total",
          "type": "uint256"
        }
      ],
      "stateMutability": "view",
      "type": "function"
    },
    {
      "inputs": [
        {
          "internalType": "address",
          "name": "creditAccount",
          "type": "address"
        }
      ],
      "name": "calcTotalValue",
      "outputs": [
        {
          "internalType": "uint256",
          "name": "total",
          "type": "uint256"
        }
      ],
      "stateMutability": "view",
      "type": "function"
    },
    {
      "inputs": [
        {
          "internalType": "address",
          "name": "creditAccount",
          "type": "address"
        },
        {
          "internalType": "address",
          "name": "token",
          "type": "address"
        }
      ],
      "name": "checkAndEnableToken",
      "outputs": [],
      "stateMutability": "nonpayable",
      "type": "function"
    },
    {
      "inputs": [
        {
          "internalType": "address",
          "name": "creditAccount",
          "type": "address"
        },
        {
          "internalType": "address",
          "name": "tokenIn",
          "type": "address"
        },
        {
          "internalType": "address",
          "name": "tokenOut",
          "type": "address"
        },
        {
          "internalType": "uint256",
          "name": "amountIn",
          "type": "uint256"
        },
        {
          "internalType": "uint256",
          "name": "amountOut",
          "type": "uint256"
        }
      ],
      "name": "checkCollateralChange",
      "outputs": [],
      "stateMutability": "nonpayable",
      "type": "function"
    },
    {
      "inputs": [],
      "name": "chiThreshold",
      "outputs": [
        {
          "internalType": "uint256",
          "name": "",
          "type": "uint256"
        }
      ],
      "stateMutability": "view",
      "type": "function"
    },
    {
      "inputs": [
        {
          "internalType": "address",
          "name": "_poolService",
          "type": "address"
        }
      ],
      "name": "connectCreditManager",
      "outputs": [],
      "stateMutability": "nonpayable",
      "type": "function"
    },
    {
      "inputs": [
        {
          "internalType": "address",
          "name": "",
          "type": "address"
        }
      ],
      "name": "contractToAdapter",
      "outputs": [
        {
          "internalType": "address",
          "name": "",
          "type": "address"
        }
      ],
      "stateMutability": "view",
      "type": "function"
    },
    {
      "inputs": [],
      "name": "creditManager",
      "outputs": [
        {
          "internalType": "address",
          "name": "",
          "type": "address"
        }
      ],
      "stateMutability": "view",
      "type": "function"
    },
    {
      "inputs": [
        {
          "internalType": "address",
          "name": "",
          "type": "address"
        }
      ],
      "name": "enabledTokens",
      "outputs": [
        {
          "internalType": "uint256",
          "name": "",
          "type": "uint256"
        }
      ],
      "stateMutability": "view",
      "type": "function"
    },
    {
      "inputs": [
        {
          "internalType": "address",
          "name": "",
          "type": "address"
        }
      ],
      "name": "fastCheckBlock",
      "outputs": [
        {
          "internalType": "uint256",
          "name": "",
          "type": "uint256"
        }
      ],
      "stateMutability": "view",
      "type": "function"
    },
    {
      "inputs": [],
      "name": "fastCheckDelay",
      "outputs": [
        {
          "internalType": "uint256",
          "name": "",
          "type": "uint256"
        }
      ],
      "stateMutability": "view",
      "type": "function"
    },
    {
      "inputs": [
        {
          "internalType": "address",
          "name": "creditAccount",
          "type": "address"
        },
        {
          "internalType": "uint256",
          "name": "id",
          "type": "uint256"
        }
      ],
      "name": "getCreditAccountTokenById",
      "outputs": [
        {
          "internalType": "address",
          "name": "token",
          "type": "address"
        },
        {
          "internalType": "uint256",
          "name": "balance",
          "type": "uint256"
        },
        {
          "internalType": "uint256",
          "name": "tv",
          "type": "uint256"
        },
        {
          "internalType": "uint256",
          "name": "tvw",
          "type": "uint256"
        }
      ],
      "stateMutability": "view",
      "type": "function"
    },
    {
      "inputs": [
        {
          "internalType": "address",
          "name": "creditAccount",
          "type": "address"
        }
      ],
      "name": "initEnabledTokens",
      "outputs": [],
      "stateMutability": "nonpayable",
      "type": "function"
    },
    {
      "inputs": [
        {
          "internalType": "address",
          "name": "token",
          "type": "address"
        }
      ],
      "name": "isTokenAllowed",
      "outputs": [
        {
          "internalType": "bool",
          "name": "",
          "type": "bool"
        }
      ],
      "stateMutability": "view",
      "type": "function"
    },
    {
      "inputs": [],
      "name": "pause",
      "outputs": [],
      "stateMutability": "nonpayable",
      "type": "function"
    },
    {
      "inputs": [],
      "name": "paused",
      "outputs": [
        {
          "internalType": "bool",
          "name": "",
          "type": "bool"
        }
      ],
      "stateMutability": "view",
      "type": "function"
    },
    {
      "inputs": [],
      "name": "poolService",
      "outputs": [
        {
          "internalType": "address",
          "name": "",
          "type": "address"
        }
      ],
      "stateMutability": "view",
      "type": "function"
    },
    {
      "inputs": [
        {
          "internalType": "address",
          "name": "adapter",
          "type": "address"
        }
      ],
      "name": "revertIfAdapterNotAllowed",
      "outputs": [],
      "stateMutability": "view",
      "type": "function"
    },
    {
      "inputs": [
        {
          "internalType": "address",
          "name": "token",
          "type": "address"
        }
      ],
      "name": "revertIfTokenNotAllowed",
      "outputs": [],
      "stateMutability": "view",
      "type": "function"
    },
    {
      "inputs": [
        {
          "internalType": "address",
          "name": "creditAccount",
          "type": "address"
        },
        {
          "internalType": "uint256",
          "name": "tokenMask",
          "type": "uint256"
        }
      ],
      "name": "setEnabledTokens",
      "outputs": [],
      "stateMutability": "nonpayable",
      "type": "function"
    },
    {
      "inputs": [
        {
          "internalType": "address",
          "name": "creditAccount",
          "type": "address"
        },
        {
          "internalType": "uint256",
          "name": "blockNum",
          "type": "uint256"
        }
      ],
      "name": "setFastCheckBlock",
      "outputs": [],
      "stateMutability": "nonpayable",
      "type": "function"
    },
    {
      "inputs": [
        {
          "internalType": "uint256",
          "name": "_chiThreshold",
          "type": "uint256"
        },
        {
          "internalType": "uint256",
          "name": "_fastCheckDelay",
          "type": "uint256"
        }
      ],
      "name": "setupFastCheckParameters",
      "outputs": [],
      "stateMutability": "nonpayable",
      "type": "function"
    },
    {
      "inputs": [
        {
          "internalType": "address",
          "name": "",
          "type": "address"
        }
      ],
      "name": "tokenLiquidationThresholds",
      "outputs": [
        {
          "internalType": "uint256",
          "name": "",
          "type": "uint256"
        }
      ],
      "stateMutability": "view",
      "type": "function"
    },
    {
      "inputs": [
        {
          "internalType": "address",
          "name": "",
          "type": "address"
        }
      ],
      "name": "tokenMasksMap",
      "outputs": [
        {
          "internalType": "uint256",
          "name": "",
          "type": "uint256"
        }
      ],
      "stateMutability": "view",
      "type": "function"
    },
    {
      "inputs": [],
      "name": "underlyingToken",
      "outputs": [
        {
          "internalType": "address",
          "name": "",
          "type": "address"
        }
      ],
      "stateMutability": "view",
      "type": "function"
    },
    {
      "inputs": [],
      "name": "unpause",
      "outputs": [],
      "stateMutability": "nonpayable",
      "type": "function"
    },
    {
      "inputs": [],
      "name": "wethAddress",
      "outputs": [
        {
          "internalType": "address",
          "name": "",
          "type": "address"
        }
      ],
      "stateMutability": "view",
      "type": "function"
    }
  ],
  "bytecode": "0x60a06040523480156200001157600080fd5b50604051620046aa380380620046aa833981810160405260408110156200003757600080fd5b81019080805190602001909291908051906020019092919050505081818160008060006101000a81548160ff0219169083151502179055508073ffffffffffffffffffffffffffffffffffffffff1663087376956040518163ffffffff1660e01b815260040160206040518083038186803b158015620000b657600080fd5b505afa158015620000cb573d6000803e3d6000fd5b505050506040513d6020811015620000e257600080fd5b8101908080519060200190929190505050600060016101000a81548173ffffffffffffffffffffffffffffffffffffffff021916908373ffffffffffffffffffffffffffffffffffffffff160217905550508173ffffffffffffffffffffffffffffffffffffffff1663fca513a86040518163ffffffff1660e01b815260040160206040518083038186803b1580156200017b57600080fd5b505afa15801562000190573d6000803e3d6000fd5b505050506040513d6020811015620001a757600080fd5b810190808051906020019092919050505073ffffffffffffffffffffffffffffffffffffffff1660808173ffffffffffffffffffffffffffffffffffffffff1660601b815250508173ffffffffffffffffffffffffffffffffffffffff16634c252f916040518163ffffffff1660e01b815260040160206040518083038186803b1580156200023557600080fd5b505afa1580156200024a573d6000803e3d6000fd5b505050506040513d60208110156200026157600080fd5b8101908080519060200190929190505050600d60006101000a81548173ffffffffffffffffffffffffffffffffffffffff021916908373ffffffffffffffffffffffffffffffffffffffff16021790555080600b60006101000a81548173ffffffffffffffffffffffffffffffffffffffff021916908373ffffffffffffffffffffffffffffffffffffffff1602179055506200032c600b60009054906101000a900473ffffffffffffffffffffffffffffffffffffffff1660c861251c036200033f60201b60201c565b612648600e8190555050505050620009cc565b600060019054906101000a900473ffffffffffffffffffffffffffffffffffffffff1673ffffffffffffffffffffffffffffffffffffffff16635f259aba336040518263ffffffff1660e01b8152600401808273ffffffffffffffffffffffffffffffffffffffff16815260200191505060206040518083038186803b158015620003c957600080fd5b505afa158015620003de573d6000803e3d6000fd5b505050506040513d6020811015620003f557600080fd5b81019080805190602001909291905050506040518060400160405280600281526020017f4c3300000000000000000000000000000000000000000000000000000000000081525090620004e6576040517f08c379a00000000000000000000000000000000000000000000000000000000081526004018080602001828103825283818151815260200191508051906020019080838360005b83811015620004aa5780820151818401526020810190506200048d565b50505050905090810190601f168015620004d85780820380516001836020036101000a031916815260200191505b509250505060405180910390fd5b50600073ffffffffffffffffffffffffffffffffffffffff168273ffffffffffffffffffffffffffffffffffffffff1614156040518060400160405280600281526020017f5a3000000000000000000000000000000000000000000000000000000000000081525090620005f8576040517f08c379a00000000000000000000000000000000000000000000000000000000081526004018080602001828103825283818151815260200191508051906020019080838360005b83811015620005bc5780820151818401526020810190506200059f565b50505050905090810190601f168015620005ea5780820380516001836020036101000a031916815260200191505b509250505060405180910390fd5b506000811180156200060f575060c861251c038111155b6040518060400160405280600281526020017f433100000000000000000000000000000000000000000000000000000000000081525090620006ef576040517f08c379a00000000000000000000000000000000000000000000000000000000081526004018080602001828103825283818151815260200191508051906020019080838360005b83811015620006b357808201518184015260208101905062000696565b50505050905090810190601f168015620006e15780820380516001836020036101000a031916815260200191505b509250505060405180910390fd5b50610100600380549050106040518060400160405280600281526020017f433600000000000000000000000000000000000000000000000000000000000081525090620007da576040517f08c379a00000000000000000000000000000000000000000000000000000000081526004018080602001828103825283818151815260200191508051906020019080838360005b838110156200079e57808201518184015260208101905062000781565b50505050905090810190601f168015620007cc5780820380516001836020036101000a031916815260200191505b509250505060405180910390fd5b50600260008373ffffffffffffffffffffffffffffffffffffffff1673ffffffffffffffffffffffffffffffffffffffff16815260200190815260200160002060009054906101000a900460ff1662000936576001600260008473ffffffffffffffffffffffffffffffffffffffff1673ffffffffffffffffffffffffffffffffffffffff16815260200190815260200160002060006101000a81548160ff0219169083151502179055506003805490506001901b600560008473ffffffffffffffffffffffffffffffffffffffff1673ffffffffffffffffffffffffffffffffffffffff168152602001908152602001600020819055506003829080600181540180825580915050600190039060005260206000200160009091909190916101000a81548173ffffffffffffffffffffffffffffffffffffffff021916908373ffffffffffffffffffffffffffffffffffffffff1602179055505b80600460008473ffffffffffffffffffffffffffffffffffffffff1673ffffffffffffffffffffffffffffffffffffffff168152602001908152602001600020819055508173ffffffffffffffffffffffffffffffffffffffff167fa52fb6bfa514a4ddcb31de40a5f6c20d767db1f921a8b7747973d93dc5da7a02826040518082815260200191505060405180910390a25050565b60805160601c613cb1620009f9600039806128d95280612f1552806131a052806132ae5250613cb16000f3fe608060405234801561001057600080fd5b50600436106102275760003560e01c80638acb063c11610130578063b451cecc116100b8578063e1c8ef0d1161007c578063e1c8ef0d14610ab7578063e54fe9c814610b4f578063f67c5bd014610b93578063f9eaee0d14610beb578063fdd5764514610c4557610227565b8063b451cecc14610937578063c12c21c01461098f578063c7de38a6146109c3578063cf33d95514610a1b578063dfd5946514610a5f57610227565b8063a147c6c6116100ff578063a147c6c61461075c578063a4a01d5b146107aa578063a77e0ba814610802578063af0a650214610850578063b2d0d86b146108dd57610227565b80638acb063c1461066a5780638deb3beb146106a257806390b1300a146106e657806395181be81461073e57610227565b80635094cb4f116101b35780635c975abb116101825780635c975abb146105405780635e5f2e26146105605780637bccacee146105b85780637dd0ba821461061c5780638456cb591461066057610227565b80635094cb4f1461043257806350e036ff1461048a57806351e3f160146104a8578063570a7af21461050c57610227565b80633bdfe4f5116101fa5780633bdfe4f5146103245780633f4ba83a1461037e57806346d843141461038857806347dedfc9146103e05780634f0e0ef3146103fe57610227565b8063044078b31461022c57806320a05ff71461027a5780632495a599146102985780633192195c146102cc575b600080fd5b6102786004803603604081101561024257600080fd5b81019080803573ffffffffffffffffffffffffffffffffffffffff16906020019092919080359060200190929190505050610cb3565b005b610282610cfb565b6040518082815260200191505060405180910390f35b6102a0610d08565b604051808273ffffffffffffffffffffffffffffffffffffffff16815260200191505060405180910390f35b61030e600480360360208110156102e257600080fd5b81019080803573ffffffffffffffffffffffffffffffffffffffff169060200190929190505050610d2e565b6040518082815260200191505060405180910390f35b6103666004803603602081101561033a57600080fd5b81019080803573ffffffffffffffffffffffffffffffffffffffff169060200190929190505050610f03565b60405180821515815260200191505060405180910390f35b610386610f23565b005b6103ca6004803603602081101561039e57600080fd5b81019080803573ffffffffffffffffffffffffffffffffffffffff1690602001909291905050506110ce565b6040518082815260200191505060405180910390f35b6103e86110e6565b6040518082815260200191505060405180910390f35b6104066110ec565b604051808273ffffffffffffffffffffffffffffffffffffffff16815260200191505060405180910390f35b61045e6004803603602081101561044857600080fd5b8101908080359060200190929190505050611112565b604051808273ffffffffffffffffffffffffffffffffffffffff16815260200191505060405180910390f35b610492611151565b6040518082815260200191505060405180910390f35b61050a600480360360408110156104be57600080fd5b81019080803573ffffffffffffffffffffffffffffffffffffffff169060200190929190803573ffffffffffffffffffffffffffffffffffffffff16906020019092919050505061115e565b005b61051461129a565b604051808273ffffffffffffffffffffffffffffffffffffffff16815260200191505060405180910390f35b6105486112c0565b60405180821515815260200191505060405180910390f35b61058c6004803603602081101561057657600080fd5b81019080803590602001909291905050506112d6565b604051808273ffffffffffffffffffffffffffffffffffffffff16815260200191505060405180910390f35b61061a600480360360408110156105ce57600080fd5b81019080803573ffffffffffffffffffffffffffffffffffffffff169060200190929190803573ffffffffffffffffffffffffffffffffffffffff169060200190929190505050611315565b005b61065e6004803603602081101561063257600080fd5b81019080803573ffffffffffffffffffffffffffffffffffffffff1690602001909291905050506119ba565b005b610668611aa3565b005b6106a06004803603604081101561068057600080fd5b810190808035906020019092919080359060200190929190505050611c4e565b005b6106e4600480360360208110156106b857600080fd5b81019080803573ffffffffffffffffffffffffffffffffffffffff169060200190929190505050611f23565b005b610728600480360360208110156106fc57600080fd5b81019080803573ffffffffffffffffffffffffffffffffffffffff169060200190929190505050612050565b6040518082815260200191505060405180910390f35b61074661210c565b6040518082815260200191505060405180910390f35b6107a86004803603604081101561077257600080fd5b81019080803573ffffffffffffffffffffffffffffffffffffffff16906020019092919080359060200190929190505050612112565b005b6107ec600480360360208110156107c057600080fd5b81019080803573ffffffffffffffffffffffffffffffffffffffff16906020019092919050505061278a565b6040518082815260200191505060405180910390f35b61084e6004803603604081101561081857600080fd5b81019080803573ffffffffffffffffffffffffffffffffffffffff169060200190929190803590602001909291905050506127a2565b005b61089c6004803603604081101561086657600080fd5b81019080803573ffffffffffffffffffffffffffffffffffffffff169060200190929190803590602001909291905050506127ea565b604051808573ffffffffffffffffffffffffffffffffffffffff16815260200184815260200183815260200182815260200194505050505060405180910390f35b61091f600480360360208110156108f357600080fd5b81019080803573ffffffffffffffffffffffffffffffffffffffff169060200190929190505050612a41565b60405180821515815260200191505060405180910390f35b6109796004803603602081101561094d57600080fd5b81019080803573ffffffffffffffffffffffffffffffffffffffff169060200190929190505050612a61565b6040518082815260200191505060405180910390f35b610997612a79565b604051808273ffffffffffffffffffffffffffffffffffffffff16815260200191505060405180910390f35b610a05600480360360208110156109d957600080fd5b81019080803573ffffffffffffffffffffffffffffffffffffffff169060200190929190505050612a9f565b6040518082815260200191505060405180910390f35b610a5d60048036036020811015610a3157600080fd5b81019080803573ffffffffffffffffffffffffffffffffffffffff169060200190929190505050612b44565b005b610aa160048036036020811015610a7557600080fd5b81019080803573ffffffffffffffffffffffffffffffffffffffff169060200190929190505050613028565b6040518082815260200191505060405180910390f35b610b4d600480360360a0811015610acd57600080fd5b81019080803573ffffffffffffffffffffffffffffffffffffffff169060200190929190803573ffffffffffffffffffffffffffffffffffffffff169060200190929190803573ffffffffffffffffffffffffffffffffffffffff1690602001909291908035906020019092919080359060200190929190505050613068565b005b610b9160048036036020811015610b6557600080fd5b81019080803573ffffffffffffffffffffffffffffffffffffffff169060200190929190505050613574565b005b610bd560048036036020811015610ba957600080fd5b81019080803573ffffffffffffffffffffffffffffffffffffffff1690602001909291905050506136ea565b6040518082815260200191505060405180910390f35b610c2d60048036036020811015610c0157600080fd5b81019080803573ffffffffffffffffffffffffffffffffffffffff169060200190929190505050613702565b60405180821515815260200191505060405180910390f35b610c8760048036036020811015610c5b57600080fd5b81019080803573ffffffffffffffffffffffffffffffffffffffff169060200190929190505050613758565b604051808273ffffffffffffffffffffffffffffffffffffffff16815260200191505060405180910390f35b80600660008473ffffffffffffffffffffffffffffffffffffffff1673ffffffffffffffffffffffffffffffffffffffff168152602001908152602001600020819055505050565b6000600380549050905090565b600b60009054906101000a900473ffffffffffffffffffffffffffffffffffffffff1681565b6000808273ffffffffffffffffffffffffffffffffffffffff16631afbb7a46040518163ffffffff1660e01b815260040160206040518083038186803b158015610d7757600080fd5b505afa158015610d8b573d6000803e3d6000fd5b505050506040513d6020811015610da157600080fd5b81019080805190602001909291905050509050610efb8373ffffffffffffffffffffffffffffffffffffffff166317d11a156040518163ffffffff1660e01b815260040160206040518083038186803b158015610dfd57600080fd5b505afa158015610e11573d6000803e3d6000fd5b505050506040513d6020811015610e2757600080fd5b8101908080519060200190929190505050610eed600c60009054906101000a900473ffffffffffffffffffffffffffffffffffffffff1673ffffffffffffffffffffffffffffffffffffffff16630fce70fb6040518163ffffffff1660e01b815260040160206040518083038186803b158015610ea357600080fd5b505afa158015610eb7573d6000803e3d6000fd5b505050506040513d6020811015610ecd57600080fd5b81019080805190602001909291905050508461378b90919063ffffffff16565b61381190919063ffffffff16565b915050919050565b60096020528060005260406000206000915054906101000a900460ff1681565b600060019054906101000a900473ffffffffffffffffffffffffffffffffffffffff1673ffffffffffffffffffffffffffffffffffffffff1663d4eb5db0336040518263ffffffff1660e01b8152600401808273ffffffffffffffffffffffffffffffffffffffff16815260200191505060206040518083038186803b158015610fac57600080fd5b505afa158015610fc0573d6000803e3d6000fd5b505050506040513d6020811015610fd657600080fd5b81019080805190602001909291905050506040518060400160405280600281526020017f4c31000000000000000000000000000000000000000000000000000000000000815250906110c3576040517f08c379a00000000000000000000000000000000000000000000000000000000081526004018080602001828103825283818151815260200191508051906020019080838360005b8381101561108857808201518184015260208101905061106d565b50505050905090810190601f1680156110b55780820380516001836020036101000a031916815260200191505b509250505060405180910390fd5b506110cc61389a565b565b60076020528060005260406000206000915090505481565b600e5481565b600d60009054906101000a900473ffffffffffffffffffffffffffffffffffffffff1681565b6008818154811061112257600080fd5b906000526020600020016000915054906101000a900473ffffffffffffffffffffffffffffffffffffffff1681565b6000600880549050905090565b600160009054906101000a900473ffffffffffffffffffffffffffffffffffffffff1673ffffffffffffffffffffffffffffffffffffffff163373ffffffffffffffffffffffffffffffffffffffff16146040518060400160405280600281526020017f43330000000000000000000000000000000000000000000000000000000000008152509061128b576040517f08c379a00000000000000000000000000000000000000000000000000000000081526004018080602001828103825283818151815260200191508051906020019080838360005b83811015611250578082015181840152602081019050611235565b50505050905090810190601f16801561127d5780820380516001836020036101000a031916815260200191505b509250505060405180910390fd5b506112968282613984565b5050565b600c60009054906101000a900473ffffffffffffffffffffffffffffffffffffffff1681565b60008060009054906101000a900460ff16905090565b600381815481106112e657600080fd5b906000526020600020016000915054906101000a900473ffffffffffffffffffffffffffffffffffffffff1681565b600060019054906101000a900473ffffffffffffffffffffffffffffffffffffffff1673ffffffffffffffffffffffffffffffffffffffff16635f259aba336040518263ffffffff1660e01b8152600401808273ffffffffffffffffffffffffffffffffffffffff16815260200191505060206040518083038186803b15801561139e57600080fd5b505afa1580156113b2573d6000803e3d6000fd5b505050506040513d60208110156113c857600080fd5b81019080805190602001909291905050506040518060400160405280600281526020017f4c33000000000000000000000000000000000000000000000000000000000000815250906114b5576040517f08c379a00000000000000000000000000000000000000000000000000000000081526004018080602001828103825283818151815260200191508051906020019080838360005b8381101561147a57808201518184015260208101905061145f565b50505050905090810190601f1680156114a75780820380516001836020036101000a031916815260200191505b509250505060405180910390fd5b50600073ffffffffffffffffffffffffffffffffffffffff168273ffffffffffffffffffffffffffffffffffffffff1614156040518060400160405280600281526020017f5a30000000000000000000000000000000000000000000000000000000000000815250906115c3576040517f08c379a00000000000000000000000000000000000000000000000000000000081526004018080602001828103825283818151815260200191508051906020019080838360005b8381101561158857808201518184015260208101905061156d565b50505050905090810190601f1680156115b55780820380516001836020036101000a031916815260200191505b509250505060405180910390fd5b50600073ffffffffffffffffffffffffffffffffffffffff168173ffffffffffffffffffffffffffffffffffffffff1614156040518060400160405280600281526020017f5a30000000000000000000000000000000000000000000000000000000000000815250906116d1576040517f08c379a00000000000000000000000000000000000000000000000000000000081526004018080602001828103825283818151815260200191508051906020019080838360005b8381101561169657808201518184015260208101905061167b565b50505050905090810190601f1680156116c35780820380516001836020036101000a031916815260200191505b509250505060405180910390fd5b50600073ffffffffffffffffffffffffffffffffffffffff16600a60008473ffffffffffffffffffffffffffffffffffffffff1673ffffffffffffffffffffffffffffffffffffffff16815260200190815260200160002060009054906101000a900473ffffffffffffffffffffffffffffffffffffffff1673ffffffffffffffffffffffffffffffffffffffff1614156117ce576008829080600181540180825580915050600190039060005260206000200160009091909190916101000a81548173ffffffffffffffffffffffffffffffffffffffff021916908373ffffffffffffffffffffffffffffffffffffffff160217905550611886565b600060096000600a60008673ffffffffffffffffffffffffffffffffffffffff1673ffffffffffffffffffffffffffffffffffffffff16815260200190815260200160002060009054906101000a900473ffffffffffffffffffffffffffffffffffffffff1673ffffffffffffffffffffffffffffffffffffffff1673ffffffffffffffffffffffffffffffffffffffff16815260200190815260200160002060006101000a81548160ff0219169083151502179055505b6001600960008373ffffffffffffffffffffffffffffffffffffffff1673ffffffffffffffffffffffffffffffffffffffff16815260200190815260200160002060006101000a81548160ff02191690831515021790555080600a60008473ffffffffffffffffffffffffffffffffffffffff1673ffffffffffffffffffffffffffffffffffffffff16815260200190815260200160002060006101000a81548173ffffffffffffffffffffffffffffffffffffffff021916908373ffffffffffffffffffffffffffffffffffffffff1602179055508073ffffffffffffffffffffffffffffffffffffffff168273ffffffffffffffffffffffffffffffffffffffff167f4bcbefaef68b99503d502f5a6abe7bca2b183ab8ac55457013c77d084ebd130560405160405180910390a35050565b6119c381613702565b6040518060400160405280600281526020017f433200000000000000000000000000000000000000000000000000000000000081525090611a9f576040517f08c379a00000000000000000000000000000000000000000000000000000000081526004018080602001828103825283818151815260200191508051906020019080838360005b83811015611a64578082015181840152602081019050611a49565b50505050905090810190601f168015611a915780820380516001836020036101000a031916815260200191505b509250505060405180910390fd5b5050565b600060019054906101000a900473ffffffffffffffffffffffffffffffffffffffff1673ffffffffffffffffffffffffffffffffffffffff16633a41ec64336040518263ffffffff1660e01b8152600401808273ffffffffffffffffffffffffffffffffffffffff16815260200191505060206040518083038186803b158015611b2c57600080fd5b505afa158015611b40573d6000803e3d6000fd5b505050506040513d6020811015611b5657600080fd5b81019080805190602001909291905050506040518060400160405280600281526020017f4c3100000000000000000000000000000000000000000000000000000000000081525090611c43576040517f08c379a00000000000000000000000000000000000000000000000000000000081526004018080602001828103825283818151815260200191508051906020019080838360005b83811015611c08578082015181840152602081019050611bed565b50505050905090810190601f168015611c355780820380516001836020036101000a031916815260200191505b509250505060405180910390fd5b50611c4c613adf565b565b600060019054906101000a900473ffffffffffffffffffffffffffffffffffffffff1673ffffffffffffffffffffffffffffffffffffffff16635f259aba336040518263ffffffff1660e01b8152600401808273ffffffffffffffffffffffffffffffffffffffff16815260200191505060206040518083038186803b158015611cd757600080fd5b505afa158015611ceb573d6000803e3d6000fd5b505050506040513d6020811015611d0157600080fd5b81019080805190602001909291905050506040518060400160405280600281526020017f4c3300000000000000000000000000000000000000000000000000000000000081525090611dee576040517f08c379a00000000000000000000000000000000000000000000000000000000081526004018080602001828103825283818151815260200191508051906020019080838360005b83811015611db3578082015181840152602081019050611d98565b50505050905090810190601f168015611de05780820380516001836020036101000a031916815260200191505b509250505060405180910390fd5b5061251c8210156040518060400160405280600281526020017f433700000000000000000000000000000000000000000000000000000000000081525090611ed1576040517f08c379a00000000000000000000000000000000000000000000000000000000081526004018080602001828103825283818151815260200191508051906020019080838360005b83811015611e96578082015181840152602081019050611e7b565b50505050905090810190601f168015611ec35780820380516001836020036101000a031916815260200191505b509250505060405180910390fd5b5081600e8190555080600f819055507f727652fff0946c19c233fd3eab5fc03db9e9fdd907e902d9136c2a9cac47101c8282604051808381526020018281526020019250505060405180910390a15050565b600960008273ffffffffffffffffffffffffffffffffffffffff1673ffffffffffffffffffffffffffffffffffffffff16815260200190815260200160002060009054906101000a900460ff166040518060400160405280600281526020017f43340000000000000000000000000000000000000000000000000000000000008152509061204c576040517f08c379a00000000000000000000000000000000000000000000000000000000081526004018080602001828103825283818151815260200191508051906020019080838360005b83811015612011578082015181840152602081019050611ff6565b50505050905090810190601f16801561203e5780820380516001836020036101000a031916815260200191505b509250505060405180910390fd5b5050565b60008080600090505b612061610cfb565b8110156120ee57806001901b9150600082600660008773ffffffffffffffffffffffffffffffffffffffff1673ffffffffffffffffffffffffffffffffffffffff168152602001908152602001600020541611156120e15760006120c585836127ea565b93505050506120dd8185613bca90919063ffffffff16565b9350505b8080600101915050612059565b506121046127108361381190919063ffffffff16565b915050919050565b600f5481565b600060019054906101000a900473ffffffffffffffffffffffffffffffffffffffff1673ffffffffffffffffffffffffffffffffffffffff16635f259aba336040518263ffffffff1660e01b8152600401808273ffffffffffffffffffffffffffffffffffffffff16815260200191505060206040518083038186803b15801561219b57600080fd5b505afa1580156121af573d6000803e3d6000fd5b505050506040513d60208110156121c557600080fd5b81019080805190602001909291905050506040518060400160405280600281526020017f4c33000000000000000000000000000000000000000000000000000000000000815250906122b2576040517f08c379a00000000000000000000000000000000000000000000000000000000081526004018080602001828103825283818151815260200191508051906020019080838360005b8381101561227757808201518184015260208101905061225c565b50505050905090810190601f1680156122a45780820380516001836020036101000a031916815260200191505b509250505060405180910390fd5b50600073ffffffffffffffffffffffffffffffffffffffff168273ffffffffffffffffffffffffffffffffffffffff1614156040518060400160405280600281526020017f5a30000000000000000000000000000000000000000000000000000000000000815250906123c0576040517f08c379a00000000000000000000000000000000000000000000000000000000081526004018080602001828103825283818151815260200191508051906020019080838360005b8381101561238557808201518184015260208101905061236a565b50505050905090810190601f1680156123b25780820380516001836020036101000a031916815260200191505b509250505060405180910390fd5b506000811180156123d6575060c861251c038111155b6040518060400160405280600281526020017f4331000000000000000000000000000000000000000000000000000000000000815250906124b2576040517f08c379a00000000000000000000000000000000000000000000000000000000081526004018080602001828103825283818151815260200191508051906020019080838360005b8381101561247757808201518184015260208101905061245c565b50505050905090810190601f1680156124a45780820380516001836020036101000a031916815260200191505b509250505060405180910390fd5b50610100600380549050106040518060400160405280600281526020017f433600000000000000000000000000000000000000000000000000000000000081525090612599576040517f08c379a00000000000000000000000000000000000000000000000000000000081526004018080602001828103825283818151815260200191508051906020019080838360005b8381101561255e578082015181840152602081019050612543565b50505050905090810190601f16801561258b5780820380516001836020036101000a031916815260200191505b509250505060405180910390fd5b50600260008373ffffffffffffffffffffffffffffffffffffffff1673ffffffffffffffffffffffffffffffffffffffff16815260200190815260200160002060009054906101000a900460ff166126f4576001600260008473ffffffffffffffffffffffffffffffffffffffff1673ffffffffffffffffffffffffffffffffffffffff16815260200190815260200160002060006101000a81548160ff0219169083151502179055506003805490506001901b600560008473ffffffffffffffffffffffffffffffffffffffff1673ffffffffffffffffffffffffffffffffffffffff168152602001908152602001600020819055506003829080600181540180825580915050600190039060005260206000200160009091909190916101000a81548173ffffffffffffffffffffffffffffffffffffffff021916908373ffffffffffffffffffffffffffffffffffffffff1602179055505b80600460008473ffffffffffffffffffffffffffffffffffffffff1673ffffffffffffffffffffffffffffffffffffffff168152602001908152602001600020819055508173ffffffffffffffffffffffffffffffffffffffff167fa52fb6bfa514a4ddcb31de40a5f6c20d767db1f921a8b7747973d93dc5da7a02826040518082815260200191505060405180910390a25050565b60046020528060005260406000206000915090505481565b80600760008473ffffffffffffffffffffffffffffffffffffffff1673ffffffffffffffffffffffffffffffffffffffff168152602001908152602001600020819055505050565b600080600080600385815481106127fd57fe5b9060005260206000200160009054906101000a900473ffffffffffffffffffffffffffffffffffffffff1693508373ffffffffffffffffffffffffffffffffffffffff166370a08231876040518263ffffffff1660e01b8152600401808273ffffffffffffffffffffffffffffffffffffffff16815260200191505060206040518083038186803b15801561289157600080fd5b505afa1580156128a5573d6000803e3d6000fd5b505050506040513d60208110156128bb57600080fd5b810190808051906020019092919050505092506001831115612a38577f000000000000000000000000000000000000000000000000000000000000000073ffffffffffffffffffffffffffffffffffffffff1663b66102df8486600b60009054906101000a900473ffffffffffffffffffffffffffffffffffffffff166040518463ffffffff1660e01b8152600401808481526020018373ffffffffffffffffffffffffffffffffffffffff1681526020018273ffffffffffffffffffffffffffffffffffffffff168152602001935050505060206040518083038186803b1580156129a657600080fd5b505afa1580156129ba573d6000803e3d6000fd5b505050506040513d60208110156129d057600080fd5b81019080805190602001909291905050509150612a35600460008673ffffffffffffffffffffffffffffffffffffffff1673ffffffffffffffffffffffffffffffffffffffff168152602001908152602001600020548361378b90919063ffffffff16565b90505b92959194509250565b60026020528060005260406000206000915054906101000a900460ff1681565b60066020528060005260406000206000915090505481565b600160009054906101000a900473ffffffffffffffffffffffffffffffffffffffff1681565b60008080600090505b612ab0610cfb565b811015612b3d57806001901b9150600082600660008773ffffffffffffffffffffffffffffffffffffffff1673ffffffffffffffffffffffffffffffffffffffff16815260200190815260200160002054161115612b30576000612b1485836127ea565b5092505050612b2c8185613bca90919063ffffffff16565b9350505b8080600101915050612aa8565b5050919050565b600073ffffffffffffffffffffffffffffffffffffffff16600160009054906101000a900473ffffffffffffffffffffffffffffffffffffffff1673ffffffffffffffffffffffffffffffffffffffff16146040518060400160405280600281526020017f493000000000000000000000000000000000000000000000000000000000000081525090612c72576040517f08c379a00000000000000000000000000000000000000000000000000000000081526004018080602001828103825283818151815260200191508051906020019080838360005b83811015612c37578082015181840152602081019050612c1c565b50505050905090810190601f168015612c645780820380516001836020036101000a031916815260200191505b509250505060405180910390fd5b5033600160006101000a81548173ffffffffffffffffffffffffffffffffffffffff021916908373ffffffffffffffffffffffffffffffffffffffff16021790555080600c60006101000a81548173ffffffffffffffffffffffffffffffffffffffff021916908373ffffffffffffffffffffffffffffffffffffffff160217905550600b60009054906101000a900473ffffffffffffffffffffffffffffffffffffffff1673ffffffffffffffffffffffffffffffffffffffff16600c60009054906101000a900473ffffffffffffffffffffffffffffffffffffffff1673ffffffffffffffffffffffffffffffffffffffff16632495a5996040518163ffffffff1660e01b815260040160206040518083038186803b158015612d9657600080fd5b505afa158015612daa573d6000803e3d6000fd5b505050506040513d6020811015612dc057600080fd5b810190808051906020019092919050505073ffffffffffffffffffffffffffffffffffffffff16146040518060400160405280600281526020017f433000000000000000000000000000000000000000000000000000000000000081525090612ec4576040517f08c379a00000000000000000000000000000000000000000000000000000000081526004018080602001828103825283818151815260200191508051906020019080838360005b83811015612e89578082015181840152602081019050612e6e565b50505050905090810190601f168015612eb65780820380516001836020036101000a031916815260200191505b509250505060405180910390fd5b5060005b612ed0610cfb565b81101561302457600060038281548110612ee657fe5b9060005260206000200160009054906101000a900473ffffffffffffffffffffffffffffffffffffffff1690507f000000000000000000000000000000000000000000000000000000000000000073ffffffffffffffffffffffffffffffffffffffff1663743b908682600b60009054906101000a900473ffffffffffffffffffffffffffffffffffffffff166040518363ffffffff1660e01b8152600401808373ffffffffffffffffffffffffffffffffffffffff1681526020018273ffffffffffffffffffffffffffffffffffffffff1681526020019250505060206040518083038186803b158015612fda57600080fd5b505afa158015612fee573d6000803e3d6000fd5b505050506040513d602081101561300457600080fd5b810190808051906020019092919050505050508080600101915050612ec8565b5050565b600061306161303683610d2e565b61305361271061304586612050565b61378b90919063ffffffff16565b61381190919063ffffffff16565b9050919050565b600960003373ffffffffffffffffffffffffffffffffffffffff1673ffffffffffffffffffffffffffffffffffffffff16815260200190815260200160002060009054906101000a900460ff166040518060400160405280600281526020017f433400000000000000000000000000000000000000000000000000000000000081525090613191576040517f08c379a00000000000000000000000000000000000000000000000000000000081526004018080602001828103825283818151815260200191508051906020019080838360005b8381101561315657808201518184015260208101905061313b565b50505050905090810190601f1680156131835780820380516001836020036101000a031916815260200191505b509250505060405180910390fd5b5061319c8584613984565b60007f000000000000000000000000000000000000000000000000000000000000000073ffffffffffffffffffffffffffffffffffffffff1663b66102df8487600d60009054906101000a900473ffffffffffffffffffffffffffffffffffffffff166040518463ffffffff1660e01b8152600401808481526020018373ffffffffffffffffffffffffffffffffffffffff1681526020018273ffffffffffffffffffffffffffffffffffffffff168152602001935050505060206040518083038186803b15801561326d57600080fd5b505afa158015613281573d6000803e3d6000fd5b505050506040513d602081101561329757600080fd5b8101908080519060200190929190505050905060007f000000000000000000000000000000000000000000000000000000000000000073ffffffffffffffffffffffffffffffffffffffff1663b66102df8487600d60009054906101000a900473ffffffffffffffffffffffffffffffffffffffff166040518463ffffffff1660e01b8152600401808481526020018373ffffffffffffffffffffffffffffffffffffffff1681526020018273ffffffffffffffffffffffffffffffffffffffff168152602001935050505060206040518083038186803b15801561337b57600080fd5b505afa15801561338f573d6000803e3d6000fd5b505050506040513d60208110156133a557600080fd5b81019080805190602001909291905050509050600e546133e2836133d46127108561378b90919063ffffffff16565b61381190919063ffffffff16565b11801561342d575043600760008973ffffffffffffffffffffffffffffffffffffffff1673ffffffffffffffffffffffffffffffffffffffff16815260200190815260200160002054105b1561347f57600f544301600760008973ffffffffffffffffffffffffffffffffffffffff1673ffffffffffffffffffffffffffffffffffffffff1681526020019081526020016000208190555061356b565b61271061348b88613028565b10156040518060400160405280600281526020017f433500000000000000000000000000000000000000000000000000000000000081525090613569576040517f08c379a00000000000000000000000000000000000000000000000000000000081526004018080602001828103825283818151815260200191508051906020019080838360005b8381101561352e578082015181840152602081019050613513565b50505050905090810190601f16801561355b5780820380516001836020036101000a031916815260200191505b509250505060405180910390fd5b505b50505050505050565b600160009054906101000a900473ffffffffffffffffffffffffffffffffffffffff1673ffffffffffffffffffffffffffffffffffffffff163373ffffffffffffffffffffffffffffffffffffffff16146040518060400160405280600281526020017f4333000000000000000000000000000000000000000000000000000000000000815250906136a1576040517f08c379a00000000000000000000000000000000000000000000000000000000081526004018080602001828103825283818151815260200191508051906020019080838360005b8381101561366657808201518184015260208101905061364b565b50505050905090810190601f1680156136935780820380516001836020036101000a031916815260200191505b509250505060405180910390fd5b506001600660008373ffffffffffffffffffffffffffffffffffffffff1673ffffffffffffffffffffffffffffffffffffffff1681526020019081526020016000208190555050565b60056020528060005260406000206000915090505481565b6000600260008373ffffffffffffffffffffffffffffffffffffffff1673ffffffffffffffffffffffffffffffffffffffff16815260200190815260200160002060009054906101000a900460ff169050919050565b600a6020528060005260406000206000915054906101000a900473ffffffffffffffffffffffffffffffffffffffff1681565b60008083141561379e576000905061380b565b60008284029050828482816137af57fe5b0414613806576040517f08c379a0000000000000000000000000000000000000000000000000000000008152600401808060200182810382526021815260200180613c5b6021913960400191505060405180910390fd5b809150505b92915050565b6000808211613888576040517f08c379a000000000000000000000000000000000000000000000000000000000815260040180806020018281038252601a8152602001807f536166654d6174683a206469766973696f6e206279207a65726f00000000000081525060200191505060405180910390fd5b81838161389157fe5b04905092915050565b6138a26112c0565b613914576040517f08c379a00000000000000000000000000000000000000000000000000000000081526004018080602001828103825260148152602001807f5061757361626c653a206e6f742070617573656400000000000000000000000081525060200191505060405180910390fd5b60008060006101000a81548160ff0219169083151502179055507f5db9ee0a495bf2e6ff9c91a7834c1ba4fdd244a5e8aa4e537bd38aeae4b073aa613957613c52565b604051808273ffffffffffffffffffffffffffffffffffffffff16815260200191505060405180910390a1565b61398d816119ba565b6000600560008373ffffffffffffffffffffffffffffffffffffffff1673ffffffffffffffffffffffffffffffffffffffff16815260200190815260200160002054600660008573ffffffffffffffffffffffffffffffffffffffff1673ffffffffffffffffffffffffffffffffffffffff16815260200190815260200160002054161415613adb57600560008273ffffffffffffffffffffffffffffffffffffffff1673ffffffffffffffffffffffffffffffffffffffff16815260200190815260200160002054600660008473ffffffffffffffffffffffffffffffffffffffff1673ffffffffffffffffffffffffffffffffffffffff1681526020019081526020016000205417600660008473ffffffffffffffffffffffffffffffffffffffff1673ffffffffffffffffffffffffffffffffffffffff168152602001908152602001600020819055505b5050565b613ae76112c0565b15613b5a576040517f08c379a00000000000000000000000000000000000000000000000000000000081526004018080602001828103825260108152602001807f5061757361626c653a207061757365640000000000000000000000000000000081525060200191505060405180910390fd5b60016000806101000a81548160ff0219169083151502179055507f62e78cea01bee320cd4e420270b5ea74000d11b0c9f74754ebdbfc544b05a258613b9d613c52565b604051808273ffffffffffffffffffffffffffffffffffffffff16815260200191505060405180910390a1565b600080828401905083811015613c48576040517f08c379a000000000000000000000000000000000000000000000000000000000815260040180806020018281038252601b8152602001807f536166654d6174683a206164646974696f6e206f766572666c6f77000000000081525060200191505060405180910390fd5b8091505092915050565b60003390509056fe536166654d6174683a206d756c7469706c69636174696f6e206f766572666c6f77a264697066735822122015d6e888bbc5ecb450bbaf21e916f69e762558899a4b9f33e0b6c7548eb4a84964736f6c63430007060033",
  "linkReferences": {},
  "deployedLinkReferences": {}
}