{
  "_format": "hh-sol-artifact-1",
  "contractName": "CreditFilterMock",
  "sourceName": "contracts/mocks/credit/CreditFilterMock.sol",
  "abi": [
    {
      "inputs": [
        {
          "internalType": "address",
          "name": "_addressProvider",
          "type": "address"
        },
        {
          "internalType": "address",
          "name": "_underlyingToken",
          "type": "address"
        }
      ],
      "stateMutability": "nonpayable",
      "type": "constructor"
    },
    {
      "anonymous": false,
      "inputs": [
        {
          "indexed": true,
          "internalType": "address",
          "name": "protocol",
          "type": "address"
        },
        {
          "indexed": true,
          "internalType": "address",
          "name": "adapter",
          "type": "address"
        }
      ],
      "name": "ContractAllowed",
      "type": "event"
    },
    {
      "anonymous": false,
      "inputs": [
        {
          "indexed": true,
          "internalType": "address",
          "name": "protocol",
          "type": "address"
        }
      ],
      "name": "ContractForbidden",
      "type": "event"
    },
    {
      "anonymous": false,
      "inputs": [
        {
          "indexed": false,
          "internalType": "uint256",
          "name": "chiThreshold",
          "type": "uint256"
        },
        {
          "indexed": false,
          "internalType": "uint256",
          "name": "fastCheckDelay",
          "type": "uint256"
        }
      ],
      "name": "NewFastCheckParameters",
      "type": "event"
    },
    {
      "anonymous": false,
      "inputs": [
        {
          "indexed": false,
          "internalType": "address",
          "name": "account",
          "type": "address"
        }
      ],
      "name": "Paused",
      "type": "event"
    },
    {
      "anonymous": false,
      "inputs": [
        {
          "indexed": true,
          "internalType": "address",
          "name": "token",
          "type": "address"
        },
        {
          "indexed": false,
          "internalType": "uint256",
          "name": "liquidityThreshold",
          "type": "uint256"
        }
      ],
      "name": "TokenAllowed",
      "type": "event"
    },
    {
      "anonymous": false,
      "inputs": [
        {
          "indexed": false,
          "internalType": "address",
          "name": "account",
          "type": "address"
        }
      ],
      "name": "Unpaused",
      "type": "event"
    },
    {
      "inputs": [
        {
          "internalType": "address",
          "name": "",
          "type": "address"
        }
      ],
      "name": "_allowedTokensMap",
      "outputs": [
        {
          "internalType": "bool",
          "name": "",
          "type": "bool"
        }
      ],
      "stateMutability": "view",
      "type": "function"
    },
    {
      "inputs": [
        {
          "internalType": "address",
          "name": "targetContract",
          "type": "address"
        },
        {
          "internalType": "address",
          "name": "adapter",
          "type": "address"
        }
      ],
      "name": "allowContract",
      "outputs": [],
      "stateMutability": "nonpayable",
      "type": "function"
    },
    {
      "inputs": [
        {
          "internalType": "address",
          "name": "token",
          "type": "address"
        },
        {
          "internalType": "uint256",
          "name": "liquidationThreshold",
          "type": "uint256"
        }
      ],
      "name": "allowToken",
      "outputs": [],
      "stateMutability": "nonpayable",
      "type": "function"
    },
    {
      "inputs": [
        {
          "internalType": "address",
          "name": "",
          "type": "address"
        }
      ],
      "name": "allowedAdapters",
      "outputs": [
        {
          "internalType": "bool",
          "name": "",
          "type": "bool"
        }
      ],
      "stateMutability": "view",
      "type": "function"
    },
    {
      "inputs": [
        {
          "internalType": "uint256",
          "name": "i",
          "type": "uint256"
        }
      ],
      "name": "allowedContracts",
      "outputs": [
        {
          "internalType": "address",
          "name": "",
          "type": "address"
        }
      ],
      "stateMutability": "view",
      "type": "function"
    },
    {
      "inputs": [],
      "name": "allowedContractsCount",
      "outputs": [
        {
          "internalType": "uint256",
          "name": "",
          "type": "uint256"
        }
      ],
      "stateMutability": "view",
      "type": "function"
    },
    {
      "inputs": [
        {
          "internalType": "uint256",
          "name": "",
          "type": "uint256"
        }
      ],
      "name": "allowedTokens",
      "outputs": [
        {
          "internalType": "address",
          "name": "",
          "type": "address"
        }
      ],
      "stateMutability": "view",
      "type": "function"
    },
    {
      "inputs": [],
      "name": "allowedTokensCount",
      "outputs": [
        {
          "internalType": "uint256",
          "name": "",
          "type": "uint256"
        }
      ],
      "stateMutability": "view",
      "type": "function"
    },
    {
      "inputs": [
        {
          "internalType": "address",
          "name": "creditAccount",
          "type": "address"
        }
      ],
      "name": "calcCreditAccountAccruedInterest",
      "outputs": [
        {
          "internalType": "uint256",
          "name": "",
          "type": "uint256"
        }
      ],
      "stateMutability": "view",
      "type": "function"
    },
    {
      "inputs": [
        {
          "internalType": "address",
          "name": "creditAccount",
          "type": "address"
        }
      ],
      "name": "calcCreditAccountHealthFactor",
      "outputs": [
        {
          "internalType": "uint256",
          "name": "",
          "type": "uint256"
        }
      ],
      "stateMutability": "view",
      "type": "function"
    },
    {
      "inputs": [
        {
          "internalType": "uint256",
          "name": "percentage",
          "type": "uint256"
        },
        {
          "internalType": "uint256",
          "name": "times",
          "type": "uint256"
        }
      ],
      "name": "calcMaxPossibleDrop",
      "outputs": [
        {
          "internalType": "uint256",
          "name": "value",
          "type": "uint256"
        }
      ],
      "stateMutability": "pure",
      "type": "function"
    },
    {
      "inputs": [
        {
          "internalType": "address",
          "name": "creditAccount",
          "type": "address"
        }
      ],
      "name": "calcThresholdWeightedValue",
      "outputs": [
        {
          "internalType": "uint256",
          "name": "total",
          "type": "uint256"
        }
      ],
      "stateMutability": "view",
      "type": "function"
    },
    {
      "inputs": [
        {
          "internalType": "address",
          "name": "creditAccount",
          "type": "address"
        }
      ],
      "name": "calcTotalValue",
      "outputs": [
        {
          "internalType": "uint256",
          "name": "total",
          "type": "uint256"
        }
      ],
      "stateMutability": "view",
      "type": "function"
    },
    {
      "inputs": [
        {
          "internalType": "address",
          "name": "token",
          "type": "address"
        },
        {
          "internalType": "bool",
          "name": "state",
          "type": "bool"
        }
      ],
      "name": "changeAllowedTokenState",
      "outputs": [],
      "stateMutability": "nonpayable",
      "type": "function"
    },
    {
      "inputs": [
        {
          "internalType": "address",
          "name": "creditAccount",
          "type": "address"
        },
        {
          "internalType": "address",
          "name": "token",
          "type": "address"
        }
      ],
      "name": "checkAndEnableToken",
      "outputs": [],
      "stateMutability": "nonpayable",
      "type": "function"
    },
    {
      "inputs": [
        {
          "internalType": "address",
          "name": "creditAccount",
          "type": "address"
        },
        {
          "internalType": "address",
          "name": "tokenIn",
          "type": "address"
        },
        {
          "internalType": "address",
          "name": "tokenOut",
          "type": "address"
        },
        {
          "internalType": "uint256",
          "name": "amountIn",
          "type": "uint256"
        },
        {
          "internalType": "uint256",
          "name": "amountOut",
          "type": "uint256"
        }
      ],
      "name": "checkCollateralChange",
      "outputs": [],
      "stateMutability": "nonpayable",
      "type": "function"
    },
    {
      "inputs": [
        {
          "internalType": "address",
          "name": "creditAccount",
          "type": "address"
        },
        {
          "internalType": "uint256[]",
          "name": "amountIn",
          "type": "uint256[]"
        },
        {
          "internalType": "uint256[]",
          "name": "amountOut",
          "type": "uint256[]"
        },
        {
          "internalType": "address[]",
          "name": "tokenIn",
          "type": "address[]"
        },
        {
          "internalType": "address[]",
          "name": "tokenOut",
          "type": "address[]"
        }
      ],
      "name": "checkMultiTokenCollateral",
      "outputs": [],
      "stateMutability": "nonpayable",
      "type": "function"
    },
    {
      "inputs": [],
      "name": "chiThreshold",
      "outputs": [
        {
          "internalType": "uint256",
          "name": "",
          "type": "uint256"
        }
      ],
      "stateMutability": "view",
      "type": "function"
    },
    {
      "inputs": [
        {
          "internalType": "address",
          "name": "_creditManager",
          "type": "address"
        }
      ],
      "name": "connectCreditManager",
      "outputs": [],
      "stateMutability": "nonpayable",
      "type": "function"
    },
    {
      "inputs": [
        {
          "internalType": "address",
          "name": "",
          "type": "address"
        }
      ],
      "name": "contractToAdapter",
      "outputs": [
        {
          "internalType": "address",
          "name": "",
          "type": "address"
        }
      ],
      "stateMutability": "view",
      "type": "function"
    },
    {
      "inputs": [],
      "name": "creditManager",
      "outputs": [
        {
          "internalType": "address",
          "name": "",
          "type": "address"
        }
      ],
      "stateMutability": "view",
      "type": "function"
    },
    {
      "inputs": [
        {
          "internalType": "address",
          "name": "",
          "type": "address"
        }
      ],
      "name": "enabledTokens",
      "outputs": [
        {
          "internalType": "uint256",
          "name": "",
          "type": "uint256"
        }
      ],
      "stateMutability": "view",
      "type": "function"
    },
    {
      "inputs": [
        {
          "internalType": "address",
          "name": "",
          "type": "address"
        }
      ],
      "name": "fastCheckCounter",
      "outputs": [
        {
          "internalType": "uint256",
          "name": "",
          "type": "uint256"
        }
      ],
      "stateMutability": "view",
      "type": "function"
    },
    {
      "inputs": [
        {
          "internalType": "address",
          "name": "targetContract",
          "type": "address"
        }
      ],
      "name": "forbidContract",
      "outputs": [],
      "stateMutability": "nonpayable",
      "type": "function"
    },
    {
      "inputs": [
        {
          "internalType": "address",
          "name": "creditAccount",
          "type": "address"
        },
        {
          "internalType": "uint256",
          "name": "id",
          "type": "uint256"
        }
      ],
      "name": "getCreditAccountTokenById",
      "outputs": [
        {
          "internalType": "address",
          "name": "token",
          "type": "address"
        },
        {
          "internalType": "uint256",
          "name": "balance",
          "type": "uint256"
        },
        {
          "internalType": "uint256",
          "name": "tv",
          "type": "uint256"
        },
        {
          "internalType": "uint256",
          "name": "tvw",
          "type": "uint256"
        }
      ],
      "stateMutability": "view",
      "type": "function"
    },
    {
      "inputs": [],
      "name": "hfCheckInterval",
      "outputs": [
        {
          "internalType": "uint256",
          "name": "",
          "type": "uint256"
        }
      ],
      "stateMutability": "view",
      "type": "function"
    },
    {
      "inputs": [
        {
          "internalType": "address",
          "name": "creditAccount",
          "type": "address"
        }
      ],
      "name": "initEnabledTokens",
      "outputs": [],
      "stateMutability": "nonpayable",
      "type": "function"
    },
    {
      "inputs": [
        {
          "internalType": "address",
          "name": "token",
          "type": "address"
        }
      ],
      "name": "isTokenAllowed",
      "outputs": [
        {
          "internalType": "bool",
          "name": "",
          "type": "bool"
        }
      ],
      "stateMutability": "view",
      "type": "function"
    },
    {
      "inputs": [
        {
          "internalType": "address",
          "name": "",
          "type": "address"
        }
      ],
      "name": "liquidationThresholds",
      "outputs": [
        {
          "internalType": "uint256",
          "name": "",
          "type": "uint256"
        }
      ],
      "stateMutability": "view",
      "type": "function"
    },
    {
      "inputs": [],
      "name": "pause",
      "outputs": [],
      "stateMutability": "nonpayable",
      "type": "function"
    },
    {
      "inputs": [],
      "name": "paused",
      "outputs": [
        {
          "internalType": "bool",
          "name": "",
          "type": "bool"
        }
      ],
      "stateMutability": "view",
      "type": "function"
    },
    {
      "inputs": [],
      "name": "poolService",
      "outputs": [
        {
          "internalType": "address",
          "name": "",
          "type": "address"
        }
      ],
      "stateMutability": "view",
      "type": "function"
    },
    {
      "inputs": [],
      "name": "priceOracle",
      "outputs": [
        {
          "internalType": "address",
          "name": "",
          "type": "address"
        }
      ],
      "stateMutability": "view",
      "type": "function"
    },
    {
      "inputs": [
        {
          "internalType": "address",
          "name": "token",
          "type": "address"
        }
      ],
      "name": "revertIfTokenNotAllowed",
      "outputs": [],
      "stateMutability": "view",
      "type": "function"
    },
    {
      "inputs": [
        {
          "internalType": "address",
          "name": "creditAccount",
          "type": "address"
        },
        {
          "internalType": "uint256",
          "name": "tokenMask",
          "type": "uint256"
        }
      ],
      "name": "setEnabledTokens",
      "outputs": [],
      "stateMutability": "nonpayable",
      "type": "function"
    },
    {
      "inputs": [
        {
          "internalType": "address",
          "name": "creditAccount",
          "type": "address"
        },
        {
          "internalType": "uint256",
          "name": "blockNum",
          "type": "uint256"
        }
      ],
      "name": "setFastCheckBlock",
      "outputs": [],
      "stateMutability": "nonpayable",
      "type": "function"
    },
    {
      "inputs": [
        {
          "internalType": "uint256",
          "name": "_chiThreshold",
          "type": "uint256"
        },
        {
          "internalType": "uint256",
          "name": "_hfCheckInterval",
          "type": "uint256"
        }
      ],
      "name": "setFastCheckParameters",
      "outputs": [],
      "stateMutability": "nonpayable",
      "type": "function"
    },
    {
      "inputs": [
        {
          "internalType": "address",
          "name": "",
          "type": "address"
        }
      ],
      "name": "tokenMasksMap",
      "outputs": [
        {
          "internalType": "uint256",
          "name": "",
          "type": "uint256"
        }
      ],
      "stateMutability": "view",
      "type": "function"
    },
    {
      "inputs": [],
      "name": "underlyingToken",
      "outputs": [
        {
          "internalType": "address",
          "name": "",
          "type": "address"
        }
      ],
      "stateMutability": "view",
      "type": "function"
    },
    {
      "inputs": [],
      "name": "unpause",
      "outputs": [],
      "stateMutability": "nonpayable",
      "type": "function"
    },
    {
      "inputs": [],
      "name": "updateUnderlyingTokenLiquidationThreshold",
      "outputs": [],
      "stateMutability": "nonpayable",
      "type": "function"
    },
    {
      "inputs": [],
      "name": "wethAddress",
      "outputs": [
        {
          "internalType": "address",
          "name": "",
          "type": "address"
        }
      ],
      "stateMutability": "view",
      "type": "function"
    }
  ],
  "bytecode": "0x60806040523480156200001157600080fd5b50604051620068a2380380620068a2833981810160405260408110156200003757600080fd5b81019080805190602001909291908051906020019092919050505081818160008060006101000a81548160ff0219169083151502179055508073ffffffffffffffffffffffffffffffffffffffff1663087376956040518163ffffffff1660e01b815260040160206040518083038186803b158015620000b657600080fd5b505afa158015620000cb573d6000803e3d6000fd5b505050506040513d6020811015620000e257600080fd5b8101908080519060200190929190505050600060016101000a81548173ffffffffffffffffffffffffffffffffffffffff021916908373ffffffffffffffffffffffffffffffffffffffff160217905550508173ffffffffffffffffffffffffffffffffffffffff1663fca513a86040518163ffffffff1660e01b815260040160206040518083038186803b1580156200017b57600080fd5b505afa15801562000190573d6000803e3d6000fd5b505050506040513d601f19601f82011682018060405250810190620001b6919062001116565b600c60006101000a81548173ffffffffffffffffffffffffffffffffffffffff021916908373ffffffffffffffffffffffffffffffffffffffff1602179055508173ffffffffffffffffffffffffffffffffffffffff16634c252f916040518163ffffffff1660e01b815260040160206040518083038186803b1580156200023d57600080fd5b505afa15801562000252573d6000803e3d6000fd5b505050506040513d601f19601f8201168201806040525081019062000278919062001116565b600f60006101000a81548173ffffffffffffffffffffffffffffffffffffffff021916908373ffffffffffffffffffffffffffffffffffffffff16021790555080600d60006101000a81548173ffffffffffffffffffffffffffffffffffffffff021916908373ffffffffffffffffffffffffffffffffffffffff16021790555060c861251c0360046000600d60009054906101000a900473ffffffffffffffffffffffffffffffffffffffff1673ffffffffffffffffffffffffffffffffffffffff1673ffffffffffffffffffffffffffffffffffffffff168152602001908152602001600020819055506200039d600d60009054906101000a900473ffffffffffffffffffffffffffffffffffffffff1660c861251c03620003bc60201b60201c565b620003b26126de600462000ae860201b60201c565b505050506200135e565b600060019054906101000a900473ffffffffffffffffffffffffffffffffffffffff1673ffffffffffffffffffffffffffffffffffffffff16635f259aba336040518263ffffffff1660e01b8152600401808273ffffffffffffffffffffffffffffffffffffffff16815260200191505060206040518083038186803b1580156200044657600080fd5b505afa1580156200045b573d6000803e3d6000fd5b505050506040513d60208110156200047257600080fd5b81019080805190602001909291905050506040518060400160405280600281526020017f4c330000000000000000000000000000000000000000000000000000000000008152509062000563576040517f08c379a00000000000000000000000000000000000000000000000000000000081526004018080602001828103825283818151815260200191508051906020019080838360005b83811015620005275780820151818401526020810190506200050a565b50505050905090810190601f168015620005555780820380516001836020036101000a031916815260200191505b509250505060405180910390fd5b50600073ffffffffffffffffffffffffffffffffffffffff168273ffffffffffffffffffffffffffffffffffffffff1614156040518060400160405280600281526020017f5a30000000000000000000000000000000000000000000000000000000000000815250906200060f576040517f08c379a00000000000000000000000000000000000000000000000000000000081526004016200060691906200121b565b60405180910390fd5b5060008111801562000682575060046000600d60009054906101000a900473ffffffffffffffffffffffffffffffffffffffff1673ffffffffffffffffffffffffffffffffffffffff1673ffffffffffffffffffffffffffffffffffffffff168152602001908152602001600020548111155b6040518060400160405280600281526020017f433100000000000000000000000000000000000000000000000000000000000081525090620006fc576040517f08c379a0000000000000000000000000000000000000000000000000000000008152600401620006f391906200121b565b60405180910390fd5b50610100600380549050106040518060400160405280600281526020017f43360000000000000000000000000000000000000000000000000000000000008152509062000781576040517f08c379a00000000000000000000000000000000000000000000000000000000081526004016200077891906200121b565b60405180910390fd5b5060008273ffffffffffffffffffffffffffffffffffffffff166370a08231306040518263ffffffff1660e01b8152600401620007bf9190620011d1565b60206040518083038186803b158015620007d857600080fd5b505afa158015620007ed573d6000803e3d6000fd5b505050506040513d601f19601f8201168201806040525081019062000813919062001142565b10156200081f57600080fd5b600c60009054906101000a900473ffffffffffffffffffffffffffffffffffffffff1673ffffffffffffffffffffffffffffffffffffffff1663743b908683600d60009054906101000a900473ffffffffffffffffffffffffffffffffffffffff166040518363ffffffff1660e01b8152600401620008a0929190620011ee565b60206040518083038186803b158015620008b957600080fd5b505afa158015620008ce573d6000803e3d6000fd5b505050506040513d601f19601f82011682018060405250810190620008f4919062001142565b50600260008373ffffffffffffffffffffffffffffffffffffffff1673ffffffffffffffffffffffffffffffffffffffff16815260200190815260200160002060009054906101000a900460ff1662000a50576001600260008473ffffffffffffffffffffffffffffffffffffffff1673ffffffffffffffffffffffffffffffffffffffff16815260200190815260200160002060006101000a81548160ff0219169083151502179055506003805490506001901b600560008473ffffffffffffffffffffffffffffffffffffffff1673ffffffffffffffffffffffffffffffffffffffff168152602001908152602001600020819055506003829080600181540180825580915050600190039060005260206000200160009091909190916101000a81548173ffffffffffffffffffffffffffffffffffffffff021916908373ffffffffffffffffffffffffffffffffffffffff1602179055505b80600460008473ffffffffffffffffffffffffffffffffffffffff1673ffffffffffffffffffffffffffffffffffffffff168152602001908152602001600020819055508173ffffffffffffffffffffffffffffffffffffffff167fa52fb6bfa514a4ddcb31de40a5f6c20d767db1f921a8b7747973d93dc5da7a028260405162000adc91906200123f565b60405180910390a25050565b600060019054906101000a900473ffffffffffffffffffffffffffffffffffffffff1673ffffffffffffffffffffffffffffffffffffffff16635f259aba336040518263ffffffff1660e01b8152600401808273ffffffffffffffffffffffffffffffffffffffff16815260200191505060206040518083038186803b15801562000b7257600080fd5b505afa15801562000b87573d6000803e3d6000fd5b505050506040513d602081101562000b9e57600080fd5b81019080805190602001909291905050506040518060400160405280600281526020017f4c330000000000000000000000000000000000000000000000000000000000008152509062000c8f576040517f08c379a00000000000000000000000000000000000000000000000000000000081526004018080602001828103825283818151815260200191508051906020019080838360005b8381101562000c5357808201518184015260208101905062000c36565b50505050905090810190601f16801562000c815780820380516001836020036101000a031916815260200191505b509250505060405180910390fd5b50816010819055508060118190555062000cae62000ced60201b60201c565b7f727652fff0946c19c233fd3eab5fc03db9e9fdd907e902d9136c2a9cac47101c828260405162000ce19291906200125c565b60405180910390a15050565b600073ffffffffffffffffffffffffffffffffffffffff16600160009054906101000a900473ffffffffffffffffffffffffffffffffffffffff1673ffffffffffffffffffffffffffffffffffffffff161462000e9c57600062000d7762000d6060105460115462000e9e60201b60201c565b61271062000f4e60201b6200461d1790919060201c565b9050600160009054906101000a900473ffffffffffffffffffffffffffffffffffffffff1673ffffffffffffffffffffffffffffffffffffffff16633915ffaa6040518163ffffffff1660e01b815260040160206040518083038186803b15801562000de257600080fd5b505afa15801562000df7573d6000803e3d6000fd5b505050506040513d601f19601f8201168201806040525081019062000e1d919062001142565b81106040518060400160405280600281526020017f43420000000000000000000000000000000000000000000000000000000000008152509062000e99576040517f08c379a000000000000000000000000000000000000000000000000000000000815260040162000e9091906200121b565b60405180910390fd5b50505b565b600062000ebc8361271062000fd260201b620046a01790919060201c565b905060005b62000edc60018462000f4e60201b6200461d1790919060201c565b81101562000f295762000f1961271062000f05868562000fd260201b620046a01790919060201c565b6200105d60201b620047261790919060201c565b9150808060010191505062000ec1565b5062000f46612710826200105d60201b620047261790919060201c565b905092915050565b60008282111562000fc7576040517f08c379a000000000000000000000000000000000000000000000000000000000815260040180806020018281038252601e8152602001807f536166654d6174683a207375627472616374696f6e206f766572666c6f77000081525060200191505060405180910390fd5b818303905092915050565b60008083141562000fe7576000905062001057565b600082840290508284828162000ff957fe5b041462001052576040517f08c379a0000000000000000000000000000000000000000000000000000000008152600401808060200182810382526021815260200180620068816021913960400191505060405180910390fd5b809150505b92915050565b6000808211620010d5576040517f08c379a000000000000000000000000000000000000000000000000000000000815260040180806020018281038252601a8152602001807f536166654d6174683a206469766973696f6e206279207a65726f00000000000081525060200191505060405180910390fd5b818381620010df57fe5b04905092915050565b600081519050620010f9816200132a565b92915050565b600081519050620011108162001344565b92915050565b6000602082840312156200112957600080fd5b60006200113984828501620010e8565b91505092915050565b6000602082840312156200115557600080fd5b60006200116584828501620010ff565b91505092915050565b6200117981620012a5565b82525050565b60006200118c8262001289565b62001198818562001294565b9350620011aa818560208601620012e3565b620011b58162001319565b840191505092915050565b620011cb81620012d9565b82525050565b6000602082019050620011e860008301846200116e565b92915050565b60006040820190506200120560008301856200116e565b6200121460208301846200116e565b9392505050565b600060208201905081810360008301526200123781846200117f565b905092915050565b6000602082019050620012566000830184620011c0565b92915050565b6000604082019050620012736000830185620011c0565b620012826020830184620011c0565b9392505050565b600081519050919050565b600082825260208201905092915050565b6000620012b282620012b9565b9050919050565b600073ffffffffffffffffffffffffffffffffffffffff82169050919050565b6000819050919050565b60005b8381101562001303578082015181840152602081019050620012e6565b8381111562001313576000848401525b50505050565b6000601f19601f8301169050919050565b6200133581620012a5565b81146200134157600080fd5b50565b6200134f81620012d9565b81146200135b57600080fd5b50565b615513806200136e6000396000f3fe608060405234801561001057600080fd5b506004361061025e5760003560e01c80637bccacee11610146578063b451cecc116100c3578063e1c8ef0d11610087578063e1c8ef0d14610e3e578063e54fe9c814610ed6578063e6dee2cc14610f1a578063f67c5bd014610f38578063f9eaee0d14610f90578063fdd5764514610fea5761025e565b8063b451cecc14610cbe578063c12c21c014610d16578063c7de38a614610d4a578063cf33d95514610da2578063dfd5946514610de65761025e565b8063a147c6c61161010a578063a147c6c614610aef578063a77e0ba814610b3d578063af0a650214610b8b578063b2d0d86b14610c18578063b3c6194314610c725761025e565b80637bccacee146107515780637dd0ba82146107b55780637e4a6863146107f95780638456cb5914610a8d57806390b1300a14610a975761025e565b80634cba294a116101df57806352438e54116101a357806352438e54146105d1578063570a7af2146106155780635c975abb146106495780635e5f2e261461066957806362061c6d146106c157806378327438146106f95761025e565b80634cba294a1461046b5780634f0e0ef3146104c35780635094cb4f146104f757806350e036ff1461054f57806351e3f1601461056d5761025e565b80633192195c116102265780633192195c146103875780633bdfe4f5146103df5780633f4ba83a14610439578063406318281461044357806347dedfc91461044d5761025e565b8063044078b31461026357806320a05ff7146102b15780632495a599146102cf5780632630c12f14610303578063273984e114610337575b600080fd5b6102af6004803603604081101561027957600080fd5b81019080803573ffffffffffffffffffffffffffffffffffffffff16906020019092919080359060200190929190505050611058565b005b6102b96110a0565b6040518082815260200191505060405180910390f35b6102d76110ad565b604051808273ffffffffffffffffffffffffffffffffffffffff16815260200191505060405180910390f35b61030b6110d3565b604051808273ffffffffffffffffffffffffffffffffffffffff16815260200191505060405180910390f35b6103856004803603604081101561034d57600080fd5b81019080803573ffffffffffffffffffffffffffffffffffffffff1690602001909291908035151590602001909291905050506110f9565b005b6103c96004803603602081101561039d57600080fd5b81019080803573ffffffffffffffffffffffffffffffffffffffff1690602001909291905050506112f5565b6040518082815260200191505060405180910390f35b610421600480360360208110156103f557600080fd5b81019080803573ffffffffffffffffffffffffffffffffffffffff1690602001909291905050506114bc565b60405180821515815260200191505060405180910390f35b6104416114dc565b005b61044b611687565b005b610455611ec1565b6040518082815260200191505060405180910390f35b6104ad6004803603602081101561048157600080fd5b81019080803573ffffffffffffffffffffffffffffffffffffffff169060200190929190505050611ec7565b6040518082815260200191505060405180910390f35b6104cb611edf565b604051808273ffffffffffffffffffffffffffffffffffffffff16815260200191505060405180910390f35b6105236004803603602081101561050d57600080fd5b8101908080359060200190929190505050611f05565b604051808273ffffffffffffffffffffffffffffffffffffffff16815260200191505060405180910390f35b610557611f22565b6040518082815260200191505060405180910390f35b6105cf6004803603604081101561058357600080fd5b81019080803573ffffffffffffffffffffffffffffffffffffffff169060200190929190803573ffffffffffffffffffffffffffffffffffffffff169060200190929190505050611f33565b005b610613600480360360208110156105e757600080fd5b81019080803573ffffffffffffffffffffffffffffffffffffffff16906020019092919050505061200a565b005b61061d61245c565b604051808273ffffffffffffffffffffffffffffffffffffffff16815260200191505060405180910390f35b610651612482565b60405180821515815260200191505060405180910390f35b6106956004803603602081101561067f57600080fd5b8101908080359060200190929190505050612498565b604051808273ffffffffffffffffffffffffffffffffffffffff16815260200191505060405180910390f35b6106f7600480360360408110156106d757600080fd5b8101908080359060200190929190803590602001909291905050506124d7565b005b61073b6004803603602081101561070f57600080fd5b81019080803573ffffffffffffffffffffffffffffffffffffffff1690602001909291905050506126cb565b6040518082815260200191505060405180910390f35b6107b36004803603604081101561076757600080fd5b81019080803573ffffffffffffffffffffffffffffffffffffffff169060200190929190803573ffffffffffffffffffffffffffffffffffffffff1690602001909291905050506126e3565b005b6107f7600480360360208110156107cb57600080fd5b81019080803573ffffffffffffffffffffffffffffffffffffffff169060200190929190505050612b66565b005b610a8b600480360360a081101561080f57600080fd5b81019080803573ffffffffffffffffffffffffffffffffffffffff1690602001909291908035906020019064010000000081111561084c57600080fd5b82018360208201111561085e57600080fd5b8035906020019184602083028401116401000000008311171561088057600080fd5b919080806020026020016040519081016040528093929190818152602001838360200280828437600081840152601f19601f820116905080830192505050505050509192919290803590602001906401000000008111156108e057600080fd5b8201836020820111156108f257600080fd5b8035906020019184602083028401116401000000008311171561091457600080fd5b919080806020026020016040519081016040528093929190818152602001838360200280828437600081840152601f19601f8201169050808301925050505050505091929192908035906020019064010000000081111561097457600080fd5b82018360208201111561098657600080fd5b803590602001918460208302840111640100000000831117156109a857600080fd5b919080806020026020016040519081016040528093929190818152602001838360200280828437600081840152601f19601f82011690508083019250505050505050919291929080359060200190640100000000811115610a0857600080fd5b820183602082011115610a1a57600080fd5b80359060200191846020830284011164010000000083111715610a3c57600080fd5b919080806020026020016040519081016040528093929190818152602001838360200280828437600081840152601f19601f820116905080830192505050505050509192919290505050612bea565b005b610a95612f2d565b005b610ad960048036036020811015610aad57600080fd5b81019080803573ffffffffffffffffffffffffffffffffffffffff1690602001909291905050506130d8565b6040518082815260200191505060405180910390f35b610b3b60048036036040811015610b0557600080fd5b81019080803573ffffffffffffffffffffffffffffffffffffffff16906020019092919080359060200190929190505050613196565b005b610b8960048036036040811015610b5357600080fd5b81019080803573ffffffffffffffffffffffffffffffffffffffff169060200190929190803590602001909291905050506138a1565b005b610bd760048036036040811015610ba157600080fd5b81019080803573ffffffffffffffffffffffffffffffffffffffff169060200190929190803590602001909291905050506138e9565b604051808573ffffffffffffffffffffffffffffffffffffffff16815260200184815260200183815260200182815260200194505050505060405180910390f35b610c5a60048036036020811015610c2e57600080fd5b81019080803573ffffffffffffffffffffffffffffffffffffffff169060200190929190505050613aee565b60405180821515815260200191505060405180910390f35b610ca860048036036040811015610c8857600080fd5b810190808035906020019092919080359060200190929190505050613b0e565b6040518082815260200191505060405180910390f35b610d0060048036036020811015610cd457600080fd5b81019080803573ffffffffffffffffffffffffffffffffffffffff169060200190929190505050613b99565b6040518082815260200191505060405180910390f35b610d1e613bb1565b604051808273ffffffffffffffffffffffffffffffffffffffff16815260200191505060405180910390f35b610d8c60048036036020811015610d6057600080fd5b81019080803573ffffffffffffffffffffffffffffffffffffffff169060200190929190505050613bd7565b6040518082815260200191505060405180910390f35b610de460048036036020811015610db857600080fd5b81019080803573ffffffffffffffffffffffffffffffffffffffff169060200190929190505050613c7e565b005b610e2860048036036020811015610dfc57600080fd5b81019080803573ffffffffffffffffffffffffffffffffffffffff169060200190929190505050614153565b6040518082815260200191505060405180910390f35b610ed4600480360360a0811015610e5457600080fd5b81019080803573ffffffffffffffffffffffffffffffffffffffff169060200190929190803573ffffffffffffffffffffffffffffffffffffffff169060200190929190803573ffffffffffffffffffffffffffffffffffffffff1690602001909291908035906020019092919080359060200190929190505050614193565b005b610f1860048036036020811015610eec57600080fd5b81019080803573ffffffffffffffffffffffffffffffffffffffff169060200190929190505050614420565b005b610f22614576565b6040518082815260200191505060405180910390f35b610f7a60048036036020811015610f4e57600080fd5b81019080803573ffffffffffffffffffffffffffffffffffffffff16906020019092919050505061457c565b6040518082815260200191505060405180910390f35b610fd260048036036020811015610fa657600080fd5b81019080803573ffffffffffffffffffffffffffffffffffffffff169060200190929190505050614594565b60405180821515815260200191505060405180910390f35b61102c6004803603602081101561100057600080fd5b81019080803573ffffffffffffffffffffffffffffffffffffffff1690602001909291905050506145ea565b604051808273ffffffffffffffffffffffffffffffffffffffff16815260200191505060405180910390f35b80600660008473ffffffffffffffffffffffffffffffffffffffff1673ffffffffffffffffffffffffffffffffffffffff168152602001908152602001600020819055505050565b6000600380549050905090565b600d60009054906101000a900473ffffffffffffffffffffffffffffffffffffffff1681565b600c60009054906101000a900473ffffffffffffffffffffffffffffffffffffffff1681565b600060019054906101000a900473ffffffffffffffffffffffffffffffffffffffff1673ffffffffffffffffffffffffffffffffffffffff16635f259aba336040518263ffffffff1660e01b8152600401808273ffffffffffffffffffffffffffffffffffffffff16815260200191505060206040518083038186803b15801561118257600080fd5b505afa158015611196573d6000803e3d6000fd5b505050506040513d60208110156111ac57600080fd5b81019080805190602001909291905050506040518060400160405280600281526020017f4c3300000000000000000000000000000000000000000000000000000000000081525090611299576040517f08c379a00000000000000000000000000000000000000000000000000000000081526004018080602001828103825283818151815260200191508051906020019080838360005b8381101561125e578082015181840152602081019050611243565b50505050905090810190601f16801561128b5780820380516001836020036101000a031916815260200191505b509250505060405180910390fd5b5080600260008473ffffffffffffffffffffffffffffffffffffffff1673ffffffffffffffffffffffffffffffffffffffff16815260200190815260200160002060006101000a81548160ff0219169083151502179055505050565b60006114b58273ffffffffffffffffffffffffffffffffffffffff166317d11a156040518163ffffffff1660e01b815260040160206040518083038186803b15801561134057600080fd5b505afa158015611354573d6000803e3d6000fd5b505050506040513d601f19601f82011682018060405250810190611378919061526f565b6114a7600e60009054906101000a900473ffffffffffffffffffffffffffffffffffffffff1673ffffffffffffffffffffffffffffffffffffffff16630fce70fb6040518163ffffffff1660e01b815260040160206040518083038186803b1580156113e357600080fd5b505afa1580156113f7573d6000803e3d6000fd5b505050506040513d601f19601f8201168201806040525081019061141b919061526f565b8573ffffffffffffffffffffffffffffffffffffffff16631afbb7a46040518163ffffffff1660e01b815260040160206040518083038186803b15801561146157600080fd5b505afa158015611475573d6000803e3d6000fd5b505050506040513d601f19601f82011682018060405250810190611499919061526f565b6146a090919063ffffffff16565b61472690919063ffffffff16565b9050919050565b600a6020528060005260406000206000915054906101000a900460ff1681565b600060019054906101000a900473ffffffffffffffffffffffffffffffffffffffff1673ffffffffffffffffffffffffffffffffffffffff1663d4eb5db0336040518263ffffffff1660e01b8152600401808273ffffffffffffffffffffffffffffffffffffffff16815260200191505060206040518083038186803b15801561156557600080fd5b505afa158015611579573d6000803e3d6000fd5b505050506040513d602081101561158f57600080fd5b81019080805190602001909291905050506040518060400160405280600281526020017f4c310000000000000000000000000000000000000000000000000000000000008152509061167c576040517f08c379a00000000000000000000000000000000000000000000000000000000081526004018080602001828103825283818151815260200191508051906020019080838360005b83811015611641578082015181840152602081019050611626565b50505050905090810190601f16801561166e5780820380516001836020036101000a031916815260200191505b509250505060405180910390fd5b506116856147af565b565b600160009054906101000a900473ffffffffffffffffffffffffffffffffffffffff1673ffffffffffffffffffffffffffffffffffffffff163373ffffffffffffffffffffffffffffffffffffffff16146040518060400160405280600281526020017f43330000000000000000000000000000000000000000000000000000000000008152509061174f576040517f08c379a00000000000000000000000000000000000000000000000000000000081526004016117469190615333565b60405180910390fd5b50612710600160009054906101000a900473ffffffffffffffffffffffffffffffffffffffff1673ffffffffffffffffffffffffffffffffffffffff16639e52f12e6040518163ffffffff1660e01b815260040160206040518083038186803b1580156117bb57600080fd5b505afa1580156117cf573d6000803e3d6000fd5b505050506040513d601f19601f820116820180604052508101906117f3919061526f565b1080156118a05750612710600160009054906101000a900473ffffffffffffffffffffffffffffffffffffffff1673ffffffffffffffffffffffffffffffffffffffff16635e0b63d36040518163ffffffff1660e01b815260040160206040518083038186803b15801561186657600080fd5b505afa15801561187a573d6000803e3d6000fd5b505050506040513d601f19601f8201168201806040525081019061189e919061526f565b105b801561194c5750612710600160009054906101000a900473ffffffffffffffffffffffffffffffffffffffff1673ffffffffffffffffffffffffffffffffffffffff16633915ffaa6040518163ffffffff1660e01b815260040160206040518083038186803b15801561191257600080fd5b505afa158015611926573d6000803e3d6000fd5b505050506040513d601f19601f8201168201806040525081019061194a919061526f565b105b80156119f85750612710600160009054906101000a900473ffffffffffffffffffffffffffffffffffffffff1673ffffffffffffffffffffffffffffffffffffffff16638053fcbe6040518163ffffffff1660e01b815260040160206040518083038186803b1580156119be57600080fd5b505afa1580156119d2573d6000803e3d6000fd5b505050506040513d601f19601f820116820180604052508101906119f6919061526f565b105b6040518060400160405280600281526020017f564600000000000000000000000000000000000000000000000000000000000081525090611a6f576040517f08c379a0000000000000000000000000000000000000000000000000000000008152600401611a669190615333565b60405180910390fd5b50612710600160009054906101000a900473ffffffffffffffffffffffffffffffffffffffff1673ffffffffffffffffffffffffffffffffffffffff1663e1b4264c6040518163ffffffff1660e01b815260040160206040518083038186803b158015611adb57600080fd5b505afa158015611aef573d6000803e3d6000fd5b505050506040513d601f19601f82011682018060405250810190611b13919061526f565b116040518060400160405280600281526020017f564d00000000000000000000000000000000000000000000000000000000000081525090611b8b576040517f08c379a0000000000000000000000000000000000000000000000000000000008152600401611b829190615333565b60405180910390fd5b50611cdd600160009054906101000a900473ffffffffffffffffffffffffffffffffffffffff1673ffffffffffffffffffffffffffffffffffffffff16633915ffaa6040518163ffffffff1660e01b815260040160206040518083038186803b158015611bf757600080fd5b505afa158015611c0b573d6000803e3d6000fd5b505050506040513d601f19601f82011682018060405250810190611c2f919061526f565b600160009054906101000a900473ffffffffffffffffffffffffffffffffffffffff1673ffffffffffffffffffffffffffffffffffffffff16638053fcbe6040518163ffffffff1660e01b815260040160206040518083038186803b158015611c9757600080fd5b505afa158015611cab573d6000803e3d6000fd5b505050506040513d601f19601f82011682018060405250810190611ccf919061526f565b61461d90919063ffffffff16565b60046000600d60009054906101000a900473ffffffffffffffffffffffffffffffffffffffff1673ffffffffffffffffffffffffffffffffffffffff1673ffffffffffffffffffffffffffffffffffffffff168152602001908152602001600020819055506000600190505b600380549050811015611eb65760046000600d60009054906101000a900473ffffffffffffffffffffffffffffffffffffffff1673ffffffffffffffffffffffffffffffffffffffff1673ffffffffffffffffffffffffffffffffffffffff168152602001908152602001600020546004600060038481548110611dc957fe5b9060005260206000200160009054906101000a900473ffffffffffffffffffffffffffffffffffffffff1673ffffffffffffffffffffffffffffffffffffffff1673ffffffffffffffffffffffffffffffffffffffff1681526020019081526020016000205411156040518060400160405280600281526020017f434300000000000000000000000000000000000000000000000000000000000081525090611ea8576040517f08c379a0000000000000000000000000000000000000000000000000000000008152600401611e9f9190615333565b60405180910390fd5b508080600101915050611d49565b50611ebf614899565b565b60105481565b60076020528060005260406000206000915090505481565b600f60009054906101000a900473ffffffffffffffffffffffffffffffffffffffff1681565b6000611f1b826008614a3390919063ffffffff16565b9050919050565b6000611f2e6008614a4d565b905090565b600160009054906101000a900473ffffffffffffffffffffffffffffffffffffffff1673ffffffffffffffffffffffffffffffffffffffff163373ffffffffffffffffffffffffffffffffffffffff16146040518060400160405280600281526020017f433300000000000000000000000000000000000000000000000000000000000081525090611ffb576040517f08c379a0000000000000000000000000000000000000000000000000000000008152600401611ff29190615333565b60405180910390fd5b506120068282614a62565b5050565b600060019054906101000a900473ffffffffffffffffffffffffffffffffffffffff1673ffffffffffffffffffffffffffffffffffffffff16635f259aba336040518263ffffffff1660e01b8152600401808273ffffffffffffffffffffffffffffffffffffffff16815260200191505060206040518083038186803b15801561209357600080fd5b505afa1580156120a7573d6000803e3d6000fd5b505050506040513d60208110156120bd57600080fd5b81019080805190602001909291905050506040518060400160405280600281526020017f4c33000000000000000000000000000000000000000000000000000000000000815250906121aa576040517f08c379a00000000000000000000000000000000000000000000000000000000081526004018080602001828103825283818151815260200191508051906020019080838360005b8381101561216f578082015181840152602081019050612154565b50505050905090810190601f16801561219c5780820380516001836020036101000a031916815260200191505b509250505060405180910390fd5b50600073ffffffffffffffffffffffffffffffffffffffff168173ffffffffffffffffffffffffffffffffffffffff1614156040518060400160405280600281526020017f5a3000000000000000000000000000000000000000000000000000000000000081525090612253576040517f08c379a000000000000000000000000000000000000000000000000000000000815260040161224a9190615333565b60405180910390fd5b50612268816008614bbd90919063ffffffff16565b6040518060400160405280600281526020017f4341000000000000000000000000000000000000000000000000000000000000815250906122df576040517f08c379a00000000000000000000000000000000000000000000000000000000081526004016122d69190615333565b60405180910390fd5b506000600a6000600b60008573ffffffffffffffffffffffffffffffffffffffff1673ffffffffffffffffffffffffffffffffffffffff16815260200190815260200160002060009054906101000a900473ffffffffffffffffffffffffffffffffffffffff1673ffffffffffffffffffffffffffffffffffffffff1673ffffffffffffffffffffffffffffffffffffffff16815260200190815260200160002060006101000a81548160ff0219169083151502179055506000600b60008373ffffffffffffffffffffffffffffffffffffffff1673ffffffffffffffffffffffffffffffffffffffff16815260200190815260200160002060006101000a81548173ffffffffffffffffffffffffffffffffffffffff021916908373ffffffffffffffffffffffffffffffffffffffff1602179055508073ffffffffffffffffffffffffffffffffffffffff167fab9f405bf0c19b97f65a7031634db41569cd2f0e0376a610a1e977f9ab22b58f60405160405180910390a250565b600e60009054906101000a900473ffffffffffffffffffffffffffffffffffffffff1681565b60008060009054906101000a900460ff16905090565b600381815481106124a857600080fd5b906000526020600020016000915054906101000a900473ffffffffffffffffffffffffffffffffffffffff1681565b600060019054906101000a900473ffffffffffffffffffffffffffffffffffffffff1673ffffffffffffffffffffffffffffffffffffffff16635f259aba336040518263ffffffff1660e01b8152600401808273ffffffffffffffffffffffffffffffffffffffff16815260200191505060206040518083038186803b15801561256057600080fd5b505afa158015612574573d6000803e3d6000fd5b505050506040513d602081101561258a57600080fd5b81019080805190602001909291905050506040518060400160405280600281526020017f4c3300000000000000000000000000000000000000000000000000000000000081525090612677576040517f08c379a00000000000000000000000000000000000000000000000000000000081526004018080602001828103825283818151815260200191508051906020019080838360005b8381101561263c578082015181840152602081019050612621565b50505050905090810190601f1680156126695780820380516001836020036101000a031916815260200191505b509250505060405180910390fd5b50816010819055508060118190555061268e614899565b7f727652fff0946c19c233fd3eab5fc03db9e9fdd907e902d9136c2a9cac47101c82826040516126bf9291906153a7565b60405180910390a15050565b60046020528060005260406000206000915090505481565b600060019054906101000a900473ffffffffffffffffffffffffffffffffffffffff1673ffffffffffffffffffffffffffffffffffffffff16635f259aba336040518263ffffffff1660e01b8152600401808273ffffffffffffffffffffffffffffffffffffffff16815260200191505060206040518083038186803b15801561276c57600080fd5b505afa158015612780573d6000803e3d6000fd5b505050506040513d602081101561279657600080fd5b81019080805190602001909291905050506040518060400160405280600281526020017f4c3300000000000000000000000000000000000000000000000000000000000081525090612883576040517f08c379a00000000000000000000000000000000000000000000000000000000081526004018080602001828103825283818151815260200191508051906020019080838360005b8381101561284857808201518184015260208101905061282d565b50505050905090810190601f1680156128755780820380516001836020036101000a031916815260200191505b509250505060405180910390fd5b50600073ffffffffffffffffffffffffffffffffffffffff168273ffffffffffffffffffffffffffffffffffffffff16141580156128ee5750600073ffffffffffffffffffffffffffffffffffffffff168173ffffffffffffffffffffffffffffffffffffffff1614155b6040518060400160405280600281526020017f5a3000000000000000000000000000000000000000000000000000000000000081525090612965576040517f08c379a000000000000000000000000000000000000000000000000000000000815260040161295c9190615333565b60405180910390fd5b506000600a6000600b60008673ffffffffffffffffffffffffffffffffffffffff1673ffffffffffffffffffffffffffffffffffffffff16815260200190815260200160002060009054906101000a900473ffffffffffffffffffffffffffffffffffffffff1673ffffffffffffffffffffffffffffffffffffffff1673ffffffffffffffffffffffffffffffffffffffff16815260200190815260200160002060006101000a81548160ff0219169083151502179055506001600a60008373ffffffffffffffffffffffffffffffffffffffff1673ffffffffffffffffffffffffffffffffffffffff16815260200190815260200160002060006101000a81548160ff021916908315150217905550612a89826008614bed90919063ffffffff16565b5080600b60008473ffffffffffffffffffffffffffffffffffffffff1673ffffffffffffffffffffffffffffffffffffffff16815260200190815260200160002060006101000a81548173ffffffffffffffffffffffffffffffffffffffff021916908373ffffffffffffffffffffffffffffffffffffffff1602179055508073ffffffffffffffffffffffffffffffffffffffff168273ffffffffffffffffffffffffffffffffffffffff167f4bcbefaef68b99503d502f5a6abe7bca2b183ab8ac55457013c77d084ebd130560405160405180910390a35050565b612b6f81614594565b6040518060400160405280600281526020017f433200000000000000000000000000000000000000000000000000000000000081525090612be6576040517f08c379a0000000000000000000000000000000000000000000000000000000008152600401612bdd9190615333565b60405180910390fd5b5050565b600a60003373ffffffffffffffffffffffffffffffffffffffff1673ffffffffffffffffffffffffffffffffffffffff16815260200190815260200160002060009054906101000a900460ff166040518060400160405280600281526020017f433400000000000000000000000000000000000000000000000000000000000081525090612cae576040517f08c379a0000000000000000000000000000000000000000000000000000000008152600401612ca59190615333565b60405180910390fd5b5060008060005b8651811015612dd657612dc7600c60009054906101000a900473ffffffffffffffffffffffffffffffffffffffff1673ffffffffffffffffffffffffffffffffffffffff1663b66102df898481518110612d0b57fe5b6020026020010151888581518110612d1f57fe5b6020026020010151600f60009054906101000a900473ffffffffffffffffffffffffffffffffffffffff166040518463ffffffff1660e01b8152600401612d6893929190615370565b60206040518083038186803b158015612d8057600080fd5b505afa158015612d94573d6000803e3d6000fd5b505050506040513d601f19601f82011682018060405250810190612db8919061526f565b84614c1d90919063ffffffff16565b92508080600101915050612cb5565b5060005b8551811015612f1857612e0088858381518110612df357fe5b6020026020010151614a62565b612f09600c60009054906101000a900473ffffffffffffffffffffffffffffffffffffffff1673ffffffffffffffffffffffffffffffffffffffff1663b66102df888481518110612e4d57fe5b6020026020010151878581518110612e6157fe5b6020026020010151600f60009054906101000a900473ffffffffffffffffffffffffffffffffffffffff166040518463ffffffff1660e01b8152600401612eaa93929190615370565b60206040518083038186803b158015612ec257600080fd5b505afa158015612ed6573d6000803e3d6000fd5b505050506040513d601f19601f82011682018060405250810190612efa919061526f565b83614c1d90919063ffffffff16565b91508080600101915050612dda565b50612f24878383614ca5565b50505050505050565b600060019054906101000a900473ffffffffffffffffffffffffffffffffffffffff1673ffffffffffffffffffffffffffffffffffffffff16633a41ec64336040518263ffffffff1660e01b8152600401808273ffffffffffffffffffffffffffffffffffffffff16815260200191505060206040518083038186803b158015612fb657600080fd5b505afa158015612fca573d6000803e3d6000fd5b505050506040513d6020811015612fe057600080fd5b81019080805190602001909291905050506040518060400160405280600281526020017f4c31000000000000000000000000000000000000000000000000000000000000815250906130cd576040517f08c379a00000000000000000000000000000000000000000000000000000000081526004018080602001828103825283818151815260200191508051906020019080838360005b83811015613092578082015181840152602081019050613077565b50505050905090810190601f1680156130bf5780820380516001836020036101000a031916815260200191505b509250505060405180910390fd5b506130d6614e58565b565b60008080600660008573ffffffffffffffffffffffffffffffffffffffff1673ffffffffffffffffffffffffffffffffffffffff16815260200190815260200160002054905060005b6131296110a0565b81101561317757806001901b92506000838316111561316a57600061314e86836138e9565b93505050506131668186614c1d90919063ffffffff16565b9450505b8080600101915050613121565b5061318d6127108461472690919063ffffffff16565b92505050919050565b600060019054906101000a900473ffffffffffffffffffffffffffffffffffffffff1673ffffffffffffffffffffffffffffffffffffffff16635f259aba336040518263ffffffff1660e01b8152600401808273ffffffffffffffffffffffffffffffffffffffff16815260200191505060206040518083038186803b15801561321f57600080fd5b505afa158015613233573d6000803e3d6000fd5b505050506040513d602081101561324957600080fd5b81019080805190602001909291905050506040518060400160405280600281526020017f4c3300000000000000000000000000000000000000000000000000000000000081525090613336576040517f08c379a00000000000000000000000000000000000000000000000000000000081526004018080602001828103825283818151815260200191508051906020019080838360005b838110156132fb5780820151818401526020810190506132e0565b50505050905090810190601f1680156133285780820380516001836020036101000a031916815260200191505b509250505060405180910390fd5b50600073ffffffffffffffffffffffffffffffffffffffff168273ffffffffffffffffffffffffffffffffffffffff1614156040518060400160405280600281526020017f5a30000000000000000000000000000000000000000000000000000000000000815250906133df576040517f08c379a00000000000000000000000000000000000000000000000000000000081526004016133d69190615333565b60405180910390fd5b50600081118015613451575060046000600d60009054906101000a900473ffffffffffffffffffffffffffffffffffffffff1673ffffffffffffffffffffffffffffffffffffffff1673ffffffffffffffffffffffffffffffffffffffff168152602001908152602001600020548111155b6040518060400160405280600281526020017f4331000000000000000000000000000000000000000000000000000000000000815250906134c8576040517f08c379a00000000000000000000000000000000000000000000000000000000081526004016134bf9190615333565b60405180910390fd5b50610100600380549050106040518060400160405280600281526020017f43360000000000000000000000000000000000000000000000000000000000008152509061354a576040517f08c379a00000000000000000000000000000000000000000000000000000000081526004016135419190615333565b60405180910390fd5b5060008273ffffffffffffffffffffffffffffffffffffffff166370a08231306040518263ffffffff1660e01b815260040161358691906152ef565b60206040518083038186803b15801561359e57600080fd5b505afa1580156135b2573d6000803e3d6000fd5b505050506040513d601f19601f820116820180604052508101906135d6919061526f565b10156135e157600080fd5b600c60009054906101000a900473ffffffffffffffffffffffffffffffffffffffff1673ffffffffffffffffffffffffffffffffffffffff1663743b908683600d60009054906101000a900473ffffffffffffffffffffffffffffffffffffffff166040518363ffffffff1660e01b815260040161366092919061530a565b60206040518083038186803b15801561367857600080fd5b505afa15801561368c573d6000803e3d6000fd5b505050506040513d601f19601f820116820180604052508101906136b0919061526f565b50600260008373ffffffffffffffffffffffffffffffffffffffff1673ffffffffffffffffffffffffffffffffffffffff16815260200190815260200160002060009054906101000a900460ff1661380b576001600260008473ffffffffffffffffffffffffffffffffffffffff1673ffffffffffffffffffffffffffffffffffffffff16815260200190815260200160002060006101000a81548160ff0219169083151502179055506003805490506001901b600560008473ffffffffffffffffffffffffffffffffffffffff1673ffffffffffffffffffffffffffffffffffffffff168152602001908152602001600020819055506003829080600181540180825580915050600190039060005260206000200160009091909190916101000a81548173ffffffffffffffffffffffffffffffffffffffff021916908373ffffffffffffffffffffffffffffffffffffffff1602179055505b80600460008473ffffffffffffffffffffffffffffffffffffffff1673ffffffffffffffffffffffffffffffffffffffff168152602001908152602001600020819055508173ffffffffffffffffffffffffffffffffffffffff167fa52fb6bfa514a4ddcb31de40a5f6c20d767db1f921a8b7747973d93dc5da7a02826040516138959190615355565b60405180910390a25050565b80600760008473ffffffffffffffffffffffffffffffffffffffff1673ffffffffffffffffffffffffffffffffffffffff168152602001908152602001600020819055505050565b600080600080600385815481106138fc57fe5b9060005260206000200160009054906101000a900473ffffffffffffffffffffffffffffffffffffffff1693508373ffffffffffffffffffffffffffffffffffffffff166370a08231876040518263ffffffff1660e01b815260040161396291906152ef565b60206040518083038186803b15801561397a57600080fd5b505afa15801561398e573d6000803e3d6000fd5b505050506040513d601f19601f820116820180604052508101906139b2919061526f565b92506001831115613ae557600c60009054906101000a900473ffffffffffffffffffffffffffffffffffffffff1673ffffffffffffffffffffffffffffffffffffffff1663b66102df8486600d60009054906101000a900473ffffffffffffffffffffffffffffffffffffffff166040518463ffffffff1660e01b8152600401613a3e93929190615370565b60206040518083038186803b158015613a5657600080fd5b505afa158015613a6a573d6000803e3d6000fd5b505050506040513d601f19601f82011682018060405250810190613a8e919061526f565b9150613ae2600460008673ffffffffffffffffffffffffffffffffffffffff1673ffffffffffffffffffffffffffffffffffffffff16815260200190815260200160002054836146a090919063ffffffff16565b90505b92959194509250565b60026020528060005260406000206000915054906101000a900460ff1681565b6000613b25836127106146a090919063ffffffff16565b905060005b613b3e60018461461d90919063ffffffff16565b811015613b7b57613b6c612710613b5e86856146a090919063ffffffff16565b61472690919063ffffffff16565b91508080600101915050613b2a565b50613b916127108261472690919063ffffffff16565b905092915050565b60066020528060005260406000206000915090505481565b600160009054906101000a900473ffffffffffffffffffffffffffffffffffffffff1681565b60008080600660008573ffffffffffffffffffffffffffffffffffffffff1673ffffffffffffffffffffffffffffffffffffffff16815260200190815260200160002054905060005b613c286110a0565b811015613c7657806001901b925060008383161115613c69576000613c4d86836138e9565b5092505050613c658186614c1d90919063ffffffff16565b9450505b8080600101915050613c20565b505050919050565b600073ffffffffffffffffffffffffffffffffffffffff16600160009054906101000a900473ffffffffffffffffffffffffffffffffffffffff1673ffffffffffffffffffffffffffffffffffffffff16146040518060400160405280600281526020017f493000000000000000000000000000000000000000000000000000000000000081525090613d47576040517f08c379a0000000000000000000000000000000000000000000000000000000008152600401613d3e9190615333565b60405180910390fd5b50600060019054906101000a900473ffffffffffffffffffffffffffffffffffffffff1673ffffffffffffffffffffffffffffffffffffffff16635f259aba336040518263ffffffff1660e01b8152600401808273ffffffffffffffffffffffffffffffffffffffff16815260200191505060206040518083038186803b158015613dd157600080fd5b505afa158015613de5573d6000803e3d6000fd5b505050506040513d6020811015613dfb57600080fd5b81019080805190602001909291905050506040518060400160405280600281526020017f4c3300000000000000000000000000000000000000000000000000000000000081525090613ee8576040517f08c379a00000000000000000000000000000000000000000000000000000000081526004018080602001828103825283818151815260200191508051906020019080838360005b83811015613ead578082015181840152602081019050613e92565b50505050905090810190601f168015613eda5780820380516001836020036101000a031916815260200191505b509250505060405180910390fd5b5080600160006101000a81548173ffffffffffffffffffffffffffffffffffffffff021916908373ffffffffffffffffffffffffffffffffffffffff1602179055508073ffffffffffffffffffffffffffffffffffffffff1663570a7af26040518163ffffffff1660e01b815260040160206040518083038186803b158015613f7057600080fd5b505afa158015613f84573d6000803e3d6000fd5b505050506040513d601f19601f82011682018060405250810190613fa89190615246565b600e60006101000a81548173ffffffffffffffffffffffffffffffffffffffff021916908373ffffffffffffffffffffffffffffffffffffffff160217905550600d60009054906101000a900473ffffffffffffffffffffffffffffffffffffffff1673ffffffffffffffffffffffffffffffffffffffff16600e60009054906101000a900473ffffffffffffffffffffffffffffffffffffffff1673ffffffffffffffffffffffffffffffffffffffff16632495a5996040518163ffffffff1660e01b815260040160206040518083038186803b15801561408957600080fd5b505afa15801561409d573d6000803e3d6000fd5b505050506040513d601f19601f820116820180604052508101906140c19190615246565b73ffffffffffffffffffffffffffffffffffffffff16146040518060400160405280600281526020017f43300000000000000000000000000000000000000000000000000000000000008152509061414f576040517f08c379a00000000000000000000000000000000000000000000000000000000081526004016141469190615333565b60405180910390fd5b5050565b600061418c614161836112f5565b61417e612710614170866130d8565b6146a090919063ffffffff16565b61472690919063ffffffff16565b9050919050565b600a60003373ffffffffffffffffffffffffffffffffffffffff1673ffffffffffffffffffffffffffffffffffffffff16815260200190815260200160002060009054906101000a900460ff166040518060400160405280600281526020017f433400000000000000000000000000000000000000000000000000000000000081525090614257576040517f08c379a000000000000000000000000000000000000000000000000000000000815260040161424e9190615333565b60405180910390fd5b506142628584614a62565b6000600c60009054906101000a900473ffffffffffffffffffffffffffffffffffffffff1673ffffffffffffffffffffffffffffffffffffffff1663b66102df8487600f60009054906101000a900473ffffffffffffffffffffffffffffffffffffffff166040518463ffffffff1660e01b81526004016142e593929190615370565b60206040518083038186803b1580156142fd57600080fd5b505afa158015614311573d6000803e3d6000fd5b505050506040513d601f19601f82011682018060405250810190614335919061526f565b90506000600c60009054906101000a900473ffffffffffffffffffffffffffffffffffffffff1673ffffffffffffffffffffffffffffffffffffffff1663b66102df8487600f60009054906101000a900473ffffffffffffffffffffffffffffffffffffffff166040518463ffffffff1660e01b81526004016143ba93929190615370565b60206040518083038186803b1580156143d257600080fd5b505afa1580156143e6573d6000803e3d6000fd5b505050506040513d601f19601f8201168201806040525081019061440a919061526f565b9050614417878383614ca5565b50505050505050565b600160009054906101000a900473ffffffffffffffffffffffffffffffffffffffff1673ffffffffffffffffffffffffffffffffffffffff163373ffffffffffffffffffffffffffffffffffffffff16146040518060400160405280600281526020017f4333000000000000000000000000000000000000000000000000000000000000815250906144e8576040517f08c379a00000000000000000000000000000000000000000000000000000000081526004016144df9190615333565b60405180910390fd5b506001600660008373ffffffffffffffffffffffffffffffffffffffff1673ffffffffffffffffffffffffffffffffffffffff168152602001908152602001600020819055506001600760008373ffffffffffffffffffffffffffffffffffffffff1673ffffffffffffffffffffffffffffffffffffffff1681526020019081526020016000208190555050565b60115481565b60056020528060005260406000206000915090505481565b6000600260008373ffffffffffffffffffffffffffffffffffffffff1673ffffffffffffffffffffffffffffffffffffffff16815260200190815260200160002060009054906101000a900460ff169050919050565b600b6020528060005260406000206000915054906101000a900473ffffffffffffffffffffffffffffffffffffffff1681565b600082821115614695576040517f08c379a000000000000000000000000000000000000000000000000000000000815260040180806020018281038252601e8152602001807f536166654d6174683a207375627472616374696f6e206f766572666c6f77000081525060200191505060405180910390fd5b818303905092915050565b6000808314156146b35760009050614720565b60008284029050828482816146c457fe5b041461471b576040517f08c379a00000000000000000000000000000000000000000000000000000000081526004018080602001828103825260218152602001806154bd6021913960400191505060405180910390fd5b809150505b92915050565b600080821161479d576040517f08c379a000000000000000000000000000000000000000000000000000000000815260040180806020018281038252601a8152602001807f536166654d6174683a206469766973696f6e206279207a65726f00000000000081525060200191505060405180910390fd5b8183816147a657fe5b04905092915050565b6147b7612482565b614829576040517f08c379a00000000000000000000000000000000000000000000000000000000081526004018080602001828103825260148152602001807f5061757361626c653a206e6f742070617573656400000000000000000000000081525060200191505060405180910390fd5b60008060006101000a81548160ff0219169083151502179055507f5db9ee0a495bf2e6ff9c91a7834c1ba4fdd244a5e8aa4e537bd38aeae4b073aa61486c614f43565b604051808273ffffffffffffffffffffffffffffffffffffffff16815260200191505060405180910390a1565b600073ffffffffffffffffffffffffffffffffffffffff16600160009054906101000a900473ffffffffffffffffffffffffffffffffffffffff1673ffffffffffffffffffffffffffffffffffffffff1614614a31576000614913614902601054601154613b0e565b61271061461d90919063ffffffff16565b9050600160009054906101000a900473ffffffffffffffffffffffffffffffffffffffff1673ffffffffffffffffffffffffffffffffffffffff16633915ffaa6040518163ffffffff1660e01b815260040160206040518083038186803b15801561497d57600080fd5b505afa158015614991573d6000803e3d6000fd5b505050506040513d601f19601f820116820180604052508101906149b5919061526f565b81106040518060400160405280600281526020017f434200000000000000000000000000000000000000000000000000000000000081525090614a2e576040517f08c379a0000000000000000000000000000000000000000000000000000000008152600401614a259190615333565b60405180910390fd5b50505b565b6000614a428360000183614f4b565b60001c905092915050565b6000614a5b82600001614fce565b9050919050565b614a6b81612b66565b6000600560008373ffffffffffffffffffffffffffffffffffffffff1673ffffffffffffffffffffffffffffffffffffffff16815260200190815260200160002054600660008573ffffffffffffffffffffffffffffffffffffffff1673ffffffffffffffffffffffffffffffffffffffff16815260200190815260200160002054161415614bb957600560008273ffffffffffffffffffffffffffffffffffffffff1673ffffffffffffffffffffffffffffffffffffffff16815260200190815260200160002054600660008473ffffffffffffffffffffffffffffffffffffffff1673ffffffffffffffffffffffffffffffffffffffff1681526020019081526020016000205417600660008473ffffffffffffffffffffffffffffffffffffffff1673ffffffffffffffffffffffffffffffffffffffff168152602001908152602001600020819055505b5050565b6000614be5836000018373ffffffffffffffffffffffffffffffffffffffff1660001b614fdf565b905092915050565b6000614c15836000018373ffffffffffffffffffffffffffffffffffffffff1660001b6150c7565b905092915050565b600080828401905083811015614c9b576040517f08c379a000000000000000000000000000000000000000000000000000000000815260040180806020018281038252601b8152602001807f536166654d6174683a206164646974696f6e206f766572666c6f77000000000081525060200191505060405180910390fd5b8091505092915050565b614cba601054836146a090919063ffffffff16565b614ccf612710836146a090919063ffffffff16565b118015614d1d5750601154600760008573ffffffffffffffffffffffffffffffffffffffff1673ffffffffffffffffffffffffffffffffffffffff1681526020019081526020016000205411155b15614d7657600760008473ffffffffffffffffffffffffffffffffffffffff1673ffffffffffffffffffffffffffffffffffffffff16815260200190815260200160002060008154809291906001019190505550614e53565b614d87614d8284614153565b615137565b612710614d9384614153565b10156040518060400160405280600281526020017f433500000000000000000000000000000000000000000000000000000000000081525090614e0c576040517f08c379a0000000000000000000000000000000000000000000000000000000008152600401614e039190615333565b60405180910390fd5b506001600760008573ffffffffffffffffffffffffffffffffffffffff1673ffffffffffffffffffffffffffffffffffffffff168152602001908152602001600020819055505b505050565b614e60612482565b15614ed3576040517f08c379a00000000000000000000000000000000000000000000000000000000081526004018080602001828103825260108152602001807f5061757361626c653a207061757365640000000000000000000000000000000081525060200191505060405180910390fd5b60016000806101000a81548160ff0219169083151502179055507f62e78cea01bee320cd4e420270b5ea74000d11b0c9f74754ebdbfc544b05a258614f16614f43565b604051808273ffffffffffffffffffffffffffffffffffffffff16815260200191505060405180910390a1565b600033905090565b600081836000018054905011614fac576040517f08c379a000000000000000000000000000000000000000000000000000000000815260040180806020018281038252602281526020018061549b6022913960400191505060405180910390fd5b826000018281548110614fbb57fe5b9060005260206000200154905092915050565b600081600001805490509050919050565b600080836001016000848152602001908152602001600020549050600081146150bb576000600182039050600060018660000180549050039050600086600001828154811061502a57fe5b906000526020600020015490508087600001848154811061504757fe5b906000526020600020018190555060018301876001016000838152602001908152602001600020819055508660000180548061507f57fe5b600190038181906000526020600020016000905590558660010160008781526020019081526020016000206000905560019450505050506150c1565b60009150505b92915050565b60006150d383836151d0565b61512c578260000182908060018154018082558091505060019003906000526020600020016000909190919091505582600001805490508360010160008481526020019081526020016000208190555060019050615131565b600090505b92915050565b6151cd81604051602401808281526020019150506040516020818303038152906040527ff5b1bba9000000000000000000000000000000000000000000000000000000007bffffffffffffffffffffffffffffffffffffffffffffffffffffffff19166020820180517bffffffffffffffffffffffffffffffffffffffffffffffffffffffff83818316178352505050506151f3565b50565b600080836001016000848152602001908152602001600020541415905092915050565b60008151905060006a636f6e736f6c652e6c6f679050602083016000808483855afa5050505050565b60008151905061522b8161546c565b92915050565b60008151905061524081615483565b92915050565b60006020828403121561525857600080fd5b60006152668482850161521c565b91505092915050565b60006020828403121561528157600080fd5b600061528f84828501615231565b91505092915050565b6152a1816153ec565b82525050565b60006152b2826153d0565b6152bc81856153db565b93506152cc818560208601615428565b6152d58161545b565b840191505092915050565b6152e98161541e565b82525050565b60006020820190506153046000830184615298565b92915050565b600060408201905061531f6000830185615298565b61532c6020830184615298565b9392505050565b6000602082019050818103600083015261534d81846152a7565b905092915050565b600060208201905061536a60008301846152e0565b92915050565b600060608201905061538560008301866152e0565b6153926020830185615298565b61539f6040830184615298565b949350505050565b60006040820190506153bc60008301856152e0565b6153c960208301846152e0565b9392505050565b600081519050919050565b600082825260208201905092915050565b60006153f7826153fe565b9050919050565b600073ffffffffffffffffffffffffffffffffffffffff82169050919050565b6000819050919050565b60005b8381101561544657808201518184015260208101905061542b565b83811115615455576000848401525b50505050565b6000601f19601f8301169050919050565b615475816153ec565b811461548057600080fd5b50565b61548c8161541e565b811461549757600080fd5b5056fe456e756d657261626c655365743a20696e646578206f7574206f6620626f756e6473536166654d6174683a206d756c7469706c69636174696f6e206f766572666c6f77a26469706673582212208b3d74b66161a4de33c58e8a205f266a3e7023daa15187e4a90cb765352593ef64736f6c63430007060033536166654d6174683a206d756c7469706c69636174696f6e206f766572666c6f77",
  "linkReferences": {},
  "deployedLinkReferences": {}
}