{
  "_format": "hh-sol-artifact-1",
  "contractName": "AccountMinerAuction",
  "sourceName": "contracts/core/AccountMinerAuction.sol",
  "abi": [
    {
      "inputs": [
        {
          "internalType": "address",
          "name": "addressProvider",
          "type": "address"
        }
      ],
      "stateMutability": "nonpayable",
      "type": "constructor"
    },
    {
      "anonymous": false,
      "inputs": [
        {
          "indexed": true,
          "internalType": "address",
          "name": "sponsor",
          "type": "address"
        }
      ],
      "name": "AccountMined",
      "type": "event"
    },
    {
      "anonymous": false,
      "inputs": [
        {
          "indexed": true,
          "internalType": "address",
          "name": "sponsor",
          "type": "address"
        },
        {
          "indexed": false,
          "internalType": "uint256",
          "name": "amount",
          "type": "uint256"
        }
      ],
      "name": "BidIncreased",
      "type": "event"
    },
    {
      "anonymous": false,
      "inputs": [
        {
          "indexed": true,
          "internalType": "address",
          "name": "sponsor",
          "type": "address"
        },
        {
          "indexed": false,
          "internalType": "uint256",
          "name": "amount",
          "type": "uint256"
        }
      ],
      "name": "BidPlaced",
      "type": "event"
    },
    {
      "anonymous": false,
      "inputs": [
        {
          "indexed": true,
          "internalType": "address",
          "name": "sponsor",
          "type": "address"
        },
        {
          "indexed": false,
          "internalType": "uint256",
          "name": "amount",
          "type": "uint256"
        }
      ],
      "name": "BidTaken",
      "type": "event"
    },
    {
      "anonymous": false,
      "inputs": [
        {
          "indexed": false,
          "internalType": "address",
          "name": "account",
          "type": "address"
        }
      ],
      "name": "Paused",
      "type": "event"
    },
    {
      "anonymous": false,
      "inputs": [
        {
          "indexed": false,
          "internalType": "address",
          "name": "account",
          "type": "address"
        }
      ],
      "name": "Unpaused",
      "type": "event"
    },
    {
      "inputs": [],
      "name": "accountFactory",
      "outputs": [
        {
          "internalType": "address",
          "name": "",
          "type": "address"
        }
      ],
      "stateMutability": "view",
      "type": "function"
    },
    {
      "inputs": [
        {
          "internalType": "address",
          "name": "sponsor",
          "type": "address"
        }
      ],
      "name": "getBid",
      "outputs": [
        {
          "internalType": "address",
          "name": "prevBid",
          "type": "address"
        },
        {
          "internalType": "uint256",
          "name": "amount",
          "type": "uint256"
        },
        {
          "internalType": "address",
          "name": "nextBid",
          "type": "address"
        }
      ],
      "stateMutability": "view",
      "type": "function"
    },
    {
      "inputs": [],
      "name": "getBidsCount",
      "outputs": [
        {
          "internalType": "uint256",
          "name": "count",
          "type": "uint256"
        }
      ],
      "stateMutability": "view",
      "type": "function"
    },
    {
      "inputs": [],
      "name": "increaseBid",
      "outputs": [],
      "stateMutability": "payable",
      "type": "function"
    },
    {
      "inputs": [],
      "name": "kind",
      "outputs": [
        {
          "internalType": "bytes32",
          "name": "",
          "type": "bytes32"
        }
      ],
      "stateMutability": "view",
      "type": "function"
    },
    {
      "inputs": [
        {
          "internalType": "address payable",
          "name": "user",
          "type": "address"
        }
      ],
      "name": "mineAccount",
      "outputs": [],
      "stateMutability": "nonpayable",
      "type": "function"
    },
    {
      "inputs": [],
      "name": "pause",
      "outputs": [],
      "stateMutability": "nonpayable",
      "type": "function"
    },
    {
      "inputs": [],
      "name": "paused",
      "outputs": [
        {
          "internalType": "bool",
          "name": "",
          "type": "bool"
        }
      ],
      "stateMutability": "view",
      "type": "function"
    },
    {
      "inputs": [],
      "name": "placeBid",
      "outputs": [],
      "stateMutability": "payable",
      "type": "function"
    },
    {
      "inputs": [],
      "name": "tail",
      "outputs": [
        {
          "internalType": "address",
          "name": "",
          "type": "address"
        }
      ],
      "stateMutability": "view",
      "type": "function"
    },
    {
      "inputs": [],
      "name": "takeBid",
      "outputs": [],
      "stateMutability": "nonpayable",
      "type": "function"
    },
    {
      "inputs": [],
      "name": "unpause",
      "outputs": [],
      "stateMutability": "nonpayable",
      "type": "function"
    }
  ],
  "bytecode": "0x60e06040523480156200001157600080fd5b5060405162002b9038038062002b90833981810160405260208110156200003757600080fd5b810190808051906020019092919050505080818073ffffffffffffffffffffffffffffffffffffffff16639068a8686040518163ffffffff1660e01b815260040160206040518083038186803b1580156200009157600080fd5b505afa158015620000a6573d6000803e3d6000fd5b505050506040513d6020811015620000bd57600080fd5b810190808051906020019092919050505073ffffffffffffffffffffffffffffffffffffffff1660808173ffffffffffffffffffffffffffffffffffffffff1660601b815250505060008060006101000a81548160ff0219169083151502179055508073ffffffffffffffffffffffffffffffffffffffff1663087376956040518163ffffffff1660e01b815260040160206040518083038186803b1580156200016657600080fd5b505afa1580156200017b573d6000803e3d6000fd5b505050506040513d60208110156200019257600080fd5b8101908080519060200190929190505050600060016101000a81548173ffffffffffffffffffffffffffffffffffffffff021916908373ffffffffffffffffffffffffffffffffffffffff16021790555050600180819055508073ffffffffffffffffffffffffffffffffffffffff166326c74fc36040518163ffffffff1660e01b815260040160206040518083038186803b1580156200023257600080fd5b505afa15801562000247573d6000803e3d6000fd5b505050506040513d60208110156200025e57600080fd5b810190808051906020019092919050505073ffffffffffffffffffffffffffffffffffffffff1660a08173ffffffffffffffffffffffffffffffffffffffff1660601b815250508073ffffffffffffffffffffffffffffffffffffffff1663affd92436040518163ffffffff1660e01b815260040160206040518083038186803b158015620002ec57600080fd5b505afa15801562000301573d6000803e3d6000fd5b505050506040513d60208110156200031857600080fd5b810190808051906020019092919050505073ffffffffffffffffffffffffffffffffffffffff1660c08173ffffffffffffffffffffffffffffffffffffffff1660601b815250505060805160601c60a05160601c60c05160601c6127f56200039b6000398061113652508061122e5250806109915280610e4b52506127f56000f3fe6080604052600436106100a75760003560e01c8063687cd9c111610064578063687cd9c11461019e5780637204d5e3146101df5780638456cb59146101e95780639849e42f14610200578063c8b342ab14610251578063ecfc7ecc146102f0576100a7565b806304baa00b146100ac57806313d8c840146100d75780633f4ba83a14610118578063424613fc1461012f5780635c975abb1461014657806363505ae814610173575b600080fd5b3480156100b857600080fd5b506100c16102fa565b6040518082815260200191505060405180910390f35b3480156100e357600080fd5b506100ec61031e565b604051808273ffffffffffffffffffffffffffffffffffffffff16815260200191505060405180910390f35b34801561012457600080fd5b5061012d610344565b005b34801561013b57600080fd5b506101446104ef565b005b34801561015257600080fd5b5061015b6107df565b60405180821515815260200191505060405180910390f35b34801561017f57600080fd5b506101886107f5565b6040518082815260200191505060405180910390f35b3480156101aa57600080fd5b506101b361098f565b604051808273ffffffffffffffffffffffffffffffffffffffff16815260200191505060405180910390f35b6101e76109b3565b005b3480156101f557600080fd5b506101fe610c9e565b005b34801561020c57600080fd5b5061024f6004803603602081101561022357600080fd5b81019080803573ffffffffffffffffffffffffffffffffffffffff169060200190929190505050610e49565b005b34801561025d57600080fd5b506102a06004803603602081101561027457600080fd5b81019080803573ffffffffffffffffffffffffffffffffffffffff16906020019092919050505061127e565b604051808473ffffffffffffffffffffffffffffffffffffffff1681526020018381526020018273ffffffffffffffffffffffffffffffffffffffff168152602001935050505060405180910390f35b6102f8611399565b005b7f61756374696f6e0000000000000000000000000000000000000000000000000081565b600360009054906101000a900473ffffffffffffffffffffffffffffffffffffffff1681565b600060019054906101000a900473ffffffffffffffffffffffffffffffffffffffff1673ffffffffffffffffffffffffffffffffffffffff1663d4eb5db0336040518263ffffffff1660e01b8152600401808273ffffffffffffffffffffffffffffffffffffffff16815260200191505060206040518083038186803b1580156103cd57600080fd5b505afa1580156103e1573d6000803e3d6000fd5b505050506040513d60208110156103f757600080fd5b81019080805190602001909291905050506040518060400160405280600281526020017f4c31000000000000000000000000000000000000000000000000000000000000815250906104e4576040517f08c379a00000000000000000000000000000000000000000000000000000000081526004018080602001828103825283818151815260200191508051906020019080838360005b838110156104a957808201518184015260208101905061048e565b50505050905090810190601f1680156104d65780820380516001836020036101000a031916815260200191505b509250505060405180910390fd5b506104ed611744565b565b6000600260003373ffffffffffffffffffffffffffffffffffffffff1673ffffffffffffffffffffffffffffffffffffffff16815260200190815260200160002060020154116040518060400160405280600281526020017f463900000000000000000000000000000000000000000000000000000000000081525090610611576040517f08c379a00000000000000000000000000000000000000000000000000000000081526004018080602001828103825283818151815260200191508051906020019080838360005b838110156105d65780820151818401526020810190506105bb565b50505050905090810190601f1680156106035780820380516001836020036101000a031916815260200191505b509250505060405180910390fd5b5061061a6107df565b1561068d576040517f08c379a00000000000000000000000000000000000000000000000000000000081526004018080602001828103825260108152602001807f5061757361626c653a207061757365640000000000000000000000000000000081525060200191505060405180910390fd5b60026001541415610706576040517f08c379a000000000000000000000000000000000000000000000000000000000815260040180806020018281038252601f8152602001807f5265656e7472616e637947756172643a207265656e7472616e742063616c6c0081525060200191505060405180910390fd5b60026001819055506000600260003373ffffffffffffffffffffffffffffffffffffffff1673ffffffffffffffffffffffffffffffffffffffff16815260200190815260200160002060020154905061075e3361182e565b3373ffffffffffffffffffffffffffffffffffffffff167f2fd8fe9016dd1e989ad48b8a5e912a5a55a23656118f723545a93dd16ad3faaf826040518082815260200191505060405180910390a26107d5813373ffffffffffffffffffffffffffffffffffffffff16611b9d90919063ffffffff16565b5060018081905550565b60008060009054906101000a900460ff16905090565b60008073ffffffffffffffffffffffffffffffffffffffff16600360009054906101000a900473ffffffffffffffffffffffffffffffffffffffff1673ffffffffffffffffffffffffffffffffffffffff161415610856576000905061098c565b6000600360009054906101000a900473ffffffffffffffffffffffffffffffffffffffff169050600191505b600073ffffffffffffffffffffffffffffffffffffffff16600260008373ffffffffffffffffffffffffffffffffffffffff1673ffffffffffffffffffffffffffffffffffffffff16815260200190815260200160002060000160009054906101000a900473ffffffffffffffffffffffffffffffffffffffff1673ffffffffffffffffffffffffffffffffffffffff161461098a57600260008273ffffffffffffffffffffffffffffffffffffffff1673ffffffffffffffffffffffffffffffffffffffff16815260200190815260200160002060000160009054906101000a900473ffffffffffffffffffffffffffffffffffffffff1690508180600101925050610882565b505b90565b7f000000000000000000000000000000000000000000000000000000000000000081565b6000600260003373ffffffffffffffffffffffffffffffffffffffff1673ffffffffffffffffffffffffffffffffffffffff16815260200190815260200160002060020154116040518060400160405280600281526020017f463900000000000000000000000000000000000000000000000000000000000081525090610ad5576040517f08c379a00000000000000000000000000000000000000000000000000000000081526004018080602001828103825283818151815260200191508051906020019080838360005b83811015610a9a578082015181840152602081019050610a7f565b50505050905090810190601f168015610ac75780820380516001836020036101000a031916815260200191505b509250505060405180910390fd5b50610ade6107df565b15610b51576040517f08c379a00000000000000000000000000000000000000000000000000000000081526004018080602001828103825260108152602001807f5061757361626c653a207061757365640000000000000000000000000000000081525060200191505060405180910390fd5b60026001541415610bca576040517f08c379a000000000000000000000000000000000000000000000000000000000815260040180806020018281038252601f8152602001807f5265656e7472616e637947756172643a207265656e7472616e742063616c6c0081525060200191505060405180910390fd5b60026001819055506000610c2934600260003373ffffffffffffffffffffffffffffffffffffffff1673ffffffffffffffffffffffffffffffffffffffff16815260200190815260200160002060020154611cd790919063ffffffff16565b9050610c3481611d5f565b610c3d3361182e565b610c4681611f11565b3373ffffffffffffffffffffffffffffffffffffffff167fcf84a46a93294358c23e7c87e557feb461890c72f3547fb25b455167dcea9efb346040518082815260200191505060405180910390a25060018081905550565b600060019054906101000a900473ffffffffffffffffffffffffffffffffffffffff1673ffffffffffffffffffffffffffffffffffffffff16633a41ec64336040518263ffffffff1660e01b8152600401808273ffffffffffffffffffffffffffffffffffffffff16815260200191505060206040518083038186803b158015610d2757600080fd5b505afa158015610d3b573d6000803e3d6000fd5b505050506040513d6020811015610d5157600080fd5b81019080805190602001909291905050506040518060400160405280600281526020017f4c3100000000000000000000000000000000000000000000000000000000000081525090610e3e576040517f08c379a00000000000000000000000000000000000000000000000000000000081526004018080602001828103825283818151815260200191508051906020019080838360005b83811015610e03578082015181840152602081019050610de8565b50505050905090810190601f168015610e305780820380516001836020036101000a031916815260200191505b509250505060405180910390fd5b50610e4761215b565b565b7f000000000000000000000000000000000000000000000000000000000000000073ffffffffffffffffffffffffffffffffffffffff163373ffffffffffffffffffffffffffffffffffffffff16146040518060400160405280600281526020017f463300000000000000000000000000000000000000000000000000000000000081525090610f74576040517f08c379a00000000000000000000000000000000000000000000000000000000081526004018080602001828103825283818151815260200191508051906020019080838360005b83811015610f39578082015181840152602081019050610f1e565b50505050905090810190601f168015610f665780820380516001836020036101000a031916815260200191505b509250505060405180910390fd5b50600073ffffffffffffffffffffffffffffffffffffffff16600360009054906101000a900473ffffffffffffffffffffffffffffffffffffffff1673ffffffffffffffffffffffffffffffffffffffff1614156040518060400160405280600281526020017f4636000000000000000000000000000000000000000000000000000000000000815250906110a4576040517f08c379a00000000000000000000000000000000000000000000000000000000081526004018080602001828103825283818151815260200191508051906020019080838360005b8381101561106957808201518184015260208101905061104e565b50505050905090810190601f1680156110965780820380516001836020036101000a031916815260200191505b509250505060405180910390fd5b50600360009054906101000a900473ffffffffffffffffffffffffffffffffffffffff1673ffffffffffffffffffffffffffffffffffffffff167f4c4b0bec35ee0dc0dce919a0d52d05ea4d94c47cea42f5d2d6ab9e8a4dd77ac460405160405180910390a261117a600360009054906101000a900473ffffffffffffffffffffffffffffffffffffffff16620186a07f000000000000000000000000000000000000000000000000000000000000000073ffffffffffffffffffffffffffffffffffffffff166122469092919063ffffffff16565b60006111fb67016345785d8a000060026000600360009054906101000a900473ffffffffffffffffffffffffffffffffffffffff1673ffffffffffffffffffffffffffffffffffffffff1673ffffffffffffffffffffffffffffffffffffffff168152602001908152602001600020600201546122e890919063ffffffff16565b9050611228600360009054906101000a900473ffffffffffffffffffffffffffffffffffffffff1661182e565b611271817f000000000000000000000000000000000000000000000000000000000000000073ffffffffffffffffffffffffffffffffffffffff16611b9d90919063ffffffff16565b61127a8261236b565b5050565b6000806000600260008573ffffffffffffffffffffffffffffffffffffffff1673ffffffffffffffffffffffffffffffffffffffff16815260200190815260200160002060000160009054906101000a900473ffffffffffffffffffffffffffffffffffffffff169250600260008573ffffffffffffffffffffffffffffffffffffffff1673ffffffffffffffffffffffffffffffffffffffff168152602001908152602001600020600201549150600260008573ffffffffffffffffffffffffffffffffffffffff1673ffffffffffffffffffffffffffffffffffffffff16815260200190815260200160002060010160009054906101000a900473ffffffffffffffffffffffffffffffffffffffff1690509193909250565b6113a16107df565b15611414576040517f08c379a00000000000000000000000000000000000000000000000000000000081526004018080602001828103825260108152602001807f5061757361626c653a207061757365640000000000000000000000000000000081525060200191505060405180910390fd5b6002600154141561148d576040517f08c379a000000000000000000000000000000000000000000000000000000000815260040180806020018281038252601f8152602001807f5265656e7472616e637947756172643a207265656e7472616e742063616c6c0081525060200191505060405180910390fd5b600260018190555061149e34611d5f565b6000600260003373ffffffffffffffffffffffffffffffffffffffff1673ffffffffffffffffffffffffffffffffffffffff16815260200190815260200160002060020154146040518060400160405280600281526020017f4638000000000000000000000000000000000000000000000000000000000000815250906115c0576040517f08c379a00000000000000000000000000000000000000000000000000000000081526004018080602001828103825283818151815260200191508051906020019080838360005b8381101561158557808201518184015260208101905061156a565b50505050905090810190601f1680156115b25780820380516001836020036101000a031916815260200191505b509250505060405180910390fd5b506040518060600160405280600073ffffffffffffffffffffffffffffffffffffffff168152602001600073ffffffffffffffffffffffffffffffffffffffff16815260200134815250600260003373ffffffffffffffffffffffffffffffffffffffff1673ffffffffffffffffffffffffffffffffffffffff16815260200190815260200160002060008201518160000160006101000a81548173ffffffffffffffffffffffffffffffffffffffff021916908373ffffffffffffffffffffffffffffffffffffffff16021790555060208201518160010160006101000a81548173ffffffffffffffffffffffffffffffffffffffff021916908373ffffffffffffffffffffffffffffffffffffffff160217905550604082015181600201559050506116ed34611f11565b3373ffffffffffffffffffffffffffffffffffffffff167f3fabff0a9c3ecd6814702e247fa9733e5d0aa69e3a38590f92cb18f623a2254d346040518082815260200191505060405180910390a260018081905550565b61174c6107df565b6117be576040517f08c379a00000000000000000000000000000000000000000000000000000000081526004018080602001828103825260148152602001807f5061757361626c653a206e6f742070617573656400000000000000000000000081525060200191505060405180910390fd5b60008060006101000a81548160ff0219169083151502179055507f5db9ee0a495bf2e6ff9c91a7834c1ba4fdd244a5e8aa4e537bd38aeae4b073aa61180161239f565b604051808273ffffffffffffffffffffffffffffffffffffffff16815260200191505060405180910390a1565b6000600260008373ffffffffffffffffffffffffffffffffffffffff1673ffffffffffffffffffffffffffffffffffffffff16815260200190815260200160002060000160009054906101000a900473ffffffffffffffffffffffffffffffffffffffff1690506000600260008473ffffffffffffffffffffffffffffffffffffffff1673ffffffffffffffffffffffffffffffffffffffff16815260200190815260200160002060010160009054906101000a900473ffffffffffffffffffffffffffffffffffffffff169050600073ffffffffffffffffffffffffffffffffffffffff168273ffffffffffffffffffffffffffffffffffffffff16146119b25780600260008473ffffffffffffffffffffffffffffffffffffffff1673ffffffffffffffffffffffffffffffffffffffff16815260200190815260200160002060010160006101000a81548173ffffffffffffffffffffffffffffffffffffffff021916908373ffffffffffffffffffffffffffffffffffffffff1602179055505b600073ffffffffffffffffffffffffffffffffffffffff168173ffffffffffffffffffffffffffffffffffffffff1614611a685781600260008373ffffffffffffffffffffffffffffffffffffffff1673ffffffffffffffffffffffffffffffffffffffff16815260200190815260200160002060000160006101000a81548173ffffffffffffffffffffffffffffffffffffffff021916908373ffffffffffffffffffffffffffffffffffffffff1602179055505b8273ffffffffffffffffffffffffffffffffffffffff16600360009054906101000a900473ffffffffffffffffffffffffffffffffffffffff1673ffffffffffffffffffffffffffffffffffffffff161415611b005781600360006101000a81548173ffffffffffffffffffffffffffffffffffffffff021916908373ffffffffffffffffffffffffffffffffffffffff1602179055505b600260008473ffffffffffffffffffffffffffffffffffffffff1673ffffffffffffffffffffffffffffffffffffffff168152602001908152602001600020600080820160006101000a81549073ffffffffffffffffffffffffffffffffffffffff02191690556001820160006101000a81549073ffffffffffffffffffffffffffffffffffffffff021916905560028201600090555050505050565b80471015611c13576040517f08c379a000000000000000000000000000000000000000000000000000000000815260040180806020018281038252601d8152602001807f416464726573733a20696e73756666696369656e742062616c616e636500000081525060200191505060405180910390fd5b60008273ffffffffffffffffffffffffffffffffffffffff168260405180600001905060006040518083038185875af1925050503d8060008114611c73576040519150601f19603f3d011682016040523d82523d6000602084013e611c78565b606091505b5050905080611cd2576040517f08c379a000000000000000000000000000000000000000000000000000000000815260040180806020018281038252603a815260200180612736603a913960400191505060405180910390fd5b505050565b600080828401905083811015611d55576040517f08c379a000000000000000000000000000000000000000000000000000000000815260040180806020018281038252601b8152602001807f536166654d6174683a206164646974696f6e206f766572666c6f77000000000081525060200191505060405180910390fd5b8091505092915050565b60008073ffffffffffffffffffffffffffffffffffffffff16600360009054906101000a900473ffffffffffffffffffffffffffffffffffffffff1673ffffffffffffffffffffffffffffffffffffffff1614611e205760026000600360009054906101000a900473ffffffffffffffffffffffffffffffffffffffff1673ffffffffffffffffffffffffffffffffffffffff1673ffffffffffffffffffffffffffffffffffffffff16815260200190815260200160002060020154611e2a565b67016345785d8a00005b9050808210156040518060400160405280600281526020017f463700000000000000000000000000000000000000000000000000000000000081525090611f0c576040517f08c379a00000000000000000000000000000000000000000000000000000000081526004018080602001828103825283818151815260200191508051906020019080838360005b83811015611ed1578082015181840152602081019050611eb6565b50505050905090810190601f168015611efe5780820380516001836020036101000a031916815260200191505b509250505060405180910390fd5b505050565b600073ffffffffffffffffffffffffffffffffffffffff16600360009054906101000a900473ffffffffffffffffffffffffffffffffffffffff1673ffffffffffffffffffffffffffffffffffffffff161461200b573360026000600360009054906101000a900473ffffffffffffffffffffffffffffffffffffffff1673ffffffffffffffffffffffffffffffffffffffff1673ffffffffffffffffffffffffffffffffffffffff16815260200190815260200160002060010160006101000a81548173ffffffffffffffffffffffffffffffffffffffff021916908373ffffffffffffffffffffffffffffffffffffffff1602179055505b600360009054906101000a900473ffffffffffffffffffffffffffffffffffffffff16600260003373ffffffffffffffffffffffffffffffffffffffff1673ffffffffffffffffffffffffffffffffffffffff16815260200190815260200160002060000160006101000a81548173ffffffffffffffffffffffffffffffffffffffff021916908373ffffffffffffffffffffffffffffffffffffffff16021790555033600360006101000a81548173ffffffffffffffffffffffffffffffffffffffff021916908373ffffffffffffffffffffffffffffffffffffffff1602179055508060026000600360009054906101000a900473ffffffffffffffffffffffffffffffffffffffff1673ffffffffffffffffffffffffffffffffffffffff1673ffffffffffffffffffffffffffffffffffffffff1681526020019081526020016000206002018190555050565b6121636107df565b156121d6576040517f08c379a00000000000000000000000000000000000000000000000000000000081526004018080602001828103825260108152602001807f5061757361626c653a207061757365640000000000000000000000000000000081525060200191505060405180910390fd5b60016000806101000a81548160ff0219169083151502179055507f62e78cea01bee320cd4e420270b5ea74000d11b0c9f74754ebdbfc544b05a25861221961239f565b604051808273ffffffffffffffffffffffffffffffffffffffff16815260200191505060405180910390a1565b6122e38363a9059cbb60e01b8484604051602401808373ffffffffffffffffffffffffffffffffffffffff16815260200182815260200192505050604051602081830303815290604052907bffffffffffffffffffffffffffffffffffffffffffffffffffffffff19166020820180517bffffffffffffffffffffffffffffffffffffffffffffffffffffffff83818316178352505050506123a7565b505050565b600082821115612360576040517f08c379a000000000000000000000000000000000000000000000000000000000815260040180806020018281038252601e8152602001807f536166654d6174683a207375627472616374696f6e206f766572666c6f77000081525060200191505060405180910390fd5b818303905092915050565b61239c67016345785d8a00008273ffffffffffffffffffffffffffffffffffffffff16611b9d90919063ffffffff16565b50565b600033905090565b6000612409826040518060400160405280602081526020017f5361666545524332303a206c6f772d6c6576656c2063616c6c206661696c65648152508573ffffffffffffffffffffffffffffffffffffffff166124969092919063ffffffff16565b90506000815111156124915780806020019051602081101561242a57600080fd5b8101908080519060200190929190505050612490576040517f08c379a000000000000000000000000000000000000000000000000000000000815260040180806020018281038252602a815260200180612796602a913960400191505060405180910390fd5b5b505050565b60606124a584846000856124ae565b90509392505050565b606082471015612509576040517f08c379a00000000000000000000000000000000000000000000000000000000081526004018080602001828103825260268152602001806127706026913960400191505060405180910390fd5b61251285612656565b612584576040517f08c379a000000000000000000000000000000000000000000000000000000000815260040180806020018281038252601d8152602001807f416464726573733a2063616c6c20746f206e6f6e2d636f6e747261637400000081525060200191505060405180910390fd5b6000808673ffffffffffffffffffffffffffffffffffffffff1685876040518082805190602001908083835b602083106125d357805182526020820191506020810190506020830392506125b0565b6001836020036101000a03801982511681845116808217855250505050505090500191505060006040518083038185875af1925050503d8060008114612635576040519150601f19603f3d011682016040523d82523d6000602084013e61263a565b606091505b509150915061264a828286612669565b92505050949350505050565b600080823b905060008111915050919050565b606083156126795782905061272e565b60008351111561268c5782518084602001fd5b816040517f08c379a00000000000000000000000000000000000000000000000000000000081526004018080602001828103825283818151815260200191508051906020019080838360005b838110156126f35780820151818401526020810190506126d8565b50505050905090810190601f1680156127205780820380516001836020036101000a031916815260200191505b509250505060405180910390fd5b939250505056fe416464726573733a20756e61626c6520746f2073656e642076616c75652c20726563697069656e74206d61792068617665207265766572746564416464726573733a20696e73756666696369656e742062616c616e636520666f722063616c6c5361666545524332303a204552433230206f7065726174696f6e20646964206e6f742073756363656564a264697066735822122055939e82697148ed892f5f65986f8b2c1cd577ca13fc41804e9df7355b3df4ec64736f6c63430007060033",
  "linkReferences": {},
  "deployedLinkReferences": {}
}