{
  "_format": "hh-sol-artifact-1",
  "contractName": "AddressProvider",
  "sourceName": "contracts/core/AddressProvider.sol",
  "abi": [
    {
      "inputs": [],
      "stateMutability": "nonpayable",
      "type": "constructor"
    },
    {
      "anonymous": false,
      "inputs": [
        {
          "indexed": true,
          "internalType": "bytes32",
          "name": "service",
          "type": "bytes32"
        },
        {
          "indexed": true,
          "internalType": "address",
          "name": "newAddress",
          "type": "address"
        }
      ],
      "name": "AddressSet",
      "type": "event"
    },
    {
      "anonymous": false,
      "inputs": [
        {
          "indexed": true,
          "internalType": "address",
          "name": "previousOwner",
          "type": "address"
        },
        {
          "indexed": true,
          "internalType": "address",
          "name": "newOwner",
          "type": "address"
        }
      ],
      "name": "OwnershipTransferred",
      "type": "event"
    },
    {
      "inputs": [],
      "name": "ACCOUNT_FACTORY",
      "outputs": [
        {
          "internalType": "bytes32",
          "name": "",
          "type": "bytes32"
        }
      ],
      "stateMutability": "view",
      "type": "function"
    },
    {
      "inputs": [],
      "name": "ACL",
      "outputs": [
        {
          "internalType": "bytes32",
          "name": "",
          "type": "bytes32"
        }
      ],
      "stateMutability": "view",
      "type": "function"
    },
    {
      "inputs": [],
      "name": "CONTRACTS_REGISTER",
      "outputs": [
        {
          "internalType": "bytes32",
          "name": "",
          "type": "bytes32"
        }
      ],
      "stateMutability": "view",
      "type": "function"
    },
    {
      "inputs": [],
      "name": "DATA_COMPRESSOR",
      "outputs": [
        {
          "internalType": "bytes32",
          "name": "",
          "type": "bytes32"
        }
      ],
      "stateMutability": "view",
      "type": "function"
    },
    {
      "inputs": [],
      "name": "GEAR_TOKEN",
      "outputs": [
        {
          "internalType": "bytes32",
          "name": "",
          "type": "bytes32"
        }
      ],
      "stateMutability": "view",
      "type": "function"
    },
    {
      "inputs": [],
      "name": "LEVERAGED_ACTIONS",
      "outputs": [
        {
          "internalType": "bytes32",
          "name": "",
          "type": "bytes32"
        }
      ],
      "stateMutability": "view",
      "type": "function"
    },
    {
      "inputs": [],
      "name": "PRICE_ORACLE",
      "outputs": [
        {
          "internalType": "bytes32",
          "name": "",
          "type": "bytes32"
        }
      ],
      "stateMutability": "view",
      "type": "function"
    },
    {
      "inputs": [],
      "name": "TREASURY_CONTRACT",
      "outputs": [
        {
          "internalType": "bytes32",
          "name": "",
          "type": "bytes32"
        }
      ],
      "stateMutability": "view",
      "type": "function"
    },
    {
      "inputs": [],
      "name": "WETH_GATEWAY",
      "outputs": [
        {
          "internalType": "bytes32",
          "name": "",
          "type": "bytes32"
        }
      ],
      "stateMutability": "view",
      "type": "function"
    },
    {
      "inputs": [],
      "name": "WETH_TOKEN",
      "outputs": [
        {
          "internalType": "bytes32",
          "name": "",
          "type": "bytes32"
        }
      ],
      "stateMutability": "view",
      "type": "function"
    },
    {
      "inputs": [
        {
          "internalType": "bytes32",
          "name": "",
          "type": "bytes32"
        }
      ],
      "name": "addresses",
      "outputs": [
        {
          "internalType": "address",
          "name": "",
          "type": "address"
        }
      ],
      "stateMutability": "view",
      "type": "function"
    },
    {
      "inputs": [],
      "name": "getACL",
      "outputs": [
        {
          "internalType": "address",
          "name": "",
          "type": "address"
        }
      ],
      "stateMutability": "view",
      "type": "function"
    },
    {
      "inputs": [],
      "name": "getAccountFactory",
      "outputs": [
        {
          "internalType": "address",
          "name": "",
          "type": "address"
        }
      ],
      "stateMutability": "view",
      "type": "function"
    },
    {
      "inputs": [],
      "name": "getContractsRegister",
      "outputs": [
        {
          "internalType": "address",
          "name": "",
          "type": "address"
        }
      ],
      "stateMutability": "view",
      "type": "function"
    },
    {
      "inputs": [],
      "name": "getDataCompressor",
      "outputs": [
        {
          "internalType": "address",
          "name": "",
          "type": "address"
        }
      ],
      "stateMutability": "view",
      "type": "function"
    },
    {
      "inputs": [],
      "name": "getGearToken",
      "outputs": [
        {
          "internalType": "address",
          "name": "",
          "type": "address"
        }
      ],
      "stateMutability": "view",
      "type": "function"
    },
    {
      "inputs": [],
      "name": "getLeveragedActions",
      "outputs": [
        {
          "internalType": "address",
          "name": "",
          "type": "address"
        }
      ],
      "stateMutability": "view",
      "type": "function"
    },
    {
      "inputs": [],
      "name": "getPriceOracle",
      "outputs": [
        {
          "internalType": "address",
          "name": "",
          "type": "address"
        }
      ],
      "stateMutability": "view",
      "type": "function"
    },
    {
      "inputs": [],
      "name": "getTreasuryContract",
      "outputs": [
        {
          "internalType": "address",
          "name": "",
          "type": "address"
        }
      ],
      "stateMutability": "view",
      "type": "function"
    },
    {
      "inputs": [],
      "name": "getWETHGateway",
      "outputs": [
        {
          "internalType": "address",
          "name": "",
          "type": "address"
        }
      ],
      "stateMutability": "view",
      "type": "function"
    },
    {
      "inputs": [],
      "name": "getWethToken",
      "outputs": [
        {
          "internalType": "address",
          "name": "",
          "type": "address"
        }
      ],
      "stateMutability": "view",
      "type": "function"
    },
    {
      "inputs": [],
      "name": "owner",
      "outputs": [
        {
          "internalType": "address",
          "name": "",
          "type": "address"
        }
      ],
      "stateMutability": "view",
      "type": "function"
    },
    {
      "inputs": [],
      "name": "renounceOwnership",
      "outputs": [],
      "stateMutability": "nonpayable",
      "type": "function"
    },
    {
      "inputs": [
        {
          "internalType": "address",
          "name": "_address",
          "type": "address"
        }
      ],
      "name": "setACL",
      "outputs": [],
      "stateMutability": "nonpayable",
      "type": "function"
    },
    {
      "inputs": [
        {
          "internalType": "address",
          "name": "_address",
          "type": "address"
        }
      ],
      "name": "setAccountFactory",
      "outputs": [],
      "stateMutability": "nonpayable",
      "type": "function"
    },
    {
      "inputs": [
        {
          "internalType": "address",
          "name": "_address",
          "type": "address"
        }
      ],
      "name": "setContractsRegister",
      "outputs": [],
      "stateMutability": "nonpayable",
      "type": "function"
    },
    {
      "inputs": [
        {
          "internalType": "address",
          "name": "_address",
          "type": "address"
        }
      ],
      "name": "setDataCompressor",
      "outputs": [],
      "stateMutability": "nonpayable",
      "type": "function"
    },
    {
      "inputs": [
        {
          "internalType": "address",
          "name": "_address",
          "type": "address"
        }
      ],
      "name": "setGearToken",
      "outputs": [],
      "stateMutability": "nonpayable",
      "type": "function"
    },
    {
      "inputs": [
        {
          "internalType": "address",
          "name": "_address",
          "type": "address"
        }
      ],
      "name": "setLeveragedActions",
      "outputs": [],
      "stateMutability": "nonpayable",
      "type": "function"
    },
    {
      "inputs": [
        {
          "internalType": "address",
          "name": "_address",
          "type": "address"
        }
      ],
      "name": "setPriceOracle",
      "outputs": [],
      "stateMutability": "nonpayable",
      "type": "function"
    },
    {
      "inputs": [
        {
          "internalType": "address",
          "name": "_address",
          "type": "address"
        }
      ],
      "name": "setTreasuryContract",
      "outputs": [],
      "stateMutability": "nonpayable",
      "type": "function"
    },
    {
      "inputs": [
        {
          "internalType": "address",
          "name": "_address",
          "type": "address"
        }
      ],
      "name": "setWETHGateway",
      "outputs": [],
      "stateMutability": "nonpayable",
      "type": "function"
    },
    {
      "inputs": [
        {
          "internalType": "address",
          "name": "_address",
          "type": "address"
        }
      ],
      "name": "setWethToken",
      "outputs": [],
      "stateMutability": "nonpayable",
      "type": "function"
    },
    {
      "inputs": [
        {
          "internalType": "address",
          "name": "newOwner",
          "type": "address"
        }
      ],
      "name": "transferOwnership",
      "outputs": [],
      "stateMutability": "nonpayable",
      "type": "function"
    }
  ],
  "bytecode": "0x608060405234801561001057600080fd5b50600061002161012860201b60201c565b9050806000806101000a81548173ffffffffffffffffffffffffffffffffffffffff021916908373ffffffffffffffffffffffffffffffffffffffff1602179055508073ffffffffffffffffffffffffffffffffffffffff16600073ffffffffffffffffffffffffffffffffffffffff167f8be0079c531659141344cd1fd0a4f28419497f9722a3daafe3b4186f6b6457e060405160405180910390a3503073ffffffffffffffffffffffffffffffffffffffff167f414444524553535f50524f5649444552000000000000000000000000000000007fb37614c7d254ea8d16eb81fa11dddaeb266aa8ba4917980859c7740aff30c69160405160405180910390a3610130565b600033905090565b611aaa8061013f6000396000f3fe608060405234801561001057600080fd5b50600436106102065760003560e01c806377532ed91161011a578063ae5a98ba116100ad578063c513c9bb1161007c578063c513c9bb146107b3578063ce3c4ae4146107e7578063f2fde38b1461082b578063f9366f471461086f578063fca513a81461088d57610206565b8063ae5a98ba146106d9578063affd9243146106f7578063bcaead981461072b578063c5120b391461076f57610206565b80638da5cb5b116100e95780638da5cb5b1461060f5780639068a868146106435780639e9df2b914610677578063addc1a761461069557610206565b806377532ed9146105355780637af53532146105695780637b6757ff1461058757806386e09c08146105cb57610206565b806326c74fc31161019d578063530e784f1161016c578063530e784f1461042d578063699f200f14610471578063715018a6146104c957806372788be7146104d357806376aad605146104f157610206565b806326c74fc31461037357806337d277d4146103a757806344b88563146103c55780634c252f91146103f957610206565b80630e3b95dc116101d95780630e3b95dc146102af578063124a6462146102cd5780631ed65110146102eb57806321da58371461032f57610206565b806305197d101461020b578063060678c214610229578063087376951461025d5780630a19399a14610291575b600080fd5b6102136108c1565b6040518082815260200191505060405180910390f35b6102316108e5565b604051808273ffffffffffffffffffffffffffffffffffffffff16815260200191505060405180910390f35b610265610915565b604051808273ffffffffffffffffffffffffffffffffffffffff16815260200191505060405180910390f35b610299610945565b6040518082815260200191505060405180910390f35b6102b7610969565b6040518082815260200191505060405180910390f35b6102d561098d565b6040518082815260200191505060405180910390f35b61032d6004803603602081101561030157600080fd5b81019080803573ffffffffffffffffffffffffffffffffffffffff1690602001909291905050506109b1565b005b6103716004803603602081101561034557600080fd5b81019080803573ffffffffffffffffffffffffffffffffffffffff169060200190929190505050610a8d565b005b61037b610b69565b604051808273ffffffffffffffffffffffffffffffffffffffff16815260200191505060405180910390f35b6103af610b99565b6040518082815260200191505060405180910390f35b6103cd610bbd565b604051808273ffffffffffffffffffffffffffffffffffffffff16815260200191505060405180910390f35b610401610bed565b604051808273ffffffffffffffffffffffffffffffffffffffff16815260200191505060405180910390f35b61046f6004803603602081101561044357600080fd5b81019080803573ffffffffffffffffffffffffffffffffffffffff169060200190929190505050610c1d565b005b61049d6004803603602081101561048757600080fd5b8101908080359060200190929190505050610cf9565b604051808273ffffffffffffffffffffffffffffffffffffffff16815260200191505060405180910390f35b6104d1610d2c565b005b6104db610e99565b6040518082815260200191505060405180910390f35b6105336004803603602081101561050757600080fd5b81019080803573ffffffffffffffffffffffffffffffffffffffff169060200190929190505050610ebd565b005b61053d610f99565b604051808273ffffffffffffffffffffffffffffffffffffffff16815260200191505060405180910390f35b610571610fc9565b6040518082815260200191505060405180910390f35b6105c96004803603602081101561059d57600080fd5b81019080803573ffffffffffffffffffffffffffffffffffffffff169060200190929190505050610fed565b005b61060d600480360360208110156105e157600080fd5b81019080803573ffffffffffffffffffffffffffffffffffffffff1690602001909291905050506110c9565b005b6106176111a5565b604051808273ffffffffffffffffffffffffffffffffffffffff16815260200191505060405180910390f35b61064b6111ce565b604051808273ffffffffffffffffffffffffffffffffffffffff16815260200191505060405180910390f35b61067f6111fe565b6040518082815260200191505060405180910390f35b6106d7600480360360208110156106ab57600080fd5b81019080803573ffffffffffffffffffffffffffffffffffffffff169060200190929190505050611222565b005b6106e16112fe565b6040518082815260200191505060405180910390f35b6106ff611322565b604051808273ffffffffffffffffffffffffffffffffffffffff16815260200191505060405180910390f35b61076d6004803603602081101561074157600080fd5b81019080803573ffffffffffffffffffffffffffffffffffffffff169060200190929190505050611352565b005b6107b16004803603602081101561078557600080fd5b81019080803573ffffffffffffffffffffffffffffffffffffffff16906020019092919050505061142e565b005b6107bb61150a565b604051808273ffffffffffffffffffffffffffffffffffffffff16815260200191505060405180910390f35b610829600480360360208110156107fd57600080fd5b81019080803573ffffffffffffffffffffffffffffffffffffffff16906020019092919050505061153a565b005b61086d6004803603602081101561084157600080fd5b81019080803573ffffffffffffffffffffffffffffffffffffffff169060200190929190505050611616565b005b610877611808565b6040518082815260200191505060405180910390f35b61089561182c565b604051808273ffffffffffffffffffffffffffffffffffffffff16815260200191505060405180910390f35b7f4143434f554e545f464143544f5259000000000000000000000000000000000081565b60006109107f444154415f434f4d50524553534f52000000000000000000000000000000000061185c565b905090565b60006109407f41434c000000000000000000000000000000000000000000000000000000000061185c565b905090565b7f50524943455f4f5241434c45000000000000000000000000000000000000000081565b7f4c45564552414745445f414354494f4e5300000000000000000000000000000081565b7f474541525f544f4b454e0000000000000000000000000000000000000000000081565b6109b96119ac565b73ffffffffffffffffffffffffffffffffffffffff166109d76111a5565b73ffffffffffffffffffffffffffffffffffffffff1614610a60576040517f08c379a00000000000000000000000000000000000000000000000000000000081526004018080602001828103825260208152602001807f4f776e61626c653a2063616c6c6572206973206e6f7420746865206f776e657281525060200191505060405180910390fd5b610a8a7f54524541535552595f434f4e5452414354000000000000000000000000000000826119b4565b50565b610a956119ac565b73ffffffffffffffffffffffffffffffffffffffff16610ab36111a5565b73ffffffffffffffffffffffffffffffffffffffff1614610b3c576040517f08c379a00000000000000000000000000000000000000000000000000000000081526004018080602001828103825260208152602001807f4f776e61626c653a2063616c6c6572206973206e6f7420746865206f776e657281525060200191505060405180910390fd5b610b667f574554485f474154455741590000000000000000000000000000000000000000826119b4565b50565b6000610b947f54524541535552595f434f4e545241435400000000000000000000000000000061185c565b905090565b7f574554485f544f4b454e0000000000000000000000000000000000000000000081565b6000610be87f4c45564552414745445f414354494f4e5300000000000000000000000000000061185c565b905090565b6000610c187f574554485f544f4b454e0000000000000000000000000000000000000000000061185c565b905090565b610c256119ac565b73ffffffffffffffffffffffffffffffffffffffff16610c436111a5565b73ffffffffffffffffffffffffffffffffffffffff1614610ccc576040517f08c379a00000000000000000000000000000000000000000000000000000000081526004018080602001828103825260208152602001807f4f776e61626c653a2063616c6c6572206973206e6f7420746865206f776e657281525060200191505060405180910390fd5b610cf67f50524943455f4f5241434c450000000000000000000000000000000000000000826119b4565b50565b60016020528060005260406000206000915054906101000a900473ffffffffffffffffffffffffffffffffffffffff1681565b610d346119ac565b73ffffffffffffffffffffffffffffffffffffffff16610d526111a5565b73ffffffffffffffffffffffffffffffffffffffff1614610ddb576040517f08c379a00000000000000000000000000000000000000000000000000000000081526004018080602001828103825260208152602001807f4f776e61626c653a2063616c6c6572206973206e6f7420746865206f776e657281525060200191505060405180910390fd5b600073ffffffffffffffffffffffffffffffffffffffff1660008054906101000a900473ffffffffffffffffffffffffffffffffffffffff1673ffffffffffffffffffffffffffffffffffffffff167f8be0079c531659141344cd1fd0a4f28419497f9722a3daafe3b4186f6b6457e060405160405180910390a360008060006101000a81548173ffffffffffffffffffffffffffffffffffffffff021916908373ffffffffffffffffffffffffffffffffffffffff160217905550565b7f444154415f434f4d50524553534f52000000000000000000000000000000000081565b610ec56119ac565b73ffffffffffffffffffffffffffffffffffffffff16610ee36111a5565b73ffffffffffffffffffffffffffffffffffffffff1614610f6c576040517f08c379a00000000000000000000000000000000000000000000000000000000081526004018080602001828103825260208152602001807f4f776e61626c653a2063616c6c6572206973206e6f7420746865206f776e657281525060200191505060405180910390fd5b610f967f41434c0000000000000000000000000000000000000000000000000000000000826119b4565b50565b6000610fc47f574554485f47415445574159000000000000000000000000000000000000000061185c565b905090565b7f41434c000000000000000000000000000000000000000000000000000000000081565b610ff56119ac565b73ffffffffffffffffffffffffffffffffffffffff166110136111a5565b73ffffffffffffffffffffffffffffffffffffffff161461109c576040517f08c379a00000000000000000000000000000000000000000000000000000000081526004018080602001828103825260208152602001807f4f776e61626c653a2063616c6c6572206973206e6f7420746865206f776e657281525060200191505060405180910390fd5b6110c67f4c45564552414745445f414354494f4e53000000000000000000000000000000826119b4565b50565b6110d16119ac565b73ffffffffffffffffffffffffffffffffffffffff166110ef6111a5565b73ffffffffffffffffffffffffffffffffffffffff1614611178576040517f08c379a00000000000000000000000000000000000000000000000000000000081526004018080602001828103825260208152602001807f4f776e61626c653a2063616c6c6572206973206e6f7420746865206f776e657281525060200191505060405180910390fd5b6111a27f574554485f544f4b454e00000000000000000000000000000000000000000000826119b4565b50565b60008060009054906101000a900473ffffffffffffffffffffffffffffffffffffffff16905090565b60006111f97f4143434f554e545f464143544f5259000000000000000000000000000000000061185c565b905090565b7f54524541535552595f434f4e545241435400000000000000000000000000000081565b61122a6119ac565b73ffffffffffffffffffffffffffffffffffffffff166112486111a5565b73ffffffffffffffffffffffffffffffffffffffff16146112d1576040517f08c379a00000000000000000000000000000000000000000000000000000000081526004018080602001828103825260208152602001807f4f776e61626c653a2063616c6c6572206973206e6f7420746865206f776e657281525060200191505060405180910390fd5b6112fb7f4143434f554e545f464143544f52590000000000000000000000000000000000826119b4565b50565b7f574554485f47415445574159000000000000000000000000000000000000000081565b600061134d7f474541525f544f4b454e0000000000000000000000000000000000000000000061185c565b905090565b61135a6119ac565b73ffffffffffffffffffffffffffffffffffffffff166113786111a5565b73ffffffffffffffffffffffffffffffffffffffff1614611401576040517f08c379a00000000000000000000000000000000000000000000000000000000081526004018080602001828103825260208152602001807f4f776e61626c653a2063616c6c6572206973206e6f7420746865206f776e657281525060200191505060405180910390fd5b61142b7f474541525f544f4b454e00000000000000000000000000000000000000000000826119b4565b50565b6114366119ac565b73ffffffffffffffffffffffffffffffffffffffff166114546111a5565b73ffffffffffffffffffffffffffffffffffffffff16146114dd576040517f08c379a00000000000000000000000000000000000000000000000000000000081526004018080602001828103825260208152602001807f4f776e61626c653a2063616c6c6572206973206e6f7420746865206f776e657281525060200191505060405180910390fd5b6115077f444154415f434f4d50524553534f520000000000000000000000000000000000826119b4565b50565b60006115357f434f4e5452414354535f5245474953544552000000000000000000000000000061185c565b905090565b6115426119ac565b73ffffffffffffffffffffffffffffffffffffffff166115606111a5565b73ffffffffffffffffffffffffffffffffffffffff16146115e9576040517f08c379a00000000000000000000000000000000000000000000000000000000081526004018080602001828103825260208152602001807f4f776e61626c653a2063616c6c6572206973206e6f7420746865206f776e657281525060200191505060405180910390fd5b6116137f434f4e5452414354535f52454749535445520000000000000000000000000000826119b4565b50565b61161e6119ac565b73ffffffffffffffffffffffffffffffffffffffff1661163c6111a5565b73ffffffffffffffffffffffffffffffffffffffff16146116c5576040517f08c379a00000000000000000000000000000000000000000000000000000000081526004018080602001828103825260208152602001807f4f776e61626c653a2063616c6c6572206973206e6f7420746865206f776e657281525060200191505060405180910390fd5b600073ffffffffffffffffffffffffffffffffffffffff168173ffffffffffffffffffffffffffffffffffffffff16141561174b576040517f08c379a0000000000000000000000000000000000000000000000000000000008152600401808060200182810382526026815260200180611a4f6026913960400191505060405180910390fd5b8073ffffffffffffffffffffffffffffffffffffffff1660008054906101000a900473ffffffffffffffffffffffffffffffffffffffff1673ffffffffffffffffffffffffffffffffffffffff167f8be0079c531659141344cd1fd0a4f28419497f9722a3daafe3b4186f6b6457e060405160405180910390a3806000806101000a81548173ffffffffffffffffffffffffffffffffffffffff021916908373ffffffffffffffffffffffffffffffffffffffff16021790555050565b7f434f4e5452414354535f5245474953544552000000000000000000000000000081565b60006118577f50524943455f4f5241434c45000000000000000000000000000000000000000061185c565b905090565b6000806001600084815260200190815260200160002060009054906101000a900473ffffffffffffffffffffffffffffffffffffffff169050600073ffffffffffffffffffffffffffffffffffffffff168173ffffffffffffffffffffffffffffffffffffffff1614156040518060400160405280600381526020017f4150310000000000000000000000000000000000000000000000000000000000815250906119a2576040517f08c379a00000000000000000000000000000000000000000000000000000000081526004018080602001828103825283818151815260200191508051906020019080838360005b8381101561196757808201518184015260208101905061194c565b50505050905090810190601f1680156119945780820380516001836020036101000a031916815260200191505b509250505060405180910390fd5b5080915050919050565b600033905090565b806001600084815260200190815260200160002060006101000a81548173ffffffffffffffffffffffffffffffffffffffff021916908373ffffffffffffffffffffffffffffffffffffffff1602179055508073ffffffffffffffffffffffffffffffffffffffff16827fb37614c7d254ea8d16eb81fa11dddaeb266aa8ba4917980859c7740aff30c69160405160405180910390a3505056fe4f776e61626c653a206e6577206f776e657220697320746865207a65726f2061646472657373a26469706673582212206e99f1bbb2b01d58f19cb92a24c5e881661e99489a17b3ebffc54b631209758c64736f6c63430007060033",
  "linkReferences": {},
  "deployedLinkReferences": {}
}