{
  "_format": "hh-sol-artifact-1",
  "contractName": "CurveMock",
  "sourceName": "contracts/mocks/integrations/CurveMock.sol",
  "abi": [
    {
      "inputs": [
        {
          "internalType": "address",
          "name": "token",
          "type": "address"
        }
      ],
      "name": "addCoin",
      "outputs": [],
      "stateMutability": "nonpayable",
      "type": "function"
    },
    {
      "inputs": [
        {
          "internalType": "uint256",
          "name": "index",
          "type": "uint256"
        }
      ],
      "name": "coins",
      "outputs": [
        {
          "internalType": "address",
          "name": "",
          "type": "address"
        }
      ],
      "stateMutability": "view",
      "type": "function"
    },
    {
      "inputs": [
        {
          "internalType": "int128",
          "name": "i",
          "type": "int128"
        },
        {
          "internalType": "int128",
          "name": "j",
          "type": "int128"
        },
        {
          "internalType": "uint256",
          "name": "dx",
          "type": "uint256"
        },
        {
          "internalType": "uint256",
          "name": "min_dy",
          "type": "uint256"
        }
      ],
      "name": "exchange",
      "outputs": [],
      "stateMutability": "nonpayable",
      "type": "function"
    },
    {
      "inputs": [
        {
          "internalType": "int128",
          "name": "",
          "type": "int128"
        },
        {
          "internalType": "int128",
          "name": "",
          "type": "int128"
        },
        {
          "internalType": "uint256",
          "name": "",
          "type": "uint256"
        },
        {
          "internalType": "uint256",
          "name": "",
          "type": "uint256"
        }
      ],
      "name": "exchange_underlying",
      "outputs": [],
      "stateMutability": "pure",
      "type": "function"
    },
    {
      "inputs": [
        {
          "internalType": "int128",
          "name": "",
          "type": "int128"
        },
        {
          "internalType": "int128",
          "name": "",
          "type": "int128"
        },
        {
          "internalType": "uint256",
          "name": "",
          "type": "uint256"
        }
      ],
      "name": "get_dx",
      "outputs": [
        {
          "internalType": "uint256",
          "name": "",
          "type": "uint256"
        }
      ],
      "stateMutability": "pure",
      "type": "function"
    },
    {
      "inputs": [
        {
          "internalType": "int128",
          "name": "",
          "type": "int128"
        },
        {
          "internalType": "int128",
          "name": "",
          "type": "int128"
        },
        {
          "internalType": "uint256",
          "name": "dy",
          "type": "uint256"
        }
      ],
      "name": "get_dx_underlying",
      "outputs": [
        {
          "internalType": "uint256",
          "name": "",
          "type": "uint256"
        }
      ],
      "stateMutability": "pure",
      "type": "function"
    },
    {
      "inputs": [
        {
          "internalType": "int128",
          "name": "",
          "type": "int128"
        },
        {
          "internalType": "int128",
          "name": "",
          "type": "int128"
        },
        {
          "internalType": "uint256",
          "name": "dx",
          "type": "uint256"
        }
      ],
      "name": "get_dy",
      "outputs": [
        {
          "internalType": "uint256",
          "name": "",
          "type": "uint256"
        }
      ],
      "stateMutability": "pure",
      "type": "function"
    },
    {
      "inputs": [
        {
          "internalType": "int128",
          "name": "",
          "type": "int128"
        },
        {
          "internalType": "int128",
          "name": "",
          "type": "int128"
        },
        {
          "internalType": "uint256",
          "name": "dx",
          "type": "uint256"
        }
      ],
      "name": "get_dy_underlying",
      "outputs": [
        {
          "internalType": "uint256",
          "name": "",
          "type": "uint256"
        }
      ],
      "stateMutability": "pure",
      "type": "function"
    },
    {
      "inputs": [],
      "name": "get_virtual_price",
      "outputs": [
        {
          "internalType": "uint256",
          "name": "",
          "type": "uint256"
        }
      ],
      "stateMutability": "pure",
      "type": "function"
    }
  ],
  "bytecode": "0x608060405234801561001057600080fd5b50610a97806100206000396000f3fe608060405234801561001057600080fd5b50600436106100935760003560e01c80635e0d443f116100665780635e0d443f146101e657806367df02ca14610242578063a6417ed61461029e578063bb7b8b80146102f0578063c66106571461030e57610093565b806307211ef7146100985780630e71d1b9146100f457806316da8632146101505780633df0212414610194575b600080fd5b6100de600480360360608110156100ae57600080fd5b810190808035600f0b90602001909291908035600f0b906020019092919080359060200190929190505050610366565b6040518082815260200191505060405180910390f35b61013a6004803603606081101561010a57600080fd5b810190808035600f0b90602001909291908035600f0b906020019092919080359060200190929190505050610372565b6040518082815260200191505060405180910390f35b6101926004803603602081101561016657600080fd5b81019080803573ffffffffffffffffffffffffffffffffffffffff16906020019092919050505061037e565b005b6101e4600480360360808110156101aa57600080fd5b810190808035600f0b90602001909291908035600f0b906020019092919080359060200190929190803590602001909291905050506103e4565b005b61022c600480360360608110156101fc57600080fd5b810190808035600f0b90602001909291908035600f0b9060200190929190803590602001909291905050506104c0565b6040518082815260200191505060405180910390f35b6102886004803603606081101561025857600080fd5b810190808035600f0b90602001909291908035600f0b9060200190929190803590602001909291905050506104cc565b6040518082815260200191505060405180910390f35b6102ee600480360360808110156102b457600080fd5b810190808035600f0b90602001909291908035600f0b906020019092919080359060200190929190803590602001909291905050506104d5565b005b6102f86104db565b6040518082815260200191505060405180910390f35b61033a6004803603602081101561032457600080fd5b81019080803590602001909291905050506104e0565b604051808273ffffffffffffffffffffffffffffffffffffffff16815260200191505060405180910390f35b60008190509392505050565b60008190509392505050565b6000819080600181540180825580915050600190039060005260206000200160009091909190916101000a81548173ffffffffffffffffffffffffffffffffffffffff021916908373ffffffffffffffffffffffffffffffffffffffff16021790555050565b60008085600f0b815481106103f557fe5b9060005260206000200160009054906101000a900473ffffffffffffffffffffffffffffffffffffffff16905060008085600f0b8154811061043357fe5b9060005260206000200160009054906101000a900473ffffffffffffffffffffffffffffffffffffffff16905061048d3330868573ffffffffffffffffffffffffffffffffffffffff16610520909392919063ffffffff16565b6104b833848373ffffffffffffffffffffffffffffffffffffffff166105e19092919063ffffffff16565b505050505050565b60008190509392505050565b60009392505050565b50505050565b600090565b60008082815481106104ee57fe5b9060005260206000200160009054906101000a900473ffffffffffffffffffffffffffffffffffffffff169050919050565b6105db846323b872dd60e01b858585604051602401808473ffffffffffffffffffffffffffffffffffffffff1681526020018373ffffffffffffffffffffffffffffffffffffffff1681526020018281526020019350505050604051602081830303815290604052907bffffffffffffffffffffffffffffffffffffffffffffffffffffffff19166020820180517bffffffffffffffffffffffffffffffffffffffffffffffffffffffff8381831617835250505050610683565b50505050565b61067e8363a9059cbb60e01b8484604051602401808373ffffffffffffffffffffffffffffffffffffffff16815260200182815260200192505050604051602081830303815290604052907bffffffffffffffffffffffffffffffffffffffffffffffffffffffff19166020820180517bffffffffffffffffffffffffffffffffffffffffffffffffffffffff8381831617835250505050610683565b505050565b60006106e5826040518060400160405280602081526020017f5361666545524332303a206c6f772d6c6576656c2063616c6c206661696c65648152508573ffffffffffffffffffffffffffffffffffffffff166107729092919063ffffffff16565b905060008151111561076d5780806020019051602081101561070657600080fd5b810190808051906020019092919050505061076c576040517f08c379a000000000000000000000000000000000000000000000000000000000815260040180806020018281038252602a815260200180610a38602a913960400191505060405180910390fd5b5b505050565b6060610781848460008561078a565b90509392505050565b6060824710156107e5576040517f08c379a0000000000000000000000000000000000000000000000000000000008152600401808060200182810382526026815260200180610a126026913960400191505060405180910390fd5b6107ee85610932565b610860576040517f08c379a000000000000000000000000000000000000000000000000000000000815260040180806020018281038252601d8152602001807f416464726573733a2063616c6c20746f206e6f6e2d636f6e747261637400000081525060200191505060405180910390fd5b6000808673ffffffffffffffffffffffffffffffffffffffff1685876040518082805190602001908083835b602083106108af578051825260208201915060208101905060208303925061088c565b6001836020036101000a03801982511681845116808217855250505050505090500191505060006040518083038185875af1925050503d8060008114610911576040519150601f19603f3d011682016040523d82523d6000602084013e610916565b606091505b5091509150610926828286610945565b92505050949350505050565b600080823b905060008111915050919050565b6060831561095557829050610a0a565b6000835111156109685782518084602001fd5b816040517f08c379a00000000000000000000000000000000000000000000000000000000081526004018080602001828103825283818151815260200191508051906020019080838360005b838110156109cf5780820151818401526020810190506109b4565b50505050905090810190601f1680156109fc5780820380516001836020036101000a031916815260200191505b509250505060405180910390fd5b939250505056fe416464726573733a20696e73756666696369656e742062616c616e636520666f722063616c6c5361666545524332303a204552433230206f7065726174696f6e20646964206e6f742073756363656564a26469706673582212205a517d76cc3cccc48ee7c914c89e9388793f2c0ed8b9f1587b6354d1930a5a9f64736f6c63430007060033",
  "linkReferences": {},
  "deployedLinkReferences": {}
}