{
  "_format": "hh-sol-artifact-1",
  "contractName": "CreditFilter",
  "sourceName": "contracts/credit/CreditFilter.sol",
  "abi": [
    {
      "inputs": [
        {
          "internalType": "address",
          "name": "_addressProvider",
          "type": "address"
        },
        {
          "internalType": "address",
          "name": "_underlyingToken",
          "type": "address"
        }
      ],
      "stateMutability": "nonpayable",
      "type": "constructor"
    },
    {
      "anonymous": false,
      "inputs": [
        {
          "indexed": true,
          "internalType": "address",
          "name": "protocol",
          "type": "address"
        },
        {
          "indexed": true,
          "internalType": "address",
          "name": "adapter",
          "type": "address"
        }
      ],
      "name": "ContractAllowed",
      "type": "event"
    },
    {
      "anonymous": false,
      "inputs": [
        {
          "indexed": true,
          "internalType": "address",
          "name": "protocol",
          "type": "address"
        }
      ],
      "name": "ContractForbidden",
      "type": "event"
    },
    {
      "anonymous": false,
      "inputs": [
        {
          "indexed": false,
          "internalType": "uint256",
          "name": "chiThreshold",
          "type": "uint256"
        },
        {
          "indexed": false,
          "internalType": "uint256",
          "name": "fastCheckDelay",
          "type": "uint256"
        }
      ],
      "name": "NewFastCheckParameters",
      "type": "event"
    },
    {
      "anonymous": false,
      "inputs": [
        {
          "indexed": false,
          "internalType": "address",
          "name": "account",
          "type": "address"
        }
      ],
      "name": "Paused",
      "type": "event"
    },
    {
      "anonymous": false,
      "inputs": [
        {
          "indexed": true,
          "internalType": "address",
          "name": "token",
          "type": "address"
        },
        {
          "indexed": false,
          "internalType": "uint256",
          "name": "liquidityThreshold",
          "type": "uint256"
        }
      ],
      "name": "TokenAllowed",
      "type": "event"
    },
    {
      "anonymous": false,
      "inputs": [
        {
          "indexed": true,
          "internalType": "address",
          "name": "from",
          "type": "address"
        },
        {
          "indexed": true,
          "internalType": "address",
          "name": "to",
          "type": "address"
        },
        {
          "indexed": false,
          "internalType": "bool",
          "name": "state",
          "type": "bool"
        }
      ],
      "name": "TransferAccountAllowed",
      "type": "event"
    },
    {
      "anonymous": false,
      "inputs": [
        {
          "indexed": true,
          "internalType": "address",
          "name": "pugin",
          "type": "address"
        },
        {
          "indexed": false,
          "internalType": "bool",
          "name": "state",
          "type": "bool"
        }
      ],
      "name": "TransferPluginAllowed",
      "type": "event"
    },
    {
      "anonymous": false,
      "inputs": [
        {
          "indexed": false,
          "internalType": "address",
          "name": "account",
          "type": "address"
        }
      ],
      "name": "Unpaused",
      "type": "event"
    },
    {
      "inputs": [
        {
          "internalType": "address",
          "name": "",
          "type": "address"
        }
      ],
      "name": "_allowedTokensMap",
      "outputs": [
        {
          "internalType": "bool",
          "name": "",
          "type": "bool"
        }
      ],
      "stateMutability": "view",
      "type": "function"
    },
    {
      "inputs": [],
      "name": "addressProvider",
      "outputs": [
        {
          "internalType": "contract AddressProvider",
          "name": "",
          "type": "address"
        }
      ],
      "stateMutability": "view",
      "type": "function"
    },
    {
      "inputs": [
        {
          "internalType": "address",
          "name": "targetContract",
          "type": "address"
        },
        {
          "internalType": "address",
          "name": "adapter",
          "type": "address"
        }
      ],
      "name": "allowContract",
      "outputs": [],
      "stateMutability": "nonpayable",
      "type": "function"
    },
    {
      "inputs": [
        {
          "internalType": "address",
          "name": "plugin",
          "type": "address"
        },
        {
          "internalType": "bool",
          "name": "state",
          "type": "bool"
        }
      ],
      "name": "allowPlugin",
      "outputs": [],
      "stateMutability": "nonpayable",
      "type": "function"
    },
    {
      "inputs": [
        {
          "internalType": "address",
          "name": "token",
          "type": "address"
        },
        {
          "internalType": "uint256",
          "name": "liquidationThreshold",
          "type": "uint256"
        }
      ],
      "name": "allowToken",
      "outputs": [],
      "stateMutability": "nonpayable",
      "type": "function"
    },
    {
      "inputs": [
        {
          "internalType": "address",
          "name": "from",
          "type": "address"
        },
        {
          "internalType": "address",
          "name": "to",
          "type": "address"
        }
      ],
      "name": "allowanceForAccountTransfers",
      "outputs": [
        {
          "internalType": "bool",
          "name": "",
          "type": "bool"
        }
      ],
      "stateMutability": "view",
      "type": "function"
    },
    {
      "inputs": [
        {
          "internalType": "address",
          "name": "",
          "type": "address"
        }
      ],
      "name": "allowedAdapters",
      "outputs": [
        {
          "internalType": "bool",
          "name": "",
          "type": "bool"
        }
      ],
      "stateMutability": "view",
      "type": "function"
    },
    {
      "inputs": [
        {
          "internalType": "uint256",
          "name": "i",
          "type": "uint256"
        }
      ],
      "name": "allowedContracts",
      "outputs": [
        {
          "internalType": "address",
          "name": "",
          "type": "address"
        }
      ],
      "stateMutability": "view",
      "type": "function"
    },
    {
      "inputs": [],
      "name": "allowedContractsCount",
      "outputs": [
        {
          "internalType": "uint256",
          "name": "",
          "type": "uint256"
        }
      ],
      "stateMutability": "view",
      "type": "function"
    },
    {
      "inputs": [
        {
          "internalType": "address",
          "name": "",
          "type": "address"
        }
      ],
      "name": "allowedPlugins",
      "outputs": [
        {
          "internalType": "bool",
          "name": "",
          "type": "bool"
        }
      ],
      "stateMutability": "view",
      "type": "function"
    },
    {
      "inputs": [
        {
          "internalType": "uint256",
          "name": "",
          "type": "uint256"
        }
      ],
      "name": "allowedTokens",
      "outputs": [
        {
          "internalType": "address",
          "name": "",
          "type": "address"
        }
      ],
      "stateMutability": "view",
      "type": "function"
    },
    {
      "inputs": [],
      "name": "allowedTokensCount",
      "outputs": [
        {
          "internalType": "uint256",
          "name": "",
          "type": "uint256"
        }
      ],
      "stateMutability": "view",
      "type": "function"
    },
    {
      "inputs": [
        {
          "internalType": "address",
          "name": "from",
          "type": "address"
        },
        {
          "internalType": "bool",
          "name": "state",
          "type": "bool"
        }
      ],
      "name": "approveAccountTransfers",
      "outputs": [],
      "stateMutability": "nonpayable",
      "type": "function"
    },
    {
      "inputs": [
        {
          "internalType": "address",
          "name": "creditAccount",
          "type": "address"
        }
      ],
      "name": "calcCreditAccountAccruedInterest",
      "outputs": [
        {
          "internalType": "uint256",
          "name": "",
          "type": "uint256"
        }
      ],
      "stateMutability": "view",
      "type": "function"
    },
    {
      "inputs": [
        {
          "internalType": "address",
          "name": "creditAccount",
          "type": "address"
        }
      ],
      "name": "calcCreditAccountHealthFactor",
      "outputs": [
        {
          "internalType": "uint256",
          "name": "",
          "type": "uint256"
        }
      ],
      "stateMutability": "view",
      "type": "function"
    },
    {
      "inputs": [
        {
          "internalType": "uint256",
          "name": "percentage",
          "type": "uint256"
        },
        {
          "internalType": "uint256",
          "name": "times",
          "type": "uint256"
        }
      ],
      "name": "calcMaxPossibleDrop",
      "outputs": [
        {
          "internalType": "uint256",
          "name": "value",
          "type": "uint256"
        }
      ],
      "stateMutability": "pure",
      "type": "function"
    },
    {
      "inputs": [
        {
          "internalType": "address",
          "name": "creditAccount",
          "type": "address"
        }
      ],
      "name": "calcThresholdWeightedValue",
      "outputs": [
        {
          "internalType": "uint256",
          "name": "total",
          "type": "uint256"
        }
      ],
      "stateMutability": "view",
      "type": "function"
    },
    {
      "inputs": [
        {
          "internalType": "address",
          "name": "creditAccount",
          "type": "address"
        }
      ],
      "name": "calcTotalValue",
      "outputs": [
        {
          "internalType": "uint256",
          "name": "total",
          "type": "uint256"
        }
      ],
      "stateMutability": "view",
      "type": "function"
    },
    {
      "inputs": [
        {
          "internalType": "address",
          "name": "creditAccount",
          "type": "address"
        },
        {
          "internalType": "address",
          "name": "token",
          "type": "address"
        }
      ],
      "name": "checkAndEnableToken",
      "outputs": [],
      "stateMutability": "nonpayable",
      "type": "function"
    },
    {
      "inputs": [
        {
          "internalType": "address",
          "name": "creditAccount",
          "type": "address"
        },
        {
          "internalType": "address",
          "name": "tokenIn",
          "type": "address"
        },
        {
          "internalType": "address",
          "name": "tokenOut",
          "type": "address"
        },
        {
          "internalType": "uint256",
          "name": "amountIn",
          "type": "uint256"
        },
        {
          "internalType": "uint256",
          "name": "amountOut",
          "type": "uint256"
        }
      ],
      "name": "checkCollateralChange",
      "outputs": [],
      "stateMutability": "nonpayable",
      "type": "function"
    },
    {
      "inputs": [
        {
          "internalType": "address",
          "name": "creditAccount",
          "type": "address"
        },
        {
          "internalType": "uint256[]",
          "name": "amountIn",
          "type": "uint256[]"
        },
        {
          "internalType": "uint256[]",
          "name": "amountOut",
          "type": "uint256[]"
        },
        {
          "internalType": "address[]",
          "name": "tokenIn",
          "type": "address[]"
        },
        {
          "internalType": "address[]",
          "name": "tokenOut",
          "type": "address[]"
        }
      ],
      "name": "checkMultiTokenCollateral",
      "outputs": [],
      "stateMutability": "nonpayable",
      "type": "function"
    },
    {
      "inputs": [],
      "name": "chiThreshold",
      "outputs": [
        {
          "internalType": "uint256",
          "name": "",
          "type": "uint256"
        }
      ],
      "stateMutability": "view",
      "type": "function"
    },
    {
      "inputs": [
        {
          "internalType": "address",
          "name": "_creditManager",
          "type": "address"
        }
      ],
      "name": "connectCreditManager",
      "outputs": [],
      "stateMutability": "nonpayable",
      "type": "function"
    },
    {
      "inputs": [
        {
          "internalType": "address",
          "name": "",
          "type": "address"
        }
      ],
      "name": "contractToAdapter",
      "outputs": [
        {
          "internalType": "address",
          "name": "",
          "type": "address"
        }
      ],
      "stateMutability": "view",
      "type": "function"
    },
    {
      "inputs": [],
      "name": "creditManager",
      "outputs": [
        {
          "internalType": "address",
          "name": "",
          "type": "address"
        }
      ],
      "stateMutability": "view",
      "type": "function"
    },
    {
      "inputs": [
        {
          "internalType": "address",
          "name": "",
          "type": "address"
        }
      ],
      "name": "enabledTokens",
      "outputs": [
        {
          "internalType": "uint256",
          "name": "",
          "type": "uint256"
        }
      ],
      "stateMutability": "view",
      "type": "function"
    },
    {
      "inputs": [
        {
          "internalType": "address",
          "name": "",
          "type": "address"
        }
      ],
      "name": "fastCheckCounter",
      "outputs": [
        {
          "internalType": "uint256",
          "name": "",
          "type": "uint256"
        }
      ],
      "stateMutability": "view",
      "type": "function"
    },
    {
      "inputs": [
        {
          "internalType": "address",
          "name": "targetContract",
          "type": "address"
        }
      ],
      "name": "forbidContract",
      "outputs": [],
      "stateMutability": "nonpayable",
      "type": "function"
    },
    {
      "inputs": [
        {
          "internalType": "address",
          "name": "token",
          "type": "address"
        }
      ],
      "name": "forbidToken",
      "outputs": [],
      "stateMutability": "nonpayable",
      "type": "function"
    },
    {
      "inputs": [
        {
          "internalType": "address",
          "name": "creditAccount",
          "type": "address"
        },
        {
          "internalType": "uint256",
          "name": "id",
          "type": "uint256"
        }
      ],
      "name": "getCreditAccountTokenById",
      "outputs": [
        {
          "internalType": "address",
          "name": "token",
          "type": "address"
        },
        {
          "internalType": "uint256",
          "name": "balance",
          "type": "uint256"
        },
        {
          "internalType": "uint256",
          "name": "tv",
          "type": "uint256"
        },
        {
          "internalType": "uint256",
          "name": "tvw",
          "type": "uint256"
        }
      ],
      "stateMutability": "view",
      "type": "function"
    },
    {
      "inputs": [],
      "name": "hfCheckInterval",
      "outputs": [
        {
          "internalType": "uint256",
          "name": "",
          "type": "uint256"
        }
      ],
      "stateMutability": "view",
      "type": "function"
    },
    {
      "inputs": [
        {
          "internalType": "address",
          "name": "creditAccount",
          "type": "address"
        }
      ],
      "name": "initEnabledTokens",
      "outputs": [],
      "stateMutability": "nonpayable",
      "type": "function"
    },
    {
      "inputs": [
        {
          "internalType": "address",
          "name": "token",
          "type": "address"
        }
      ],
      "name": "isTokenAllowed",
      "outputs": [
        {
          "internalType": "bool",
          "name": "",
          "type": "bool"
        }
      ],
      "stateMutability": "view",
      "type": "function"
    },
    {
      "inputs": [
        {
          "internalType": "address",
          "name": "",
          "type": "address"
        }
      ],
      "name": "liquidationThresholds",
      "outputs": [
        {
          "internalType": "uint256",
          "name": "",
          "type": "uint256"
        }
      ],
      "stateMutability": "view",
      "type": "function"
    },
    {
      "inputs": [],
      "name": "pause",
      "outputs": [],
      "stateMutability": "nonpayable",
      "type": "function"
    },
    {
      "inputs": [],
      "name": "paused",
      "outputs": [
        {
          "internalType": "bool",
          "name": "",
          "type": "bool"
        }
      ],
      "stateMutability": "view",
      "type": "function"
    },
    {
      "inputs": [],
      "name": "poolService",
      "outputs": [
        {
          "internalType": "address",
          "name": "",
          "type": "address"
        }
      ],
      "stateMutability": "view",
      "type": "function"
    },
    {
      "inputs": [],
      "name": "priceOracle",
      "outputs": [
        {
          "internalType": "address",
          "name": "",
          "type": "address"
        }
      ],
      "stateMutability": "view",
      "type": "function"
    },
    {
      "inputs": [
        {
          "internalType": "address",
          "name": "owner",
          "type": "address"
        },
        {
          "internalType": "address",
          "name": "newOwner",
          "type": "address"
        }
      ],
      "name": "revertIfAccountTransferIsNotAllowed",
      "outputs": [],
      "stateMutability": "view",
      "type": "function"
    },
    {
      "inputs": [
        {
          "internalType": "address",
          "name": "creditAccount",
          "type": "address"
        },
        {
          "internalType": "uint256",
          "name": "minHealthFactor",
          "type": "uint256"
        }
      ],
      "name": "revertIfCantIncreaseBorrowing",
      "outputs": [],
      "stateMutability": "view",
      "type": "function"
    },
    {
      "inputs": [
        {
          "internalType": "address",
          "name": "token",
          "type": "address"
        }
      ],
      "name": "revertIfTokenNotAllowed",
      "outputs": [],
      "stateMutability": "view",
      "type": "function"
    },
    {
      "inputs": [
        {
          "internalType": "uint256",
          "name": "_chiThreshold",
          "type": "uint256"
        },
        {
          "internalType": "uint256",
          "name": "_hfCheckInterval",
          "type": "uint256"
        }
      ],
      "name": "setFastCheckParameters",
      "outputs": [],
      "stateMutability": "nonpayable",
      "type": "function"
    },
    {
      "inputs": [
        {
          "internalType": "address",
          "name": "",
          "type": "address"
        }
      ],
      "name": "tokenMasksMap",
      "outputs": [
        {
          "internalType": "uint256",
          "name": "",
          "type": "uint256"
        }
      ],
      "stateMutability": "view",
      "type": "function"
    },
    {
      "inputs": [],
      "name": "underlyingToken",
      "outputs": [
        {
          "internalType": "address",
          "name": "",
          "type": "address"
        }
      ],
      "stateMutability": "view",
      "type": "function"
    },
    {
      "inputs": [],
      "name": "unpause",
      "outputs": [],
      "stateMutability": "nonpayable",
      "type": "function"
    },
    {
      "inputs": [],
      "name": "updateUnderlyingTokenLiquidationThreshold",
      "outputs": [],
      "stateMutability": "nonpayable",
      "type": "function"
    },
    {
      "inputs": [],
      "name": "wethAddress",
      "outputs": [
        {
          "internalType": "address",
          "name": "",
          "type": "address"
        }
      ],
      "stateMutability": "view",
      "type": "function"
    }
  ],
  "bytecode": "0x60806040523480156200001157600080fd5b5060405162006ef438038062006ef4833981810160405281019062000037919062001213565b8160008060006101000a81548160ff021916908315150217905550600073ffffffffffffffffffffffffffffffffffffffff168173ffffffffffffffffffffffffffffffffffffffff1614156040518060400160405280600281526020017f5a300000000000000000000000000000000000000000000000000000000000008152509062000163576040517f08c379a00000000000000000000000000000000000000000000000000000000081526004018080602001828103825283818151815260200191508051906020019080838360005b83811015620001275780820151818401526020810190506200010a565b50505050905090810190601f168015620001555780820380516001836020036101000a031916815260200191505b509250505060405180910390fd5b508073ffffffffffffffffffffffffffffffffffffffff1663087376956040518163ffffffff1660e01b815260040160206040518083038186803b158015620001ab57600080fd5b505afa158015620001c0573d6000803e3d6000fd5b505050506040513d6020811015620001d757600080fd5b8101908080519060200190929190505050600060016101000a81548173ffffffffffffffffffffffffffffffffffffffff021916908373ffffffffffffffffffffffffffffffffffffffff16021790555050600073ffffffffffffffffffffffffffffffffffffffff168273ffffffffffffffffffffffffffffffffffffffff1614158015620002945750600073ffffffffffffffffffffffffffffffffffffffff168173ffffffffffffffffffffffffffffffffffffffff1614155b6040518060400160405280600281526020017f5a30000000000000000000000000000000000000000000000000000000000000815250906200030e576040517f08c379a00000000000000000000000000000000000000000000000000000000081526004016200030591906200132d565b60405180910390fd5b5081600160006101000a81548173ffffffffffffffffffffffffffffffffffffffff021916908373ffffffffffffffffffffffffffffffffffffffff160217905550600160009054906101000a900473ffffffffffffffffffffffffffffffffffffffff1673ffffffffffffffffffffffffffffffffffffffff1663fca513a86040518163ffffffff1660e01b815260040160206040518083038186803b158015620003b957600080fd5b505afa158015620003ce573d6000803e3d6000fd5b505050506040513d601f19601f82011682018060405250810190620003f49190620011e7565b600d60006101000a81548173ffffffffffffffffffffffffffffffffffffffff021916908373ffffffffffffffffffffffffffffffffffffffff160217905550600160009054906101000a900473ffffffffffffffffffffffffffffffffffffffff1673ffffffffffffffffffffffffffffffffffffffff16634c252f916040518163ffffffff1660e01b815260040160206040518083038186803b1580156200049d57600080fd5b505afa158015620004b2573d6000803e3d6000fd5b505050506040513d601f19601f82011682018060405250810190620004d89190620011e7565b601060006101000a81548173ffffffffffffffffffffffffffffffffffffffff021916908373ffffffffffffffffffffffffffffffffffffffff16021790555080600e60006101000a81548173ffffffffffffffffffffffffffffffffffffffff021916908373ffffffffffffffffffffffffffffffffffffffff16021790555060c861251c0360056000600e60009054906101000a900473ffffffffffffffffffffffffffffffffffffffff1673ffffffffffffffffffffffffffffffffffffffff1673ffffffffffffffffffffffffffffffffffffffff16815260200190815260200160002081905550620005fd600e60009054906101000a900473ffffffffffffffffffffffffffffffffffffffff1660c861251c036200071560201b60201c565b620006126126de600462000d6160201b60201c565b600160146000600160009054906101000a900473ffffffffffffffffffffffffffffffffffffffff1673ffffffffffffffffffffffffffffffffffffffff166377532ed96040518163ffffffff1660e01b815260040160206040518083038186803b1580156200068157600080fd5b505afa15801562000696573d6000803e3d6000fd5b505050506040513d601f19601f82011682018060405250810190620006bc9190620011e7565b73ffffffffffffffffffffffffffffffffffffffff1673ffffffffffffffffffffffffffffffffffffffff16815260200190815260200160002060006101000a81548160ff021916908315150217905550505062001470565b600073ffffffffffffffffffffffffffffffffffffffff168273ffffffffffffffffffffffffffffffffffffffff1614156040518060400160405280600281526020017f5a3000000000000000000000000000000000000000000000000000000000000081525090620007c0576040517f08c379a0000000000000000000000000000000000000000000000000000000008152600401620007b791906200132d565b60405180910390fd5b5060008111801562000833575060056000600e60009054906101000a900473ffffffffffffffffffffffffffffffffffffffff1673ffffffffffffffffffffffffffffffffffffffff1673ffffffffffffffffffffffffffffffffffffffff168152602001908152602001600020548111155b6040518060400160405280600381526020017f434631000000000000000000000000000000000000000000000000000000000081525090620008ad576040517f08c379a0000000000000000000000000000000000000000000000000000000008152600401620008a491906200132d565b60405180910390fd5b506000600660008473ffffffffffffffffffffffffffffffffffffffff1673ffffffffffffffffffffffffffffffffffffffff168152602001908152602001600020541180620009035750610100600480549050105b6040518060400160405280600381526020017f4346360000000000000000000000000000000000000000000000000000000000815250906200097d576040517f08c379a00000000000000000000000000000000000000000000000000000000081526004016200097491906200132d565b60405180910390fd5b5060008273ffffffffffffffffffffffffffffffffffffffff166370a08231306040518263ffffffff1660e01b8152600401620009bb9190620012e3565b60206040518083038186803b158015620009d457600080fd5b505afa158015620009e9573d6000803e3d6000fd5b505050506040513d601f19601f8201168201806040525081019062000a0f919062001254565b101562000a1b57600080fd5b6000600d60009054906101000a900473ffffffffffffffffffffffffffffffffffffffff1673ffffffffffffffffffffffffffffffffffffffff1663743b908684600e60009054906101000a900473ffffffffffffffffffffffffffffffffffffffff166040518363ffffffff1660e01b815260040162000a9e92919062001300565b60206040518083038186803b15801562000ab757600080fd5b505afa15801562000acc573d6000803e3d6000fd5b505050506040513d601f19601f8201168201806040525081019062000af2919062001254565b116040518060400160405280600381526020017f43464500000000000000000000000000000000000000000000000000000000008152509062000b6d576040517f08c379a000000000000000000000000000000000000000000000000000000000815260040162000b6491906200132d565b60405180910390fd5b50600360008373ffffffffffffffffffffffffffffffffffffffff1673ffffffffffffffffffffffffffffffffffffffff16815260200190815260200160002060009054906101000a900460ff1662000cc9576001600360008473ffffffffffffffffffffffffffffffffffffffff1673ffffffffffffffffffffffffffffffffffffffff16815260200190815260200160002060006101000a81548160ff0219169083151502179055506004805490506001901b600660008473ffffffffffffffffffffffffffffffffffffffff1673ffffffffffffffffffffffffffffffffffffffff168152602001908152602001600020819055506004829080600181540180825580915050600190039060005260206000200160009091909190916101000a81548173ffffffffffffffffffffffffffffffffffffffff021916908373ffffffffffffffffffffffffffffffffffffffff1602179055505b80600560008473ffffffffffffffffffffffffffffffffffffffff1673ffffffffffffffffffffffffffffffffffffffff168152602001908152602001600020819055508173ffffffffffffffffffffffffffffffffffffffff167fa52fb6bfa514a4ddcb31de40a5f6c20d767db1f921a8b7747973d93dc5da7a028260405162000d55919062001351565b60405180910390a25050565b816011819055508060128190555062000d7f62000dbe60201b60201c565b7f727652fff0946c19c233fd3eab5fc03db9e9fdd907e902d9136c2a9cac47101c828260405162000db29291906200136e565b60405180910390a15050565b600073ffffffffffffffffffffffffffffffffffffffff16600260009054906101000a900473ffffffffffffffffffffffffffffffffffffffff1673ffffffffffffffffffffffffffffffffffffffff161462000f6d57600062000e4862000e3160115460125462000f6f60201b60201c565b6127106200101f60201b620040491790919060201c565b9050600260009054906101000a900473ffffffffffffffffffffffffffffffffffffffff1673ffffffffffffffffffffffffffffffffffffffff16633915ffaa6040518163ffffffff1660e01b815260040160206040518083038186803b15801562000eb357600080fd5b505afa15801562000ec8573d6000803e3d6000fd5b505050506040513d601f19601f8201168201806040525081019062000eee919062001254565b81106040518060400160405280600381526020017f43464200000000000000000000000000000000000000000000000000000000008152509062000f6a576040517f08c379a000000000000000000000000000000000000000000000000000000000815260040162000f6191906200132d565b60405180910390fd5b50505b565b600062000f8d83612710620010a360201b620040cc1790919060201c565b905060005b62000fad6001846200101f60201b620040491790919060201c565b81101562000ffa5762000fea61271062000fd68685620010a360201b620040cc1790919060201c565b6200112e60201b620041521790919060201c565b9150808060010191505062000f92565b5062001017612710826200112e60201b620041521790919060201c565b905092915050565b60008282111562001098576040517f08c379a000000000000000000000000000000000000000000000000000000000815260040180806020018281038252601e8152602001807f536166654d6174683a207375627472616374696f6e206f766572666c6f77000081525060200191505060405180910390fd5b818303905092915050565b600080831415620010b8576000905062001128565b6000828402905082848281620010ca57fe5b041462001123576040517f08c379a000000000000000000000000000000000000000000000000000000000815260040180806020018281038252602181526020018062006ed36021913960400191505060405180910390fd5b809150505b92915050565b6000808211620011a6576040517f08c379a000000000000000000000000000000000000000000000000000000000815260040180806020018281038252601a8152602001807f536166654d6174683a206469766973696f6e206279207a65726f00000000000081525060200191505060405180910390fd5b818381620011b057fe5b04905092915050565b600081519050620011ca816200143c565b92915050565b600081519050620011e18162001456565b92915050565b600060208284031215620011fa57600080fd5b60006200120a84828501620011b9565b91505092915050565b600080604083850312156200122757600080fd5b60006200123785828601620011b9565b92505060206200124a85828601620011b9565b9150509250929050565b6000602082840312156200126757600080fd5b60006200127784828501620011d0565b91505092915050565b6200128b81620013b7565b82525050565b60006200129e826200139b565b620012aa8185620013a6565b9350620012bc818560208601620013f5565b620012c7816200142b565b840191505092915050565b620012dd81620013eb565b82525050565b6000602082019050620012fa600083018462001280565b92915050565b600060408201905062001317600083018562001280565b62001326602083018462001280565b9392505050565b6000602082019050818103600083015262001349818462001291565b905092915050565b6000602082019050620013686000830184620012d2565b92915050565b6000604082019050620013856000830185620012d2565b620013946020830184620012d2565b9392505050565b600081519050919050565b600082825260208201905092915050565b6000620013c482620013cb565b9050919050565b600073ffffffffffffffffffffffffffffffffffffffff82169050919050565b6000819050919050565b60005b8381101562001415578082015181840152602081019050620013f8565b8381111562001425576000848401525b50505050565b6000601f19601f8301169050919050565b6200144781620013b7565b81146200145357600080fd5b50565b6200146181620013eb565b81146200146d57600080fd5b50565b615a5380620014806000396000f3fe608060405234801561001057600080fd5b50600436106102955760003560e01c80635f598edd11610167578063b3c61943116100ce578063e1c8ef0d11610087578063e1c8ef0d14610823578063e54fe9c81461083f578063e6dee2cc1461085b578063f67c5bd014610879578063f9eaee0d146108a9578063fdd57645146108d957610295565b8063b3c6194314610729578063b451cecc14610759578063c12c21c014610789578063c7de38a6146107a7578063cf33d955146107d7578063dfd59465146107f357610295565b80638456cb59116101205780638456cb591461065457806390b1300a1461065e578063a147c6c61461068e578063a5757517146106aa578063af0a6502146106c6578063b2d0d86b146106f957610295565b80635f598edd1461058457806362061c6d146105b457806378327438146105d05780637bccacee146106005780637dd0ba821461061c5780637e4a68631461063857610295565b806347dedfc91161020b57806352438e54116101c457806352438e54146104b0578063570a7af2146104cc5780635a29be45146104ea5780635c975abb1461051a5780635e5f2e26146105385780635f27212a1461056857610295565b806347dedfc9146103da5780634cba294a146103f85780634f0e0ef3146104285780635094cb4f1461044657806350e036ff1461047657806351e3f1601461049457610295565b80632e2986dd1161025d5780632e2986dd1461032e5780633192195c1461034a5780633b00ae701461037a5780633bdfe4f5146103965780633f4ba83a146103c657806340631828146103d057610295565b806320a05ff71461029a57806324147708146102b85780632495a599146102d45780632630c12f146102f25780632954018c14610310575b600080fd5b6102a2610909565b6040516102af91906157c3565b60405180910390f35b6102d260048036038101906102cd919061538b565b610916565b005b6102dc610b12565b6040516102e991906156e2565b60405180910390f35b6102fa610b38565b60405161030791906156e2565b60405180910390f35b610318610b5e565b6040516103259190615786565b60405180910390f35b61034860048036038101906103439190615567565b610b84565b005b610364600480360381019061035f919061538b565b610dce565b60405161037191906157c3565b60405180910390f35b610394600480360381019061038f91906153dd565b610f95565b005b6103b060048036038101906103ab919061538b565b611143565b6040516103bd919061576b565b60405180910390f35b6103ce611163565b005b6103d861130e565b005b6103e2611a9c565b6040516103ef91906157c3565b60405180910390f35b610412600480360381019061040d919061538b565b611aa2565b60405161041f91906157c3565b60405180910390f35b610430611aba565b60405161043d91906156e2565b60405180910390f35b610460600480360381019061045b91906155df565b611ae0565b60405161046d91906156e2565b60405180910390f35b61047e611afd565b60405161048b91906157c3565b60405180910390f35b6104ae60048036038101906104a991906153dd565b611b0e565b005b6104ca60048036038101906104c5919061538b565b611be5565b005b6104d4612037565b6040516104e191906156e2565b60405180910390f35b61050460048036038101906104ff91906153dd565b61205d565b604051610511919061576b565b60405180910390f35b6105226120f1565b60405161052f919061576b565b60405180910390f35b610552600480360381019061054d91906155df565b612107565b60405161055f91906156e2565b60405180910390f35b610582600480360381019061057d9190615567565b612146565b005b61059e6004803603810190610599919061538b565b612243565b6040516105ab919061576b565b60405180910390f35b6105ce60048036038101906105c99190615631565b612263565b005b6105ea60048036038101906105e5919061538b565b612412565b6040516105f791906157c3565b60405180910390f35b61061a600480360381019061061591906153dd565b61242a565b005b6106366004803603810190610631919061538b565b612979565b005b610652600480360381019061064d9190615490565b6129fd565b005b61065c612dca565b005b6106786004803603810190610673919061538b565b612f75565b60405161068591906157c3565b60405180910390f35b6106a860048036038101906106a391906155a3565b613034565b005b6106c460048036038101906106bf91906155a3565b6131e3565b005b6106e060048036038101906106db91906155a3565b61326b565b6040516106f09493929190615726565b60405180910390f35b610713600480360381019061070e919061538b565b613470565b604051610720919061576b565b60405180910390f35b610743600480360381019061073e9190615631565b613490565b60405161075091906157c3565b60405180910390f35b610773600480360381019061076e919061538b565b61351b565b60405161078091906157c3565b60405180910390f35b610791613533565b60405161079e91906156e2565b60405180910390f35b6107c160048036038101906107bc919061538b565b613559565b6040516107ce91906157c3565b60405180910390f35b6107f160048036038101906107ec919061538b565b613601565b005b61080d6004803603810190610808919061538b565b613b7f565b60405161081a91906157c3565b60405180910390f35b61083d60048036038101906108389190615419565b613bbf565b005b6108596004803603810190610854919061538b565b613e4c565b005b610863613fa2565b60405161087091906157c3565b60405180910390f35b610893600480360381019061088e919061538b565b613fa8565b6040516108a091906157c3565b60405180910390f35b6108c360048036038101906108be919061538b565b613fc0565b6040516108d0919061576b565b60405180910390f35b6108f360048036038101906108ee919061538b565b614016565b60405161090091906156e2565b60405180910390f35b6000600480549050905090565b600060019054906101000a900473ffffffffffffffffffffffffffffffffffffffff1673ffffffffffffffffffffffffffffffffffffffff16635f259aba336040518263ffffffff1660e01b8152600401808273ffffffffffffffffffffffffffffffffffffffff16815260200191505060206040518083038186803b15801561099f57600080fd5b505afa1580156109b3573d6000803e3d6000fd5b505050506040513d60208110156109c957600080fd5b81019080805190602001909291905050506040518060400160405280600481526020017f41434c320000000000000000000000000000000000000000000000000000000081525090610ab6576040517f08c379a00000000000000000000000000000000000000000000000000000000081526004018080602001828103825283818151815260200191508051906020019080838360005b83811015610a7b578082015181840152602081019050610a60565b50505050905090810190601f168015610aa85780820380516001836020036101000a031916815260200191505b509250505060405180910390fd5b506000600360008373ffffffffffffffffffffffffffffffffffffffff1673ffffffffffffffffffffffffffffffffffffffff16815260200190815260200160002060006101000a81548160ff02191690831515021790555050565b600e60009054906101000a900473ffffffffffffffffffffffffffffffffffffffff1681565b600d60009054906101000a900473ffffffffffffffffffffffffffffffffffffffff1681565b600160009054906101000a900473ffffffffffffffffffffffffffffffffffffffff1681565b600060019054906101000a900473ffffffffffffffffffffffffffffffffffffffff1673ffffffffffffffffffffffffffffffffffffffff16635f259aba336040518263ffffffff1660e01b8152600401808273ffffffffffffffffffffffffffffffffffffffff16815260200191505060206040518083038186803b158015610c0d57600080fd5b505afa158015610c21573d6000803e3d6000fd5b505050506040513d6020811015610c3757600080fd5b81019080805190602001909291905050506040518060400160405280600481526020017f41434c320000000000000000000000000000000000000000000000000000000081525090610d24576040517f08c379a00000000000000000000000000000000000000000000000000000000081526004018080602001828103825283818151815260200191508051906020019080838360005b83811015610ce9578082015181840152602081019050610cce565b50505050905090810190601f168015610d165780820380516001836020036101000a031916815260200191505b509250505060405180910390fd5b5080601460008473ffffffffffffffffffffffffffffffffffffffff1673ffffffffffffffffffffffffffffffffffffffff16815260200190815260200160002060006101000a81548160ff0219169083151502179055508173ffffffffffffffffffffffffffffffffffffffff167fc7d2592986c53f858769b011e8ce6298936f8609789988e9f5ad4f0a2079889782604051610dc2919061576b565b60405180910390a25050565b6000610f8e8273ffffffffffffffffffffffffffffffffffffffff166317d11a156040518163ffffffff1660e01b815260040160206040518083038186803b158015610e1957600080fd5b505afa158015610e2d573d6000803e3d6000fd5b505050506040513d601f19601f82011682018060405250810190610e519190615608565b610f80600f60009054906101000a900473ffffffffffffffffffffffffffffffffffffffff1673ffffffffffffffffffffffffffffffffffffffff16630fce70fb6040518163ffffffff1660e01b815260040160206040518083038186803b158015610ebc57600080fd5b505afa158015610ed0573d6000803e3d6000fd5b505050506040513d601f19601f82011682018060405250810190610ef49190615608565b8573ffffffffffffffffffffffffffffffffffffffff16631afbb7a46040518163ffffffff1660e01b815260040160206040518083038186803b158015610f3a57600080fd5b505afa158015610f4e573d6000803e3d6000fd5b505050506040513d601f19601f82011682018060405250810190610f729190615608565b6140cc90919063ffffffff16565b61415290919063ffffffff16565b9050919050565b601460008373ffffffffffffffffffffffffffffffffffffffff1673ffffffffffffffffffffffffffffffffffffffff16815260200190815260200160002060009054906101000a900460ff1615806110375750601460008273ffffffffffffffffffffffffffffffffffffffff1673ffffffffffffffffffffffffffffffffffffffff16815260200190815260200160002060009054906101000a900460ff165b1561113f57601360008373ffffffffffffffffffffffffffffffffffffffff1673ffffffffffffffffffffffffffffffffffffffff16815260200190815260200160002060008273ffffffffffffffffffffffffffffffffffffffff1673ffffffffffffffffffffffffffffffffffffffff16815260200190815260200160002060009054906101000a900460ff166040518060400160405280600381526020017f43464600000000000000000000000000000000000000000000000000000000008152509061113d576040517f08c379a000000000000000000000000000000000000000000000000000000000815260040161113491906157a1565b60405180910390fd5b505b5050565b600b6020528060005260406000206000915054906101000a900460ff1681565b600060019054906101000a900473ffffffffffffffffffffffffffffffffffffffff1673ffffffffffffffffffffffffffffffffffffffff1663d4eb5db0336040518263ffffffff1660e01b8152600401808273ffffffffffffffffffffffffffffffffffffffff16815260200191505060206040518083038186803b1580156111ec57600080fd5b505afa158015611200573d6000803e3d6000fd5b505050506040513d602081101561121657600080fd5b81019080805190602001909291905050506040518060400160405280600481526020017f41434c310000000000000000000000000000000000000000000000000000000081525090611303576040517f08c379a00000000000000000000000000000000000000000000000000000000081526004018080602001828103825283818151815260200191508051906020019080838360005b838110156112c85780820151818401526020810190506112ad565b50505050905090810190601f1680156112f55780820380516001836020036101000a031916815260200191505b509250505060405180910390fd5b5061130c6141db565b565b600260009054906101000a900473ffffffffffffffffffffffffffffffffffffffff1673ffffffffffffffffffffffffffffffffffffffff163373ffffffffffffffffffffffffffffffffffffffff16146040518060400160405280600381526020017f4346330000000000000000000000000000000000000000000000000000000000815250906113d6576040517f08c379a00000000000000000000000000000000000000000000000000000000081526004016113cd91906157a1565b60405180910390fd5b50612710600260009054906101000a900473ffffffffffffffffffffffffffffffffffffffff1673ffffffffffffffffffffffffffffffffffffffff16635e0b63d36040518163ffffffff1660e01b815260040160206040518083038186803b15801561144257600080fd5b505afa158015611456573d6000803e3d6000fd5b505050506040513d601f19601f8201168201806040525081019061147a9190615608565b1080156115275750612710600260009054906101000a900473ffffffffffffffffffffffffffffffffffffffff1673ffffffffffffffffffffffffffffffffffffffff16633915ffaa6040518163ffffffff1660e01b815260040160206040518083038186803b1580156114ed57600080fd5b505afa158015611501573d6000803e3d6000fd5b505050506040513d601f19601f820116820180604052508101906115259190615608565b105b80156115d35750612710600260009054906101000a900473ffffffffffffffffffffffffffffffffffffffff1673ffffffffffffffffffffffffffffffffffffffff16638053fcbe6040518163ffffffff1660e01b815260040160206040518083038186803b15801561159957600080fd5b505afa1580156115ad573d6000803e3d6000fd5b505050506040513d601f19601f820116820180604052508101906115d19190615608565b105b6040518060400160405280600381526020017f434d3800000000000000000000000000000000000000000000000000000000008152509061164a576040517f08c379a000000000000000000000000000000000000000000000000000000000815260040161164191906157a1565b60405180910390fd5b50612710600260009054906101000a900473ffffffffffffffffffffffffffffffffffffffff1673ffffffffffffffffffffffffffffffffffffffff1663e1b4264c6040518163ffffffff1660e01b815260040160206040518083038186803b1580156116b657600080fd5b505afa1580156116ca573d6000803e3d6000fd5b505050506040513d601f19601f820116820180604052508101906116ee9190615608565b116040518060400160405280600381526020017f434d39000000000000000000000000000000000000000000000000000000000081525090611766576040517f08c379a000000000000000000000000000000000000000000000000000000000815260040161175d91906157a1565b60405180910390fd5b506118b8600260009054906101000a900473ffffffffffffffffffffffffffffffffffffffff1673ffffffffffffffffffffffffffffffffffffffff16633915ffaa6040518163ffffffff1660e01b815260040160206040518083038186803b1580156117d257600080fd5b505afa1580156117e6573d6000803e3d6000fd5b505050506040513d601f19601f8201168201806040525081019061180a9190615608565b600260009054906101000a900473ffffffffffffffffffffffffffffffffffffffff1673ffffffffffffffffffffffffffffffffffffffff16638053fcbe6040518163ffffffff1660e01b815260040160206040518083038186803b15801561187257600080fd5b505afa158015611886573d6000803e3d6000fd5b505050506040513d601f19601f820116820180604052508101906118aa9190615608565b61404990919063ffffffff16565b60056000600e60009054906101000a900473ffffffffffffffffffffffffffffffffffffffff1673ffffffffffffffffffffffffffffffffffffffff1673ffffffffffffffffffffffffffffffffffffffff168152602001908152602001600020819055506000600190505b600480549050811015611a915760056000600e60009054906101000a900473ffffffffffffffffffffffffffffffffffffffff1673ffffffffffffffffffffffffffffffffffffffff1673ffffffffffffffffffffffffffffffffffffffff1681526020019081526020016000205460056000600484815481106119a457fe5b9060005260206000200160009054906101000a900473ffffffffffffffffffffffffffffffffffffffff1673ffffffffffffffffffffffffffffffffffffffff1673ffffffffffffffffffffffffffffffffffffffff1681526020019081526020016000205411156040518060400160405280600381526020017f434643000000000000000000000000000000000000000000000000000000000081525090611a83576040517f08c379a0000000000000000000000000000000000000000000000000000000008152600401611a7a91906157a1565b60405180910390fd5b508080600101915050611924565b50611a9a6142c5565b565b60115481565b60086020528060005260406000206000915090505481565b601060009054906101000a900473ffffffffffffffffffffffffffffffffffffffff1681565b6000611af682600961445f90919063ffffffff16565b9050919050565b6000611b096009614479565b905090565b600260009054906101000a900473ffffffffffffffffffffffffffffffffffffffff1673ffffffffffffffffffffffffffffffffffffffff163373ffffffffffffffffffffffffffffffffffffffff16146040518060400160405280600381526020017f434633000000000000000000000000000000000000000000000000000000000081525090611bd6576040517f08c379a0000000000000000000000000000000000000000000000000000000008152600401611bcd91906157a1565b60405180910390fd5b50611be1828261448e565b5050565b600060019054906101000a900473ffffffffffffffffffffffffffffffffffffffff1673ffffffffffffffffffffffffffffffffffffffff16635f259aba336040518263ffffffff1660e01b8152600401808273ffffffffffffffffffffffffffffffffffffffff16815260200191505060206040518083038186803b158015611c6e57600080fd5b505afa158015611c82573d6000803e3d6000fd5b505050506040513d6020811015611c9857600080fd5b81019080805190602001909291905050506040518060400160405280600481526020017f41434c320000000000000000000000000000000000000000000000000000000081525090611d85576040517f08c379a00000000000000000000000000000000000000000000000000000000081526004018080602001828103825283818151815260200191508051906020019080838360005b83811015611d4a578082015181840152602081019050611d2f565b50505050905090810190601f168015611d775780820380516001836020036101000a031916815260200191505b509250505060405180910390fd5b50600073ffffffffffffffffffffffffffffffffffffffff168173ffffffffffffffffffffffffffffffffffffffff1614156040518060400160405280600281526020017f5a3000000000000000000000000000000000000000000000000000000000000081525090611e2e576040517f08c379a0000000000000000000000000000000000000000000000000000000008152600401611e2591906157a1565b60405180910390fd5b50611e438160096145e990919063ffffffff16565b6040518060400160405280600381526020017f434641000000000000000000000000000000000000000000000000000000000081525090611eba576040517f08c379a0000000000000000000000000000000000000000000000000000000008152600401611eb191906157a1565b60405180910390fd5b506000600b6000600c60008573ffffffffffffffffffffffffffffffffffffffff1673ffffffffffffffffffffffffffffffffffffffff16815260200190815260200160002060009054906101000a900473ffffffffffffffffffffffffffffffffffffffff1673ffffffffffffffffffffffffffffffffffffffff1673ffffffffffffffffffffffffffffffffffffffff16815260200190815260200160002060006101000a81548160ff0219169083151502179055506000600c60008373ffffffffffffffffffffffffffffffffffffffff1673ffffffffffffffffffffffffffffffffffffffff16815260200190815260200160002060006101000a81548173ffffffffffffffffffffffffffffffffffffffff021916908373ffffffffffffffffffffffffffffffffffffffff1602179055508073ffffffffffffffffffffffffffffffffffffffff167fab9f405bf0c19b97f65a7031634db41569cd2f0e0376a610a1e977f9ab22b58f60405160405180910390a250565b600f60009054906101000a900473ffffffffffffffffffffffffffffffffffffffff1681565b6000601360008473ffffffffffffffffffffffffffffffffffffffff1673ffffffffffffffffffffffffffffffffffffffff16815260200190815260200160002060008373ffffffffffffffffffffffffffffffffffffffff1673ffffffffffffffffffffffffffffffffffffffff16815260200190815260200160002060009054906101000a900460ff16905092915050565b60008060009054906101000a900460ff16905090565b6004818154811061211757600080fd5b906000526020600020016000915054906101000a900473ffffffffffffffffffffffffffffffffffffffff1681565b80601360008473ffffffffffffffffffffffffffffffffffffffff1673ffffffffffffffffffffffffffffffffffffffff16815260200190815260200160002060003373ffffffffffffffffffffffffffffffffffffffff1673ffffffffffffffffffffffffffffffffffffffff16815260200190815260200160002060006101000a81548160ff0219169083151502179055503373ffffffffffffffffffffffffffffffffffffffff168273ffffffffffffffffffffffffffffffffffffffff167f9b3258bc4904fd6426b99843e206c6c7cdb1fd0f040121c25b71dafbb3851ee083604051612237919061576b565b60405180910390a35050565b60146020528060005260406000206000915054906101000a900460ff1681565b600060019054906101000a900473ffffffffffffffffffffffffffffffffffffffff1673ffffffffffffffffffffffffffffffffffffffff16635f259aba336040518263ffffffff1660e01b8152600401808273ffffffffffffffffffffffffffffffffffffffff16815260200191505060206040518083038186803b1580156122ec57600080fd5b505afa158015612300573d6000803e3d6000fd5b505050506040513d602081101561231657600080fd5b81019080805190602001909291905050506040518060400160405280600481526020017f41434c320000000000000000000000000000000000000000000000000000000081525090612403576040517f08c379a00000000000000000000000000000000000000000000000000000000081526004018080602001828103825283818151815260200191508051906020019080838360005b838110156123c85780820151818401526020810190506123ad565b50505050905090810190601f1680156123f55780820380516001836020036101000a031916815260200191505b509250505060405180910390fd5b5061240e8282614619565b5050565b60056020528060005260406000206000915090505481565b600060019054906101000a900473ffffffffffffffffffffffffffffffffffffffff1673ffffffffffffffffffffffffffffffffffffffff16635f259aba336040518263ffffffff1660e01b8152600401808273ffffffffffffffffffffffffffffffffffffffff16815260200191505060206040518083038186803b1580156124b357600080fd5b505afa1580156124c7573d6000803e3d6000fd5b505050506040513d60208110156124dd57600080fd5b81019080805190602001909291905050506040518060400160405280600481526020017f41434c3200000000000000000000000000000000000000000000000000000000815250906125ca576040517f08c379a00000000000000000000000000000000000000000000000000000000081526004018080602001828103825283818151815260200191508051906020019080838360005b8381101561258f578082015181840152602081019050612574565b50505050905090810190601f1680156125bc5780820380516001836020036101000a031916815260200191505b509250505060405180910390fd5b50600073ffffffffffffffffffffffffffffffffffffffff168273ffffffffffffffffffffffffffffffffffffffff16141580156126355750600073ffffffffffffffffffffffffffffffffffffffff168173ffffffffffffffffffffffffffffffffffffffff1614155b6040518060400160405280600281526020017f5a30000000000000000000000000000000000000000000000000000000000000815250906126ac576040517f08c379a00000000000000000000000000000000000000000000000000000000081526004016126a391906157a1565b60405180910390fd5b5060001515600b60008373ffffffffffffffffffffffffffffffffffffffff1673ffffffffffffffffffffffffffffffffffffffff16815260200190815260200160002060009054906101000a900460ff161515146040518060400160405280600381526020017f434644000000000000000000000000000000000000000000000000000000000081525090612778576040517f08c379a000000000000000000000000000000000000000000000000000000000815260040161276f91906157a1565b60405180910390fd5b506000600b6000600c60008673ffffffffffffffffffffffffffffffffffffffff1673ffffffffffffffffffffffffffffffffffffffff16815260200190815260200160002060009054906101000a900473ffffffffffffffffffffffffffffffffffffffff1673ffffffffffffffffffffffffffffffffffffffff1673ffffffffffffffffffffffffffffffffffffffff16815260200190815260200160002060006101000a81548160ff0219169083151502179055506001600b60008373ffffffffffffffffffffffffffffffffffffffff1673ffffffffffffffffffffffffffffffffffffffff16815260200190815260200160002060006101000a81548160ff02191690831515021790555061289c82600961466c90919063ffffffff16565b5080600c60008473ffffffffffffffffffffffffffffffffffffffff1673ffffffffffffffffffffffffffffffffffffffff16815260200190815260200160002060006101000a81548173ffffffffffffffffffffffffffffffffffffffff021916908373ffffffffffffffffffffffffffffffffffffffff1602179055508073ffffffffffffffffffffffffffffffffffffffff168273ffffffffffffffffffffffffffffffffffffffff167f4bcbefaef68b99503d502f5a6abe7bca2b183ab8ac55457013c77d084ebd130560405160405180910390a35050565b61298281613fc0565b6040518060400160405280600381526020017f4346320000000000000000000000000000000000000000000000000000000000815250906129f9576040517f08c379a00000000000000000000000000000000000000000000000000000000081526004016129f091906157a1565b60405180910390fd5b5050565b600b60003373ffffffffffffffffffffffffffffffffffffffff1673ffffffffffffffffffffffffffffffffffffffff16815260200190815260200160002060009054906101000a900460ff166040518060400160405280600381526020017f434634000000000000000000000000000000000000000000000000000000000081525090612ac1576040517f08c379a0000000000000000000000000000000000000000000000000000000008152600401612ab891906157a1565b60405180910390fd5b5060008083518651148015612ad7575082518551145b6040518060400160405280600281526020017f435200000000000000000000000000000000000000000000000000000000000081525090612b4e576040517f08c379a0000000000000000000000000000000000000000000000000000000008152600401612b4591906157a1565b60405180910390fd5b5060005b8651811015612c7357612c64600d60009054906101000a900473ffffffffffffffffffffffffffffffffffffffff1673ffffffffffffffffffffffffffffffffffffffff1663b66102df898481518110612ba857fe5b6020026020010151888581518110612bbc57fe5b6020026020010151601060009054906101000a900473ffffffffffffffffffffffffffffffffffffffff166040518463ffffffff1660e01b8152600401612c05939291906157de565b60206040518083038186803b158015612c1d57600080fd5b505afa158015612c31573d6000803e3d6000fd5b505050506040513d601f19601f82011682018060405250810190612c559190615608565b8461469c90919063ffffffff16565b92508080600101915050612b52565b5060005b8551811015612db557612c9d88858381518110612c9057fe5b602002602001015161448e565b612da6600d60009054906101000a900473ffffffffffffffffffffffffffffffffffffffff1673ffffffffffffffffffffffffffffffffffffffff1663b66102df888481518110612cea57fe5b6020026020010151878581518110612cfe57fe5b6020026020010151601060009054906101000a900473ffffffffffffffffffffffffffffffffffffffff166040518463ffffffff1660e01b8152600401612d47939291906157de565b60206040518083038186803b158015612d5f57600080fd5b505afa158015612d73573d6000803e3d6000fd5b505050506040513d601f19601f82011682018060405250810190612d979190615608565b8361469c90919063ffffffff16565b91508080600101915050612c77565b50612dc1878383614724565b50505050505050565b600060019054906101000a900473ffffffffffffffffffffffffffffffffffffffff1673ffffffffffffffffffffffffffffffffffffffff16633a41ec64336040518263ffffffff1660e01b8152600401808273ffffffffffffffffffffffffffffffffffffffff16815260200191505060206040518083038186803b158015612e5357600080fd5b505afa158015612e67573d6000803e3d6000fd5b505050506040513d6020811015612e7d57600080fd5b81019080805190602001909291905050506040518060400160405280600481526020017f41434c310000000000000000000000000000000000000000000000000000000081525090612f6a576040517f08c379a00000000000000000000000000000000000000000000000000000000081526004018080602001828103825283818151815260200191508051906020019080838360005b83811015612f2f578082015181840152602081019050612f14565b50505050905090810190601f168015612f5c5780820380516001836020036101000a031916815260200191505b509250505060405180910390fd5b50612f736148c6565b565b6000806000600760008573ffffffffffffffffffffffffffffffffffffffff1673ffffffffffffffffffffffffffffffffffffffff16815260200190815260200160002054905060005b612fc7610909565b81101561301557806001901b925060008383161115613008576000612fec868361326b565b9350505050613004818661469c90919063ffffffff16565b9450505b8080600101915050612fbf565b5061302b6127108461415290919063ffffffff16565b92505050919050565b600060019054906101000a900473ffffffffffffffffffffffffffffffffffffffff1673ffffffffffffffffffffffffffffffffffffffff16635f259aba336040518263ffffffff1660e01b8152600401808273ffffffffffffffffffffffffffffffffffffffff16815260200191505060206040518083038186803b1580156130bd57600080fd5b505afa1580156130d1573d6000803e3d6000fd5b505050506040513d60208110156130e757600080fd5b81019080805190602001909291905050506040518060400160405280600481526020017f41434c3200000000000000000000000000000000000000000000000000000000815250906131d4576040517f08c379a00000000000000000000000000000000000000000000000000000000081526004018080602001828103825283818151815260200191508051906020019080838360005b8381101561319957808201518184015260208101905061317e565b50505050905090810190601f1680156131c65780820380516001836020036101000a031916815260200191505b509250505060405180910390fd5b506131df82826149b1565b5050565b806131ed83613b7f565b10156040518060400160405280600381526020017f434d35000000000000000000000000000000000000000000000000000000000081525090613266576040517f08c379a000000000000000000000000000000000000000000000000000000000815260040161325d91906157a1565b60405180910390fd5b505050565b6000806000806004858154811061327e57fe5b9060005260206000200160009054906101000a900473ffffffffffffffffffffffffffffffffffffffff1693508373ffffffffffffffffffffffffffffffffffffffff166370a08231876040518263ffffffff1660e01b81526004016132e491906156e2565b60206040518083038186803b1580156132fc57600080fd5b505afa158015613310573d6000803e3d6000fd5b505050506040513d601f19601f820116820180604052508101906133349190615608565b9250600183111561346757600d60009054906101000a900473ffffffffffffffffffffffffffffffffffffffff1673ffffffffffffffffffffffffffffffffffffffff1663b66102df8486600e60009054906101000a900473ffffffffffffffffffffffffffffffffffffffff166040518463ffffffff1660e01b81526004016133c0939291906157de565b60206040518083038186803b1580156133d857600080fd5b505afa1580156133ec573d6000803e3d6000fd5b505050506040513d601f19601f820116820180604052508101906134109190615608565b9150613464600560008673ffffffffffffffffffffffffffffffffffffffff1673ffffffffffffffffffffffffffffffffffffffff16815260200190815260200160002054836140cc90919063ffffffff16565b90505b92959194509250565b60036020528060005260406000206000915054906101000a900460ff1681565b60006134a7836127106140cc90919063ffffffff16565b905060005b6134c060018461404990919063ffffffff16565b8110156134fd576134ee6127106134e086856140cc90919063ffffffff16565b61415290919063ffffffff16565b915080806001019150506134ac565b506135136127108261415290919063ffffffff16565b905092915050565b60076020528060005260406000206000915090505481565b600260009054906101000a900473ffffffffffffffffffffffffffffffffffffffff1681565b6000806000600760008573ffffffffffffffffffffffffffffffffffffffff1673ffffffffffffffffffffffffffffffffffffffff16815260200190815260200160002054905060005b6135ab610909565b8110156135f957806001901b9250600083831611156135ec5760006135d0868361326b565b50925050506135e8818661469c90919063ffffffff16565b9450505b80806001019150506135a3565b505050919050565b600060019054906101000a900473ffffffffffffffffffffffffffffffffffffffff1673ffffffffffffffffffffffffffffffffffffffff16635f259aba336040518263ffffffff1660e01b8152600401808273ffffffffffffffffffffffffffffffffffffffff16815260200191505060206040518083038186803b15801561368a57600080fd5b505afa15801561369e573d6000803e3d6000fd5b505050506040513d60208110156136b457600080fd5b81019080805190602001909291905050506040518060400160405280600481526020017f41434c3200000000000000000000000000000000000000000000000000000000815250906137a1576040517f08c379a00000000000000000000000000000000000000000000000000000000081526004018080602001828103825283818151815260200191508051906020019080838360005b8381101561376657808201518184015260208101905061374b565b50505050905090810190601f1680156137935780820380516001836020036101000a031916815260200191505b509250505060405180910390fd5b50600073ffffffffffffffffffffffffffffffffffffffff168173ffffffffffffffffffffffffffffffffffffffff1614156040518060400160405280600281526020017f5a300000000000000000000000000000000000000000000000000000000000008152509061384a576040517f08c379a000000000000000000000000000000000000000000000000000000000815260040161384191906157a1565b60405180910390fd5b50600073ffffffffffffffffffffffffffffffffffffffff16600260009054906101000a900473ffffffffffffffffffffffffffffffffffffffff1673ffffffffffffffffffffffffffffffffffffffff16146040518060400160405280600381526020017f434647000000000000000000000000000000000000000000000000000000000081525090613914576040517f08c379a000000000000000000000000000000000000000000000000000000000815260040161390b91906157a1565b60405180910390fd5b5080600260006101000a81548173ffffffffffffffffffffffffffffffffffffffff021916908373ffffffffffffffffffffffffffffffffffffffff1602179055508073ffffffffffffffffffffffffffffffffffffffff1663570a7af26040518163ffffffff1660e01b815260040160206040518083038186803b15801561399c57600080fd5b505afa1580156139b0573d6000803e3d6000fd5b505050506040513d601f19601f820116820180604052508101906139d491906153b4565b600f60006101000a81548173ffffffffffffffffffffffffffffffffffffffff021916908373ffffffffffffffffffffffffffffffffffffffff160217905550600e60009054906101000a900473ffffffffffffffffffffffffffffffffffffffff1673ffffffffffffffffffffffffffffffffffffffff16600f60009054906101000a900473ffffffffffffffffffffffffffffffffffffffff1673ffffffffffffffffffffffffffffffffffffffff16632495a5996040518163ffffffff1660e01b815260040160206040518083038186803b158015613ab557600080fd5b505afa158015613ac9573d6000803e3d6000fd5b505050506040513d601f19601f82011682018060405250810190613aed91906153b4565b73ffffffffffffffffffffffffffffffffffffffff16146040518060400160405280600381526020017f434630000000000000000000000000000000000000000000000000000000000081525090613b7b576040517f08c379a0000000000000000000000000000000000000000000000000000000008152600401613b7291906157a1565b60405180910390fd5b5050565b6000613bb8613b8d83610dce565b613baa612710613b9c86612f75565b6140cc90919063ffffffff16565b61415290919063ffffffff16565b9050919050565b600b60003373ffffffffffffffffffffffffffffffffffffffff1673ffffffffffffffffffffffffffffffffffffffff16815260200190815260200160002060009054906101000a900460ff166040518060400160405280600381526020017f434634000000000000000000000000000000000000000000000000000000000081525090613c83576040517f08c379a0000000000000000000000000000000000000000000000000000000008152600401613c7a91906157a1565b60405180910390fd5b50613c8e858461448e565b6000600d60009054906101000a900473ffffffffffffffffffffffffffffffffffffffff1673ffffffffffffffffffffffffffffffffffffffff1663b66102df8487601060009054906101000a900473ffffffffffffffffffffffffffffffffffffffff166040518463ffffffff1660e01b8152600401613d11939291906157de565b60206040518083038186803b158015613d2957600080fd5b505afa158015613d3d573d6000803e3d6000fd5b505050506040513d601f19601f82011682018060405250810190613d619190615608565b90506000600d60009054906101000a900473ffffffffffffffffffffffffffffffffffffffff1673ffffffffffffffffffffffffffffffffffffffff1663b66102df8487601060009054906101000a900473ffffffffffffffffffffffffffffffffffffffff166040518463ffffffff1660e01b8152600401613de6939291906157de565b60206040518083038186803b158015613dfe57600080fd5b505afa158015613e12573d6000803e3d6000fd5b505050506040513d601f19601f82011682018060405250810190613e369190615608565b9050613e43878383614724565b50505050505050565b600260009054906101000a900473ffffffffffffffffffffffffffffffffffffffff1673ffffffffffffffffffffffffffffffffffffffff163373ffffffffffffffffffffffffffffffffffffffff16146040518060400160405280600381526020017f434633000000000000000000000000000000000000000000000000000000000081525090613f14576040517f08c379a0000000000000000000000000000000000000000000000000000000008152600401613f0b91906157a1565b60405180910390fd5b506001600760008373ffffffffffffffffffffffffffffffffffffffff1673ffffffffffffffffffffffffffffffffffffffff168152602001908152602001600020819055506001600860008373ffffffffffffffffffffffffffffffffffffffff1673ffffffffffffffffffffffffffffffffffffffff1681526020019081526020016000208190555050565b60125481565b60066020528060005260406000206000915090505481565b6000600360008373ffffffffffffffffffffffffffffffffffffffff1673ffffffffffffffffffffffffffffffffffffffff16815260200190815260200160002060009054906101000a900460ff169050919050565b600c6020528060005260406000206000915054906101000a900473ffffffffffffffffffffffffffffffffffffffff1681565b6000828211156140c1576040517f08c379a000000000000000000000000000000000000000000000000000000000815260040180806020018281038252601e8152602001807f536166654d6174683a207375627472616374696f6e206f766572666c6f77000081525060200191505060405180910390fd5b818303905092915050565b6000808314156140df576000905061414c565b60008284029050828482816140f057fe5b0414614147576040517f08c379a00000000000000000000000000000000000000000000000000000000081526004018080602001828103825260218152602001806159fd6021913960400191505060405180910390fd5b809150505b92915050565b60008082116141c9576040517f08c379a000000000000000000000000000000000000000000000000000000000815260040180806020018281038252601a8152602001807f536166654d6174683a206469766973696f6e206279207a65726f00000000000081525060200191505060405180910390fd5b8183816141d257fe5b04905092915050565b6141e36120f1565b614255576040517f08c379a00000000000000000000000000000000000000000000000000000000081526004018080602001828103825260148152602001807f5061757361626c653a206e6f742070617573656400000000000000000000000081525060200191505060405180910390fd5b60008060006101000a81548160ff0219169083151502179055507f5db9ee0a495bf2e6ff9c91a7834c1ba4fdd244a5e8aa4e537bd38aeae4b073aa614298614fdf565b604051808273ffffffffffffffffffffffffffffffffffffffff16815260200191505060405180910390a1565b600073ffffffffffffffffffffffffffffffffffffffff16600260009054906101000a900473ffffffffffffffffffffffffffffffffffffffff1673ffffffffffffffffffffffffffffffffffffffff161461445d57600061433f61432e601154601254613490565b61271061404990919063ffffffff16565b9050600260009054906101000a900473ffffffffffffffffffffffffffffffffffffffff1673ffffffffffffffffffffffffffffffffffffffff16633915ffaa6040518163ffffffff1660e01b815260040160206040518083038186803b1580156143a957600080fd5b505afa1580156143bd573d6000803e3d6000fd5b505050506040513d601f19601f820116820180604052508101906143e19190615608565b81106040518060400160405280600381526020017f43464200000000000000000000000000000000000000000000000000000000008152509061445a576040517f08c379a000000000000000000000000000000000000000000000000000000000815260040161445191906157a1565b60405180910390fd5b50505b565b600061446e8360000183614fe7565b60001c905092915050565b60006144878260000161506a565b9050919050565b61449781612979565b6000600660008373ffffffffffffffffffffffffffffffffffffffff1673ffffffffffffffffffffffffffffffffffffffff16815260200190815260200160002054600760008573ffffffffffffffffffffffffffffffffffffffff1673ffffffffffffffffffffffffffffffffffffffff168152602001908152602001600020541614156145e557600660008273ffffffffffffffffffffffffffffffffffffffff1673ffffffffffffffffffffffffffffffffffffffff16815260200190815260200160002054600760008473ffffffffffffffffffffffffffffffffffffffff1673ffffffffffffffffffffffffffffffffffffffff1681526020019081526020016000205417600760008473ffffffffffffffffffffffffffffffffffffffff1673ffffffffffffffffffffffffffffffffffffffff168152602001908152602001600020819055505b5050565b6000614611836000018373ffffffffffffffffffffffffffffffffffffffff1660001b61507b565b905092915050565b816011819055508060128190555061462f6142c5565b7f727652fff0946c19c233fd3eab5fc03db9e9fdd907e902d9136c2a9cac47101c8282604051614660929190615815565b60405180910390a15050565b6000614694836000018373ffffffffffffffffffffffffffffffffffffffff1660001b615163565b905092915050565b60008082840190508381101561471a576040517f08c379a000000000000000000000000000000000000000000000000000000000815260040180806020018281038252601b8152602001807f536166654d6174683a206164646974696f6e206f766572666c6f77000000000081525060200191505060405180910390fd5b8091505092915050565b614739601154836140cc90919063ffffffff16565b61474e612710836140cc90919063ffffffff16565b11801561479c5750601254600860008573ffffffffffffffffffffffffffffffffffffffff1673ffffffffffffffffffffffffffffffffffffffff1681526020019081526020016000205411155b156147f557600860008473ffffffffffffffffffffffffffffffffffffffff1673ffffffffffffffffffffffffffffffffffffffff168152602001908152602001600020600081548092919060010191905055506148c1565b61271061480184613b7f565b10156040518060400160405280600381526020017f43463500000000000000000000000000000000000000000000000000000000008152509061487a576040517f08c379a000000000000000000000000000000000000000000000000000000000815260040161487191906157a1565b60405180910390fd5b506001600860008573ffffffffffffffffffffffffffffffffffffffff1673ffffffffffffffffffffffffffffffffffffffff168152602001908152602001600020819055505b505050565b6148ce6120f1565b15614941576040517f08c379a00000000000000000000000000000000000000000000000000000000081526004018080602001828103825260108152602001807f5061757361626c653a207061757365640000000000000000000000000000000081525060200191505060405180910390fd5b60016000806101000a81548160ff0219169083151502179055507f62e78cea01bee320cd4e420270b5ea74000d11b0c9f74754ebdbfc544b05a258614984614fdf565b604051808273ffffffffffffffffffffffffffffffffffffffff16815260200191505060405180910390a1565b600073ffffffffffffffffffffffffffffffffffffffff168273ffffffffffffffffffffffffffffffffffffffff1614156040518060400160405280600281526020017f5a3000000000000000000000000000000000000000000000000000000000000081525090614a59576040517f08c379a0000000000000000000000000000000000000000000000000000000008152600401614a5091906157a1565b60405180910390fd5b50600081118015614acb575060056000600e60009054906101000a900473ffffffffffffffffffffffffffffffffffffffff1673ffffffffffffffffffffffffffffffffffffffff1673ffffffffffffffffffffffffffffffffffffffff168152602001908152602001600020548111155b6040518060400160405280600381526020017f434631000000000000000000000000000000000000000000000000000000000081525090614b42576040517f08c379a0000000000000000000000000000000000000000000000000000000008152600401614b3991906157a1565b60405180910390fd5b506000600660008473ffffffffffffffffffffffffffffffffffffffff1673ffffffffffffffffffffffffffffffffffffffff168152602001908152602001600020541180614b975750610100600480549050105b6040518060400160405280600381526020017f434636000000000000000000000000000000000000000000000000000000000081525090614c0e576040517f08c379a0000000000000000000000000000000000000000000000000000000008152600401614c0591906157a1565b60405180910390fd5b5060008273ffffffffffffffffffffffffffffffffffffffff166370a08231306040518263ffffffff1660e01b8152600401614c4a91906156e2565b60206040518083038186803b158015614c6257600080fd5b505afa158015614c76573d6000803e3d6000fd5b505050506040513d601f19601f82011682018060405250810190614c9a9190615608565b1015614ca557600080fd5b6000600d60009054906101000a900473ffffffffffffffffffffffffffffffffffffffff1673ffffffffffffffffffffffffffffffffffffffff1663743b908684600e60009054906101000a900473ffffffffffffffffffffffffffffffffffffffff166040518363ffffffff1660e01b8152600401614d269291906156fd565b60206040518083038186803b158015614d3e57600080fd5b505afa158015614d52573d6000803e3d6000fd5b505050506040513d601f19601f82011682018060405250810190614d769190615608565b116040518060400160405280600381526020017f434645000000000000000000000000000000000000000000000000000000000081525090614dee576040517f08c379a0000000000000000000000000000000000000000000000000000000008152600401614de591906157a1565b60405180910390fd5b50600360008373ffffffffffffffffffffffffffffffffffffffff1673ffffffffffffffffffffffffffffffffffffffff16815260200190815260200160002060009054906101000a900460ff16614f49576001600360008473ffffffffffffffffffffffffffffffffffffffff1673ffffffffffffffffffffffffffffffffffffffff16815260200190815260200160002060006101000a81548160ff0219169083151502179055506004805490506001901b600660008473ffffffffffffffffffffffffffffffffffffffff1673ffffffffffffffffffffffffffffffffffffffff168152602001908152602001600020819055506004829080600181540180825580915050600190039060005260206000200160009091909190916101000a81548173ffffffffffffffffffffffffffffffffffffffff021916908373ffffffffffffffffffffffffffffffffffffffff1602179055505b80600560008473ffffffffffffffffffffffffffffffffffffffff1673ffffffffffffffffffffffffffffffffffffffff168152602001908152602001600020819055508173ffffffffffffffffffffffffffffffffffffffff167fa52fb6bfa514a4ddcb31de40a5f6c20d767db1f921a8b7747973d93dc5da7a0282604051614fd391906157c3565b60405180910390a25050565b600033905090565b600081836000018054905011615048576040517f08c379a00000000000000000000000000000000000000000000000000000000081526004018080602001828103825260228152602001806159db6022913960400191505060405180910390fd5b82600001828154811061505757fe5b9060005260206000200154905092915050565b600081600001805490509050919050565b6000808360010160008481526020019081526020016000205490506000811461515757600060018203905060006001866000018054905003905060008660000182815481106150c657fe5b90600052602060002001549050808760000184815481106150e357fe5b906000526020600020018190555060018301876001016000838152602001908152602001600020819055508660000180548061511b57fe5b6001900381819060005260206000200160009055905586600101600087815260200190815260200160002060009055600194505050505061515d565b60009150505b92915050565b600061516f83836151d3565b6151c85782600001829080600181540180825580915050600190039060005260206000200160009091909190915055826000018054905083600101600084815260200190815260200160002081905550600190506151cd565b600090505b92915050565b600080836001016000848152602001908152602001600020541415905092915050565b60006152096152048461586f565b61583e565b9050808382526020820190508285602086028201111561522857600080fd5b60005b85811015615258578161523e88826152ce565b84526020840193506020830192505060018101905061522b565b5050509392505050565b60006152756152708461589b565b61583e565b9050808382526020820190508285602086028201111561529457600080fd5b60005b858110156152c457816152aa8882615361565b845260208401935060208301925050600181019050615297565b5050509392505050565b6000813590506152dd81615995565b92915050565b6000815190506152f281615995565b92915050565b600082601f83011261530957600080fd5b81356153198482602086016151f6565b91505092915050565b600082601f83011261533357600080fd5b8135615343848260208601615262565b91505092915050565b60008135905061535b816159ac565b92915050565b600081359050615370816159c3565b92915050565b600081519050615385816159c3565b92915050565b60006020828403121561539d57600080fd5b60006153ab848285016152ce565b91505092915050565b6000602082840312156153c657600080fd5b60006153d4848285016152e3565b91505092915050565b600080604083850312156153f057600080fd5b60006153fe858286016152ce565b925050602061540f858286016152ce565b9150509250929050565b600080600080600060a0868803121561543157600080fd5b600061543f888289016152ce565b9550506020615450888289016152ce565b9450506040615461888289016152ce565b935050606061547288828901615361565b925050608061548388828901615361565b9150509295509295909350565b600080600080600060a086880312156154a857600080fd5b60006154b6888289016152ce565b955050602086013567ffffffffffffffff8111156154d357600080fd5b6154df88828901615322565b945050604086013567ffffffffffffffff8111156154fc57600080fd5b61550888828901615322565b935050606086013567ffffffffffffffff81111561552557600080fd5b615531888289016152f8565b925050608086013567ffffffffffffffff81111561554e57600080fd5b61555a888289016152f8565b9150509295509295909350565b6000806040838503121561557a57600080fd5b6000615588858286016152ce565b92505060206155998582860161534c565b9150509250929050565b600080604083850312156155b657600080fd5b60006155c4858286016152ce565b92505060206155d585828601615361565b9150509250929050565b6000602082840312156155f157600080fd5b60006155ff84828501615361565b91505092915050565b60006020828403121561561a57600080fd5b600061562884828501615376565b91505092915050565b6000806040838503121561564457600080fd5b600061565285828601615361565b925050602061566385828601615361565b9150509250929050565b615676816158e3565b82525050565b615685816158f5565b82525050565b6156948161592b565b82525050565b60006156a5826158c7565b6156af81856158d2565b93506156bf81856020860161594f565b6156c881615984565b840191505092915050565b6156dc81615921565b82525050565b60006020820190506156f7600083018461566d565b92915050565b6000604082019050615712600083018561566d565b61571f602083018461566d565b9392505050565b600060808201905061573b600083018761566d565b61574860208301866156d3565b61575560408301856156d3565b61576260608301846156d3565b95945050505050565b6000602082019050615780600083018461567c565b92915050565b600060208201905061579b600083018461568b565b92915050565b600060208201905081810360008301526157bb818461569a565b905092915050565b60006020820190506157d860008301846156d3565b92915050565b60006060820190506157f360008301866156d3565b615800602083018561566d565b61580d604083018461566d565b949350505050565b600060408201905061582a60008301856156d3565b61583760208301846156d3565b9392505050565b6000604051905081810181811067ffffffffffffffff8211171561586557615864615982565b5b8060405250919050565b600067ffffffffffffffff82111561588a57615889615982565b5b602082029050602081019050919050565b600067ffffffffffffffff8211156158b6576158b5615982565b5b602082029050602081019050919050565b600081519050919050565b600082825260208201905092915050565b60006158ee82615901565b9050919050565b60008115159050919050565b600073ffffffffffffffffffffffffffffffffffffffff82169050919050565b6000819050919050565b60006159368261593d565b9050919050565b600061594882615901565b9050919050565b60005b8381101561596d578082015181840152602081019050615952565b8381111561597c576000848401525b50505050565bfe5b6000601f19601f8301169050919050565b61599e816158e3565b81146159a957600080fd5b50565b6159b5816158f5565b81146159c057600080fd5b50565b6159cc81615921565b81146159d757600080fd5b5056fe456e756d657261626c655365743a20696e646578206f7574206f6620626f756e6473536166654d6174683a206d756c7469706c69636174696f6e206f766572666c6f77a2646970667358221220a7026a1fffe188502f720f363d5d1cadf85ba583ca2d401f61c5ae40ed5fa7e464736f6c63430007060033536166654d6174683a206d756c7469706c69636174696f6e206f766572666c6f77",
  "linkReferences": {},
  "deployedLinkReferences": {}
}