{
  "_format": "hh-sol-artifact-1",
  "contractName": "AccountFactory",
  "sourceName": "contracts/core/AccountFactory.sol",
  "abi": [
    {
      "inputs": [
        {
          "internalType": "address",
          "name": "addressProvider",
          "type": "address"
        }
      ],
      "stateMutability": "nonpayable",
      "type": "constructor"
    },
    {
      "anonymous": false,
      "inputs": [
        {
          "indexed": true,
          "internalType": "address",
          "name": "miner",
          "type": "address"
        }
      ],
      "name": "AccountMinerChanged",
      "type": "event"
    },
    {
      "anonymous": false,
      "inputs": [
        {
          "indexed": true,
          "internalType": "address",
          "name": "account",
          "type": "address"
        },
        {
          "indexed": true,
          "internalType": "address",
          "name": "creditManager",
          "type": "address"
        }
      ],
      "name": "InitializeCreditAccount",
      "type": "event"
    },
    {
      "anonymous": false,
      "inputs": [
        {
          "indexed": true,
          "internalType": "address",
          "name": "account",
          "type": "address"
        }
      ],
      "name": "NewCreditAccount",
      "type": "event"
    },
    {
      "anonymous": false,
      "inputs": [
        {
          "indexed": false,
          "internalType": "address",
          "name": "account",
          "type": "address"
        }
      ],
      "name": "Paused",
      "type": "event"
    },
    {
      "anonymous": false,
      "inputs": [
        {
          "indexed": true,
          "internalType": "address",
          "name": "account",
          "type": "address"
        }
      ],
      "name": "ReturnCreditAccount",
      "type": "event"
    },
    {
      "anonymous": false,
      "inputs": [
        {
          "indexed": true,
          "internalType": "address",
          "name": "creditAccount",
          "type": "address"
        },
        {
          "indexed": true,
          "internalType": "address",
          "name": "to",
          "type": "address"
        }
      ],
      "name": "TakeForever",
      "type": "event"
    },
    {
      "anonymous": false,
      "inputs": [
        {
          "indexed": false,
          "internalType": "address",
          "name": "account",
          "type": "address"
        }
      ],
      "name": "Unpaused",
      "type": "event"
    },
    {
      "inputs": [],
      "name": "_contractsRegister",
      "outputs": [
        {
          "internalType": "contract ContractsRegister",
          "name": "",
          "type": "address"
        }
      ],
      "stateMutability": "view",
      "type": "function"
    },
    {
      "inputs": [],
      "name": "addCreditAccount",
      "outputs": [],
      "stateMutability": "nonpayable",
      "type": "function"
    },
    {
      "inputs": [
        {
          "components": [
            {
              "internalType": "address",
              "name": "token",
              "type": "address"
            },
            {
              "internalType": "address",
              "name": "swapContract",
              "type": "address"
            }
          ],
          "internalType": "struct DataTypes.MiningApproval[]",
          "name": "_miningApprovals",
          "type": "tuple[]"
        }
      ],
      "name": "addMiningApprovals",
      "outputs": [],
      "stateMutability": "nonpayable",
      "type": "function"
    },
    {
      "inputs": [
        {
          "internalType": "address",
          "name": "account",
          "type": "address"
        },
        {
          "internalType": "address",
          "name": "token",
          "type": "address"
        },
        {
          "internalType": "address",
          "name": "targetContract",
          "type": "address"
        }
      ],
      "name": "cancelAllowance",
      "outputs": [],
      "stateMutability": "nonpayable",
      "type": "function"
    },
    {
      "inputs": [],
      "name": "countCreditAccounts",
      "outputs": [
        {
          "internalType": "uint256",
          "name": "",
          "type": "uint256"
        }
      ],
      "stateMutability": "view",
      "type": "function"
    },
    {
      "inputs": [],
      "name": "countCreditAccountsInStock",
      "outputs": [
        {
          "internalType": "uint256",
          "name": "",
          "type": "uint256"
        }
      ],
      "stateMutability": "view",
      "type": "function"
    },
    {
      "inputs": [
        {
          "internalType": "uint256",
          "name": "id",
          "type": "uint256"
        }
      ],
      "name": "creditAccounts",
      "outputs": [
        {
          "internalType": "address",
          "name": "",
          "type": "address"
        }
      ],
      "stateMutability": "view",
      "type": "function"
    },
    {
      "inputs": [],
      "name": "finishMining",
      "outputs": [],
      "stateMutability": "nonpayable",
      "type": "function"
    },
    {
      "inputs": [
        {
          "internalType": "address",
          "name": "creditAccount",
          "type": "address"
        }
      ],
      "name": "getNext",
      "outputs": [
        {
          "internalType": "address",
          "name": "",
          "type": "address"
        }
      ],
      "stateMutability": "view",
      "type": "function"
    },
    {
      "inputs": [],
      "name": "head",
      "outputs": [
        {
          "internalType": "address",
          "name": "",
          "type": "address"
        }
      ],
      "stateMutability": "view",
      "type": "function"
    },
    {
      "inputs": [
        {
          "internalType": "address",
          "name": "addr",
          "type": "address"
        }
      ],
      "name": "isCreditAccount",
      "outputs": [
        {
          "internalType": "bool",
          "name": "",
          "type": "bool"
        }
      ],
      "stateMutability": "view",
      "type": "function"
    },
    {
      "inputs": [],
      "name": "isMiningFinished",
      "outputs": [
        {
          "internalType": "bool",
          "name": "",
          "type": "bool"
        }
      ],
      "stateMutability": "view",
      "type": "function"
    },
    {
      "inputs": [],
      "name": "masterCreditAccount",
      "outputs": [
        {
          "internalType": "address",
          "name": "",
          "type": "address"
        }
      ],
      "stateMutability": "view",
      "type": "function"
    },
    {
      "inputs": [],
      "name": "mineCreditAccount",
      "outputs": [],
      "stateMutability": "nonpayable",
      "type": "function"
    },
    {
      "inputs": [
        {
          "internalType": "uint256",
          "name": "",
          "type": "uint256"
        }
      ],
      "name": "miningApprovals",
      "outputs": [
        {
          "internalType": "address",
          "name": "token",
          "type": "address"
        },
        {
          "internalType": "address",
          "name": "swapContract",
          "type": "address"
        }
      ],
      "stateMutability": "view",
      "type": "function"
    },
    {
      "inputs": [],
      "name": "pause",
      "outputs": [],
      "stateMutability": "nonpayable",
      "type": "function"
    },
    {
      "inputs": [],
      "name": "paused",
      "outputs": [
        {
          "internalType": "bool",
          "name": "",
          "type": "bool"
        }
      ],
      "stateMutability": "view",
      "type": "function"
    },
    {
      "inputs": [
        {
          "internalType": "address",
          "name": "usedAccount",
          "type": "address"
        }
      ],
      "name": "returnCreditAccount",
      "outputs": [],
      "stateMutability": "nonpayable",
      "type": "function"
    },
    {
      "inputs": [],
      "name": "tail",
      "outputs": [
        {
          "internalType": "address",
          "name": "",
          "type": "address"
        }
      ],
      "stateMutability": "view",
      "type": "function"
    },
    {
      "inputs": [
        {
          "internalType": "uint256",
          "name": "_borrowedAmount",
          "type": "uint256"
        },
        {
          "internalType": "uint256",
          "name": "_cumulativeIndexAtOpen",
          "type": "uint256"
        }
      ],
      "name": "takeCreditAccount",
      "outputs": [
        {
          "internalType": "address",
          "name": "",
          "type": "address"
        }
      ],
      "stateMutability": "nonpayable",
      "type": "function"
    },
    {
      "inputs": [
        {
          "internalType": "address",
          "name": "prev",
          "type": "address"
        },
        {
          "internalType": "address",
          "name": "creditAccount",
          "type": "address"
        },
        {
          "internalType": "address",
          "name": "to",
          "type": "address"
        }
      ],
      "name": "takeOut",
      "outputs": [],
      "stateMutability": "nonpayable",
      "type": "function"
    },
    {
      "inputs": [],
      "name": "unpause",
      "outputs": [],
      "stateMutability": "nonpayable",
      "type": "function"
    }
  ],
  "bytecode": "0x60806040523480156200001157600080fd5b50604051620052d6380380620052d683398181016040528101906200003791906200096b565b8060008060006101000a81548160ff021916908315150217905550600073ffffffffffffffffffffffffffffffffffffffff168173ffffffffffffffffffffffffffffffffffffffff1614156040518060400160405280600281526020017f5a300000000000000000000000000000000000000000000000000000000000008152509062000163576040517f08c379a00000000000000000000000000000000000000000000000000000000081526004018080602001828103825283818151815260200191508051906020019080838360005b83811015620001275780820151818401526020810190506200010a565b50505050905090810190601f168015620001555780820380516001836020036101000a031916815260200191505b509250505060405180910390fd5b508073ffffffffffffffffffffffffffffffffffffffff1663087376956040518163ffffffff1660e01b815260040160206040518083038186803b158015620001ab57600080fd5b505afa158015620001c0573d6000803e3d6000fd5b505050506040513d6020811015620001d757600080fd5b8101908080519060200190929190505050600060016101000a81548173ffffffffffffffffffffffffffffffffffffffff021916908373ffffffffffffffffffffffffffffffffffffffff1602179055505060018081905550600073ffffffffffffffffffffffffffffffffffffffff168173ffffffffffffffffffffffffffffffffffffffff1614156040518060400160405280600281526020017f5a3000000000000000000000000000000000000000000000000000000000000081525090620002db576040517f08c379a0000000000000000000000000000000000000000000000000000000008152600401620002d29190620009d8565b60405180910390fd5b508073ffffffffffffffffffffffffffffffffffffffff1663c513c9bb6040518163ffffffff1660e01b815260040160206040518083038186803b1580156200032357600080fd5b505afa15801562000338573d6000803e3d6000fd5b505050506040513d601f19601f820116820180604052508101906200035e91906200096b565b600960006101000a81548173ffffffffffffffffffffffffffffffffffffffff021916908373ffffffffffffffffffffffffffffffffffffffff160217905550604051620003ac9062000946565b604051809103906000f080158015620003c9573d6000803e3d6000fd5b50600560006101000a81548173ffffffffffffffffffffffffffffffffffffffff021916908373ffffffffffffffffffffffffffffffffffffffff160217905550600560009054906101000a900473ffffffffffffffffffffffffffffffffffffffff1673ffffffffffffffffffffffffffffffffffffffff16638129fc1c6040518163ffffffff1660e01b8152600401600060405180830381600087803b1580156200047557600080fd5b505af11580156200048a573d6000803e3d6000fd5b505050506200049e6200058760201b60201c565b600460009054906101000a900473ffffffffffffffffffffffffffffffffffffffff16600360006101000a81548173ffffffffffffffffffffffffffffffffffffffff021916908373ffffffffffffffffffffffffffffffffffffffff1602179055506000600260008073ffffffffffffffffffffffffffffffffffffffff1673ffffffffffffffffffffffffffffffffffffffff16815260200190815260200160002060006101000a81548173ffffffffffffffffffffffffffffffffffffffff021916908373ffffffffffffffffffffffffffffffffffffffff1602179055505062000aad565b6000620005c1600560009054906101000a900473ffffffffffffffffffffffffffffffffffffffff166200076860201b620025921760201c565b90508073ffffffffffffffffffffffffffffffffffffffff16638129fc1c6040518163ffffffff1660e01b8152600401600060405180830381600087803b1580156200060c57600080fd5b505af115801562000621573d6000803e3d6000fd5b505050508060026000600460009054906101000a900473ffffffffffffffffffffffffffffffffffffffff1673ffffffffffffffffffffffffffffffffffffffff1673ffffffffffffffffffffffffffffffffffffffff16815260200190815260200160002060006101000a81548173ffffffffffffffffffffffffffffffffffffffff021916908373ffffffffffffffffffffffffffffffffffffffff16021790555080600460006101000a81548173ffffffffffffffffffffffffffffffffffffffff021916908373ffffffffffffffffffffffffffffffffffffffff160217905550620007218160066200087160201b6200269a1790919060201c565b508073ffffffffffffffffffffffffffffffffffffffff167f9f69b6c10f6810213e055b0ba6bc0a4e2603f73c221aad77ea35da819cda7dc360405160405180910390a250565b60006040517f3d602d80600a3d3981f3363d3d373d3d3d363d7300000000000000000000000081528260601b60148201527f5af43d82803e903d91602b57fd5bf3000000000000000000000000000000000060288201526037816000f0915050600073ffffffffffffffffffffffffffffffffffffffff168173ffffffffffffffffffffffffffffffffffffffff1614156200086c576040517f08c379a00000000000000000000000000000000000000000000000000000000081526004018080602001828103825260168152602001807f455243313136373a20637265617465206661696c65640000000000000000000081525060200191505060405180910390fd5b919050565b6000620008a1836000018373ffffffffffffffffffffffffffffffffffffffff1660001b620008a960201b60201c565b905092915050565b6000620008bd83836200092360201b60201c565b620009185782600001829080600181540180825580915050600190039060005260206000200160009091909190915055826000018054905083600101600084815260200190815260200160002081905550600190506200091d565b600090505b92915050565b600080836001016000848152602001908152602001600020541415905092915050565b6116258062003cb183390190565b600081519050620009658162000a93565b92915050565b6000602082840312156200097e57600080fd5b60006200098e8482850162000954565b91505092915050565b6000620009a482620009fc565b620009b0818562000a07565b9350620009c281856020860162000a4c565b620009cd8162000a82565b840191505092915050565b60006020820190508181036000830152620009f4818462000997565b905092915050565b600081519050919050565b600082825260208201905092915050565b600062000a258262000a2c565b9050919050565b600073ffffffffffffffffffffffffffffffffffffffff82169050919050565b60005b8381101562000a6c57808201518184015260208101905062000a4f565b8381111562000a7c576000848401525b50505050565b6000601f19601f8301169050919050565b62000a9e8162000a18565b811462000aaa57600080fd5b50565b6131f48062000abd6000396000f3fe608060405234801561001057600080fd5b50600436106101425760003560e01c806388f64c54116100b8578063b014352f1161007c578063b014352f1461031a578063b193976314610324578063b60e851814610342578063d82ecc4814610360578063e3ba9ace14610390578063f23953ab146103c057610142565b806388f64c541461027557806389b77b3e146102935780638f7dcfa3146102af5780639c650789146102cd578063a904aab6146102fe57610142565b80633b9c48671161010a5780633b9c4867146101d95780633f4ba83a146101f55780635c975abb146101ff5780635da33c5b1461021d578063765e01591461023b5780638456cb591461026b57610142565b806313d8c8401461014757806321d184561461016557806323428dbd146101955780632932472f146101b35780633a1ed19a146101cf575b600080fd5b61014f6103ca565b60405161015c9190612eba565b60405180910390f35b61017f600480360381019061017a9190612ddc565b6103f0565b60405161018c9190612eba565b60405180910390f35b61019d610758565b6040516101aa9190612fbe565b60405180910390f35b6101cd60048036038101906101c89190612ccd565b61076b565b005b6101d7610eb7565b005b6101f360048036038101906101ee9190612d1c565b611075565b005b6101fd61152f565b005b6102076116da565b6040516102149190612fbe565b60405180910390f35b6102256116f0565b6040516102329190612eba565b60405180910390f35b61025560048036038101906102509190612ca4565b611716565b6040516102629190612eba565b60405180910390f35b61027361177f565b005b61027d61192a565b60405161028a9190612fd9565b60405180910390f35b6102ad60048036038101906102a89190612ca4565b611950565b005b6102b7611d1f565b6040516102c49190612eba565b60405180910390f35b6102e760048036038101906102e29190612d8a565b611d45565b6040516102f5929190612f27565b60405180910390f35b61031860048036038101906103139190612ccd565b611db9565b005b610322611fcc565b005b61032c6122a2565b6040516103399190613016565b60405180910390f35b61034a61237c565b6040516103579190613016565b60405180910390f35b61037a60048036038101906103759190612ca4565b61238d565b6040516103879190612fbe565b60405180910390f35b6103aa60048036038101906103a59190612d8a565b6123aa565b6040516103b79190612eba565b60405180910390f35b6103c86123c7565b005b600460009054906101000a900473ffffffffffffffffffffffffffffffffffffffff1681565b6000600960009054906101000a900473ffffffffffffffffffffffffffffffffffffffff1673ffffffffffffffffffffffffffffffffffffffff16636fbc6f6b336040518263ffffffff1660e01b815260040161044d9190612ed5565b60206040518083038186803b15801561046557600080fd5b505afa158015610479573d6000803e3d6000fd5b505050506040513d601f19601f8201168201806040525081019061049d9190612d61565b6040518060400160405280600281526020017f435000000000000000000000000000000000000000000000000000000000000081525090610514576040517f08c379a000000000000000000000000000000000000000000000000000000000815260040161050b9190612ff4565b60405180910390fd5b5061051d6126ca565b6000600360009054906101000a900473ffffffffffffffffffffffffffffffffffffffff16905060026000600360009054906101000a900473ffffffffffffffffffffffffffffffffffffffff1673ffffffffffffffffffffffffffffffffffffffff1673ffffffffffffffffffffffffffffffffffffffff16815260200190815260200160002060009054906101000a900473ffffffffffffffffffffffffffffffffffffffff16600360006101000a81548173ffffffffffffffffffffffffffffffffffffffff021916908373ffffffffffffffffffffffffffffffffffffffff1602179055506000600260008373ffffffffffffffffffffffffffffffffffffffff1673ffffffffffffffffffffffffffffffffffffffff16815260200190815260200160002060006101000a81548173ffffffffffffffffffffffffffffffffffffffff021916908373ffffffffffffffffffffffffffffffffffffffff1602179055508073ffffffffffffffffffffffffffffffffffffffff1663c75b5a713386866040518463ffffffff1660e01b81526004016106c293929190612ef0565b600060405180830381600087803b1580156106dc57600080fd5b505af11580156106f0573d6000803e3d6000fd5b505050503373ffffffffffffffffffffffffffffffffffffffff168173ffffffffffffffffffffffffffffffffffffffff167ff3ede7039176503a8ad1fe7cfaa29475a9dbe0cdcaf04ecf9a5c10570c47b10360405160405180910390a38091505092915050565b600960149054906101000a900460ff1681565b600060019054906101000a900473ffffffffffffffffffffffffffffffffffffffff1673ffffffffffffffffffffffffffffffffffffffff16635f259aba336040518263ffffffff1660e01b8152600401808273ffffffffffffffffffffffffffffffffffffffff16815260200191505060206040518083038186803b1580156107f457600080fd5b505afa158015610808573d6000803e3d6000fd5b505050506040513d602081101561081e57600080fd5b81019080805190602001909291905050506040518060400160405280600481526020017f41434c32000000000000000000000000000000000000000000000000000000008152509061090b576040517f08c379a00000000000000000000000000000000000000000000000000000000081526004018080602001828103825283818151815260200191508051906020019080838360005b838110156108d05780820151818401526020810190506108b5565b50505050905090810190601f1680156108fd5780820380516001836020036101000a031916815260200191505b509250505060405180910390fd5b506109146126ca565b8173ffffffffffffffffffffffffffffffffffffffff16600360009054906101000a900473ffffffffffffffffffffffffffffffffffffffff1673ffffffffffffffffffffffffffffffffffffffff161415610ad8576000600360009054906101000a900473ffffffffffffffffffffffffffffffffffffffff16905060026000600360009054906101000a900473ffffffffffffffffffffffffffffffffffffffff1673ffffffffffffffffffffffffffffffffffffffff1673ffffffffffffffffffffffffffffffffffffffff16815260200190815260200160002060009054906101000a900473ffffffffffffffffffffffffffffffffffffffff16600360006101000a81548173ffffffffffffffffffffffffffffffffffffffff021916908373ffffffffffffffffffffffffffffffffffffffff1602179055506000600260008373ffffffffffffffffffffffffffffffffffffffff1673ffffffffffffffffffffffffffffffffffffffff16815260200190815260200160002060006101000a81548173ffffffffffffffffffffffffffffffffffffffff021916908373ffffffffffffffffffffffffffffffffffffffff16021790555050610dd3565b8173ffffffffffffffffffffffffffffffffffffffff16600260008573ffffffffffffffffffffffffffffffffffffffff1673ffffffffffffffffffffffffffffffffffffffff16815260200190815260200160002060009054906101000a900473ffffffffffffffffffffffffffffffffffffffff1673ffffffffffffffffffffffffffffffffffffffff16146040518060400160405280600381526020017f414633000000000000000000000000000000000000000000000000000000000081525090610bdd576040517f08c379a0000000000000000000000000000000000000000000000000000000008152600401610bd49190612ff4565b60405180910390fd5b50600460009054906101000a900473ffffffffffffffffffffffffffffffffffffffff1673ffffffffffffffffffffffffffffffffffffffff168273ffffffffffffffffffffffffffffffffffffffff161415610c765782600460006101000a81548173ffffffffffffffffffffffffffffffffffffffff021916908373ffffffffffffffffffffffffffffffffffffffff1602179055505b600260008373ffffffffffffffffffffffffffffffffffffffff1673ffffffffffffffffffffffffffffffffffffffff16815260200190815260200160002060009054906101000a900473ffffffffffffffffffffffffffffffffffffffff16600260008573ffffffffffffffffffffffffffffffffffffffff1673ffffffffffffffffffffffffffffffffffffffff16815260200190815260200160002060006101000a81548173ffffffffffffffffffffffffffffffffffffffff021916908373ffffffffffffffffffffffffffffffffffffffff1602179055506000600260008473ffffffffffffffffffffffffffffffffffffffff1673ffffffffffffffffffffffffffffffffffffffff16815260200190815260200160002060006101000a81548173ffffffffffffffffffffffffffffffffffffffff021916908373ffffffffffffffffffffffffffffffffffffffff1602179055505b8173ffffffffffffffffffffffffffffffffffffffff1663c75b5a71826000806040518463ffffffff1660e01b8152600401610e1193929190612f50565b600060405180830381600087803b158015610e2b57600080fd5b505af1158015610e3f573d6000803e3d6000fd5b50505050610e5782600661278b90919063ffffffff16565b508073ffffffffffffffffffffffffffffffffffffffff168273ffffffffffffffffffffffffffffffffffffffff167f25e267469ba2ae82515be7b3d45df60bf8308343f0809e8cf7319058e2255ce660405160405180910390a3505050565b600060019054906101000a900473ffffffffffffffffffffffffffffffffffffffff1673ffffffffffffffffffffffffffffffffffffffff16635f259aba336040518263ffffffff1660e01b8152600401808273ffffffffffffffffffffffffffffffffffffffff16815260200191505060206040518083038186803b158015610f4057600080fd5b505afa158015610f54573d6000803e3d6000fd5b505050506040513d6020811015610f6a57600080fd5b81019080805190602001909291905050506040518060400160405280600481526020017f41434c320000000000000000000000000000000000000000000000000000000081525090611057576040517f08c379a00000000000000000000000000000000000000000000000000000000081526004018080602001828103825283818151815260200191508051906020019080838360005b8381101561101c578082015181840152602081019050611001565b50505050905090810190601f1680156110495780820380516001836020036101000a031916815260200191505b509250505060405180910390fd5b506001600960146101000a81548160ff021916908315150217905550565b600060019054906101000a900473ffffffffffffffffffffffffffffffffffffffff1673ffffffffffffffffffffffffffffffffffffffff16635f259aba336040518263ffffffff1660e01b8152600401808273ffffffffffffffffffffffffffffffffffffffff16815260200191505060206040518083038186803b1580156110fe57600080fd5b505afa158015611112573d6000803e3d6000fd5b505050506040513d602081101561112857600080fd5b81019080805190602001909291905050506040518060400160405280600481526020017f41434c320000000000000000000000000000000000000000000000000000000081525090611215576040517f08c379a00000000000000000000000000000000000000000000000000000000081526004018080602001828103825283818151815260200191508051906020019080838360005b838110156111da5780820151818401526020810190506111bf565b50505050905090810190601f1680156112075780820380516001836020036101000a031916815260200191505b509250505060405180910390fd5b50600960149054906101000a900460ff16156040518060400160405280600381526020017f41463200000000000000000000000000000000000000000000000000000000008152509061129e576040517f08c379a00000000000000000000000000000000000000000000000000000000081526004016112959190612ff4565b60405180910390fd5b5060005b8282905081101561152a57600073ffffffffffffffffffffffffffffffffffffffff168383838181106112d157fe5b90506040020160000160208101906112e99190612ca4565b73ffffffffffffffffffffffffffffffffffffffff161415801561135d5750600073ffffffffffffffffffffffffffffffffffffffff1683838381811061132c57fe5b90506040020160200160208101906113449190612ca4565b73ffffffffffffffffffffffffffffffffffffffff1614155b6040518060400160405280600281526020017f5a30000000000000000000000000000000000000000000000000000000000000815250906113d4576040517f08c379a00000000000000000000000000000000000000000000000000000000081526004016113cb9190612ff4565b60405180910390fd5b50600060405180604001604052808585858181106113ee57fe5b90506040020160000160208101906114069190612ca4565b73ffffffffffffffffffffffffffffffffffffffff16815260200185858581811061142d57fe5b90506040020160200160208101906114459190612ca4565b73ffffffffffffffffffffffffffffffffffffffff168152509050600881908060018154018082558091505060019003906000526020600020906002020160009091909190915060008201518160000160006101000a81548173ffffffffffffffffffffffffffffffffffffffff021916908373ffffffffffffffffffffffffffffffffffffffff16021790555060208201518160010160006101000a81548173ffffffffffffffffffffffffffffffffffffffff021916908373ffffffffffffffffffffffffffffffffffffffff16021790555050505080806001019150506112a2565b505050565b600060019054906101000a900473ffffffffffffffffffffffffffffffffffffffff1673ffffffffffffffffffffffffffffffffffffffff1663d4eb5db0336040518263ffffffff1660e01b8152600401808273ffffffffffffffffffffffffffffffffffffffff16815260200191505060206040518083038186803b1580156115b857600080fd5b505afa1580156115cc573d6000803e3d6000fd5b505050506040513d60208110156115e257600080fd5b81019080805190602001909291905050506040518060400160405280600481526020017f41434c3100000000000000000000000000000000000000000000000000000000815250906116cf576040517f08c379a00000000000000000000000000000000000000000000000000000000081526004018080602001828103825283818151815260200191508051906020019080838360005b83811015611694578082015181840152602081019050611679565b50505050905090810190601f1680156116c15780820380516001836020036101000a031916815260200191505b509250505060405180910390fd5b506116d86127bb565b565b60008060009054906101000a900460ff16905090565b600560009054906101000a900473ffffffffffffffffffffffffffffffffffffffff1681565b6000600260008373ffffffffffffffffffffffffffffffffffffffff1673ffffffffffffffffffffffffffffffffffffffff16815260200190815260200160002060009054906101000a900473ffffffffffffffffffffffffffffffffffffffff169050919050565b600060019054906101000a900473ffffffffffffffffffffffffffffffffffffffff1673ffffffffffffffffffffffffffffffffffffffff16633a41ec64336040518263ffffffff1660e01b8152600401808273ffffffffffffffffffffffffffffffffffffffff16815260200191505060206040518083038186803b15801561180857600080fd5b505afa15801561181c573d6000803e3d6000fd5b505050506040513d602081101561183257600080fd5b81019080805190602001909291905050506040518060400160405280600481526020017f41434c31000000000000000000000000000000000000000000000000000000008152509061191f576040517f08c379a00000000000000000000000000000000000000000000000000000000081526004018080602001828103825283818151815260200191508051906020019080838360005b838110156118e45780820151818401526020810190506118c9565b50505050905090810190601f1680156119115780820380516001836020036101000a031916815260200191505b509250505060405180910390fd5b506119286128a5565b565b600960009054906101000a900473ffffffffffffffffffffffffffffffffffffffff1681565b600960009054906101000a900473ffffffffffffffffffffffffffffffffffffffff1673ffffffffffffffffffffffffffffffffffffffff16636fbc6f6b336040518263ffffffff1660e01b81526004016119ab9190612ed5565b60206040518083038186803b1580156119c357600080fd5b505afa1580156119d7573d6000803e3d6000fd5b505050506040513d601f19601f820116820180604052508101906119fb9190612d61565b6040518060400160405280600281526020017f435000000000000000000000000000000000000000000000000000000000000081525090611a72576040517f08c379a0000000000000000000000000000000000000000000000000000000008152600401611a699190612ff4565b60405180910390fd5b50611a8781600661299090919063ffffffff16565b6040518060400160405280600381526020017f414634000000000000000000000000000000000000000000000000000000000081525090611afe576040517f08c379a0000000000000000000000000000000000000000000000000000000008152600401611af59190612ff4565b60405180910390fd5b50438173ffffffffffffffffffffffffffffffffffffffff16633dc54b406040518163ffffffff1660e01b815260040160206040518083038186803b158015611b4657600080fd5b505afa158015611b5a573d6000803e3d6000fd5b505050506040513d601f19601f82011682018060405250810190611b7e9190612db3565b14156040518060400160405280600381526020017f414631000000000000000000000000000000000000000000000000000000000081525090611bf7576040517f08c379a0000000000000000000000000000000000000000000000000000000008152600401611bee9190612ff4565b60405180910390fd5b508060026000600460009054906101000a900473ffffffffffffffffffffffffffffffffffffffff1673ffffffffffffffffffffffffffffffffffffffff1673ffffffffffffffffffffffffffffffffffffffff16815260200190815260200160002060006101000a81548173ffffffffffffffffffffffffffffffffffffffff021916908373ffffffffffffffffffffffffffffffffffffffff16021790555080600460006101000a81548173ffffffffffffffffffffffffffffffffffffffff021916908373ffffffffffffffffffffffffffffffffffffffff1602179055508073ffffffffffffffffffffffffffffffffffffffff167fced6ab9afc868b3a088366f6631ae20752993b5cce5d5f0534ea5a59fcc57d5660405160405180910390a250565b600360009054906101000a900473ffffffffffffffffffffffffffffffffffffffff1681565b60088181548110611d5557600080fd5b90600052602060002090600202016000915090508060000160009054906101000a900473ffffffffffffffffffffffffffffffffffffffff16908060010160009054906101000a900473ffffffffffffffffffffffffffffffffffffffff16905082565b600060019054906101000a900473ffffffffffffffffffffffffffffffffffffffff1673ffffffffffffffffffffffffffffffffffffffff16635f259aba336040518263ffffffff1660e01b8152600401808273ffffffffffffffffffffffffffffffffffffffff16815260200191505060206040518083038186803b158015611e4257600080fd5b505afa158015611e56573d6000803e3d6000fd5b505050506040513d6020811015611e6c57600080fd5b81019080805190602001909291905050506040518060400160405280600481526020017f41434c320000000000000000000000000000000000000000000000000000000081525090611f59576040517f08c379a00000000000000000000000000000000000000000000000000000000081526004018080602001828103825283818151815260200191508051906020019080838360005b83811015611f1e578082015181840152602081019050611f03565b50505050905090810190601f168015611f4b5780820380516001836020036101000a031916815260200191505b509250505060405180910390fd5b508273ffffffffffffffffffffffffffffffffffffffff166319a1603983836040518363ffffffff1660e01b8152600401611f95929190612f27565b600060405180830381600087803b158015611faf57600080fd5b505af1158015611fc3573d6000803e3d6000fd5b50505050505050565b60026001541415612045576040517f08c379a000000000000000000000000000000000000000000000000000000000815260040180806020018281038252601f8152602001807f5265656e7472616e637947756172643a207265656e7472616e742063616c6c0081525060200191505060405180910390fd5b6002600181905550600960149054906101000a900460ff16156040518060400160405280600381526020017f4146320000000000000000000000000000000000000000000000000000000000815250906120d5576040517f08c379a00000000000000000000000000000000000000000000000000000000081526004016120cc9190612ff4565b60405180910390fd5b506120de6123c7565b600460009054906101000a900473ffffffffffffffffffffffffffffffffffffffff1673ffffffffffffffffffffffffffffffffffffffff1663c75b5a71306001806040518463ffffffff1660e01b815260040161213e93929190612f87565b600060405180830381600087803b15801561215857600080fd5b505af115801561216c573d6000803e3d6000fd5b5050505060005b60088054905081101561229857600460009054906101000a900473ffffffffffffffffffffffffffffffffffffffff1673ffffffffffffffffffffffffffffffffffffffff166303105b04600883815481106121cb57fe5b906000526020600020906002020160000160009054906101000a900473ffffffffffffffffffffffffffffffffffffffff166008848154811061220a57fe5b906000526020600020906002020160010160009054906101000a900473ffffffffffffffffffffffffffffffffffffffff166040518363ffffffff1660e01b8152600401612259929190612f27565b600060405180830381600087803b15801561227357600080fd5b505af1158015612287573d6000803e3d6000fd5b505050508080600101915050612173565b5060018081905550565b600080600090506000600360009054906101000a900473ffffffffffffffffffffffffffffffffffffffff1690505b600073ffffffffffffffffffffffffffffffffffffffff168173ffffffffffffffffffffffffffffffffffffffff161461237457600260008273ffffffffffffffffffffffffffffffffffffffff1673ffffffffffffffffffffffffffffffffffffffff16815260200190815260200160002060009054906101000a900473ffffffffffffffffffffffffffffffffffffffff16905081806001019250506122d1565b819250505090565b600061238860066129c0565b905090565b60006123a382600661299090919063ffffffff16565b9050919050565b60006123c08260066129d590919063ffffffff16565b9050919050565b60006123f4600560009054906101000a900473ffffffffffffffffffffffffffffffffffffffff16612592565b90508073ffffffffffffffffffffffffffffffffffffffff16638129fc1c6040518163ffffffff1660e01b8152600401600060405180830381600087803b15801561243e57600080fd5b505af1158015612452573d6000803e3d6000fd5b505050508060026000600460009054906101000a900473ffffffffffffffffffffffffffffffffffffffff1673ffffffffffffffffffffffffffffffffffffffff1673ffffffffffffffffffffffffffffffffffffffff16815260200190815260200160002060006101000a81548173ffffffffffffffffffffffffffffffffffffffff021916908373ffffffffffffffffffffffffffffffffffffffff16021790555080600460006101000a81548173ffffffffffffffffffffffffffffffffffffffff021916908373ffffffffffffffffffffffffffffffffffffffff16021790555061254b81600661269a90919063ffffffff16565b508073ffffffffffffffffffffffffffffffffffffffff167f9f69b6c10f6810213e055b0ba6bc0a4e2603f73c221aad77ea35da819cda7dc360405160405180910390a250565b60006040517f3d602d80600a3d3981f3363d3d373d3d3d363d7300000000000000000000000081528260601b60148201527f5af43d82803e903d91602b57fd5bf3000000000000000000000000000000000060288201526037816000f0915050600073ffffffffffffffffffffffffffffffffffffffff168173ffffffffffffffffffffffffffffffffffffffff161415612695576040517f08c379a00000000000000000000000000000000000000000000000000000000081526004018080602001828103825260168152602001807f455243313136373a20637265617465206661696c65640000000000000000000081525060200191505060405180910390fd5b919050565b60006126c2836000018373ffffffffffffffffffffffffffffffffffffffff1660001b6129ef565b905092915050565b600073ffffffffffffffffffffffffffffffffffffffff1660026000600360009054906101000a900473ffffffffffffffffffffffffffffffffffffffff1673ffffffffffffffffffffffffffffffffffffffff1673ffffffffffffffffffffffffffffffffffffffff16815260200190815260200160002060009054906101000a900473ffffffffffffffffffffffffffffffffffffffff1673ffffffffffffffffffffffffffffffffffffffff161415612789576127886123c7565b5b565b60006127b3836000018373ffffffffffffffffffffffffffffffffffffffff1660001b612a5f565b905092915050565b6127c36116da565b612835576040517f08c379a00000000000000000000000000000000000000000000000000000000081526004018080602001828103825260148152602001807f5061757361626c653a206e6f742070617573656400000000000000000000000081525060200191505060405180910390fd5b60008060006101000a81548160ff0219169083151502179055507f5db9ee0a495bf2e6ff9c91a7834c1ba4fdd244a5e8aa4e537bd38aeae4b073aa612878612b47565b604051808273ffffffffffffffffffffffffffffffffffffffff16815260200191505060405180910390a1565b6128ad6116da565b15612920576040517f08c379a00000000000000000000000000000000000000000000000000000000081526004018080602001828103825260108152602001807f5061757361626c653a207061757365640000000000000000000000000000000081525060200191505060405180910390fd5b60016000806101000a81548160ff0219169083151502179055507f62e78cea01bee320cd4e420270b5ea74000d11b0c9f74754ebdbfc544b05a258612963612b47565b604051808273ffffffffffffffffffffffffffffffffffffffff16815260200191505060405180910390a1565b60006129b8836000018373ffffffffffffffffffffffffffffffffffffffff1660001b612b4f565b905092915050565b60006129ce82600001612b72565b9050919050565b60006129e48360000183612b83565b60001c905092915050565b60006129fb8383612b4f565b612a54578260000182908060018154018082558091505060019003906000526020600020016000909190919091505582600001805490508360010160008481526020019081526020016000208190555060019050612a59565b600090505b92915050565b60008083600101600084815260200190815260200160002054905060008114612b3b5760006001820390506000600186600001805490500390506000866000018281548110612aaa57fe5b9060005260206000200154905080876000018481548110612ac757fe5b9060005260206000200181905550600183018760010160008381526020019081526020016000208190555086600001805480612aff57fe5b60019003818190600052602060002001600090559055866001016000878152602001908152602001600020600090556001945050505050612b41565b60009150505b92915050565b600033905090565b600080836001016000848152602001908152602001600020541415905092915050565b600081600001805490509050919050565b600081836000018054905011612be4576040517f08c379a000000000000000000000000000000000000000000000000000000000815260040180806020018281038252602281526020018061319d6022913960400191505060405180910390fd5b826000018281548110612bf357fe5b9060005260206000200154905092915050565b600081359050612c1581613157565b92915050565b60008083601f840112612c2d57600080fd5b8235905067ffffffffffffffff811115612c4657600080fd5b602083019150836040820283011115612c5e57600080fd5b9250929050565b600081519050612c748161316e565b92915050565b600081359050612c8981613185565b92915050565b600081519050612c9e81613185565b92915050565b600060208284031215612cb657600080fd5b6000612cc484828501612c06565b91505092915050565b600080600060608486031215612ce257600080fd5b6000612cf086828701612c06565b9350506020612d0186828701612c06565b9250506040612d1286828701612c06565b9150509250925092565b60008060208385031215612d2f57600080fd5b600083013567ffffffffffffffff811115612d4957600080fd5b612d5585828601612c1b565b92509250509250929050565b600060208284031215612d7357600080fd5b6000612d8184828501612c65565b91505092915050565b600060208284031215612d9c57600080fd5b6000612daa84828501612c7a565b91505092915050565b600060208284031215612dc557600080fd5b6000612dd384828501612c8f565b91505092915050565b60008060408385031215612def57600080fd5b6000612dfd85828601612c7a565b9250506020612e0e85828601612c7a565b9150509250929050565b612e2181613095565b82525050565b612e308161304d565b82525050565b612e3f8161305f565b82525050565b612e4e816130a7565b82525050565b612e5d816130cb565b82525050565b612e6c816130dd565b82525050565b6000612e7d82613031565b612e87818561303c565b9350612e97818560208601613113565b612ea081613146565b840191505092915050565b612eb48161308b565b82525050565b6000602082019050612ecf6000830184612e27565b92915050565b6000602082019050612eea6000830184612e18565b92915050565b6000606082019050612f056000830186612e18565b612f126020830185612eab565b612f1f6040830184612eab565b949350505050565b6000604082019050612f3c6000830185612e27565b612f496020830184612e27565b9392505050565b6000606082019050612f656000830186612e27565b612f726020830185612e54565b612f7f6040830184612e54565b949350505050565b6000606082019050612f9c6000830186612e27565b612fa96020830185612e63565b612fb66040830184612e63565b949350505050565b6000602082019050612fd36000830184612e36565b92915050565b6000602082019050612fee6000830184612e45565b92915050565b6000602082019050818103600083015261300e8184612e72565b905092915050565b600060208201905061302b6000830184612eab565b92915050565b600081519050919050565b600082825260208201905092915050565b60006130588261306b565b9050919050565b60008115159050919050565b600073ffffffffffffffffffffffffffffffffffffffff82169050919050565b6000819050919050565b60006130a0826130ef565b9050919050565b60006130b2826130b9565b9050919050565b60006130c48261306b565b9050919050565b60006130d68261308b565b9050919050565b60006130e88261308b565b9050919050565b60006130fa82613101565b9050919050565b600061310c8261306b565b9050919050565b60005b83811015613131578082015181840152602081019050613116565b83811115613140576000848401525b50505050565b6000601f19601f8301169050919050565b6131608161304d565b811461316b57600080fd5b50565b6131778161305f565b811461318257600080fd5b50565b61318e8161308b565b811461319957600080fd5b5056fe456e756d657261626c655365743a20696e646578206f7574206f6620626f756e6473a2646970667358221220f34f5bcb312beb204e9db93aec378dfaf1dafa1ad91c6591e445c14023b83c6464736f6c63430007060033608060405234801561001057600080fd5b50611605806100206000396000f3fe608060405234801561001057600080fd5b50600436106100b45760003560e01c80633dc54b40116100715780633dc54b40146103495780638129fc1c14610367578063c12c21c014610371578063c45a0155146103a5578063c75b5a71146103d9578063d1660f9914610431576100b4565b806303105b04146100b9578063161282111461011d57806317d11a151461015557806319a16039146101735780631afbb7a4146101d75780631cff79cd146101f5575b600080fd5b61011b600480360360408110156100cf57600080fd5b81019080803573ffffffffffffffffffffffffffffffffffffffff169060200190929190803573ffffffffffffffffffffffffffffffffffffffff16906020019092919050505061049f565b005b6101536004803603604081101561013357600080fd5b810190808035906020019092919080359060200190929190505050610648565b005b61015d610788565b6040518082815260200191505060405180910390f35b6101d56004803603604081101561018957600080fd5b81019080803573ffffffffffffffffffffffffffffffffffffffff169060200190929190803573ffffffffffffffffffffffffffffffffffffffff16906020019092919050505061078e565b005b6101df6108ec565b6040518082815260200191505060405180910390f35b6102ce6004803603604081101561020b57600080fd5b81019080803573ffffffffffffffffffffffffffffffffffffffff1690602001909291908035906020019064010000000081111561024857600080fd5b82018360208201111561025a57600080fd5b8035906020019184600183028401116401000000008311171561027c57600080fd5b91908080601f016020809104026020016040519081016040528093929190818152602001838380828437600081840152601f19601f8201169050808301925050505050505091929192905050506108f2565b6040518080602001828103825283818151815260200191508051906020019080838360005b8381101561030e5780820151818401526020810190506102f3565b50505050905090810190601f16801561033b5780820380516001836020036101000a031916815260200191505b509250505060405180910390f35b610351610a53565b6040518082815260200191505060405180910390f35b61036f610a59565b005b610379610b98565b604051808273ffffffffffffffffffffffffffffffffffffffff16815260200191505060405180910390f35b6103ad610bbe565b604051808273ffffffffffffffffffffffffffffffffffffffff16815260200191505060405180910390f35b61042f600480360360608110156103ef57600080fd5b81019080803573ffffffffffffffffffffffffffffffffffffffff1690602001909291908035906020019092919080359060200190929190505050610be4565b005b61049d6004803603606081101561044757600080fd5b81019080803573ffffffffffffffffffffffffffffffffffffffff169060200190929190803573ffffffffffffffffffffffffffffffffffffffff16906020019092919080359060200190929190505050610d6d565b005b600160009054906101000a900473ffffffffffffffffffffffffffffffffffffffff1673ffffffffffffffffffffffffffffffffffffffff163373ffffffffffffffffffffffffffffffffffffffff16146040518060400160405280600381526020017f4341310000000000000000000000000000000000000000000000000000000000815250906105cc576040517f08c379a00000000000000000000000000000000000000000000000000000000081526004018080602001828103825283818151815260200191508051906020019080838360005b83811015610591578082015181840152602081019050610576565b50505050905090810190601f1680156105be5780820380516001836020036101000a031916815260200191505b509250505060405180910390fd5b506105f98160008473ffffffffffffffffffffffffffffffffffffffff16610ecb9092919063ffffffff16565b610644817fffffffffffffffffffffffffffffffffffffffffffffffffffffffffffffffff8473ffffffffffffffffffffffffffffffffffffffff16610ecb9092919063ffffffff16565b5050565b600160009054906101000a900473ffffffffffffffffffffffffffffffffffffffff1673ffffffffffffffffffffffffffffffffffffffff163373ffffffffffffffffffffffffffffffffffffffff16146040518060400160405280600381526020017f434131000000000000000000000000000000000000000000000000000000000081525090610775576040517f08c379a00000000000000000000000000000000000000000000000000000000081526004018080602001828103825283818151815260200191508051906020019080838360005b8381101561073a57808201518184015260208101905061071f565b50505050905090810190601f1680156107675780820380516001836020036101000a031916815260200191505b509250505060405180910390fd5b5081600281905550806003819055505050565b60035481565b600060029054906101000a900473ffffffffffffffffffffffffffffffffffffffff1673ffffffffffffffffffffffffffffffffffffffff163373ffffffffffffffffffffffffffffffffffffffff16146040518060400160405280600381526020017f4341320000000000000000000000000000000000000000000000000000000000815250906108bb576040517f08c379a00000000000000000000000000000000000000000000000000000000081526004018080602001828103825283818151815260200191508051906020019080838360005b83811015610880578082015181840152602081019050610865565b50505050905090810190601f1680156108ad5780820380516001836020036101000a031916815260200191505b509250505060405180910390fd5b506108e88160008473ffffffffffffffffffffffffffffffffffffffff16610ecb9092919063ffffffff16565b5050565b60025481565b6060600160009054906101000a900473ffffffffffffffffffffffffffffffffffffffff1673ffffffffffffffffffffffffffffffffffffffff163373ffffffffffffffffffffffffffffffffffffffff16146040518060400160405280600381526020017f434131000000000000000000000000000000000000000000000000000000000081525090610a21576040517f08c379a00000000000000000000000000000000000000000000000000000000081526004018080602001828103825283818151815260200191508051906020019080838360005b838110156109e65780820151818401526020810190506109cb565b50505050905090810190601f168015610a135780820380516001836020036101000a031916815260200191505b509250505060405180910390fd5b50610a4b828473ffffffffffffffffffffffffffffffffffffffff1661109090919063ffffffff16565b905092915050565b60045481565b600060019054906101000a900460ff1680610a785750610a776110da565b5b80610a8e575060008054906101000a900460ff16155b610ae3576040517f08c379a000000000000000000000000000000000000000000000000000000000815260040180806020018281038252602e815260200180611542602e913960400191505060405180910390fd5b60008060019054906101000a900460ff161590508015610b33576001600060016101000a81548160ff02191690831515021790555060016000806101000a81548160ff0219169083151502179055505b33600060026101000a81548173ffffffffffffffffffffffffffffffffffffffff021916908373ffffffffffffffffffffffffffffffffffffffff1602179055508015610b955760008060016101000a81548160ff0219169083151502179055505b50565b600160009054906101000a900473ffffffffffffffffffffffffffffffffffffffff1681565b600060029054906101000a900473ffffffffffffffffffffffffffffffffffffffff1681565b600060029054906101000a900473ffffffffffffffffffffffffffffffffffffffff1673ffffffffffffffffffffffffffffffffffffffff163373ffffffffffffffffffffffffffffffffffffffff16146040518060400160405280600381526020017f434132000000000000000000000000000000000000000000000000000000000081525090610d11576040517f08c379a00000000000000000000000000000000000000000000000000000000081526004018080602001828103825283818151815260200191508051906020019080838360005b83811015610cd6578082015181840152602081019050610cbb565b50505050905090810190601f168015610d035780820380516001836020036101000a031916815260200191505b509250505060405180910390fd5b5082600160006101000a81548173ffffffffffffffffffffffffffffffffffffffff021916908373ffffffffffffffffffffffffffffffffffffffff160217905550816002819055508060038190555043600481905550505050565b600160009054906101000a900473ffffffffffffffffffffffffffffffffffffffff1673ffffffffffffffffffffffffffffffffffffffff163373ffffffffffffffffffffffffffffffffffffffff16146040518060400160405280600381526020017f434131000000000000000000000000000000000000000000000000000000000081525090610e9a576040517f08c379a00000000000000000000000000000000000000000000000000000000081526004018080602001828103825283818151815260200191508051906020019080838360005b83811015610e5f578082015181840152602081019050610e44565b50505050905090810190601f168015610e8c5780820380516001836020036101000a031916815260200191505b509250505060405180910390fd5b50610ec682828573ffffffffffffffffffffffffffffffffffffffff166110eb9092919063ffffffff16565b505050565b6000811480610f99575060008373ffffffffffffffffffffffffffffffffffffffff1663dd62ed3e30856040518363ffffffff1660e01b8152600401808373ffffffffffffffffffffffffffffffffffffffff1681526020018273ffffffffffffffffffffffffffffffffffffffff1681526020019250505060206040518083038186803b158015610f5c57600080fd5b505afa158015610f70573d6000803e3d6000fd5b505050506040513d6020811015610f8657600080fd5b8101908080519060200190929190505050145b610fee576040517f08c379a000000000000000000000000000000000000000000000000000000000815260040180806020018281038252603681526020018061159a6036913960400191505060405180910390fd5b61108b8363095ea7b360e01b8484604051602401808373ffffffffffffffffffffffffffffffffffffffff16815260200182815260200192505050604051602081830303815290604052907bffffffffffffffffffffffffffffffffffffffffffffffffffffffff19166020820180517bffffffffffffffffffffffffffffffffffffffffffffffffffffffff838183161783525050505061118d565b505050565b60606110d283836040518060400160405280601e81526020017f416464726573733a206c6f772d6c6576656c2063616c6c206661696c6564000081525061127c565b905092915050565b60006110e530611294565b15905090565b6111888363a9059cbb60e01b8484604051602401808373ffffffffffffffffffffffffffffffffffffffff16815260200182815260200192505050604051602081830303815290604052907bffffffffffffffffffffffffffffffffffffffffffffffffffffffff19166020820180517bffffffffffffffffffffffffffffffffffffffffffffffffffffffff838183161783525050505061118d565b505050565b60006111ef826040518060400160405280602081526020017f5361666545524332303a206c6f772d6c6576656c2063616c6c206661696c65648152508573ffffffffffffffffffffffffffffffffffffffff1661127c9092919063ffffffff16565b90506000815111156112775780806020019051602081101561121057600080fd5b8101908080519060200190929190505050611276576040517f08c379a000000000000000000000000000000000000000000000000000000000815260040180806020018281038252602a815260200180611570602a913960400191505060405180910390fd5b5b505050565b606061128b84846000856112a7565b90509392505050565b600080823b905060008111915050919050565b606082471015611302576040517f08c379a000000000000000000000000000000000000000000000000000000000815260040180806020018281038252602681526020018061151c6026913960400191505060405180910390fd5b61130b85611294565b61137d576040517f08c379a000000000000000000000000000000000000000000000000000000000815260040180806020018281038252601d8152602001807f416464726573733a2063616c6c20746f206e6f6e2d636f6e747261637400000081525060200191505060405180910390fd5b6000808673ffffffffffffffffffffffffffffffffffffffff1685876040518082805190602001908083835b602083106113cc57805182526020820191506020810190506020830392506113a9565b6001836020036101000a03801982511681845116808217855250505050505090500191505060006040518083038185875af1925050503d806000811461142e576040519150601f19603f3d011682016040523d82523d6000602084013e611433565b606091505b509150915061144382828661144f565b92505050949350505050565b6060831561145f57829050611514565b6000835111156114725782518084602001fd5b816040517f08c379a00000000000000000000000000000000000000000000000000000000081526004018080602001828103825283818151815260200191508051906020019080838360005b838110156114d95780820151818401526020810190506114be565b50505050905090810190601f1680156115065780820380516001836020036101000a031916815260200191505b509250505060405180910390fd5b939250505056fe416464726573733a20696e73756666696369656e742062616c616e636520666f722063616c6c496e697469616c697a61626c653a20636f6e747261637420697320616c726561647920696e697469616c697a65645361666545524332303a204552433230206f7065726174696f6e20646964206e6f7420737563636565645361666545524332303a20617070726f76652066726f6d206e6f6e2d7a65726f20746f206e6f6e2d7a65726f20616c6c6f77616e6365a26469706673582212201ebfae6bd83bf4604842e5bf578f940f63974a24c6908a90034595c896c9977764736f6c63430007060033",
  "linkReferences": {},
  "deployedLinkReferences": {}
}