{
  "_format": "hh-sol-artifact-1",
  "contractName": "CreditAccount",
  "sourceName": "contracts/credit/CreditAccount.sol",
  "abi": [
    {
      "inputs": [
        {
          "internalType": "address",
          "name": "token",
          "type": "address"
        },
        {
          "internalType": "address",
          "name": "swapContract",
          "type": "address"
        }
      ],
      "name": "approveToken",
      "outputs": [],
      "stateMutability": "nonpayable",
      "type": "function"
    },
    {
      "inputs": [],
      "name": "borrowedAmount",
      "outputs": [
        {
          "internalType": "uint256",
          "name": "",
          "type": "uint256"
        }
      ],
      "stateMutability": "view",
      "type": "function"
    },
    {
      "inputs": [
        {
          "internalType": "address",
          "name": "token",
          "type": "address"
        },
        {
          "internalType": "address",
          "name": "targetContract",
          "type": "address"
        }
      ],
      "name": "cancelAllowance",
      "outputs": [],
      "stateMutability": "nonpayable",
      "type": "function"
    },
    {
      "inputs": [
        {
          "internalType": "address",
          "name": "_creditManager",
          "type": "address"
        }
      ],
      "name": "connectTo",
      "outputs": [],
      "stateMutability": "nonpayable",
      "type": "function"
    },
    {
      "inputs": [],
      "name": "creditManager",
      "outputs": [
        {
          "internalType": "address",
          "name": "",
          "type": "address"
        }
      ],
      "stateMutability": "view",
      "type": "function"
    },
    {
      "inputs": [],
      "name": "cumulativeIndexAtOpen",
      "outputs": [
        {
          "internalType": "uint256",
          "name": "",
          "type": "uint256"
        }
      ],
      "stateMutability": "view",
      "type": "function"
    },
    {
      "inputs": [
        {
          "internalType": "address",
          "name": "destination",
          "type": "address"
        },
        {
          "internalType": "bytes",
          "name": "data",
          "type": "bytes"
        }
      ],
      "name": "execute",
      "outputs": [
        {
          "internalType": "bytes",
          "name": "",
          "type": "bytes"
        }
      ],
      "stateMutability": "nonpayable",
      "type": "function"
    },
    {
      "inputs": [],
      "name": "factory",
      "outputs": [
        {
          "internalType": "address",
          "name": "",
          "type": "address"
        }
      ],
      "stateMutability": "view",
      "type": "function"
    },
    {
      "inputs": [],
      "name": "initialize",
      "outputs": [],
      "stateMutability": "nonpayable",
      "type": "function"
    },
    {
      "inputs": [
        {
          "internalType": "address",
          "name": "token",
          "type": "address"
        },
        {
          "internalType": "address",
          "name": "to",
          "type": "address"
        },
        {
          "internalType": "uint256",
          "name": "amount",
          "type": "uint256"
        }
      ],
      "name": "safeTransfer",
      "outputs": [],
      "stateMutability": "nonpayable",
      "type": "function"
    },
    {
      "inputs": [
        {
          "internalType": "uint256",
          "name": "_borrowedAmount",
          "type": "uint256"
        },
        {
          "internalType": "uint256",
          "name": "_cumulativeIndexAtOpen",
          "type": "uint256"
        }
      ],
      "name": "setGenericParameters",
      "outputs": [],
      "stateMutability": "nonpayable",
      "type": "function"
    },
    {
      "inputs": [],
      "name": "since",
      "outputs": [
        {
          "internalType": "uint256",
          "name": "",
          "type": "uint256"
        }
      ],
      "stateMutability": "view",
      "type": "function"
    },
    {
      "inputs": [
        {
          "internalType": "uint256",
          "name": "_borrowedAmount",
          "type": "uint256"
        }
      ],
      "name": "updateBorrowedAmount",
      "outputs": [],
      "stateMutability": "nonpayable",
      "type": "function"
    }
  ],
  "bytecode": "0x608060405234801561001057600080fd5b50611762806100206000396000f3fe608060405234801561001057600080fd5b50600436106100cf5760003560e01c80634725ac3f1161008c578063abaf48f511610066578063abaf48f5146103c6578063c12c21c0146103fe578063c45a015514610432578063d1660f9914610466576100cf565b80634725ac3f1461034a578063779048131461038e5780638129fc1c146103bc576100cf565b806303105b04146100d457806317d11a151461013857806319a16039146101565780631afbb7a4146101ba5780631cff79cd146101d85780633dc54b401461032c575b600080fd5b610136600480360360408110156100ea57600080fd5b81019080803573ffffffffffffffffffffffffffffffffffffffff169060200190929190803573ffffffffffffffffffffffffffffffffffffffff1690602001909291905050506104d4565b005b61014061067d565b6040518082815260200191505060405180910390f35b6101b86004803603604081101561016c57600080fd5b81019080803573ffffffffffffffffffffffffffffffffffffffff169060200190929190803573ffffffffffffffffffffffffffffffffffffffff169060200190929190505050610683565b005b6101c26107e1565b6040518082815260200191505060405180910390f35b6102b1600480360360408110156101ee57600080fd5b81019080803573ffffffffffffffffffffffffffffffffffffffff1690602001909291908035906020019064010000000081111561022b57600080fd5b82018360208201111561023d57600080fd5b8035906020019184600183028401116401000000008311171561025f57600080fd5b91908080601f016020809104026020016040519081016040528093929190818152602001838380828437600081840152601f19601f8201169050808301925050505050505091929192905050506107e7565b6040518080602001828103825283818151815260200191508051906020019080838360005b838110156102f15780820151818401526020810190506102d6565b50505050905090810190601f16801561031e5780820380516001836020036101000a031916815260200191505b509250505060405180910390f35b610334610948565b6040518082815260200191505060405180910390f35b61038c6004803603602081101561036057600080fd5b81019080803573ffffffffffffffffffffffffffffffffffffffff16906020019092919050505061094e565b005b6103ba600480360360208110156103a457600080fd5b8101908080359060200190929190505050610ac7565b005b6103c4610bff565b005b6103fc600480360360408110156103dc57600080fd5b810190808035906020019092919080359060200190929190505050610d3e565b005b610406610e7e565b604051808273ffffffffffffffffffffffffffffffffffffffff16815260200191505060405180910390f35b61043a610ea4565b604051808273ffffffffffffffffffffffffffffffffffffffff16815260200191505060405180910390f35b6104d26004803603606081101561047c57600080fd5b81019080803573ffffffffffffffffffffffffffffffffffffffff169060200190929190803573ffffffffffffffffffffffffffffffffffffffff16906020019092919080359060200190929190505050610eca565b005b600160009054906101000a900473ffffffffffffffffffffffffffffffffffffffff1673ffffffffffffffffffffffffffffffffffffffff163373ffffffffffffffffffffffffffffffffffffffff16146040518060400160405280600281526020017f413100000000000000000000000000000000000000000000000000000000000081525090610601576040517f08c379a00000000000000000000000000000000000000000000000000000000081526004018080602001828103825283818151815260200191508051906020019080838360005b838110156105c65780820151818401526020810190506105ab565b50505050905090810190601f1680156105f35780820380516001836020036101000a031916815260200191505b509250505060405180910390fd5b5061062e8160008473ffffffffffffffffffffffffffffffffffffffff166110289092919063ffffffff16565b610679817fffffffffffffffffffffffffffffffffffffffffffffffffffffffffffffffff8473ffffffffffffffffffffffffffffffffffffffff166110289092919063ffffffff16565b5050565b60035481565b600060029054906101000a900473ffffffffffffffffffffffffffffffffffffffff1673ffffffffffffffffffffffffffffffffffffffff163373ffffffffffffffffffffffffffffffffffffffff16146040518060400160405280600281526020017f4132000000000000000000000000000000000000000000000000000000000000815250906107b0576040517f08c379a00000000000000000000000000000000000000000000000000000000081526004018080602001828103825283818151815260200191508051906020019080838360005b8381101561077557808201518184015260208101905061075a565b50505050905090810190601f1680156107a25780820380516001836020036101000a031916815260200191505b509250505060405180910390fd5b506107dd8160008473ffffffffffffffffffffffffffffffffffffffff166110289092919063ffffffff16565b5050565b60025481565b6060600160009054906101000a900473ffffffffffffffffffffffffffffffffffffffff1673ffffffffffffffffffffffffffffffffffffffff163373ffffffffffffffffffffffffffffffffffffffff16146040518060400160405280600281526020017f413100000000000000000000000000000000000000000000000000000000000081525090610916576040517f08c379a00000000000000000000000000000000000000000000000000000000081526004018080602001828103825283818151815260200191508051906020019080838360005b838110156108db5780820151818401526020810190506108c0565b50505050905090810190601f1680156109085780820380516001836020036101000a031916815260200191505b509250505060405180910390fd5b50610940828473ffffffffffffffffffffffffffffffffffffffff166111ed90919063ffffffff16565b905092915050565b60045481565b600060029054906101000a900473ffffffffffffffffffffffffffffffffffffffff1673ffffffffffffffffffffffffffffffffffffffff163373ffffffffffffffffffffffffffffffffffffffff16146040518060400160405280600281526020017f413200000000000000000000000000000000000000000000000000000000000081525090610a7b576040517f08c379a00000000000000000000000000000000000000000000000000000000081526004018080602001828103825283818151815260200191508051906020019080838360005b83811015610a40578082015181840152602081019050610a25565b50505050905090810190601f168015610a6d5780820380516001836020036101000a031916815260200191505b509250505060405180910390fd5b5080600160006101000a81548173ffffffffffffffffffffffffffffffffffffffff021916908373ffffffffffffffffffffffffffffffffffffffff1602179055504360048190555050565b600160009054906101000a900473ffffffffffffffffffffffffffffffffffffffff1673ffffffffffffffffffffffffffffffffffffffff163373ffffffffffffffffffffffffffffffffffffffff16146040518060400160405280600281526020017f413100000000000000000000000000000000000000000000000000000000000081525090610bf4576040517f08c379a00000000000000000000000000000000000000000000000000000000081526004018080602001828103825283818151815260200191508051906020019080838360005b83811015610bb9578082015181840152602081019050610b9e565b50505050905090810190601f168015610be65780820380516001836020036101000a031916815260200191505b509250505060405180910390fd5b508060028190555050565b600060019054906101000a900460ff1680610c1e5750610c1d611237565b5b80610c34575060008054906101000a900460ff16155b610c89576040517f08c379a000000000000000000000000000000000000000000000000000000000815260040180806020018281038252602e81526020018061169f602e913960400191505060405180910390fd5b60008060019054906101000a900460ff161590508015610cd9576001600060016101000a81548160ff02191690831515021790555060016000806101000a81548160ff0219169083151502179055505b33600060026101000a81548173ffffffffffffffffffffffffffffffffffffffff021916908373ffffffffffffffffffffffffffffffffffffffff1602179055508015610d3b5760008060016101000a81548160ff0219169083151502179055505b50565b600160009054906101000a900473ffffffffffffffffffffffffffffffffffffffff1673ffffffffffffffffffffffffffffffffffffffff163373ffffffffffffffffffffffffffffffffffffffff16146040518060400160405280600281526020017f413100000000000000000000000000000000000000000000000000000000000081525090610e6b576040517f08c379a00000000000000000000000000000000000000000000000000000000081526004018080602001828103825283818151815260200191508051906020019080838360005b83811015610e30578082015181840152602081019050610e15565b50505050905090810190601f168015610e5d5780820380516001836020036101000a031916815260200191505b509250505060405180910390fd5b5081600281905550806003819055505050565b600160009054906101000a900473ffffffffffffffffffffffffffffffffffffffff1681565b600060029054906101000a900473ffffffffffffffffffffffffffffffffffffffff1681565b600160009054906101000a900473ffffffffffffffffffffffffffffffffffffffff1673ffffffffffffffffffffffffffffffffffffffff163373ffffffffffffffffffffffffffffffffffffffff16146040518060400160405280600281526020017f413100000000000000000000000000000000000000000000000000000000000081525090610ff7576040517f08c379a00000000000000000000000000000000000000000000000000000000081526004018080602001828103825283818151815260200191508051906020019080838360005b83811015610fbc578082015181840152602081019050610fa1565b50505050905090810190601f168015610fe95780820380516001836020036101000a031916815260200191505b509250505060405180910390fd5b5061102382828573ffffffffffffffffffffffffffffffffffffffff166112489092919063ffffffff16565b505050565b60008114806110f6575060008373ffffffffffffffffffffffffffffffffffffffff1663dd62ed3e30856040518363ffffffff1660e01b8152600401808373ffffffffffffffffffffffffffffffffffffffff1681526020018273ffffffffffffffffffffffffffffffffffffffff1681526020019250505060206040518083038186803b1580156110b957600080fd5b505afa1580156110cd573d6000803e3d6000fd5b505050506040513d60208110156110e357600080fd5b8101908080519060200190929190505050145b61114b576040517f08c379a00000000000000000000000000000000000000000000000000000000081526004018080602001828103825260368152602001806116f76036913960400191505060405180910390fd5b6111e88363095ea7b360e01b8484604051602401808373ffffffffffffffffffffffffffffffffffffffff16815260200182815260200192505050604051602081830303815290604052907bffffffffffffffffffffffffffffffffffffffffffffffffffffffff19166020820180517bffffffffffffffffffffffffffffffffffffffffffffffffffffffff83818316178352505050506112ea565b505050565b606061122f83836040518060400160405280601e81526020017f416464726573733a206c6f772d6c6576656c2063616c6c206661696c656400008152506113d9565b905092915050565b6000611242306113f1565b15905090565b6112e58363a9059cbb60e01b8484604051602401808373ffffffffffffffffffffffffffffffffffffffff16815260200182815260200192505050604051602081830303815290604052907bffffffffffffffffffffffffffffffffffffffffffffffffffffffff19166020820180517bffffffffffffffffffffffffffffffffffffffffffffffffffffffff83818316178352505050506112ea565b505050565b600061134c826040518060400160405280602081526020017f5361666545524332303a206c6f772d6c6576656c2063616c6c206661696c65648152508573ffffffffffffffffffffffffffffffffffffffff166113d99092919063ffffffff16565b90506000815111156113d45780806020019051602081101561136d57600080fd5b81019080805190602001909291905050506113d3576040517f08c379a000000000000000000000000000000000000000000000000000000000815260040180806020018281038252602a8152602001806116cd602a913960400191505060405180910390fd5b5b505050565b60606113e88484600085611404565b90509392505050565b600080823b905060008111915050919050565b60608247101561145f576040517f08c379a00000000000000000000000000000000000000000000000000000000081526004018080602001828103825260268152602001806116796026913960400191505060405180910390fd5b611468856113f1565b6114da576040517f08c379a000000000000000000000000000000000000000000000000000000000815260040180806020018281038252601d8152602001807f416464726573733a2063616c6c20746f206e6f6e2d636f6e747261637400000081525060200191505060405180910390fd5b6000808673ffffffffffffffffffffffffffffffffffffffff1685876040518082805190602001908083835b602083106115295780518252602082019150602081019050602083039250611506565b6001836020036101000a03801982511681845116808217855250505050505090500191505060006040518083038185875af1925050503d806000811461158b576040519150601f19603f3d011682016040523d82523d6000602084013e611590565b606091505b50915091506115a08282866115ac565b92505050949350505050565b606083156115bc57829050611671565b6000835111156115cf5782518084602001fd5b816040517f08c379a00000000000000000000000000000000000000000000000000000000081526004018080602001828103825283818151815260200191508051906020019080838360005b8381101561163657808201518184015260208101905061161b565b50505050905090810190601f1680156116635780820380516001836020036101000a031916815260200191505b509250505060405180910390fd5b939250505056fe416464726573733a20696e73756666696369656e742062616c616e636520666f722063616c6c496e697469616c697a61626c653a20636f6e747261637420697320616c726561647920696e697469616c697a65645361666545524332303a204552433230206f7065726174696f6e20646964206e6f7420737563636565645361666545524332303a20617070726f76652066726f6d206e6f6e2d7a65726f20746f206e6f6e2d7a65726f20616c6c6f77616e6365a264697066735822122049e28f4dee2cf7505741c904f081ef1ccbaf084c306049e227412d043441145264736f6c63430007060033",
  "linkReferences": {},
  "deployedLinkReferences": {}
}