{
  "_format": "hh-sol-artifact-1",
  "contractName": "PathFinder",
  "sourceName": "contracts/support/PathFinder.sol",
  "abi": [
    {
      "inputs": [
        {
          "internalType": "address",
          "name": "_addressProvider",
          "type": "address"
        }
      ],
      "stateMutability": "nonpayable",
      "type": "constructor"
    },
    {
      "inputs": [],
      "name": "addressProvider",
      "outputs": [
        {
          "internalType": "contract AddressProvider",
          "name": "",
          "type": "address"
        }
      ],
      "stateMutability": "view",
      "type": "function"
    },
    {
      "inputs": [
        {
          "internalType": "uint256",
          "name": "swapInterface",
          "type": "uint256"
        },
        {
          "internalType": "address",
          "name": "router",
          "type": "address"
        },
        {
          "internalType": "uint256",
          "name": "swapType",
          "type": "uint256"
        },
        {
          "internalType": "address",
          "name": "from",
          "type": "address"
        },
        {
          "internalType": "address",
          "name": "to",
          "type": "address"
        },
        {
          "internalType": "uint256",
          "name": "amount",
          "type": "uint256"
        },
        {
          "internalType": "address[]",
          "name": "tokens",
          "type": "address[]"
        }
      ],
      "name": "bestUniPath",
      "outputs": [
        {
          "components": [
            {
              "internalType": "address[]",
              "name": "path",
              "type": "address[]"
            },
            {
              "internalType": "uint256",
              "name": "rate",
              "type": "uint256"
            },
            {
              "internalType": "uint256",
              "name": "expectedAmount",
              "type": "uint256"
            }
          ],
          "internalType": "struct PathFinder.TradePath",
          "name": "",
          "type": "tuple"
        }
      ],
      "stateMutability": "nonpayable",
      "type": "function"
    },
    {
      "inputs": [],
      "name": "contractsRegister",
      "outputs": [
        {
          "internalType": "contract ContractsRegister",
          "name": "",
          "type": "address"
        }
      ],
      "stateMutability": "view",
      "type": "function"
    },
    {
      "inputs": [
        {
          "internalType": "address[]",
          "name": "path",
          "type": "address[]"
        },
        {
          "internalType": "uint256",
          "name": "swapType",
          "type": "uint256"
        }
      ],
      "name": "convertPathToPathV3",
      "outputs": [
        {
          "internalType": "bytes",
          "name": "result",
          "type": "bytes"
        }
      ],
      "stateMutability": "pure",
      "type": "function"
    },
    {
      "inputs": [
        {
          "internalType": "address",
          "name": "router",
          "type": "address"
        },
        {
          "internalType": "address",
          "name": "_creditManager",
          "type": "address"
        },
        {
          "internalType": "address",
          "name": "borrower",
          "type": "address"
        },
        {
          "internalType": "address[]",
          "name": "connectorTokens",
          "type": "address[]"
        }
      ],
      "name": "getClosurePaths",
      "outputs": [
        {
          "components": [
            {
              "internalType": "address[]",
              "name": "path",
              "type": "address[]"
            },
            {
              "internalType": "uint256",
              "name": "rate",
              "type": "uint256"
            },
            {
              "internalType": "uint256",
              "name": "expectedAmount",
              "type": "uint256"
            }
          ],
          "internalType": "struct PathFinder.TradePath[]",
          "name": "result",
          "type": "tuple[]"
        }
      ],
      "stateMutability": "nonpayable",
      "type": "function"
    }
  ],
  "bytecode": "0x60a06040523480156200001157600080fd5b506040516200224e3803806200224e83398181016040528101906200003791906200016d565b806000806101000a81548173ffffffffffffffffffffffffffffffffffffffff021916908373ffffffffffffffffffffffffffffffffffffffff16021790555060008054906101000a900473ffffffffffffffffffffffffffffffffffffffff1673ffffffffffffffffffffffffffffffffffffffff1663c513c9bb6040518163ffffffff1660e01b815260040160206040518083038186803b158015620000de57600080fd5b505afa158015620000f3573d6000803e3d6000fd5b505050506040513d601f19601f820116820180604052508101906200011991906200016d565b73ffffffffffffffffffffffffffffffffffffffff1660808173ffffffffffffffffffffffffffffffffffffffff1660601b8152505050620001e7565b6000815190506200016781620001cd565b92915050565b6000602082840312156200018057600080fd5b6000620001908482850162000156565b91505092915050565b6000620001a682620001ad565b9050919050565b600073ffffffffffffffffffffffffffffffffffffffff82169050919050565b620001d88162000199565b8114620001e457600080fd5b50565b60805160601c6120446200020a600039806105df528061060652506120446000f3fe608060405234801561001057600080fd5b50600436106100575760003560e01c80632954018c1461005c578063457b20301461007a5780637a0c7b21146100aa5780638b7ce872146100c8578063e2430f93146100f8575b600080fd5b610064610128565b6040516100719190611c3c565b60405180910390f35b610094600480360381019061008f9190611750565b61014c565b6040516100a19190611cb4565b60405180910390f35b6100b26105dd565b6040516100bf9190611c57565b60405180910390f35b6100e260048036038101906100dd9190611562565b610601565b6040516100ef9190611bc8565b60405180910390f35b610112600480360381019061010d9190611640565b610b78565b60405161011f9190611bea565b60405180910390f35b60008054906101000a900473ffffffffffffffffffffffffffffffffffffffff1681565b61015461136e565b60008314156101c8576040518060600160405280600367ffffffffffffffff8111801561018057600080fd5b506040519080825280602002602001820160405280156101af5781602001602082028036833780820191505090505b50815260200160008152602001600081525090506105d2565b6000600267ffffffffffffffff811180156101e257600080fd5b506040519080825280602002602001820160405280156102115781602001602082028036833780820191505090505b509050858160008151811061022257fe5b602002602001019073ffffffffffffffffffffffffffffffffffffffff16908173ffffffffffffffffffffffffffffffffffffffff1681525050848160018151811061026a57fe5b602002602001019073ffffffffffffffffffffffffffffffffffffffff16908173ffffffffffffffffffffffffffffffffffffffff16815250506000806102e58b8b8b868a60018f146102dd577fffffffffffffffffffffffffffffffffffffffffffffffffffffffffffffffff6102e0565b60005b610d1b565b915091506060600082156102f7578491505b60005b87518110156104fc57600367ffffffffffffffff8111801561031b57600080fd5b5060405190808252806020026020018201604052801561034a5781602001602082028036833780820191505090505b5095508a8660008151811061035b57fe5b602002602001019073ffffffffffffffffffffffffffffffffffffffff16908173ffffffffffffffffffffffffffffffffffffffff168152505089866002815181106103a357fe5b602002602001019073ffffffffffffffffffffffffffffffffffffffff16908173ffffffffffffffffffffffffffffffffffffffff16815250508a73ffffffffffffffffffffffffffffffffffffffff1688828151811061040057fe5b602002602001015173ffffffffffffffffffffffffffffffffffffffff161415801561046b57508973ffffffffffffffffffffffffffffffffffffffff1688828151811061044a57fe5b602002602001015173ffffffffffffffffffffffffffffffffffffffff1614155b156104ef5787818151811061047c57fe5b60200260200101518660018151811061049157fe5b602002602001019073ffffffffffffffffffffffffffffffffffffffff16908173ffffffffffffffffffffffffffffffffffffffff16815250506104d98e8e8e898d8a610d1b565b809550819350505083156104ee578194508592505b5b80806001019150506102fa565b5060007fffffffffffffffffffffffffffffffffffffffffffffffffffffffffffffffff85141561052c57600094505b6000851415801561053e575060008914155b156105ae5760018c1461057d576105788961056a87670de0b6b3a7640000610d5590919063ffffffff16565b610ddb90919063ffffffff16565b6105ab565b6105aa8561059c8b670de0b6b3a7640000610d5590919063ffffffff16565b610ddb90919063ffffffff16565b5b90505b60405180606001604052808481526020018281526020018681525096505050505050505b979650505050505050565b7f000000000000000000000000000000000000000000000000000000000000000081565b6060837f000000000000000000000000000000000000000000000000000000000000000073ffffffffffffffffffffffffffffffffffffffff16636fbc6f6b826040518263ffffffff1660e01b815260040161065d9190611b84565b60206040518083038186803b15801561067557600080fd5b505afa158015610689573d6000803e3d6000fd5b505050506040513d601f19601f820116820180604052508101906106ad91906116d5565b6040518060400160405280600281526020017f435000000000000000000000000000000000000000000000000000000000000081525090610724576040517f08c379a000000000000000000000000000000000000000000000000000000000815260040161071b9190611c72565b60405180910390fd5b5060008573ffffffffffffffffffffffffffffffffffffffff1663f93f515b6040518163ffffffff1660e01b815260040160206040518083038186803b15801561076d57600080fd5b505afa158015610781573d6000803e3d6000fd5b505050506040513d601f19601f820116820180604052508101906107a591906116fe565b90508073ffffffffffffffffffffffffffffffffffffffff166320a05ff76040518163ffffffff1660e01b815260040160206040518083038186803b1580156107ed57600080fd5b505afa158015610801573d6000803e3d6000fd5b505050506040513d601f19601f820116820180604052508101906108259190611727565b67ffffffffffffffff8111801561083b57600080fd5b5060405190808252806020026020018201604052801561087557816020015b61086261136e565b81526020019060019003908161085a5790505b50925060008673ffffffffffffffffffffffffffffffffffffffff1663e958b704876040518263ffffffff1660e01b81526004016108b39190611b84565b60206040518083038186803b1580156108cb57600080fd5b505afa1580156108df573d6000803e3d6000fd5b505050506040513d601f19601f820116820180604052508101906109039190611539565b905060008273ffffffffffffffffffffffffffffffffffffffff16632495a5996040518163ffffffff1660e01b815260040160206040518083038186803b15801561094d57600080fd5b505afa158015610961573d6000803e3d6000fd5b505050506040513d601f19601f820116820180604052508101906109859190611539565b905060005b8373ffffffffffffffffffffffffffffffffffffffff166320a05ff76040518163ffffffff1660e01b815260040160206040518083038186803b1580156109d057600080fd5b505afa1580156109e4573d6000803e3d6000fd5b505050506040513d601f19601f82011682018060405250810190610a089190611727565b811015610b6b576000808573ffffffffffffffffffffffffffffffffffffffff1663af0a650286856040518363ffffffff1660e01b8152600401610a4d929190611b9f565b60806040518083038186803b158015610a6557600080fd5b505afa158015610a79573d6000803e3d6000fd5b505050506040513d601f19601f82011682018060405250810190610a9d91906115dd565b5050915091506000831415610b33576040518060600160405280600367ffffffffffffffff81118015610acf57600080fd5b50604051908082528060200260200182016040528015610afe5781602001602082028036833780820191505090505b508152602001670de0b6b3a764000081526020018281525088600081518110610b2357fe5b6020026020010181905250610b5c565b610b4460018d60018588868f61014c565b888481518110610b5057fe5b60200260200101819052505b5050808060010191505061098a565b5050505050949350505050565b60606000610bb890506001831415610c505760005b610ba260018651610e6490919063ffffffff16565b811015610bff57610bf0858281518110610bb857fe5b602002602001015183604051602001610bd2929190611b58565b60405160208183030381529060405284610ee790919063ffffffff16565b92508080600101915050610b8d565b50610c4984600186510381518110610c1357fe5b6020026020010151604051602001610c2b9190611b3d565b60405160208183030381529060405283610ee790919063ffffffff16565b9150610d14565b6000610c6760018651610e6490919063ffffffff16565b90505b6000811115610cca57610cba858281518110610c8257fe5b602002602001015183604051602001610c9c929190611b58565b60405160208183030381529060405284610ee790919063ffffffff16565b9250808060019003915050610c6a565b50610d1184600081518110610cdb57fe5b6020026020010151604051602001610cf39190611b3d565b60405160208183030381529060405283610ee790919063ffffffff16565b91505b5092915050565b60008060018814610d3857610d338787878787610f71565b610d46565b610d458787878787611160565b5b91509150965096945050505050565b600080831415610d685760009050610dd5565b6000828402905082848281610d7957fe5b0414610dd0576040517f08c379a0000000000000000000000000000000000000000000000000000000008152600401808060200182810382526021815260200180611fee6021913960400191505060405180910390fd5b809150505b92915050565b6000808211610e52576040517f08c379a000000000000000000000000000000000000000000000000000000000815260040180806020018281038252601a8152602001807f536166654d6174683a206469766973696f6e206279207a65726f00000000000081525060200191505060405180910390fd5b818381610e5b57fe5b04905092915050565b600082821115610edc576040517f08c379a000000000000000000000000000000000000000000000000000000000815260040180806020018281038252601e8152602001807f536166654d6174683a207375627472616374696f6e206f766572666c6f77000081525060200191505060405180910390fd5b818303905092915050565b6060806040519050835180825260208201818101602087015b81831015610f1d5780518352602083019250602081019050610f00565b50855192508351830184528091508282019050602086015b81831015610f525780518352602083019250602081019050610f35565b50601f19601f8851850115830101166040525050508091505092915050565b60008060006001871415611028578773ffffffffffffffffffffffffffffffffffffffff1663cdca1753610fa5888a610b78565b876040518363ffffffff1660e01b8152600401610fc3929190611c0c565b602060405180830381600087803b158015610fdd57600080fd5b505af192505050801561100e57506040513d601f19601f8201168201806040525081019061100b9190611727565b60015b61101f578360009250925050611156565b80915050611116565b60028714156110da578773ffffffffffffffffffffffffffffffffffffffff16632f80bb1d611057888a610b78565b876040518363ffffffff1660e01b8152600401611075929190611c0c565b602060405180830381600087803b15801561108f57600080fd5b505af19250505080156110c057506040513d601f19601f820116820180604052508101906110bd9190611727565b60015b6110d1578360009250925050611156565b80915050611115565b6040517f08c379a000000000000000000000000000000000000000000000000000000000815260040161110c90611c94565b60405180910390fd5b5b60018714801561112557508381115b8061113b575060028714801561113a57508381105b5b1561114d578060019250925050611156565b83600092509250505b9550959350505050565b60008060006001871415611228578773ffffffffffffffffffffffffffffffffffffffff1663d06ca61f86886040518363ffffffff1660e01b81526004016111a9929190611cd6565b60006040518083038186803b1580156111c157600080fd5b505afa9250505080156111f757506040513d6000823e3d601f19601f820116820180604052508101906111f49190611694565b60015b611208578360009250925050611364565b8060018851038151811061121857fe5b6020026020010151915050611324565b60028714156112e8578773ffffffffffffffffffffffffffffffffffffffff16631f00ca7486886040518363ffffffff1660e01b815260040161126c929190611cd6565b60006040518083038186803b15801561128457600080fd5b505afa9250505080156112ba57506040513d6000823e3d601f19601f820116820180604052508101906112b79190611694565b60015b6112cb578360009250925050611364565b806000815181106112d857fe5b6020026020010151915050611323565b6040517f08c379a000000000000000000000000000000000000000000000000000000000815260040161131a90611c94565b60405180910390fd5b5b60018714801561133357508381115b80611349575060028714801561134857508381105b5b1561135b578060019250925050611364565b83600092509250505b9550959350505050565b60405180606001604052806060815260200160008152602001600081525090565b60006113a261139d84611d37565b611d06565b905080838252602082019050828560208602820111156113c157600080fd5b60005b858110156113f157816113d78882611467565b8452602084019350602083019250506001810190506113c4565b5050509392505050565b600061140e61140984611d63565b611d06565b9050808382526020820190508285602086028201111561142d57600080fd5b60005b8581101561145d57816114438882611524565b845260208401935060208301925050600181019050611430565b5050509392505050565b60008135905061147681611f91565b92915050565b60008151905061148b81611f91565b92915050565b600082601f8301126114a257600080fd5b81356114b284826020860161138f565b91505092915050565b600082601f8301126114cc57600080fd5b81516114dc8482602086016113fb565b91505092915050565b6000815190506114f481611fa8565b92915050565b60008151905061150981611fbf565b92915050565b60008135905061151e81611fd6565b92915050565b60008151905061153381611fd6565b92915050565b60006020828403121561154b57600080fd5b60006115598482850161147c565b91505092915050565b6000806000806080858703121561157857600080fd5b600061158687828801611467565b945050602061159787828801611467565b93505060406115a887828801611467565b925050606085013567ffffffffffffffff8111156115c557600080fd5b6115d187828801611491565b91505092959194509250565b600080600080608085870312156115f357600080fd5b60006116018782880161147c565b945050602061161287828801611524565b935050604061162387828801611524565b925050606061163487828801611524565b91505092959194509250565b6000806040838503121561165357600080fd5b600083013567ffffffffffffffff81111561166d57600080fd5b61167985828601611491565b925050602061168a8582860161150f565b9150509250929050565b6000602082840312156116a657600080fd5b600082015167ffffffffffffffff8111156116c057600080fd5b6116cc848285016114bb565b91505092915050565b6000602082840312156116e757600080fd5b60006116f5848285016114e5565b91505092915050565b60006020828403121561171057600080fd5b600061171e848285016114fa565b91505092915050565b60006020828403121561173957600080fd5b600061174784828501611524565b91505092915050565b600080600080600080600060e0888a03121561176b57600080fd5b60006117798a828b0161150f565b975050602061178a8a828b01611467565b965050604061179b8a828b0161150f565b95505060606117ac8a828b01611467565b94505060806117bd8a828b01611467565b93505060a06117ce8a828b0161150f565b92505060c088013567ffffffffffffffff8111156117eb57600080fd5b6117f78a828b01611491565b91505092959891949750929550565b60006118128383611832565b60208301905092915050565b600061182a8383611a68565b905092915050565b61183b81611e4a565b82525050565b61184a81611e4a565b82525050565b61186161185c82611e4a565b611f2e565b82525050565b600061187282611daf565b61187c8185611df5565b935061188783611d8f565b8060005b838110156118b857815161189f8882611806565b97506118aa83611ddb565b92505060018101905061188b565b5085935050505092915050565b60006118d082611daf565b6118da8185611e06565b93506118e583611d8f565b8060005b838110156119165781516118fd8882611806565b975061190883611ddb565b9250506001810190506118e9565b5085935050505092915050565b600061192e82611dba565b6119388185611e17565b93508360208202850161194a85611d9f565b8060005b858110156119865784840389528151611967858261181e565b945061197283611de8565b925060208a0199505060018101905061194e565b50829750879550505050505092915050565b60006119a382611dc5565b6119ad8185611e28565b93506119bd818560208601611efb565b6119c681611f66565b840191505092915050565b6119da81611eb3565b82525050565b6119e981611ed7565b82525050565b60006119fa82611dd0565b611a048185611e39565b9350611a14818560208601611efb565b611a1d81611f66565b840191505092915050565b6000611a35601183611e39565b91507f556e6b6e6f776e207377617020747970650000000000000000000000000000006000830152602082019050919050565b60006060830160008301518482036000860152611a858282611867565b9150506020830151611a9a6020860182611b1f565b506040830151611aad6040860182611b1f565b508091505092915050565b60006060830160008301518482036000860152611ad58282611867565b9150506020830151611aea6020860182611b1f565b506040830151611afd6040860182611b1f565b508091505092915050565b611b19611b1482611e9a565b611f52565b82525050565b611b2881611ea9565b82525050565b611b3781611ea9565b82525050565b6000611b498284611850565b60148201915081905092915050565b6000611b648285611850565b601482019150611b748284611b08565b6003820191508190509392505050565b6000602082019050611b996000830184611841565b92915050565b6000604082019050611bb46000830185611841565b611bc16020830184611b2e565b9392505050565b60006020820190508181036000830152611be28184611923565b905092915050565b60006020820190508181036000830152611c048184611998565b905092915050565b60006040820190508181036000830152611c268185611998565b9050611c356020830184611b2e565b9392505050565b6000602082019050611c5160008301846119d1565b92915050565b6000602082019050611c6c60008301846119e0565b92915050565b60006020820190508181036000830152611c8c81846119ef565b905092915050565b60006020820190508181036000830152611cad81611a28565b9050919050565b60006020820190508181036000830152611cce8184611ab8565b905092915050565b6000604082019050611ceb6000830185611b2e565b8181036020830152611cfd81846118c5565b90509392505050565b6000604051905081810181811067ffffffffffffffff82111715611d2d57611d2c611f64565b5b8060405250919050565b600067ffffffffffffffff821115611d5257611d51611f64565b5b602082029050602081019050919050565b600067ffffffffffffffff821115611d7e57611d7d611f64565b5b602082029050602081019050919050565b6000819050602082019050919050565b6000819050602082019050919050565b600081519050919050565b600081519050919050565b600081519050919050565b600081519050919050565b6000602082019050919050565b6000602082019050919050565b600082825260208201905092915050565b600082825260208201905092915050565b600082825260208201905092915050565b600082825260208201905092915050565b600082825260208201905092915050565b6000611e5582611e7a565b9050919050565b60008115159050919050565b6000611e7382611e4a565b9050919050565b600073ffffffffffffffffffffffffffffffffffffffff82169050919050565b600062ffffff82169050919050565b6000819050919050565b6000611ebe82611ec5565b9050919050565b6000611ed082611e7a565b9050919050565b6000611ee282611ee9565b9050919050565b6000611ef482611e7a565b9050919050565b60005b83811015611f19578082015181840152602081019050611efe565b83811115611f28576000848401525b50505050565b6000611f3982611f40565b9050919050565b6000611f4b82611f84565b9050919050565b6000611f5d82611f77565b9050919050565bfe5b6000601f19601f8301169050919050565b60008160e81b9050919050565b60008160601b9050919050565b611f9a81611e4a565b8114611fa557600080fd5b50565b611fb181611e5c565b8114611fbc57600080fd5b50565b611fc881611e68565b8114611fd357600080fd5b50565b611fdf81611ea9565b8114611fea57600080fd5b5056fe536166654d6174683a206d756c7469706c69636174696f6e206f766572666c6f77a2646970667358221220747bc8cd5c54f950baf3e94fac8c8ff6ed4e4b30590c4e5171da5df528751aca64736f6c63430007060033",
  "linkReferences": {},
  "deployedLinkReferences": {}
}