{
  "_format": "hh-sol-artifact-1",
  "contractName": "GearToken",
  "sourceName": "contracts/tokens/GearToken.sol",
  "abi": [
    {
      "inputs": [
        {
          "internalType": "address",
          "name": "account",
          "type": "address"
        }
      ],
      "stateMutability": "nonpayable",
      "type": "constructor"
    },
    {
      "anonymous": false,
      "inputs": [
        {
          "indexed": true,
          "internalType": "address",
          "name": "owner",
          "type": "address"
        },
        {
          "indexed": true,
          "internalType": "address",
          "name": "spender",
          "type": "address"
        },
        {
          "indexed": false,
          "internalType": "uint256",
          "name": "amount",
          "type": "uint256"
        }
      ],
      "name": "Approval",
      "type": "event"
    },
    {
      "anonymous": false,
      "inputs": [
        {
          "indexed": true,
          "internalType": "address",
          "name": "delegator",
          "type": "address"
        },
        {
          "indexed": true,
          "internalType": "address",
          "name": "fromDelegate",
          "type": "address"
        },
        {
          "indexed": true,
          "internalType": "address",
          "name": "toDelegate",
          "type": "address"
        }
      ],
      "name": "DelegateChanged",
      "type": "event"
    },
    {
      "anonymous": false,
      "inputs": [
        {
          "indexed": true,
          "internalType": "address",
          "name": "delegate",
          "type": "address"
        },
        {
          "indexed": false,
          "internalType": "uint256",
          "name": "previousBalance",
          "type": "uint256"
        },
        {
          "indexed": false,
          "internalType": "uint256",
          "name": "newBalance",
          "type": "uint256"
        }
      ],
      "name": "DelegateVotesChanged",
      "type": "event"
    },
    {
      "anonymous": false,
      "inputs": [
        {
          "indexed": true,
          "internalType": "address",
          "name": "from",
          "type": "address"
        },
        {
          "indexed": true,
          "internalType": "address",
          "name": "to",
          "type": "address"
        },
        {
          "indexed": false,
          "internalType": "uint256",
          "name": "amount",
          "type": "uint256"
        }
      ],
      "name": "Transfer",
      "type": "event"
    },
    {
      "inputs": [],
      "name": "DELEGATION_TYPEHASH",
      "outputs": [
        {
          "internalType": "bytes32",
          "name": "",
          "type": "bytes32"
        }
      ],
      "stateMutability": "view",
      "type": "function"
    },
    {
      "inputs": [],
      "name": "DOMAIN_TYPEHASH",
      "outputs": [
        {
          "internalType": "bytes32",
          "name": "",
          "type": "bytes32"
        }
      ],
      "stateMutability": "view",
      "type": "function"
    },
    {
      "inputs": [],
      "name": "PERMIT_TYPEHASH",
      "outputs": [
        {
          "internalType": "bytes32",
          "name": "",
          "type": "bytes32"
        }
      ],
      "stateMutability": "view",
      "type": "function"
    },
    {
      "inputs": [],
      "name": "allowTransfers",
      "outputs": [],
      "stateMutability": "nonpayable",
      "type": "function"
    },
    {
      "inputs": [
        {
          "internalType": "address",
          "name": "account",
          "type": "address"
        },
        {
          "internalType": "address",
          "name": "spender",
          "type": "address"
        }
      ],
      "name": "allowance",
      "outputs": [
        {
          "internalType": "uint256",
          "name": "",
          "type": "uint256"
        }
      ],
      "stateMutability": "view",
      "type": "function"
    },
    {
      "inputs": [
        {
          "internalType": "address",
          "name": "spender",
          "type": "address"
        },
        {
          "internalType": "uint256",
          "name": "rawAmount",
          "type": "uint256"
        }
      ],
      "name": "approve",
      "outputs": [
        {
          "internalType": "bool",
          "name": "",
          "type": "bool"
        }
      ],
      "stateMutability": "nonpayable",
      "type": "function"
    },
    {
      "inputs": [
        {
          "internalType": "address",
          "name": "account",
          "type": "address"
        }
      ],
      "name": "balanceOf",
      "outputs": [
        {
          "internalType": "uint256",
          "name": "",
          "type": "uint256"
        }
      ],
      "stateMutability": "view",
      "type": "function"
    },
    {
      "inputs": [
        {
          "internalType": "address",
          "name": "",
          "type": "address"
        },
        {
          "internalType": "uint32",
          "name": "",
          "type": "uint32"
        }
      ],
      "name": "checkpoints",
      "outputs": [
        {
          "internalType": "uint32",
          "name": "fromBlock",
          "type": "uint32"
        },
        {
          "internalType": "uint96",
          "name": "votes",
          "type": "uint96"
        }
      ],
      "stateMutability": "view",
      "type": "function"
    },
    {
      "inputs": [],
      "name": "decimals",
      "outputs": [
        {
          "internalType": "uint8",
          "name": "",
          "type": "uint8"
        }
      ],
      "stateMutability": "view",
      "type": "function"
    },
    {
      "inputs": [
        {
          "internalType": "address",
          "name": "delegatee",
          "type": "address"
        }
      ],
      "name": "delegate",
      "outputs": [],
      "stateMutability": "nonpayable",
      "type": "function"
    },
    {
      "inputs": [
        {
          "internalType": "address",
          "name": "delegatee",
          "type": "address"
        },
        {
          "internalType": "uint256",
          "name": "nonce",
          "type": "uint256"
        },
        {
          "internalType": "uint256",
          "name": "expiry",
          "type": "uint256"
        },
        {
          "internalType": "uint8",
          "name": "v",
          "type": "uint8"
        },
        {
          "internalType": "bytes32",
          "name": "r",
          "type": "bytes32"
        },
        {
          "internalType": "bytes32",
          "name": "s",
          "type": "bytes32"
        }
      ],
      "name": "delegateBySig",
      "outputs": [],
      "stateMutability": "nonpayable",
      "type": "function"
    },
    {
      "inputs": [
        {
          "internalType": "address",
          "name": "",
          "type": "address"
        }
      ],
      "name": "delegates",
      "outputs": [
        {
          "internalType": "address",
          "name": "",
          "type": "address"
        }
      ],
      "stateMutability": "view",
      "type": "function"
    },
    {
      "inputs": [
        {
          "internalType": "address",
          "name": "account",
          "type": "address"
        }
      ],
      "name": "getCurrentVotes",
      "outputs": [
        {
          "internalType": "uint96",
          "name": "",
          "type": "uint96"
        }
      ],
      "stateMutability": "view",
      "type": "function"
    },
    {
      "inputs": [
        {
          "internalType": "address",
          "name": "account",
          "type": "address"
        },
        {
          "internalType": "uint256",
          "name": "blockNumber",
          "type": "uint256"
        }
      ],
      "name": "getPriorVotes",
      "outputs": [
        {
          "internalType": "uint96",
          "name": "",
          "type": "uint96"
        }
      ],
      "stateMutability": "view",
      "type": "function"
    },
    {
      "inputs": [],
      "name": "manager",
      "outputs": [
        {
          "internalType": "address",
          "name": "",
          "type": "address"
        }
      ],
      "stateMutability": "view",
      "type": "function"
    },
    {
      "inputs": [],
      "name": "miner",
      "outputs": [
        {
          "internalType": "address",
          "name": "",
          "type": "address"
        }
      ],
      "stateMutability": "view",
      "type": "function"
    },
    {
      "inputs": [],
      "name": "name",
      "outputs": [
        {
          "internalType": "string",
          "name": "",
          "type": "string"
        }
      ],
      "stateMutability": "view",
      "type": "function"
    },
    {
      "inputs": [
        {
          "internalType": "address",
          "name": "",
          "type": "address"
        }
      ],
      "name": "nonces",
      "outputs": [
        {
          "internalType": "uint256",
          "name": "",
          "type": "uint256"
        }
      ],
      "stateMutability": "view",
      "type": "function"
    },
    {
      "inputs": [
        {
          "internalType": "address",
          "name": "",
          "type": "address"
        }
      ],
      "name": "numCheckpoints",
      "outputs": [
        {
          "internalType": "uint32",
          "name": "",
          "type": "uint32"
        }
      ],
      "stateMutability": "view",
      "type": "function"
    },
    {
      "inputs": [
        {
          "internalType": "address",
          "name": "owner",
          "type": "address"
        },
        {
          "internalType": "address",
          "name": "spender",
          "type": "address"
        },
        {
          "internalType": "uint256",
          "name": "rawAmount",
          "type": "uint256"
        },
        {
          "internalType": "uint256",
          "name": "deadline",
          "type": "uint256"
        },
        {
          "internalType": "uint8",
          "name": "v",
          "type": "uint8"
        },
        {
          "internalType": "bytes32",
          "name": "r",
          "type": "bytes32"
        },
        {
          "internalType": "bytes32",
          "name": "s",
          "type": "bytes32"
        }
      ],
      "name": "permit",
      "outputs": [],
      "stateMutability": "nonpayable",
      "type": "function"
    },
    {
      "inputs": [
        {
          "internalType": "address",
          "name": "_miner",
          "type": "address"
        }
      ],
      "name": "setMiner",
      "outputs": [],
      "stateMutability": "nonpayable",
      "type": "function"
    },
    {
      "inputs": [],
      "name": "symbol",
      "outputs": [
        {
          "internalType": "string",
          "name": "",
          "type": "string"
        }
      ],
      "stateMutability": "view",
      "type": "function"
    },
    {
      "inputs": [],
      "name": "totalSupply",
      "outputs": [
        {
          "internalType": "uint256",
          "name": "",
          "type": "uint256"
        }
      ],
      "stateMutability": "view",
      "type": "function"
    },
    {
      "inputs": [
        {
          "internalType": "address",
          "name": "dst",
          "type": "address"
        },
        {
          "internalType": "uint256",
          "name": "rawAmount",
          "type": "uint256"
        }
      ],
      "name": "transfer",
      "outputs": [
        {
          "internalType": "bool",
          "name": "",
          "type": "bool"
        }
      ],
      "stateMutability": "nonpayable",
      "type": "function"
    },
    {
      "inputs": [
        {
          "internalType": "address",
          "name": "src",
          "type": "address"
        },
        {
          "internalType": "address",
          "name": "dst",
          "type": "address"
        },
        {
          "internalType": "uint256",
          "name": "rawAmount",
          "type": "uint256"
        }
      ],
      "name": "transferFrom",
      "outputs": [
        {
          "internalType": "bool",
          "name": "",
          "type": "bool"
        }
      ],
      "stateMutability": "nonpayable",
      "type": "function"
    },
    {
      "inputs": [
        {
          "internalType": "address",
          "name": "newManager",
          "type": "address"
        }
      ],
      "name": "transferOwnership",
      "outputs": [],
      "stateMutability": "nonpayable",
      "type": "function"
    },
    {
      "inputs": [],
      "name": "transfersAllowed",
      "outputs": [
        {
          "internalType": "bool",
          "name": "",
          "type": "bool"
        }
      ],
      "stateMutability": "view",
      "type": "function"
    }
  ],
  "bytecode": "0x60806040526b019d971e4fe8401e740000006000553480156200002157600080fd5b5060405162003bbc38038062003bbc83398181016040528101906200004791906200019b565b600054600260008373ffffffffffffffffffffffffffffffffffffffff1673ffffffffffffffffffffffffffffffffffffffff16815260200190815260200160002060006101000a8154816bffffffffffffffffffffffff02191690836bffffffffffffffffffffffff1602179055508073ffffffffffffffffffffffffffffffffffffffff16600073ffffffffffffffffffffffffffffffffffffffff167fddf252ad1be2c89b69c2b068fc378daa952ba7f163c4a11628f55a4df523b3ef600054604051620001199190620001d8565b60405180910390a333600760016101000a81548173ffffffffffffffffffffffffffffffffffffffff021916908373ffffffffffffffffffffffffffffffffffffffff1602179055506000600760006101000a81548160ff021916908315150217905550506200024d565b600081519050620001958162000233565b92915050565b600060208284031215620001ae57600080fd5b6000620001be8482850162000184565b91505092915050565b620001d28162000229565b82525050565b6000602082019050620001ef6000830184620001c7565b92915050565b6000620002028262000209565b9050919050565b600073ffffffffffffffffffffffffffffffffffffffff82169050919050565b6000819050919050565b6200023e81620001f5565b81146200024a57600080fd5b50565b61395f806200025d6000396000f3fe608060405234801561001057600080fd5b50600436106101a95760003560e01c806370a08231116100f9578063b4b5ea5711610097578063dd62ed3e11610071578063dd62ed3e146104e6578063e7a324dc14610516578063f1127ed814610534578063f2fde38b14610565576101a9565b8063b4b5ea571461047e578063c3cda520146104ae578063d505accf146104ca576101a9565b806395d89b41116100d357806395d89b41146103f65780639742ca4614610414578063a9059cbb14610430578063b0660c3d14610460576101a9565b806370a0823114610366578063782d6fe1146103965780637ecebe00146103c6576101a9565b806330adf81f11610166578063481c6a7511610140578063481c6a75146102cc578063587cde1e146102ea5780635c19a95c1461031a5780636fcfff4514610336576101a9565b806330adf81f14610272578063313ce56714610290578063349dc329146102ae576101a9565b806306fdde03146101ae578063095ea7b3146101cc57806318160ddd146101fc57806320606b701461021a5780632185810b1461023857806323b872dd14610242575b600080fd5b6101b6610581565b6040516101c39190613398565b60405180910390f35b6101e660048036038101906101e19190612bf3565b6105ba565b6040516101f39190613232565b60405180910390f35b61020461074d565b604051610211919061353a565b60405180910390f35b610222610753565b60405161022f919061324d565b60405180910390f35b610240610777565b005b61025c60048036038101906102579190612b06565b610824565b6040516102699190613232565b60405180910390f35b61027a610ab8565b604051610287919061324d565b60405180910390f35b610298610adc565b6040516102a59190613599565b60405180910390f35b6102b6610ae1565b6040516102c39190613217565b60405180910390f35b6102d4610b07565b6040516102e19190613217565b60405180910390f35b61030460048036038101906102ff9190612aa1565b610b2d565b6040516103119190613217565b60405180910390f35b610334600480360381019061032f9190612aa1565b610b60565b005b610350600480360381019061034b9190612aa1565b610b6d565b60405161035d9190613555565b60405180910390f35b610380600480360381019061037b9190612aa1565b610b90565b60405161038d919061353a565b60405180910390f35b6103b060048036038101906103ab9190612bf3565b610bff565b6040516103bd91906135cf565b60405180910390f35b6103e060048036038101906103db9190612aa1565b611008565b6040516103ed919061353a565b60405180910390f35b6103fe611020565b60405161040b9190613398565b60405180910390f35b61042e60048036038101906104299190612aa1565b611059565b005b61044a60048036038101906104459190612bf3565b61112d565b6040516104579190613232565b60405180910390f35b61046861116a565b6040516104759190613232565b60405180910390f35b61049860048036038101906104939190612aa1565b61117d565b6040516104a591906135cf565b60405180910390f35b6104c860048036038101906104c39190612c2f565b61126b565b005b6104e460048036038101906104df9190612b55565b611528565b005b61050060048036038101906104fb9190612aca565b611994565b60405161050d919061353a565b60405180910390f35b61051e611a41565b60405161052b919061324d565b60405180910390f35b61054e60048036038101906105499190612cb8565b611a65565b60405161055c929190613570565b60405180910390f35b61057f600480360381019061057a9190612aa1565b611abe565b005b6040518060400160405280600781526020017f47656172626f780000000000000000000000000000000000000000000000000081525081565b6000807fffffffffffffffffffffffffffffffffffffffffffffffffffffffffffffffff83141561060d577fffffffffffffffffffffffffffffffffffffffffffffffffffffffffffffffff9050610632565b61062f8360405180606001604052806025815260200161379560259139611c02565b90505b80600160003373ffffffffffffffffffffffffffffffffffffffff1673ffffffffffffffffffffffffffffffffffffffff16815260200190815260200160002060008673ffffffffffffffffffffffffffffffffffffffff1673ffffffffffffffffffffffffffffffffffffffff16815260200190815260200160002060006101000a8154816bffffffffffffffffffffffff02191690836bffffffffffffffffffffffff1602179055508373ffffffffffffffffffffffffffffffffffffffff163373ffffffffffffffffffffffffffffffffffffffff167f8c5be1e5ebec7d5bd14f71427d1e84f3dd0314c0f7b2291e5b200ac8c7c3b9258360405161073a91906135b4565b60405180910390a3600191505092915050565b60005481565b7f8cad95687ba82c2ce50e74f7b754645e5117c3a5bec8151c0726d5857980a86681565b600760019054906101000a900473ffffffffffffffffffffffffffffffffffffffff1673ffffffffffffffffffffffffffffffffffffffff163373ffffffffffffffffffffffffffffffffffffffff1614610807576040517f08c379a00000000000000000000000000000000000000000000000000000000081526004016107fe906134ba565b60405180910390fd5b6001600760006101000a81548160ff021916908315150217905550565b6000803390506000600160008773ffffffffffffffffffffffffffffffffffffffff1673ffffffffffffffffffffffffffffffffffffffff16815260200190815260200160002060008373ffffffffffffffffffffffffffffffffffffffff1673ffffffffffffffffffffffffffffffffffffffff16815260200190815260200160002060009054906101000a90046bffffffffffffffffffffffff16905060006108e78560405180606001604052806025815260200161379560259139611c02565b90508673ffffffffffffffffffffffffffffffffffffffff168373ffffffffffffffffffffffffffffffffffffffff161415801561096157507fffffffffffffffffffffffffffffffffffffffffffffffffffffffffffffffff6bffffffffffffffffffffffff16826bffffffffffffffffffffffff1614155b15610a9f57600061098b83836040518060600160405280603d81526020016138b7603d9139611c60565b905080600160008a73ffffffffffffffffffffffffffffffffffffffff1673ffffffffffffffffffffffffffffffffffffffff16815260200190815260200160002060008673ffffffffffffffffffffffffffffffffffffffff1673ffffffffffffffffffffffffffffffffffffffff16815260200190815260200160002060006101000a8154816bffffffffffffffffffffffff02191690836bffffffffffffffffffffffff1602179055508373ffffffffffffffffffffffffffffffffffffffff168873ffffffffffffffffffffffffffffffffffffffff167f8c5be1e5ebec7d5bd14f71427d1e84f3dd0314c0f7b2291e5b200ac8c7c3b92583604051610a9591906135b4565b60405180910390a3505b610aaa878783611cd1565b600193505050509392505050565b7f6e71edae12b1b97f4d1f60370fef10105fa2faae0126114a169c64845d6126c981565b601281565b600860009054906101000a900473ffffffffffffffffffffffffffffffffffffffff1681565b600760019054906101000a900473ffffffffffffffffffffffffffffffffffffffff1681565b60036020528060005260406000206000915054906101000a900473ffffffffffffffffffffffffffffffffffffffff1681565b610b6a33826121b1565b50565b60056020528060005260406000206000915054906101000a900463ffffffff1681565b6000600260008373ffffffffffffffffffffffffffffffffffffffff1673ffffffffffffffffffffffffffffffffffffffff16815260200190815260200160002060009054906101000a90046bffffffffffffffffffffffff166bffffffffffffffffffffffff169050919050565b6000438210610c43576040517f08c379a0000000000000000000000000000000000000000000000000000000008152600401610c3a906134fa565b60405180910390fd5b6000600560008573ffffffffffffffffffffffffffffffffffffffff1673ffffffffffffffffffffffffffffffffffffffff16815260200190815260200160002060009054906101000a900463ffffffff16905060008163ffffffff161415610cb0576000915050611002565b82600460008673ffffffffffffffffffffffffffffffffffffffff1673ffffffffffffffffffffffffffffffffffffffff16815260200190815260200160002060006001840363ffffffff1663ffffffff16815260200190815260200160002060000160009054906101000a900463ffffffff1663ffffffff1611610db257600460008573ffffffffffffffffffffffffffffffffffffffff1673ffffffffffffffffffffffffffffffffffffffff16815260200190815260200160002060006001830363ffffffff1663ffffffff16815260200190815260200160002060000160049054906101000a90046bffffffffffffffffffffffff16915050611002565b82600460008673ffffffffffffffffffffffffffffffffffffffff1673ffffffffffffffffffffffffffffffffffffffff16815260200190815260200160002060008063ffffffff16815260200190815260200160002060000160009054906101000a900463ffffffff1663ffffffff161115610e33576000915050611002565b6000806001830390505b8163ffffffff168163ffffffff161115610f84576000600283830363ffffffff1681610e6557fe5b04820390506000600460008973ffffffffffffffffffffffffffffffffffffffff1673ffffffffffffffffffffffffffffffffffffffff16815260200190815260200160002060008363ffffffff1663ffffffff1681526020019081526020016000206040518060400160405290816000820160009054906101000a900463ffffffff1663ffffffff1663ffffffff1681526020016000820160049054906101000a90046bffffffffffffffffffffffff166bffffffffffffffffffffffff166bffffffffffffffffffffffff1681525050905086816000015163ffffffff161415610f5c57806020015195505050505050611002565b86816000015163ffffffff161015610f7657819350610f7d565b6001820392505b5050610e3d565b600460008773ffffffffffffffffffffffffffffffffffffffff1673ffffffffffffffffffffffffffffffffffffffff16815260200190815260200160002060008363ffffffff1663ffffffff16815260200190815260200160002060000160049054906101000a90046bffffffffffffffffffffffff1693505050505b92915050565b60066020528060005260406000206000915090505481565b6040518060400160405280600481526020017f474541520000000000000000000000000000000000000000000000000000000081525081565b600760019054906101000a900473ffffffffffffffffffffffffffffffffffffffff1673ffffffffffffffffffffffffffffffffffffffff163373ffffffffffffffffffffffffffffffffffffffff16146110e9576040517f08c379a00000000000000000000000000000000000000000000000000000000081526004016110e0906134ba565b60405180910390fd5b80600860006101000a81548173ffffffffffffffffffffffffffffffffffffffff021916908373ffffffffffffffffffffffffffffffffffffffff16021790555050565b600080611152836040518060600160405280602681526020016137ea60269139611c02565b905061115f338583611cd1565b600191505092915050565b600760009054906101000a900460ff1681565b600080600560008473ffffffffffffffffffffffffffffffffffffffff1673ffffffffffffffffffffffffffffffffffffffff16815260200190815260200160002060009054906101000a900463ffffffff16905060008163ffffffff16116111e7576000611263565b600460008473ffffffffffffffffffffffffffffffffffffffff1673ffffffffffffffffffffffffffffffffffffffff16815260200190815260200160002060006001830363ffffffff1663ffffffff16815260200190815260200160002060000160049054906101000a90046bffffffffffffffffffffffff165b915050919050565b60007f8cad95687ba82c2ce50e74f7b754645e5117c3a5bec8151c0726d5857980a8666040518060400160405280600781526020017f47656172626f7800000000000000000000000000000000000000000000000000815250805190602001206112d3612371565b306040516020016112e7949392919061330e565b60405160208183030381529060405280519060200120905060007fe48329057bfd03d55e49b547132e39cffd9c1820ad7b9d4c5307691425d15adf88888860405160200161133894939291906132c9565b604051602081830303815290604052805190602001209050600082826040516020016113659291906131e0565b6040516020818303038152906040528051906020012090506000600182888888604051600081526020016040526040516113a29493929190613353565b6020604051602081039080840390855afa1580156113c4573d6000803e3d6000fd5b505050602060405103519050600073ffffffffffffffffffffffffffffffffffffffff168173ffffffffffffffffffffffffffffffffffffffff161415611440576040517f08c379a00000000000000000000000000000000000000000000000000000000081526004016114379061345a565b60405180910390fd5b600660008273ffffffffffffffffffffffffffffffffffffffff1673ffffffffffffffffffffffffffffffffffffffff16815260200190815260200160002060008154809291906001019190505589146114cf576040517f08c379a00000000000000000000000000000000000000000000000000000000081526004016114c69061349a565b60405180910390fd5b87421115611512576040517f08c379a0000000000000000000000000000000000000000000000000000000008152600401611509906134da565b60405180910390fd5b61151c818b6121b1565b50505050505050505050565b60007fffffffffffffffffffffffffffffffffffffffffffffffffffffffffffffffff86141561157a577fffffffffffffffffffffffffffffffffffffffffffffffffffffffffffffffff905061159f565b61159c8660405180606001604052806024815260200161385f60249139611c02565b90505b60007f8cad95687ba82c2ce50e74f7b754645e5117c3a5bec8151c0726d5857980a8666040518060400160405280600781526020017f47656172626f780000000000000000000000000000000000000000000000000081525080519060200120611607612371565b3060405160200161161b949392919061330e565b60405160208183030381529060405280519060200120905060007f6e71edae12b1b97f4d1f60370fef10105fa2faae0126114a169c64845d6126c98a8a8a600660008f73ffffffffffffffffffffffffffffffffffffffff1673ffffffffffffffffffffffffffffffffffffffff1681526020019081526020016000206000815480929190600101919050558b6040516020016116bd96959493929190613268565b604051602081830303815290604052805190602001209050600082826040516020016116ea9291906131e0565b6040516020818303038152906040528051906020012090506000600182898989604051600081526020016040526040516117279493929190613353565b6020604051602081039080840390855afa158015611749573d6000803e3d6000fd5b505050602060405103519050600073ffffffffffffffffffffffffffffffffffffffff168173ffffffffffffffffffffffffffffffffffffffff1614156117c5576040517f08c379a00000000000000000000000000000000000000000000000000000000081526004016117bc9061351a565b60405180910390fd5b8b73ffffffffffffffffffffffffffffffffffffffff168173ffffffffffffffffffffffffffffffffffffffff1614611833576040517f08c379a000000000000000000000000000000000000000000000000000000000815260040161182a906133da565b60405180910390fd5b88421115611876576040517f08c379a000000000000000000000000000000000000000000000000000000000815260040161186d9061343a565b60405180910390fd5b84600160008e73ffffffffffffffffffffffffffffffffffffffff1673ffffffffffffffffffffffffffffffffffffffff16815260200190815260200160002060008d73ffffffffffffffffffffffffffffffffffffffff1673ffffffffffffffffffffffffffffffffffffffff16815260200190815260200160002060006101000a8154816bffffffffffffffffffffffff02191690836bffffffffffffffffffffffff1602179055508a73ffffffffffffffffffffffffffffffffffffffff168c73ffffffffffffffffffffffffffffffffffffffff167f8c5be1e5ebec7d5bd14f71427d1e84f3dd0314c0f7b2291e5b200ac8c7c3b9258760405161197e91906135b4565b60405180910390a3505050505050505050505050565b6000600160008473ffffffffffffffffffffffffffffffffffffffff1673ffffffffffffffffffffffffffffffffffffffff16815260200190815260200160002060008373ffffffffffffffffffffffffffffffffffffffff1673ffffffffffffffffffffffffffffffffffffffff16815260200190815260200160002060009054906101000a90046bffffffffffffffffffffffff166bffffffffffffffffffffffff16905092915050565b7fe48329057bfd03d55e49b547132e39cffd9c1820ad7b9d4c5307691425d15adf81565b6004602052816000526040600020602052806000526040600020600091509150508060000160009054906101000a900463ffffffff16908060000160049054906101000a90046bffffffffffffffffffffffff16905082565b600760019054906101000a900473ffffffffffffffffffffffffffffffffffffffff1673ffffffffffffffffffffffffffffffffffffffff163373ffffffffffffffffffffffffffffffffffffffff1614611b4e576040517f08c379a0000000000000000000000000000000000000000000000000000000008152600401611b45906134ba565b60405180910390fd5b600073ffffffffffffffffffffffffffffffffffffffff168173ffffffffffffffffffffffffffffffffffffffff161415611bbe576040517f08c379a0000000000000000000000000000000000000000000000000000000008152600401611bb5906133ba565b60405180910390fd5b80600760016101000a81548173ffffffffffffffffffffffffffffffffffffffff021916908373ffffffffffffffffffffffffffffffffffffffff16021790555050565b60006c0100000000000000000000000083108290611c56576040517f08c379a0000000000000000000000000000000000000000000000000000000008152600401611c4d9190613398565b60405180910390fd5b5082905092915050565b6000836bffffffffffffffffffffffff16836bffffffffffffffffffffffff1611158290611cc4576040517f08c379a0000000000000000000000000000000000000000000000000000000008152600401611cbb9190613398565b60405180910390fd5b5082840390509392505050565b600760009054906101000a900460ff1680611d395750600760019054906101000a900473ffffffffffffffffffffffffffffffffffffffff1673ffffffffffffffffffffffffffffffffffffffff163373ffffffffffffffffffffffffffffffffffffffff16145b80611d915750600860009054906101000a900473ffffffffffffffffffffffffffffffffffffffff1673ffffffffffffffffffffffffffffffffffffffff163373ffffffffffffffffffffffffffffffffffffffff16145b611dd0576040517f08c379a0000000000000000000000000000000000000000000000000000000008152600401611dc79061347a565b60405180910390fd5b600073ffffffffffffffffffffffffffffffffffffffff168373ffffffffffffffffffffffffffffffffffffffff161415611e40576040517f08c379a0000000000000000000000000000000000000000000000000000000008152600401611e37906133fa565b60405180910390fd5b600073ffffffffffffffffffffffffffffffffffffffff168273ffffffffffffffffffffffffffffffffffffffff161415611eb0576040517f08c379a0000000000000000000000000000000000000000000000000000000008152600401611ea79061341a565b60405180910390fd5b611f2a600260008573ffffffffffffffffffffffffffffffffffffffff1673ffffffffffffffffffffffffffffffffffffffff16815260200190815260200160002060009054906101000a90046bffffffffffffffffffffffff16826040518060600160405280603681526020016138f460369139611c60565b600260008573ffffffffffffffffffffffffffffffffffffffff1673ffffffffffffffffffffffffffffffffffffffff16815260200190815260200160002060006101000a8154816bffffffffffffffffffffffff02191690836bffffffffffffffffffffffff160217905550612011600260008473ffffffffffffffffffffffffffffffffffffffff1673ffffffffffffffffffffffffffffffffffffffff16815260200190815260200160002060009054906101000a90046bffffffffffffffffffffffff16826040518060600160405280603081526020016137ba6030913961237e565b600260008473ffffffffffffffffffffffffffffffffffffffff1673ffffffffffffffffffffffffffffffffffffffff16815260200190815260200160002060006101000a8154816bffffffffffffffffffffffff02191690836bffffffffffffffffffffffff1602179055508173ffffffffffffffffffffffffffffffffffffffff168373ffffffffffffffffffffffffffffffffffffffff167fddf252ad1be2c89b69c2b068fc378daa952ba7f163c4a11628f55a4df523b3ef836040516120db91906135b4565b60405180910390a36121ac600360008573ffffffffffffffffffffffffffffffffffffffff1673ffffffffffffffffffffffffffffffffffffffff16815260200190815260200160002060009054906101000a900473ffffffffffffffffffffffffffffffffffffffff16600360008573ffffffffffffffffffffffffffffffffffffffff1673ffffffffffffffffffffffffffffffffffffffff16815260200190815260200160002060009054906101000a900473ffffffffffffffffffffffffffffffffffffffff16836123f4565b505050565b6000600360008473ffffffffffffffffffffffffffffffffffffffff1673ffffffffffffffffffffffffffffffffffffffff16815260200190815260200160002060009054906101000a900473ffffffffffffffffffffffffffffffffffffffff1690506000600260008573ffffffffffffffffffffffffffffffffffffffff1673ffffffffffffffffffffffffffffffffffffffff16815260200190815260200160002060009054906101000a90046bffffffffffffffffffffffff16905082600360008673ffffffffffffffffffffffffffffffffffffffff1673ffffffffffffffffffffffffffffffffffffffff16815260200190815260200160002060006101000a81548173ffffffffffffffffffffffffffffffffffffffff021916908373ffffffffffffffffffffffffffffffffffffffff1602179055508273ffffffffffffffffffffffffffffffffffffffff168273ffffffffffffffffffffffffffffffffffffffff168573ffffffffffffffffffffffffffffffffffffffff167f3134e8a2e6d97e929a7e54011ea5485d7d196dd5f0ba4d4ef95803e8e3fc257f60405160405180910390a461236b8284836123f4565b50505050565b6000804690508091505090565b6000808385019050846bffffffffffffffffffffffff16816bffffffffffffffffffffffff16101583906123e8576040517f08c379a00000000000000000000000000000000000000000000000000000000081526004016123df9190613398565b60405180910390fd5b50809150509392505050565b8173ffffffffffffffffffffffffffffffffffffffff168373ffffffffffffffffffffffffffffffffffffffff161415801561243e57506000816bffffffffffffffffffffffff16115b156126ea57600073ffffffffffffffffffffffffffffffffffffffff168373ffffffffffffffffffffffffffffffffffffffff1614612596576000600560008573ffffffffffffffffffffffffffffffffffffffff1673ffffffffffffffffffffffffffffffffffffffff16815260200190815260200160002060009054906101000a900463ffffffff1690506000808263ffffffff16116124e157600061255d565b600460008673ffffffffffffffffffffffffffffffffffffffff1673ffffffffffffffffffffffffffffffffffffffff16815260200190815260200160002060006001840363ffffffff1663ffffffff16815260200190815260200160002060000160049054906101000a90046bffffffffffffffffffffffff165b90506000612584828560405180606001604052806028815260200161381060289139611c60565b9050612592868484846126ef565b5050505b600073ffffffffffffffffffffffffffffffffffffffff168273ffffffffffffffffffffffffffffffffffffffff16146126e9576000600560008473ffffffffffffffffffffffffffffffffffffffff1673ffffffffffffffffffffffffffffffffffffffff16815260200190815260200160002060009054906101000a900463ffffffff1690506000808263ffffffff16116126345760006126b0565b600460008573ffffffffffffffffffffffffffffffffffffffff1673ffffffffffffffffffffffffffffffffffffffff16815260200190815260200160002060006001840363ffffffff1663ffffffff16815260200190815260200160002060000160049054906101000a90046bffffffffffffffffffffffff165b905060006126d782856040518060600160405280602781526020016138386027913961237e565b90506126e5858484846126ef565b5050505b5b505050565b600061271343604051806060016040528060348152602001613883603491396129e2565b905060008463ffffffff161180156127a857508063ffffffff16600460008773ffffffffffffffffffffffffffffffffffffffff1673ffffffffffffffffffffffffffffffffffffffff16815260200190815260200160002060006001870363ffffffff1663ffffffff16815260200190815260200160002060000160009054906101000a900463ffffffff1663ffffffff16145b156128435781600460008773ffffffffffffffffffffffffffffffffffffffff1673ffffffffffffffffffffffffffffffffffffffff16815260200190815260200160002060006001870363ffffffff1663ffffffff16815260200190815260200160002060000160046101000a8154816bffffffffffffffffffffffff02191690836bffffffffffffffffffffffff16021790555061298b565b60405180604001604052808263ffffffff168152602001836bffffffffffffffffffffffff16815250600460008773ffffffffffffffffffffffffffffffffffffffff1673ffffffffffffffffffffffffffffffffffffffff16815260200190815260200160002060008663ffffffff1663ffffffff16815260200190815260200160002060008201518160000160006101000a81548163ffffffff021916908363ffffffff16021790555060208201518160000160046101000a8154816bffffffffffffffffffffffff02191690836bffffffffffffffffffffffff16021790555090505060018401600560008773ffffffffffffffffffffffffffffffffffffffff1673ffffffffffffffffffffffffffffffffffffffff16815260200190815260200160002060006101000a81548163ffffffff021916908363ffffffff1602179055505b8473ffffffffffffffffffffffffffffffffffffffff167fdec2bacdd2f05b59de34da9b523dff8be42e5e38e818c82fdb0bae774387a72484846040516129d39291906135ea565b60405180910390a25050505050565b600064010000000083108290612a2e576040517f08c379a0000000000000000000000000000000000000000000000000000000008152600401612a259190613398565b60405180910390fd5b5082905092915050565b600081359050612a4781613721565b92915050565b600081359050612a5c81613738565b92915050565b600081359050612a718161374f565b92915050565b600081359050612a8681613766565b92915050565b600081359050612a9b8161377d565b92915050565b600060208284031215612ab357600080fd5b6000612ac184828501612a38565b91505092915050565b60008060408385031215612add57600080fd5b6000612aeb85828601612a38565b9250506020612afc85828601612a38565b9150509250929050565b600080600060608486031215612b1b57600080fd5b6000612b2986828701612a38565b9350506020612b3a86828701612a38565b9250506040612b4b86828701612a62565b9150509250925092565b600080600080600080600060e0888a031215612b7057600080fd5b6000612b7e8a828b01612a38565b9750506020612b8f8a828b01612a38565b9650506040612ba08a828b01612a62565b9550506060612bb18a828b01612a62565b9450506080612bc28a828b01612a8c565b93505060a0612bd38a828b01612a4d565b92505060c0612be48a828b01612a4d565b91505092959891949750929550565b60008060408385031215612c0657600080fd5b6000612c1485828601612a38565b9250506020612c2585828601612a62565b9150509250929050565b60008060008060008060c08789031215612c4857600080fd5b6000612c5689828a01612a38565b9650506020612c6789828a01612a62565b9550506040612c7889828a01612a62565b9450506060612c8989828a01612a8c565b9350506080612c9a89828a01612a4d565b92505060a0612cab89828a01612a4d565b9150509295509295509295565b60008060408385031215612ccb57600080fd5b6000612cd985828601612a38565b9250506020612cea85828601612a77565b9150509250929050565b612cfd8161363a565b82525050565b612d0c8161364c565b82525050565b612d1b81613658565b82525050565b612d32612d2d82613658565b613706565b82525050565b6000612d4382613613565b612d4d818561361e565b9350612d5d8185602086016136d3565b612d6681613710565b840191505092915050565b6000612d7e601b8361361e565b91507f5a65726f2061646472657373206973206e6f7420616c6c6f77656400000000006000830152602082019050919050565b6000612dbe60028361362f565b91507f19010000000000000000000000000000000000000000000000000000000000006000830152600282019050919050565b6000612dfe601a8361361e565b91507f476561723a3a7065726d69743a20756e617574686f72697a65640000000000006000830152602082019050919050565b6000612e3e603c8361361e565b91507f476561723a3a5f7472616e73666572546f6b656e733a2063616e6e6f7420747260008301527f616e736665722066726f6d20746865207a65726f2061646472657373000000006020830152604082019050919050565b6000612ea4603a8361361e565b91507f476561723a3a5f7472616e73666572546f6b656e733a2063616e6e6f7420747260008301527f616e7366657220746f20746865207a65726f20616464726573730000000000006020830152604082019050919050565b6000612f0a601f8361361e565b91507f476561723a3a7065726d69743a207369676e61747572652065787069726564006000830152602082019050919050565b6000612f4a60268361361e565b91507f476561723a3a64656c656761746542795369673a20696e76616c69642073696760008301527f6e617475726500000000000000000000000000000000000000000000000000006020830152604082019050919050565b6000612fb0601d8361361e565b91507f476561723a3a7472616e73666572732061726520666f7262696464656e0000006000830152602082019050919050565b6000612ff060228361361e565b91507f476561723a3a64656c656761746542795369673a20696e76616c6964206e6f6e60008301527f63650000000000000000000000000000000000000000000000000000000000006020830152604082019050919050565b6000613056601f8361361e565b91507f476561723a3a63616c6c6572206973206e6f7420746865206d616e61676572006000830152602082019050919050565b600061309660268361361e565b91507f476561723a3a64656c656761746542795369673a207369676e6174757265206560008301527f78706972656400000000000000000000000000000000000000000000000000006020830152604082019050919050565b60006130fc60278361361e565b91507f476561723a3a6765745072696f72566f7465733a206e6f74207965742064657460008301527f65726d696e6564000000000000000000000000000000000000000000000000006020830152604082019050919050565b6000613162601f8361361e565b91507f476561723a3a7065726d69743a20696e76616c6964207369676e6174757265006000830152602082019050919050565b61319e81613682565b82525050565b6131ad8161368c565b82525050565b6131bc8161369c565b82525050565b6131cb816136c1565b82525050565b6131da816136a9565b82525050565b60006131eb82612db1565b91506131f78285612d21565b6020820191506132078284612d21565b6020820191508190509392505050565b600060208201905061322c6000830184612cf4565b92915050565b60006020820190506132476000830184612d03565b92915050565b60006020820190506132626000830184612d12565b92915050565b600060c08201905061327d6000830189612d12565b61328a6020830188612cf4565b6132976040830187612cf4565b6132a46060830186613195565b6132b16080830185613195565b6132be60a0830184613195565b979650505050505050565b60006080820190506132de6000830187612d12565b6132eb6020830186612cf4565b6132f86040830185613195565b6133056060830184613195565b95945050505050565b60006080820190506133236000830187612d12565b6133306020830186612d12565b61333d6040830185613195565b61334a6060830184612cf4565b95945050505050565b60006080820190506133686000830187612d12565b61337560208301866131b3565b6133826040830185612d12565b61338f6060830184612d12565b95945050505050565b600060208201905081810360008301526133b28184612d38565b905092915050565b600060208201905081810360008301526133d381612d71565b9050919050565b600060208201905081810360008301526133f381612df1565b9050919050565b6000602082019050818103600083015261341381612e31565b9050919050565b6000602082019050818103600083015261343381612e97565b9050919050565b6000602082019050818103600083015261345381612efd565b9050919050565b6000602082019050818103600083015261347381612f3d565b9050919050565b6000602082019050818103600083015261349381612fa3565b9050919050565b600060208201905081810360008301526134b381612fe3565b9050919050565b600060208201905081810360008301526134d381613049565b9050919050565b600060208201905081810360008301526134f381613089565b9050919050565b60006020820190508181036000830152613513816130ef565b9050919050565b6000602082019050818103600083015261353381613155565b9050919050565b600060208201905061354f6000830184613195565b92915050565b600060208201905061356a60008301846131a4565b92915050565b600060408201905061358560008301856131a4565b61359260208301846131d1565b9392505050565b60006020820190506135ae60008301846131b3565b92915050565b60006020820190506135c960008301846131c2565b92915050565b60006020820190506135e460008301846131d1565b92915050565b60006040820190506135ff60008301856131c2565b61360c60208301846131c2565b9392505050565b600081519050919050565b600082825260208201905092915050565b600081905092915050565b600061364582613662565b9050919050565b60008115159050919050565b6000819050919050565b600073ffffffffffffffffffffffffffffffffffffffff82169050919050565b6000819050919050565b600063ffffffff82169050919050565b600060ff82169050919050565b60006bffffffffffffffffffffffff82169050919050565b60006136cc826136a9565b9050919050565b60005b838110156136f15780820151818401526020810190506136d6565b83811115613700576000848401525b50505050565b6000819050919050565b6000601f19601f8301169050919050565b61372a8161363a565b811461373557600080fd5b50565b61374181613658565b811461374c57600080fd5b50565b61375881613682565b811461376357600080fd5b50565b61376f8161368c565b811461377a57600080fd5b50565b6137868161369c565b811461379157600080fd5b5056fe476561723a3a617070726f76653a20616d6f756e7420657863656564732039362062697473476561723a3a5f7472616e73666572546f6b656e733a207472616e7366657220616d6f756e74206f766572666c6f7773476561723a3a7472616e736665723a20616d6f756e7420657863656564732039362062697473476561723a3a5f6d6f7665566f7465733a20766f746520616d6f756e7420756e646572666c6f7773476561723a3a5f6d6f7665566f7465733a20766f746520616d6f756e74206f766572666c6f7773476561723a3a7065726d69743a20616d6f756e7420657863656564732039362062697473476561723a3a5f7772697465436865636b706f696e743a20626c6f636b206e756d62657220657863656564732033322062697473476561723a3a7472616e7366657246726f6d3a207472616e7366657220616d6f756e742065786365656473207370656e64657220616c6c6f77616e6365476561723a3a5f7472616e73666572546f6b656e733a207472616e7366657220616d6f756e7420657863656564732062616c616e6365a264697066735822122036f365ecbd9fb3208179a24a71c9ef9a4a0fe01a914cb4e6fd32561b418e367264736f6c63430007060033",
  "linkReferences": {},
  "deployedLinkReferences": {}
}