{
  "_format": "hh-sol-artifact-1",
  "contractName": "DataCompressor",
  "sourceName": "contracts/core/DataCompressor.sol",
  "abi": [
    {
      "inputs": [
        {
          "internalType": "address",
          "name": "_addressProvider",
          "type": "address"
        }
      ],
      "stateMutability": "nonpayable",
      "type": "constructor"
    },
    {
      "inputs": [],
      "name": "WETHToken",
      "outputs": [
        {
          "internalType": "address",
          "name": "",
          "type": "address"
        }
      ],
      "stateMutability": "view",
      "type": "function"
    },
    {
      "inputs": [],
      "name": "addressProvider",
      "outputs": [
        {
          "internalType": "contract AddressProvider",
          "name": "",
          "type": "address"
        }
      ],
      "stateMutability": "view",
      "type": "function"
    },
    {
      "inputs": [],
      "name": "contractsRegister",
      "outputs": [
        {
          "internalType": "contract ContractsRegister",
          "name": "",
          "type": "address"
        }
      ],
      "stateMutability": "view",
      "type": "function"
    },
    {
      "inputs": [
        {
          "internalType": "address",
          "name": "_creditManager",
          "type": "address"
        },
        {
          "internalType": "address",
          "name": "_allowedContract",
          "type": "address"
        }
      ],
      "name": "getAdapter",
      "outputs": [
        {
          "internalType": "address",
          "name": "",
          "type": "address"
        }
      ],
      "stateMutability": "view",
      "type": "function"
    },
    {
      "inputs": [
        {
          "internalType": "address",
          "name": "_creditManager",
          "type": "address"
        },
        {
          "internalType": "address",
          "name": "borrower",
          "type": "address"
        }
      ],
      "name": "getCreditAccountData",
      "outputs": [
        {
          "components": [
            {
              "internalType": "address",
              "name": "addr",
              "type": "address"
            },
            {
              "internalType": "address",
              "name": "borrower",
              "type": "address"
            },
            {
              "internalType": "bool",
              "name": "inUse",
              "type": "bool"
            },
            {
              "internalType": "address",
              "name": "creditManager",
              "type": "address"
            },
            {
              "internalType": "address",
              "name": "underlyingToken",
              "type": "address"
            },
            {
              "internalType": "uint256",
              "name": "borrowedAmountPlusInterest",
              "type": "uint256"
            },
            {
              "internalType": "uint256",
              "name": "totalValue",
              "type": "uint256"
            },
            {
              "internalType": "uint256",
              "name": "healthFactor",
              "type": "uint256"
            },
            {
              "internalType": "uint256",
              "name": "borrowRate",
              "type": "uint256"
            },
            {
              "components": [
                {
                  "internalType": "address",
                  "name": "token",
                  "type": "address"
                },
                {
                  "internalType": "uint256",
                  "name": "balance",
                  "type": "uint256"
                }
              ],
              "internalType": "struct DataTypes.TokenBalance[]",
              "name": "balances",
              "type": "tuple[]"
            }
          ],
          "internalType": "struct DataTypes.CreditAccountData",
          "name": "",
          "type": "tuple"
        }
      ],
      "stateMutability": "view",
      "type": "function"
    },
    {
      "inputs": [
        {
          "internalType": "address",
          "name": "creditManager",
          "type": "address"
        },
        {
          "internalType": "address",
          "name": "borrower",
          "type": "address"
        }
      ],
      "name": "getCreditAccountDataExtended",
      "outputs": [
        {
          "components": [
            {
              "internalType": "address",
              "name": "addr",
              "type": "address"
            },
            {
              "internalType": "address",
              "name": "borrower",
              "type": "address"
            },
            {
              "internalType": "bool",
              "name": "inUse",
              "type": "bool"
            },
            {
              "internalType": "address",
              "name": "creditManager",
              "type": "address"
            },
            {
              "internalType": "address",
              "name": "underlyingToken",
              "type": "address"
            },
            {
              "internalType": "uint256",
              "name": "borrowedAmountPlusInterest",
              "type": "uint256"
            },
            {
              "internalType": "uint256",
              "name": "totalValue",
              "type": "uint256"
            },
            {
              "internalType": "uint256",
              "name": "healthFactor",
              "type": "uint256"
            },
            {
              "internalType": "uint256",
              "name": "borrowRate",
              "type": "uint256"
            },
            {
              "components": [
                {
                  "internalType": "address",
                  "name": "token",
                  "type": "address"
                },
                {
                  "internalType": "uint256",
                  "name": "balance",
                  "type": "uint256"
                }
              ],
              "internalType": "struct DataTypes.TokenBalance[]",
              "name": "balances",
              "type": "tuple[]"
            },
            {
              "internalType": "uint256",
              "name": "repayAmount",
              "type": "uint256"
            },
            {
              "internalType": "uint256",
              "name": "liquidationAmount",
              "type": "uint256"
            },
            {
              "internalType": "bool",
              "name": "canBeClosed",
              "type": "bool"
            },
            {
              "internalType": "uint256",
              "name": "borrowedAmount",
              "type": "uint256"
            },
            {
              "internalType": "uint256",
              "name": "cumulativeIndexAtOpen",
              "type": "uint256"
            },
            {
              "internalType": "uint256",
              "name": "since",
              "type": "uint256"
            }
          ],
          "internalType": "struct DataTypes.CreditAccountDataExtended",
          "name": "",
          "type": "tuple"
        }
      ],
      "stateMutability": "view",
      "type": "function"
    },
    {
      "inputs": [
        {
          "internalType": "address",
          "name": "borrower",
          "type": "address"
        }
      ],
      "name": "getCreditAccountList",
      "outputs": [
        {
          "components": [
            {
              "internalType": "address",
              "name": "addr",
              "type": "address"
            },
            {
              "internalType": "address",
              "name": "borrower",
              "type": "address"
            },
            {
              "internalType": "bool",
              "name": "inUse",
              "type": "bool"
            },
            {
              "internalType": "address",
              "name": "creditManager",
              "type": "address"
            },
            {
              "internalType": "address",
              "name": "underlyingToken",
              "type": "address"
            },
            {
              "internalType": "uint256",
              "name": "borrowedAmountPlusInterest",
              "type": "uint256"
            },
            {
              "internalType": "uint256",
              "name": "totalValue",
              "type": "uint256"
            },
            {
              "internalType": "uint256",
              "name": "healthFactor",
              "type": "uint256"
            },
            {
              "internalType": "uint256",
              "name": "borrowRate",
              "type": "uint256"
            },
            {
              "components": [
                {
                  "internalType": "address",
                  "name": "token",
                  "type": "address"
                },
                {
                  "internalType": "uint256",
                  "name": "balance",
                  "type": "uint256"
                }
              ],
              "internalType": "struct DataTypes.TokenBalance[]",
              "name": "balances",
              "type": "tuple[]"
            }
          ],
          "internalType": "struct DataTypes.CreditAccountData[]",
          "name": "",
          "type": "tuple[]"
        }
      ],
      "stateMutability": "view",
      "type": "function"
    },
    {
      "inputs": [
        {
          "internalType": "address",
          "name": "creditAccount",
          "type": "address"
        }
      ],
      "name": "getCreditAccountParameters",
      "outputs": [
        {
          "internalType": "address",
          "name": "_creditManager",
          "type": "address"
        },
        {
          "internalType": "uint256",
          "name": "_borrowedAmount",
          "type": "uint256"
        },
        {
          "internalType": "uint256",
          "name": "_cumulativeIndexAtOpen",
          "type": "uint256"
        },
        {
          "internalType": "uint256",
          "name": "_since",
          "type": "uint256"
        }
      ],
      "stateMutability": "view",
      "type": "function"
    },
    {
      "inputs": [
        {
          "internalType": "address",
          "name": "_creditManager",
          "type": "address"
        },
        {
          "internalType": "address",
          "name": "borrower",
          "type": "address"
        }
      ],
      "name": "getCreditManagerData",
      "outputs": [
        {
          "components": [
            {
              "internalType": "address",
              "name": "addr",
              "type": "address"
            },
            {
              "internalType": "bool",
              "name": "hasAccount",
              "type": "bool"
            },
            {
              "internalType": "address",
              "name": "underlyingToken",
              "type": "address"
            },
            {
              "internalType": "bool",
              "name": "isWETH",
              "type": "bool"
            },
            {
              "internalType": "bool",
              "name": "canBorrow",
              "type": "bool"
            },
            {
              "internalType": "uint256",
              "name": "borrowRate",
              "type": "uint256"
            },
            {
              "internalType": "uint256",
              "name": "minAmount",
              "type": "uint256"
            },
            {
              "internalType": "uint256",
              "name": "maxAmount",
              "type": "uint256"
            },
            {
              "internalType": "uint256",
              "name": "maxLeverageFactor",
              "type": "uint256"
            },
            {
              "internalType": "uint256",
              "name": "availableLiquidity",
              "type": "uint256"
            },
            {
              "internalType": "address[]",
              "name": "allowedTokens",
              "type": "address[]"
            },
            {
              "components": [
                {
                  "internalType": "address",
                  "name": "allowedContract",
                  "type": "address"
                },
                {
                  "internalType": "address",
                  "name": "adapter",
                  "type": "address"
                }
              ],
              "internalType": "struct DataTypes.ContractAdapter[]",
              "name": "adapters",
              "type": "tuple[]"
            }
          ],
          "internalType": "struct DataTypes.CreditManagerData",
          "name": "",
          "type": "tuple"
        }
      ],
      "stateMutability": "view",
      "type": "function"
    },
    {
      "inputs": [
        {
          "internalType": "address",
          "name": "borrower",
          "type": "address"
        }
      ],
      "name": "getCreditManagersList",
      "outputs": [
        {
          "components": [
            {
              "internalType": "address",
              "name": "addr",
              "type": "address"
            },
            {
              "internalType": "bool",
              "name": "hasAccount",
              "type": "bool"
            },
            {
              "internalType": "address",
              "name": "underlyingToken",
              "type": "address"
            },
            {
              "internalType": "bool",
              "name": "isWETH",
              "type": "bool"
            },
            {
              "internalType": "bool",
              "name": "canBorrow",
              "type": "bool"
            },
            {
              "internalType": "uint256",
              "name": "borrowRate",
              "type": "uint256"
            },
            {
              "internalType": "uint256",
              "name": "minAmount",
              "type": "uint256"
            },
            {
              "internalType": "uint256",
              "name": "maxAmount",
              "type": "uint256"
            },
            {
              "internalType": "uint256",
              "name": "maxLeverageFactor",
              "type": "uint256"
            },
            {
              "internalType": "uint256",
              "name": "availableLiquidity",
              "type": "uint256"
            },
            {
              "internalType": "address[]",
              "name": "allowedTokens",
              "type": "address[]"
            },
            {
              "components": [
                {
                  "internalType": "address",
                  "name": "allowedContract",
                  "type": "address"
                },
                {
                  "internalType": "address",
                  "name": "adapter",
                  "type": "address"
                }
              ],
              "internalType": "struct DataTypes.ContractAdapter[]",
              "name": "adapters",
              "type": "tuple[]"
            }
          ],
          "internalType": "struct DataTypes.CreditManagerData[]",
          "name": "",
          "type": "tuple[]"
        }
      ],
      "stateMutability": "view",
      "type": "function"
    },
    {
      "inputs": [
        {
          "internalType": "address",
          "name": "_pool",
          "type": "address"
        }
      ],
      "name": "getPoolData",
      "outputs": [
        {
          "components": [
            {
              "internalType": "address",
              "name": "addr",
              "type": "address"
            },
            {
              "internalType": "bool",
              "name": "isWETH",
              "type": "bool"
            },
            {
              "internalType": "address",
              "name": "underlyingToken",
              "type": "address"
            },
            {
              "internalType": "address",
              "name": "dieselToken",
              "type": "address"
            },
            {
              "internalType": "uint256",
              "name": "linearCumulativeIndex",
              "type": "uint256"
            },
            {
              "internalType": "uint256",
              "name": "availableLiquidity",
              "type": "uint256"
            },
            {
              "internalType": "uint256",
              "name": "expectedLiquidity",
              "type": "uint256"
            },
            {
              "internalType": "uint256",
              "name": "expectedLiquidityLimit",
              "type": "uint256"
            },
            {
              "internalType": "uint256",
              "name": "totalBorrowed",
              "type": "uint256"
            },
            {
              "internalType": "uint256",
              "name": "depositAPY_RAY",
              "type": "uint256"
            },
            {
              "internalType": "uint256",
              "name": "borrowAPY_RAY",
              "type": "uint256"
            },
            {
              "internalType": "uint256",
              "name": "dieselRate_RAY",
              "type": "uint256"
            },
            {
              "internalType": "uint256",
              "name": "withdrawFee",
              "type": "uint256"
            }
          ],
          "internalType": "struct DataTypes.PoolData",
          "name": "",
          "type": "tuple"
        }
      ],
      "stateMutability": "view",
      "type": "function"
    },
    {
      "inputs": [],
      "name": "getPoolsList",
      "outputs": [
        {
          "components": [
            {
              "internalType": "address",
              "name": "addr",
              "type": "address"
            },
            {
              "internalType": "bool",
              "name": "isWETH",
              "type": "bool"
            },
            {
              "internalType": "address",
              "name": "underlyingToken",
              "type": "address"
            },
            {
              "internalType": "address",
              "name": "dieselToken",
              "type": "address"
            },
            {
              "internalType": "uint256",
              "name": "linearCumulativeIndex",
              "type": "uint256"
            },
            {
              "internalType": "uint256",
              "name": "availableLiquidity",
              "type": "uint256"
            },
            {
              "internalType": "uint256",
              "name": "expectedLiquidity",
              "type": "uint256"
            },
            {
              "internalType": "uint256",
              "name": "expectedLiquidityLimit",
              "type": "uint256"
            },
            {
              "internalType": "uint256",
              "name": "totalBorrowed",
              "type": "uint256"
            },
            {
              "internalType": "uint256",
              "name": "depositAPY_RAY",
              "type": "uint256"
            },
            {
              "internalType": "uint256",
              "name": "borrowAPY_RAY",
              "type": "uint256"
            },
            {
              "internalType": "uint256",
              "name": "dieselRate_RAY",
              "type": "uint256"
            },
            {
              "internalType": "uint256",
              "name": "withdrawFee",
              "type": "uint256"
            }
          ],
          "internalType": "struct DataTypes.PoolData[]",
          "name": "",
          "type": "tuple[]"
        }
      ],
      "stateMutability": "view",
      "type": "function"
    },
    {
      "inputs": [
        {
          "internalType": "address",
          "name": "addr",
          "type": "address"
        }
      ],
      "name": "getTokenData",
      "outputs": [
        {
          "components": [
            {
              "internalType": "address",
              "name": "addr",
              "type": "address"
            },
            {
              "internalType": "string",
              "name": "symbol",
              "type": "string"
            },
            {
              "internalType": "uint8",
              "name": "decimals",
              "type": "uint8"
            }
          ],
          "internalType": "struct DataTypes.TokenInfo",
          "name": "",
          "type": "tuple"
        }
      ],
      "stateMutability": "view",
      "type": "function"
    }
  ],
  "bytecode": "0x60c06040523480156200001157600080fd5b506040516200555838038062005558833981810160405281019062000037919062000245565b806000806101000a81548173ffffffffffffffffffffffffffffffffffffffff021916908373ffffffffffffffffffffffffffffffffffffffff16021790555060008054906101000a900473ffffffffffffffffffffffffffffffffffffffff1673ffffffffffffffffffffffffffffffffffffffff1663c513c9bb6040518163ffffffff1660e01b815260040160206040518083038186803b158015620000de57600080fd5b505afa158015620000f3573d6000803e3d6000fd5b505050506040513d601f19601f8201168201806040525081019062000119919062000245565b73ffffffffffffffffffffffffffffffffffffffff1660808173ffffffffffffffffffffffffffffffffffffffff1660601b8152505060008054906101000a900473ffffffffffffffffffffffffffffffffffffffff1673ffffffffffffffffffffffffffffffffffffffff16634c252f916040518163ffffffff1660e01b815260040160206040518083038186803b158015620001b657600080fd5b505afa158015620001cb573d6000803e3d6000fd5b505050506040513d601f19601f82011682018060405250810190620001f1919062000245565b73ffffffffffffffffffffffffffffffffffffffff1660a08173ffffffffffffffffffffffffffffffffffffffff1660601b8152505050620002bf565b6000815190506200023f81620002a5565b92915050565b6000602082840312156200025857600080fd5b600062000268848285016200022e565b91505092915050565b60006200027e8262000285565b9050919050565b600073ffffffffffffffffffffffffffffffffffffffff82169050919050565b620002b08162000271565b8114620002bc57600080fd5b50565b60805160601c60a05160601c61522462000334600039806113fa5280611ff85280612a2f52508061030a5280610c66528061176e5280611def5280611ef2528061201f528061224f5280612279528061232052806124ce528061257552806126fa52806134d652806135d952506152246000f3fe608060405234801561001057600080fd5b50600436106100cf5760003560e01c80634b2f336d1161008c578063a80deda311610066578063a80deda31461023c578063b10b074e1461026c578063b5b12cd71461029c578063b8169039146102cf576100cf565b80634b2f336d146101d05780634c472fc9146101ee5780637a0c7b211461021e576100cf565b80630dbd616d146100d457806313d21cdf1461010457806313ff7e9f14610134578063191482d4146101645780631bcd8fc0146101945780632954018c146101b2575b600080fd5b6100ee60048036038101906100e99190613e56565b6102ff565b6040516100fb9190614de4565b60405180910390f35b61011e60048036038101906101199190613e04565b610c5b565b60405161012b9190614e28565b60405180910390f35b61014e60048036038101906101499190613e04565b6115f2565b60405161015b9190614e44565b60405180910390f35b61017e60048036038101906101799190613e56565b611763565b60405161018b9190614dc2565b60405180910390f35b61019c611de9565b6040516101a99190614d48565b60405180910390f35b6101ba611fd2565b6040516101c79190614d6a565b60405180910390f35b6101d8611ff6565b6040516101e59190614c1b565b60405180910390f35b61020860048036038101906102039190613e56565b61201a565b6040516102159190614c1b565b60405180910390f35b61022661224d565b6040516102339190614d85565b60405180910390f35b61025660048036038101906102519190613e04565b612271565b6040516102639190614d04565b60405180910390f35b61028660048036038101906102819190613e56565b6126ef565b6040516102939190614e06565b60405180910390f35b6102b660048036038101906102b19190613e04565b6132bd565b6040516102c69493929190614cbf565b60405180910390f35b6102e960048036038101906102e49190613e04565b6134d0565b6040516102f69190614d26565b60405180910390f35b6103076139a9565b827f000000000000000000000000000000000000000000000000000000000000000073ffffffffffffffffffffffffffffffffffffffff16636fbc6f6b826040518263ffffffff1660e01b81526004016103619190614c1b565b60206040518083038186803b15801561037957600080fd5b505afa15801561038d573d6000803e3d6000fd5b505050506040513d601f19601f820116820180604052508101906103b19190613ef5565b6040518060400160405280600281526020017f573300000000000000000000000000000000000000000000000000000000000081525090610428576040517f08c379a000000000000000000000000000000000000000000000000000000000815260040161041f9190614da0565b60405180910390fd5b5060008490508073ffffffffffffffffffffffffffffffffffffffff1663256ac915856040518263ffffffff1660e01b81526004016104679190614c1b565b60206040518083038186803b15801561047f57600080fd5b505afa158015610493573d6000803e3d6000fd5b505050506040513d601f19601f820116820180604052508101906104b79190613ef5565b6040518060400160405280600281526020017f56310000000000000000000000000000000000000000000000000000000000008152509061052e576040517f08c379a00000000000000000000000000000000000000000000000000000000081526004016105259190614da0565b60405180910390fd5b506105376139a9565b84816020019073ffffffffffffffffffffffffffffffffffffffff16908173ffffffffffffffffffffffffffffffffffffffff168152505085816060019073ffffffffffffffffffffffffffffffffffffffff16908173ffffffffffffffffffffffffffffffffffffffff168152505060008273ffffffffffffffffffffffffffffffffffffffff1663055ee9b5876040518263ffffffff1660e01b81526004016105e29190614c1b565b60206040518083038186803b1580156105fa57600080fd5b505afa15801561060e573d6000803e3d6000fd5b505050506040513d601f19601f820116820180604052508101906106329190613e2d565b905080826000019073ffffffffffffffffffffffffffffffffffffffff16908173ffffffffffffffffffffffffffffffffffffffff168152505060008373ffffffffffffffffffffffffffffffffffffffff1663f93f515b6040518163ffffffff1660e01b815260040160206040518083038186803b1580156106b457600080fd5b505afa1580156106c8573d6000803e3d6000fd5b505050506040513d601f19601f820116820180604052508101906106ec9190613f1e565b90508073ffffffffffffffffffffffffffffffffffffffff16632495a5996040518163ffffffff1660e01b815260040160206040518083038186803b15801561073457600080fd5b505afa158015610748573d6000803e3d6000fd5b505050506040513d601f19601f8201168201806040525081019061076c9190613e2d565b836080019073ffffffffffffffffffffffffffffffffffffffff16908173ffffffffffffffffffffffffffffffffffffffff16815250508073ffffffffffffffffffffffffffffffffffffffff1663c7de38a6836040518263ffffffff1660e01b81526004016107dc9190614c1b565b60206040518083038186803b1580156107f457600080fd5b505afa158015610808573d6000803e3d6000fd5b505050506040513d601f19601f8201168201806040525081019061082c9190613f88565b8360c00181815250508073ffffffffffffffffffffffffffffffffffffffff1663dfd59465836040518263ffffffff1660e01b815260040161086e9190614c1b565b60206040518083038186803b15801561088657600080fd5b505afa15801561089a573d6000803e3d6000fd5b505050506040513d601f19601f820116820180604052508101906108be9190613f88565b8360e001818152505060008473ffffffffffffffffffffffffffffffffffffffff1663570a7af26040518163ffffffff1660e01b815260040160206040518083038186803b15801561090f57600080fd5b505afa158015610923573d6000803e3d6000fd5b505050506040513d601f19601f820116820180604052508101906109479190613e2d565b90508073ffffffffffffffffffffffffffffffffffffffff166345d31f9d6040518163ffffffff1660e01b815260040160206040518083038186803b15801561098f57600080fd5b505afa1580156109a3573d6000803e3d6000fd5b505050506040513d601f19601f820116820180604052508101906109c79190613f88565b8461010001818152505060008273ffffffffffffffffffffffffffffffffffffffff166320a05ff76040518163ffffffff1660e01b815260040160206040518083038186803b158015610a1957600080fd5b505afa158015610a2d573d6000803e3d6000fd5b505050506040513d601f19601f82011682018060405250810190610a519190613f88565b90508067ffffffffffffffff81118015610a6a57600080fd5b50604051908082528060200260200182016040528015610aa457816020015b610a91613a56565b815260200190600190039081610a895790505b5085610120018190525060005b81811015610bb857610ac1613a56565b8473ffffffffffffffffffffffffffffffffffffffff1663af0a650287846040518363ffffffff1660e01b8152600401610afc929190614c5f565b60806040518083038186803b158015610b1457600080fd5b505afa158015610b28573d6000803e3d6000fd5b505050506040513d601f19601f82011682018060405250810190610b4c9190613e92565b9050508260000183602001828152508273ffffffffffffffffffffffffffffffffffffffff1673ffffffffffffffffffffffffffffffffffffffff168152505050808761012001518381518110610b9f57fe5b6020026020010181905250508080600101915050610ab1565b508273ffffffffffffffffffffffffffffffffffffffff16633192195c856040518263ffffffff1660e01b8152600401610bf29190614c1b565b60206040518083038186803b158015610c0a57600080fd5b505afa158015610c1e573d6000803e3d6000fd5b505050506040513d601f19601f82011682018060405250810190610c429190613f88565b8560a00181815250508497505050505050505092915050565b610c63613a86565b817f000000000000000000000000000000000000000000000000000000000000000073ffffffffffffffffffffffffffffffffffffffff16635b16ebb7826040518263ffffffff1660e01b8152600401610cbd9190614c1b565b60206040518083038186803b158015610cd557600080fd5b505afa158015610ce9573d6000803e3d6000fd5b505050506040513d601f19601f82011682018060405250810190610d0d9190613ef5565b6040518060400160405280600281526020017f573200000000000000000000000000000000000000000000000000000000000081525090610d84576040517f08c379a0000000000000000000000000000000000000000000000000000000008152600401610d7b9190614da0565b60405180910390fd5b50610d8d613a86565b600084905084826000019073ffffffffffffffffffffffffffffffffffffffff16908173ffffffffffffffffffffffffffffffffffffffff16815250508073ffffffffffffffffffffffffffffffffffffffff1663fe14112d6040518163ffffffff1660e01b815260040160206040518083038186803b158015610e1057600080fd5b505afa158015610e24573d6000803e3d6000fd5b505050506040513d601f19601f82011682018060405250810190610e489190613f88565b8260c00181815250508073ffffffffffffffffffffffffffffffffffffffff1663ef8d96036040518163ffffffff1660e01b815260040160206040518083038186803b158015610e9757600080fd5b505afa158015610eab573d6000803e3d6000fd5b505050506040513d601f19601f82011682018060405250810190610ecf9190613f88565b8260e00181815250508073ffffffffffffffffffffffffffffffffffffffff1663743753596040518163ffffffff1660e01b815260040160206040518083038186803b158015610f1e57600080fd5b505afa158015610f32573d6000803e3d6000fd5b505050506040513d601f19601f82011682018060405250810190610f569190613f88565b8260a00181815250508073ffffffffffffffffffffffffffffffffffffffff16634c19386c6040518163ffffffff1660e01b815260040160206040518083038186803b158015610fa557600080fd5b505afa158015610fb9573d6000803e3d6000fd5b505050506040513d601f19601f82011682018060405250810190610fdd9190613f88565b826101000181815250508073ffffffffffffffffffffffffffffffffffffffff1663788c6bfe6040518163ffffffff1660e01b815260040160206040518083038186803b15801561102d57600080fd5b505afa158015611041573d6000803e3d6000fd5b505050506040513d601f19601f820116820180604052508101906110659190613f88565b826101600181815250508073ffffffffffffffffffffffffffffffffffffffff16630fce70fb6040518163ffffffff1660e01b815260040160206040518083038186803b1580156110b557600080fd5b505afa1580156110c9573d6000803e3d6000fd5b505050506040513d601f19601f820116820180604052508101906110ed9190613f88565b8260800181815250508073ffffffffffffffffffffffffffffffffffffffff166345d31f9d6040518163ffffffff1660e01b815260040160206040518083038186803b15801561113c57600080fd5b505afa158015611150573d6000803e3d6000fd5b505050506040513d601f19601f820116820180604052508101906111749190613f88565b826101400181815250508073ffffffffffffffffffffffffffffffffffffffff16632495a5996040518163ffffffff1660e01b815260040160206040518083038186803b1580156111c457600080fd5b505afa1580156111d8573d6000803e3d6000fd5b505050506040513d601f19601f820116820180604052508101906111fc9190613e2d565b826040019073ffffffffffffffffffffffffffffffffffffffff16908173ffffffffffffffffffffffffffffffffffffffff16815250508073ffffffffffffffffffffffffffffffffffffffff166336dda7d56040518163ffffffff1660e01b815260040160206040518083038186803b15801561127957600080fd5b505afa15801561128d573d6000803e3d6000fd5b505050506040513d601f19601f820116820180604052508101906112b19190613e2d565b826060019073ffffffffffffffffffffffffffffffffffffffff16908173ffffffffffffffffffffffffffffffffffffffff16815250508073ffffffffffffffffffffffffffffffffffffffff1663788c6bfe6040518163ffffffff1660e01b815260040160206040518083038186803b15801561132e57600080fd5b505afa158015611342573d6000803e3d6000fd5b505050506040513d601f19601f820116820180604052508101906113669190613f88565b826101600181815250508073ffffffffffffffffffffffffffffffffffffffff1663e941fa786040518163ffffffff1660e01b815260040160206040518083038186803b1580156113b657600080fd5b505afa1580156113ca573d6000803e3d6000fd5b505050506040513d601f19601f820116820180604052508101906113ee9190613f88565b826101800181815250507f000000000000000000000000000000000000000000000000000000000000000073ffffffffffffffffffffffffffffffffffffffff16826040015173ffffffffffffffffffffffffffffffffffffffff16148260200190151590811515815250506000826060015173ffffffffffffffffffffffffffffffffffffffff166318160ddd6040518163ffffffff1660e01b815260040160206040518083038186803b1580156114a657600080fd5b505afa1580156114ba573d6000803e3d6000fd5b505050506040513d601f19601f820116820180604052508101906114de9190613f88565b905060008273ffffffffffffffffffffffffffffffffffffffff16635427c938836040518263ffffffff1660e01b815260040161151b9190614e66565b60206040518083038186803b15801561153357600080fd5b505afa158015611547573d6000803e3d6000fd5b505050506040513d601f19601f8201168201806040525081019061156b9190613f88565b9050600081146115d4576115cf816115c16115968761018001516127106136bc90919063ffffffff16565b6115b388610100015189610140015161373f90919063ffffffff16565b6137c590919063ffffffff16565b61392090919063ffffffff16565b6115db565b8361014001515b846101200181815250508395505050505050919050565b6115fa613b32565b611602613b32565b600083905083826000019073ffffffffffffffffffffffffffffffffffffffff16908173ffffffffffffffffffffffffffffffffffffffff16815250508073ffffffffffffffffffffffffffffffffffffffff1663313ce5676040518163ffffffff1660e01b815260040160206040518083038186803b15801561168557600080fd5b505afa158015611699573d6000803e3d6000fd5b505050506040513d601f19601f820116820180604052508101906116bd9190614028565b826040019060ff16908160ff16815250508073ffffffffffffffffffffffffffffffffffffffff166395d89b416040518163ffffffff1660e01b815260040160006040518083038186803b15801561171457600080fd5b505afa158015611728573d6000803e3d6000fd5b505050506040513d6000823e3d601f19601f820116820180604052508101906117519190613f47565b82602001819052508192505050919050565b61176b613b6c565b827f000000000000000000000000000000000000000000000000000000000000000073ffffffffffffffffffffffffffffffffffffffff16636fbc6f6b826040518263ffffffff1660e01b81526004016117c59190614c1b565b60206040518083038186803b1580156117dd57600080fd5b505afa1580156117f1573d6000803e3d6000fd5b505050506040513d601f19601f820116820180604052508101906118159190613ef5565b6040518060400160405280600281526020017f57330000000000000000000000000000000000000000000000000000000000008152509061188c576040517f08c379a00000000000000000000000000000000000000000000000000000000081526004016118839190614da0565b60405180910390fd5b50611895613b6c565b60006118a186866102ff565b90508060000151826000019073ffffffffffffffffffffffffffffffffffffffff16908173ffffffffffffffffffffffffffffffffffffffff16815250508060200151826020019073ffffffffffffffffffffffffffffffffffffffff16908173ffffffffffffffffffffffffffffffffffffffff16815250508060600151826060019073ffffffffffffffffffffffffffffffffffffffff16908173ffffffffffffffffffffffffffffffffffffffff16815250508060800151826080019073ffffffffffffffffffffffffffffffffffffffff16908173ffffffffffffffffffffffffffffffffffffffff16815250508060a001518260a00181815250508060c001518260c00181815250508060e001518260e00181815250508061010001518261010001818152505080610120015182610120018190525060008673ffffffffffffffffffffffffffffffffffffffff1663e958b704876040518263ffffffff1660e01b8152600401611a179190614c1b565b60206040518083038186803b158015611a2f57600080fd5b505afa158015611a43573d6000803e3d6000fd5b505050506040513d601f19601f82011682018060405250810190611a679190613e2d565b90508073ffffffffffffffffffffffffffffffffffffffff16631afbb7a46040518163ffffffff1660e01b815260040160206040518083038186803b158015611aaf57600080fd5b505afa158015611ac3573d6000803e3d6000fd5b505050506040513d601f19601f82011682018060405250810190611ae79190613f88565b836101a00181815250508073ffffffffffffffffffffffffffffffffffffffff166317d11a156040518163ffffffff1660e01b815260040160206040518083038186803b158015611b3757600080fd5b505afa158015611b4b573d6000803e3d6000fd5b505050506040513d601f19601f82011682018060405250810190611b6f9190613f88565b836101c00181815250508073ffffffffffffffffffffffffffffffffffffffff16633dc54b406040518163ffffffff1660e01b815260040160206040518083038186803b158015611bbf57600080fd5b505afa158015611bd3573d6000803e3d6000fd5b505050506040513d601f19601f82011682018060405250810190611bf79190613f88565b836101e00181815250508673ffffffffffffffffffffffffffffffffffffffff16633ce073558760006040518363ffffffff1660e01b8152600401611c3d929190614c36565b60206040518083038186803b158015611c5557600080fd5b505afa158015611c69573d6000803e3d6000fd5b505050506040513d601f19601f82011682018060405250810190611c8d9190613f88565b836101400181815250508673ffffffffffffffffffffffffffffffffffffffff16633ce073558760016040518363ffffffff1660e01b8152600401611cd3929190614c36565b60206040518083038186803b158015611ceb57600080fd5b505afa158015611cff573d6000803e3d6000fd5b505050506040513d601f19601f82011682018060405250810190611d239190613f88565b8361016001818152505060008773ffffffffffffffffffffffffffffffffffffffff1663996329f8838560c0015160006040518463ffffffff1660e01b8152600401611d7193929190614c88565b60a06040518083038186803b158015611d8957600080fd5b505afa158015611d9d573d6000803e3d6000fd5b505050506040513d601f19601f82011682018060405250810190611dc19190613fb1565b9450505050506000811484610180019015159081151581525050839550505050505092915050565b606060007f000000000000000000000000000000000000000000000000000000000000000073ffffffffffffffffffffffffffffffffffffffff1663b4ac68606040518163ffffffff1660e01b815260040160206040518083038186803b158015611e5357600080fd5b505afa158015611e67573d6000803e3d6000fd5b505050506040513d601f19601f82011682018060405250810190611e8b9190613f88565b905060008167ffffffffffffffff81118015611ea657600080fd5b50604051908082528060200260200182016040528015611ee057816020015b611ecd613a86565b815260200190600190039081611ec55790505b50905060005b82811015611fc95760007f000000000000000000000000000000000000000000000000000000000000000073ffffffffffffffffffffffffffffffffffffffff1663ac4afa38836040518263ffffffff1660e01b8152600401611f499190614e66565b60206040518083038186803b158015611f6157600080fd5b505afa158015611f75573d6000803e3d6000fd5b505050506040513d601f19601f82011682018060405250810190611f999190613e2d565b9050611fa481610c5b565b838381518110611fb057fe5b6020026020010181905250508080600101915050611ee6565b50809250505090565b60008054906101000a900473ffffffffffffffffffffffffffffffffffffffff1681565b7f000000000000000000000000000000000000000000000000000000000000000081565b6000827f000000000000000000000000000000000000000000000000000000000000000073ffffffffffffffffffffffffffffffffffffffff16636fbc6f6b826040518263ffffffff1660e01b81526004016120769190614c1b565b60206040518083038186803b15801561208e57600080fd5b505afa1580156120a2573d6000803e3d6000fd5b505050506040513d601f19601f820116820180604052508101906120c69190613ef5565b6040518060400160405280600281526020017f57330000000000000000000000000000000000000000000000000000000000008152509061213d576040517f08c379a00000000000000000000000000000000000000000000000000000000081526004016121349190614da0565b60405180910390fd5b508373ffffffffffffffffffffffffffffffffffffffff1663f93f515b6040518163ffffffff1660e01b815260040160206040518083038186803b15801561218457600080fd5b505afa158015612198573d6000803e3d6000fd5b505050506040513d601f19601f820116820180604052508101906121bc9190613f1e565b73ffffffffffffffffffffffffffffffffffffffff1663fdd57645846040518263ffffffff1660e01b81526004016121f49190614c1b565b60206040518083038186803b15801561220c57600080fd5b505afa158015612220573d6000803e3d6000fd5b505050506040513d601f19601f820116820180604052508101906122449190613e2d565b91505092915050565b7f000000000000000000000000000000000000000000000000000000000000000081565b60606000805b7f000000000000000000000000000000000000000000000000000000000000000073ffffffffffffffffffffffffffffffffffffffff1663c29277cd6040518163ffffffff1660e01b815260040160206040518083038186803b1580156122dd57600080fd5b505afa1580156122f1573d6000803e3d6000fd5b505050506040513d601f19601f820116820180604052508101906123159190613f88565b81101561246e5760007f000000000000000000000000000000000000000000000000000000000000000073ffffffffffffffffffffffffffffffffffffffff16631e16e4fc836040518263ffffffff1660e01b81526004016123779190614e66565b60206040518083038186803b15801561238f57600080fd5b505afa1580156123a3573d6000803e3d6000fd5b505050506040513d601f19601f820116820180604052508101906123c79190613e2d565b90508073ffffffffffffffffffffffffffffffffffffffff1663256ac915866040518263ffffffff1660e01b81526004016124029190614c1b565b60206040518083038186803b15801561241a57600080fd5b505afa15801561242e573d6000803e3d6000fd5b505050506040513d601f19601f820116820180604052508101906124529190613ef5565b156124605782806001019350505b508080600101915050612277565b5060008167ffffffffffffffff8111801561248857600080fd5b506040519080825280602002602001820160405280156124c257816020015b6124af6139a9565b8152602001906001900390816124a75790505b5090506000915060005b7f000000000000000000000000000000000000000000000000000000000000000073ffffffffffffffffffffffffffffffffffffffff1663c29277cd6040518163ffffffff1660e01b815260040160206040518083038186803b15801561253257600080fd5b505afa158015612546573d6000803e3d6000fd5b505050506040513d601f19601f8201168201806040525081019061256a9190613f88565b8110156126e45760007f000000000000000000000000000000000000000000000000000000000000000073ffffffffffffffffffffffffffffffffffffffff16631e16e4fc836040518263ffffffff1660e01b81526004016125cc9190614e66565b60206040518083038186803b1580156125e457600080fd5b505afa1580156125f8573d6000803e3d6000fd5b505050506040513d601f19601f8201168201806040525081019061261c9190613e2d565b90508073ffffffffffffffffffffffffffffffffffffffff1663256ac915876040518263ffffffff1660e01b81526004016126579190614c1b565b60206040518083038186803b15801561266f57600080fd5b505afa158015612683573d6000803e3d6000fd5b505050506040513d601f19601f820116820180604052508101906126a79190613ef5565b156126d6576126b681876102ff565b8385815181106126c257fe5b602002602001018190525083806001019450505b5080806001019150506124cc565b508092505050919050565b6126f7613c45565b827f000000000000000000000000000000000000000000000000000000000000000073ffffffffffffffffffffffffffffffffffffffff16636fbc6f6b826040518263ffffffff1660e01b81526004016127519190614c1b565b60206040518083038186803b15801561276957600080fd5b505afa15801561277d573d6000803e3d6000fd5b505050506040513d601f19601f820116820180604052508101906127a19190613ef5565b6040518060400160405280600281526020017f573300000000000000000000000000000000000000000000000000000000000081525090612818576040517f08c379a000000000000000000000000000000000000000000000000000000000815260040161280f9190614da0565b60405180910390fd5b506000849050612826613c45565b85816000019073ffffffffffffffffffffffffffffffffffffffff16908173ffffffffffffffffffffffffffffffffffffffff16815250508173ffffffffffffffffffffffffffffffffffffffff1663256ac915866040518263ffffffff1660e01b81526004016128979190614c1b565b60206040518083038186803b1580156128af57600080fd5b505afa1580156128c3573d6000803e3d6000fd5b505050506040513d601f19601f820116820180604052508101906128e79190613ef5565b81602001901515908115158152505060008273ffffffffffffffffffffffffffffffffffffffff1663f93f515b6040518163ffffffff1660e01b815260040160206040518083038186803b15801561293e57600080fd5b505afa158015612952573d6000803e3d6000fd5b505050506040513d601f19601f820116820180604052508101906129769190613f1e565b90508073ffffffffffffffffffffffffffffffffffffffff16632495a5996040518163ffffffff1660e01b815260040160206040518083038186803b1580156129be57600080fd5b505afa1580156129d2573d6000803e3d6000fd5b505050506040513d601f19601f820116820180604052508101906129f69190613e2d565b826040019073ffffffffffffffffffffffffffffffffffffffff16908173ffffffffffffffffffffffffffffffffffffffff16815250507f000000000000000000000000000000000000000000000000000000000000000073ffffffffffffffffffffffffffffffffffffffff16826040015173ffffffffffffffffffffffffffffffffffffffff161482606001901515908115158152505060008373ffffffffffffffffffffffffffffffffffffffff1663570a7af26040518163ffffffff1660e01b815260040160206040518083038186803b158015612ad757600080fd5b505afa158015612aeb573d6000803e3d6000fd5b505050506040513d601f19601f82011682018060405250810190612b0f9190613e2d565b90508073ffffffffffffffffffffffffffffffffffffffff16632e97ca21896040518263ffffffff1660e01b8152600401612b4a9190614c1b565b60206040518083038186803b158015612b6257600080fd5b505afa158015612b76573d6000803e3d6000fd5b505050506040513d601f19601f82011682018060405250810190612b9a9190613ef5565b8360800190151590811515815250508073ffffffffffffffffffffffffffffffffffffffff166345d31f9d6040518163ffffffff1660e01b815260040160206040518083038186803b158015612bef57600080fd5b505afa158015612c03573d6000803e3d6000fd5b505050506040513d601f19601f82011682018060405250810190612c279190613f88565b8360a00181815250508073ffffffffffffffffffffffffffffffffffffffff1663743753596040518163ffffffff1660e01b815260040160206040518083038186803b158015612c7657600080fd5b505afa158015612c8a573d6000803e3d6000fd5b505050506040513d601f19601f82011682018060405250810190612cae9190613f88565b836101200181815250508373ffffffffffffffffffffffffffffffffffffffff16639b2cb5d86040518163ffffffff1660e01b815260040160206040518083038186803b158015612cfe57600080fd5b505afa158015612d12573d6000803e3d6000fd5b505050506040513d601f19601f82011682018060405250810190612d369190613f88565b8360c00181815250508373ffffffffffffffffffffffffffffffffffffffff16635f48f3936040518163ffffffff1660e01b815260040160206040518083038186803b158015612d8557600080fd5b505afa158015612d99573d6000803e3d6000fd5b505050506040513d601f19601f82011682018060405250810190612dbd9190613f88565b8360e00181815250508373ffffffffffffffffffffffffffffffffffffffff1663b2c53a6c6040518163ffffffff1660e01b815260040160206040518083038186803b158015612e0c57600080fd5b505afa158015612e20573d6000803e3d6000fd5b505050506040513d601f19601f82011682018060405250810190612e449190613f88565b8361010001818152505060008273ffffffffffffffffffffffffffffffffffffffff166320a05ff76040518163ffffffff1660e01b815260040160206040518083038186803b158015612e9657600080fd5b505afa158015612eaa573d6000803e3d6000fd5b505050506040513d601f19601f82011682018060405250810190612ece9190613f88565b90508067ffffffffffffffff81118015612ee757600080fd5b50604051908082528060200260200182016040528015612f165781602001602082028036833780820191505090505b5084610140018190525060005b8181101561300c578373ffffffffffffffffffffffffffffffffffffffff16635e5f2e26826040518263ffffffff1660e01b8152600401612f649190614e66565b60206040518083038186803b158015612f7c57600080fd5b505afa158015612f90573d6000803e3d6000fd5b505050506040513d601f19601f82011682018060405250810190612fb49190613e2d565b8561014001518281518110612fc557fe5b602002602001019073ffffffffffffffffffffffffffffffffffffffff16908173ffffffffffffffffffffffffffffffffffffffff16815250508080600101915050612f23565b5060008373ffffffffffffffffffffffffffffffffffffffff166350e036ff6040518163ffffffff1660e01b815260040160206040518083038186803b15801561305557600080fd5b505afa158015613069573d6000803e3d6000fd5b505050506040513d601f19601f8201168201806040525081019061308d9190613f88565b90508067ffffffffffffffff811180156130a657600080fd5b506040519080825280602002602001820160405280156130e057816020015b6130cd613cd8565b8152602001906001900390816130c55790505b5085610160018190525060005b818110156132ac576130fd613cd8565b8573ffffffffffffffffffffffffffffffffffffffff16635094cb4f836040518263ffffffff1660e01b81526004016131369190614e66565b60206040518083038186803b15801561314e57600080fd5b505afa158015613162573d6000803e3d6000fd5b505050506040513d601f19601f820116820180604052508101906131869190613e2d565b816000019073ffffffffffffffffffffffffffffffffffffffff16908173ffffffffffffffffffffffffffffffffffffffff16815250508573ffffffffffffffffffffffffffffffffffffffff1663fdd5764582600001516040518263ffffffff1660e01b81526004016131fa9190614c1b565b60206040518083038186803b15801561321257600080fd5b505afa158015613226573d6000803e3d6000fd5b505050506040513d601f19601f8201168201806040525081019061324a9190613e2d565b816020019073ffffffffffffffffffffffffffffffffffffffff16908173ffffffffffffffffffffffffffffffffffffffff168152505080876101600151838151811061329357fe5b60200260200101819052505080806001019150506130ed565b508497505050505050505092915050565b60008060008060008590508073ffffffffffffffffffffffffffffffffffffffff1663c12c21c06040518163ffffffff1660e01b815260040160206040518083038186803b15801561330e57600080fd5b505afa158015613322573d6000803e3d6000fd5b505050506040513d601f19601f820116820180604052508101906133469190613e2d565b94508073ffffffffffffffffffffffffffffffffffffffff16631afbb7a46040518163ffffffff1660e01b815260040160206040518083038186803b15801561338e57600080fd5b505afa1580156133a2573d6000803e3d6000fd5b505050506040513d601f19601f820116820180604052508101906133c69190613f88565b93508073ffffffffffffffffffffffffffffffffffffffff166317d11a156040518163ffffffff1660e01b815260040160206040518083038186803b15801561340e57600080fd5b505afa158015613422573d6000803e3d6000fd5b505050506040513d601f19601f820116820180604052508101906134469190613f88565b92508073ffffffffffffffffffffffffffffffffffffffff16633dc54b406040518163ffffffff1660e01b815260040160206040518083038186803b15801561348e57600080fd5b505afa1580156134a2573d6000803e3d6000fd5b505050506040513d601f19601f820116820180604052508101906134c69190613f88565b9150509193509193565b606060007f000000000000000000000000000000000000000000000000000000000000000073ffffffffffffffffffffffffffffffffffffffff1663c29277cd6040518163ffffffff1660e01b815260040160206040518083038186803b15801561353a57600080fd5b505afa15801561354e573d6000803e3d6000fd5b505050506040513d601f19601f820116820180604052508101906135729190613f88565b905060008167ffffffffffffffff8111801561358d57600080fd5b506040519080825280602002602001820160405280156135c757816020015b6135b4613c45565b8152602001906001900390816135ac5790505b50905060005b828110156136b15760007f000000000000000000000000000000000000000000000000000000000000000073ffffffffffffffffffffffffffffffffffffffff16631e16e4fc836040518263ffffffff1660e01b81526004016136309190614e66565b60206040518083038186803b15801561364857600080fd5b505afa15801561365c573d6000803e3d6000fd5b505050506040513d601f19601f820116820180604052508101906136809190613e2d565b905061368c81876126ef565b83838151811061369857fe5b60200260200101819052505080806001019150506135cd565b508092505050919050565b600082821115613734576040517f08c379a000000000000000000000000000000000000000000000000000000000815260040180806020018281038252601e8152602001807f536166654d6174683a207375627472616374696f6e206f766572666c6f77000081525060200191505060405180910390fd5b818303905092915050565b60008083141561375257600090506137bf565b600082840290508284828161376357fe5b04146137ba576040517f08c379a00000000000000000000000000000000000000000000000000000000081526004018080602001828103825260218152602001806151ce6021913960400191505060405180910390fd5b809150505b92915050565b6000808314806137d55750600082145b156137e3576000905061391a565b816002612710816137f057fe5b047fffffffffffffffffffffffffffffffffffffffffffffffffffffffffffffffff038161381a57fe5b048311156040518060400160405280600281526020017f4d31000000000000000000000000000000000000000000000000000000000000815250906138fa576040517f08c379a00000000000000000000000000000000000000000000000000000000081526004018080602001828103825283818151815260200191508051906020019080838360005b838110156138bf5780820151818401526020810190506138a4565b50505050905090810190601f1680156138ec5780820380516001836020036101000a031916815260200191505b509250505060405180910390fd5b5061271060026127108161390a57fe5b04838502018161391657fe5b0490505b92915050565b6000808211613997576040517f08c379a000000000000000000000000000000000000000000000000000000000815260040180806020018281038252601a8152602001807f536166654d6174683a206469766973696f6e206279207a65726f00000000000081525060200191505060405180910390fd5b8183816139a057fe5b04905092915050565b604051806101400160405280600073ffffffffffffffffffffffffffffffffffffffff168152602001600073ffffffffffffffffffffffffffffffffffffffff168152602001600015158152602001600073ffffffffffffffffffffffffffffffffffffffff168152602001600073ffffffffffffffffffffffffffffffffffffffff16815260200160008152602001600081526020016000815260200160008152602001606081525090565b6040518060400160405280600073ffffffffffffffffffffffffffffffffffffffff168152602001600081525090565b604051806101a00160405280600073ffffffffffffffffffffffffffffffffffffffff168152602001600015158152602001600073ffffffffffffffffffffffffffffffffffffffff168152602001600073ffffffffffffffffffffffffffffffffffffffff1681526020016000815260200160008152602001600081526020016000815260200160008152602001600081526020016000815260200160008152602001600081525090565b6040518060600160405280600073ffffffffffffffffffffffffffffffffffffffff16815260200160608152602001600060ff1681525090565b604051806102000160405280600073ffffffffffffffffffffffffffffffffffffffff168152602001600073ffffffffffffffffffffffffffffffffffffffff168152602001600015158152602001600073ffffffffffffffffffffffffffffffffffffffff168152602001600073ffffffffffffffffffffffffffffffffffffffff168152602001600081526020016000815260200160008152602001600081526020016060815260200160008152602001600081526020016000151581526020016000815260200160008152602001600081525090565b604051806101800160405280600073ffffffffffffffffffffffffffffffffffffffff168152602001600015158152602001600073ffffffffffffffffffffffffffffffffffffffff168152602001600015158152602001600015158152602001600081526020016000815260200160008152602001600081526020016000815260200160608152602001606081525090565b6040518060400160405280600073ffffffffffffffffffffffffffffffffffffffff168152602001600073ffffffffffffffffffffffffffffffffffffffff1681525090565b6000613d31613d2c84614eb2565b614e81565b905082815260208101848484011115613d4957600080fd5b613d54848285615114565b509392505050565b600081359050613d6b8161515a565b92915050565b600081519050613d808161515a565b92915050565b600081519050613d9581615171565b92915050565b600081519050613daa81615188565b92915050565b600082601f830112613dc157600080fd5b8151613dd1848260208601613d1e565b91505092915050565b600081519050613de98161519f565b92915050565b600081519050613dfe816151b6565b92915050565b600060208284031215613e1657600080fd5b6000613e2484828501613d5c565b91505092915050565b600060208284031215613e3f57600080fd5b6000613e4d84828501613d71565b91505092915050565b60008060408385031215613e6957600080fd5b6000613e7785828601613d5c565b9250506020613e8885828601613d5c565b9150509250929050565b60008060008060808587031215613ea857600080fd5b6000613eb687828801613d71565b9450506020613ec787828801613dda565b9350506040613ed887828801613dda565b9250506060613ee987828801613dda565b91505092959194509250565b600060208284031215613f0757600080fd5b6000613f1584828501613d86565b91505092915050565b600060208284031215613f3057600080fd5b6000613f3e84828501613d9b565b91505092915050565b600060208284031215613f5957600080fd5b600082015167ffffffffffffffff811115613f7357600080fd5b613f7f84828501613db0565b91505092915050565b600060208284031215613f9a57600080fd5b6000613fa884828501613dda565b91505092915050565b600080600080600060a08688031215613fc957600080fd5b6000613fd788828901613dda565b9550506020613fe888828901613dda565b9450506040613ff988828901613dda565b935050606061400a88828901613dda565b925050608061401b88828901613dda565b9150509295509295909350565b60006020828403121561403a57600080fd5b600061404884828501613def565b91505092915050565b600061405d83836140da565b60208301905092915050565b60006140758383614408565b60408301905092915050565b600061408d838361458f565b905092915050565b60006140a18383614743565b905092915050565b60006140b58383614959565b6101a08301905092915050565b60006140ce8383614b6f565b60408301905092915050565b6140e381615065565b82525050565b6140f281615065565b82525050565b600061410382614f42565b61410d8185614fdd565b935061411883614ee2565b8060005b838110156141495781516141308882614051565b975061413b83614f8f565b92505060018101905061411c565b5085935050505092915050565b600061416182614f4d565b61416b8185614fee565b935061417683614ef2565b8060005b838110156141a757815161418e8882614069565b975061419983614f9c565b92505060018101905061417a565b5085935050505092915050565b60006141bf82614f58565b6141c98185614fff565b9350836020820285016141db85614f02565b8060005b8581101561421757848403895281516141f88582614081565b945061420383614fa9565b925060208a019950506001810190506141df565b50829750879550505050505092915050565b600061423482614f63565b61423e8185615010565b93508360208202850161425085614f12565b8060005b8581101561428c578484038952815161426d8582614095565b945061427883614fb6565b925060208a01995050600181019050614254565b50829750879550505050505092915050565b60006142a982614f6e565b6142b38185615021565b93506142be83614f22565b8060005b838110156142ef5781516142d688826140a9565b97506142e183614fc3565b9250506001810190506142c2565b5085935050505092915050565b600061430782614f79565b6143118185615032565b935061431c83614f32565b8060005b8381101561434d57815161433488826140c2565b975061433f83614fd0565b925050600181019050614320565b5085935050505092915050565b61436381615077565b82525050565b61437281615077565b82525050565b614381816150cc565b82525050565b614390816150f0565b82525050565b60006143a182614f84565b6143ab8185615043565b93506143bb818560208601615114565b6143c481615149565b840191505092915050565b60006143da82614f84565b6143e48185615054565b93506143f4818560208601615114565b6143fd81615149565b840191505092915050565b60408201600082015161441e60008501826140da565b50602082015161443160208501826140da565b50505050565b60006102008301600083015161445060008601826140da565b50602083015161446360208601826140da565b506040830151614476604086018261435a565b50606083015161448960608601826140da565b50608083015161449c60808601826140da565b5060a08301516144af60a0860182614bee565b5060c08301516144c260c0860182614bee565b5060e08301516144d560e0860182614bee565b506101008301516144ea610100860182614bee565b5061012083015184820361012086015261450482826142fc565b91505061014083015161451b610140860182614bee565b50610160830151614530610160860182614bee565b5061018083015161454561018086018261435a565b506101a083015161455a6101a0860182614bee565b506101c083015161456f6101c0860182614bee565b506101e08301516145846101e0860182614bee565b508091505092915050565b6000610140830160008301516145a860008601826140da565b5060208301516145bb60208601826140da565b5060408301516145ce604086018261435a565b5060608301516145e160608601826140da565b5060808301516145f460808601826140da565b5060a083015161460760a0860182614bee565b5060c083015161461a60c0860182614bee565b5060e083015161462d60e0860182614bee565b50610100830151614642610100860182614bee565b5061012083015184820361012086015261465c82826142fc565b9150508091505092915050565b60006101408301600083015161468260008601826140da565b50602083015161469560208601826140da565b5060408301516146a8604086018261435a565b5060608301516146bb60608601826140da565b5060808301516146ce60808601826140da565b5060a08301516146e160a0860182614bee565b5060c08301516146f460c0860182614bee565b5060e083015161470760e0860182614bee565b5061010083015161471c610100860182614bee565b5061012083015184820361012086015261473682826142fc565b9150508091505092915050565b60006101808301600083015161475c60008601826140da565b50602083015161476f602086018261435a565b50604083015161478260408601826140da565b506060830151614795606086018261435a565b5060808301516147a8608086018261435a565b5060a08301516147bb60a0860182614bee565b5060c08301516147ce60c0860182614bee565b5060e08301516147e160e0860182614bee565b506101008301516147f6610100860182614bee565b5061012083015161480b610120860182614bee565b5061014083015184820361014086015261482582826140f8565b9150506101608301518482036101608601526148418282614156565b9150508091505092915050565b60006101808301600083015161486760008601826140da565b50602083015161487a602086018261435a565b50604083015161488d60408601826140da565b5060608301516148a0606086018261435a565b5060808301516148b3608086018261435a565b5060a08301516148c660a0860182614bee565b5060c08301516148d960c0860182614bee565b5060e08301516148ec60e0860182614bee565b50610100830151614901610100860182614bee565b50610120830151614916610120860182614bee565b5061014083015184820361014086015261493082826140f8565b91505061016083015184820361016086015261494c8282614156565b9150508091505092915050565b6101a08201600082015161497060008501826140da565b506020820151614983602085018261435a565b50604082015161499660408501826140da565b5060608201516149a960608501826140da565b5060808201516149bc6080850182614bee565b5060a08201516149cf60a0850182614bee565b5060c08201516149e260c0850182614bee565b5060e08201516149f560e0850182614bee565b50610100820151614a0a610100850182614bee565b50610120820151614a1f610120850182614bee565b50610140820151614a34610140850182614bee565b50610160820151614a49610160850182614bee565b50610180820151614a5e610180850182614bee565b50505050565b6101a082016000820151614a7b60008501826140da565b506020820151614a8e602085018261435a565b506040820151614aa160408501826140da565b506060820151614ab460608501826140da565b506080820151614ac76080850182614bee565b5060a0820151614ada60a0850182614bee565b5060c0820151614aed60c0850182614bee565b5060e0820151614b0060e0850182614bee565b50610100820151614b15610100850182614bee565b50610120820151614b2a610120850182614bee565b50610140820151614b3f610140850182614bee565b50610160820151614b54610160850182614bee565b50610180820151614b69610180850182614bee565b50505050565b604082016000820151614b8560008501826140da565b506020820151614b986020850182614bee565b50505050565b6000606083016000830151614bb660008601826140da565b5060208301518482036020860152614bce8282614396565b9150506040830151614be36040860182614c0c565b508091505092915050565b614bf7816150b5565b82525050565b614c06816150b5565b82525050565b614c15816150bf565b82525050565b6000602082019050614c3060008301846140e9565b92915050565b6000604082019050614c4b60008301856140e9565b614c586020830184614369565b9392505050565b6000604082019050614c7460008301856140e9565b614c816020830184614bfd565b9392505050565b6000606082019050614c9d60008301866140e9565b614caa6020830185614bfd565b614cb76040830184614369565b949350505050565b6000608082019050614cd460008301876140e9565b614ce16020830186614bfd565b614cee6040830185614bfd565b614cfb6060830184614bfd565b95945050505050565b60006020820190508181036000830152614d1e81846141b4565b905092915050565b60006020820190508181036000830152614d408184614229565b905092915050565b60006020820190508181036000830152614d62818461429e565b905092915050565b6000602082019050614d7f6000830184614378565b92915050565b6000602082019050614d9a6000830184614387565b92915050565b60006020820190508181036000830152614dba81846143cf565b905092915050565b60006020820190508181036000830152614ddc8184614437565b905092915050565b60006020820190508181036000830152614dfe8184614669565b905092915050565b60006020820190508181036000830152614e20818461484e565b905092915050565b60006101a082019050614e3e6000830184614a64565b92915050565b60006020820190508181036000830152614e5e8184614b9e565b905092915050565b6000602082019050614e7b6000830184614bfd565b92915050565b6000604051905081810181811067ffffffffffffffff82111715614ea857614ea7615147565b5b8060405250919050565b600067ffffffffffffffff821115614ecd57614ecc615147565b5b601f19601f8301169050602081019050919050565b6000819050602082019050919050565b6000819050602082019050919050565b6000819050602082019050919050565b6000819050602082019050919050565b6000819050602082019050919050565b6000819050602082019050919050565b600081519050919050565b600081519050919050565b600081519050919050565b600081519050919050565b600081519050919050565b600081519050919050565b600081519050919050565b6000602082019050919050565b6000602082019050919050565b6000602082019050919050565b6000602082019050919050565b6000602082019050919050565b6000602082019050919050565b600082825260208201905092915050565b600082825260208201905092915050565b600082825260208201905092915050565b600082825260208201905092915050565b600082825260208201905092915050565b600082825260208201905092915050565b600082825260208201905092915050565b600082825260208201905092915050565b600061507082615095565b9050919050565b60008115159050919050565b600061508e82615065565b9050919050565b600073ffffffffffffffffffffffffffffffffffffffff82169050919050565b6000819050919050565b600060ff82169050919050565b60006150d7826150de565b9050919050565b60006150e982615095565b9050919050565b60006150fb82615102565b9050919050565b600061510d82615095565b9050919050565b60005b83811015615132578082015181840152602081019050615117565b83811115615141576000848401525b50505050565bfe5b6000601f19601f8301169050919050565b61516381615065565b811461516e57600080fd5b50565b61517a81615077565b811461518557600080fd5b50565b61519181615083565b811461519c57600080fd5b50565b6151a8816150b5565b81146151b357600080fd5b50565b6151bf816150bf565b81146151ca57600080fd5b5056fe536166654d6174683a206d756c7469706c69636174696f6e206f766572666c6f77a2646970667358221220f437b72efdf8734bfa8adc05af0d0f42105dc49734326ba1549277393a0f6dd964736f6c63430007060033",
  "linkReferences": {},
  "deployedLinkReferences": {}
}