{
  "_format": "hh-sol-artifact-1",
  "contractName": "DataCompressor",
  "sourceName": "contracts/core/DataCompressor.sol",
  "abi": [
    {
      "inputs": [
        {
          "internalType": "address",
          "name": "_addressProvider",
          "type": "address"
        }
      ],
      "stateMutability": "nonpayable",
      "type": "constructor"
    },
    {
      "inputs": [],
      "name": "WETHToken",
      "outputs": [
        {
          "internalType": "address",
          "name": "",
          "type": "address"
        }
      ],
      "stateMutability": "view",
      "type": "function"
    },
    {
      "inputs": [],
      "name": "addressProvider",
      "outputs": [
        {
          "internalType": "contract AddressProvider",
          "name": "",
          "type": "address"
        }
      ],
      "stateMutability": "view",
      "type": "function"
    },
    {
      "inputs": [
        {
          "internalType": "address",
          "name": "_creditManager",
          "type": "address"
        },
        {
          "internalType": "address",
          "name": "token",
          "type": "address"
        },
        {
          "internalType": "uint256",
          "name": "amount",
          "type": "uint256"
        },
        {
          "internalType": "uint256",
          "name": "borrowedAmount",
          "type": "uint256"
        }
      ],
      "name": "calcExpectedAtOpenHf",
      "outputs": [
        {
          "internalType": "uint256",
          "name": "",
          "type": "uint256"
        }
      ],
      "stateMutability": "view",
      "type": "function"
    },
    {
      "inputs": [
        {
          "internalType": "address",
          "name": "_creditManager",
          "type": "address"
        },
        {
          "internalType": "address",
          "name": "borrower",
          "type": "address"
        },
        {
          "internalType": "uint256[]",
          "name": "balances",
          "type": "uint256[]"
        }
      ],
      "name": "calcExpectedHf",
      "outputs": [
        {
          "internalType": "uint256",
          "name": "",
          "type": "uint256"
        }
      ],
      "stateMutability": "view",
      "type": "function"
    },
    {
      "inputs": [],
      "name": "contractsRegister",
      "outputs": [
        {
          "internalType": "contract ContractsRegister",
          "name": "",
          "type": "address"
        }
      ],
      "stateMutability": "view",
      "type": "function"
    },
    {
      "inputs": [
        {
          "internalType": "address",
          "name": "_creditManager",
          "type": "address"
        },
        {
          "internalType": "address",
          "name": "_allowedContract",
          "type": "address"
        }
      ],
      "name": "getAdapter",
      "outputs": [
        {
          "internalType": "address",
          "name": "",
          "type": "address"
        }
      ],
      "stateMutability": "view",
      "type": "function"
    },
    {
      "inputs": [
        {
          "internalType": "address",
          "name": "_creditManager",
          "type": "address"
        },
        {
          "internalType": "address",
          "name": "borrower",
          "type": "address"
        }
      ],
      "name": "getCreditAccountData",
      "outputs": [
        {
          "components": [
            {
              "internalType": "address",
              "name": "addr",
              "type": "address"
            },
            {
              "internalType": "address",
              "name": "borrower",
              "type": "address"
            },
            {
              "internalType": "bool",
              "name": "inUse",
              "type": "bool"
            },
            {
              "internalType": "address",
              "name": "creditManager",
              "type": "address"
            },
            {
              "internalType": "address",
              "name": "underlyingToken",
              "type": "address"
            },
            {
              "internalType": "uint256",
              "name": "borrowedAmountPlusInterest",
              "type": "uint256"
            },
            {
              "internalType": "uint256",
              "name": "totalValue",
              "type": "uint256"
            },
            {
              "internalType": "uint256",
              "name": "healthFactor",
              "type": "uint256"
            },
            {
              "internalType": "uint256",
              "name": "borrowRate",
              "type": "uint256"
            },
            {
              "components": [
                {
                  "internalType": "address",
                  "name": "token",
                  "type": "address"
                },
                {
                  "internalType": "uint256",
                  "name": "balance",
                  "type": "uint256"
                },
                {
                  "internalType": "bool",
                  "name": "isAllowed",
                  "type": "bool"
                }
              ],
              "internalType": "struct DataTypes.TokenBalance[]",
              "name": "balances",
              "type": "tuple[]"
            }
          ],
          "internalType": "struct DataTypes.CreditAccountData",
          "name": "",
          "type": "tuple"
        }
      ],
      "stateMutability": "view",
      "type": "function"
    },
    {
      "inputs": [
        {
          "internalType": "address",
          "name": "creditManager",
          "type": "address"
        },
        {
          "internalType": "address",
          "name": "borrower",
          "type": "address"
        }
      ],
      "name": "getCreditAccountDataExtended",
      "outputs": [
        {
          "components": [
            {
              "internalType": "address",
              "name": "addr",
              "type": "address"
            },
            {
              "internalType": "address",
              "name": "borrower",
              "type": "address"
            },
            {
              "internalType": "bool",
              "name": "inUse",
              "type": "bool"
            },
            {
              "internalType": "address",
              "name": "creditManager",
              "type": "address"
            },
            {
              "internalType": "address",
              "name": "underlyingToken",
              "type": "address"
            },
            {
              "internalType": "uint256",
              "name": "borrowedAmountPlusInterest",
              "type": "uint256"
            },
            {
              "internalType": "uint256",
              "name": "totalValue",
              "type": "uint256"
            },
            {
              "internalType": "uint256",
              "name": "healthFactor",
              "type": "uint256"
            },
            {
              "internalType": "uint256",
              "name": "borrowRate",
              "type": "uint256"
            },
            {
              "components": [
                {
                  "internalType": "address",
                  "name": "token",
                  "type": "address"
                },
                {
                  "internalType": "uint256",
                  "name": "balance",
                  "type": "uint256"
                },
                {
                  "internalType": "bool",
                  "name": "isAllowed",
                  "type": "bool"
                }
              ],
              "internalType": "struct DataTypes.TokenBalance[]",
              "name": "balances",
              "type": "tuple[]"
            },
            {
              "internalType": "uint256",
              "name": "repayAmount",
              "type": "uint256"
            },
            {
              "internalType": "uint256",
              "name": "liquidationAmount",
              "type": "uint256"
            },
            {
              "internalType": "bool",
              "name": "canBeClosed",
              "type": "bool"
            },
            {
              "internalType": "uint256",
              "name": "borrowedAmount",
              "type": "uint256"
            },
            {
              "internalType": "uint256",
              "name": "cumulativeIndexAtOpen",
              "type": "uint256"
            },
            {
              "internalType": "uint256",
              "name": "since",
              "type": "uint256"
            }
          ],
          "internalType": "struct DataTypes.CreditAccountDataExtended",
          "name": "",
          "type": "tuple"
        }
      ],
      "stateMutability": "view",
      "type": "function"
    },
    {
      "inputs": [
        {
          "internalType": "address",
          "name": "borrower",
          "type": "address"
        }
      ],
      "name": "getCreditAccountList",
      "outputs": [
        {
          "components": [
            {
              "internalType": "address",
              "name": "addr",
              "type": "address"
            },
            {
              "internalType": "address",
              "name": "borrower",
              "type": "address"
            },
            {
              "internalType": "bool",
              "name": "inUse",
              "type": "bool"
            },
            {
              "internalType": "address",
              "name": "creditManager",
              "type": "address"
            },
            {
              "internalType": "address",
              "name": "underlyingToken",
              "type": "address"
            },
            {
              "internalType": "uint256",
              "name": "borrowedAmountPlusInterest",
              "type": "uint256"
            },
            {
              "internalType": "uint256",
              "name": "totalValue",
              "type": "uint256"
            },
            {
              "internalType": "uint256",
              "name": "healthFactor",
              "type": "uint256"
            },
            {
              "internalType": "uint256",
              "name": "borrowRate",
              "type": "uint256"
            },
            {
              "components": [
                {
                  "internalType": "address",
                  "name": "token",
                  "type": "address"
                },
                {
                  "internalType": "uint256",
                  "name": "balance",
                  "type": "uint256"
                },
                {
                  "internalType": "bool",
                  "name": "isAllowed",
                  "type": "bool"
                }
              ],
              "internalType": "struct DataTypes.TokenBalance[]",
              "name": "balances",
              "type": "tuple[]"
            }
          ],
          "internalType": "struct DataTypes.CreditAccountData[]",
          "name": "",
          "type": "tuple[]"
        }
      ],
      "stateMutability": "view",
      "type": "function"
    },
    {
      "inputs": [
        {
          "internalType": "address",
          "name": "_creditManager",
          "type": "address"
        },
        {
          "internalType": "address",
          "name": "borrower",
          "type": "address"
        }
      ],
      "name": "getCreditManagerData",
      "outputs": [
        {
          "components": [
            {
              "internalType": "address",
              "name": "addr",
              "type": "address"
            },
            {
              "internalType": "bool",
              "name": "hasAccount",
              "type": "bool"
            },
            {
              "internalType": "address",
              "name": "underlyingToken",
              "type": "address"
            },
            {
              "internalType": "bool",
              "name": "isWETH",
              "type": "bool"
            },
            {
              "internalType": "bool",
              "name": "canBorrow",
              "type": "bool"
            },
            {
              "internalType": "uint256",
              "name": "borrowRate",
              "type": "uint256"
            },
            {
              "internalType": "uint256",
              "name": "minAmount",
              "type": "uint256"
            },
            {
              "internalType": "uint256",
              "name": "maxAmount",
              "type": "uint256"
            },
            {
              "internalType": "uint256",
              "name": "maxLeverageFactor",
              "type": "uint256"
            },
            {
              "internalType": "uint256",
              "name": "availableLiquidity",
              "type": "uint256"
            },
            {
              "internalType": "address[]",
              "name": "allowedTokens",
              "type": "address[]"
            },
            {
              "components": [
                {
                  "internalType": "address",
                  "name": "allowedContract",
                  "type": "address"
                },
                {
                  "internalType": "address",
                  "name": "adapter",
                  "type": "address"
                }
              ],
              "internalType": "struct DataTypes.ContractAdapter[]",
              "name": "adapters",
              "type": "tuple[]"
            }
          ],
          "internalType": "struct DataTypes.CreditManagerData",
          "name": "",
          "type": "tuple"
        }
      ],
      "stateMutability": "view",
      "type": "function"
    },
    {
      "inputs": [
        {
          "internalType": "address",
          "name": "borrower",
          "type": "address"
        }
      ],
      "name": "getCreditManagersList",
      "outputs": [
        {
          "components": [
            {
              "internalType": "address",
              "name": "addr",
              "type": "address"
            },
            {
              "internalType": "bool",
              "name": "hasAccount",
              "type": "bool"
            },
            {
              "internalType": "address",
              "name": "underlyingToken",
              "type": "address"
            },
            {
              "internalType": "bool",
              "name": "isWETH",
              "type": "bool"
            },
            {
              "internalType": "bool",
              "name": "canBorrow",
              "type": "bool"
            },
            {
              "internalType": "uint256",
              "name": "borrowRate",
              "type": "uint256"
            },
            {
              "internalType": "uint256",
              "name": "minAmount",
              "type": "uint256"
            },
            {
              "internalType": "uint256",
              "name": "maxAmount",
              "type": "uint256"
            },
            {
              "internalType": "uint256",
              "name": "maxLeverageFactor",
              "type": "uint256"
            },
            {
              "internalType": "uint256",
              "name": "availableLiquidity",
              "type": "uint256"
            },
            {
              "internalType": "address[]",
              "name": "allowedTokens",
              "type": "address[]"
            },
            {
              "components": [
                {
                  "internalType": "address",
                  "name": "allowedContract",
                  "type": "address"
                },
                {
                  "internalType": "address",
                  "name": "adapter",
                  "type": "address"
                }
              ],
              "internalType": "struct DataTypes.ContractAdapter[]",
              "name": "adapters",
              "type": "tuple[]"
            }
          ],
          "internalType": "struct DataTypes.CreditManagerData[]",
          "name": "",
          "type": "tuple[]"
        }
      ],
      "stateMutability": "view",
      "type": "function"
    },
    {
      "inputs": [
        {
          "internalType": "address",
          "name": "_pool",
          "type": "address"
        }
      ],
      "name": "getPoolData",
      "outputs": [
        {
          "components": [
            {
              "internalType": "address",
              "name": "addr",
              "type": "address"
            },
            {
              "internalType": "bool",
              "name": "isWETH",
              "type": "bool"
            },
            {
              "internalType": "address",
              "name": "underlyingToken",
              "type": "address"
            },
            {
              "internalType": "address",
              "name": "dieselToken",
              "type": "address"
            },
            {
              "internalType": "uint256",
              "name": "linearCumulativeIndex",
              "type": "uint256"
            },
            {
              "internalType": "uint256",
              "name": "availableLiquidity",
              "type": "uint256"
            },
            {
              "internalType": "uint256",
              "name": "expectedLiquidity",
              "type": "uint256"
            },
            {
              "internalType": "uint256",
              "name": "expectedLiquidityLimit",
              "type": "uint256"
            },
            {
              "internalType": "uint256",
              "name": "totalBorrowed",
              "type": "uint256"
            },
            {
              "internalType": "uint256",
              "name": "depositAPY_RAY",
              "type": "uint256"
            },
            {
              "internalType": "uint256",
              "name": "borrowAPY_RAY",
              "type": "uint256"
            },
            {
              "internalType": "uint256",
              "name": "dieselRate_RAY",
              "type": "uint256"
            },
            {
              "internalType": "uint256",
              "name": "withdrawFee",
              "type": "uint256"
            },
            {
              "internalType": "uint256",
              "name": "cumulativeIndex_RAY",
              "type": "uint256"
            },
            {
              "internalType": "uint256",
              "name": "timestampLU",
              "type": "uint256"
            }
          ],
          "internalType": "struct DataTypes.PoolData",
          "name": "",
          "type": "tuple"
        }
      ],
      "stateMutability": "view",
      "type": "function"
    },
    {
      "inputs": [],
      "name": "getPoolsList",
      "outputs": [
        {
          "components": [
            {
              "internalType": "address",
              "name": "addr",
              "type": "address"
            },
            {
              "internalType": "bool",
              "name": "isWETH",
              "type": "bool"
            },
            {
              "internalType": "address",
              "name": "underlyingToken",
              "type": "address"
            },
            {
              "internalType": "address",
              "name": "dieselToken",
              "type": "address"
            },
            {
              "internalType": "uint256",
              "name": "linearCumulativeIndex",
              "type": "uint256"
            },
            {
              "internalType": "uint256",
              "name": "availableLiquidity",
              "type": "uint256"
            },
            {
              "internalType": "uint256",
              "name": "expectedLiquidity",
              "type": "uint256"
            },
            {
              "internalType": "uint256",
              "name": "expectedLiquidityLimit",
              "type": "uint256"
            },
            {
              "internalType": "uint256",
              "name": "totalBorrowed",
              "type": "uint256"
            },
            {
              "internalType": "uint256",
              "name": "depositAPY_RAY",
              "type": "uint256"
            },
            {
              "internalType": "uint256",
              "name": "borrowAPY_RAY",
              "type": "uint256"
            },
            {
              "internalType": "uint256",
              "name": "dieselRate_RAY",
              "type": "uint256"
            },
            {
              "internalType": "uint256",
              "name": "withdrawFee",
              "type": "uint256"
            },
            {
              "internalType": "uint256",
              "name": "cumulativeIndex_RAY",
              "type": "uint256"
            },
            {
              "internalType": "uint256",
              "name": "timestampLU",
              "type": "uint256"
            }
          ],
          "internalType": "struct DataTypes.PoolData[]",
          "name": "",
          "type": "tuple[]"
        }
      ],
      "stateMutability": "view",
      "type": "function"
    },
    {
      "inputs": [
        {
          "internalType": "address[]",
          "name": "addr",
          "type": "address[]"
        }
      ],
      "name": "getTokenData",
      "outputs": [
        {
          "components": [
            {
              "internalType": "address",
              "name": "addr",
              "type": "address"
            },
            {
              "internalType": "string",
              "name": "symbol",
              "type": "string"
            },
            {
              "internalType": "uint8",
              "name": "decimals",
              "type": "uint8"
            }
          ],
          "internalType": "struct DataTypes.TokenInfo[]",
          "name": "",
          "type": "tuple[]"
        }
      ],
      "stateMutability": "view",
      "type": "function"
    },
    {
      "inputs": [
        {
          "internalType": "address",
          "name": "_creditManager",
          "type": "address"
        },
        {
          "internalType": "address",
          "name": "borrower",
          "type": "address"
        }
      ],
      "name": "hasOpenedCreditAccount",
      "outputs": [
        {
          "internalType": "bool",
          "name": "",
          "type": "bool"
        }
      ],
      "stateMutability": "view",
      "type": "function"
    }
  ],
  "bytecode": "0x60c06040523480156200001157600080fd5b5060405162006370380380620063708339818101604052810190620000379190620002f1565b600073ffffffffffffffffffffffffffffffffffffffff168173ffffffffffffffffffffffffffffffffffffffff1614156040518060400160405280600281526020017f5a3000000000000000000000000000000000000000000000000000000000000081525090620000e2576040517f08c379a0000000000000000000000000000000000000000000000000000000008152600401620000d991906200035e565b60405180910390fd5b50806000806101000a81548173ffffffffffffffffffffffffffffffffffffffff021916908373ffffffffffffffffffffffffffffffffffffffff16021790555060008054906101000a900473ffffffffffffffffffffffffffffffffffffffff1673ffffffffffffffffffffffffffffffffffffffff1663c513c9bb6040518163ffffffff1660e01b815260040160206040518083038186803b1580156200018a57600080fd5b505afa1580156200019f573d6000803e3d6000fd5b505050506040513d601f19601f82011682018060405250810190620001c59190620002f1565b73ffffffffffffffffffffffffffffffffffffffff1660808173ffffffffffffffffffffffffffffffffffffffff1660601b8152505060008054906101000a900473ffffffffffffffffffffffffffffffffffffffff1673ffffffffffffffffffffffffffffffffffffffff16634c252f916040518163ffffffff1660e01b815260040160206040518083038186803b1580156200026257600080fd5b505afa15801562000277573d6000803e3d6000fd5b505050506040513d601f19601f820116820180604052508101906200029d9190620002f1565b73ffffffffffffffffffffffffffffffffffffffff1660a08173ffffffffffffffffffffffffffffffffffffffff1660601b815250505062000433565b600081519050620002eb8162000419565b92915050565b6000602082840312156200030457600080fd5b60006200031484828501620002da565b91505092915050565b60006200032a8262000382565b6200033681856200038d565b935062000348818560208601620003d2565b620003538162000408565b840191505092915050565b600060208201905081810360008301526200037a81846200031d565b905092915050565b600081519050919050565b600082825260208201905092915050565b6000620003ab82620003b2565b9050919050565b600073ffffffffffffffffffffffffffffffffffffffff82169050919050565b60005b83811015620003f2578082015181840152602081019050620003d5565b8381111562000402576000848401525b50505050565b6000601f19601f8301169050919050565b62000424816200039e565b81146200043057600080fd5b50565b60805160601c60a05160601c615ec8620004a86000398061127e5280612078528061291a525080610aea52806115915280611c125280611d15528061209f52806122cf52806122fd52806123a4528061255252806125f952806131ad52806132b05280613b225280613cdf5250615ec86000f3fe608060405234801561001057600080fd5b50600436106100f55760003560e01c80634c472fc911610097578063b816903911610066578063b8169039146102c2578063ba3b7345146102f2578063bf2eb19e14610322578063fc9914cb14610352576100f5565b80634c472fc9146102145780637a0c7b2114610244578063a80deda314610262578063b10b074e14610292576100f5565b80631bcd8fc0116100d35780631bcd8fc01461018a5780632954018c146101a857806339595cf8146101c65780634b2f336d146101f6576100f5565b80630dbd616d146100fa57806313d21cdf1461012a578063191482d41461015a575b600080fd5b610114600480360381019061010f9190614801565b610382565b60405161012191906159e2565b60405180910390f35b610144600480360381019061013f91906147af565b610adf565b6040516101519190615a26565b60405180910390f35b610174600480360381019061016f9190614801565b611586565b60405161018191906159c0565b60405180910390f35b610192611c0c565b60405161019f91906158e9565b60405180910390f35b6101b0611df5565b6040516101bd9190615948565b60405180910390f35b6101e060048036038101906101db91906148a4565b611e19565b6040516101ed9190615a42565b60405180910390f35b6101fe612076565b60405161020b9190615801565b60405180910390f35b61022e60048036038101906102299190614801565b61209a565b60405161023b9190615801565b60405180910390f35b61024c6122cd565b6040516102599190615963565b60405180910390f35b61027c600480360381019061027791906147af565b6122f1565b60405161028991906158a5565b60405180910390f35b6102ac60048036038101906102a79190614801565b612773565b6040516102b99190615a04565b60405180910390f35b6102dc60048036038101906102d791906147af565b6131a7565b6040516102e991906158c7565b60405180910390f35b61030c6004803603810190610307919061483d565b613393565b6040516103199190615a42565b60405180910390f35b61033c6004803603810190610337919061496a565b61391e565b604051610349919061590b565b60405180910390f35b61036c60048036038101906103679190614801565b613b1d565b604051610379919061592d565b60405180910390f35b61038a6141fc565b60008061039685613cd9565b9150915060008273ffffffffffffffffffffffffffffffffffffffff1663e958b704866040518263ffffffff1660e01b81526004016103d59190615801565b60206040518083038186803b1580156103ed57600080fd5b505afa158015610401573d6000803e3d6000fd5b505050506040513d601f19601f8201168201806040525081019061042591906147d8565b905061042f6141fc565b85816020019073ffffffffffffffffffffffffffffffffffffffff16908173ffffffffffffffffffffffffffffffffffffffff168152505086816060019073ffffffffffffffffffffffffffffffffffffffff16908173ffffffffffffffffffffffffffffffffffffffff168152505081816000019073ffffffffffffffffffffffffffffffffffffffff16908173ffffffffffffffffffffffffffffffffffffffff16815250508273ffffffffffffffffffffffffffffffffffffffff16632495a5996040518163ffffffff1660e01b815260040160206040518083038186803b15801561051d57600080fd5b505afa158015610531573d6000803e3d6000fd5b505050506040513d601f19601f8201168201806040525081019061055591906147d8565b816080019073ffffffffffffffffffffffffffffffffffffffff16908173ffffffffffffffffffffffffffffffffffffffff16815250508273ffffffffffffffffffffffffffffffffffffffff1663c7de38a6836040518263ffffffff1660e01b81526004016105c59190615801565b60206040518083038186803b1580156105dd57600080fd5b505afa1580156105f1573d6000803e3d6000fd5b505050506040513d601f19601f820116820180604052508101906106159190614a3e565b8160c00181815250508273ffffffffffffffffffffffffffffffffffffffff1663dfd59465836040518263ffffffff1660e01b81526004016106579190615801565b60206040518083038186803b15801561066f57600080fd5b505afa158015610683573d6000803e3d6000fd5b505050506040513d601f19601f820116820180604052508101906106a79190614a3e565b8160e001818152505060008473ffffffffffffffffffffffffffffffffffffffff1663570a7af26040518163ffffffff1660e01b815260040160206040518083038186803b1580156106f857600080fd5b505afa15801561070c573d6000803e3d6000fd5b505050506040513d601f19601f8201168201806040525081019061073091906147d8565b90508073ffffffffffffffffffffffffffffffffffffffff166345d31f9d6040518163ffffffff1660e01b815260040160206040518083038186803b15801561077857600080fd5b505afa15801561078c573d6000803e3d6000fd5b505050506040513d601f19601f820116820180604052508101906107b09190614a3e565b8261010001818152505060008473ffffffffffffffffffffffffffffffffffffffff166320a05ff76040518163ffffffff1660e01b815260040160206040518083038186803b15801561080257600080fd5b505afa158015610816573d6000803e3d6000fd5b505050506040513d601f19601f8201168201806040525081019061083a9190614a3e565b90508067ffffffffffffffff8111801561085357600080fd5b5060405190808252806020026020018201604052801561088d57816020015b61087a6142a9565b8152602001906001900390816108725790505b5083610120018190525060005b81811015610a3d576108aa6142a9565b8673ffffffffffffffffffffffffffffffffffffffff1663af0a650287846040518363ffffffff1660e01b81526004016108e5929190615845565b60806040518083038186803b1580156108fd57600080fd5b505afa158015610911573d6000803e3d6000fd5b505050506040513d601f19601f820116820180604052508101906109359190614907565b9050508260000183602001828152508273ffffffffffffffffffffffffffffffffffffffff1673ffffffffffffffffffffffffffffffffffffffff1681525050508673ffffffffffffffffffffffffffffffffffffffff1663f9eaee0d82600001516040518263ffffffff1660e01b81526004016109b39190615801565b60206040518083038186803b1580156109cb57600080fd5b505afa1580156109df573d6000803e3d6000fd5b505050506040513d601f19601f82011682018060405250810190610a0391906149ab565b816040019015159081151581525050808561012001518381518110610a2457fe5b602002602001018190525050808060010191505061089a565b508473ffffffffffffffffffffffffffffffffffffffff16633192195c856040518263ffffffff1660e01b8152600401610a779190615801565b60206040518083038186803b158015610a8f57600080fd5b505afa158015610aa3573d6000803e3d6000fd5b505050506040513d601f19601f82011682018060405250810190610ac79190614a3e565b8360a001818152505082965050505050505092915050565b610ae76142e2565b817f000000000000000000000000000000000000000000000000000000000000000073ffffffffffffffffffffffffffffffffffffffff16635b16ebb7826040518263ffffffff1660e01b8152600401610b419190615801565b60206040518083038186803b158015610b5957600080fd5b505afa158015610b6d573d6000803e3d6000fd5b505050506040513d601f19601f82011682018060405250810190610b9191906149ab565b6040518060400160405280600281526020017f525000000000000000000000000000000000000000000000000000000000000081525090610c08576040517f08c379a0000000000000000000000000000000000000000000000000000000008152600401610bff919061597e565b60405180910390fd5b50610c116142e2565b600084905084826000019073ffffffffffffffffffffffffffffffffffffffff16908173ffffffffffffffffffffffffffffffffffffffff16815250508073ffffffffffffffffffffffffffffffffffffffff1663fe14112d6040518163ffffffff1660e01b815260040160206040518083038186803b158015610c9457600080fd5b505afa158015610ca8573d6000803e3d6000fd5b505050506040513d601f19601f82011682018060405250810190610ccc9190614a3e565b8260c00181815250508073ffffffffffffffffffffffffffffffffffffffff1663ef8d96036040518163ffffffff1660e01b815260040160206040518083038186803b158015610d1b57600080fd5b505afa158015610d2f573d6000803e3d6000fd5b505050506040513d601f19601f82011682018060405250810190610d539190614a3e565b8260e00181815250508073ffffffffffffffffffffffffffffffffffffffff1663743753596040518163ffffffff1660e01b815260040160206040518083038186803b158015610da257600080fd5b505afa158015610db6573d6000803e3d6000fd5b505050506040513d601f19601f82011682018060405250810190610dda9190614a3e565b8260a00181815250508073ffffffffffffffffffffffffffffffffffffffff16634c19386c6040518163ffffffff1660e01b815260040160206040518083038186803b158015610e2957600080fd5b505afa158015610e3d573d6000803e3d6000fd5b505050506040513d601f19601f82011682018060405250810190610e619190614a3e565b826101000181815250508073ffffffffffffffffffffffffffffffffffffffff1663788c6bfe6040518163ffffffff1660e01b815260040160206040518083038186803b158015610eb157600080fd5b505afa158015610ec5573d6000803e3d6000fd5b505050506040513d601f19601f82011682018060405250810190610ee99190614a3e565b826101600181815250508073ffffffffffffffffffffffffffffffffffffffff16630fce70fb6040518163ffffffff1660e01b815260040160206040518083038186803b158015610f3957600080fd5b505afa158015610f4d573d6000803e3d6000fd5b505050506040513d601f19601f82011682018060405250810190610f719190614a3e565b8260800181815250508073ffffffffffffffffffffffffffffffffffffffff166345d31f9d6040518163ffffffff1660e01b815260040160206040518083038186803b158015610fc057600080fd5b505afa158015610fd4573d6000803e3d6000fd5b505050506040513d601f19601f82011682018060405250810190610ff89190614a3e565b826101400181815250508073ffffffffffffffffffffffffffffffffffffffff16632495a5996040518163ffffffff1660e01b815260040160206040518083038186803b15801561104857600080fd5b505afa15801561105c573d6000803e3d6000fd5b505050506040513d601f19601f8201168201806040525081019061108091906147d8565b826040019073ffffffffffffffffffffffffffffffffffffffff16908173ffffffffffffffffffffffffffffffffffffffff16815250508073ffffffffffffffffffffffffffffffffffffffff166336dda7d56040518163ffffffff1660e01b815260040160206040518083038186803b1580156110fd57600080fd5b505afa158015611111573d6000803e3d6000fd5b505050506040513d601f19601f8201168201806040525081019061113591906147d8565b826060019073ffffffffffffffffffffffffffffffffffffffff16908173ffffffffffffffffffffffffffffffffffffffff16815250508073ffffffffffffffffffffffffffffffffffffffff1663788c6bfe6040518163ffffffff1660e01b815260040160206040518083038186803b1580156111b257600080fd5b505afa1580156111c6573d6000803e3d6000fd5b505050506040513d601f19601f820116820180604052508101906111ea9190614a3e565b826101600181815250508073ffffffffffffffffffffffffffffffffffffffff1663e941fa786040518163ffffffff1660e01b815260040160206040518083038186803b15801561123a57600080fd5b505afa15801561124e573d6000803e3d6000fd5b505050506040513d601f19601f820116820180604052508101906112729190614a3e565b826101800181815250507f000000000000000000000000000000000000000000000000000000000000000073ffffffffffffffffffffffffffffffffffffffff16826040015173ffffffffffffffffffffffffffffffffffffffff16148260200190151590811515815250508073ffffffffffffffffffffffffffffffffffffffff1663609ae3176040518163ffffffff1660e01b815260040160206040518083038186803b15801561132457600080fd5b505afa158015611338573d6000803e3d6000fd5b505050506040513d601f19601f8201168201806040525081019061135c9190614a3e565b826101c00181815250508073ffffffffffffffffffffffffffffffffffffffff1663dbcb313b6040518163ffffffff1660e01b815260040160206040518083038186803b1580156113ac57600080fd5b505afa1580156113c0573d6000803e3d6000fd5b505050506040513d601f19601f820116820180604052508101906113e49190614a3e565b826101a00181815250506000826060015173ffffffffffffffffffffffffffffffffffffffff166318160ddd6040518163ffffffff1660e01b815260040160206040518083038186803b15801561143a57600080fd5b505afa15801561144e573d6000803e3d6000fd5b505050506040513d601f19601f820116820180604052508101906114729190614a3e565b905060008273ffffffffffffffffffffffffffffffffffffffff16635427c938836040518263ffffffff1660e01b81526004016114af9190615a42565b60206040518083038186803b1580156114c757600080fd5b505afa1580156114db573d6000803e3d6000fd5b505050506040513d601f19601f820116820180604052508101906114ff9190614a3e565b905060008114611568576115638161155561152a876101800151612710613e8790919063ffffffff16565b611547886101000151896101400151613f0a90919063ffffffff16565b613f9090919063ffffffff16565b6140eb90919063ffffffff16565b61156f565b8361014001515b846101200181815250508395505050505050919050565b61158e61439c565b827f000000000000000000000000000000000000000000000000000000000000000073ffffffffffffffffffffffffffffffffffffffff16636fbc6f6b826040518263ffffffff1660e01b81526004016115e89190615801565b60206040518083038186803b15801561160057600080fd5b505afa158015611614573d6000803e3d6000fd5b505050506040513d601f19601f8201168201806040525081019061163891906149ab565b6040518060400160405280600281526020017f4350000000000000000000000000000000000000000000000000000000000000815250906116af576040517f08c379a00000000000000000000000000000000000000000000000000000000081526004016116a6919061597e565b60405180910390fd5b506116b861439c565b60006116c48686610382565b90508060000151826000019073ffffffffffffffffffffffffffffffffffffffff16908173ffffffffffffffffffffffffffffffffffffffff16815250508060200151826020019073ffffffffffffffffffffffffffffffffffffffff16908173ffffffffffffffffffffffffffffffffffffffff16815250508060600151826060019073ffffffffffffffffffffffffffffffffffffffff16908173ffffffffffffffffffffffffffffffffffffffff16815250508060800151826080019073ffffffffffffffffffffffffffffffffffffffff16908173ffffffffffffffffffffffffffffffffffffffff16815250508060a001518260a00181815250508060c001518260c00181815250508060e001518260e00181815250508061010001518261010001818152505080610120015182610120018190525060008673ffffffffffffffffffffffffffffffffffffffff1663e958b704876040518263ffffffff1660e01b815260040161183a9190615801565b60206040518083038186803b15801561185257600080fd5b505afa158015611866573d6000803e3d6000fd5b505050506040513d601f19601f8201168201806040525081019061188a91906147d8565b90508073ffffffffffffffffffffffffffffffffffffffff16631afbb7a46040518163ffffffff1660e01b815260040160206040518083038186803b1580156118d257600080fd5b505afa1580156118e6573d6000803e3d6000fd5b505050506040513d601f19601f8201168201806040525081019061190a9190614a3e565b836101a00181815250508073ffffffffffffffffffffffffffffffffffffffff166317d11a156040518163ffffffff1660e01b815260040160206040518083038186803b15801561195a57600080fd5b505afa15801561196e573d6000803e3d6000fd5b505050506040513d601f19601f820116820180604052508101906119929190614a3e565b836101c00181815250508073ffffffffffffffffffffffffffffffffffffffff16633dc54b406040518163ffffffff1660e01b815260040160206040518083038186803b1580156119e257600080fd5b505afa1580156119f6573d6000803e3d6000fd5b505050506040513d601f19601f82011682018060405250810190611a1a9190614a3e565b836101e00181815250508673ffffffffffffffffffffffffffffffffffffffff16633ce073558760006040518363ffffffff1660e01b8152600401611a6092919061581c565b60206040518083038186803b158015611a7857600080fd5b505afa158015611a8c573d6000803e3d6000fd5b505050506040513d601f19601f82011682018060405250810190611ab09190614a3e565b836101400181815250508673ffffffffffffffffffffffffffffffffffffffff16633ce073558760016040518363ffffffff1660e01b8152600401611af692919061581c565b60206040518083038186803b158015611b0e57600080fd5b505afa158015611b22573d6000803e3d6000fd5b505050506040513d601f19601f82011682018060405250810190611b469190614a3e565b8361016001818152505060008773ffffffffffffffffffffffffffffffffffffffff1663996329f8838560c0015160006040518463ffffffff1660e01b8152600401611b949392919061586e565b60a06040518083038186803b158015611bac57600080fd5b505afa158015611bc0573d6000803e3d6000fd5b505050506040513d601f19601f82011682018060405250810190611be49190614a67565b5050925050506000811184610180019015159081151581525050839550505050505092915050565b606060007f000000000000000000000000000000000000000000000000000000000000000073ffffffffffffffffffffffffffffffffffffffff1663b4ac68606040518163ffffffff1660e01b815260040160206040518083038186803b158015611c7657600080fd5b505afa158015611c8a573d6000803e3d6000fd5b505050506040513d601f19601f82011682018060405250810190611cae9190614a3e565b905060008167ffffffffffffffff81118015611cc957600080fd5b50604051908082528060200260200182016040528015611d0357816020015b611cf06142e2565b815260200190600190039081611ce85790505b50905060005b82811015611dec5760007f000000000000000000000000000000000000000000000000000000000000000073ffffffffffffffffffffffffffffffffffffffff1663ac4afa38836040518263ffffffff1660e01b8152600401611d6c9190615a42565b60206040518083038186803b158015611d8457600080fd5b505afa158015611d98573d6000803e3d6000fd5b505050506040513d601f19601f82011682018060405250810190611dbc91906147d8565b9050611dc781610adf565b838381518110611dd357fe5b6020026020010181905250508080600101915050611d09565b50809250505090565b60008054906101000a900473ffffffffffffffffffffffffffffffffffffffff1681565b6000806000611e2787613cd9565b9150915060008173ffffffffffffffffffffffffffffffffffffffff16632630c12f6040518163ffffffff1660e01b815260040160206040518083038186803b158015611e7357600080fd5b505afa158015611e87573d6000803e3d6000fd5b505050506040513d601f19601f82011682018060405250810190611eab91906147d8565b905060006120538373ffffffffffffffffffffffffffffffffffffffff1663783274388a6040518263ffffffff1660e01b8152600401611eeb9190615801565b60206040518083038186803b158015611f0357600080fd5b505afa158015611f17573d6000803e3d6000fd5b505050506040513d601f19601f82011682018060405250810190611f3b9190614a3e565b8373ffffffffffffffffffffffffffffffffffffffff1663b66102df8a8c8973ffffffffffffffffffffffffffffffffffffffff16632495a5996040518163ffffffff1660e01b815260040160206040518083038186803b158015611f9f57600080fd5b505afa158015611fb3573d6000803e3d6000fd5b505050506040513d601f19601f82011682018060405250810190611fd791906147d8565b6040518463ffffffff1660e01b8152600401611ff593929190615a5d565b60206040518083038186803b15801561200d57600080fd5b505afa158015612021573d6000803e3d6000fd5b505050506040513d601f19601f820116820180604052508101906120459190614a3e565b613f0a90919063ffffffff16565b905061206886826140eb90919063ffffffff16565b945050505050949350505050565b7f000000000000000000000000000000000000000000000000000000000000000081565b6000827f000000000000000000000000000000000000000000000000000000000000000073ffffffffffffffffffffffffffffffffffffffff16636fbc6f6b826040518263ffffffff1660e01b81526004016120f69190615801565b60206040518083038186803b15801561210e57600080fd5b505afa158015612122573d6000803e3d6000fd5b505050506040513d601f19601f8201168201806040525081019061214691906149ab565b6040518060400160405280600281526020017f4350000000000000000000000000000000000000000000000000000000000000815250906121bd576040517f08c379a00000000000000000000000000000000000000000000000000000000081526004016121b4919061597e565b60405180910390fd5b508373ffffffffffffffffffffffffffffffffffffffff1663f93f515b6040518163ffffffff1660e01b815260040160206040518083038186803b15801561220457600080fd5b505afa158015612218573d6000803e3d6000fd5b505050506040513d601f19601f8201168201806040525081019061223c91906149d4565b73ffffffffffffffffffffffffffffffffffffffff1663fdd57645846040518263ffffffff1660e01b81526004016122749190615801565b60206040518083038186803b15801561228c57600080fd5b505afa1580156122a0573d6000803e3d6000fd5b505050506040513d601f19601f820116820180604052508101906122c491906147d8565b91505092915050565b7f000000000000000000000000000000000000000000000000000000000000000081565b6060600080600090505b7f000000000000000000000000000000000000000000000000000000000000000073ffffffffffffffffffffffffffffffffffffffff1663c29277cd6040518163ffffffff1660e01b815260040160206040518083038186803b15801561236157600080fd5b505afa158015612375573d6000803e3d6000fd5b505050506040513d601f19601f820116820180604052508101906123999190614a3e565b8110156124f25760007f000000000000000000000000000000000000000000000000000000000000000073ffffffffffffffffffffffffffffffffffffffff16631e16e4fc836040518263ffffffff1660e01b81526004016123fb9190615a42565b60206040518083038186803b15801561241357600080fd5b505afa158015612427573d6000803e3d6000fd5b505050506040513d601f19601f8201168201806040525081019061244b91906147d8565b90508073ffffffffffffffffffffffffffffffffffffffff1663256ac915866040518263ffffffff1660e01b81526004016124869190615801565b60206040518083038186803b15801561249e57600080fd5b505afa1580156124b2573d6000803e3d6000fd5b505050506040513d601f19601f820116820180604052508101906124d691906149ab565b156124e45782806001019350505b5080806001019150506122fb565b5060008167ffffffffffffffff8111801561250c57600080fd5b5060405190808252806020026020018201604052801561254657816020015b6125336141fc565b81526020019060019003908161252b5790505b5090506000915060005b7f000000000000000000000000000000000000000000000000000000000000000073ffffffffffffffffffffffffffffffffffffffff1663c29277cd6040518163ffffffff1660e01b815260040160206040518083038186803b1580156125b657600080fd5b505afa1580156125ca573d6000803e3d6000fd5b505050506040513d601f19601f820116820180604052508101906125ee9190614a3e565b8110156127685760007f000000000000000000000000000000000000000000000000000000000000000073ffffffffffffffffffffffffffffffffffffffff16631e16e4fc836040518263ffffffff1660e01b81526004016126509190615a42565b60206040518083038186803b15801561266857600080fd5b505afa15801561267c573d6000803e3d6000fd5b505050506040513d601f19601f820116820180604052508101906126a091906147d8565b90508073ffffffffffffffffffffffffffffffffffffffff1663256ac915876040518263ffffffff1660e01b81526004016126db9190615801565b60206040518083038186803b1580156126f357600080fd5b505afa158015612707573d6000803e3d6000fd5b505050506040513d601f19601f8201168201806040525081019061272b91906149ab565b1561275a5761273a8187610382565b83858151811061274657fe5b602002602001018190525083806001019450505b508080600101915050612550565b508092505050919050565b61277b614475565b60008061278785613cd9565b91509150612793614475565b85816000019073ffffffffffffffffffffffffffffffffffffffff16908173ffffffffffffffffffffffffffffffffffffffff16815250508273ffffffffffffffffffffffffffffffffffffffff1663256ac915866040518263ffffffff1660e01b81526004016128049190615801565b60206040518083038186803b15801561281c57600080fd5b505afa158015612830573d6000803e3d6000fd5b505050506040513d601f19601f8201168201806040525081019061285491906149ab565b8160200190151590811515815250508173ffffffffffffffffffffffffffffffffffffffff16632495a5996040518163ffffffff1660e01b815260040160206040518083038186803b1580156128a957600080fd5b505afa1580156128bd573d6000803e3d6000fd5b505050506040513d601f19601f820116820180604052508101906128e191906147d8565b816040019073ffffffffffffffffffffffffffffffffffffffff16908173ffffffffffffffffffffffffffffffffffffffff16815250507f000000000000000000000000000000000000000000000000000000000000000073ffffffffffffffffffffffffffffffffffffffff16816040015173ffffffffffffffffffffffffffffffffffffffff161481606001901515908115158152505060008373ffffffffffffffffffffffffffffffffffffffff1663570a7af26040518163ffffffff1660e01b815260040160206040518083038186803b1580156129c257600080fd5b505afa1580156129d6573d6000803e3d6000fd5b505050506040513d601f19601f820116820180604052508101906129fa91906147d8565b90508073ffffffffffffffffffffffffffffffffffffffff16632e97ca21886040518263ffffffff1660e01b8152600401612a359190615801565b60206040518083038186803b158015612a4d57600080fd5b505afa158015612a61573d6000803e3d6000fd5b505050506040513d601f19601f82011682018060405250810190612a8591906149ab565b8260800190151590811515815250508073ffffffffffffffffffffffffffffffffffffffff166345d31f9d6040518163ffffffff1660e01b815260040160206040518083038186803b158015612ada57600080fd5b505afa158015612aee573d6000803e3d6000fd5b505050506040513d601f19601f82011682018060405250810190612b129190614a3e565b8260a00181815250508073ffffffffffffffffffffffffffffffffffffffff1663743753596040518163ffffffff1660e01b815260040160206040518083038186803b158015612b6157600080fd5b505afa158015612b75573d6000803e3d6000fd5b505050506040513d601f19601f82011682018060405250810190612b999190614a3e565b826101200181815250508373ffffffffffffffffffffffffffffffffffffffff16639b2cb5d86040518163ffffffff1660e01b815260040160206040518083038186803b158015612be957600080fd5b505afa158015612bfd573d6000803e3d6000fd5b505050506040513d601f19601f82011682018060405250810190612c219190614a3e565b8260c00181815250508373ffffffffffffffffffffffffffffffffffffffff16635f48f3936040518163ffffffff1660e01b815260040160206040518083038186803b158015612c7057600080fd5b505afa158015612c84573d6000803e3d6000fd5b505050506040513d601f19601f82011682018060405250810190612ca89190614a3e565b8260e00181815250508373ffffffffffffffffffffffffffffffffffffffff1663b2c53a6c6040518163ffffffff1660e01b815260040160206040518083038186803b158015612cf757600080fd5b505afa158015612d0b573d6000803e3d6000fd5b505050506040513d601f19601f82011682018060405250810190612d2f9190614a3e565b8261010001818152505060008373ffffffffffffffffffffffffffffffffffffffff166320a05ff76040518163ffffffff1660e01b815260040160206040518083038186803b158015612d8157600080fd5b505afa158015612d95573d6000803e3d6000fd5b505050506040513d601f19601f82011682018060405250810190612db99190614a3e565b90508067ffffffffffffffff81118015612dd257600080fd5b50604051908082528060200260200182016040528015612e015781602001602082028036833780820191505090505b5083610140018190525060005b81811015612ef7578473ffffffffffffffffffffffffffffffffffffffff16635e5f2e26826040518263ffffffff1660e01b8152600401612e4f9190615a42565b60206040518083038186803b158015612e6757600080fd5b505afa158015612e7b573d6000803e3d6000fd5b505050506040513d601f19601f82011682018060405250810190612e9f91906147d8565b8461014001518281518110612eb057fe5b602002602001019073ffffffffffffffffffffffffffffffffffffffff16908173ffffffffffffffffffffffffffffffffffffffff16815250508080600101915050612e0e565b5060008473ffffffffffffffffffffffffffffffffffffffff166350e036ff6040518163ffffffff1660e01b815260040160206040518083038186803b158015612f4057600080fd5b505afa158015612f54573d6000803e3d6000fd5b505050506040513d601f19601f82011682018060405250810190612f789190614a3e565b90508067ffffffffffffffff81118015612f9157600080fd5b50604051908082528060200260200182016040528015612fcb57816020015b612fb8614508565b815260200190600190039081612fb05790505b5084610160018190525060005b8181101561319757612fe8614508565b8673ffffffffffffffffffffffffffffffffffffffff16635094cb4f836040518263ffffffff1660e01b81526004016130219190615a42565b60206040518083038186803b15801561303957600080fd5b505afa15801561304d573d6000803e3d6000fd5b505050506040513d601f19601f8201168201806040525081019061307191906147d8565b816000019073ffffffffffffffffffffffffffffffffffffffff16908173ffffffffffffffffffffffffffffffffffffffff16815250508673ffffffffffffffffffffffffffffffffffffffff1663fdd5764582600001516040518263ffffffff1660e01b81526004016130e59190615801565b60206040518083038186803b1580156130fd57600080fd5b505afa158015613111573d6000803e3d6000fd5b505050506040513d601f19601f8201168201806040525081019061313591906147d8565b816020019073ffffffffffffffffffffffffffffffffffffffff16908173ffffffffffffffffffffffffffffffffffffffff168152505080866101600151838151811061317e57fe5b6020026020010181905250508080600101915050612fd8565b5083965050505050505092915050565b606060007f000000000000000000000000000000000000000000000000000000000000000073ffffffffffffffffffffffffffffffffffffffff1663c29277cd6040518163ffffffff1660e01b815260040160206040518083038186803b15801561321157600080fd5b505afa158015613225573d6000803e3d6000fd5b505050506040513d601f19601f820116820180604052508101906132499190614a3e565b905060008167ffffffffffffffff8111801561326457600080fd5b5060405190808252806020026020018201604052801561329e57816020015b61328b614475565b8152602001906001900390816132835790505b50905060005b828110156133885760007f000000000000000000000000000000000000000000000000000000000000000073ffffffffffffffffffffffffffffffffffffffff16631e16e4fc836040518263ffffffff1660e01b81526004016133079190615a42565b60206040518083038186803b15801561331f57600080fd5b505afa158015613333573d6000803e3d6000fd5b505050506040513d601f19601f8201168201806040525081019061335791906147d8565b90506133638187612773565b83838151811061336f57fe5b60200260200101819052505080806001019150506132a4565b508092505050919050565b60008060006133a186613cd9565b9150915060008273ffffffffffffffffffffffffffffffffffffffff1663e958b704876040518263ffffffff1660e01b81526004016133e09190615801565b60206040518083038186803b1580156133f857600080fd5b505afa15801561340c573d6000803e3d6000fd5b505050506040513d601f19601f8201168201806040525081019061343091906147d8565b905060008273ffffffffffffffffffffffffffffffffffffffff16632630c12f6040518163ffffffff1660e01b815260040160206040518083038186803b15801561347a57600080fd5b505afa15801561348e573d6000803e3d6000fd5b505050506040513d601f19601f820116820180604052508101906134b291906147d8565b905060008373ffffffffffffffffffffffffffffffffffffffff166320a05ff76040518163ffffffff1660e01b815260040160206040518083038186803b1580156134fc57600080fd5b505afa158015613510573d6000803e3d6000fd5b505050506040513d601f19601f820116820180604052508101906135349190614a3e565b905080875114613579576040517f08c379a0000000000000000000000000000000000000000000000000000000008152600401613570906159a0565b60405180910390fd5b6000808673ffffffffffffffffffffffffffffffffffffffff16632495a5996040518163ffffffff1660e01b815260040160206040518083038186803b1580156135c257600080fd5b505afa1580156135d6573d6000803e3d6000fd5b505050506040513d601f19601f820116820180604052508101906135fa91906147d8565b905060005b83811015613872576138636138548873ffffffffffffffffffffffffffffffffffffffff1663783274388a73ffffffffffffffffffffffffffffffffffffffff16635e5f2e26866040518263ffffffff1660e01b81526004016136629190615a42565b60206040518083038186803b15801561367a57600080fd5b505afa15801561368e573d6000803e3d6000fd5b505050506040513d601f19601f820116820180604052508101906136b291906147d8565b6040518263ffffffff1660e01b81526004016136ce9190615801565b60206040518083038186803b1580156136e657600080fd5b505afa1580156136fa573d6000803e3d6000fd5b505050506040513d601f19601f8201168201806040525081019061371e9190614a3e565b8773ffffffffffffffffffffffffffffffffffffffff1663b66102df8e868151811061374657fe5b60200260200101518c73ffffffffffffffffffffffffffffffffffffffff16635e5f2e26886040518263ffffffff1660e01b81526004016137879190615a42565b60206040518083038186803b15801561379f57600080fd5b505afa1580156137b3573d6000803e3d6000fd5b505050506040513d601f19601f820116820180604052508101906137d791906147d8565b886040518463ffffffff1660e01b81526004016137f693929190615a5d565b60206040518083038186803b15801561380e57600080fd5b505afa158015613822573d6000803e3d6000fd5b505050506040513d601f19601f820116820180604052508101906138469190614a3e565b613f0a90919063ffffffff16565b8461417490919063ffffffff16565b925080806001019150506135ff565b5061390e8673ffffffffffffffffffffffffffffffffffffffff16633192195c876040518263ffffffff1660e01b81526004016138af9190615801565b60206040518083038186803b1580156138c757600080fd5b505afa1580156138db573d6000803e3d6000fd5b505050506040513d601f19601f820116820180604052508101906138ff9190614a3e565b836140eb90919063ffffffff16565b9750505050505050509392505050565b60606000825167ffffffffffffffff8111801561393a57600080fd5b5060405190808252806020026020018201604052801561397457816020015b61396161454e565b8152602001906001900390816139595790505b50905060005b8351811015613b1357604051806060016040528085838151811061399a57fe5b602002602001015173ffffffffffffffffffffffffffffffffffffffff1681526020018583815181106139c957fe5b602002602001015173ffffffffffffffffffffffffffffffffffffffff166395d89b416040518163ffffffff1660e01b815260040160006040518083038186803b158015613a1657600080fd5b505afa158015613a2a573d6000803e3d6000fd5b505050506040513d6000823e3d601f19601f82011682018060405250810190613a5391906149fd565b8152602001858381518110613a6457fe5b602002602001015173ffffffffffffffffffffffffffffffffffffffff1663313ce5676040518163ffffffff1660e01b815260040160206040518083038186803b158015613ab157600080fd5b505afa158015613ac5573d6000803e3d6000fd5b505050506040513d601f19601f82011682018060405250810190613ae99190614ade565b60ff16815250828281518110613afb57fe5b6020026020010181905250808060010191505061397a565b5080915050919050565b6000827f000000000000000000000000000000000000000000000000000000000000000073ffffffffffffffffffffffffffffffffffffffff16636fbc6f6b826040518263ffffffff1660e01b8152600401613b799190615801565b60206040518083038186803b158015613b9157600080fd5b505afa158015613ba5573d6000803e3d6000fd5b505050506040513d601f19601f82011682018060405250810190613bc991906149ab565b6040518060400160405280600281526020017f435000000000000000000000000000000000000000000000000000000000000081525090613c40576040517f08c379a0000000000000000000000000000000000000000000000000000000008152600401613c37919061597e565b60405180910390fd5b5060008490508073ffffffffffffffffffffffffffffffffffffffff1663256ac915856040518263ffffffff1660e01b8152600401613c7f9190615801565b60206040518083038186803b158015613c9757600080fd5b505afa158015613cab573d6000803e3d6000fd5b505050506040513d601f19601f82011682018060405250810190613ccf91906149ab565b9250505092915050565b600080827f000000000000000000000000000000000000000000000000000000000000000073ffffffffffffffffffffffffffffffffffffffff16636fbc6f6b826040518263ffffffff1660e01b8152600401613d369190615801565b60206040518083038186803b158015613d4e57600080fd5b505afa158015613d62573d6000803e3d6000fd5b505050506040513d601f19601f82011682018060405250810190613d8691906149ab565b6040518060400160405280600281526020017f435000000000000000000000000000000000000000000000000000000000000081525090613dfd576040517f08c379a0000000000000000000000000000000000000000000000000000000008152600401613df4919061597e565b60405180910390fd5b508392508273ffffffffffffffffffffffffffffffffffffffff1663f93f515b6040518163ffffffff1660e01b815260040160206040518083038186803b158015613e4757600080fd5b505afa158015613e5b573d6000803e3d6000fd5b505050506040513d601f19601f82011682018060405250810190613e7f91906149d4565b915050915091565b600082821115613eff576040517f08c379a000000000000000000000000000000000000000000000000000000000815260040180806020018281038252601e8152602001807f536166654d6174683a207375627472616374696f6e206f766572666c6f77000081525060200191505060405180910390fd5b818303905092915050565b600080831415613f1d5760009050613f8a565b6000828402905082848281613f2e57fe5b0414613f85576040517f08c379a0000000000000000000000000000000000000000000000000000000008152600401808060200182810382526021815260200180615e726021913960400191505060405180910390fd5b809150505b92915050565b600080831480613fa05750600082145b15613fae57600090506140e5565b81600261271081613fbb57fe5b047fffffffffffffffffffffffffffffffffffffffffffffffffffffffffffffffff0381613fe557fe5b048311156040518060400160405280600281526020017f4d31000000000000000000000000000000000000000000000000000000000000815250906140c5576040517f08c379a00000000000000000000000000000000000000000000000000000000081526004018080602001828103825283818151815260200191508051906020019080838360005b8381101561408a57808201518184015260208101905061406f565b50505050905090810190601f1680156140b75780820380516001836020036101000a031916815260200191505b509250505060405180910390fd5b506127106002612710816140d557fe5b0483850201816140e157fe5b0490505b92915050565b6000808211614162576040517f08c379a000000000000000000000000000000000000000000000000000000000815260040180806020018281038252601a8152602001807f536166654d6174683a206469766973696f6e206279207a65726f00000000000081525060200191505060405180910390fd5b81838161416b57fe5b04905092915050565b6000808284019050838110156141f2576040517f08c379a000000000000000000000000000000000000000000000000000000000815260040180806020018281038252601b8152602001807f536166654d6174683a206164646974696f6e206f766572666c6f77000000000081525060200191505060405180910390fd5b8091505092915050565b604051806101400160405280600073ffffffffffffffffffffffffffffffffffffffff168152602001600073ffffffffffffffffffffffffffffffffffffffff168152602001600015158152602001600073ffffffffffffffffffffffffffffffffffffffff168152602001600073ffffffffffffffffffffffffffffffffffffffff16815260200160008152602001600081526020016000815260200160008152602001606081525090565b6040518060600160405280600073ffffffffffffffffffffffffffffffffffffffff168152602001600081526020016000151581525090565b604051806101e00160405280600073ffffffffffffffffffffffffffffffffffffffff168152602001600015158152602001600073ffffffffffffffffffffffffffffffffffffffff168152602001600073ffffffffffffffffffffffffffffffffffffffff16815260200160008152602001600081526020016000815260200160008152602001600081526020016000815260200160008152602001600081526020016000815260200160008152602001600081525090565b604051806102000160405280600073ffffffffffffffffffffffffffffffffffffffff168152602001600073ffffffffffffffffffffffffffffffffffffffff168152602001600015158152602001600073ffffffffffffffffffffffffffffffffffffffff168152602001600073ffffffffffffffffffffffffffffffffffffffff168152602001600081526020016000815260200160008152602001600081526020016060815260200160008152602001600081526020016000151581526020016000815260200160008152602001600081525090565b604051806101800160405280600073ffffffffffffffffffffffffffffffffffffffff168152602001600015158152602001600073ffffffffffffffffffffffffffffffffffffffff168152602001600015158152602001600015158152602001600081526020016000815260200160008152602001600081526020016000815260200160608152602001606081525090565b6040518060400160405280600073ffffffffffffffffffffffffffffffffffffffff168152602001600073ffffffffffffffffffffffffffffffffffffffff1681525090565b6040518060600160405280600073ffffffffffffffffffffffffffffffffffffffff16815260200160608152602001600060ff1681525090565b600061459b61459684615ac5565b615a94565b905080838252602082019050828560208602820111156145ba57600080fd5b60005b858110156145ea57816145d0888261469e565b8452602084019350602083019250506001810190506145bd565b5050509392505050565b600061460761460284615af1565b615a94565b9050808382526020820190508285602086028201111561462657600080fd5b60005b85811015614656578161463c8882614770565b845260208401935060208301925050600181019050614629565b5050509392505050565b600061467361466e84615b1d565b615a94565b90508281526020810184848401111561468b57600080fd5b614696848285615db8565b509392505050565b6000813590506146ad81615dfe565b92915050565b6000815190506146c281615dfe565b92915050565b600082601f8301126146d957600080fd5b81356146e9848260208601614588565b91505092915050565b600082601f83011261470357600080fd5b81356147138482602086016145f4565b91505092915050565b60008151905061472b81615e15565b92915050565b60008151905061474081615e2c565b92915050565b600082601f83011261475757600080fd5b8151614767848260208601614660565b91505092915050565b60008135905061477f81615e43565b92915050565b60008151905061479481615e43565b92915050565b6000815190506147a981615e5a565b92915050565b6000602082840312156147c157600080fd5b60006147cf8482850161469e565b91505092915050565b6000602082840312156147ea57600080fd5b60006147f8848285016146b3565b91505092915050565b6000806040838503121561481457600080fd5b60006148228582860161469e565b92505060206148338582860161469e565b9150509250929050565b60008060006060848603121561485257600080fd5b60006148608682870161469e565b93505060206148718682870161469e565b925050604084013567ffffffffffffffff81111561488e57600080fd5b61489a868287016146f2565b9150509250925092565b600080600080608085870312156148ba57600080fd5b60006148c88782880161469e565b94505060206148d98782880161469e565b93505060406148ea87828801614770565b92505060606148fb87828801614770565b91505092959194509250565b6000806000806080858703121561491d57600080fd5b600061492b878288016146b3565b945050602061493c87828801614785565b935050604061494d87828801614785565b925050606061495e87828801614785565b91505092959194509250565b60006020828403121561497c57600080fd5b600082013567ffffffffffffffff81111561499657600080fd5b6149a2848285016146c8565b91505092915050565b6000602082840312156149bd57600080fd5b60006149cb8482850161471c565b91505092915050565b6000602082840312156149e657600080fd5b60006149f484828501614731565b91505092915050565b600060208284031215614a0f57600080fd5b600082015167ffffffffffffffff811115614a2957600080fd5b614a3584828501614746565b91505092915050565b600060208284031215614a5057600080fd5b6000614a5e84828501614785565b91505092915050565b600080600080600060a08688031215614a7f57600080fd5b6000614a8d88828901614785565b9550506020614a9e88828901614785565b9450506040614aaf88828901614785565b9350506060614ac088828901614785565b9250506080614ad188828901614785565b9150509295509295909350565b600060208284031215614af057600080fd5b6000614afe8482850161479a565b91505092915050565b6000614b138383614ba4565b60208301905092915050565b6000614b2b8383614f87565b60408301905092915050565b6000614b43838361510e565b905092915050565b6000614b5783836152c2565b905092915050565b6000614b6b83836154d8565b6101e08301905092915050565b6000614b848383615742565b60608301905092915050565b6000614b9c8383615784565b905092915050565b614bad81615d09565b82525050565b614bbc81615d09565b82525050565b6000614bcd82615bbd565b614bd78185615c70565b9350614be283615b4d565b8060005b83811015614c13578151614bfa8882614b07565b9750614c0583615c15565b925050600181019050614be6565b5085935050505092915050565b6000614c2b82615bc8565b614c358185615c81565b9350614c4083615b5d565b8060005b83811015614c71578151614c588882614b1f565b9750614c6383615c22565b925050600181019050614c44565b5085935050505092915050565b6000614c8982615bd3565b614c938185615c92565b935083602082028501614ca585615b6d565b8060005b85811015614ce15784840389528151614cc28582614b37565b9450614ccd83615c2f565b925060208a01995050600181019050614ca9565b50829750879550505050505092915050565b6000614cfe82615bde565b614d088185615ca3565b935083602082028501614d1a85615b7d565b8060005b85811015614d565784840389528151614d378582614b4b565b9450614d4283615c3c565b925060208a01995050600181019050614d1e565b50829750879550505050505092915050565b6000614d7382615be9565b614d7d8185615cb4565b9350614d8883615b8d565b8060005b83811015614db9578151614da08882614b5f565b9750614dab83615c49565b925050600181019050614d8c565b5085935050505092915050565b6000614dd182615bf4565b614ddb8185615cc5565b9350614de683615b9d565b8060005b83811015614e17578151614dfe8882614b78565b9750614e0983615c56565b925050600181019050614dea565b5085935050505092915050565b6000614e2f82615bff565b614e398185615cd6565b935083602082028501614e4b85615bad565b8060005b85811015614e875784840389528151614e688582614b90565b9450614e7383615c63565b925060208a01995050600181019050614e4f565b50829750879550505050505092915050565b614ea281615d1b565b82525050565b614eb181615d1b565b82525050565b614ec081615d70565b82525050565b614ecf81615d94565b82525050565b6000614ee082615c0a565b614eea8185615ce7565b9350614efa818560208601615db8565b614f0381615ded565b840191505092915050565b6000614f1982615c0a565b614f238185615cf8565b9350614f33818560208601615db8565b614f3c81615ded565b840191505092915050565b6000614f54601783615cf8565b91507f496e636f72726563742062616c616e6365732073697a650000000000000000006000830152602082019050919050565b604082016000820151614f9d6000850182614ba4565b506020820151614fb06020850182614ba4565b50505050565b600061020083016000830151614fcf6000860182614ba4565b506020830151614fe26020860182614ba4565b506040830151614ff56040860182614e99565b5060608301516150086060860182614ba4565b50608083015161501b6080860182614ba4565b5060a083015161502e60a08601826157d4565b5060c083015161504160c08601826157d4565b5060e083015161505460e08601826157d4565b506101008301516150696101008601826157d4565b506101208301518482036101208601526150838282614dc6565b91505061014083015161509a6101408601826157d4565b506101608301516150af6101608601826157d4565b506101808301516150c4610180860182614e99565b506101a08301516150d96101a08601826157d4565b506101c08301516150ee6101c08601826157d4565b506101e08301516151036101e08601826157d4565b508091505092915050565b6000610140830160008301516151276000860182614ba4565b50602083015161513a6020860182614ba4565b50604083015161514d6040860182614e99565b5060608301516151606060860182614ba4565b5060808301516151736080860182614ba4565b5060a083015161518660a08601826157d4565b5060c083015161519960c08601826157d4565b5060e08301516151ac60e08601826157d4565b506101008301516151c16101008601826157d4565b506101208301518482036101208601526151db8282614dc6565b9150508091505092915050565b6000610140830160008301516152016000860182614ba4565b5060208301516152146020860182614ba4565b5060408301516152276040860182614e99565b50606083015161523a6060860182614ba4565b50608083015161524d6080860182614ba4565b5060a083015161526060a08601826157d4565b5060c083015161527360c08601826157d4565b5060e083015161528660e08601826157d4565b5061010083015161529b6101008601826157d4565b506101208301518482036101208601526152b58282614dc6565b9150508091505092915050565b6000610180830160008301516152db6000860182614ba4565b5060208301516152ee6020860182614e99565b5060408301516153016040860182614ba4565b5060608301516153146060860182614e99565b5060808301516153276080860182614e99565b5060a083015161533a60a08601826157d4565b5060c083015161534d60c08601826157d4565b5060e083015161536060e08601826157d4565b506101008301516153756101008601826157d4565b5061012083015161538a6101208601826157d4565b506101408301518482036101408601526153a48282614bc2565b9150506101608301518482036101608601526153c08282614c20565b9150508091505092915050565b6000610180830160008301516153e66000860182614ba4565b5060208301516153f96020860182614e99565b50604083015161540c6040860182614ba4565b50606083015161541f6060860182614e99565b5060808301516154326080860182614e99565b5060a083015161544560a08601826157d4565b5060c083015161545860c08601826157d4565b5060e083015161546b60e08601826157d4565b506101008301516154806101008601826157d4565b506101208301516154956101208601826157d4565b506101408301518482036101408601526154af8282614bc2565b9150506101608301518482036101608601526154cb8282614c20565b9150508091505092915050565b6101e0820160008201516154ef6000850182614ba4565b5060208201516155026020850182614e99565b5060408201516155156040850182614ba4565b5060608201516155286060850182614ba4565b50608082015161553b60808501826157d4565b5060a082015161554e60a08501826157d4565b5060c082015161556160c08501826157d4565b5060e082015161557460e08501826157d4565b506101008201516155896101008501826157d4565b5061012082015161559e6101208501826157d4565b506101408201516155b36101408501826157d4565b506101608201516155c86101608501826157d4565b506101808201516155dd6101808501826157d4565b506101a08201516155f26101a08501826157d4565b506101c08201516156076101c08501826157d4565b50505050565b6101e0820160008201516156246000850182614ba4565b5060208201516156376020850182614e99565b50604082015161564a6040850182614ba4565b50606082015161565d6060850182614ba4565b50608082015161567060808501826157d4565b5060a082015161568360a08501826157d4565b5060c082015161569660c08501826157d4565b5060e08201516156a960e08501826157d4565b506101008201516156be6101008501826157d4565b506101208201516156d36101208501826157d4565b506101408201516156e86101408501826157d4565b506101608201516156fd6101608501826157d4565b506101808201516157126101808501826157d4565b506101a08201516157276101a08501826157d4565b506101c082015161573c6101c08501826157d4565b50505050565b6060820160008201516157586000850182614ba4565b50602082015161576b60208501826157d4565b50604082015161577e6040850182614e99565b50505050565b600060608301600083015161579c6000860182614ba4565b50602083015184820360208601526157b48282614ed5565b91505060408301516157c960408601826157f2565b508091505092915050565b6157dd81615d59565b82525050565b6157ec81615d59565b82525050565b6157fb81615d63565b82525050565b60006020820190506158166000830184614bb3565b92915050565b60006040820190506158316000830185614bb3565b61583e6020830184614ea8565b9392505050565b600060408201905061585a6000830185614bb3565b61586760208301846157e3565b9392505050565b60006060820190506158836000830186614bb3565b61589060208301856157e3565b61589d6040830184614ea8565b949350505050565b600060208201905081810360008301526158bf8184614c7e565b905092915050565b600060208201905081810360008301526158e18184614cf3565b905092915050565b600060208201905081810360008301526159038184614d68565b905092915050565b600060208201905081810360008301526159258184614e24565b905092915050565b60006020820190506159426000830184614ea8565b92915050565b600060208201905061595d6000830184614eb7565b92915050565b60006020820190506159786000830184614ec6565b92915050565b600060208201905081810360008301526159988184614f0e565b905092915050565b600060208201905081810360008301526159b981614f47565b9050919050565b600060208201905081810360008301526159da8184614fb6565b905092915050565b600060208201905081810360008301526159fc81846151e8565b905092915050565b60006020820190508181036000830152615a1e81846153cd565b905092915050565b60006101e082019050615a3c600083018461560d565b92915050565b6000602082019050615a5760008301846157e3565b92915050565b6000606082019050615a7260008301866157e3565b615a7f6020830185614bb3565b615a8c6040830184614bb3565b949350505050565b6000604051905081810181811067ffffffffffffffff82111715615abb57615aba615deb565b5b8060405250919050565b600067ffffffffffffffff821115615ae057615adf615deb565b5b602082029050602081019050919050565b600067ffffffffffffffff821115615b0c57615b0b615deb565b5b602082029050602081019050919050565b600067ffffffffffffffff821115615b3857615b37615deb565b5b601f19601f8301169050602081019050919050565b6000819050602082019050919050565b6000819050602082019050919050565b6000819050602082019050919050565b6000819050602082019050919050565b6000819050602082019050919050565b6000819050602082019050919050565b6000819050602082019050919050565b600081519050919050565b600081519050919050565b600081519050919050565b600081519050919050565b600081519050919050565b600081519050919050565b600081519050919050565b600081519050919050565b6000602082019050919050565b6000602082019050919050565b6000602082019050919050565b6000602082019050919050565b6000602082019050919050565b6000602082019050919050565b6000602082019050919050565b600082825260208201905092915050565b600082825260208201905092915050565b600082825260208201905092915050565b600082825260208201905092915050565b600082825260208201905092915050565b600082825260208201905092915050565b600082825260208201905092915050565b600082825260208201905092915050565b600082825260208201905092915050565b6000615d1482615d39565b9050919050565b60008115159050919050565b6000615d3282615d09565b9050919050565b600073ffffffffffffffffffffffffffffffffffffffff82169050919050565b6000819050919050565b600060ff82169050919050565b6000615d7b82615d82565b9050919050565b6000615d8d82615d39565b9050919050565b6000615d9f82615da6565b9050919050565b6000615db182615d39565b9050919050565b60005b83811015615dd6578082015181840152602081019050615dbb565b83811115615de5576000848401525b50505050565bfe5b6000601f19601f8301169050919050565b615e0781615d09565b8114615e1257600080fd5b50565b615e1e81615d1b565b8114615e2957600080fd5b50565b615e3581615d27565b8114615e4057600080fd5b50565b615e4c81615d59565b8114615e5757600080fd5b50565b615e6381615d63565b8114615e6e57600080fd5b5056fe536166654d6174683a206d756c7469706c69636174696f6e206f766572666c6f77a264697066735822122038710809a0f696b10e35c2219886dff8ae178ecab9471e40ff6be166acf83c0a64736f6c63430007060033",
  "linkReferences": {},
  "deployedLinkReferences": {}
}