{
  "_format": "hh-sol-artifact-1",
  "contractName": "CreditManager",
  "sourceName": "contracts/credit/CreditManager.sol",
  "abi": [
    {
      "inputs": [
        {
          "internalType": "address",
          "name": "_addressProvider",
          "type": "address"
        },
        {
          "internalType": "uint256",
          "name": "_minAmount",
          "type": "uint256"
        },
        {
          "internalType": "uint256",
          "name": "_maxAmount",
          "type": "uint256"
        },
        {
          "internalType": "uint256",
          "name": "_maxLeverage",
          "type": "uint256"
        },
        {
          "internalType": "address",
          "name": "_poolService",
          "type": "address"
        },
        {
          "internalType": "address",
          "name": "_creditFilterAddress",
          "type": "address"
        },
        {
          "internalType": "address",
          "name": "_defaultSwapContract",
          "type": "address"
        }
      ],
      "stateMutability": "nonpayable",
      "type": "constructor"
    },
    {
      "anonymous": false,
      "inputs": [
        {
          "indexed": true,
          "internalType": "address",
          "name": "onBehalfOf",
          "type": "address"
        },
        {
          "indexed": true,
          "internalType": "address",
          "name": "token",
          "type": "address"
        },
        {
          "indexed": false,
          "internalType": "uint256",
          "name": "value",
          "type": "uint256"
        }
      ],
      "name": "AddCollateral",
      "type": "event"
    },
    {
      "anonymous": false,
      "inputs": [
        {
          "indexed": true,
          "internalType": "address",
          "name": "owner",
          "type": "address"
        },
        {
          "indexed": true,
          "internalType": "address",
          "name": "to",
          "type": "address"
        },
        {
          "indexed": false,
          "internalType": "uint256",
          "name": "remainingFunds",
          "type": "uint256"
        }
      ],
      "name": "CloseCreditAccount",
      "type": "event"
    },
    {
      "anonymous": false,
      "inputs": [
        {
          "indexed": true,
          "internalType": "address",
          "name": "borrower",
          "type": "address"
        },
        {
          "indexed": true,
          "internalType": "address",
          "name": "target",
          "type": "address"
        }
      ],
      "name": "ExecuteOrder",
      "type": "event"
    },
    {
      "anonymous": false,
      "inputs": [
        {
          "indexed": true,
          "internalType": "address",
          "name": "borrower",
          "type": "address"
        },
        {
          "indexed": false,
          "internalType": "uint256",
          "name": "amount",
          "type": "uint256"
        }
      ],
      "name": "IncreaseBorrowedAmount",
      "type": "event"
    },
    {
      "anonymous": false,
      "inputs": [
        {
          "indexed": true,
          "internalType": "address",
          "name": "owner",
          "type": "address"
        },
        {
          "indexed": true,
          "internalType": "address",
          "name": "liquidator",
          "type": "address"
        },
        {
          "indexed": false,
          "internalType": "uint256",
          "name": "remainingFunds",
          "type": "uint256"
        }
      ],
      "name": "LiquidateCreditAccount",
      "type": "event"
    },
    {
      "anonymous": false,
      "inputs": [
        {
          "indexed": false,
          "internalType": "uint256",
          "name": "minAmount",
          "type": "uint256"
        },
        {
          "indexed": false,
          "internalType": "uint256",
          "name": "maxAmount",
          "type": "uint256"
        },
        {
          "indexed": false,
          "internalType": "uint256",
          "name": "maxLeverage",
          "type": "uint256"
        },
        {
          "indexed": false,
          "internalType": "uint256",
          "name": "feeInterest",
          "type": "uint256"
        },
        {
          "indexed": false,
          "internalType": "uint256",
          "name": "feeLiquidation",
          "type": "uint256"
        },
        {
          "indexed": false,
          "internalType": "uint256",
          "name": "liquidationDiscount",
          "type": "uint256"
        }
      ],
      "name": "NewParameters",
      "type": "event"
    },
    {
      "anonymous": false,
      "inputs": [
        {
          "indexed": true,
          "internalType": "address",
          "name": "sender",
          "type": "address"
        },
        {
          "indexed": true,
          "internalType": "address",
          "name": "onBehalfOf",
          "type": "address"
        },
        {
          "indexed": true,
          "internalType": "address",
          "name": "creditAccount",
          "type": "address"
        },
        {
          "indexed": false,
          "internalType": "uint256",
          "name": "amount",
          "type": "uint256"
        },
        {
          "indexed": false,
          "internalType": "uint256",
          "name": "borrowAmount",
          "type": "uint256"
        },
        {
          "indexed": false,
          "internalType": "uint256",
          "name": "referralCode",
          "type": "uint256"
        }
      ],
      "name": "OpenCreditAccount",
      "type": "event"
    },
    {
      "anonymous": false,
      "inputs": [
        {
          "indexed": false,
          "internalType": "address",
          "name": "account",
          "type": "address"
        }
      ],
      "name": "Paused",
      "type": "event"
    },
    {
      "anonymous": false,
      "inputs": [
        {
          "indexed": true,
          "internalType": "address",
          "name": "owner",
          "type": "address"
        },
        {
          "indexed": true,
          "internalType": "address",
          "name": "to",
          "type": "address"
        }
      ],
      "name": "RepayCreditAccount",
      "type": "event"
    },
    {
      "anonymous": false,
      "inputs": [
        {
          "indexed": true,
          "internalType": "address",
          "name": "oldOwner",
          "type": "address"
        },
        {
          "indexed": true,
          "internalType": "address",
          "name": "newOwner",
          "type": "address"
        }
      ],
      "name": "TransferAccount",
      "type": "event"
    },
    {
      "anonymous": false,
      "inputs": [
        {
          "indexed": false,
          "internalType": "address",
          "name": "account",
          "type": "address"
        }
      ],
      "name": "Unpaused",
      "type": "event"
    },
    {
      "inputs": [
        {
          "internalType": "address",
          "name": "creditAccount",
          "type": "address"
        },
        {
          "internalType": "uint256",
          "name": "totalValue",
          "type": "uint256"
        },
        {
          "internalType": "bool",
          "name": "isLiquidated",
          "type": "bool"
        }
      ],
      "name": "_calcClosePayments",
      "outputs": [
        {
          "internalType": "uint256",
          "name": "_borrowedAmount",
          "type": "uint256"
        },
        {
          "internalType": "uint256",
          "name": "amountToPool",
          "type": "uint256"
        },
        {
          "internalType": "uint256",
          "name": "remainingFunds",
          "type": "uint256"
        },
        {
          "internalType": "uint256",
          "name": "profit",
          "type": "uint256"
        },
        {
          "internalType": "uint256",
          "name": "loss",
          "type": "uint256"
        }
      ],
      "stateMutability": "view",
      "type": "function"
    },
    {
      "inputs": [
        {
          "internalType": "uint256",
          "name": "totalValue",
          "type": "uint256"
        },
        {
          "internalType": "bool",
          "name": "isLiquidated",
          "type": "bool"
        },
        {
          "internalType": "uint256",
          "name": "borrowedAmount",
          "type": "uint256"
        },
        {
          "internalType": "uint256",
          "name": "cumulativeIndexAtCreditAccountOpen_RAY",
          "type": "uint256"
        },
        {
          "internalType": "uint256",
          "name": "cumulativeIndexNow_RAY",
          "type": "uint256"
        }
      ],
      "name": "_calcClosePaymentsPure",
      "outputs": [
        {
          "internalType": "uint256",
          "name": "_borrowedAmount",
          "type": "uint256"
        },
        {
          "internalType": "uint256",
          "name": "amountToPool",
          "type": "uint256"
        },
        {
          "internalType": "uint256",
          "name": "remainingFunds",
          "type": "uint256"
        },
        {
          "internalType": "uint256",
          "name": "profit",
          "type": "uint256"
        },
        {
          "internalType": "uint256",
          "name": "loss",
          "type": "uint256"
        }
      ],
      "stateMutability": "view",
      "type": "function"
    },
    {
      "inputs": [
        {
          "internalType": "address",
          "name": "onBehalfOf",
          "type": "address"
        },
        {
          "internalType": "address",
          "name": "token",
          "type": "address"
        },
        {
          "internalType": "uint256",
          "name": "amount",
          "type": "uint256"
        }
      ],
      "name": "addCollateral",
      "outputs": [],
      "stateMutability": "nonpayable",
      "type": "function"
    },
    {
      "inputs": [
        {
          "internalType": "address",
          "name": "targetContract",
          "type": "address"
        },
        {
          "internalType": "address",
          "name": "token",
          "type": "address"
        }
      ],
      "name": "approve",
      "outputs": [],
      "stateMutability": "nonpayable",
      "type": "function"
    },
    {
      "inputs": [
        {
          "internalType": "address",
          "name": "borrower",
          "type": "address"
        },
        {
          "internalType": "bool",
          "name": "isLiquidated",
          "type": "bool"
        }
      ],
      "name": "calcRepayAmount",
      "outputs": [
        {
          "internalType": "uint256",
          "name": "",
          "type": "uint256"
        }
      ],
      "stateMutability": "view",
      "type": "function"
    },
    {
      "inputs": [
        {
          "internalType": "address",
          "name": "to",
          "type": "address"
        },
        {
          "components": [
            {
              "internalType": "address[]",
              "name": "path",
              "type": "address[]"
            },
            {
              "internalType": "uint256",
              "name": "amountOutMin",
              "type": "uint256"
            }
          ],
          "internalType": "struct DataTypes.Exchange[]",
          "name": "paths",
          "type": "tuple[]"
        }
      ],
      "name": "closeCreditAccount",
      "outputs": [],
      "stateMutability": "nonpayable",
      "type": "function"
    },
    {
      "inputs": [
        {
          "internalType": "address",
          "name": "",
          "type": "address"
        }
      ],
      "name": "creditAccounts",
      "outputs": [
        {
          "internalType": "address",
          "name": "",
          "type": "address"
        }
      ],
      "stateMutability": "view",
      "type": "function"
    },
    {
      "inputs": [],
      "name": "creditFilter",
      "outputs": [
        {
          "internalType": "contract ICreditFilter",
          "name": "",
          "type": "address"
        }
      ],
      "stateMutability": "view",
      "type": "function"
    },
    {
      "inputs": [],
      "name": "defaultSwapContract",
      "outputs": [
        {
          "internalType": "address",
          "name": "",
          "type": "address"
        }
      ],
      "stateMutability": "view",
      "type": "function"
    },
    {
      "inputs": [
        {
          "internalType": "address",
          "name": "borrower",
          "type": "address"
        },
        {
          "internalType": "address",
          "name": "target",
          "type": "address"
        },
        {
          "internalType": "bytes",
          "name": "data",
          "type": "bytes"
        }
      ],
      "name": "executeOrder",
      "outputs": [
        {
          "internalType": "bytes",
          "name": "",
          "type": "bytes"
        }
      ],
      "stateMutability": "nonpayable",
      "type": "function"
    },
    {
      "inputs": [],
      "name": "feeInterest",
      "outputs": [
        {
          "internalType": "uint256",
          "name": "",
          "type": "uint256"
        }
      ],
      "stateMutability": "view",
      "type": "function"
    },
    {
      "inputs": [],
      "name": "feeLiquidation",
      "outputs": [
        {
          "internalType": "uint256",
          "name": "",
          "type": "uint256"
        }
      ],
      "stateMutability": "view",
      "type": "function"
    },
    {
      "inputs": [
        {
          "internalType": "address",
          "name": "borrower",
          "type": "address"
        }
      ],
      "name": "getCreditAccountOrRevert",
      "outputs": [
        {
          "internalType": "address",
          "name": "",
          "type": "address"
        }
      ],
      "stateMutability": "view",
      "type": "function"
    },
    {
      "inputs": [
        {
          "internalType": "address",
          "name": "borrower",
          "type": "address"
        }
      ],
      "name": "hasOpenedCreditAccount",
      "outputs": [
        {
          "internalType": "bool",
          "name": "",
          "type": "bool"
        }
      ],
      "stateMutability": "view",
      "type": "function"
    },
    {
      "inputs": [
        {
          "internalType": "uint256",
          "name": "amount",
          "type": "uint256"
        }
      ],
      "name": "increaseBorrowedAmount",
      "outputs": [],
      "stateMutability": "nonpayable",
      "type": "function"
    },
    {
      "inputs": [
        {
          "internalType": "address",
          "name": "borrower",
          "type": "address"
        },
        {
          "internalType": "address",
          "name": "to",
          "type": "address"
        },
        {
          "internalType": "bool",
          "name": "force",
          "type": "bool"
        }
      ],
      "name": "liquidateCreditAccount",
      "outputs": [],
      "stateMutability": "nonpayable",
      "type": "function"
    },
    {
      "inputs": [],
      "name": "liquidationDiscount",
      "outputs": [
        {
          "internalType": "uint256",
          "name": "",
          "type": "uint256"
        }
      ],
      "stateMutability": "view",
      "type": "function"
    },
    {
      "inputs": [],
      "name": "maxAmount",
      "outputs": [
        {
          "internalType": "uint256",
          "name": "",
          "type": "uint256"
        }
      ],
      "stateMutability": "view",
      "type": "function"
    },
    {
      "inputs": [],
      "name": "maxLeverageFactor",
      "outputs": [
        {
          "internalType": "uint256",
          "name": "",
          "type": "uint256"
        }
      ],
      "stateMutability": "view",
      "type": "function"
    },
    {
      "inputs": [],
      "name": "minAmount",
      "outputs": [
        {
          "internalType": "uint256",
          "name": "",
          "type": "uint256"
        }
      ],
      "stateMutability": "view",
      "type": "function"
    },
    {
      "inputs": [],
      "name": "minHealthFactor",
      "outputs": [
        {
          "internalType": "uint256",
          "name": "",
          "type": "uint256"
        }
      ],
      "stateMutability": "view",
      "type": "function"
    },
    {
      "inputs": [
        {
          "internalType": "uint256",
          "name": "amount",
          "type": "uint256"
        },
        {
          "internalType": "address",
          "name": "onBehalfOf",
          "type": "address"
        },
        {
          "internalType": "uint256",
          "name": "leverageFactor",
          "type": "uint256"
        },
        {
          "internalType": "uint256",
          "name": "referralCode",
          "type": "uint256"
        }
      ],
      "name": "openCreditAccount",
      "outputs": [],
      "stateMutability": "nonpayable",
      "type": "function"
    },
    {
      "inputs": [],
      "name": "pause",
      "outputs": [],
      "stateMutability": "nonpayable",
      "type": "function"
    },
    {
      "inputs": [],
      "name": "paused",
      "outputs": [
        {
          "internalType": "bool",
          "name": "",
          "type": "bool"
        }
      ],
      "stateMutability": "view",
      "type": "function"
    },
    {
      "inputs": [],
      "name": "poolService",
      "outputs": [
        {
          "internalType": "address",
          "name": "",
          "type": "address"
        }
      ],
      "stateMutability": "view",
      "type": "function"
    },
    {
      "inputs": [
        {
          "internalType": "address",
          "name": "creditAccount",
          "type": "address"
        },
        {
          "internalType": "address",
          "name": "targetContract",
          "type": "address"
        },
        {
          "internalType": "address",
          "name": "token",
          "type": "address"
        }
      ],
      "name": "provideCreditAccountAllowance",
      "outputs": [],
      "stateMutability": "nonpayable",
      "type": "function"
    },
    {
      "inputs": [
        {
          "internalType": "address",
          "name": "to",
          "type": "address"
        }
      ],
      "name": "repayCreditAccount",
      "outputs": [],
      "stateMutability": "nonpayable",
      "type": "function"
    },
    {
      "inputs": [
        {
          "internalType": "address",
          "name": "borrower",
          "type": "address"
        },
        {
          "internalType": "address",
          "name": "to",
          "type": "address"
        }
      ],
      "name": "repayCreditAccountETH",
      "outputs": [
        {
          "internalType": "uint256",
          "name": "",
          "type": "uint256"
        }
      ],
      "stateMutability": "nonpayable",
      "type": "function"
    },
    {
      "inputs": [
        {
          "internalType": "uint256",
          "name": "_minAmount",
          "type": "uint256"
        },
        {
          "internalType": "uint256",
          "name": "_maxAmount",
          "type": "uint256"
        },
        {
          "internalType": "uint256",
          "name": "_maxLeverageFactor",
          "type": "uint256"
        },
        {
          "internalType": "uint256",
          "name": "_feeInterest",
          "type": "uint256"
        },
        {
          "internalType": "uint256",
          "name": "_feeLiquidation",
          "type": "uint256"
        },
        {
          "internalType": "uint256",
          "name": "_liquidationDiscount",
          "type": "uint256"
        }
      ],
      "name": "setParams",
      "outputs": [],
      "stateMutability": "nonpayable",
      "type": "function"
    },
    {
      "inputs": [
        {
          "internalType": "address",
          "name": "newOwner",
          "type": "address"
        }
      ],
      "name": "transferAccountOwnership",
      "outputs": [],
      "stateMutability": "nonpayable",
      "type": "function"
    },
    {
      "inputs": [],
      "name": "underlyingToken",
      "outputs": [
        {
          "internalType": "address",
          "name": "",
          "type": "address"
        }
      ],
      "stateMutability": "view",
      "type": "function"
    },
    {
      "inputs": [],
      "name": "unpause",
      "outputs": [],
      "stateMutability": "nonpayable",
      "type": "function"
    },
    {
      "inputs": [],
      "name": "wethAddress",
      "outputs": [
        {
          "internalType": "address",
          "name": "",
          "type": "address"
        }
      ],
      "stateMutability": "view",
      "type": "function"
    },
    {
      "inputs": [],
      "name": "wethGateway",
      "outputs": [
        {
          "internalType": "address",
          "name": "",
          "type": "address"
        }
      ],
      "stateMutability": "view",
      "type": "function"
    }
  ],
  "bytecode": "0x60806040523480156200001157600080fd5b5060405162006ea138038062006ea1833981810160405281019062000037919062000c60565b8660008060006101000a81548160ff021916908315150217905550600073ffffffffffffffffffffffffffffffffffffffff168173ffffffffffffffffffffffffffffffffffffffff1614156040518060400160405280600281526020017f5a300000000000000000000000000000000000000000000000000000000000008152509062000163576040517f08c379a00000000000000000000000000000000000000000000000000000000081526004018080602001828103825283818151815260200191508051906020019080838360005b83811015620001275780820151818401526020810190506200010a565b50505050905090810190601f168015620001555780820380516001836020036101000a031916815260200191505b509250505060405180910390fd5b508073ffffffffffffffffffffffffffffffffffffffff1663087376956040518163ffffffff1660e01b815260040160206040518083038186803b158015620001ab57600080fd5b505afa158015620001c0573d6000803e3d6000fd5b505050506040513d6020811015620001d757600080fd5b8101908080519060200190929190505050600060016101000a81548173ffffffffffffffffffffffffffffffffffffffff021916908373ffffffffffffffffffffffffffffffffffffffff1602179055505060018081905550600073ffffffffffffffffffffffffffffffffffffffff168773ffffffffffffffffffffffffffffffffffffffff16141580156200029b5750600073ffffffffffffffffffffffffffffffffffffffff168373ffffffffffffffffffffffffffffffffffffffff1614155b8015620002d55750600073ffffffffffffffffffffffffffffffffffffffff168273ffffffffffffffffffffffffffffffffffffffff1614155b80156200030f5750600073ffffffffffffffffffffffffffffffffffffffff168173ffffffffffffffffffffffffffffffffffffffff1614155b6040518060400160405280600281526020017f5a300000000000000000000000000000000000000000000000000000000000008152509062000389576040517f08c379a000000000000000000000000000000000000000000000000000000000815260040162000380919062000d5f565b60405180910390fd5b50600087905083600a60006101000a81548173ffffffffffffffffffffffffffffffffffffffff021916908373ffffffffffffffffffffffffffffffffffffffff1602179055508373ffffffffffffffffffffffffffffffffffffffff16632495a5996040518163ffffffff1660e01b815260040160206040518083038186803b1580156200041757600080fd5b505afa1580156200042c573d6000803e3d6000fd5b505050506040513d601f19601f8201168201806040525081019062000452919062000c34565b600960006101000a81548173ffffffffffffffffffffffffffffffffffffffff021916908373ffffffffffffffffffffffffffffffffffffffff1602179055508073ffffffffffffffffffffffffffffffffffffffff16634c252f916040518163ffffffff1660e01b815260040160206040518083038186803b158015620004d957600080fd5b505afa158015620004ee573d6000803e3d6000fd5b505050506040513d601f19601f8201168201806040525081019062000514919062000c34565b600b60006101000a81548173ffffffffffffffffffffffffffffffffffffffff021916908373ffffffffffffffffffffffffffffffffffffffff1602179055508073ffffffffffffffffffffffffffffffffffffffff166377532ed96040518163ffffffff1660e01b815260040160206040518083038186803b1580156200059b57600080fd5b505afa158015620005b0573d6000803e3d6000fd5b505050506040513d601f19601f82011682018060405250810190620005d6919062000c34565b600c60006101000a81548173ffffffffffffffffffffffffffffffffffffffff021916908373ffffffffffffffffffffffffffffffffffffffff16021790555081600d60006101000a81548173ffffffffffffffffffffffffffffffffffffffff021916908373ffffffffffffffffffffffffffffffffffffffff1602179055508073ffffffffffffffffffffffffffffffffffffffff16639068a8686040518163ffffffff1660e01b815260040160206040518083038186803b1580156200069e57600080fd5b505afa158015620006b3573d6000803e3d6000fd5b505050506040513d601f19601f82011682018060405250810190620006d9919062000c34565b600760006101000a81548173ffffffffffffffffffffffffffffffffffffffff021916908373ffffffffffffffffffffffffffffffffffffffff160217905550620007348787876103e860c861251c6200078360201b60201c565b82600860006101000a81548173ffffffffffffffffffffffffffffffffffffffff021916908373ffffffffffffffffffffffffffffffffffffffff160217905550505050505050505062000ec5565b848611158015620007945750600084115b6040518060400160405280600381526020017f434d370000000000000000000000000000000000000000000000000000000000815250906200080e576040517f08c379a000000000000000000000000000000000000000000000000000000000815260040162000805919062000d5f565b60405180910390fd5b5085600281905550846003819055508360048190555082600e8190555081600f8190555080601081905550620008aa6004546200089662000864606460ff16600454620009e360201b6200314b1790919060201c565b62000882600f5460105462000a6c60201b620031d31790919060201c565b62000af060201b620032561790919060201c565b62000b7b60201b620032dc1790919060201c565b600581905550600073ffffffffffffffffffffffffffffffffffffffff16600860009054906101000a900473ffffffffffffffffffffffffffffffffffffffff1673ffffffffffffffffffffffffffffffffffffffff16146200098c57600860009054906101000a900473ffffffffffffffffffffffffffffffffffffffff1673ffffffffffffffffffffffffffffffffffffffff1663406318286040518163ffffffff1660e01b8152600401600060405180830381600087803b1580156200097257600080fd5b505af115801562000987573d6000803e3d6000fd5b505050505b7fa32137411fc7c20db359079cd84af0e2cad58cd7a182a8a5e23e08e554e88bf0600254600354600454600e54600f54601054604051620009d39695949392919062000d83565b60405180910390a1505050505050565b60008082840190508381101562000a62576040517f08c379a000000000000000000000000000000000000000000000000000000000815260040180806020018281038252601b8152602001807f536166654d6174683a206164646974696f6e206f766572666c6f77000000000081525060200191505060405180910390fd5b8091505092915050565b60008282111562000ae5576040517f08c379a000000000000000000000000000000000000000000000000000000000815260040180806020018281038252601e8152602001807f536166654d6174683a207375627472616374696f6e206f766572666c6f77000081525060200191505060405180910390fd5b818303905092915050565b60008083141562000b05576000905062000b75565b600082840290508284828162000b1757fe5b041462000b70576040517f08c379a000000000000000000000000000000000000000000000000000000000815260040180806020018281038252602181526020018062006e806021913960400191505060405180910390fd5b809150505b92915050565b600080821162000bf3576040517f08c379a000000000000000000000000000000000000000000000000000000000815260040180806020018281038252601a8152602001807f536166654d6174683a206469766973696f6e206279207a65726f00000000000081525060200191505060405180910390fd5b81838162000bfd57fe5b04905092915050565b60008151905062000c178162000e91565b92915050565b60008151905062000c2e8162000eab565b92915050565b60006020828403121562000c4757600080fd5b600062000c578482850162000c06565b91505092915050565b600080600080600080600060e0888a03121562000c7c57600080fd5b600062000c8c8a828b0162000c06565b975050602062000c9f8a828b0162000c1d565b965050604062000cb28a828b0162000c1d565b955050606062000cc58a828b0162000c1d565b945050608062000cd88a828b0162000c06565b93505060a062000ceb8a828b0162000c06565b92505060c062000cfe8a828b0162000c06565b91505092959891949750929550565b600062000d1a8262000df0565b62000d26818562000dfb565b935062000d3881856020860162000e4a565b62000d438162000e80565b840191505092915050565b62000d598162000e40565b82525050565b6000602082019050818103600083015262000d7b818462000d0d565b905092915050565b600060c08201905062000d9a600083018962000d4e565b62000da9602083018862000d4e565b62000db8604083018762000d4e565b62000dc7606083018662000d4e565b62000dd6608083018562000d4e565b62000de560a083018462000d4e565b979650505050505050565b600081519050919050565b600082825260208201905092915050565b600062000e198262000e20565b9050919050565b600073ffffffffffffffffffffffffffffffffffffffff82169050919050565b6000819050919050565b60005b8381101562000e6a57808201518184015260208101905062000e4d565b8381111562000e7a576000848401525b50505050565b6000601f19601f8301169050919050565b62000e9c8162000e0c565b811462000ea857600080fd5b50565b62000eb68162000e40565b811462000ec257600080fd5b50565b615fab8062000ed56000396000f3fe608060405234801561001057600080fd5b50600436106102065760003560e01c80638053fcbe1161011a578063b2c53a6c116100ad578063e1b4264c1161007c578063e1b4264c146105a7578063e958b704146105c5578063ebb39512146105f5578063f8dbc6b614610611578063f93f515b1461064557610206565b8063b2c53a6c14610531578063c5e10eef1461054f578063d692ba331461056d578063e0c011b71461058957610206565b80639efc60d0116100e95780639efc60d0146104ad578063a69a7dd6146104c9578063a6eab5c2146104e5578063ab1148051461051557610206565b80638053fcbe146104335780638456cb5914610451578063996329f81461045b5780639b2cb5d81461048f57610206565b80635288ba4b1161019d5780635c975abb1161016c5780635c975abb1461038d5780635e0b63d3146103ab5780635f48f393146103c95780636ce4074a146103e75780637e5465ba1461041757610206565b80635288ba4b1461031b578063570a7af214610337578063579122ab14610355578063597810341461037157610206565b80633ce07355116101d95780633ce07355146102a75780633f4ba83a146102d75780634f0e0ef3146102e15780635019e20a146102ff57610206565b8063055ee9b51461020b5780632495a5991461023b578063256ac915146102595780633915ffaa14610289575b600080fd5b610225600480360381019061022091906152f2565b610663565b6040516102329190615952565b60405180910390f35b610243610696565b6040516102509190615952565b60405180910390f35b610273600480360381019061026e91906152f2565b6106bc565b6040516102809190615a4f565b60405180910390f35b610291610754565b60405161029e9190615ac9565b60405180910390f35b6102c160048036038101906102bc919061552c565b61075a565b6040516102ce9190615ac9565b60405180910390f35b6102df610857565b005b6102e9610a02565b6040516102f69190615952565b60405180910390f35b610319600480360381019061031491906152f2565b610a28565b005b610335600480360381019061033091906156ad565b610c7f565b005b61033f611221565b60405161034c9190615952565b60405180910390f35b61036f600480360381019061036a9190615380565b611247565b005b61038b60048036038101906103869190615485565b6114ad565b005b6103956116e4565b6040516103a29190615a4f565b60405180910390f35b6103b36116fa565b6040516103c09190615ac9565b60405180910390f35b6103d1611700565b6040516103de9190615ac9565b60405180910390f35b61040160048036038101906103fc919061541e565b611706565b60405161040e9190615a6a565b60405180910390f35b610431600480360381019061042c9190615344565b611a61565b005b61043b611d5f565b6040516104489190615ac9565b60405180910390f35b610459611d65565b005b61047560048036038101906104709190615568565b611f10565b604051610486959493929190615bc7565b60405180910390f35b610497611feb565b6040516104a49190615ac9565b60405180910390f35b6104c760048036038101906104c2919061565b565b611ff1565b005b6104e360048036038101906104de91906153cf565b612463565b005b6104ff60048036038101906104fa9190615344565b612740565b60405161050c9190615ac9565b60405180910390f35b61052f600480360381019061052a91906154d4565b612920565b005b610539612b6c565b6040516105469190615ac9565b60405180910390f35b610557612b72565b6040516105649190615952565b60405180910390f35b610587600480360381019061058291906152f2565b612b98565b005b610591612ca9565b60405161059e9190615952565b60405180910390f35b6105af612ccf565b6040516105bc9190615ac9565b60405180910390f35b6105df60048036038101906105da91906152f2565b612cd5565b6040516105ec9190615952565b60405180910390f35b61060f600480360381019061060a9190615787565b612dec565b005b61062b60048036038101906106269190615710565b612fa3565b60405161063c959493929190615bc7565b60405180910390f35b61064d613125565b60405161065a9190615a8c565b60405180910390f35b60066020528060005260406000206000915054906101000a900473ffffffffffffffffffffffffffffffffffffffff1681565b600960009054906101000a900473ffffffffffffffffffffffffffffffffffffffff1681565b60008073ffffffffffffffffffffffffffffffffffffffff16600660008473ffffffffffffffffffffffffffffffffffffffff1673ffffffffffffffffffffffffffffffffffffffff16815260200190815260200160002060009054906101000a900473ffffffffffffffffffffffffffffffffffffffff1673ffffffffffffffffffffffffffffffffffffffff1614159050919050565b600f5481565b60008061076684612cd5565b90506000600860009054906101000a900473ffffffffffffffffffffffffffffffffffffffff1673ffffffffffffffffffffffffffffffffffffffff1663c7de38a6836040518263ffffffff1660e01b81526004016107c59190615952565b60206040518083038186803b1580156107dd57600080fd5b505afa1580156107f1573d6000803e3d6000fd5b505050506040513d601f19601f820116820180604052508101906108159190615684565b9050600080610825848488611f10565b5050925092505085610837578161084b565b61084a818361314b90919063ffffffff16565b5b94505050505092915050565b600060019054906101000a900473ffffffffffffffffffffffffffffffffffffffff1673ffffffffffffffffffffffffffffffffffffffff1663d4eb5db0336040518263ffffffff1660e01b8152600401808273ffffffffffffffffffffffffffffffffffffffff16815260200191505060206040518083038186803b1580156108e057600080fd5b505afa1580156108f4573d6000803e3d6000fd5b505050506040513d602081101561090a57600080fd5b81019080805190602001909291905050506040518060400160405280600481526020017f41434c3100000000000000000000000000000000000000000000000000000000815250906109f7576040517f08c379a00000000000000000000000000000000000000000000000000000000081526004018080602001828103825283818151815260200191508051906020019080838360005b838110156109bc5780820151818401526020810190506109a1565b50505050905090810190601f1680156109e95780820380516001836020036101000a031916815260200191505b509250505060405180910390fd5b50610a00613365565b565b600b60009054906101000a900473ffffffffffffffffffffffffffffffffffffffff1681565b610a306116e4565b15610aa3576040517f08c379a00000000000000000000000000000000000000000000000000000000081526004018080602001828103825260108152602001807f5061757361626c653a207061757365640000000000000000000000000000000081525060200191505060405180910390fd5b60026001541415610b1c576040517f08c379a000000000000000000000000000000000000000000000000000000000815260040180806020018281038252601f8152602001807f5265656e7472616e637947756172643a207265656e7472616e742063616c6c0081525060200191505060405180910390fd5b60026001819055506000610b2f33612cd5565b9050610b3a8261344f565b600660003373ffffffffffffffffffffffffffffffffffffffff1673ffffffffffffffffffffffffffffffffffffffff16815260200190815260200160002060006101000a81549073ffffffffffffffffffffffffffffffffffffffff021916905580600660008473ffffffffffffffffffffffffffffffffffffffff1673ffffffffffffffffffffffffffffffffffffffff16815260200190815260200160002060006101000a81548173ffffffffffffffffffffffffffffffffffffffff021916908373ffffffffffffffffffffffffffffffffffffffff1602179055508173ffffffffffffffffffffffffffffffffffffffff163373ffffffffffffffffffffffffffffffffffffffff167f93c70cc9715bef0d83edf2095f3595402279d274f402a73ffc17f1bcb19d863d60405160405180910390a3506001808190555050565b610c876116e4565b15610cfa576040517f08c379a00000000000000000000000000000000000000000000000000000000081526004018080602001828103825260108152602001807f5061757361626c653a207061757365640000000000000000000000000000000081525060200191505060405180910390fd5b60026001541415610d73576040517f08c379a000000000000000000000000000000000000000000000000000000000815260040180806020018281038252601f8152602001807f5265656e7472616e637947756172643a207265656e7472616e742063616c6c0081525060200191505060405180910390fd5b60026001819055506002548410158015610d8f57506003548411155b8015610d9b5750600082115b8015610da957506004548211155b6040518060400160405280600381526020017f434d37000000000000000000000000000000000000000000000000000000000081525090610e20576040517f08c379a0000000000000000000000000000000000000000000000000000000008152600401610e179190615aa7565b60405180910390fd5b50610e2a8361344f565b6000610e55606460ff16610e47858861325690919063ffffffff16565b6132dc90919063ffffffff16565b90506000600760009054906101000a900473ffffffffffffffffffffffffffffffffffffffff1673ffffffffffffffffffffffffffffffffffffffff166321d1845683600a60009054906101000a900473ffffffffffffffffffffffffffffffffffffffff1673ffffffffffffffffffffffffffffffffffffffff16630fce70fb6040518163ffffffff1660e01b815260040160206040518083038186803b158015610f0057600080fd5b505afa158015610f14573d6000803e3d6000fd5b505050506040513d601f19601f82011682018060405250810190610f389190615684565b6040518363ffffffff1660e01b8152600401610f55929190615b0d565b602060405180830381600087803b158015610f6f57600080fd5b505af1158015610f83573d6000803e3d6000fd5b505050506040513d601f19601f82011682018060405250810190610fa7919061531b565b9050600860009054906101000a900473ffffffffffffffffffffffffffffffffffffffff1673ffffffffffffffffffffffffffffffffffffffff1663e54fe9c8826040518263ffffffff1660e01b81526004016110049190615952565b600060405180830381600087803b15801561101e57600080fd5b505af1158015611032573d6000803e3d6000fd5b50505050600a60009054906101000a900473ffffffffffffffffffffffffffffffffffffffff1673ffffffffffffffffffffffffffffffffffffffff1663bf28068b83836040518363ffffffff1660e01b8152600401611093929190615ae4565b600060405180830381600087803b1580156110ad57600080fd5b505af11580156110c1573d6000803e3d6000fd5b50505050611114338288600960009054906101000a900473ffffffffffffffffffffffffffffffffffffffff1673ffffffffffffffffffffffffffffffffffffffff166135ce909392919063ffffffff16565b80600660008773ffffffffffffffffffffffffffffffffffffffff1673ffffffffffffffffffffffffffffffffffffffff16815260200190815260200160002060006101000a81548173ffffffffffffffffffffffffffffffffffffffff021916908373ffffffffffffffffffffffffffffffffffffffff1602179055508073ffffffffffffffffffffffffffffffffffffffff168573ffffffffffffffffffffffffffffffffffffffff163373ffffffffffffffffffffffffffffffffffffffff167f7b20ae77867a263a1074203a2da261ef0d096c99395c59c9d4a0104b9f334a2789868860405161120a93929190615b90565b60405180910390a450506001808190555050505050565b600a60009054906101000a900473ffffffffffffffffffffffffffffffffffffffff1681565b813373ffffffffffffffffffffffffffffffffffffffff16600860009054906101000a900473ffffffffffffffffffffffffffffffffffffffff1673ffffffffffffffffffffffffffffffffffffffff1663fdd57645836040518263ffffffff1660e01b81526004016112ba9190615952565b60206040518083038186803b1580156112d257600080fd5b505afa1580156112e6573d6000803e3d6000fd5b505050506040513d601f19601f8201168201806040525081019061130a919061531b565b73ffffffffffffffffffffffffffffffffffffffff16146040518060400160405280600381526020017f434d42000000000000000000000000000000000000000000000000000000000081525090611398576040517f08c379a000000000000000000000000000000000000000000000000000000000815260040161138f9190615aa7565b60405180910390fd5b506113a16116e4565b15611414576040517f08c379a00000000000000000000000000000000000000000000000000000000081526004018080602001828103825260108152602001807f5061757361626c653a207061757365640000000000000000000000000000000081525060200191505060405180910390fd5b6002600154141561148d576040517f08c379a000000000000000000000000000000000000000000000000000000000815260040180806020018281038252601f8152602001807f5265656e7472616e637947756172643a207265656e7472616e742063616c6c0081525060200191505060405180910390fd5b60026001819055506114a084848461368f565b6001808190555050505050565b6114b56116e4565b15611528576040517f08c379a00000000000000000000000000000000000000000000000000000000081526004018080602001828103825260108152602001807f5061757361626c653a207061757365640000000000000000000000000000000081525060200191505060405180910390fd5b600260015414156115a1576040517f08c379a000000000000000000000000000000000000000000000000000000000815260040180806020018281038252601f8152602001807f5265656e7472616e637947756172643a207265656e7472616e742063616c6c0081525060200191505060405180910390fd5b600260018190555060006115b484612cd5565b9050600860009054906101000a900473ffffffffffffffffffffffffffffffffffffffff1673ffffffffffffffffffffffffffffffffffffffff166351e3f16082856040518363ffffffff1660e01b8152600401611613929190615996565b600060405180830381600087803b15801561162d57600080fd5b505af1158015611641573d6000803e3d6000fd5b505050506116723382848673ffffffffffffffffffffffffffffffffffffffff166135ce909392919063ffffffff16565b8273ffffffffffffffffffffffffffffffffffffffff168473ffffffffffffffffffffffffffffffffffffffff167fa32435755c235de2976ed44a75a2f85cb01faf0c894f639fe0c32bb9455fea8f846040516116cf9190615ac9565b60405180910390a35060018081905550505050565b60008060009054906101000a900460ff16905090565b600e5481565b60035481565b6060823373ffffffffffffffffffffffffffffffffffffffff16600860009054906101000a900473ffffffffffffffffffffffffffffffffffffffff1673ffffffffffffffffffffffffffffffffffffffff1663fdd57645836040518263ffffffff1660e01b815260040161177b9190615952565b60206040518083038186803b15801561179357600080fd5b505afa1580156117a7573d6000803e3d6000fd5b505050506040513d601f19601f820116820180604052508101906117cb919061531b565b73ffffffffffffffffffffffffffffffffffffffff16146040518060400160405280600381526020017f434d42000000000000000000000000000000000000000000000000000000000081525090611859576040517f08c379a00000000000000000000000000000000000000000000000000000000081526004016118509190615aa7565b60405180910390fd5b506118626116e4565b156118d5576040517f08c379a00000000000000000000000000000000000000000000000000000000081526004018080602001828103825260108152602001807f5061757361626c653a207061757365640000000000000000000000000000000081525060200191505060405180910390fd5b6002600154141561194e576040517f08c379a000000000000000000000000000000000000000000000000000000000815260040180806020018281038252601f8152602001807f5265656e7472616e637947756172643a207265656e7472616e742063616c6c0081525060200191505060405180910390fd5b6002600181905550600061196186612cd5565b90508473ffffffffffffffffffffffffffffffffffffffff168673ffffffffffffffffffffffffffffffffffffffff167faed1eb34af6acd8c1e3911fb2ebb875a66324b03957886bd002227b17f52ab0360405160405180910390a38073ffffffffffffffffffffffffffffffffffffffff16631cff79cd86866040518363ffffffff1660e01b81526004016119f89291906159f6565b600060405180830381600087803b158015611a1257600080fd5b505af1158015611a26573d6000803e3d6000fd5b505050506040513d6000823e3d601f19601f82011682018060405250810190611a4f919061561a565b92505060018081905550509392505050565b611a696116e4565b15611adc576040517f08c379a00000000000000000000000000000000000000000000000000000000081526004018080602001828103825260108152602001807f5061757361626c653a207061757365640000000000000000000000000000000081525060200191505060405180910390fd5b60026001541415611b55576040517f08c379a000000000000000000000000000000000000000000000000000000000815260040180806020018281038252601f8152602001807f5265656e7472616e637947756172643a207265656e7472616e742063616c6c0081525060200191505060405180910390fd5b60026001819055506000611b6833612cd5565b9050600073ffffffffffffffffffffffffffffffffffffffff16600860009054906101000a900473ffffffffffffffffffffffffffffffffffffffff1673ffffffffffffffffffffffffffffffffffffffff1663fdd57645856040518263ffffffff1660e01b8152600401611bdd9190615952565b60206040518083038186803b158015611bf557600080fd5b505afa158015611c09573d6000803e3d6000fd5b505050506040513d601f19601f82011682018060405250810190611c2d919061531b565b73ffffffffffffffffffffffffffffffffffffffff1614156040518060400160405280600381526020017f434d42000000000000000000000000000000000000000000000000000000000081525090611cbc576040517f08c379a0000000000000000000000000000000000000000000000000000000008152600401611cb39190615aa7565b60405180910390fd5b50600860009054906101000a900473ffffffffffffffffffffffffffffffffffffffff1673ffffffffffffffffffffffffffffffffffffffff16637dd0ba82836040518263ffffffff1660e01b8152600401611d189190615952565b60006040518083038186803b158015611d3057600080fd5b505afa158015611d44573d6000803e3d6000fd5b50505050611d5381848461368f565b50600180819055505050565b60105481565b600060019054906101000a900473ffffffffffffffffffffffffffffffffffffffff1673ffffffffffffffffffffffffffffffffffffffff16633a41ec64336040518263ffffffff1660e01b8152600401808273ffffffffffffffffffffffffffffffffffffffff16815260200191505060206040518083038186803b158015611dee57600080fd5b505afa158015611e02573d6000803e3d6000fd5b505050506040513d6020811015611e1857600080fd5b81019080805190602001909291905050506040518060400160405280600481526020017f41434c310000000000000000000000000000000000000000000000000000000081525090611f05576040517f08c379a00000000000000000000000000000000000000000000000000000000081526004018080602001828103825283818151815260200191508051906020019080838360005b83811015611eca578082015181840152602081019050611eaf565b50505050905090810190601f168015611ef75780820380516001836020036101000a031916815260200191505b509250505060405180910390fd5b50611f0e6137b4565b565b6000806000806000806000611f248a61389f565b91509150611fd489898484600a60009054906101000a900473ffffffffffffffffffffffffffffffffffffffff1673ffffffffffffffffffffffffffffffffffffffff16630fce70fb6040518163ffffffff1660e01b815260040160206040518083038186803b158015611f9757600080fd5b505afa158015611fab573d6000803e3d6000fd5b505050506040513d601f19601f82011682018060405250810190611fcf9190615684565b612fa3565b965096509650965096505050939792965093509350565b60025481565b611ff96116e4565b1561206c576040517f08c379a00000000000000000000000000000000000000000000000000000000081526004018080602001828103825260108152602001807f5061757361626c653a207061757365640000000000000000000000000000000081525060200191505060405180910390fd5b600260015414156120e5576040517f08c379a000000000000000000000000000000000000000000000000000000000815260040180806020018281038252601f8152602001807f5265656e7472616e637947756172643a207265656e7472616e742063616c6c0081525060200191505060405180910390fd5b600260018190555060006120f833612cd5565b90506000806121068361389f565b91509150600061211f858461314b90919063ffffffff16565b90506000600a60009054906101000a900473ffffffffffffffffffffffffffffffffffffffff1673ffffffffffffffffffffffffffffffffffffffff1663c00495a18588866040518463ffffffff1660e01b815260040161218293929190615b90565b60206040518083038186803b15801561219a57600080fd5b505afa1580156121ae573d6000803e3d6000fd5b505050506040513d601f19601f820116820180604052508101906121d29190615684565b90506121eb60045460035461325690919063ffffffff16565b612202606460ff168461325690919063ffffffff16565b106040518060400160405280600381526020017f434d3300000000000000000000000000000000000000000000000000000000008152509061227a576040517f08c379a00000000000000000000000000000000000000000000000000000000081526004016122719190615aa7565b60405180910390fd5b50600a60009054906101000a900473ffffffffffffffffffffffffffffffffffffffff1673ffffffffffffffffffffffffffffffffffffffff1663bf28068b87876040518363ffffffff1660e01b81526004016122d8929190615ae4565b600060405180830381600087803b1580156122f257600080fd5b505af1158015612306573d6000803e3d6000fd5b505050508473ffffffffffffffffffffffffffffffffffffffff16631612821183836040518363ffffffff1660e01b8152600401612345929190615b0d565b600060405180830381600087803b15801561235f57600080fd5b505af1158015612373573d6000803e3d6000fd5b50505050600860009054906101000a900473ffffffffffffffffffffffffffffffffffffffff1673ffffffffffffffffffffffffffffffffffffffff1663a5757517866005546040518363ffffffff1660e01b81526004016123d6929190615a26565b60006040518083038186803b1580156123ee57600080fd5b505afa158015612402573d6000803e3d6000fd5b505050503373ffffffffffffffffffffffffffffffffffffffff167f9cac51154cc0d835e2f9c9d1f59a9344588cee107f4203bf58a8c797e3a58c458760405161244c9190615ac9565b60405180910390a250505050506001808190555050565b61246b6116e4565b156124de576040517f08c379a00000000000000000000000000000000000000000000000000000000081526004018080602001828103825260108152602001807f5061757361626c653a207061757365640000000000000000000000000000000081525060200191505060405180910390fd5b60026001541415612557576040517f08c379a000000000000000000000000000000000000000000000000000000000815260040180806020018281038252601f8152602001807f5265656e7472616e637947756172643a207265656e7472616e742063616c6c0081525060200191505060405180910390fd5b6002600181905550600061256a84612cd5565b905060008061257a8386866139a7565b9150915061263d612710600860009054906101000a900473ffffffffffffffffffffffffffffffffffffffff1673ffffffffffffffffffffffffffffffffffffffff16633192195c866040518263ffffffff1660e01b81526004016125df9190615952565b60206040518083038186803b1580156125f757600080fd5b505afa15801561260b573d6000803e3d6000fd5b505050506040513d601f19601f8201168201806040525081019061262f9190615684565b61325690919063ffffffff16565b81106040518060400160405280600381526020017f434d340000000000000000000000000000000000000000000000000000000000815250906126b6576040517f08c379a00000000000000000000000000000000000000000000000000000000081526004016126ad9190615aa7565b60405180910390fd5b5060006126c8846003858a338b613cf1565b9150503373ffffffffffffffffffffffffffffffffffffffff168773ffffffffffffffffffffffffffffffffffffffff167f5e5da6c348e62989f9cfe029252433fc99009b7d28fa3c20d675520a10ff5896836040516127289190615ac9565b60405180910390a35050505060018081905550505050565b600061274a6116e4565b156127bd576040517f08c379a00000000000000000000000000000000000000000000000000000000081526004018080602001828103825260108152602001807f5061757361626c653a207061757365640000000000000000000000000000000081525060200191505060405180910390fd5b60026001541415612836576040517f08c379a000000000000000000000000000000000000000000000000000000000815260040180806020018281038252601f8152602001807f5265656e7472616e637947756172643a207265656e7472616e742063616c6c0081525060200191505060405180910390fd5b6002600181905550600c60009054906101000a900473ffffffffffffffffffffffffffffffffffffffff1673ffffffffffffffffffffffffffffffffffffffff163373ffffffffffffffffffffffffffffffffffffffff16146040518060400160405280600381526020017f434d36000000000000000000000000000000000000000000000000000000000081525090612906576040517f08c379a00000000000000000000000000000000000000000000000000000000081526004016128fd9190615aa7565b60405180910390fd5b50612911838361417b565b90506001808190555092915050565b6129286116e4565b1561299b576040517f08c379a00000000000000000000000000000000000000000000000000000000081526004018080602001828103825260108152602001807f5061757361626c653a207061757365640000000000000000000000000000000081525060200191505060405180910390fd5b60026001541415612a14576040517f08c379a000000000000000000000000000000000000000000000000000000000815260040180806020018281038252601f8152602001807f5265656e7472616e637947756172643a207265656e7472616e742063616c6c0081525060200191505060405180910390fd5b60026001819055506000612a2733612cd5565b9050612a34818484614214565b6000600960009054906101000a900473ffffffffffffffffffffffffffffffffffffffff1673ffffffffffffffffffffffffffffffffffffffff166370a08231836040518263ffffffff1660e01b8152600401612a919190615952565b60206040518083038186803b158015612aa957600080fd5b505afa158015612abd573d6000803e3d6000fd5b505050506040513d601f19601f82011682018060405250810190612ae19190615684565b90506000612af5836001843360008b613cf1565b9150508573ffffffffffffffffffffffffffffffffffffffff163373ffffffffffffffffffffffffffffffffffffffff167fca05b632388199c23de1352b2e96fd72a0ec71611683330b38060c004bbf0a7683604051612b559190615ac9565b60405180910390a350505060018081905550505050565b60045481565b600c60009054906101000a900473ffffffffffffffffffffffffffffffffffffffff1681565b612ba06116e4565b15612c13576040517f08c379a00000000000000000000000000000000000000000000000000000000081526004018080602001828103825260108152602001807f5061757361626c653a207061757365640000000000000000000000000000000081525060200191505060405180910390fd5b60026001541415612c8c576040517f08c379a000000000000000000000000000000000000000000000000000000000815260040180806020018281038252601f8152602001807f5265656e7472616e637947756172643a207265656e7472616e742063616c6c0081525060200191505060405180910390fd5b6002600181905550612c9e338261417b565b506001808190555050565b600d60009054906101000a900473ffffffffffffffffffffffffffffffffffffffff1681565b60055481565b600080600660008473ffffffffffffffffffffffffffffffffffffffff1673ffffffffffffffffffffffffffffffffffffffff16815260200190815260200160002060009054906101000a900473ffffffffffffffffffffffffffffffffffffffff169050600073ffffffffffffffffffffffffffffffffffffffff168173ffffffffffffffffffffffffffffffffffffffff1614156040518060400160405280600381526020017f434d31000000000000000000000000000000000000000000000000000000000081525090612de2576040517f08c379a0000000000000000000000000000000000000000000000000000000008152600401612dd99190615aa7565b60405180910390fd5b5080915050919050565b600060019054906101000a900473ffffffffffffffffffffffffffffffffffffffff1673ffffffffffffffffffffffffffffffffffffffff16635f259aba336040518263ffffffff1660e01b8152600401808273ffffffffffffffffffffffffffffffffffffffff16815260200191505060206040518083038186803b158015612e7557600080fd5b505afa158015612e89573d6000803e3d6000fd5b505050506040513d6020811015612e9f57600080fd5b81019080805190602001909291905050506040518060400160405280600481526020017f41434c320000000000000000000000000000000000000000000000000000000081525090612f8c576040517f08c379a00000000000000000000000000000000000000000000000000000000081526004018080602001828103825283818151815260200191508051906020019080838360005b83811015612f51578082015181840152602081019050612f36565b50505050905090810190601f168015612f7e5780820380516001836020036101000a031916815260200191505b509250505060405180910390fd5b50612f9b8686868686866147ca565b505050505050565b60008060008060008089612fb7578a612fe1565b612fe0612710612fd26010548e61325690919063ffffffff16565b6132dc90919063ffffffff16565b5b9050889550600061300d89612fff8a8d61325690919063ffffffff16565b6132dc90919063ffffffff16565b9050808210156130475761302b6001836131d390919063ffffffff16565b955061304086826131d390919063ffffffff16565b9250613116565b8a61308a57613085613076600e546130688d856131d390919063ffffffff16565b614a0590919063ffffffff16565b8261314b90919063ffffffff16565b6130b2565b6130b1816130a3600f5485614a0590919063ffffffff16565b61314b90919063ffffffff16565b5b9550858211156130e9576130e260016130d488856131d390919063ffffffff16565b6131d390919063ffffffff16565b9450613100565b6130fd6001836131d390919063ffffffff16565b95505b61311381876131d390919063ffffffff16565b93505b50509550955095509550959050565b600860009054906101000a900473ffffffffffffffffffffffffffffffffffffffff1681565b6000808284019050838110156131c9576040517f08c379a000000000000000000000000000000000000000000000000000000000815260040180806020018281038252601b8152602001807f536166654d6174683a206164646974696f6e206f766572666c6f77000000000081525060200191505060405180910390fd5b8091505092915050565b60008282111561324b576040517f08c379a000000000000000000000000000000000000000000000000000000000815260040180806020018281038252601e8152602001807f536166654d6174683a207375627472616374696f6e206f766572666c6f77000081525060200191505060405180910390fd5b818303905092915050565b60008083141561326957600090506132d6565b600082840290508284828161327a57fe5b04146132d1576040517f08c379a0000000000000000000000000000000000000000000000000000000008152600401808060200182810382526021815260200180615f2b6021913960400191505060405180910390fd5b809150505b92915050565b6000808211613353576040517f08c379a000000000000000000000000000000000000000000000000000000000815260040180806020018281038252601a8152602001807f536166654d6174683a206469766973696f6e206279207a65726f00000000000081525060200191505060405180910390fd5b81838161335c57fe5b04905092915050565b61336d6116e4565b6133df576040517f08c379a00000000000000000000000000000000000000000000000000000000081526004018080602001828103825260148152602001807f5061757361626c653a206e6f742070617573656400000000000000000000000081525060200191505060405180910390fd5b60008060006101000a81548160ff0219169083151502179055507f5db9ee0a495bf2e6ff9c91a7834c1ba4fdd244a5e8aa4e537bd38aeae4b073aa613422614b60565b604051808273ffffffffffffffffffffffffffffffffffffffff16815260200191505060405180910390a1565b600073ffffffffffffffffffffffffffffffffffffffff168173ffffffffffffffffffffffffffffffffffffffff16141580156134925750613490816106bc565b155b6040518060400160405280600381526020017f434d32000000000000000000000000000000000000000000000000000000000081525090613509576040517f08c379a00000000000000000000000000000000000000000000000000000000081526004016135009190615aa7565b60405180910390fd5b508073ffffffffffffffffffffffffffffffffffffffff163373ffffffffffffffffffffffffffffffffffffffff16146135cb57600860009054906101000a900473ffffffffffffffffffffffffffffffffffffffff1673ffffffffffffffffffffffffffffffffffffffff16633b00ae7033836040518363ffffffff1660e01b815260040161359a92919061596d565b60006040518083038186803b1580156135b257600080fd5b505afa1580156135c6573d6000803e3d6000fd5b505050505b50565b613689846323b872dd60e01b858585604051602401808473ffffffffffffffffffffffffffffffffffffffff1681526020018373ffffffffffffffffffffffffffffffffffffffff1681526020018281526020019350505050604051602081830303815290604052907bffffffffffffffffffffffffffffffffffffffffffffffffffffffff19166020820180517bffffffffffffffffffffffffffffffffffffffffffffffffffffffff8381831617835250505050614b68565b50505050565b7f3fffffffffffffffffffffffffffffffffffffffffffffffffffffffffffffff8173ffffffffffffffffffffffffffffffffffffffff1663dd62ed3e85856040518363ffffffff1660e01b81526004016136eb929190615996565b60206040518083038186803b15801561370357600080fd5b505afa158015613717573d6000803e3d6000fd5b505050506040513d601f19601f8201168201806040525081019061373b9190615684565b10156137af578273ffffffffffffffffffffffffffffffffffffffff166303105b0482846040518363ffffffff1660e01b815260040161377c929190615996565b600060405180830381600087803b15801561379657600080fd5b505af11580156137aa573d6000803e3d6000fd5b505050505b505050565b6137bc6116e4565b1561382f576040517f08c379a00000000000000000000000000000000000000000000000000000000081526004018080602001828103825260108152602001807f5061757361626c653a207061757365640000000000000000000000000000000081525060200191505060405180910390fd5b60016000806101000a81548160ff0219169083151502179055507f62e78cea01bee320cd4e420270b5ea74000d11b0c9f74754ebdbfc544b05a258613872614b60565b604051808273ffffffffffffffffffffffffffffffffffffffff16815260200191505060405180910390a1565b6000808273ffffffffffffffffffffffffffffffffffffffff16631afbb7a46040518163ffffffff1660e01b815260040160206040518083038186803b1580156138e857600080fd5b505afa1580156138fc573d6000803e3d6000fd5b505050506040513d601f19601f820116820180604052508101906139209190615684565b91508273ffffffffffffffffffffffffffffffffffffffff166317d11a156040518163ffffffff1660e01b815260040160206040518083038186803b15801561396857600080fd5b505afa15801561397c573d6000803e3d6000fd5b505050506040513d601f19601f820116820180604052508101906139a09190615684565b9050915091565b600080600080600860009054906101000a900473ffffffffffffffffffffffffffffffffffffffff1673ffffffffffffffffffffffffffffffffffffffff1663b451cecc886040518263ffffffff1660e01b8152600401613a089190615952565b60206040518083038186803b158015613a2057600080fd5b505afa158015613a34573d6000803e3d6000fd5b505050506040513d601f19601f82011682018060405250810190613a589190615684565b9050600073ffffffffffffffffffffffffffffffffffffffff168673ffffffffffffffffffffffffffffffffffffffff1614156040518060400160405280600281526020017f5a3000000000000000000000000000000000000000000000000000000000000081525090613b02576040517f08c379a0000000000000000000000000000000000000000000000000000000008152600401613af99190615aa7565b60405180910390fd5b5060005b600860009054906101000a900473ffffffffffffffffffffffffffffffffffffffff1673ffffffffffffffffffffffffffffffffffffffff166320a05ff76040518163ffffffff1660e01b815260040160206040518083038186803b158015613b6e57600080fd5b505afa158015613b82573d6000803e3d6000fd5b505050506040513d601f19601f82011682018060405250810190613ba69190615684565b811015613ce657806001901b925060008383161115613cd957600080600080600860009054906101000a900473ffffffffffffffffffffffffffffffffffffffff1673ffffffffffffffffffffffffffffffffffffffff1663af0a65028d876040518363ffffffff1660e01b8152600401613c22929190615a26565b60806040518083038186803b158015613c3a57600080fd5b505afa158015613c4e573d6000803e3d6000fd5b505050506040513d601f19601f82011682018060405250810190613c7291906155b7565b93509350935093506001831115613cd457613ca38c858d613c9d6001886131d390919063ffffffff16565b8e614c57565b15613cd357613cbb828a61314b90919063ffffffff16565b9850613cd0818961314b90919063ffffffff16565b97505b5b505050505b8080600101915050613b06565b505050935093915050565b6000806000600360ff168860ff161490506000806000806000613d158e8d88611f10565b94509450945094509450600160ff168d60ff161415613e93578d73ffffffffffffffffffffffffffffffffffffffff1663d1660f99600960009054906101000a900473ffffffffffffffffffffffffffffffffffffffff16600a60009054906101000a900473ffffffffffffffffffffffffffffffffffffffff16876040518463ffffffff1660e01b8152600401613daf939291906159bf565b600060405180830381600087803b158015613dc957600080fd5b505af1158015613ddd573d6000803e3d6000fd5b50505050600083116040518060400160405280600381526020017f434d41000000000000000000000000000000000000000000000000000000000081525090613e5c576040517f08c379a0000000000000000000000000000000000000000000000000000000008152600401613e539190615aa7565b60405180910390fd5b50613e8d8e600960009054906101000a900473ffffffffffffffffffffffffffffffffffffffff168b866000614c57565b50613fe4565b600360ff168d60ff161415613f7157613f138a600a60009054906101000a900473ffffffffffffffffffffffffffffffffffffffff1686600960009054906101000a900473ffffffffffffffffffffffffffffffffffffffff1673ffffffffffffffffffffffffffffffffffffffff166135ce909392919063ffffffff16565b6000831115613f6c57613f6b8a8c85600960009054906101000a900473ffffffffffffffffffffffffffffffffffffffff1673ffffffffffffffffffffffffffffffffffffffff166135ce909392919063ffffffff16565b5b613fe3565b613fe233600a60009054906101000a900473ffffffffffffffffffffffffffffffffffffffff1686600960009054906101000a900473ffffffffffffffffffffffffffffffffffffffff1673ffffffffffffffffffffffffffffffffffffffff166135ce909392919063ffffffff16565b5b5b600760009054906101000a900473ffffffffffffffffffffffffffffffffffffffff1673ffffffffffffffffffffffffffffffffffffffff166389b77b3e8f6040518263ffffffff1660e01b815260040161403f9190615952565b600060405180830381600087803b15801561405957600080fd5b505af115801561406d573d6000803e3d6000fd5b50505050600660008c73ffffffffffffffffffffffffffffffffffffffff1673ffffffffffffffffffffffffffffffffffffffff16815260200190815260200160002060006101000a81549073ffffffffffffffffffffffffffffffffffffffff0219169055600a60009054906101000a900473ffffffffffffffffffffffffffffffffffffffff1673ffffffffffffffffffffffffffffffffffffffff1663ca9505e48684846040518463ffffffff1660e01b815260040161413293929190615b90565b600060405180830381600087803b15801561414c57600080fd5b505af1158015614160573d6000803e3d6000fd5b50505050838397509750505050505050965096945050505050565b60008061418784612cd5565b90506000614197828560006139a7565b50905060006141ab83600284898a8a613cf1565b5090508473ffffffffffffffffffffffffffffffffffffffff168673ffffffffffffffffffffffffffffffffffffffff167fe7c7987373a0cc4913d307f23ab8ef02e0333a2af445065e2ef7636cffc6daa760405160405180910390a380935050505092915050565b600080600860009054906101000a900473ffffffffffffffffffffffffffffffffffffffff1673ffffffffffffffffffffffffffffffffffffffff1663b451cecc866040518263ffffffff1660e01b81526004016142729190615952565b60206040518083038186803b15801561428a57600080fd5b505afa15801561429e573d6000803e3d6000fd5b505050506040513d601f19601f820116820180604052508101906142c29190615684565b9050600860009054906101000a900473ffffffffffffffffffffffffffffffffffffffff1673ffffffffffffffffffffffffffffffffffffffff166320a05ff76040518163ffffffff1660e01b815260040160206040518083038186803b15801561432c57600080fd5b505afa158015614340573d6000803e3d6000fd5b505050506040513d601f19601f820116820180604052508101906143649190615684565b84849050146040518060400160405280600281526020017f504c000000000000000000000000000000000000000000000000000000000000815250906143e0576040517f08c379a00000000000000000000000000000000000000000000000000000000081526004016143d79190615aa7565b60405180910390fd5b506000600190505b848490508110156147c257806001901b9250600083831611156147b557600080600860009054906101000a900473ffffffffffffffffffffffffffffffffffffffff1673ffffffffffffffffffffffffffffffffffffffff1663af0a650289856040518363ffffffff1660e01b8152600401614465929190615a26565b60806040518083038186803b15801561447d57600080fd5b505afa158015614491573d6000803e3d6000fd5b505050506040513d601f19601f820116820180604052508101906144b591906155b7565b50509150915060018111156147b2576144f188600d60009054906101000a900473ffffffffffffffffffffffffffffffffffffffff168461368f565b60008787858181106144ff57fe5b90506020028101906145119190615cd2565b80600001906145209190615c7b565b80806020026020016040519081016040528093929190818152602001838360200280828437600081840152601f19601f820116905080830192505050505050509050828160008151811061457057fe5b602002602001019073ffffffffffffffffffffffffffffffffffffffff16908173ffffffffffffffffffffffffffffffffffffffff1681525050600960009054906101000a900473ffffffffffffffffffffffffffffffffffffffff168160018a8a888181106145dc57fe5b90506020028101906145ee9190615cd2565b80600001906145fd9190615c7b565b9050038151811061460a57fe5b602002602001019073ffffffffffffffffffffffffffffffffffffffff16908173ffffffffffffffffffffffffffffffffffffffff168152505060006338ed173960e01b6146626001856131d390919063ffffffff16565b8a8a8881811061466e57fe5b90506020028101906146809190615cd2565b60200135848d4260405160240161469b959493929190615b36565b604051602081830303815290604052907bffffffffffffffffffffffffffffffffffffffffffffffffffffffff19166020820180517bffffffffffffffffffffffffffffffffffffffffffffffffffffffff838183161783525050505090508973ffffffffffffffffffffffffffffffffffffffff16631cff79cd600d60009054906101000a900473ffffffffffffffffffffffffffffffffffffffff16836040518363ffffffff1660e01b81526004016147579291906159f6565b600060405180830381600087803b15801561477157600080fd5b505af1158015614785573d6000803e3d6000fd5b505050506040513d6000823e3d601f19601f820116820180604052508101906147ae919061561a565b5050505b50505b80806001019150506143e8565b505050505050565b8486111580156147da5750600084115b6040518060400160405280600381526020017f434d37000000000000000000000000000000000000000000000000000000000081525090614851576040517f08c379a00000000000000000000000000000000000000000000000000000000081526004016148489190615aa7565b60405180910390fd5b5085600281905550846003819055508360048190555082600e8190555081600f81905550806010819055506148d16004546148c361489e606460ff1660045461314b90919063ffffffff16565b6148b5600f546010546131d390919063ffffffff16565b61325690919063ffffffff16565b6132dc90919063ffffffff16565b600581905550600073ffffffffffffffffffffffffffffffffffffffff16600860009054906101000a900473ffffffffffffffffffffffffffffffffffffffff1673ffffffffffffffffffffffffffffffffffffffff16146149b057600860009054906101000a900473ffffffffffffffffffffffffffffffffffffffff1673ffffffffffffffffffffffffffffffffffffffff1663406318286040518163ffffffff1660e01b8152600401600060405180830381600087803b15801561499757600080fd5b505af11580156149ab573d6000803e3d6000fd5b505050505b7fa32137411fc7c20db359079cd84af0e2cad58cd7a182a8a5e23e08e554e88bf0600254600354600454600e54600f546010546040516149f596959493929190615c1a565b60405180910390a1505050505050565b600080831480614a155750600082145b15614a235760009050614b5a565b81600261271081614a3057fe5b047fffffffffffffffffffffffffffffffffffffffffffffffffffffffffffffffff0381614a5a57fe5b048311156040518060400160405280600281526020017f4d3100000000000000000000000000000000000000000000000000000000000081525090614b3a576040517f08c379a00000000000000000000000000000000000000000000000000000000081526004018080602001828103825283818151815260200191508051906020019080838360005b83811015614aff578082015181840152602081019050614ae4565b50505050905090810190601f168015614b2c5780820380516001836020036101000a031916815260200191505b509250505060405180910390fd5b50612710600261271081614b4a57fe5b048385020181614b5657fe5b0490505b92915050565b600033905090565b6000614bca826040518060400160405280602081526020017f5361666545524332303a206c6f772d6c6576656c2063616c6c206661696c65648152508573ffffffffffffffffffffffffffffffffffffffff16614ed09092919063ffffffff16565b9050600081511115614c5257808060200190516020811015614beb57600080fd5b8101908080519060200190929190505050614c51576040517f08c379a000000000000000000000000000000000000000000000000000000000815260040180806020018281038252602a815260200180615f4c602a913960400191505060405180910390fd5b5b505050565b6000600b60009054906101000a900473ffffffffffffffffffffffffffffffffffffffff1673ffffffffffffffffffffffffffffffffffffffff168573ffffffffffffffffffffffffffffffffffffffff1614614da1578573ffffffffffffffffffffffffffffffffffffffff1663d1660f998686866040518463ffffffff1660e01b8152600401614ceb939291906159bf565b600060405180830381600087803b158015614d0557600080fd5b505af1925050508015614d16575060015b614d9c57816040518060400160405280600381526020017f434d43000000000000000000000000000000000000000000000000000000000081525090614d92576040517f08c379a0000000000000000000000000000000000000000000000000000000008152600401614d899190615aa7565b60405180910390fd5b5060009050614ec7565b614ec2565b8573ffffffffffffffffffffffffffffffffffffffff1663d1660f9986600c60009054906101000a900473ffffffffffffffffffffffffffffffffffffffff16866040518463ffffffff1660e01b8152600401614e00939291906159bf565b600060405180830381600087803b158015614e1a57600080fd5b505af1158015614e2e573d6000803e3d6000fd5b50505050600c60009054906101000a900473ffffffffffffffffffffffffffffffffffffffff1673ffffffffffffffffffffffffffffffffffffffff16635869dba885856040518363ffffffff1660e01b8152600401614e8f929190615a26565b600060405180830381600087803b158015614ea957600080fd5b505af1158015614ebd573d6000803e3d6000fd5b505050505b600190505b95945050505050565b6060614edf8484600085614ee8565b90509392505050565b606082471015614f43576040517f08c379a0000000000000000000000000000000000000000000000000000000008152600401808060200182810382526026815260200180615f056026913960400191505060405180910390fd5b614f4c85615090565b614fbe576040517f08c379a000000000000000000000000000000000000000000000000000000000815260040180806020018281038252601d8152602001807f416464726573733a2063616c6c20746f206e6f6e2d636f6e747261637400000081525060200191505060405180910390fd5b6000808673ffffffffffffffffffffffffffffffffffffffff1685876040518082805190602001908083835b6020831061500d5780518252602082019150602081019050602083039250614fea565b6001836020036101000a03801982511681845116808217855250505050505090500191505060006040518083038185875af1925050503d806000811461506f576040519150601f19603f3d011682016040523d82523d6000602084013e615074565b606091505b50915091506150848282866150a3565b92505050949350505050565b600080823b905060008111915050919050565b606083156150b357829050615168565b6000835111156150c65782518084602001fd5b816040517f08c379a00000000000000000000000000000000000000000000000000000000081526004018080602001828103825283818151815260200191508051906020019080838360005b8381101561512d578082015181840152602081019050615112565b50505050905090810190601f16801561515a5780820380516001836020036101000a031916815260200191505b509250505060405180910390fd5b9392505050565b600061518261517d84615d27565b615cf6565b90508281526020810184848401111561519a57600080fd5b6151a5848285615e6a565b509392505050565b60006151c06151bb84615d27565b615cf6565b9050828152602081018484840111156151d857600080fd5b6151e3848285615e79565b509392505050565b6000813590506151fa81615ebf565b92915050565b60008151905061520f81615ebf565b92915050565b60008083601f84011261522757600080fd5b8235905067ffffffffffffffff81111561524057600080fd5b60208301915083602082028301111561525857600080fd5b9250929050565b60008135905061526e81615ed6565b92915050565b600082601f83011261528557600080fd5b813561529584826020860161516f565b91505092915050565b600082601f8301126152af57600080fd5b81516152bf8482602086016151ad565b91505092915050565b6000813590506152d781615eed565b92915050565b6000815190506152ec81615eed565b92915050565b60006020828403121561530457600080fd5b6000615312848285016151eb565b91505092915050565b60006020828403121561532d57600080fd5b600061533b84828501615200565b91505092915050565b6000806040838503121561535757600080fd5b6000615365858286016151eb565b9250506020615376858286016151eb565b9150509250929050565b60008060006060848603121561539557600080fd5b60006153a3868287016151eb565b93505060206153b4868287016151eb565b92505060406153c5868287016151eb565b9150509250925092565b6000806000606084860312156153e457600080fd5b60006153f2868287016151eb565b9350506020615403868287016151eb565b92505060406154148682870161525f565b9150509250925092565b60008060006060848603121561543357600080fd5b6000615441868287016151eb565b9350506020615452868287016151eb565b925050604084013567ffffffffffffffff81111561546f57600080fd5b61547b86828701615274565b9150509250925092565b60008060006060848603121561549a57600080fd5b60006154a8868287016151eb565b93505060206154b9868287016151eb565b92505060406154ca868287016152c8565b9150509250925092565b6000806000604084860312156154e957600080fd5b60006154f7868287016151eb565b935050602084013567ffffffffffffffff81111561551457600080fd5b61552086828701615215565b92509250509250925092565b6000806040838503121561553f57600080fd5b600061554d858286016151eb565b925050602061555e8582860161525f565b9150509250929050565b60008060006060848603121561557d57600080fd5b600061558b868287016151eb565b935050602061559c868287016152c8565b92505060406155ad8682870161525f565b9150509250925092565b600080600080608085870312156155cd57600080fd5b60006155db87828801615200565b94505060206155ec878288016152dd565b93505060406155fd878288016152dd565b925050606061560e878288016152dd565b91505092959194509250565b60006020828403121561562c57600080fd5b600082015167ffffffffffffffff81111561564657600080fd5b6156528482850161529e565b91505092915050565b60006020828403121561566d57600080fd5b600061567b848285016152c8565b91505092915050565b60006020828403121561569657600080fd5b60006156a4848285016152dd565b91505092915050565b600080600080608085870312156156c357600080fd5b60006156d1878288016152c8565b94505060206156e2878288016151eb565b93505060406156f3878288016152c8565b9250506060615704878288016152c8565b91505092959194509250565b600080600080600060a0868803121561572857600080fd5b6000615736888289016152c8565b95505060206157478882890161525f565b9450506040615758888289016152c8565b9350506060615769888289016152c8565b925050608061577a888289016152c8565b9150509295509295909350565b60008060008060008060c087890312156157a057600080fd5b60006157ae89828a016152c8565b96505060206157bf89828a016152c8565b95505060406157d089828a016152c8565b94505060606157e189828a016152c8565b93505060806157f289828a016152c8565b92505060a061580389828a016152c8565b9150509295509295509295565b600061581c8383615837565b60208301905092915050565b61583181615e10565b82525050565b61584081615dc8565b82525050565b61584f81615dc8565b82525050565b600061586082615d67565b61586a8185615d95565b935061587583615d57565b8060005b838110156158a657815161588d8882615810565b975061589883615d88565b925050600181019050615879565b5085935050505092915050565b6158bc81615dda565b82525050565b60006158cd82615d72565b6158d78185615da6565b93506158e7818560208601615e79565b6158f081615eae565b840191505092915050565b61590481615e22565b82525050565b600061591582615d7d565b61591f8185615db7565b935061592f818560208601615e79565b61593881615eae565b840191505092915050565b61594c81615e06565b82525050565b60006020820190506159676000830184615846565b92915050565b60006040820190506159826000830185615828565b61598f6020830184615846565b9392505050565b60006040820190506159ab6000830185615846565b6159b86020830184615846565b9392505050565b60006060820190506159d46000830186615846565b6159e16020830185615846565b6159ee6040830184615943565b949350505050565b6000604082019050615a0b6000830185615846565b8181036020830152615a1d81846158c2565b90509392505050565b6000604082019050615a3b6000830185615846565b615a486020830184615943565b9392505050565b6000602082019050615a6460008301846158b3565b92915050565b60006020820190508181036000830152615a8481846158c2565b905092915050565b6000602082019050615aa160008301846158fb565b92915050565b60006020820190508181036000830152615ac1818461590a565b905092915050565b6000602082019050615ade6000830184615943565b92915050565b6000604082019050615af96000830185615943565b615b066020830184615846565b9392505050565b6000604082019050615b226000830185615943565b615b2f6020830184615943565b9392505050565b600060a082019050615b4b6000830188615943565b615b586020830187615943565b8181036040830152615b6a8186615855565b9050615b796060830185615846565b615b866080830184615943565b9695505050505050565b6000606082019050615ba56000830186615943565b615bb26020830185615943565b615bbf6040830184615943565b949350505050565b600060a082019050615bdc6000830188615943565b615be96020830187615943565b615bf66040830186615943565b615c036060830185615943565b615c106080830184615943565b9695505050505050565b600060c082019050615c2f6000830189615943565b615c3c6020830188615943565b615c496040830187615943565b615c566060830186615943565b615c636080830185615943565b615c7060a0830184615943565b979650505050505050565b60008083356001602003843603038112615c9457600080fd5b80840192508235915067ffffffffffffffff821115615cb257600080fd5b602083019250602082023603831315615cca57600080fd5b509250929050565b600082356001604003833603038112615cea57600080fd5b80830191505092915050565b6000604051905081810181811067ffffffffffffffff82111715615d1d57615d1c615eac565b5b8060405250919050565b600067ffffffffffffffff821115615d4257615d41615eac565b5b601f19601f8301169050602081019050919050565b6000819050602082019050919050565b600081519050919050565b600081519050919050565b600081519050919050565b6000602082019050919050565b600082825260208201905092915050565b600082825260208201905092915050565b600082825260208201905092915050565b6000615dd382615de6565b9050919050565b60008115159050919050565b600073ffffffffffffffffffffffffffffffffffffffff82169050919050565b6000819050919050565b6000615e1b82615e46565b9050919050565b6000615e2d82615e34565b9050919050565b6000615e3f82615de6565b9050919050565b6000615e5182615e58565b9050919050565b6000615e6382615de6565b9050919050565b82818337600083830152505050565b60005b83811015615e97578082015181840152602081019050615e7c565b83811115615ea6576000848401525b50505050565bfe5b6000601f19601f8301169050919050565b615ec881615dc8565b8114615ed357600080fd5b50565b615edf81615dda565b8114615eea57600080fd5b50565b615ef681615e06565b8114615f0157600080fd5b5056fe416464726573733a20696e73756666696369656e742062616c616e636520666f722063616c6c536166654d6174683a206d756c7469706c69636174696f6e206f766572666c6f775361666545524332303a204552433230206f7065726174696f6e20646964206e6f742073756363656564a26469706673582212208ac70be5343e54bfff0445695d525c09b01de1466acd37e19666c804916970bc64736f6c63430007060033536166654d6174683a206d756c7469706c69636174696f6e206f766572666c6f77",
  "linkReferences": {},
  "deployedLinkReferences": {}
}