{
  "_format": "hh-sol-artifact-1",
  "contractName": "CreditManager",
  "sourceName": "contracts/credit/CreditManager.sol",
  "abi": [
    {
      "inputs": [
        {
          "internalType": "address",
          "name": "_addressProvider",
          "type": "address"
        },
        {
          "internalType": "uint256",
          "name": "_minAmount",
          "type": "uint256"
        },
        {
          "internalType": "uint256",
          "name": "_maxAmount",
          "type": "uint256"
        },
        {
          "internalType": "uint256",
          "name": "_maxLeverage",
          "type": "uint256"
        },
        {
          "internalType": "address",
          "name": "_poolService",
          "type": "address"
        },
        {
          "internalType": "address",
          "name": "_creditFilterAddress",
          "type": "address"
        },
        {
          "internalType": "address",
          "name": "_defaultSwapContract",
          "type": "address"
        }
      ],
      "stateMutability": "nonpayable",
      "type": "constructor"
    },
    {
      "anonymous": false,
      "inputs": [
        {
          "indexed": true,
          "internalType": "address",
          "name": "owner",
          "type": "address"
        },
        {
          "indexed": true,
          "internalType": "address",
          "name": "to",
          "type": "address"
        },
        {
          "indexed": false,
          "internalType": "uint256",
          "name": "remainingFunds",
          "type": "uint256"
        }
      ],
      "name": "CloseCreditAccount",
      "type": "event"
    },
    {
      "anonymous": false,
      "inputs": [
        {
          "indexed": true,
          "internalType": "address",
          "name": "owner",
          "type": "address"
        },
        {
          "indexed": true,
          "internalType": "address",
          "name": "liquidator",
          "type": "address"
        },
        {
          "indexed": false,
          "internalType": "uint256",
          "name": "remainingFunds",
          "type": "uint256"
        }
      ],
      "name": "LiquidateCreditAccount",
      "type": "event"
    },
    {
      "anonymous": false,
      "inputs": [
        {
          "indexed": false,
          "internalType": "uint256",
          "name": "minAmount",
          "type": "uint256"
        },
        {
          "indexed": false,
          "internalType": "uint256",
          "name": "maxAmount",
          "type": "uint256"
        }
      ],
      "name": "NewLimits",
      "type": "event"
    },
    {
      "anonymous": false,
      "inputs": [
        {
          "indexed": true,
          "internalType": "address",
          "name": "sender",
          "type": "address"
        },
        {
          "indexed": true,
          "internalType": "address",
          "name": "onBehalfOf",
          "type": "address"
        },
        {
          "indexed": true,
          "internalType": "address",
          "name": "creditAccount",
          "type": "address"
        },
        {
          "indexed": false,
          "internalType": "uint256",
          "name": "amount",
          "type": "uint256"
        },
        {
          "indexed": false,
          "internalType": "uint256",
          "name": "borrowAmount",
          "type": "uint256"
        },
        {
          "indexed": false,
          "internalType": "uint256",
          "name": "referralCode",
          "type": "uint256"
        }
      ],
      "name": "OpenCreditAccount",
      "type": "event"
    },
    {
      "anonymous": false,
      "inputs": [
        {
          "indexed": false,
          "internalType": "address",
          "name": "account",
          "type": "address"
        }
      ],
      "name": "Paused",
      "type": "event"
    },
    {
      "anonymous": false,
      "inputs": [
        {
          "indexed": true,
          "internalType": "address",
          "name": "owner",
          "type": "address"
        },
        {
          "indexed": false,
          "internalType": "address",
          "name": "to",
          "type": "address"
        }
      ],
      "name": "RepayCreditAccount",
      "type": "event"
    },
    {
      "anonymous": false,
      "inputs": [
        {
          "indexed": false,
          "internalType": "address",
          "name": "account",
          "type": "address"
        }
      ],
      "name": "Unpaused",
      "type": "event"
    },
    {
      "inputs": [
        {
          "internalType": "address",
          "name": "creditAccount",
          "type": "address"
        },
        {
          "internalType": "uint256",
          "name": "totalValue",
          "type": "uint256"
        },
        {
          "internalType": "bool",
          "name": "isLiquidated",
          "type": "bool"
        }
      ],
      "name": "_calcClosePayments",
      "outputs": [
        {
          "internalType": "uint256",
          "name": "_borrowedAmount",
          "type": "uint256"
        },
        {
          "internalType": "uint256",
          "name": "amountToPool",
          "type": "uint256"
        },
        {
          "internalType": "uint256",
          "name": "remainingFunds",
          "type": "uint256"
        },
        {
          "internalType": "uint256",
          "name": "profit",
          "type": "uint256"
        },
        {
          "internalType": "uint256",
          "name": "loss",
          "type": "uint256"
        }
      ],
      "stateMutability": "view",
      "type": "function"
    },
    {
      "inputs": [],
      "name": "addressProvider",
      "outputs": [
        {
          "internalType": "contract AddressProvider",
          "name": "",
          "type": "address"
        }
      ],
      "stateMutability": "view",
      "type": "function"
    },
    {
      "inputs": [
        {
          "internalType": "address",
          "name": "borrower",
          "type": "address"
        },
        {
          "internalType": "bool",
          "name": "isLiquidated",
          "type": "bool"
        }
      ],
      "name": "calcRepayAmount",
      "outputs": [
        {
          "internalType": "uint256",
          "name": "",
          "type": "uint256"
        }
      ],
      "stateMutability": "view",
      "type": "function"
    },
    {
      "inputs": [
        {
          "internalType": "address",
          "name": "to",
          "type": "address"
        },
        {
          "internalType": "uint256",
          "name": "amountOutTolerance",
          "type": "uint256"
        }
      ],
      "name": "closeCreditAccount",
      "outputs": [],
      "stateMutability": "nonpayable",
      "type": "function"
    },
    {
      "inputs": [
        {
          "internalType": "address",
          "name": "",
          "type": "address"
        }
      ],
      "name": "creditAccounts",
      "outputs": [
        {
          "internalType": "address",
          "name": "",
          "type": "address"
        }
      ],
      "stateMutability": "view",
      "type": "function"
    },
    {
      "inputs": [],
      "name": "creditFilter",
      "outputs": [
        {
          "internalType": "contract ICreditFilter",
          "name": "",
          "type": "address"
        }
      ],
      "stateMutability": "view",
      "type": "function"
    },
    {
      "inputs": [],
      "name": "defaultSwapContract",
      "outputs": [
        {
          "internalType": "address",
          "name": "",
          "type": "address"
        }
      ],
      "stateMutability": "view",
      "type": "function"
    },
    {
      "inputs": [
        {
          "internalType": "address",
          "name": "borrower",
          "type": "address"
        },
        {
          "internalType": "address",
          "name": "target",
          "type": "address"
        },
        {
          "internalType": "bytes",
          "name": "data",
          "type": "bytes"
        }
      ],
      "name": "executeOrder",
      "outputs": [
        {
          "internalType": "bytes",
          "name": "",
          "type": "bytes"
        }
      ],
      "stateMutability": "nonpayable",
      "type": "function"
    },
    {
      "inputs": [
        {
          "internalType": "address",
          "name": "borrower",
          "type": "address"
        }
      ],
      "name": "getCreditAccountOrRevert",
      "outputs": [
        {
          "internalType": "address",
          "name": "",
          "type": "address"
        }
      ],
      "stateMutability": "view",
      "type": "function"
    },
    {
      "inputs": [
        {
          "internalType": "address",
          "name": "borrower",
          "type": "address"
        }
      ],
      "name": "hasOpenedCreditAccount",
      "outputs": [
        {
          "internalType": "bool",
          "name": "",
          "type": "bool"
        }
      ],
      "stateMutability": "view",
      "type": "function"
    },
    {
      "inputs": [
        {
          "internalType": "uint256",
          "name": "amount",
          "type": "uint256"
        }
      ],
      "name": "increaseBorrowedAmount",
      "outputs": [],
      "stateMutability": "nonpayable",
      "type": "function"
    },
    {
      "inputs": [],
      "name": "kind",
      "outputs": [
        {
          "internalType": "bytes32",
          "name": "",
          "type": "bytes32"
        }
      ],
      "stateMutability": "view",
      "type": "function"
    },
    {
      "inputs": [
        {
          "internalType": "address",
          "name": "borrower",
          "type": "address"
        },
        {
          "internalType": "address",
          "name": "to",
          "type": "address"
        }
      ],
      "name": "liquidateCreditAccount",
      "outputs": [],
      "stateMutability": "nonpayable",
      "type": "function"
    },
    {
      "inputs": [],
      "name": "maxAmount",
      "outputs": [
        {
          "internalType": "uint256",
          "name": "",
          "type": "uint256"
        }
      ],
      "stateMutability": "view",
      "type": "function"
    },
    {
      "inputs": [],
      "name": "maxLeverageFactor",
      "outputs": [
        {
          "internalType": "uint256",
          "name": "",
          "type": "uint256"
        }
      ],
      "stateMutability": "view",
      "type": "function"
    },
    {
      "inputs": [],
      "name": "minAmount",
      "outputs": [
        {
          "internalType": "uint256",
          "name": "",
          "type": "uint256"
        }
      ],
      "stateMutability": "view",
      "type": "function"
    },
    {
      "inputs": [],
      "name": "minHealthFactor",
      "outputs": [
        {
          "internalType": "uint256",
          "name": "",
          "type": "uint256"
        }
      ],
      "stateMutability": "view",
      "type": "function"
    },
    {
      "inputs": [
        {
          "internalType": "uint256",
          "name": "amount",
          "type": "uint256"
        },
        {
          "internalType": "address payable",
          "name": "onBehalfOf",
          "type": "address"
        },
        {
          "internalType": "uint256",
          "name": "leverageFactor",
          "type": "uint256"
        },
        {
          "internalType": "uint256",
          "name": "referralCode",
          "type": "uint256"
        }
      ],
      "name": "openCreditAccount",
      "outputs": [],
      "stateMutability": "nonpayable",
      "type": "function"
    },
    {
      "inputs": [],
      "name": "pause",
      "outputs": [],
      "stateMutability": "nonpayable",
      "type": "function"
    },
    {
      "inputs": [],
      "name": "paused",
      "outputs": [
        {
          "internalType": "bool",
          "name": "",
          "type": "bool"
        }
      ],
      "stateMutability": "view",
      "type": "function"
    },
    {
      "inputs": [],
      "name": "poolService",
      "outputs": [
        {
          "internalType": "address",
          "name": "",
          "type": "address"
        }
      ],
      "stateMutability": "view",
      "type": "function"
    },
    {
      "inputs": [
        {
          "internalType": "address",
          "name": "creditAccount",
          "type": "address"
        },
        {
          "internalType": "address",
          "name": "toContract",
          "type": "address"
        },
        {
          "internalType": "address",
          "name": "token",
          "type": "address"
        }
      ],
      "name": "provideCreditAccountAllowance",
      "outputs": [],
      "stateMutability": "nonpayable",
      "type": "function"
    },
    {
      "inputs": [
        {
          "internalType": "address",
          "name": "to",
          "type": "address"
        }
      ],
      "name": "repayCreditAccount",
      "outputs": [],
      "stateMutability": "nonpayable",
      "type": "function"
    },
    {
      "inputs": [
        {
          "internalType": "address",
          "name": "borrower",
          "type": "address"
        },
        {
          "internalType": "address",
          "name": "to",
          "type": "address"
        }
      ],
      "name": "repayCreditAccountETH",
      "outputs": [
        {
          "internalType": "uint256",
          "name": "",
          "type": "uint256"
        }
      ],
      "stateMutability": "nonpayable",
      "type": "function"
    },
    {
      "inputs": [
        {
          "internalType": "uint256",
          "name": "newMinAmount",
          "type": "uint256"
        },
        {
          "internalType": "uint256",
          "name": "newMaxAmount",
          "type": "uint256"
        }
      ],
      "name": "setLimits",
      "outputs": [],
      "stateMutability": "nonpayable",
      "type": "function"
    },
    {
      "inputs": [],
      "name": "underlyingToken",
      "outputs": [
        {
          "internalType": "address",
          "name": "",
          "type": "address"
        }
      ],
      "stateMutability": "view",
      "type": "function"
    },
    {
      "inputs": [],
      "name": "unpause",
      "outputs": [],
      "stateMutability": "nonpayable",
      "type": "function"
    },
    {
      "inputs": [
        {
          "internalType": "address",
          "name": "borrower",
          "type": "address"
        }
      ],
      "name": "updateCollateralProtection",
      "outputs": [],
      "stateMutability": "nonpayable",
      "type": "function"
    },
    {
      "inputs": [],
      "name": "wethAddress",
      "outputs": [
        {
          "internalType": "address",
          "name": "",
          "type": "address"
        }
      ],
      "stateMutability": "view",
      "type": "function"
    },
    {
      "inputs": [],
      "name": "wethGateway",
      "outputs": [
        {
          "internalType": "address",
          "name": "",
          "type": "address"
        }
      ],
      "stateMutability": "view",
      "type": "function"
    }
  ],
  "bytecode": "0x60806040523480156200001157600080fd5b506040516200668038038062006680833981810160405260e08110156200003757600080fd5b81019080805190602001909291908051906020019092919080519060200190929190805190602001909291908051906020019092919080519060200190929190805190602001909291905050508660008060006101000a81548160ff0219169083151502179055508073ffffffffffffffffffffffffffffffffffffffff1663087376956040518163ffffffff1660e01b815260040160206040518083038186803b158015620000e657600080fd5b505afa158015620000fb573d6000803e3d6000fd5b505050506040513d60208110156200011257600080fd5b8101908080519060200190929190505050600060016101000a81548173ffffffffffffffffffffffffffffffffffffffff021916908373ffffffffffffffffffffffffffffffffffffffff160217905550506001808190555086600760006101000a81548173ffffffffffffffffffffffffffffffffffffffff021916908373ffffffffffffffffffffffffffffffffffffffff16021790555082600b60006101000a81548173ffffffffffffffffffffffffffffffffffffffff021916908373ffffffffffffffffffffffffffffffffffffffff1602179055508273ffffffffffffffffffffffffffffffffffffffff16632495a5996040518163ffffffff1660e01b815260040160206040518083038186803b1580156200023457600080fd5b505afa15801562000249573d6000803e3d6000fd5b505050506040513d60208110156200026057600080fd5b8101908080519060200190929190505050600a60006101000a81548173ffffffffffffffffffffffffffffffffffffffff021916908373ffffffffffffffffffffffffffffffffffffffff16021790555081600960006101000a81548173ffffffffffffffffffffffffffffffffffffffff021916908373ffffffffffffffffffffffffffffffffffffffff160217905550600960009054906101000a900473ffffffffffffffffffffffffffffffffffffffff1673ffffffffffffffffffffffffffffffffffffffff1663cf33d955846040518263ffffffff1660e01b8152600401808273ffffffffffffffffffffffffffffffffffffffff168152602001915050600060405180830381600087803b1580156200037e57600080fd5b505af115801562000393573d6000803e3d6000fd5b50505050600760009054906101000a900473ffffffffffffffffffffffffffffffffffffffff1673ffffffffffffffffffffffffffffffffffffffff16634c252f916040518163ffffffff1660e01b815260040160206040518083038186803b1580156200040057600080fd5b505afa15801562000415573d6000803e3d6000fd5b505050506040513d60208110156200042c57600080fd5b8101908080519060200190929190505050600c60006101000a81548173ffffffffffffffffffffffffffffffffffffffff021916908373ffffffffffffffffffffffffffffffffffffffff160217905550600760009054906101000a900473ffffffffffffffffffffffffffffffffffffffff1673ffffffffffffffffffffffffffffffffffffffff166377532ed96040518163ffffffff1660e01b815260040160206040518083038186803b158015620004e657600080fd5b505afa158015620004fb573d6000803e3d6000fd5b505050506040513d60208110156200051257600080fd5b8101908080519060200190929190505050600d60006101000a81548173ffffffffffffffffffffffffffffffffffffffff021916908373ffffffffffffffffffffffffffffffffffffffff16021790555080600e60006101000a81548173ffffffffffffffffffffffffffffffffffffffff021916908373ffffffffffffffffffffffffffffffffffffffff160217905550600760009054906101000a900473ffffffffffffffffffffffffffffffffffffffff1673ffffffffffffffffffffffffffffffffffffffff16639068a8686040518163ffffffff1660e01b815260040160206040518083038186803b1580156200060d57600080fd5b505afa15801562000622573d6000803e3d6000fd5b505050506040513d60208110156200063957600080fd5b8101908080519060200190929190505050600860006101000a81548173ffffffffffffffffffffffffffffffffffffffff021916908373ffffffffffffffffffffffffffffffffffffffff1602179055506200069c8686620007f460201b60201c565b83600481905550620006f9600454620006e5620006ce606460ff1660045462000ad660201b620036ad1790919060201c565b61245462000b5f60201b620037351790919060201c565b62000bea60201b620037bb1790919060201c565b600581905550612710600554116040518060400160405280600281526020017f564d00000000000000000000000000000000000000000000000000000000000081525090620007e6576040517f08c379a00000000000000000000000000000000000000000000000000000000081526004018080602001828103825283818151815260200191508051906020019080838360005b83811015620007aa5780820151818401526020810190506200078d565b50505050905090810190601f168015620007d85780820380516001836020036101000a031916815260200191505b509250505060405180910390fd5b505050505050505062000c75565b600060019054906101000a900473ffffffffffffffffffffffffffffffffffffffff1673ffffffffffffffffffffffffffffffffffffffff16635f259aba336040518263ffffffff1660e01b8152600401808273ffffffffffffffffffffffffffffffffffffffff16815260200191505060206040518083038186803b1580156200087e57600080fd5b505afa15801562000893573d6000803e3d6000fd5b505050506040513d6020811015620008aa57600080fd5b81019080805190602001909291905050506040518060400160405280600281526020017f4333000000000000000000000000000000000000000000000000000000000000815250906200099b576040517f08c379a00000000000000000000000000000000000000000000000000000000081526004018080602001828103825283818151815260200191508051906020019080838360005b838110156200095f57808201518184015260208101905062000942565b50505050905090810190601f1680156200098d5780820380516001836020036101000a031916815260200191505b509250505060405180910390fd5b50808211156040518060400160405280600281526020017f564c0000000000000000000000000000000000000000000000000000000000008152509062000a80576040517f08c379a00000000000000000000000000000000000000000000000000000000081526004018080602001828103825283818151815260200191508051906020019080838360005b8381101562000a4457808201518184015260208101905062000a27565b50505050905090810190601f16801562000a725780820380516001836020036101000a031916815260200191505b509250505060405180910390fd5b5081600281905550806003819055507f3ab5703a6b20738ef76e85d32a078f089788a370f76ee3768c70ea8678000cb6600254600354604051808381526020018281526020019250505060405180910390a15050565b60008082840190508381101562000b55576040517f08c379a000000000000000000000000000000000000000000000000000000000815260040180806020018281038252601b8152602001807f536166654d6174683a206164646974696f6e206f766572666c6f77000000000081525060200191505060405180910390fd5b8091505092915050565b60008083141562000b74576000905062000be4565b600082840290508284828162000b8657fe5b041462000bdf576040517f08c379a00000000000000000000000000000000000000000000000000000000081526004018080602001828103825260218152602001806200665f6021913960400191505060405180910390fd5b809150505b92915050565b600080821162000c62576040517f08c379a000000000000000000000000000000000000000000000000000000000815260040180806020018281038252601a8152602001807f536166654d6174683a206469766973696f6e206279207a65726f00000000000081525060200191505060405180910390fd5b81838162000c6c57fe5b04905092915050565b6159da8062000c856000396000f3fe608060405234801561001057600080fd5b50600436106101da5760003560e01c80636ce4074a11610104578063c4590d3f116100a2578063e0c011b711610071578063e0c011b7146109b7578063e1b4264c146109eb578063e958b70414610a09578063f93f515b14610a77576101da565b8063c4590d3f146108b9578063c5e10eef146108f1578063d692ba3314610925578063dd33359e14610969576101da565b80639b2cb5d8116100de5780639b2cb5d8146107d75780639efc60d0146107f5578063a6eab5c214610823578063b2c53a6c1461089b576101da565b80636ce4074a146105cf5780638456cb5914610743578063996329f81461074d576101da565b80633ce073551161017c578063570a7af21161014b578063570a7af2146104d9578063579122ab1461050d5780635c975abb146105915780635f48f393146105b1576101da565b80633ce07355146103d55780633f4ba83a146104395780634f0e0ef3146104435780635288ba4b14610477576101da565b80632495a599116101b85780632495a599146102af578063256ac915146102e357806327b65cef1461033d5780632954018c146103a1576101da565b806304baa00b146101df578063055ee9b5146101fd578063148fa66d1461026b575b600080fd5b6101e7610aab565b6040518082815260200191505060405180910390f35b61023f6004803603602081101561021357600080fd5b81019080803573ffffffffffffffffffffffffffffffffffffffff169060200190929190505050610acf565b604051808273ffffffffffffffffffffffffffffffffffffffff16815260200191505060405180910390f35b6102ad6004803603602081101561028157600080fd5b81019080803573ffffffffffffffffffffffffffffffffffffffff169060200190929190505050610b02565b005b6102b7610d0b565b604051808273ffffffffffffffffffffffffffffffffffffffff16815260200191505060405180910390f35b610325600480360360208110156102f957600080fd5b81019080803573ffffffffffffffffffffffffffffffffffffffff169060200190929190505050610d31565b60405180821515815260200191505060405180910390f35b61039f6004803603604081101561035357600080fd5b81019080803573ffffffffffffffffffffffffffffffffffffffff169060200190929190803573ffffffffffffffffffffffffffffffffffffffff169060200190929190505050610dc9565b005b6103a9611122565b604051808273ffffffffffffffffffffffffffffffffffffffff16815260200191505060405180910390f35b610423600480360360408110156103eb57600080fd5b81019080803573ffffffffffffffffffffffffffffffffffffffff169060200190929190803515159060200190929190505050611148565b6040518082815260200191505060405180910390f35b61044161125e565b005b61044b611409565b604051808273ffffffffffffffffffffffffffffffffffffffff16815260200191505060405180910390f35b6104d76004803603608081101561048d57600080fd5b8101908080359060200190929190803573ffffffffffffffffffffffffffffffffffffffff169060200190929190803590602001909291908035906020019092919050505061142f565b005b6104e1611cc4565b604051808273ffffffffffffffffffffffffffffffffffffffff16815260200191505060405180910390f35b61058f6004803603606081101561052357600080fd5b81019080803573ffffffffffffffffffffffffffffffffffffffff169060200190929190803573ffffffffffffffffffffffffffffffffffffffff169060200190929190803573ffffffffffffffffffffffffffffffffffffffff169060200190929190505050611cea565b005b610599611e9e565b60405180821515815260200191505060405180910390f35b6105b9611eb4565b6040518082815260200191505060405180910390f35b6106c8600480360360608110156105e557600080fd5b81019080803573ffffffffffffffffffffffffffffffffffffffff169060200190929190803573ffffffffffffffffffffffffffffffffffffffff1690602001909291908035906020019064010000000081111561064257600080fd5b82018360208201111561065457600080fd5b8035906020019184600183028401116401000000008311171561067657600080fd5b91908080601f016020809104026020016040519081016040528093929190818152602001838380828437600081840152601f19601f820116905080830192505050505050509192919290505050611eba565b6040518080602001828103825283818151815260200191508051906020019080838360005b838110156107085780820151818401526020810190506106ed565b50505050905090810190601f1680156107355780820380516001836020036101000a031916815260200191505b509250505060405180910390f35b61074b612383565b005b6107a56004803603606081101561076357600080fd5b81019080803573ffffffffffffffffffffffffffffffffffffffff1690602001909291908035906020019092919080351515906020019092919050505061252e565b604051808681526020018581526020018481526020018381526020018281526020019550505050505060405180910390f35b6107df612618565b6040518082815260200191505060405180910390f35b6108216004803603602081101561080b57600080fd5b810190808035906020019092919050505061261e565b005b6108856004803603604081101561083957600080fd5b81019080803573ffffffffffffffffffffffffffffffffffffffff169060200190929190803573ffffffffffffffffffffffffffffffffffffffff169060200190929190505050612c23565b6040518082815260200191505060405180910390f35b6108a3612e68565b6040518082815260200191505060405180910390f35b6108ef600480360360408110156108cf57600080fd5b810190808035906020019092919080359060200190929190505050612e6e565b005b6108f9613145565b604051808273ffffffffffffffffffffffffffffffffffffffff16815260200191505060405180910390f35b6109676004803603602081101561093b57600080fd5b81019080803573ffffffffffffffffffffffffffffffffffffffff16906020019092919050505061316b565b005b6109b56004803603604081101561097f57600080fd5b81019080803573ffffffffffffffffffffffffffffffffffffffff1690602001909291908035906020019092919050505061327c565b005b6109bf6134df565b604051808273ffffffffffffffffffffffffffffffffffffffff16815260200191505060405180910390f35b6109f3613505565b6040518082815260200191505060405180910390f35b610a4b60048036036020811015610a1f57600080fd5b81019080803573ffffffffffffffffffffffffffffffffffffffff16906020019092919050505061350b565b604051808273ffffffffffffffffffffffffffffffffffffffff16815260200191505060405180910390f35b610a7f613687565b604051808273ffffffffffffffffffffffffffffffffffffffff16815260200191505060405180910390f35b7f737461626c65000000000000000000000000000000000000000000000000000081565b60066020528060005260406000206000915054906101000a900473ffffffffffffffffffffffffffffffffffffffff1681565b610b0b81610d31565b6040518060400160405280600281526020017f563100000000000000000000000000000000000000000000000000000000000081525090610be7576040517f08c379a00000000000000000000000000000000000000000000000000000000081526004018080602001828103825283818151815260200191508051906020019080838360005b83811015610bac578082015181840152602081019050610b91565b50505050905090810190601f168015610bd95780820380516001836020036101000a031916815260200191505b509250505060405180910390fd5b50600960009054906101000a900473ffffffffffffffffffffffffffffffffffffffff1673ffffffffffffffffffffffffffffffffffffffff166329599cef33600660008573ffffffffffffffffffffffffffffffffffffffff1673ffffffffffffffffffffffffffffffffffffffff16815260200190815260200160002060009054906101000a900473ffffffffffffffffffffffffffffffffffffffff166040518363ffffffff1660e01b8152600401808373ffffffffffffffffffffffffffffffffffffffff1681526020018273ffffffffffffffffffffffffffffffffffffffff16815260200192505050600060405180830381600087803b158015610cf057600080fd5b505af1158015610d04573d6000803e3d6000fd5b5050505050565b600a60009054906101000a900473ffffffffffffffffffffffffffffffffffffffff1681565b60008073ffffffffffffffffffffffffffffffffffffffff16600660008473ffffffffffffffffffffffffffffffffffffffff1673ffffffffffffffffffffffffffffffffffffffff16815260200190815260200160002060009054906101000a900473ffffffffffffffffffffffffffffffffffffffff1673ffffffffffffffffffffffffffffffffffffffff1614159050919050565b610dd1611e9e565b15610e44576040517f08c379a00000000000000000000000000000000000000000000000000000000081526004018080602001828103825260108152602001807f5061757361626c653a207061757365640000000000000000000000000000000081525060200191505060405180910390fd5b60026001541415610ebd576040517f08c379a000000000000000000000000000000000000000000000000000000000815260040180806020018281038252601f8152602001807f5265656e7472616e637947756172643a207265656e7472616e742063616c6c0081525060200191505060405180910390fd5b60026001819055506000610ed08361350b565b9050600080610edf8385613844565b91509150600960009054906101000a900473ffffffffffffffffffffffffffffffffffffffff1673ffffffffffffffffffffffffffffffffffffffff16633192195c846040518263ffffffff1660e01b8152600401808273ffffffffffffffffffffffffffffffffffffffff16815260200191505060206040518083038186803b158015610f6c57600080fd5b505afa158015610f80573d6000803e3d6000fd5b505050506040513d6020811015610f9657600080fd5b8101908080519060200190929190505050610fbc612710836137bb90919063ffffffff16565b106040518060400160405280600281526020017f563900000000000000000000000000000000000000000000000000000000000081525090611099576040517f08c379a00000000000000000000000000000000000000000000000000000000081526004018080602001828103825283818151815260200191508051906020019080838360005b8381101561105e578082015181840152602081019050611043565b50505050905090810190601f16801561108b5780820380516001836020036101000a031916815260200191505b509250505060405180910390fd5b5060006110ab8460038589338a613a40565b9150503373ffffffffffffffffffffffffffffffffffffffff168673ffffffffffffffffffffffffffffffffffffffff167f5e5da6c348e62989f9cfe029252433fc99009b7d28fa3c20d675520a10ff5896836040518082815260200191505060405180910390a350505050600180819055505050565b600760009054906101000a900473ffffffffffffffffffffffffffffffffffffffff1681565b6000806111548461350b565b90506000600960009054906101000a900473ffffffffffffffffffffffffffffffffffffffff1673ffffffffffffffffffffffffffffffffffffffff1663c7de38a6836040518263ffffffff1660e01b8152600401808273ffffffffffffffffffffffffffffffffffffffff16815260200191505060206040518083038186803b1580156111e157600080fd5b505afa1580156111f5573d6000803e3d6000fd5b505050506040513d602081101561120b57600080fd5b8101908080519060200190929190505050905060008061122c84848861252e565b505092509250508561123e5781611252565b61125181836136ad90919063ffffffff16565b5b94505050505092915050565b600060019054906101000a900473ffffffffffffffffffffffffffffffffffffffff1673ffffffffffffffffffffffffffffffffffffffff1663d4eb5db0336040518263ffffffff1660e01b8152600401808273ffffffffffffffffffffffffffffffffffffffff16815260200191505060206040518083038186803b1580156112e757600080fd5b505afa1580156112fb573d6000803e3d6000fd5b505050506040513d602081101561131157600080fd5b81019080805190602001909291905050506040518060400160405280600281526020017f4331000000000000000000000000000000000000000000000000000000000000815250906113fe576040517f08c379a00000000000000000000000000000000000000000000000000000000081526004018080602001828103825283818151815260200191508051906020019080838360005b838110156113c35780820151818401526020810190506113a8565b50505050905090810190601f1680156113f05780820380516001836020036101000a031916815260200191505b509250505060405180910390fd5b50611407613f7d565b565b600c60009054906101000a900473ffffffffffffffffffffffffffffffffffffffff1681565b611437611e9e565b156114aa576040517f08c379a00000000000000000000000000000000000000000000000000000000081526004018080602001828103825260108152602001807f5061757361626c653a207061757365640000000000000000000000000000000081525060200191505060405180910390fd5b60026001541415611523576040517f08c379a000000000000000000000000000000000000000000000000000000000815260040180806020018281038252601f8152602001807f5265656e7472616e637947756172643a207265656e7472616e742063616c6c0081525060200191505060405180910390fd5b6002600181905550600254841015801561153f57506003548411155b6040518060400160405280600281526020017f56330000000000000000000000000000000000000000000000000000000000008152509061161b576040517f08c379a00000000000000000000000000000000000000000000000000000000081526004018080602001828103825283818151815260200191508051906020019080838360005b838110156115e05780820151818401526020810190506115c5565b50505050905090810190601f16801561160d5780820380516001836020036101000a031916815260200191505b509250505060405180910390fd5b5061162583610d31565b156040518060400160405280600281526020017f563200000000000000000000000000000000000000000000000000000000000081525090611702576040517f08c379a00000000000000000000000000000000000000000000000000000000081526004018080602001828103825283818151815260200191508051906020019080838360005b838110156116c75780820151818401526020810190506116ac565b50505050905090810190601f1680156116f45780820380516001836020036101000a031916815260200191505b509250505060405180910390fd5b5060008211801561171557506004548211155b6040518060400160405280600281526020017f5634000000000000000000000000000000000000000000000000000000000000815250906117f1576040517f08c379a00000000000000000000000000000000000000000000000000000000081526004018080602001828103825283818151815260200191508051906020019080838360005b838110156117b657808201518184015260208101905061179b565b50505050905090810190601f1680156117e35780820380516001836020036101000a031916815260200191505b509250505060405180910390fd5b50600061181d606460ff1661180f858861373590919063ffffffff16565b6137bb90919063ffffffff16565b90506000600860009054906101000a900473ffffffffffffffffffffffffffffffffffffffff1673ffffffffffffffffffffffffffffffffffffffff16634ef96db1866040518263ffffffff1660e01b8152600401808273ffffffffffffffffffffffffffffffffffffffff168152602001915050602060405180830381600087803b1580156118ac57600080fd5b505af11580156118c0573d6000803e3d6000fd5b505050506040513d60208110156118d657600080fd5b81019080805190602001909291905050509050600960009054906101000a900473ffffffffffffffffffffffffffffffffffffffff1673ffffffffffffffffffffffffffffffffffffffff1663024de3058288856040518463ffffffff1660e01b8152600401808473ffffffffffffffffffffffffffffffffffffffff1681526020018381526020018281526020019350505050600060405180830381600087803b15801561198457600080fd5b505af1158015611998573d6000803e3d6000fd5b50505050600b60009054906101000a900473ffffffffffffffffffffffffffffffffffffffff1673ffffffffffffffffffffffffffffffffffffffff1663bf28068b83836040518363ffffffff1660e01b8152600401808381526020018273ffffffffffffffffffffffffffffffffffffffff16815260200192505050600060405180830381600087803b158015611a2f57600080fd5b505af1158015611a43573d6000803e3d6000fd5b50505050611a96338288600a60009054906101000a900473ffffffffffffffffffffffffffffffffffffffff1673ffffffffffffffffffffffffffffffffffffffff16614067909392919063ffffffff16565b8073ffffffffffffffffffffffffffffffffffffffff1663abaf48f583600b60009054906101000a900473ffffffffffffffffffffffffffffffffffffffff1673ffffffffffffffffffffffffffffffffffffffff16630fce70fb6040518163ffffffff1660e01b815260040160206040518083038186803b158015611b1b57600080fd5b505afa158015611b2f573d6000803e3d6000fd5b505050506040513d6020811015611b4557600080fd5b81019080805190602001909291905050506040518363ffffffff1660e01b81526004018083815260200182815260200192505050600060405180830381600087803b158015611b9357600080fd5b505af1158015611ba7573d6000803e3d6000fd5b5050505080600660008773ffffffffffffffffffffffffffffffffffffffff1673ffffffffffffffffffffffffffffffffffffffff16815260200190815260200160002060006101000a81548173ffffffffffffffffffffffffffffffffffffffff021916908373ffffffffffffffffffffffffffffffffffffffff1602179055508073ffffffffffffffffffffffffffffffffffffffff168573ffffffffffffffffffffffffffffffffffffffff163373ffffffffffffffffffffffffffffffffffffffff167f7b20ae77867a263a1074203a2da261ef0d096c99395c59c9d4a0104b9f334a2789868860405180848152602001838152602001828152602001935050505060405180910390a450506001808190555050505050565b600b60009054906101000a900473ffffffffffffffffffffffffffffffffffffffff1681565b600960009054906101000a900473ffffffffffffffffffffffffffffffffffffffff1673ffffffffffffffffffffffffffffffffffffffff16638deb3beb336040518263ffffffff1660e01b8152600401808273ffffffffffffffffffffffffffffffffffffffff16815260200191505060006040518083038186803b158015611d7357600080fd5b505afa158015611d87573d6000803e3d6000fd5b50505050611d93611e9e565b15611e06576040517f08c379a00000000000000000000000000000000000000000000000000000000081526004018080602001828103825260108152602001807f5061757361626c653a207061757365640000000000000000000000000000000081525060200191505060405180910390fd5b60026001541415611e7f576040517f08c379a000000000000000000000000000000000000000000000000000000000815260040180806020018281038252601f8152602001807f5265656e7472616e637947756172643a207265656e7472616e742063616c6c0081525060200191505060405180910390fd5b6002600181905550611e92838383614128565b60018081905550505050565b60008060009054906101000a900460ff16905090565b60035481565b6060600960009054906101000a900473ffffffffffffffffffffffffffffffffffffffff1673ffffffffffffffffffffffffffffffffffffffff16638deb3beb336040518263ffffffff1660e01b8152600401808273ffffffffffffffffffffffffffffffffffffffff16815260200191505060006040518083038186803b158015611f4557600080fd5b505afa158015611f59573d6000803e3d6000fd5b50505050611f65611e9e565b15611fd8576040517f08c379a00000000000000000000000000000000000000000000000000000000081526004018080602001828103825260108152602001807f5061757361626c653a207061757365640000000000000000000000000000000081525060200191505060405180910390fd5b60026001541415612051576040517f08c379a000000000000000000000000000000000000000000000000000000000815260040180806020018281038252601f8152602001807f5265656e7472616e637947756172643a207265656e7472616e742063616c6c0081525060200191505060405180910390fd5b600260018190555061206284610d31565b6040518060400160405280600281526020017f56310000000000000000000000000000000000000000000000000000000000008152509061213e576040517f08c379a00000000000000000000000000000000000000000000000000000000081526004018080602001828103825283818151815260200191508051906020019080838360005b838110156121035780820151818401526020810190506120e8565b50505050905090810190601f1680156121305780820380516001836020036101000a031916815260200191505b509250505060405180910390fd5b506000600660008673ffffffffffffffffffffffffffffffffffffffff1673ffffffffffffffffffffffffffffffffffffffff16815260200190815260200160002060009054906101000a900473ffffffffffffffffffffffffffffffffffffffff1690508073ffffffffffffffffffffffffffffffffffffffff16631cff79cd85856040518363ffffffff1660e01b8152600401808373ffffffffffffffffffffffffffffffffffffffff16815260200180602001828103825283818151815260200191508051906020019080838360005b8381101561222c578082015181840152602081019050612211565b50505050905090810190601f1680156122595780820380516001836020036101000a031916815260200191505b509350505050600060405180830381600087803b15801561227957600080fd5b505af115801561228d573d6000803e3d6000fd5b505050506040513d6000823e3d601f19601f8201168201806040525060208110156122b757600080fd5b81019080805160405193929190846401000000008211156122d757600080fd5b838201915060208201858111156122ed57600080fd5b825186600182028301116401000000008211171561230a57600080fd5b8083526020830192505050908051906020019080838360005b8381101561233e578082015181840152602081019050612323565b50505050905090810190601f16801561236b5780820380516001836020036101000a031916815260200191505b50604052505050915050600180819055509392505050565b600060019054906101000a900473ffffffffffffffffffffffffffffffffffffffff1673ffffffffffffffffffffffffffffffffffffffff16633a41ec64336040518263ffffffff1660e01b8152600401808273ffffffffffffffffffffffffffffffffffffffff16815260200191505060206040518083038186803b15801561240c57600080fd5b505afa158015612420573d6000803e3d6000fd5b505050506040513d602081101561243657600080fd5b81019080805190602001909291905050506040518060400160405280600281526020017f433100000000000000000000000000000000000000000000000000000000000081525090612523576040517f08c379a00000000000000000000000000000000000000000000000000000000081526004018080602001828103825283818151815260200191508051906020019080838360005b838110156124e85780820151818401526020810190506124cd565b50505050905090810190601f1680156125155780820380516001836020036101000a031916815260200191505b509250505060405180910390fd5b5061252c6142b4565b565b60008060008060008060006125428a61439f565b915091506126018282600b60009054906101000a900473ffffffffffffffffffffffffffffffffffffffff1673ffffffffffffffffffffffffffffffffffffffff16630fce70fb6040518163ffffffff1660e01b815260040160206040518083038186803b1580156125b357600080fd5b505afa1580156125c7573d6000803e3d6000fd5b505050506040513d60208110156125dd57600080fd5b81019080805190602001909291905050508b8d6144ad90949392919063ffffffff16565b965096509650965096505050939792965093509350565b60025481565b61262733610d31565b6040518060400160405280600281526020017f563100000000000000000000000000000000000000000000000000000000000081525090612703576040517f08c379a00000000000000000000000000000000000000000000000000000000081526004018080602001828103825283818151815260200191508051906020019080838360005b838110156126c85780820151818401526020810190506126ad565b50505050905090810190601f1680156126f55780820380516001836020036101000a031916815260200191505b509250505060405180910390fd5b5061270c611e9e565b1561277f576040517f08c379a00000000000000000000000000000000000000000000000000000000081526004018080602001828103825260108152602001807f5061757361626c653a207061757365640000000000000000000000000000000081525060200191505060405180910390fd5b600260015414156127f8576040517f08c379a000000000000000000000000000000000000000000000000000000000815260040180806020018281038252601f8152602001807f5265656e7472616e637947756172643a207265656e7472616e742063616c6c0081525060200191505060405180910390fd5b60026001819055506000600660003373ffffffffffffffffffffffffffffffffffffffff1673ffffffffffffffffffffffffffffffffffffffff16815260200190815260200160002060009054906101000a900473ffffffffffffffffffffffffffffffffffffffff1690506000806128708361439f565b91509150600061293d600b60009054906101000a900473ffffffffffffffffffffffffffffffffffffffff1673ffffffffffffffffffffffffffffffffffffffff16630fce70fb6040518163ffffffff1660e01b815260040160206040518083038186803b1580156128e157600080fd5b505afa1580156128f5573d6000803e3d6000fd5b505050506040513d602081101561290b57600080fd5b810190808051906020019092919050505061292f848861373590919063ffffffff16565b6137bb90919063ffffffff16565b9050600b60009054906101000a900473ffffffffffffffffffffffffffffffffffffffff1673ffffffffffffffffffffffffffffffffffffffff1663bf28068b86866040518363ffffffff1660e01b8152600401808381526020018273ffffffffffffffffffffffffffffffffffffffff16815260200192505050600060405180830381600087803b1580156129d257600080fd5b505af11580156129e6573d6000803e3d6000fd5b505050508373ffffffffffffffffffffffffffffffffffffffff166377904813612a1983866136ad90919063ffffffff16565b6040518263ffffffff1660e01b815260040180828152602001915050600060405180830381600087803b158015612a4f57600080fd5b505af1158015612a63573d6000803e3d6000fd5b505050506000600960009054906101000a900473ffffffffffffffffffffffffffffffffffffffff1673ffffffffffffffffffffffffffffffffffffffff16631dfe2353866040518263ffffffff1660e01b8152600401808273ffffffffffffffffffffffffffffffffffffffff168152602001915050602060405180830381600087803b158015612af457600080fd5b505af1158015612b08573d6000803e3d6000fd5b505050506040513d6020811015612b1e57600080fd5b810190808051906020019092919050505090506005548110156040518060400160405280600281526020017f564100000000000000000000000000000000000000000000000000000000000081525090612c13576040517f08c379a00000000000000000000000000000000000000000000000000000000081526004018080602001828103825283818151815260200191508051906020019080838360005b83811015612bd8578082015181840152602081019050612bbd565b50505050905090810190601f168015612c055780820380516001836020036101000a031916815260200191505b509250505060405180910390fd5b5050505050506001808190555050565b6000612c2d611e9e565b15612ca0576040517f08c379a00000000000000000000000000000000000000000000000000000000081526004018080602001828103825260108152602001807f5061757361626c653a207061757365640000000000000000000000000000000081525060200191505060405180910390fd5b60026001541415612d19576040517f08c379a000000000000000000000000000000000000000000000000000000000815260040180806020018281038252601f8152602001807f5265656e7472616e637947756172643a207265656e7472616e742063616c6c0081525060200191505060405180910390fd5b6002600181905550600d60009054906101000a900473ffffffffffffffffffffffffffffffffffffffff1673ffffffffffffffffffffffffffffffffffffffff163373ffffffffffffffffffffffffffffffffffffffff16146040518060400160405280600281526020017f564700000000000000000000000000000000000000000000000000000000000081525090612e4e576040517f08c379a00000000000000000000000000000000000000000000000000000000081526004018080602001828103825283818151815260200191508051906020019080838360005b83811015612e13578082015181840152602081019050612df8565b50505050905090810190601f168015612e405780820380516001836020036101000a031916815260200191505b509250505060405180910390fd5b50612e5983836145b3565b90506001808190555092915050565b60045481565b600060019054906101000a900473ffffffffffffffffffffffffffffffffffffffff1673ffffffffffffffffffffffffffffffffffffffff16635f259aba336040518263ffffffff1660e01b8152600401808273ffffffffffffffffffffffffffffffffffffffff16815260200191505060206040518083038186803b158015612ef757600080fd5b505afa158015612f0b573d6000803e3d6000fd5b505050506040513d6020811015612f2157600080fd5b81019080805190602001909291905050506040518060400160405280600281526020017f43330000000000000000000000000000000000000000000000000000000000008152509061300e576040517f08c379a00000000000000000000000000000000000000000000000000000000081526004018080602001828103825283818151815260200191508051906020019080838360005b83811015612fd3578082015181840152602081019050612fb8565b50505050905090810190601f1680156130005780820380516001836020036101000a031916815260200191505b509250505060405180910390fd5b50808211156040518060400160405280600281526020017f564c000000000000000000000000000000000000000000000000000000000000815250906130ef576040517f08c379a00000000000000000000000000000000000000000000000000000000081526004018080602001828103825283818151815260200191508051906020019080838360005b838110156130b4578082015181840152602081019050613099565b50505050905090810190601f1680156130e15780820380516001836020036101000a031916815260200191505b509250505060405180910390fd5b5081600281905550806003819055507f3ab5703a6b20738ef76e85d32a078f089788a370f76ee3768c70ea8678000cb6600254600354604051808381526020018281526020019250505060405180910390a15050565b600d60009054906101000a900473ffffffffffffffffffffffffffffffffffffffff1681565b613173611e9e565b156131e6576040517f08c379a00000000000000000000000000000000000000000000000000000000081526004018080602001828103825260108152602001807f5061757361626c653a207061757365640000000000000000000000000000000081525060200191505060405180910390fd5b6002600154141561325f576040517f08c379a000000000000000000000000000000000000000000000000000000000815260040180806020018281038252601f8152602001807f5265656e7472616e637947756172643a207265656e7472616e742063616c6c0081525060200191505060405180910390fd5b600260018190555061327133826145b3565b506001808190555050565b613284611e9e565b156132f7576040517f08c379a00000000000000000000000000000000000000000000000000000000081526004018080602001828103825260108152602001807f5061757361626c653a207061757365640000000000000000000000000000000081525060200191505060405180910390fd5b60026001541415613370576040517f08c379a000000000000000000000000000000000000000000000000000000000815260040180806020018281038252601f8152602001807f5265656e7472616e637947756172643a207265656e7472616e742063616c6c0081525060200191505060405180910390fd5b600260018190555060006133833361350b565b905061338f8183614654565b6000600a60009054906101000a900473ffffffffffffffffffffffffffffffffffffffff1673ffffffffffffffffffffffffffffffffffffffff166370a08231836040518263ffffffff1660e01b8152600401808273ffffffffffffffffffffffffffffffffffffffff16815260200191505060206040518083038186803b15801561341a57600080fd5b505afa15801561342e573d6000803e3d6000fd5b505050506040513d602081101561344457600080fd5b810190808051906020019092919050505090506000613469836001843360008a613a40565b9150508473ffffffffffffffffffffffffffffffffffffffff163373ffffffffffffffffffffffffffffffffffffffff167fca05b632388199c23de1352b2e96fd72a0ec71611683330b38060c004bbf0a76836040518082815260200191505060405180910390a3505050600180819055505050565b600e60009054906101000a900473ffffffffffffffffffffffffffffffffffffffff1681565b60055481565b600080600660008473ffffffffffffffffffffffffffffffffffffffff1673ffffffffffffffffffffffffffffffffffffffff16815260200190815260200160002060009054906101000a900473ffffffffffffffffffffffffffffffffffffffff169050600073ffffffffffffffffffffffffffffffffffffffff168173ffffffffffffffffffffffffffffffffffffffff1614156040518060400160405280600281526020017f56310000000000000000000000000000000000000000000000000000000000008152509061367d576040517f08c379a00000000000000000000000000000000000000000000000000000000081526004018080602001828103825283818151815260200191508051906020019080838360005b83811015613642578082015181840152602081019050613627565b50505050905090810190601f16801561366f5780820380516001836020036101000a031916815260200191505b509250505060405180910390fd5b5080915050919050565b600960009054906101000a900473ffffffffffffffffffffffffffffffffffffffff1681565b60008082840190508381101561372b576040517f08c379a000000000000000000000000000000000000000000000000000000000815260040180806020018281038252601b8152602001807f536166654d6174683a206164646974696f6e206f766572666c6f77000000000081525060200191505060405180910390fd5b8091505092915050565b60008083141561374857600090506137b5565b600082840290508284828161375957fe5b04146137b0576040517f08c379a000000000000000000000000000000000000000000000000000000000815260040180806020018281038252602181526020018061595a6021913960400191505060405180910390fd5b809150505b92915050565b6000808211613832576040517f08c379a000000000000000000000000000000000000000000000000000000000815260040180806020018281038252601a8152602001807f536166654d6174683a206469766973696f6e206279207a65726f00000000000081525060200191505060405180910390fd5b81838161383b57fe5b04905092915050565b600080600091506000905060005b600960009054906101000a900473ffffffffffffffffffffffffffffffffffffffff1673ffffffffffffffffffffffffffffffffffffffff166320a05ff76040518163ffffffff1660e01b815260040160206040518083038186803b1580156138ba57600080fd5b505afa1580156138ce573d6000803e3d6000fd5b505050506040513d60208110156138e457600080fd5b8101908080519060200190929190505050811015613a3857600080600080600960009054906101000a900473ffffffffffffffffffffffffffffffffffffffff1673ffffffffffffffffffffffffffffffffffffffff1663af0a65028a876040518363ffffffff1660e01b8152600401808373ffffffffffffffffffffffffffffffffffffffff1681526020018281526020019250505060806040518083038186803b15801561399357600080fd5b505afa1580156139a7573d6000803e3d6000fd5b505050506040513d60808110156139bd57600080fd5b810190808051906020019092919080519060200190929190805190602001909291908051906020019092919050505093509350935093506001831115613a2757613a1c89858a613a17600188614caa90919063ffffffff16565b614d2d565b818701965080860195505b505050508080600101915050613852565b509250929050565b6000806000600360ff168860ff161490506000806000806000613a648e8d8861252e565b94509450945094509450600160ff168d60ff161415613c7d578d73ffffffffffffffffffffffffffffffffffffffff1663beabacc8600a60009054906101000a900473ffffffffffffffffffffffffffffffffffffffff16600b60009054906101000a900473ffffffffffffffffffffffffffffffffffffffff16876040518463ffffffff1660e01b8152600401808473ffffffffffffffffffffffffffffffffffffffff1681526020018373ffffffffffffffffffffffffffffffffffffffff1681526020018281526020019350505050600060405180830381600087803b158015613b5057600080fd5b505af1158015613b64573d6000803e3d6000fd5b5050505060018111156040518060400160405280600281526020017f564300000000000000000000000000000000000000000000000000000000000081525090613c49576040517f08c379a00000000000000000000000000000000000000000000000000000000081526004018080602001828103825283818151815260200191508051906020019080838360005b83811015613c0e578082015181840152602081019050613bf3565b50505050905090810190601f168015613c3b5780820380516001836020036101000a031916815260200191505b509250505060405180910390fd5b50613c788e600a60009054906101000a900473ffffffffffffffffffffffffffffffffffffffff168b86614d2d565b613dc4565b600360ff168d60ff161415613d5157613cfd8a600b60009054906101000a900473ffffffffffffffffffffffffffffffffffffffff1686600a60009054906101000a900473ffffffffffffffffffffffffffffffffffffffff1673ffffffffffffffffffffffffffffffffffffffff16614067909392919063ffffffff16565b613d4c8a8c85600a60009054906101000a900473ffffffffffffffffffffffffffffffffffffffff1673ffffffffffffffffffffffffffffffffffffffff16614067909392919063ffffffff16565b613dc3565b613dc233600b60009054906101000a900473ffffffffffffffffffffffffffffffffffffffff1686600a60009054906101000a900473ffffffffffffffffffffffffffffffffffffffff1673ffffffffffffffffffffffffffffffffffffffff16614067909392919063ffffffff16565b5b5b600860009054906101000a900473ffffffffffffffffffffffffffffffffffffffff1673ffffffffffffffffffffffffffffffffffffffff166389b77b3e8f6040518263ffffffff1660e01b8152600401808273ffffffffffffffffffffffffffffffffffffffff168152602001915050600060405180830381600087803b158015613e4f57600080fd5b505af1158015613e63573d6000803e3d6000fd5b50505050600660008c73ffffffffffffffffffffffffffffffffffffffff1673ffffffffffffffffffffffffffffffffffffffff16815260200190815260200160002060006101000a81549073ffffffffffffffffffffffffffffffffffffffff0219169055600b60009054906101000a900473ffffffffffffffffffffffffffffffffffffffff1673ffffffffffffffffffffffffffffffffffffffff1663ca9505e48684846040518463ffffffff1660e01b8152600401808481526020018381526020018281526020019350505050600060405180830381600087803b158015613f4e57600080fd5b505af1158015613f62573d6000803e3d6000fd5b50505050838397509750505050505050965096945050505050565b613f85611e9e565b613ff7576040517f08c379a00000000000000000000000000000000000000000000000000000000081526004018080602001828103825260148152602001807f5061757361626c653a206e6f742070617573656400000000000000000000000081525060200191505060405180910390fd5b60008060006101000a81548160ff0219169083151502179055507f5db9ee0a495bf2e6ff9c91a7834c1ba4fdd244a5e8aa4e537bd38aeae4b073aa61403a614faf565b604051808273ffffffffffffffffffffffffffffffffffffffff16815260200191505060405180910390a1565b614122846323b872dd60e01b858585604051602401808473ffffffffffffffffffffffffffffffffffffffff1681526020018373ffffffffffffffffffffffffffffffffffffffff1681526020018281526020019350505050604051602081830303815290604052907bffffffffffffffffffffffffffffffffffffffffffffffffffffffff19166020820180517bffffffffffffffffffffffffffffffffffffffffffffffffffffffff8381831617835250505050614fb7565b50505050565b7f4fffffffffffffffffffffffffffffffffffffffffffffffffffffffffffffff8173ffffffffffffffffffffffffffffffffffffffff1663dd62ed3e85856040518363ffffffff1660e01b8152600401808373ffffffffffffffffffffffffffffffffffffffff1681526020018273ffffffffffffffffffffffffffffffffffffffff1681526020019250505060206040518083038186803b1580156141ce57600080fd5b505afa1580156141e2573d6000803e3d6000fd5b505050506040513d60208110156141f857600080fd5b810190808051906020019092919050505010156142af578273ffffffffffffffffffffffffffffffffffffffff166303105b0482846040518363ffffffff1660e01b8152600401808373ffffffffffffffffffffffffffffffffffffffff1681526020018273ffffffffffffffffffffffffffffffffffffffff16815260200192505050600060405180830381600087803b15801561429657600080fd5b505af11580156142aa573d6000803e3d6000fd5b505050505b505050565b6142bc611e9e565b1561432f576040517f08c379a00000000000000000000000000000000000000000000000000000000081526004018080602001828103825260108152602001807f5061757361626c653a207061757365640000000000000000000000000000000081525060200191505060405180910390fd5b60016000806101000a81548160ff0219169083151502179055507f62e78cea01bee320cd4e420270b5ea74000d11b0c9f74754ebdbfc544b05a258614372614faf565b604051808273ffffffffffffffffffffffffffffffffffffffff16815260200191505060405180910390a1565b6000808273ffffffffffffffffffffffffffffffffffffffff16631afbb7a46040518163ffffffff1660e01b815260040160206040518083038186803b1580156143e857600080fd5b505afa1580156143fc573d6000803e3d6000fd5b505050506040513d602081101561441257600080fd5b810190808051906020019092919050505091508273ffffffffffffffffffffffffffffffffffffffff166317d11a156040518163ffffffff1660e01b815260040160206040518083038186803b15801561446b57600080fd5b505afa15801561447f573d6000803e3d6000fd5b505050506040513d602081101561449557600080fd5b81019080805190602001909291905050509050915091565b600080600080600080866144c1578a6144eb565b6144ea6127106144dc61251c8e61373590919063ffffffff16565b6137bb90919063ffffffff16565b5b905089955060006144fd878b8b6150a6565b905061450b8288838b6150d6565b95508082101561454557614529600183614caa90919063ffffffff16565b955061453e8682614caa90919063ffffffff16565b92506145a4565b858210156145535781614555565b855b955061456a8187614caa90919063ffffffff16565b935085821161457a5760006145a1565b6145a060016145928885614caa90919063ffffffff16565b614caa90919063ffffffff16565b5b94505b50509550955095509550959050565b6000806145bf8461350b565b905060006145cd8285613844565b50905060006145e183600284898a8a613a40565b5090508573ffffffffffffffffffffffffffffffffffffffff167fe7c7987373a0cc4913d307f23ab8ef02e0333a2af445065e2ef7636cffc6daa786604051808273ffffffffffffffffffffffffffffffffffffffff16815260200191505060405180910390a280935050505092915050565b60005b600960009054906101000a900473ffffffffffffffffffffffffffffffffffffffff1673ffffffffffffffffffffffffffffffffffffffff166320a05ff76040518163ffffffff1660e01b815260040160206040518083038186803b1580156146bf57600080fd5b505afa1580156146d3573d6000803e3d6000fd5b505050506040513d60208110156146e957600080fd5b8101908080519060200190929190505050811015614ca5576000806000600960009054906101000a900473ffffffffffffffffffffffffffffffffffffffff1673ffffffffffffffffffffffffffffffffffffffff1663af0a650287866040518363ffffffff1660e01b8152600401808373ffffffffffffffffffffffffffffffffffffffff1681526020018281526020019250505060806040518083038186803b15801561479757600080fd5b505afa1580156147ab573d6000803e3d6000fd5b505050506040513d60808110156147c157600080fd5b810190808051906020019092919080519060200190929190805190602001909291908051906020019092919050505050925092509250600a60009054906101000a900473ffffffffffffffffffffffffffffffffffffffff1673ffffffffffffffffffffffffffffffffffffffff168373ffffffffffffffffffffffffffffffffffffffff16141580156148555750600082115b15614c95576000600267ffffffffffffffff8111801561487457600080fd5b506040519080825280602002602001820160405280156148a35781602001602082028036833780820191505090505b50905083816000815181106148b457fe5b602002602001019073ffffffffffffffffffffffffffffffffffffffff16908173ffffffffffffffffffffffffffffffffffffffff1681525050600a60009054906101000a900473ffffffffffffffffffffffffffffffffffffffff168160018151811061491e57fe5b602002602001019073ffffffffffffffffffffffffffffffffffffffff16908173ffffffffffffffffffffffffffffffffffffffff168152505061498587600e60009054906101000a900473ffffffffffffffffffffffffffffffffffffffff1686614128565b60008361499b888561519390919063ffffffff16565b838a4260405160240180868152602001858152602001806020018473ffffffffffffffffffffffffffffffffffffffff168152602001838152602001828103825285818151815260200191508051906020019060200280838360005b83811015614a125780820151818401526020810190506149f7565b5050505090500196505050505050506040516020818303038152906040527f38ed1739000000000000000000000000000000000000000000000000000000007bffffffffffffffffffffffffffffffffffffffffffffffffffffffff19166020820180517bffffffffffffffffffffffffffffffffffffffffffffffffffffffff838183161783525050505090508773ffffffffffffffffffffffffffffffffffffffff16631cff79cd600e60009054906101000a900473ffffffffffffffffffffffffffffffffffffffff16836040518363ffffffff1660e01b8152600401808373ffffffffffffffffffffffffffffffffffffffff16815260200180602001828103825283818151815260200191508051906020019080838360005b83811015614b4b578082015181840152602081019050614b30565b50505050905090810190601f168015614b785780820380516001836020036101000a031916815260200191505b509350505050600060405180830381600087803b158015614b9857600080fd5b505af1158015614bac573d6000803e3d6000fd5b505050506040513d6000823e3d601f19601f820116820180604052506020811015614bd657600080fd5b8101908080516040519392919084640100000000821115614bf657600080fd5b83820191506020820185811115614c0c57600080fd5b8251866001820283011164010000000082111715614c2957600080fd5b8083526020830192505050908051906020019080838360005b83811015614c5d578082015181840152602081019050614c42565b50505050905090810190601f168015614c8a5780820380516001836020036101000a031916815260200191505b506040525050505050505b5050508080600101915050614657565b505050565b600082821115614d22576040517f08c379a000000000000000000000000000000000000000000000000000000000815260040180806020018281038252601e8152602001807f536166654d6174683a207375627472616374696f6e206f766572666c6f77000081525060200191505060405180910390fd5b818303905092915050565b6000849050600c60009054906101000a900473ffffffffffffffffffffffffffffffffffffffff1673ffffffffffffffffffffffffffffffffffffffff168473ffffffffffffffffffffffffffffffffffffffff1614614e33578073ffffffffffffffffffffffffffffffffffffffff1663beabacc88585856040518463ffffffff1660e01b8152600401808473ffffffffffffffffffffffffffffffffffffffff1681526020018373ffffffffffffffffffffffffffffffffffffffff1681526020018281526020019350505050600060405180830381600087803b158015614e1657600080fd5b505af1158015614e2a573d6000803e3d6000fd5b50505050614fa8565b8073ffffffffffffffffffffffffffffffffffffffff1663beabacc885600d60009054906101000a900473ffffffffffffffffffffffffffffffffffffffff16856040518463ffffffff1660e01b8152600401808473ffffffffffffffffffffffffffffffffffffffff1681526020018373ffffffffffffffffffffffffffffffffffffffff1681526020018281526020019350505050600060405180830381600087803b158015614ee457600080fd5b505af1158015614ef8573d6000803e3d6000fd5b50505050600d60009054906101000a900473ffffffffffffffffffffffffffffffffffffffff1673ffffffffffffffffffffffffffffffffffffffff16635869dba884846040518363ffffffff1660e01b8152600401808373ffffffffffffffffffffffffffffffffffffffff16815260200182815260200192505050600060405180830381600087803b158015614f8f57600080fd5b505af1158015614fa3573d6000803e3d6000fd5b505050505b5050505050565b600033905090565b6000615019826040518060400160405280602081526020017f5361666545524332303a206c6f772d6c6576656c2063616c6c206661696c65648152508573ffffffffffffffffffffffffffffffffffffffff166152ee9092919063ffffffff16565b90506000815111156150a15780806020019051602081101561503a57600080fd5b81019080805190602001909291905050506150a0576040517f08c379a000000000000000000000000000000000000000000000000000000000815260040180806020018281038252602a81526020018061597b602a913960400191505060405180910390fd5b5b505050565b60006150cd836150bf848761530690919063ffffffff16565b61547f90919063ffffffff16565b90509392505050565b60008285116150e75782905061518b565b816151615761515c6151166103e86151088787614caa90919063ffffffff16565b61519390919063ffffffff16565b61514e856151406064615132898c614caa90919063ffffffff16565b61519390919063ffffffff16565b6136ad90919063ffffffff16565b6136ad90919063ffffffff16565b615188565b6151878361517960c88861519390919063ffffffff16565b6136ad90919063ffffffff16565b5b90505b949350505050565b6000808314806151a35750600082145b156151b157600090506152e8565b816002612710816151be57fe5b047fffffffffffffffffffffffffffffffffffffffffffffffffffffffffffffffff03816151e857fe5b048311156040518060400160405280600281526020017f4d31000000000000000000000000000000000000000000000000000000000000815250906152c8576040517f08c379a00000000000000000000000000000000000000000000000000000000081526004018080602001828103825283818151815260200191508051906020019080838360005b8381101561528d578082015181840152602081019050615272565b50505050905090810190601f1680156152ba5780820380516001836020036101000a031916815260200191505b509250505060405180910390fd5b506127106002612710816152d857fe5b0483850201816152e457fe5b0490505b92915050565b60606152fd84846000856156ac565b90509392505050565b6000808314806153165750600082145b156153245760009050615479565b8160026b033b2e3c9fd0803ce80000008161533b57fe5b047fffffffffffffffffffffffffffffffffffffffffffffffffffffffffffffffff038161536557fe5b048311156040518060400160405280600281526020017f4d3100000000000000000000000000000000000000000000000000000000000081525090615445576040517f08c379a00000000000000000000000000000000000000000000000000000000081526004018080602001828103825283818151815260200191508051906020019080838360005b8381101561540a5780820151818401526020810190506153ef565b50505050905090810190601f1680156154375780820380516001836020036101000a031916815260200191505b509250505060405180910390fd5b506b033b2e3c9fd0803ce800000060026b033b2e3c9fd0803ce80000008161546957fe5b04838502018161547557fe5b0490505b92915050565b6000808214156040518060400160405280600281526020017f4d3300000000000000000000000000000000000000000000000000000000000081525090615561576040517f08c379a00000000000000000000000000000000000000000000000000000000081526004018080602001828103825283818151815260200191508051906020019080838360005b8381101561552657808201518184015260208101905061550b565b50505050905090810190601f1680156155535780820380516001836020036101000a031916815260200191505b509250505060405180910390fd5b5060006002838161556e57fe5b0490506b033b2e3c9fd0803ce8000000817fffffffffffffffffffffffffffffffffffffffffffffffffffffffffffffffff03816155a857fe5b048411156040518060400160405280600281526020017f4d3100000000000000000000000000000000000000000000000000000000000081525090615688576040517f08c379a00000000000000000000000000000000000000000000000000000000081526004018080602001828103825283818151815260200191508051906020019080838360005b8381101561564d578082015181840152602081019050615632565b50505050905090810190601f16801561567a5780820380516001836020036101000a031916815260200191505b509250505060405180910390fd5b5082816b033b2e3c9fd0803ce8000000860201816156a257fe5b0491505092915050565b606082471015615707576040517f08c379a00000000000000000000000000000000000000000000000000000000081526004018080602001828103825260268152602001806159346026913960400191505060405180910390fd5b61571085615854565b615782576040517f08c379a000000000000000000000000000000000000000000000000000000000815260040180806020018281038252601d8152602001807f416464726573733a2063616c6c20746f206e6f6e2d636f6e747261637400000081525060200191505060405180910390fd5b6000808673ffffffffffffffffffffffffffffffffffffffff1685876040518082805190602001908083835b602083106157d157805182526020820191506020810190506020830392506157ae565b6001836020036101000a03801982511681845116808217855250505050505090500191505060006040518083038185875af1925050503d8060008114615833576040519150601f19603f3d011682016040523d82523d6000602084013e615838565b606091505b5091509150615848828286615867565b92505050949350505050565b600080823b905060008111915050919050565b606083156158775782905061592c565b60008351111561588a5782518084602001fd5b816040517f08c379a00000000000000000000000000000000000000000000000000000000081526004018080602001828103825283818151815260200191508051906020019080838360005b838110156158f15780820151818401526020810190506158d6565b50505050905090810190601f16801561591e5780820380516001836020036101000a031916815260200191505b509250505060405180910390fd5b939250505056fe416464726573733a20696e73756666696369656e742062616c616e636520666f722063616c6c536166654d6174683a206d756c7469706c69636174696f6e206f766572666c6f775361666545524332303a204552433230206f7065726174696f6e20646964206e6f742073756363656564a26469706673582212204b6cc532178d3a191ea866836f4748c30adffe2e57ac03ac962bd47f325a9e9364736f6c63430007060033536166654d6174683a206d756c7469706c69636174696f6e206f766572666c6f77",
  "linkReferences": {},
  "deployedLinkReferences": {}
}