{
  "_format": "hh-sol-artifact-1",
  "contractName": "CreditManager",
  "sourceName": "contracts/credit/CreditManager.sol",
  "abi": [
    {
      "inputs": [
        {
          "internalType": "address",
          "name": "_addressProvider",
          "type": "address"
        },
        {
          "internalType": "uint256",
          "name": "_minAmount",
          "type": "uint256"
        },
        {
          "internalType": "uint256",
          "name": "_maxAmount",
          "type": "uint256"
        },
        {
          "internalType": "uint256",
          "name": "_maxLeverage",
          "type": "uint256"
        },
        {
          "internalType": "address",
          "name": "_poolService",
          "type": "address"
        },
        {
          "internalType": "address",
          "name": "_creditFilterAddress",
          "type": "address"
        },
        {
          "internalType": "address",
          "name": "_defaultSwapContract",
          "type": "address"
        }
      ],
      "stateMutability": "nonpayable",
      "type": "constructor"
    },
    {
      "anonymous": false,
      "inputs": [
        {
          "indexed": true,
          "internalType": "address",
          "name": "onBehalfOf",
          "type": "address"
        },
        {
          "indexed": true,
          "internalType": "address",
          "name": "token",
          "type": "address"
        },
        {
          "indexed": false,
          "internalType": "uint256",
          "name": "value",
          "type": "uint256"
        }
      ],
      "name": "AddCollateral",
      "type": "event"
    },
    {
      "anonymous": false,
      "inputs": [
        {
          "indexed": true,
          "internalType": "address",
          "name": "owner",
          "type": "address"
        },
        {
          "indexed": true,
          "internalType": "address",
          "name": "to",
          "type": "address"
        },
        {
          "indexed": false,
          "internalType": "uint256",
          "name": "remainingFunds",
          "type": "uint256"
        }
      ],
      "name": "CloseCreditAccount",
      "type": "event"
    },
    {
      "anonymous": false,
      "inputs": [
        {
          "indexed": true,
          "internalType": "address",
          "name": "borrower",
          "type": "address"
        },
        {
          "indexed": true,
          "internalType": "address",
          "name": "target",
          "type": "address"
        }
      ],
      "name": "ExecuteOrder",
      "type": "event"
    },
    {
      "anonymous": false,
      "inputs": [
        {
          "indexed": true,
          "internalType": "address",
          "name": "borrower",
          "type": "address"
        },
        {
          "indexed": false,
          "internalType": "uint256",
          "name": "amount",
          "type": "uint256"
        }
      ],
      "name": "IncreaseBorrowedAmount",
      "type": "event"
    },
    {
      "anonymous": false,
      "inputs": [
        {
          "indexed": true,
          "internalType": "address",
          "name": "owner",
          "type": "address"
        },
        {
          "indexed": true,
          "internalType": "address",
          "name": "liquidator",
          "type": "address"
        },
        {
          "indexed": false,
          "internalType": "uint256",
          "name": "remainingFunds",
          "type": "uint256"
        }
      ],
      "name": "LiquidateCreditAccount",
      "type": "event"
    },
    {
      "anonymous": false,
      "inputs": [
        {
          "indexed": false,
          "internalType": "uint256",
          "name": "feeSuccess",
          "type": "uint256"
        },
        {
          "indexed": false,
          "internalType": "uint256",
          "name": "feeInterest",
          "type": "uint256"
        },
        {
          "indexed": false,
          "internalType": "uint256",
          "name": "feeLiquidation",
          "type": "uint256"
        },
        {
          "indexed": false,
          "internalType": "uint256",
          "name": "liquidationDiscount",
          "type": "uint256"
        }
      ],
      "name": "NewFees",
      "type": "event"
    },
    {
      "anonymous": false,
      "inputs": [
        {
          "indexed": false,
          "internalType": "uint256",
          "name": "minAmount",
          "type": "uint256"
        },
        {
          "indexed": false,
          "internalType": "uint256",
          "name": "maxAmount",
          "type": "uint256"
        }
      ],
      "name": "NewLimits",
      "type": "event"
    },
    {
      "anonymous": false,
      "inputs": [
        {
          "indexed": true,
          "internalType": "address",
          "name": "sender",
          "type": "address"
        },
        {
          "indexed": true,
          "internalType": "address",
          "name": "onBehalfOf",
          "type": "address"
        },
        {
          "indexed": true,
          "internalType": "address",
          "name": "creditAccount",
          "type": "address"
        },
        {
          "indexed": false,
          "internalType": "uint256",
          "name": "amount",
          "type": "uint256"
        },
        {
          "indexed": false,
          "internalType": "uint256",
          "name": "borrowAmount",
          "type": "uint256"
        },
        {
          "indexed": false,
          "internalType": "uint256",
          "name": "referralCode",
          "type": "uint256"
        }
      ],
      "name": "OpenCreditAccount",
      "type": "event"
    },
    {
      "anonymous": false,
      "inputs": [
        {
          "indexed": false,
          "internalType": "address",
          "name": "account",
          "type": "address"
        }
      ],
      "name": "Paused",
      "type": "event"
    },
    {
      "anonymous": false,
      "inputs": [
        {
          "indexed": true,
          "internalType": "address",
          "name": "owner",
          "type": "address"
        },
        {
          "indexed": true,
          "internalType": "address",
          "name": "to",
          "type": "address"
        }
      ],
      "name": "RepayCreditAccount",
      "type": "event"
    },
    {
      "anonymous": false,
      "inputs": [
        {
          "indexed": false,
          "internalType": "address",
          "name": "account",
          "type": "address"
        }
      ],
      "name": "Unpaused",
      "type": "event"
    },
    {
      "inputs": [
        {
          "internalType": "address",
          "name": "creditAccount",
          "type": "address"
        },
        {
          "internalType": "uint256",
          "name": "totalValue",
          "type": "uint256"
        },
        {
          "internalType": "bool",
          "name": "isLiquidated",
          "type": "bool"
        }
      ],
      "name": "_calcClosePayments",
      "outputs": [
        {
          "internalType": "uint256",
          "name": "_borrowedAmount",
          "type": "uint256"
        },
        {
          "internalType": "uint256",
          "name": "amountToPool",
          "type": "uint256"
        },
        {
          "internalType": "uint256",
          "name": "remainingFunds",
          "type": "uint256"
        },
        {
          "internalType": "uint256",
          "name": "profit",
          "type": "uint256"
        },
        {
          "internalType": "uint256",
          "name": "loss",
          "type": "uint256"
        }
      ],
      "stateMutability": "view",
      "type": "function"
    },
    {
      "inputs": [
        {
          "internalType": "uint256",
          "name": "totalValue",
          "type": "uint256"
        },
        {
          "internalType": "bool",
          "name": "isLiquidated",
          "type": "bool"
        },
        {
          "internalType": "uint256",
          "name": "borrowedAmount",
          "type": "uint256"
        },
        {
          "internalType": "uint256",
          "name": "cumulativeIndexAtCreditAccountOpen_RAY",
          "type": "uint256"
        },
        {
          "internalType": "uint256",
          "name": "cumulativeIndexNow_RAY",
          "type": "uint256"
        }
      ],
      "name": "_calcClosePaymentsPure",
      "outputs": [
        {
          "internalType": "uint256",
          "name": "_borrowedAmount",
          "type": "uint256"
        },
        {
          "internalType": "uint256",
          "name": "amountToPool",
          "type": "uint256"
        },
        {
          "internalType": "uint256",
          "name": "remainingFunds",
          "type": "uint256"
        },
        {
          "internalType": "uint256",
          "name": "profit",
          "type": "uint256"
        },
        {
          "internalType": "uint256",
          "name": "loss",
          "type": "uint256"
        }
      ],
      "stateMutability": "view",
      "type": "function"
    },
    {
      "inputs": [
        {
          "internalType": "address",
          "name": "onBehalfOf",
          "type": "address"
        },
        {
          "internalType": "address",
          "name": "token",
          "type": "address"
        },
        {
          "internalType": "uint256",
          "name": "amount",
          "type": "uint256"
        }
      ],
      "name": "addCollateral",
      "outputs": [],
      "stateMutability": "nonpayable",
      "type": "function"
    },
    {
      "inputs": [],
      "name": "addressProvider",
      "outputs": [
        {
          "internalType": "contract AddressProvider",
          "name": "",
          "type": "address"
        }
      ],
      "stateMutability": "view",
      "type": "function"
    },
    {
      "inputs": [
        {
          "internalType": "address",
          "name": "borrower",
          "type": "address"
        },
        {
          "internalType": "bool",
          "name": "isLiquidated",
          "type": "bool"
        }
      ],
      "name": "calcRepayAmount",
      "outputs": [
        {
          "internalType": "uint256",
          "name": "",
          "type": "uint256"
        }
      ],
      "stateMutability": "view",
      "type": "function"
    },
    {
      "inputs": [
        {
          "internalType": "address",
          "name": "to",
          "type": "address"
        },
        {
          "internalType": "uint256",
          "name": "amountOutTolerance",
          "type": "uint256"
        }
      ],
      "name": "closeCreditAccount",
      "outputs": [],
      "stateMutability": "nonpayable",
      "type": "function"
    },
    {
      "inputs": [
        {
          "internalType": "address",
          "name": "",
          "type": "address"
        }
      ],
      "name": "creditAccounts",
      "outputs": [
        {
          "internalType": "address",
          "name": "",
          "type": "address"
        }
      ],
      "stateMutability": "view",
      "type": "function"
    },
    {
      "inputs": [],
      "name": "creditFilter",
      "outputs": [
        {
          "internalType": "contract ICreditFilter",
          "name": "",
          "type": "address"
        }
      ],
      "stateMutability": "view",
      "type": "function"
    },
    {
      "inputs": [],
      "name": "defaultSwapContract",
      "outputs": [
        {
          "internalType": "address",
          "name": "",
          "type": "address"
        }
      ],
      "stateMutability": "view",
      "type": "function"
    },
    {
      "inputs": [
        {
          "internalType": "address",
          "name": "borrower",
          "type": "address"
        },
        {
          "internalType": "address",
          "name": "target",
          "type": "address"
        },
        {
          "internalType": "bytes",
          "name": "data",
          "type": "bytes"
        }
      ],
      "name": "executeOrder",
      "outputs": [
        {
          "internalType": "bytes",
          "name": "",
          "type": "bytes"
        }
      ],
      "stateMutability": "nonpayable",
      "type": "function"
    },
    {
      "inputs": [],
      "name": "feeInterest",
      "outputs": [
        {
          "internalType": "uint256",
          "name": "",
          "type": "uint256"
        }
      ],
      "stateMutability": "view",
      "type": "function"
    },
    {
      "inputs": [],
      "name": "feeLiquidation",
      "outputs": [
        {
          "internalType": "uint256",
          "name": "",
          "type": "uint256"
        }
      ],
      "stateMutability": "view",
      "type": "function"
    },
    {
      "inputs": [],
      "name": "feeSuccess",
      "outputs": [
        {
          "internalType": "uint256",
          "name": "",
          "type": "uint256"
        }
      ],
      "stateMutability": "view",
      "type": "function"
    },
    {
      "inputs": [
        {
          "internalType": "address",
          "name": "borrower",
          "type": "address"
        }
      ],
      "name": "getCreditAccountOrRevert",
      "outputs": [
        {
          "internalType": "address",
          "name": "",
          "type": "address"
        }
      ],
      "stateMutability": "view",
      "type": "function"
    },
    {
      "inputs": [
        {
          "internalType": "address",
          "name": "borrower",
          "type": "address"
        }
      ],
      "name": "hasOpenedCreditAccount",
      "outputs": [
        {
          "internalType": "bool",
          "name": "",
          "type": "bool"
        }
      ],
      "stateMutability": "view",
      "type": "function"
    },
    {
      "inputs": [
        {
          "internalType": "uint256",
          "name": "amount",
          "type": "uint256"
        }
      ],
      "name": "increaseBorrowedAmount",
      "outputs": [],
      "stateMutability": "nonpayable",
      "type": "function"
    },
    {
      "inputs": [
        {
          "internalType": "address",
          "name": "borrower",
          "type": "address"
        },
        {
          "internalType": "address",
          "name": "to",
          "type": "address"
        }
      ],
      "name": "liquidateCreditAccount",
      "outputs": [],
      "stateMutability": "nonpayable",
      "type": "function"
    },
    {
      "inputs": [],
      "name": "liquidationDiscount",
      "outputs": [
        {
          "internalType": "uint256",
          "name": "",
          "type": "uint256"
        }
      ],
      "stateMutability": "view",
      "type": "function"
    },
    {
      "inputs": [],
      "name": "maxAmount",
      "outputs": [
        {
          "internalType": "uint256",
          "name": "",
          "type": "uint256"
        }
      ],
      "stateMutability": "view",
      "type": "function"
    },
    {
      "inputs": [],
      "name": "maxLeverageFactor",
      "outputs": [
        {
          "internalType": "uint256",
          "name": "",
          "type": "uint256"
        }
      ],
      "stateMutability": "view",
      "type": "function"
    },
    {
      "inputs": [],
      "name": "minAmount",
      "outputs": [
        {
          "internalType": "uint256",
          "name": "",
          "type": "uint256"
        }
      ],
      "stateMutability": "view",
      "type": "function"
    },
    {
      "inputs": [],
      "name": "minHealthFactor",
      "outputs": [
        {
          "internalType": "uint256",
          "name": "",
          "type": "uint256"
        }
      ],
      "stateMutability": "view",
      "type": "function"
    },
    {
      "inputs": [
        {
          "internalType": "uint256",
          "name": "amount",
          "type": "uint256"
        },
        {
          "internalType": "address payable",
          "name": "onBehalfOf",
          "type": "address"
        },
        {
          "internalType": "uint256",
          "name": "leverageFactor",
          "type": "uint256"
        },
        {
          "internalType": "uint256",
          "name": "referralCode",
          "type": "uint256"
        }
      ],
      "name": "openCreditAccount",
      "outputs": [],
      "stateMutability": "nonpayable",
      "type": "function"
    },
    {
      "inputs": [],
      "name": "pause",
      "outputs": [],
      "stateMutability": "nonpayable",
      "type": "function"
    },
    {
      "inputs": [],
      "name": "paused",
      "outputs": [
        {
          "internalType": "bool",
          "name": "",
          "type": "bool"
        }
      ],
      "stateMutability": "view",
      "type": "function"
    },
    {
      "inputs": [],
      "name": "poolService",
      "outputs": [
        {
          "internalType": "address",
          "name": "",
          "type": "address"
        }
      ],
      "stateMutability": "view",
      "type": "function"
    },
    {
      "inputs": [
        {
          "internalType": "address",
          "name": "creditAccount",
          "type": "address"
        },
        {
          "internalType": "address",
          "name": "toContract",
          "type": "address"
        },
        {
          "internalType": "address",
          "name": "token",
          "type": "address"
        }
      ],
      "name": "provideCreditAccountAllowance",
      "outputs": [],
      "stateMutability": "nonpayable",
      "type": "function"
    },
    {
      "inputs": [
        {
          "internalType": "address",
          "name": "to",
          "type": "address"
        }
      ],
      "name": "repayCreditAccount",
      "outputs": [],
      "stateMutability": "nonpayable",
      "type": "function"
    },
    {
      "inputs": [
        {
          "internalType": "address",
          "name": "borrower",
          "type": "address"
        },
        {
          "internalType": "address",
          "name": "to",
          "type": "address"
        }
      ],
      "name": "repayCreditAccountETH",
      "outputs": [
        {
          "internalType": "uint256",
          "name": "",
          "type": "uint256"
        }
      ],
      "stateMutability": "nonpayable",
      "type": "function"
    },
    {
      "inputs": [
        {
          "internalType": "uint256",
          "name": "_feeSuccess",
          "type": "uint256"
        },
        {
          "internalType": "uint256",
          "name": "_feeInterest",
          "type": "uint256"
        },
        {
          "internalType": "uint256",
          "name": "_feeLiquidation",
          "type": "uint256"
        },
        {
          "internalType": "uint256",
          "name": "_liquidationDiscount",
          "type": "uint256"
        }
      ],
      "name": "setFees",
      "outputs": [],
      "stateMutability": "nonpayable",
      "type": "function"
    },
    {
      "inputs": [
        {
          "internalType": "uint256",
          "name": "newMinAmount",
          "type": "uint256"
        },
        {
          "internalType": "uint256",
          "name": "newMaxAmount",
          "type": "uint256"
        }
      ],
      "name": "setLimits",
      "outputs": [],
      "stateMutability": "nonpayable",
      "type": "function"
    },
    {
      "inputs": [],
      "name": "underlyingToken",
      "outputs": [
        {
          "internalType": "address",
          "name": "",
          "type": "address"
        }
      ],
      "stateMutability": "view",
      "type": "function"
    },
    {
      "inputs": [],
      "name": "unpause",
      "outputs": [],
      "stateMutability": "nonpayable",
      "type": "function"
    },
    {
      "inputs": [],
      "name": "wethAddress",
      "outputs": [
        {
          "internalType": "address",
          "name": "",
          "type": "address"
        }
      ],
      "stateMutability": "view",
      "type": "function"
    },
    {
      "inputs": [],
      "name": "wethGateway",
      "outputs": [
        {
          "internalType": "address",
          "name": "",
          "type": "address"
        }
      ],
      "stateMutability": "view",
      "type": "function"
    }
  ],
  "bytecode": "0x60806040523480156200001157600080fd5b5060405162006dab38038062006dab833981810160405260e08110156200003757600080fd5b81019080805190602001909291908051906020019092919080519060200190929190805190602001909291908051906020019092919080519060200190929190805190602001909291905050508660008060006101000a81548160ff0219169083151502179055508073ffffffffffffffffffffffffffffffffffffffff1663087376956040518163ffffffff1660e01b815260040160206040518083038186803b158015620000e657600080fd5b505afa158015620000fb573d6000803e3d6000fd5b505050506040513d60208110156200011257600080fd5b8101908080519060200190929190505050600060016101000a81548173ffffffffffffffffffffffffffffffffffffffff021916908373ffffffffffffffffffffffffffffffffffffffff160217905550506001808190555086600760006101000a81548173ffffffffffffffffffffffffffffffffffffffff021916908373ffffffffffffffffffffffffffffffffffffffff16021790555082600b60006101000a81548173ffffffffffffffffffffffffffffffffffffffff021916908373ffffffffffffffffffffffffffffffffffffffff1602179055508273ffffffffffffffffffffffffffffffffffffffff16632495a5996040518163ffffffff1660e01b815260040160206040518083038186803b1580156200023457600080fd5b505afa15801562000249573d6000803e3d6000fd5b505050506040513d60208110156200026057600080fd5b8101908080519060200190929190505050600a60006101000a81548173ffffffffffffffffffffffffffffffffffffffff021916908373ffffffffffffffffffffffffffffffffffffffff16021790555081600960006101000a81548173ffffffffffffffffffffffffffffffffffffffff021916908373ffffffffffffffffffffffffffffffffffffffff160217905550600960009054906101000a900473ffffffffffffffffffffffffffffffffffffffff1673ffffffffffffffffffffffffffffffffffffffff1663cf33d955846040518263ffffffff1660e01b8152600401808273ffffffffffffffffffffffffffffffffffffffff168152602001915050600060405180830381600087803b1580156200037e57600080fd5b505af115801562000393573d6000803e3d6000fd5b50505050600760009054906101000a900473ffffffffffffffffffffffffffffffffffffffff1673ffffffffffffffffffffffffffffffffffffffff16634c252f916040518163ffffffff1660e01b815260040160206040518083038186803b1580156200040057600080fd5b505afa15801562000415573d6000803e3d6000fd5b505050506040513d60208110156200042c57600080fd5b8101908080519060200190929190505050600c60006101000a81548173ffffffffffffffffffffffffffffffffffffffff021916908373ffffffffffffffffffffffffffffffffffffffff160217905550600760009054906101000a900473ffffffffffffffffffffffffffffffffffffffff1673ffffffffffffffffffffffffffffffffffffffff166377532ed96040518163ffffffff1660e01b815260040160206040518083038186803b158015620004e657600080fd5b505afa158015620004fb573d6000803e3d6000fd5b505050506040513d60208110156200051257600080fd5b8101908080519060200190929190505050600d60006101000a81548173ffffffffffffffffffffffffffffffffffffffff021916908373ffffffffffffffffffffffffffffffffffffffff16021790555080600e60006101000a81548173ffffffffffffffffffffffffffffffffffffffff021916908373ffffffffffffffffffffffffffffffffffffffff160217905550600760009054906101000a900473ffffffffffffffffffffffffffffffffffffffff1673ffffffffffffffffffffffffffffffffffffffff16639068a8686040518163ffffffff1660e01b815260040160206040518083038186803b1580156200060d57600080fd5b505afa15801562000622573d6000803e3d6000fd5b505050506040513d60208110156200063957600080fd5b8101908080519060200190929190505050600860006101000a81548173ffffffffffffffffffffffffffffffffffffffff021916908373ffffffffffffffffffffffffffffffffffffffff16021790555083600481905550620006ea600454620006d6620006bc606460ff166004546200081160201b62003dcd1790919060201c565b60c861251c036200089a60201b62003e551790919060201c565b6200092560201b62003edb1790919060201c565b600581905550612710600554116040518060400160405280600281526020017f564d00000000000000000000000000000000000000000000000000000000000081525090620007d7576040517f08c379a00000000000000000000000000000000000000000000000000000000081526004018080602001828103825283818151815260200191508051906020019080838360005b838110156200079b5780820151818401526020810190506200077e565b50505050905090810190601f168015620007c95780820380516001836020036101000a031916815260200191505b509250505060405180910390fd5b50620007ea8686620009b060201b60201c565b6200080460646103e860c861251c62000d1b60201b60201c565b50505050505050620010d5565b60008082840190508381101562000890576040517f08c379a000000000000000000000000000000000000000000000000000000000815260040180806020018281038252601b8152602001807f536166654d6174683a206164646974696f6e206f766572666c6f77000000000081525060200191505060405180910390fd5b8091505092915050565b600080831415620008af57600090506200091f565b6000828402905082848281620008c157fe5b04146200091a576040517f08c379a000000000000000000000000000000000000000000000000000000000815260040180806020018281038252602181526020018062006d8a6021913960400191505060405180910390fd5b809150505b92915050565b60008082116200099d576040517f08c379a000000000000000000000000000000000000000000000000000000000815260040180806020018281038252601a8152602001807f536166654d6174683a206469766973696f6e206279207a65726f00000000000081525060200191505060405180910390fd5b818381620009a757fe5b04905092915050565b6002600154141562000a2a576040517f08c379a000000000000000000000000000000000000000000000000000000000815260040180806020018281038252601f8152602001807f5265656e7472616e637947756172643a207265656e7472616e742063616c6c0081525060200191505060405180910390fd5b6002600181905550600060019054906101000a900473ffffffffffffffffffffffffffffffffffffffff1673ffffffffffffffffffffffffffffffffffffffff16635f259aba336040518263ffffffff1660e01b8152600401808273ffffffffffffffffffffffffffffffffffffffff16815260200191505060206040518083038186803b15801562000abc57600080fd5b505afa15801562000ad1573d6000803e3d6000fd5b505050506040513d602081101562000ae857600080fd5b81019080805190602001909291905050506040518060400160405280600281526020017f4c330000000000000000000000000000000000000000000000000000000000008152509062000bd9576040517f08c379a00000000000000000000000000000000000000000000000000000000081526004018080602001828103825283818151815260200191508051906020019080838360005b8381101562000b9d57808201518184015260208101905062000b80565b50505050905090810190601f16801562000bcb5780820380516001836020036101000a031916815260200191505b509250505060405180910390fd5b50808211156040518060400160405280600281526020017f564c0000000000000000000000000000000000000000000000000000000000008152509062000cbe576040517f08c379a00000000000000000000000000000000000000000000000000000000081526004018080602001828103825283818151815260200191508051906020019080838360005b8381101562000c8257808201518184015260208101905062000c65565b50505050905090810190601f16801562000cb05780820380516001836020036101000a031916815260200191505b509250505060405180910390fd5b5081600281905550806003819055507f3ab5703a6b20738ef76e85d32a078f089788a370f76ee3768c70ea8678000cb6600254600354604051808381526020018281526020019250505060405180910390a1600180819055505050565b6002600154141562000d95576040517f08c379a000000000000000000000000000000000000000000000000000000000815260040180806020018281038252601f8152602001807f5265656e7472616e637947756172643a207265656e7472616e742063616c6c0081525060200191505060405180910390fd5b6002600181905550600060019054906101000a900473ffffffffffffffffffffffffffffffffffffffff1673ffffffffffffffffffffffffffffffffffffffff16635f259aba336040518263ffffffff1660e01b8152600401808273ffffffffffffffffffffffffffffffffffffffff16815260200191505060206040518083038186803b15801562000e2757600080fd5b505afa15801562000e3c573d6000803e3d6000fd5b505050506040513d602081101562000e5357600080fd5b81019080805190602001909291905050506040518060400160405280600281526020017f4c330000000000000000000000000000000000000000000000000000000000008152509062000f44576040517f08c379a00000000000000000000000000000000000000000000000000000000081526004018080602001828103825283818151815260200191508051906020019080838360005b8381101562000f0857808201518184015260208101905062000eeb565b50505050905090810190601f16801562000f365780820380516001836020036101000a031916815260200191505b509250505060405180910390fd5b506127108410801562000f58575061271083105b801562000f66575061271082105b801562000f74575061271081105b6040518060400160405280600281526020017f56460000000000000000000000000000000000000000000000000000000000008152509062001054576040517f08c379a00000000000000000000000000000000000000000000000000000000081526004018080602001828103825283818151815260200191508051906020019080838360005b838110156200101857808201518184015260208101905062000ffb565b50505050905090810190601f168015620010465780820380516001836020036101000a031916815260200191505b509250505060405180910390fd5b5083600f819055508260108190555081601181905550806012819055507f4d04452e8f8e3487173479cbe4b1cf0abd62c3079bc54bfcaaff0485f9a68495600f546010546011546012546040518085815260200184815260200183815260200182815260200194505050505060405180910390a16001808190555050505050565b615ca580620010e56000396000f3fe608060405234801561001057600080fd5b50600436106102115760003560e01c80636fcba37711610125578063c4590d3f116100ad578063e0c011b71161007c578063e0c011b714610abe578063e1b4264c14610af2578063e958b70414610b10578063f8dbc6b614610b7e578063f93f515b14610c0657610211565b8063c4590d3f146109c0578063c5e10eef146109f8578063d692ba3314610a2c578063dd33359e14610a7057610211565b80639b2cb5d8116100f45780639b2cb5d8146108c05780639e52f12e146108de5780639efc60d0146108fc578063a6eab5c21461092a578063b2c53a6c146109a257610211565b80636fcba377146107c25780638053fcbe1461080e5780638456cb591461082c578063996329f81461083657610211565b80634f0e0ef3116101a8578063597810341161017757806359781034146105845780635c975abb146105f25780635e0b63d3146106125780635f48f393146106305780636ce4074a1461064e57610211565b80634f0e0ef3146104365780635288ba4b1461046a578063570a7af2146104cc578063579122ab1461050057610211565b80632954018c116101e45780632954018c146103765780633915ffaa146103aa5780633ce07355146103c85780633f4ba83a1461042c57610211565b8063055ee9b5146102165780632495a59914610284578063256ac915146102b857806327b65cef14610312575b600080fd5b6102586004803603602081101561022c57600080fd5b81019080803573ffffffffffffffffffffffffffffffffffffffff169060200190929190505050610c3a565b604051808273ffffffffffffffffffffffffffffffffffffffff16815260200191505060405180910390f35b61028c610c6d565b604051808273ffffffffffffffffffffffffffffffffffffffff16815260200191505060405180910390f35b6102fa600480360360208110156102ce57600080fd5b81019080803573ffffffffffffffffffffffffffffffffffffffff169060200190929190505050610c93565b60405180821515815260200191505060405180910390f35b6103746004803603604081101561032857600080fd5b81019080803573ffffffffffffffffffffffffffffffffffffffff169060200190929190803573ffffffffffffffffffffffffffffffffffffffff169060200190929190505050610d2b565b005b61037e611084565b604051808273ffffffffffffffffffffffffffffffffffffffff16815260200191505060405180910390f35b6103b26110aa565b6040518082815260200191505060405180910390f35b610416600480360360408110156103de57600080fd5b81019080803573ffffffffffffffffffffffffffffffffffffffff1690602001909291908035151590602001909291905050506110b0565b6040518082815260200191505060405180910390f35b6104346111c6565b005b61043e611371565b604051808273ffffffffffffffffffffffffffffffffffffffff16815260200191505060405180910390f35b6104ca6004803603608081101561048057600080fd5b8101908080359060200190929190803573ffffffffffffffffffffffffffffffffffffffff1690602001909291908035906020019092919080359060200190929190505050611397565b005b6104d4611c1c565b604051808273ffffffffffffffffffffffffffffffffffffffff16815260200191505060405180910390f35b6105826004803603606081101561051657600080fd5b81019080803573ffffffffffffffffffffffffffffffffffffffff169060200190929190803573ffffffffffffffffffffffffffffffffffffffff169060200190929190803573ffffffffffffffffffffffffffffffffffffffff169060200190929190505050611c42565b005b6105f06004803603606081101561059a57600080fd5b81019080803573ffffffffffffffffffffffffffffffffffffffff169060200190929190803573ffffffffffffffffffffffffffffffffffffffff16906020019092919080359060200190929190505050611df6565b005b6105fa61205f565b60405180821515815260200191505060405180910390f35b61061a612075565b6040518082815260200191505060405180910390f35b61063861207b565b6040518082815260200191505060405180910390f35b6107476004803603606081101561066457600080fd5b81019080803573ffffffffffffffffffffffffffffffffffffffff169060200190929190803573ffffffffffffffffffffffffffffffffffffffff169060200190929190803590602001906401000000008111156106c157600080fd5b8201836020820111156106d357600080fd5b803590602001918460018302840111640100000000831117156106f557600080fd5b91908080601f016020809104026020016040519081016040528093929190818152602001838380828437600081840152601f19601f820116905080830192505050505050509192919290505050612081565b6040518080602001828103825283818151815260200191508051906020019080838360005b8381101561078757808201518184015260208101905061076c565b50505050905090810190601f1680156107b45780820380516001836020036101000a031916815260200191505b509250505060405180910390f35b61080c600480360360808110156107d857600080fd5b810190808035906020019092919080359060200190929190803590602001909291908035906020019092919050505061246d565b005b610816612818565b6040518082815260200191505060405180910390f35b61083461281e565b005b61088e6004803603606081101561084c57600080fd5b81019080803573ffffffffffffffffffffffffffffffffffffffff169060200190929190803590602001909291908035151590602001909291905050506129c9565b604051808681526020018581526020018481526020018381526020018281526020019550505050505060405180910390f35b6108c8612aa7565b6040518082815260200191505060405180910390f35b6108e6612aad565b6040518082815260200191505060405180910390f35b6109286004803603602081101561091257600080fd5b8101908080359060200190929190505050612ab3565b005b61098c6004803603604081101561094057600080fd5b81019080803573ffffffffffffffffffffffffffffffffffffffff169060200190929190803573ffffffffffffffffffffffffffffffffffffffff169060200190929190505050613104565b6040518082815260200191505060405180910390f35b6109aa613349565b6040518082815260200191505060405180910390f35b6109f6600480360360408110156109d657600080fd5b81019080803590602001909291908035906020019092919050505061334f565b005b610a006136ae565b604051808273ffffffffffffffffffffffffffffffffffffffff16815260200191505060405180910390f35b610a6e60048036036020811015610a4257600080fd5b81019080803573ffffffffffffffffffffffffffffffffffffffff1690602001909291905050506136d4565b005b610abc60048036036040811015610a8657600080fd5b81019080803573ffffffffffffffffffffffffffffffffffffffff169060200190929190803590602001909291905050506137e5565b005b610ac6613a48565b604051808273ffffffffffffffffffffffffffffffffffffffff16815260200191505060405180910390f35b610afa613a6e565b6040518082815260200191505060405180910390f35b610b5260048036036020811015610b2657600080fd5b81019080803573ffffffffffffffffffffffffffffffffffffffff169060200190929190505050613a74565b604051808273ffffffffffffffffffffffffffffffffffffffff16815260200191505060405180910390f35b610bd4600480360360a0811015610b9457600080fd5b8101908080359060200190929190803515159060200190929190803590602001909291908035906020019092919080359060200190929190505050613bf0565b604051808681526020018581526020018481526020018381526020018281526020019550505050505060405180910390f35b610c0e613da7565b604051808273ffffffffffffffffffffffffffffffffffffffff16815260200191505060405180910390f35b60066020528060005260406000206000915054906101000a900473ffffffffffffffffffffffffffffffffffffffff1681565b600a60009054906101000a900473ffffffffffffffffffffffffffffffffffffffff1681565b60008073ffffffffffffffffffffffffffffffffffffffff16600660008473ffffffffffffffffffffffffffffffffffffffff1673ffffffffffffffffffffffffffffffffffffffff16815260200190815260200160002060009054906101000a900473ffffffffffffffffffffffffffffffffffffffff1673ffffffffffffffffffffffffffffffffffffffff1614159050919050565b610d3361205f565b15610da6576040517f08c379a00000000000000000000000000000000000000000000000000000000081526004018080602001828103825260108152602001807f5061757361626c653a207061757365640000000000000000000000000000000081525060200191505060405180910390fd5b60026001541415610e1f576040517f08c379a000000000000000000000000000000000000000000000000000000000815260040180806020018281038252601f8152602001807f5265656e7472616e637947756172643a207265656e7472616e742063616c6c0081525060200191505060405180910390fd5b60026001819055506000610e3283613a74565b9050600080610e418385613f64565b91509150610f1d612710600960009054906101000a900473ffffffffffffffffffffffffffffffffffffffff1673ffffffffffffffffffffffffffffffffffffffff16633192195c866040518263ffffffff1660e01b8152600401808273ffffffffffffffffffffffffffffffffffffffff16815260200191505060206040518083038186803b158015610ed457600080fd5b505afa158015610ee8573d6000803e3d6000fd5b505050506040513d6020811015610efe57600080fd5b8101908080519060200190929190505050613e5590919063ffffffff16565b81106040518060400160405280600281526020017f563900000000000000000000000000000000000000000000000000000000000081525090610ffb576040517f08c379a00000000000000000000000000000000000000000000000000000000081526004018080602001828103825283818151815260200191508051906020019080838360005b83811015610fc0578082015181840152602081019050610fa5565b50505050905090810190601f168015610fed5780820380516001836020036101000a031916815260200191505b509250505060405180910390fd5b50600061100d8460038589338a61423e565b9150503373ffffffffffffffffffffffffffffffffffffffff168673ffffffffffffffffffffffffffffffffffffffff167f5e5da6c348e62989f9cfe029252433fc99009b7d28fa3c20d675520a10ff5896836040518082815260200191505060405180910390a350505050600180819055505050565b600760009054906101000a900473ffffffffffffffffffffffffffffffffffffffff1681565b60115481565b6000806110bc84613a74565b90506000600960009054906101000a900473ffffffffffffffffffffffffffffffffffffffff1673ffffffffffffffffffffffffffffffffffffffff1663c7de38a6836040518263ffffffff1660e01b8152600401808273ffffffffffffffffffffffffffffffffffffffff16815260200191505060206040518083038186803b15801561114957600080fd5b505afa15801561115d573d6000803e3d6000fd5b505050506040513d602081101561117357600080fd5b810190808051906020019092919050505090506000806111948484886129c9565b50509250925050856111a657816111ba565b6111b98183613dcd90919063ffffffff16565b5b94505050505092915050565b600060019054906101000a900473ffffffffffffffffffffffffffffffffffffffff1673ffffffffffffffffffffffffffffffffffffffff1663d4eb5db0336040518263ffffffff1660e01b8152600401808273ffffffffffffffffffffffffffffffffffffffff16815260200191505060206040518083038186803b15801561124f57600080fd5b505afa158015611263573d6000803e3d6000fd5b505050506040513d602081101561127957600080fd5b81019080805190602001909291905050506040518060400160405280600281526020017f4c3100000000000000000000000000000000000000000000000000000000000081525090611366576040517f08c379a00000000000000000000000000000000000000000000000000000000081526004018080602001828103825283818151815260200191508051906020019080838360005b8381101561132b578082015181840152602081019050611310565b50505050905090810190601f1680156113585780820380516001836020036101000a031916815260200191505b509250505060405180910390fd5b5061136f61477b565b565b600c60009054906101000a900473ffffffffffffffffffffffffffffffffffffffff1681565b61139f61205f565b15611412576040517f08c379a00000000000000000000000000000000000000000000000000000000081526004018080602001828103825260108152602001807f5061757361626c653a207061757365640000000000000000000000000000000081525060200191505060405180910390fd5b6002600154141561148b576040517f08c379a000000000000000000000000000000000000000000000000000000000815260040180806020018281038252601f8152602001807f5265656e7472616e637947756172643a207265656e7472616e742063616c6c0081525060200191505060405180910390fd5b600260018190555060025484101580156114a757506003548411155b6040518060400160405280600281526020017f563300000000000000000000000000000000000000000000000000000000000081525090611583576040517f08c379a00000000000000000000000000000000000000000000000000000000081526004018080602001828103825283818151815260200191508051906020019080838360005b8381101561154857808201518184015260208101905061152d565b50505050905090810190601f1680156115755780820380516001836020036101000a031916815260200191505b509250505060405180910390fd5b5061158d83610c93565b156040518060400160405280600281526020017f56320000000000000000000000000000000000000000000000000000000000008152509061166a576040517f08c379a00000000000000000000000000000000000000000000000000000000081526004018080602001828103825283818151815260200191508051906020019080838360005b8381101561162f578082015181840152602081019050611614565b50505050905090810190601f16801561165c5780820380516001836020036101000a031916815260200191505b509250505060405180910390fd5b5060008211801561167d57506004548211155b6040518060400160405280600281526020017f563400000000000000000000000000000000000000000000000000000000000081525090611759576040517f08c379a00000000000000000000000000000000000000000000000000000000081526004018080602001828103825283818151815260200191508051906020019080838360005b8381101561171e578082015181840152602081019050611703565b50505050905090810190601f16801561174b5780820380516001836020036101000a031916815260200191505b509250505060405180910390fd5b506000611785606460ff166117778588613e5590919063ffffffff16565b613edb90919063ffffffff16565b90506000600860009054906101000a900473ffffffffffffffffffffffffffffffffffffffff1673ffffffffffffffffffffffffffffffffffffffff16634ef96db1866040518263ffffffff1660e01b8152600401808273ffffffffffffffffffffffffffffffffffffffff168152602001915050602060405180830381600087803b15801561181457600080fd5b505af1158015611828573d6000803e3d6000fd5b505050506040513d602081101561183e57600080fd5b81019080805190602001909291905050509050600960009054906101000a900473ffffffffffffffffffffffffffffffffffffffff1673ffffffffffffffffffffffffffffffffffffffff1663e54fe9c8826040518263ffffffff1660e01b8152600401808273ffffffffffffffffffffffffffffffffffffffff168152602001915050600060405180830381600087803b1580156118dc57600080fd5b505af11580156118f0573d6000803e3d6000fd5b50505050600b60009054906101000a900473ffffffffffffffffffffffffffffffffffffffff1673ffffffffffffffffffffffffffffffffffffffff1663bf28068b83836040518363ffffffff1660e01b8152600401808381526020018273ffffffffffffffffffffffffffffffffffffffff16815260200192505050600060405180830381600087803b15801561198757600080fd5b505af115801561199b573d6000803e3d6000fd5b505050506119ee338288600a60009054906101000a900473ffffffffffffffffffffffffffffffffffffffff1673ffffffffffffffffffffffffffffffffffffffff16614865909392919063ffffffff16565b8073ffffffffffffffffffffffffffffffffffffffff1663abaf48f583600b60009054906101000a900473ffffffffffffffffffffffffffffffffffffffff1673ffffffffffffffffffffffffffffffffffffffff16630fce70fb6040518163ffffffff1660e01b815260040160206040518083038186803b158015611a7357600080fd5b505afa158015611a87573d6000803e3d6000fd5b505050506040513d6020811015611a9d57600080fd5b81019080805190602001909291905050506040518363ffffffff1660e01b81526004018083815260200182815260200192505050600060405180830381600087803b158015611aeb57600080fd5b505af1158015611aff573d6000803e3d6000fd5b5050505080600660008773ffffffffffffffffffffffffffffffffffffffff1673ffffffffffffffffffffffffffffffffffffffff16815260200190815260200160002060006101000a81548173ffffffffffffffffffffffffffffffffffffffff021916908373ffffffffffffffffffffffffffffffffffffffff1602179055508073ffffffffffffffffffffffffffffffffffffffff168573ffffffffffffffffffffffffffffffffffffffff163373ffffffffffffffffffffffffffffffffffffffff167f7b20ae77867a263a1074203a2da261ef0d096c99395c59c9d4a0104b9f334a2789868860405180848152602001838152602001828152602001935050505060405180910390a450506001808190555050505050565b600b60009054906101000a900473ffffffffffffffffffffffffffffffffffffffff1681565b600960009054906101000a900473ffffffffffffffffffffffffffffffffffffffff1673ffffffffffffffffffffffffffffffffffffffff16638deb3beb336040518263ffffffff1660e01b8152600401808273ffffffffffffffffffffffffffffffffffffffff16815260200191505060006040518083038186803b158015611ccb57600080fd5b505afa158015611cdf573d6000803e3d6000fd5b50505050611ceb61205f565b15611d5e576040517f08c379a00000000000000000000000000000000000000000000000000000000081526004018080602001828103825260108152602001807f5061757361626c653a207061757365640000000000000000000000000000000081525060200191505060405180910390fd5b60026001541415611dd7576040517f08c379a000000000000000000000000000000000000000000000000000000000815260040180806020018281038252601f8152602001807f5265656e7472616e637947756172643a207265656e7472616e742063616c6c0081525060200191505060405180910390fd5b6002600181905550611dea838383614926565b60018081905550505050565b611dfe61205f565b15611e71576040517f08c379a00000000000000000000000000000000000000000000000000000000081526004018080602001828103825260108152602001807f5061757361626c653a207061757365640000000000000000000000000000000081525060200191505060405180910390fd5b60026001541415611eea576040517f08c379a000000000000000000000000000000000000000000000000000000000815260040180806020018281038252601f8152602001807f5265656e7472616e637947756172643a207265656e7472616e742063616c6c0081525060200191505060405180910390fd5b60026001819055506000611efd84613a74565b9050600960009054906101000a900473ffffffffffffffffffffffffffffffffffffffff1673ffffffffffffffffffffffffffffffffffffffff166351e3f16082856040518363ffffffff1660e01b8152600401808373ffffffffffffffffffffffffffffffffffffffff1681526020018273ffffffffffffffffffffffffffffffffffffffff16815260200192505050600060405180830381600087803b158015611fa857600080fd5b505af1158015611fbc573d6000803e3d6000fd5b50505050611fed3382848673ffffffffffffffffffffffffffffffffffffffff16614865909392919063ffffffff16565b8273ffffffffffffffffffffffffffffffffffffffff168473ffffffffffffffffffffffffffffffffffffffff167fa32435755c235de2976ed44a75a2f85cb01faf0c894f639fe0c32bb9455fea8f846040518082815260200191505060405180910390a35060018081905550505050565b60008060009054906101000a900460ff16905090565b60105481565b60035481565b6060600960009054906101000a900473ffffffffffffffffffffffffffffffffffffffff1673ffffffffffffffffffffffffffffffffffffffff16638deb3beb336040518263ffffffff1660e01b8152600401808273ffffffffffffffffffffffffffffffffffffffff16815260200191505060006040518083038186803b15801561210c57600080fd5b505afa158015612120573d6000803e3d6000fd5b5050505061212c61205f565b1561219f576040517f08c379a00000000000000000000000000000000000000000000000000000000081526004018080602001828103825260108152602001807f5061757361626c653a207061757365640000000000000000000000000000000081525060200191505060405180910390fd5b60026001541415612218576040517f08c379a000000000000000000000000000000000000000000000000000000000815260040180806020018281038252601f8152602001807f5265656e7472616e637947756172643a207265656e7472616e742063616c6c0081525060200191505060405180910390fd5b6002600181905550600061222b85613a74565b905060008173ffffffffffffffffffffffffffffffffffffffff16631cff79cd86866040518363ffffffff1660e01b8152600401808373ffffffffffffffffffffffffffffffffffffffff16815260200180602001828103825283818151815260200191508051906020019080838360005b838110156122b857808201518184015260208101905061229d565b50505050905090810190601f1680156122e55780820380516001836020036101000a031916815260200191505b509350505050600060405180830381600087803b15801561230557600080fd5b505af1158015612319573d6000803e3d6000fd5b505050506040513d6000823e3d601f19601f82011682018060405250602081101561234357600080fd5b810190808051604051939291908464010000000082111561236357600080fd5b8382019150602082018581111561237957600080fd5b825186600182028301116401000000008211171561239657600080fd5b8083526020830192505050908051906020019080838360005b838110156123ca5780820151818401526020810190506123af565b50505050905090810190601f1680156123f75780820380516001836020036101000a031916815260200191505b5060405250505090508473ffffffffffffffffffffffffffffffffffffffff168673ffffffffffffffffffffffffffffffffffffffff167faed1eb34af6acd8c1e3911fb2ebb875a66324b03957886bd002227b17f52ab0360405160405180910390a38092505050600180819055509392505050565b600260015414156124e6576040517f08c379a000000000000000000000000000000000000000000000000000000000815260040180806020018281038252601f8152602001807f5265656e7472616e637947756172643a207265656e7472616e742063616c6c0081525060200191505060405180910390fd5b6002600181905550600060019054906101000a900473ffffffffffffffffffffffffffffffffffffffff1673ffffffffffffffffffffffffffffffffffffffff16635f259aba336040518263ffffffff1660e01b8152600401808273ffffffffffffffffffffffffffffffffffffffff16815260200191505060206040518083038186803b15801561257757600080fd5b505afa15801561258b573d6000803e3d6000fd5b505050506040513d60208110156125a157600080fd5b81019080805190602001909291905050506040518060400160405280600281526020017f4c330000000000000000000000000000000000000000000000000000000000008152509061268e576040517f08c379a00000000000000000000000000000000000000000000000000000000081526004018080602001828103825283818151815260200191508051906020019080838360005b83811015612653578082015181840152602081019050612638565b50505050905090810190601f1680156126805780820380516001836020036101000a031916815260200191505b509250505060405180910390fd5b50612710841080156126a1575061271083105b80156126ae575061271082105b80156126bb575061271081105b6040518060400160405280600281526020017f564600000000000000000000000000000000000000000000000000000000000081525090612797576040517f08c379a00000000000000000000000000000000000000000000000000000000081526004018080602001828103825283818151815260200191508051906020019080838360005b8381101561275c578082015181840152602081019050612741565b50505050905090810190601f1680156127895780820380516001836020036101000a031916815260200191505b509250505060405180910390fd5b5083600f819055508260108190555081601181905550806012819055507f4d04452e8f8e3487173479cbe4b1cf0abd62c3079bc54bfcaaff0485f9a68495600f546010546011546012546040518085815260200184815260200183815260200182815260200194505050505060405180910390a16001808190555050505050565b60125481565b600060019054906101000a900473ffffffffffffffffffffffffffffffffffffffff1673ffffffffffffffffffffffffffffffffffffffff16633a41ec64336040518263ffffffff1660e01b8152600401808273ffffffffffffffffffffffffffffffffffffffff16815260200191505060206040518083038186803b1580156128a757600080fd5b505afa1580156128bb573d6000803e3d6000fd5b505050506040513d60208110156128d157600080fd5b81019080805190602001909291905050506040518060400160405280600281526020017f4c31000000000000000000000000000000000000000000000000000000000000815250906129be576040517f08c379a00000000000000000000000000000000000000000000000000000000081526004018080602001828103825283818151815260200191508051906020019080838360005b83811015612983578082015181840152602081019050612968565b50505050905090810190601f1680156129b05780820380516001836020036101000a031916815260200191505b509250505060405180910390fd5b506129c7614ab2565b565b60008060008060008060006129dd8a614b9d565b91509150612a9089898484600b60009054906101000a900473ffffffffffffffffffffffffffffffffffffffff1673ffffffffffffffffffffffffffffffffffffffff16630fce70fb6040518163ffffffff1660e01b815260040160206040518083038186803b158015612a5057600080fd5b505afa158015612a64573d6000803e3d6000fd5b505050506040513d6020811015612a7a57600080fd5b8101908080519060200190929190505050613bf0565b965096509650965096505050939792965093509350565b60025481565b600f5481565b612abb61205f565b15612b2e576040517f08c379a00000000000000000000000000000000000000000000000000000000081526004018080602001828103825260108152602001807f5061757361626c653a207061757365640000000000000000000000000000000081525060200191505060405180910390fd5b60026001541415612ba7576040517f08c379a000000000000000000000000000000000000000000000000000000000815260040180806020018281038252601f8152602001807f5265656e7472616e637947756172643a207265656e7472616e742063616c6c0081525060200191505060405180910390fd5b6002600181905550612bb833610c93565b6040518060400160405280600281526020017f563100000000000000000000000000000000000000000000000000000000000081525090612c94576040517f08c379a00000000000000000000000000000000000000000000000000000000081526004018080602001828103825283818151815260200191508051906020019080838360005b83811015612c59578082015181840152602081019050612c3e565b50505050905090810190601f168015612c865780820380516001836020036101000a031916815260200191505b509250505060405180910390fd5b506000600660003373ffffffffffffffffffffffffffffffffffffffff1673ffffffffffffffffffffffffffffffffffffffff16815260200190815260200160002060009054906101000a900473ffffffffffffffffffffffffffffffffffffffff169050600080612d0583614b9d565b915091506000612dd2600b60009054906101000a900473ffffffffffffffffffffffffffffffffffffffff1673ffffffffffffffffffffffffffffffffffffffff16630fce70fb6040518163ffffffff1660e01b815260040160206040518083038186803b158015612d7657600080fd5b505afa158015612d8a573d6000803e3d6000fd5b505050506040513d6020811015612da057600080fd5b8101908080519060200190929190505050612dc48488613e5590919063ffffffff16565b613edb90919063ffffffff16565b9050600b60009054906101000a900473ffffffffffffffffffffffffffffffffffffffff1673ffffffffffffffffffffffffffffffffffffffff1663bf28068b86866040518363ffffffff1660e01b8152600401808381526020018273ffffffffffffffffffffffffffffffffffffffff16815260200192505050600060405180830381600087803b158015612e6757600080fd5b505af1158015612e7b573d6000803e3d6000fd5b505050508373ffffffffffffffffffffffffffffffffffffffff166377904813612eae8386613dcd90919063ffffffff16565b6040518263ffffffff1660e01b815260040180828152602001915050600060405180830381600087803b158015612ee457600080fd5b505af1158015612ef8573d6000803e3d6000fd5b505050506000600960009054906101000a900473ffffffffffffffffffffffffffffffffffffffff1673ffffffffffffffffffffffffffffffffffffffff1663dfd59465866040518263ffffffff1660e01b8152600401808273ffffffffffffffffffffffffffffffffffffffff16815260200191505060206040518083038186803b158015612f8757600080fd5b505afa158015612f9b573d6000803e3d6000fd5b505050506040513d6020811015612fb157600080fd5b810190808051906020019092919050505090506005548110156040518060400160405280600281526020017f5641000000000000000000000000000000000000000000000000000000000000815250906130a6576040517f08c379a00000000000000000000000000000000000000000000000000000000081526004018080602001828103825283818151815260200191508051906020019080838360005b8381101561306b578082015181840152602081019050613050565b50505050905090810190601f1680156130985780820380516001836020036101000a031916815260200191505b509250505060405180910390fd5b503373ffffffffffffffffffffffffffffffffffffffff167f9cac51154cc0d835e2f9c9d1f59a9344588cee107f4203bf58a8c797e3a58c45876040518082815260200191505060405180910390a250505050506001808190555050565b600061310e61205f565b15613181576040517f08c379a00000000000000000000000000000000000000000000000000000000081526004018080602001828103825260108152602001807f5061757361626c653a207061757365640000000000000000000000000000000081525060200191505060405180910390fd5b600260015414156131fa576040517f08c379a000000000000000000000000000000000000000000000000000000000815260040180806020018281038252601f8152602001807f5265656e7472616e637947756172643a207265656e7472616e742063616c6c0081525060200191505060405180910390fd5b6002600181905550600d60009054906101000a900473ffffffffffffffffffffffffffffffffffffffff1673ffffffffffffffffffffffffffffffffffffffff163373ffffffffffffffffffffffffffffffffffffffff16146040518060400160405280600281526020017f56470000000000000000000000000000000000000000000000000000000000008152509061332f576040517f08c379a00000000000000000000000000000000000000000000000000000000081526004018080602001828103825283818151815260200191508051906020019080838360005b838110156132f45780820151818401526020810190506132d9565b50505050905090810190601f1680156133215780820380516001836020036101000a031916815260200191505b509250505060405180910390fd5b5061333a8383614cab565b90506001808190555092915050565b60045481565b600260015414156133c8576040517f08c379a000000000000000000000000000000000000000000000000000000000815260040180806020018281038252601f8152602001807f5265656e7472616e637947756172643a207265656e7472616e742063616c6c0081525060200191505060405180910390fd5b6002600181905550600060019054906101000a900473ffffffffffffffffffffffffffffffffffffffff1673ffffffffffffffffffffffffffffffffffffffff16635f259aba336040518263ffffffff1660e01b8152600401808273ffffffffffffffffffffffffffffffffffffffff16815260200191505060206040518083038186803b15801561345957600080fd5b505afa15801561346d573d6000803e3d6000fd5b505050506040513d602081101561348357600080fd5b81019080805190602001909291905050506040518060400160405280600281526020017f4c3300000000000000000000000000000000000000000000000000000000000081525090613570576040517f08c379a00000000000000000000000000000000000000000000000000000000081526004018080602001828103825283818151815260200191508051906020019080838360005b8381101561353557808201518184015260208101905061351a565b50505050905090810190601f1680156135625780820380516001836020036101000a031916815260200191505b509250505060405180910390fd5b50808211156040518060400160405280600281526020017f564c00000000000000000000000000000000000000000000000000000000000081525090613651576040517f08c379a00000000000000000000000000000000000000000000000000000000081526004018080602001828103825283818151815260200191508051906020019080838360005b838110156136165780820151818401526020810190506135fb565b50505050905090810190601f1680156136435780820380516001836020036101000a031916815260200191505b509250505060405180910390fd5b5081600281905550806003819055507f3ab5703a6b20738ef76e85d32a078f089788a370f76ee3768c70ea8678000cb6600254600354604051808381526020018281526020019250505060405180910390a1600180819055505050565b600d60009054906101000a900473ffffffffffffffffffffffffffffffffffffffff1681565b6136dc61205f565b1561374f576040517f08c379a00000000000000000000000000000000000000000000000000000000081526004018080602001828103825260108152602001807f5061757361626c653a207061757365640000000000000000000000000000000081525060200191505060405180910390fd5b600260015414156137c8576040517f08c379a000000000000000000000000000000000000000000000000000000000815260040180806020018281038252601f8152602001807f5265656e7472616e637947756172643a207265656e7472616e742063616c6c0081525060200191505060405180910390fd5b60026001819055506137da3382614cab565b506001808190555050565b6137ed61205f565b15613860576040517f08c379a00000000000000000000000000000000000000000000000000000000081526004018080602001828103825260108152602001807f5061757361626c653a207061757365640000000000000000000000000000000081525060200191505060405180910390fd5b600260015414156138d9576040517f08c379a000000000000000000000000000000000000000000000000000000000815260040180806020018281038252601f8152602001807f5265656e7472616e637947756172643a207265656e7472616e742063616c6c0081525060200191505060405180910390fd5b600260018190555060006138ec33613a74565b90506138f88183614d42565b6000600a60009054906101000a900473ffffffffffffffffffffffffffffffffffffffff1673ffffffffffffffffffffffffffffffffffffffff166370a08231836040518263ffffffff1660e01b8152600401808273ffffffffffffffffffffffffffffffffffffffff16815260200191505060206040518083038186803b15801561398357600080fd5b505afa158015613997573d6000803e3d6000fd5b505050506040513d60208110156139ad57600080fd5b8101908080519060200190929190505050905060006139d2836001843360008a61423e565b9150508473ffffffffffffffffffffffffffffffffffffffff163373ffffffffffffffffffffffffffffffffffffffff167fca05b632388199c23de1352b2e96fd72a0ec71611683330b38060c004bbf0a76836040518082815260200191505060405180910390a3505050600180819055505050565b600e60009054906101000a900473ffffffffffffffffffffffffffffffffffffffff1681565b60055481565b600080600660008473ffffffffffffffffffffffffffffffffffffffff1673ffffffffffffffffffffffffffffffffffffffff16815260200190815260200160002060009054906101000a900473ffffffffffffffffffffffffffffffffffffffff169050600073ffffffffffffffffffffffffffffffffffffffff168173ffffffffffffffffffffffffffffffffffffffff1614156040518060400160405280600281526020017f563100000000000000000000000000000000000000000000000000000000000081525090613be6576040517f08c379a00000000000000000000000000000000000000000000000000000000081526004018080602001828103825283818151815260200191508051906020019080838360005b83811015613bab578082015181840152602081019050613b90565b50505050905090810190601f168015613bd85780820380516001836020036101000a031916815260200191505b509250505060405180910390fd5b5080915050919050565b60008060008060008089613c04578a613c2e565b613c2d612710613c1f6012548e613e5590919063ffffffff16565b613edb90919063ffffffff16565b5b90508895506000613c5a89613c4c8a8d613e5590919063ffffffff16565b613edb90919063ffffffff16565b905080821015613c9457613c7860018361540890919063ffffffff16565b9550613c8d868261540890919063ffffffff16565b9250613d98565b8a613d0f57613d0a613cc3601054613cb58d8561540890919063ffffffff16565b61548b90919063ffffffff16565b613cfc83613cee600f54613ce0878961540890919063ffffffff16565b61548b90919063ffffffff16565b613dcd90919063ffffffff16565b613dcd90919063ffffffff16565b613d37565b613d3681613d286011548561548b90919063ffffffff16565b613dcd90919063ffffffff16565b5b955085821015613d475781613d49565b855b9550613d5e818761540890919063ffffffff16565b9350858211613d6e576000613d95565b613d946001613d86888561540890919063ffffffff16565b61540890919063ffffffff16565b5b94505b50509550955095509550959050565b600960009054906101000a900473ffffffffffffffffffffffffffffffffffffffff1681565b600080828401905083811015613e4b576040517f08c379a000000000000000000000000000000000000000000000000000000000815260040180806020018281038252601b8152602001807f536166654d6174683a206164646974696f6e206f766572666c6f77000000000081525060200191505060405180910390fd5b8091505092915050565b600080831415613e685760009050613ed5565b6000828402905082848281613e7957fe5b0414613ed0576040517f08c379a0000000000000000000000000000000000000000000000000000000008152600401808060200182810382526021815260200180615c256021913960400191505060405180910390fd5b809150505b92915050565b6000808211613f52576040517f08c379a000000000000000000000000000000000000000000000000000000000815260040180806020018281038252601a8152602001807f536166654d6174683a206469766973696f6e206279207a65726f00000000000081525060200191505060405180910390fd5b818381613f5b57fe5b04905092915050565b6000806000915060009050600080600960009054906101000a900473ffffffffffffffffffffffffffffffffffffffff1673ffffffffffffffffffffffffffffffffffffffff1663b451cecc876040518263ffffffff1660e01b8152600401808273ffffffffffffffffffffffffffffffffffffffff16815260200191505060206040518083038186803b158015613ffb57600080fd5b505afa15801561400f573d6000803e3d6000fd5b505050506040513d602081101561402557600080fd5b8101908080519060200190929190505050905060005b600960009054906101000a900473ffffffffffffffffffffffffffffffffffffffff1673ffffffffffffffffffffffffffffffffffffffff166320a05ff76040518163ffffffff1660e01b815260040160206040518083038186803b1580156140a357600080fd5b505afa1580156140b7573d6000803e3d6000fd5b505050506040513d60208110156140cd57600080fd5b810190808051906020019092919050505081101561423457806001901b92506000838316111561422757600080600080600960009054906101000a900473ffffffffffffffffffffffffffffffffffffffff1673ffffffffffffffffffffffffffffffffffffffff1663af0a65028c876040518363ffffffff1660e01b8152600401808373ffffffffffffffffffffffffffffffffffffffff1681526020018281526020019250505060806040518083038186803b15801561418e57600080fd5b505afa1580156141a2573d6000803e3d6000fd5b505050506040513d60808110156141b857600080fd5b810190808051906020019092919080519060200190929190805190602001909291908051906020019092919050505093509350935093506001831115614222576142178b858c61421260018861540890919063ffffffff16565b6155e6565b818901985080880197505b505050505b808060010191505061403b565b5050509250929050565b6000806000600360ff168860ff1614905060008060008060006142628e8d886129c9565b94509450945094509450600160ff168d60ff16141561447b578d73ffffffffffffffffffffffffffffffffffffffff1663beabacc8600a60009054906101000a900473ffffffffffffffffffffffffffffffffffffffff16600b60009054906101000a900473ffffffffffffffffffffffffffffffffffffffff16876040518463ffffffff1660e01b8152600401808473ffffffffffffffffffffffffffffffffffffffff1681526020018373ffffffffffffffffffffffffffffffffffffffff1681526020018281526020019350505050600060405180830381600087803b15801561434e57600080fd5b505af1158015614362573d6000803e3d6000fd5b5050505060018111156040518060400160405280600281526020017f564300000000000000000000000000000000000000000000000000000000000081525090614447576040517f08c379a00000000000000000000000000000000000000000000000000000000081526004018080602001828103825283818151815260200191508051906020019080838360005b8381101561440c5780820151818401526020810190506143f1565b50505050905090810190601f1680156144395780820380516001836020036101000a031916815260200191505b509250505060405180910390fd5b506144768e600a60009054906101000a900473ffffffffffffffffffffffffffffffffffffffff168b866155e6565b6145c2565b600360ff168d60ff16141561454f576144fb8a600b60009054906101000a900473ffffffffffffffffffffffffffffffffffffffff1686600a60009054906101000a900473ffffffffffffffffffffffffffffffffffffffff1673ffffffffffffffffffffffffffffffffffffffff16614865909392919063ffffffff16565b61454a8a8c85600a60009054906101000a900473ffffffffffffffffffffffffffffffffffffffff1673ffffffffffffffffffffffffffffffffffffffff16614865909392919063ffffffff16565b6145c1565b6145c033600b60009054906101000a900473ffffffffffffffffffffffffffffffffffffffff1686600a60009054906101000a900473ffffffffffffffffffffffffffffffffffffffff1673ffffffffffffffffffffffffffffffffffffffff16614865909392919063ffffffff16565b5b5b600860009054906101000a900473ffffffffffffffffffffffffffffffffffffffff1673ffffffffffffffffffffffffffffffffffffffff166389b77b3e8f6040518263ffffffff1660e01b8152600401808273ffffffffffffffffffffffffffffffffffffffff168152602001915050600060405180830381600087803b15801561464d57600080fd5b505af1158015614661573d6000803e3d6000fd5b50505050600660008c73ffffffffffffffffffffffffffffffffffffffff1673ffffffffffffffffffffffffffffffffffffffff16815260200190815260200160002060006101000a81549073ffffffffffffffffffffffffffffffffffffffff0219169055600b60009054906101000a900473ffffffffffffffffffffffffffffffffffffffff1673ffffffffffffffffffffffffffffffffffffffff1663ca9505e48684846040518463ffffffff1660e01b8152600401808481526020018381526020018281526020019350505050600060405180830381600087803b15801561474c57600080fd5b505af1158015614760573d6000803e3d6000fd5b50505050838397509750505050505050965096945050505050565b61478361205f565b6147f5576040517f08c379a00000000000000000000000000000000000000000000000000000000081526004018080602001828103825260148152602001807f5061757361626c653a206e6f742070617573656400000000000000000000000081525060200191505060405180910390fd5b60008060006101000a81548160ff0219169083151502179055507f5db9ee0a495bf2e6ff9c91a7834c1ba4fdd244a5e8aa4e537bd38aeae4b073aa614838615868565b604051808273ffffffffffffffffffffffffffffffffffffffff16815260200191505060405180910390a1565b614920846323b872dd60e01b858585604051602401808473ffffffffffffffffffffffffffffffffffffffff1681526020018373ffffffffffffffffffffffffffffffffffffffff1681526020018281526020019350505050604051602081830303815290604052907bffffffffffffffffffffffffffffffffffffffffffffffffffffffff19166020820180517bffffffffffffffffffffffffffffffffffffffffffffffffffffffff8381831617835250505050615870565b50505050565b7f3fffffffffffffffffffffffffffffffffffffffffffffffffffffffffffffff8173ffffffffffffffffffffffffffffffffffffffff1663dd62ed3e85856040518363ffffffff1660e01b8152600401808373ffffffffffffffffffffffffffffffffffffffff1681526020018273ffffffffffffffffffffffffffffffffffffffff1681526020019250505060206040518083038186803b1580156149cc57600080fd5b505afa1580156149e0573d6000803e3d6000fd5b505050506040513d60208110156149f657600080fd5b81019080805190602001909291905050501015614aad578273ffffffffffffffffffffffffffffffffffffffff166303105b0482846040518363ffffffff1660e01b8152600401808373ffffffffffffffffffffffffffffffffffffffff1681526020018273ffffffffffffffffffffffffffffffffffffffff16815260200192505050600060405180830381600087803b158015614a9457600080fd5b505af1158015614aa8573d6000803e3d6000fd5b505050505b505050565b614aba61205f565b15614b2d576040517f08c379a00000000000000000000000000000000000000000000000000000000081526004018080602001828103825260108152602001807f5061757361626c653a207061757365640000000000000000000000000000000081525060200191505060405180910390fd5b60016000806101000a81548160ff0219169083151502179055507f62e78cea01bee320cd4e420270b5ea74000d11b0c9f74754ebdbfc544b05a258614b70615868565b604051808273ffffffffffffffffffffffffffffffffffffffff16815260200191505060405180910390a1565b6000808273ffffffffffffffffffffffffffffffffffffffff16631afbb7a46040518163ffffffff1660e01b815260040160206040518083038186803b158015614be657600080fd5b505afa158015614bfa573d6000803e3d6000fd5b505050506040513d6020811015614c1057600080fd5b810190808051906020019092919050505091508273ffffffffffffffffffffffffffffffffffffffff166317d11a156040518163ffffffff1660e01b815260040160206040518083038186803b158015614c6957600080fd5b505afa158015614c7d573d6000803e3d6000fd5b505050506040513d6020811015614c9357600080fd5b81019080805190602001909291905050509050915091565b600080614cb784613a74565b90506000614cc58285613f64565b5090506000614cd983600284898a8a61423e565b5090508473ffffffffffffffffffffffffffffffffffffffff168673ffffffffffffffffffffffffffffffffffffffff167fe7c7987373a0cc4913d307f23ab8ef02e0333a2af445065e2ef7636cffc6daa760405160405180910390a380935050505092915050565b600080600960009054906101000a900473ffffffffffffffffffffffffffffffffffffffff1673ffffffffffffffffffffffffffffffffffffffff1663b451cecc856040518263ffffffff1660e01b8152600401808273ffffffffffffffffffffffffffffffffffffffff16815260200191505060206040518083038186803b158015614dce57600080fd5b505afa158015614de2573d6000803e3d6000fd5b505050506040513d6020811015614df857600080fd5b810190808051906020019092919050505090506000600190505b600960009054906101000a900473ffffffffffffffffffffffffffffffffffffffff1673ffffffffffffffffffffffffffffffffffffffff166320a05ff76040518163ffffffff1660e01b815260040160206040518083038186803b158015614e7a57600080fd5b505afa158015614e8e573d6000803e3d6000fd5b505050506040513d6020811015614ea457600080fd5b810190808051906020019092919050505081101561540157806001901b9250600083831611156153f4576000806000600960009054906101000a900473ffffffffffffffffffffffffffffffffffffffff1673ffffffffffffffffffffffffffffffffffffffff1663af0a650289866040518363ffffffff1660e01b8152600401808373ffffffffffffffffffffffffffffffffffffffff1681526020018281526020019250505060806040518083038186803b158015614f6457600080fd5b505afa158015614f78573d6000803e3d6000fd5b505050506040513d6080811015614f8e57600080fd5b81019080805190602001909291908051906020019092919080519060200190929190805190602001909291905050505092509250925060008211156153f0576000600267ffffffffffffffff81118015614fe757600080fd5b506040519080825280602002602001820160405280156150165781602001602082028036833780820191505090505b509050838160008151811061502757fe5b602002602001019073ffffffffffffffffffffffffffffffffffffffff16908173ffffffffffffffffffffffffffffffffffffffff1681525050600a60009054906101000a900473ffffffffffffffffffffffffffffffffffffffff168160018151811061509157fe5b602002602001019073ffffffffffffffffffffffffffffffffffffffff16908173ffffffffffffffffffffffffffffffffffffffff16815250506150f889600e60009054906101000a900473ffffffffffffffffffffffffffffffffffffffff1686614926565b60006338ed173960e01b846151168b8661548b90919063ffffffff16565b848d4260405160240180868152602001858152602001806020018473ffffffffffffffffffffffffffffffffffffffff168152602001838152602001828103825285818151815260200191508051906020019060200280838360005b8381101561518d578082015181840152602081019050615172565b505050509050019650505050505050604051602081830303815290604052907bffffffffffffffffffffffffffffffffffffffffffffffffffffffff19166020820180517bffffffffffffffffffffffffffffffffffffffffffffffffffffffff838183161783525050505090508973ffffffffffffffffffffffffffffffffffffffff16631cff79cd600e60009054906101000a900473ffffffffffffffffffffffffffffffffffffffff16836040518363ffffffff1660e01b8152600401808373ffffffffffffffffffffffffffffffffffffffff16815260200180602001828103825283818151815260200191508051906020019080838360005b838110156152a657808201518184015260208101905061528b565b50505050905090810190601f1680156152d35780820380516001836020036101000a031916815260200191505b509350505050600060405180830381600087803b1580156152f357600080fd5b505af1158015615307573d6000803e3d6000fd5b505050506040513d6000823e3d601f19601f82011682018060405250602081101561533157600080fd5b810190808051604051939291908464010000000082111561535157600080fd5b8382019150602082018581111561536757600080fd5b825186600182028301116401000000008211171561538457600080fd5b8083526020830192505050908051906020019080838360005b838110156153b857808201518184015260208101905061539d565b50505050905090810190601f1680156153e55780820380516001836020036101000a031916815260200191505b506040525050505050505b5050505b8080600101915050614e12565b5050505050565b600082821115615480576040517f08c379a000000000000000000000000000000000000000000000000000000000815260040180806020018281038252601e8152602001807f536166654d6174683a207375627472616374696f6e206f766572666c6f77000081525060200191505060405180910390fd5b818303905092915050565b60008083148061549b5750600082145b156154a957600090506155e0565b816002612710816154b657fe5b047fffffffffffffffffffffffffffffffffffffffffffffffffffffffffffffffff03816154e057fe5b048311156040518060400160405280600281526020017f4d31000000000000000000000000000000000000000000000000000000000000815250906155c0576040517f08c379a00000000000000000000000000000000000000000000000000000000081526004018080602001828103825283818151815260200191508051906020019080838360005b8381101561558557808201518184015260208101905061556a565b50505050905090810190601f1680156155b25780820380516001836020036101000a031916815260200191505b509250505060405180910390fd5b506127106002612710816155d057fe5b0483850201816155dc57fe5b0490505b92915050565b6000849050600c60009054906101000a900473ffffffffffffffffffffffffffffffffffffffff1673ffffffffffffffffffffffffffffffffffffffff168473ffffffffffffffffffffffffffffffffffffffff16146156ec578073ffffffffffffffffffffffffffffffffffffffff1663beabacc88585856040518463ffffffff1660e01b8152600401808473ffffffffffffffffffffffffffffffffffffffff1681526020018373ffffffffffffffffffffffffffffffffffffffff1681526020018281526020019350505050600060405180830381600087803b1580156156cf57600080fd5b505af11580156156e3573d6000803e3d6000fd5b50505050615861565b8073ffffffffffffffffffffffffffffffffffffffff1663beabacc885600d60009054906101000a900473ffffffffffffffffffffffffffffffffffffffff16856040518463ffffffff1660e01b8152600401808473ffffffffffffffffffffffffffffffffffffffff1681526020018373ffffffffffffffffffffffffffffffffffffffff1681526020018281526020019350505050600060405180830381600087803b15801561579d57600080fd5b505af11580156157b1573d6000803e3d6000fd5b50505050600d60009054906101000a900473ffffffffffffffffffffffffffffffffffffffff1673ffffffffffffffffffffffffffffffffffffffff16635869dba884846040518363ffffffff1660e01b8152600401808373ffffffffffffffffffffffffffffffffffffffff16815260200182815260200192505050600060405180830381600087803b15801561584857600080fd5b505af115801561585c573d6000803e3d6000fd5b505050505b5050505050565b600033905090565b60006158d2826040518060400160405280602081526020017f5361666545524332303a206c6f772d6c6576656c2063616c6c206661696c65648152508573ffffffffffffffffffffffffffffffffffffffff1661595f9092919063ffffffff16565b905060008151111561595a578080602001905160208110156158f357600080fd5b8101908080519060200190929190505050615959576040517f08c379a000000000000000000000000000000000000000000000000000000000815260040180806020018281038252602a815260200180615c46602a913960400191505060405180910390fd5b5b505050565b606061596e8484600085615977565b90509392505050565b6060824710156159d2576040517f08c379a0000000000000000000000000000000000000000000000000000000008152600401808060200182810382526026815260200180615bff6026913960400191505060405180910390fd5b6159db85615b1f565b615a4d576040517f08c379a000000000000000000000000000000000000000000000000000000000815260040180806020018281038252601d8152602001807f416464726573733a2063616c6c20746f206e6f6e2d636f6e747261637400000081525060200191505060405180910390fd5b6000808673ffffffffffffffffffffffffffffffffffffffff1685876040518082805190602001908083835b60208310615a9c5780518252602082019150602081019050602083039250615a79565b6001836020036101000a03801982511681845116808217855250505050505090500191505060006040518083038185875af1925050503d8060008114615afe576040519150601f19603f3d011682016040523d82523d6000602084013e615b03565b606091505b5091509150615b13828286615b32565b92505050949350505050565b600080823b905060008111915050919050565b60608315615b4257829050615bf7565b600083511115615b555782518084602001fd5b816040517f08c379a00000000000000000000000000000000000000000000000000000000081526004018080602001828103825283818151815260200191508051906020019080838360005b83811015615bbc578082015181840152602081019050615ba1565b50505050905090810190601f168015615be95780820380516001836020036101000a031916815260200191505b509250505060405180910390fd5b939250505056fe416464726573733a20696e73756666696369656e742062616c616e636520666f722063616c6c536166654d6174683a206d756c7469706c69636174696f6e206f766572666c6f775361666545524332303a204552433230206f7065726174696f6e20646964206e6f742073756363656564a26469706673582212207184e43406ace3bdc67bb099deb044a0e34fdfa18a5a73152872aad336935a9464736f6c63430007060033536166654d6174683a206d756c7469706c69636174696f6e206f766572666c6f77",
  "linkReferences": {},
  "deployedLinkReferences": {}
}